{
	"src/OrderMatcherWrapper.sol": {
		"OrderMatcherWrapper": {
			"abi": [
				{
					"inputs": [
						{
							"internalType": "address",
							"name": "_endpoint",
							"type": "address"
						},
						{
							"internalType": "address",
							"name": "_owner",
							"type": "address"
						},
						{
							"internalType": "address",
							"name": "_rustContractAddress",
							"type": "address"
						}
					],
					"stateMutability": "nonpayable",
					"type": "constructor"
				},
				{
					"inputs": [],
					"name": "InvalidDelegate",
					"type": "error"
				},
				{
					"inputs": [],
					"name": "InvalidEndpointCall",
					"type": "error"
				},
				{
					"inputs": [],
					"name": "LzTokenUnavailable",
					"type": "error"
				},
				{
					"inputs": [
						{
							"internalType": "uint32",
							"name": "eid",
							"type": "uint32"
						}
					],
					"name": "NoPeer",
					"type": "error"
				},
				{
					"inputs": [
						{
							"internalType": "uint256",
							"name": "msgValue",
							"type": "uint256"
						}
					],
					"name": "NotEnoughNative",
					"type": "error"
				},
				{
					"inputs": [
						{
							"internalType": "address",
							"name": "addr",
							"type": "address"
						}
					],
					"name": "OnlyEndpoint",
					"type": "error"
				},
				{
					"inputs": [
						{
							"internalType": "uint32",
							"name": "eid",
							"type": "uint32"
						},
						{
							"internalType": "bytes32",
							"name": "sender",
							"type": "bytes32"
						}
					],
					"name": "OnlyPeer",
					"type": "error"
				},
				{
					"inputs": [
						{
							"internalType": "address",
							"name": "owner",
							"type": "address"
						}
					],
					"name": "OwnableInvalidOwner",
					"type": "error"
				},
				{
					"inputs": [
						{
							"internalType": "address",
							"name": "account",
							"type": "address"
						}
					],
					"name": "OwnableUnauthorizedAccount",
					"type": "error"
				},
				{
					"anonymous": false,
					"inputs": [
						{
							"indexed": true,
							"internalType": "address",
							"name": "user",
							"type": "address"
						}
					],
					"name": "AllOrdersCanceled",
					"type": "event"
				},
				{
					"anonymous": false,
					"inputs": [
						{
							"indexed": false,
							"internalType": "uint256",
							"name": "orderId",
							"type": "uint256"
						},
						{
							"indexed": true,
							"internalType": "address",
							"name": "user",
							"type": "address"
						}
					],
					"name": "OrderCanceled",
					"type": "event"
				},
				{
					"anonymous": false,
					"inputs": [
						{
							"indexed": false,
							"internalType": "uint256",
							"name": "buyOrderId",
							"type": "uint256"
						},
						{
							"indexed": false,
							"internalType": "uint256",
							"name": "sellOrderId",
							"type": "uint256"
						},
						{
							"indexed": true,
							"internalType": "address",
							"name": "buyer",
							"type": "address"
						},
						{
							"indexed": true,
							"internalType": "address",
							"name": "seller",
							"type": "address"
						},
						{
							"indexed": false,
							"internalType": "uint256",
							"name": "amount",
							"type": "uint256"
						},
						{
							"indexed": false,
							"internalType": "uint256",
							"name": "price",
							"type": "uint256"
						}
					],
					"name": "OrderMatched",
					"type": "event"
				},
				{
					"anonymous": false,
					"inputs": [
						{
							"indexed": false,
							"internalType": "uint256",
							"name": "orderId",
							"type": "uint256"
						},
						{
							"indexed": true,
							"internalType": "address",
							"name": "user",
							"type": "address"
						},
						{
							"indexed": false,
							"internalType": "uint256",
							"name": "orderType",
							"type": "uint256"
						},
						{
							"indexed": false,
							"internalType": "address",
							"name": "token0",
							"type": "address"
						},
						{
							"indexed": false,
							"internalType": "address",
							"name": "token1",
							"type": "address"
						},
						{
							"indexed": false,
							"internalType": "uint256",
							"name": "amount",
							"type": "uint256"
						},
						{
							"indexed": false,
							"internalType": "uint256",
							"name": "price",
							"type": "uint256"
						}
					],
					"name": "OrderPlaced",
					"type": "event"
				},
				{
					"anonymous": false,
					"inputs": [
						{
							"indexed": true,
							"internalType": "address",
							"name": "previousOwner",
							"type": "address"
						},
						{
							"indexed": true,
							"internalType": "address",
							"name": "newOwner",
							"type": "address"
						}
					],
					"name": "OwnershipTransferred",
					"type": "event"
				},
				{
					"anonymous": false,
					"inputs": [
						{
							"indexed": false,
							"internalType": "uint32",
							"name": "eid",
							"type": "uint32"
						},
						{
							"indexed": false,
							"internalType": "bytes32",
							"name": "peer",
							"type": "bytes32"
						}
					],
					"name": "PeerSet",
					"type": "event"
				},
				{
					"inputs": [
						{
							"components": [
								{
									"internalType": "uint32",
									"name": "srcEid",
									"type": "uint32"
								},
								{
									"internalType": "bytes32",
									"name": "sender",
									"type": "bytes32"
								},
								{
									"internalType": "uint64",
									"name": "nonce",
									"type": "uint64"
								}
							],
							"internalType": "struct Origin",
							"name": "origin",
							"type": "tuple"
						}
					],
					"name": "allowInitializePath",
					"outputs": [
						{
							"internalType": "bool",
							"name": "",
							"type": "bool"
						}
					],
					"stateMutability": "view",
					"type": "function"
				},
				{
					"inputs": [],
					"name": "callSenderEid",
					"outputs": [
						{
							"internalType": "uint32",
							"name": "",
							"type": "uint32"
						}
					],
					"stateMutability": "view",
					"type": "function"
				},
				{
					"inputs": [],
					"name": "cancelAllLimitOrders",
					"outputs": [],
					"stateMutability": "nonpayable",
					"type": "function"
				},
				{
					"inputs": [
						{
							"internalType": "uint256",
							"name": "orderId",
							"type": "uint256"
						}
					],
					"name": "cancelLimitOrder",
					"outputs": [],
					"stateMutability": "nonpayable",
					"type": "function"
				},
				{
					"inputs": [],
					"name": "composeMsgSender",
					"outputs": [
						{
							"internalType": "address",
							"name": "sender",
							"type": "address"
						}
					],
					"stateMutability": "view",
					"type": "function"
				},
				{
					"inputs": [],
					"name": "deployer",
					"outputs": [
						{
							"internalType": "address",
							"name": "",
							"type": "address"
						}
					],
					"stateMutability": "view",
					"type": "function"
				},
				{
					"inputs": [],
					"name": "endpoint",
					"outputs": [
						{
							"internalType": "contract ILayerZeroEndpointV2",
							"name": "",
							"type": "address"
						}
					],
					"stateMutability": "view",
					"type": "function"
				},
				{
					"inputs": [],
					"name": "getChainID",
					"outputs": [
						{
							"internalType": "uint256",
							"name": "",
							"type": "uint256"
						}
					],
					"stateMutability": "view",
					"type": "function"
				},
				{
					"inputs": [],
					"name": "inWrapper",
					"outputs": [
						{
							"internalType": "bool",
							"name": "",
							"type": "bool"
						}
					],
					"stateMutability": "view",
					"type": "function"
				},
				{
					"inputs": [
						{
							"components": [
								{
									"internalType": "uint32",
									"name": "srcEid",
									"type": "uint32"
								},
								{
									"internalType": "bytes32",
									"name": "sender",
									"type": "bytes32"
								},
								{
									"internalType": "uint64",
									"name": "nonce",
									"type": "uint64"
								}
							],
							"internalType": "struct Origin",
							"name": "_origin",
							"type": "tuple"
						},
						{
							"internalType": "bytes32",
							"name": "_guid",
							"type": "bytes32"
						},
						{
							"internalType": "bytes",
							"name": "_message",
							"type": "bytes"
						},
						{
							"internalType": "address",
							"name": "_executor",
							"type": "address"
						},
						{
							"internalType": "bytes",
							"name": "_extraData",
							"type": "bytes"
						}
					],
					"name": "lzReceive",
					"outputs": [],
					"stateMutability": "payable",
					"type": "function"
				},
				{
					"inputs": [
						{
							"internalType": "uint32",
							"name": "",
							"type": "uint32"
						},
						{
							"internalType": "bytes32",
							"name": "",
							"type": "bytes32"
						}
					],
					"name": "nextNonce",
					"outputs": [
						{
							"internalType": "uint64",
							"name": "nonce",
							"type": "uint64"
						}
					],
					"stateMutability": "view",
					"type": "function"
				},
				{
					"inputs": [],
					"name": "oAppVersion",
					"outputs": [
						{
							"internalType": "uint64",
							"name": "senderVersion",
							"type": "uint64"
						},
						{
							"internalType": "uint64",
							"name": "receiverVersion",
							"type": "uint64"
						}
					],
					"stateMutability": "pure",
					"type": "function"
				},
				{
					"inputs": [],
					"name": "owner",
					"outputs": [
						{
							"internalType": "address",
							"name": "",
							"type": "address"
						}
					],
					"stateMutability": "view",
					"type": "function"
				},
				{
					"inputs": [
						{
							"internalType": "uint32",
							"name": "eid",
							"type": "uint32"
						}
					],
					"name": "peers",
					"outputs": [
						{
							"internalType": "bytes32",
							"name": "peer",
							"type": "bytes32"
						}
					],
					"stateMutability": "view",
					"type": "function"
				},
				{
					"inputs": [
						{
							"internalType": "uint256",
							"name": "orderType",
							"type": "uint256"
						},
						{
							"internalType": "address",
							"name": "token0",
							"type": "address"
						},
						{
							"internalType": "address",
							"name": "token1",
							"type": "address"
						},
						{
							"internalType": "uint256",
							"name": "amount",
							"type": "uint256"
						},
						{
							"internalType": "uint256",
							"name": "price",
							"type": "uint256"
						},
						{
							"internalType": "address",
							"name": "user",
							"type": "address"
						},
						{
							"internalType": "uint32",
							"name": "userEid",
							"type": "uint32"
						}
					],
					"name": "placeLimitOrder",
					"outputs": [],
					"stateMutability": "payable",
					"type": "function"
				},
				{
					"inputs": [
						{
							"internalType": "uint256",
							"name": "orderType",
							"type": "uint256"
						},
						{
							"internalType": "address",
							"name": "token0",
							"type": "address"
						},
						{
							"internalType": "address",
							"name": "token1",
							"type": "address"
						},
						{
							"internalType": "uint256",
							"name": "amount",
							"type": "uint256"
						}
					],
					"name": "placeMarketOrder",
					"outputs": [],
					"stateMutability": "nonpayable",
					"type": "function"
				},
				{
					"inputs": [],
					"name": "renounceOwnership",
					"outputs": [],
					"stateMutability": "nonpayable",
					"type": "function"
				},
				{
					"inputs": [
						{
							"internalType": "uint256",
							"name": "index",
							"type": "uint256"
						}
					],
					"name": "retrieveLimitOrder",
					"outputs": [
						{
							"components": [
								{
									"internalType": "uint256",
									"name": "id",
									"type": "uint256"
								},
								{
									"internalType": "address",
									"name": "user",
									"type": "address"
								},
								{
									"internalType": "uint256",
									"name": "orderType",
									"type": "uint256"
								},
								{
									"internalType": "address",
									"name": "token0",
									"type": "address"
								},
								{
									"internalType": "address",
									"name": "token1",
									"type": "address"
								},
								{
									"internalType": "uint256",
									"name": "amount",
									"type": "uint256"
								},
								{
									"internalType": "uint256",
									"name": "price",
									"type": "uint256"
								},
								{
									"internalType": "bool",
									"name": "isFilled",
									"type": "bool"
								},
								{
									"internalType": "bool",
									"name": "isCanceled",
									"type": "bool"
								}
							],
							"internalType": "struct IOrderMatcherWrapper.Order",
							"name": "",
							"type": "tuple"
						}
					],
					"stateMutability": "view",
					"type": "function"
				},
				{
					"inputs": [],
					"name": "rustContractAddress",
					"outputs": [
						{
							"internalType": "address",
							"name": "",
							"type": "address"
						}
					],
					"stateMutability": "view",
					"type": "function"
				},
				{
					"inputs": [
						{
							"internalType": "address",
							"name": "_delegate",
							"type": "address"
						}
					],
					"name": "setDelegate",
					"outputs": [],
					"stateMutability": "nonpayable",
					"type": "function"
				},
				{
					"inputs": [
						{
							"internalType": "uint32",
							"name": "_eid",
							"type": "uint32"
						},
						{
							"internalType": "bytes32",
							"name": "_peer",
							"type": "bytes32"
						}
					],
					"name": "setPeer",
					"outputs": [],
					"stateMutability": "nonpayable",
					"type": "function"
				},
				{
					"inputs": [
						{
							"internalType": "address",
							"name": "_rustContractAddress",
							"type": "address"
						}
					],
					"name": "setRustContractAddress",
					"outputs": [],
					"stateMutability": "nonpayable",
					"type": "function"
				},
				{
					"inputs": [],
					"name": "setTrue",
					"outputs": [
						{
							"internalType": "bool",
							"name": "",
							"type": "bool"
						}
					],
					"stateMutability": "view",
					"type": "function"
				},
				{
					"inputs": [
						{
							"internalType": "address",
							"name": "newOwner",
							"type": "address"
						}
					],
					"name": "transferOwnership",
					"outputs": [],
					"stateMutability": "nonpayable",
					"type": "function"
				}
			],
			"devdoc": {
				"errors": {
					"OwnableInvalidOwner(address)": [
						{
							"details": "The owner is not a valid owner account. (eg. `address(0)`)"
						}
					],
					"OwnableUnauthorizedAccount(address)": [
						{
							"details": "The caller account is not authorized to perform an operation."
						}
					]
				},
				"kind": "dev",
				"methods": {
					"allowInitializePath((uint32,bytes32,uint64))": {
						"details": "This indicates to the endpoint that the OApp has enabled msgs for this particular path to be received.This defaults to assuming if a peer has been set, its initialized. Can be overridden by the OApp if there is other logic to determine this.",
						"params": {
							"origin": "The origin information containing the source endpoint and sender address."
						},
						"returns": {
							"_0": "Whether the path has been initialized."
						}
					},
					"composeMsgSender()": {
						"details": "Applications can optionally choose to implement a separate composeMsg sender that is NOT the bridging layer.The default sender IS the OApp implementer.",
						"returns": {
							"sender": "The address responsible for 'sending' composeMsg's to the Endpoint."
						}
					},
					"lzReceive((uint32,bytes32,uint64),bytes32,bytes,address,bytes)": {
						"details": "Entry point for receiving messages or packets from the endpoint.Entry point for receiving msg/packet from the LayerZero endpoint.",
						"params": {
							"_executor": "The address of the executor for the received message.",
							"_extraData": "Additional arbitrary data provided by the corresponding executor.",
							"_guid": "The unique identifier for the received LayerZero message.",
							"_message": "The payload of the received message.",
							"_origin": "The origin information containing the source endpoint and sender address.  - srcEid: The source chain endpoint ID.  - sender: The sender address on the src chain.  - nonce: The nonce of the message."
						}
					},
					"nextNonce(uint32,bytes32)": {
						"details": "_srcEid The source endpoint ID._sender The sender address.The path nonce starts from 1. If 0 is returned it means that there is NO nonce ordered enforcement.Is required by the off-chain executor to determine the OApp expects msg execution is ordered.This is also enforced by the OApp.By default this is NOT enabled. ie. nextNonce is hardcoded to return 0.",
						"returns": {
							"nonce": "The next nonce."
						}
					},
					"oAppVersion()": {
						"returns": {
							"receiverVersion": "The version of the OAppReceiver.sol implementation.",
							"senderVersion": "The version of the OAppSender.sol implementation."
						}
					},
					"owner()": {
						"details": "Returns the address of the current owner."
					},
					"renounceOwnership()": {
						"details": "Leaves the contract without owner. It will not be possible to call `onlyOwner` functions. Can only be called by the current owner. NOTE: Renouncing ownership will leave the contract without an owner, thereby disabling any functionality that is only available to the owner."
					},
					"setDelegate(address)": {
						"details": "Only the owner/admin of the OApp can call this function.Provides the ability for a delegate to set configs, on behalf of the OApp, directly on the Endpoint contract.",
						"params": {
							"_delegate": "The address of the delegate to be set."
						}
					},
					"setPeer(uint32,bytes32)": {
						"details": "Only the owner/admin of the OApp can call this function.Indicates that the peer is trusted to send LayerZero messages to this OApp.Set this to bytes32(0) to remove the peer address.Peer is a bytes32 to accommodate non-evm chains.",
						"params": {
							"_eid": "The endpoint ID.",
							"_peer": "The address of the peer to be associated with the corresponding endpoint."
						}
					},
					"transferOwnership(address)": {
						"details": "Transfers ownership of the contract to a new account (`newOwner`). Can only be called by the current owner."
					}
				},
				"version": 1
			},
			"evm": {
				"assembly": "    /* \"src/OrderMatcherWrapper.sol\":324:8464  contract OrderMatcherWrapper is OApp, IOrderMatcherWrapper {... */\n  mstore(0x40, 0xa0)\n    /* \"src/OrderMatcherWrapper.sol\":484:489  false */\n  0x00\n    /* \"src/OrderMatcherWrapper.sol\":460:489  bool public inWrapper = false */\n  0x03\n  exp(0x0100, 0x14)\n  dup2\n  sload\n  dup2\n  0xff\n  mul\n  not\n  and\n  swap1\n  dup4\n  iszero\n  iszero\n  mul\n  or\n  swap1\n  sstore\n  pop\n    /* \"src/OrderMatcherWrapper.sol\":518:523  false */\n  0x00\n    /* \"src/OrderMatcherWrapper.sol\":496:523  bool public setTrue = false */\n  0x03\n  exp(0x0100, 0x15)\n  dup2\n  sload\n  dup2\n  0xff\n  mul\n  not\n  and\n  swap1\n  dup4\n  iszero\n  iszero\n  mul\n  or\n  swap1\n  sstore\n  pop\n    /* \"src/OrderMatcherWrapper.sol\":559:560  1 */\n  0x01\n    /* \"src/OrderMatcherWrapper.sol\":529:560  uint32 public callSenderEid = 1 */\n  0x03\n  exp(0x0100, 0x16)\n  dup2\n  sload\n  dup2\n  0xffffffff\n  mul\n  not\n  and\n  swap1\n  dup4\n  0xffffffff\n  and\n  mul\n  or\n  swap1\n  sstore\n  pop\n    /* \"src/OrderMatcherWrapper.sol\":567:775  constructor(address _endpoint, address _owner, address _rustContractAddress) OApp(_endpoint, _owner) Ownable(_owner)  {... */\n  callvalue\n  dup1\n  iszero\n  tag_1\n  jumpi\n  0x00\n  dup1\n  revert\ntag_1:\n  pop\n  mload(0x40)\n  sub(codesize, bytecodeSize)\n  dup1\n  bytecodeSize\n  dup4\n  codecopy\n  dup2\n  dup2\n  add\n  0x40\n  mstore\n  dup2\n  add\n  swap1\n  tag_2\n  swap2\n  swap1\n  tag_3\n  jump\t// in\ntag_2:\n    /* \"src/OrderMatcherWrapper.sol\":649:658  _endpoint */\n  dup3\n    /* \"src/OrderMatcherWrapper.sol\":660:666  _owner */\n  dup3\n    /* \"lib/LayerZero-v2/packages/layerzero-v2/evm/oapp/contracts/oapp/OApp.sol\":1024:1033  _endpoint */\n  dup2\n    /* \"lib/LayerZero-v2/packages/layerzero-v2/evm/oapp/contracts/oapp/OApp.sol\":1035:1044  _delegate */\n  dup2\n    /* \"src/OrderMatcherWrapper.sol\":676:682  _owner */\n  dup6\n    /* \"lib/openzeppelin-contracts/contracts/access/Ownable.sol\":1297:1298  0 */\n  0x00\n    /* \"lib/openzeppelin-contracts/contracts/access/Ownable.sol\":1273:1299  initialOwner == address(0) */\n  0xffffffffffffffffffffffffffffffffffffffff\n  and\n    /* \"lib/openzeppelin-contracts/contracts/access/Ownable.sol\":1273:1285  initialOwner */\n  dup2\n    /* \"lib/openzeppelin-contracts/contracts/access/Ownable.sol\":1273:1299  initialOwner == address(0) */\n  0xffffffffffffffffffffffffffffffffffffffff\n  and\n  sub\n    /* \"lib/openzeppelin-contracts/contracts/access/Ownable.sol\":1269:1364  if (initialOwner == address(0)) {... */\n  tag_9\n  jumpi\n    /* \"lib/openzeppelin-contracts/contracts/access/Ownable.sol\":1350:1351  0 */\n  0x00\n    /* \"lib/openzeppelin-contracts/contracts/access/Ownable.sol\":1322:1353  OwnableInvalidOwner(address(0)) */\n  mload(0x40)\n  0x1e4fbdf700000000000000000000000000000000000000000000000000000000\n  dup2\n  mstore\n  0x04\n  add\n  tag_10\n  swap2\n  swap1\n  tag_11\n  jump\t// in\ntag_10:\n  mload(0x40)\n  dup1\n  swap2\n  sub\n  swap1\n  revert\n    /* \"lib/openzeppelin-contracts/contracts/access/Ownable.sol\":1269:1364  if (initialOwner == address(0)) {... */\ntag_9:\n    /* \"lib/openzeppelin-contracts/contracts/access/Ownable.sol\":1373:1405  _transferOwnership(initialOwner) */\n  tag_12\n    /* \"lib/openzeppelin-contracts/contracts/access/Ownable.sol\":1392:1404  initialOwner */\n  dup2\n    /* \"lib/openzeppelin-contracts/contracts/access/Ownable.sol\":1373:1391  _transferOwnership */\n  shl(0x20, tag_13)\n    /* \"lib/openzeppelin-contracts/contracts/access/Ownable.sol\":1373:1405  _transferOwnership(initialOwner) */\n  0x20\n  shr\n  jump\t// in\ntag_12:\n    /* \"lib/openzeppelin-contracts/contracts/access/Ownable.sol\":1225:1412  constructor(address initialOwner) {... */\n  pop\n    /* \"lib/LayerZero-v2/packages/layerzero-v2/evm/oapp/contracts/oapp/OAppCore.sol\":1079:1088  _endpoint */\n  dup2\n    /* \"lib/LayerZero-v2/packages/layerzero-v2/evm/oapp/contracts/oapp/OAppCore.sol\":1047:1089  endpoint = ILayerZeroEndpointV2(_endpoint) */\n  0xffffffffffffffffffffffffffffffffffffffff\n  and\n  0x80\n  dup2\n  0xffffffffffffffffffffffffffffffffffffffff\n  and\n  dup2\n  mstore\n  pop\n  pop\n    /* \"lib/LayerZero-v2/packages/layerzero-v2/evm/oapp/contracts/oapp/OAppCore.sol\":1125:1126  0 */\n  0x00\n    /* \"lib/LayerZero-v2/packages/layerzero-v2/evm/oapp/contracts/oapp/OAppCore.sol\":1104:1127  _delegate == address(0) */\n  0xffffffffffffffffffffffffffffffffffffffff\n  and\n    /* \"lib/LayerZero-v2/packages/layerzero-v2/evm/oapp/contracts/oapp/OAppCore.sol\":1104:1113  _delegate */\n  dup2\n    /* \"lib/LayerZero-v2/packages/layerzero-v2/evm/oapp/contracts/oapp/OAppCore.sol\":1104:1127  _delegate == address(0) */\n  0xffffffffffffffffffffffffffffffffffffffff\n  and\n  sub\n    /* \"lib/LayerZero-v2/packages/layerzero-v2/evm/oapp/contracts/oapp/OAppCore.sol\":1100:1153  if (_delegate == address(0)) revert InvalidDelegate() */\n  tag_15\n  jumpi\n    /* \"lib/LayerZero-v2/packages/layerzero-v2/evm/oapp/contracts/oapp/OAppCore.sol\":1136:1153  InvalidDelegate() */\n  mload(0x40)\n  0xb586360400000000000000000000000000000000000000000000000000000000\n  dup2\n  mstore\n  0x04\n  add\n  mload(0x40)\n  dup1\n  swap2\n  sub\n  swap1\n  revert\n    /* \"lib/LayerZero-v2/packages/layerzero-v2/evm/oapp/contracts/oapp/OAppCore.sol\":1100:1153  if (_delegate == address(0)) revert InvalidDelegate() */\ntag_15:\n    /* \"lib/LayerZero-v2/packages/layerzero-v2/evm/oapp/contracts/oapp/OAppCore.sol\":1163:1171  endpoint */\n  mload(0x80)\n    /* \"lib/LayerZero-v2/packages/layerzero-v2/evm/oapp/contracts/oapp/OAppCore.sol\":1163:1183  endpoint.setDelegate */\n  0xffffffffffffffffffffffffffffffffffffffff\n  and\n  0xca5eb5e1\n    /* \"lib/LayerZero-v2/packages/layerzero-v2/evm/oapp/contracts/oapp/OAppCore.sol\":1184:1193  _delegate */\n  dup3\n    /* \"lib/LayerZero-v2/packages/layerzero-v2/evm/oapp/contracts/oapp/OAppCore.sol\":1163:1194  endpoint.setDelegate(_delegate) */\n  mload(0x40)\n  dup3\n  0xffffffff\n  and\n  0xe0\n  shl\n  dup2\n  mstore\n  0x04\n  add\n  tag_16\n  swap2\n  swap1\n  tag_11\n  jump\t// in\ntag_16:\n  0x00\n  mload(0x40)\n  dup1\n  dup4\n  sub\n  dup2\n  0x00\n  dup8\n  dup1\n  extcodesize\n  iszero\n  dup1\n  iszero\n  tag_17\n  jumpi\n  0x00\n  dup1\n  revert\ntag_17:\n  pop\n  gas\n  call\n  iszero\n  dup1\n  iszero\n  tag_19\n  jumpi\n  returndatasize\n  0x00\n  dup1\n  returndatacopy\n  revert(0x00, returndatasize)\ntag_19:\n  pop\n  pop\n  pop\n  pop\n    /* \"lib/LayerZero-v2/packages/layerzero-v2/evm/oapp/contracts/oapp/OAppCore.sol\":987:1201  constructor(address _endpoint, address _delegate) {... */\n  pop\n  pop\n    /* \"lib/LayerZero-v2/packages/layerzero-v2/evm/oapp/contracts/oapp/OApp.sol\":965:1048  constructor(address _endpoint, address _delegate) OAppCore(_endpoint, _delegate) {} */\n  pop\n  pop\n    /* \"src/OrderMatcherWrapper.sol\":717:737  _rustContractAddress */\n  dup1\n    /* \"src/OrderMatcherWrapper.sol\":695:714  rustContractAddress */\n  0x02\n  0x00\n    /* \"src/OrderMatcherWrapper.sol\":695:737  rustContractAddress = _rustContractAddress */\n  0x0100\n  exp\n  dup2\n  sload\n  dup2\n  0xffffffffffffffffffffffffffffffffffffffff\n  mul\n  not\n  and\n  swap1\n  dup4\n  0xffffffffffffffffffffffffffffffffffffffff\n  and\n  mul\n  or\n  swap1\n  sstore\n  pop\n    /* \"src/OrderMatcherWrapper.sol\":758:768  msg.sender */\n  caller\n    /* \"src/OrderMatcherWrapper.sol\":747:755  deployer */\n  0x03\n  0x00\n    /* \"src/OrderMatcherWrapper.sol\":747:768  deployer = msg.sender */\n  0x0100\n  exp\n  dup2\n  sload\n  dup2\n  0xffffffffffffffffffffffffffffffffffffffff\n  mul\n  not\n  and\n  swap1\n  dup4\n  0xffffffffffffffffffffffffffffffffffffffff\n  and\n  mul\n  or\n  swap1\n  sstore\n  pop\n    /* \"src/OrderMatcherWrapper.sol\":567:775  constructor(address _endpoint, address _owner, address _rustContractAddress) OApp(_endpoint, _owner) Ownable(_owner)  {... */\n  pop\n  pop\n  pop\n    /* \"src/OrderMatcherWrapper.sol\":324:8464  contract OrderMatcherWrapper is OApp, IOrderMatcherWrapper {... */\n  jump(tag_22)\n    /* \"lib/openzeppelin-contracts/contracts/access/Ownable.sol\":2912:3099  function _transferOwnership(address newOwner) internal virtual {... */\ntag_13:\n    /* \"lib/openzeppelin-contracts/contracts/access/Ownable.sol\":2985:3001  address oldOwner */\n  0x00\n    /* \"lib/openzeppelin-contracts/contracts/access/Ownable.sol\":3004:3010  _owner */\n  dup1\n  0x00\n  swap1\n  sload\n  swap1\n  0x0100\n  exp\n  swap1\n  div\n  0xffffffffffffffffffffffffffffffffffffffff\n  and\n    /* \"lib/openzeppelin-contracts/contracts/access/Ownable.sol\":2985:3010  address oldOwner = _owner */\n  swap1\n  pop\n    /* \"lib/openzeppelin-contracts/contracts/access/Ownable.sol\":3029:3037  newOwner */\n  dup2\n    /* \"lib/openzeppelin-contracts/contracts/access/Ownable.sol\":3020:3026  _owner */\n  0x00\n  dup1\n    /* \"lib/openzeppelin-contracts/contracts/access/Ownable.sol\":3020:3037  _owner = newOwner */\n  0x0100\n  exp\n  dup2\n  sload\n  dup2\n  0xffffffffffffffffffffffffffffffffffffffff\n  mul\n  not\n  and\n  swap1\n  dup4\n  0xffffffffffffffffffffffffffffffffffffffff\n  and\n  mul\n  or\n  swap1\n  sstore\n  pop\n    /* \"lib/openzeppelin-contracts/contracts/access/Ownable.sol\":3083:3091  newOwner */\n  dup2\n    /* \"lib/openzeppelin-contracts/contracts/access/Ownable.sol\":3052:3092  OwnershipTransferred(oldOwner, newOwner) */\n  0xffffffffffffffffffffffffffffffffffffffff\n  and\n    /* \"lib/openzeppelin-contracts/contracts/access/Ownable.sol\":3073:3081  oldOwner */\n  dup2\n    /* \"lib/openzeppelin-contracts/contracts/access/Ownable.sol\":3052:3092  OwnershipTransferred(oldOwner, newOwner) */\n  0xffffffffffffffffffffffffffffffffffffffff\n  and\n  0x8be0079c531659141344cd1fd0a4f28419497f9722a3daafe3b4186f6b6457e0\n  mload(0x40)\n  mload(0x40)\n  dup1\n  swap2\n  sub\n  swap1\n  log3\n    /* \"lib/openzeppelin-contracts/contracts/access/Ownable.sol\":2975:3099  {... */\n  pop\n    /* \"lib/openzeppelin-contracts/contracts/access/Ownable.sol\":2912:3099  function _transferOwnership(address newOwner) internal virtual {... */\n  pop\n  jump\t// out\n    /* \"#utility.yul\":88:205   */\ntag_25:\n    /* \"#utility.yul\":197:198   */\n  0x00\n    /* \"#utility.yul\":194:195   */\n  dup1\n    /* \"#utility.yul\":187:199   */\n  revert\n    /* \"#utility.yul\":334:460   */\ntag_27:\n    /* \"#utility.yul\":371:378   */\n  0x00\n    /* \"#utility.yul\":411:453   */\n  0xffffffffffffffffffffffffffffffffffffffff\n    /* \"#utility.yul\":404:409   */\n  dup3\n    /* \"#utility.yul\":400:454   */\n  and\n    /* \"#utility.yul\":389:454   */\n  swap1\n  pop\n    /* \"#utility.yul\":334:460   */\n  swap2\n  swap1\n  pop\n  jump\t// out\n    /* \"#utility.yul\":466:562   */\ntag_28:\n    /* \"#utility.yul\":503:510   */\n  0x00\n    /* \"#utility.yul\":532:556   */\n  tag_38\n    /* \"#utility.yul\":550:555   */\n  dup3\n    /* \"#utility.yul\":532:556   */\n  tag_27\n  jump\t// in\ntag_38:\n    /* \"#utility.yul\":521:556   */\n  swap1\n  pop\n    /* \"#utility.yul\":466:562   */\n  swap2\n  swap1\n  pop\n  jump\t// out\n    /* \"#utility.yul\":568:690   */\ntag_29:\n    /* \"#utility.yul\":641:665   */\n  tag_40\n    /* \"#utility.yul\":659:664   */\n  dup2\n    /* \"#utility.yul\":641:665   */\n  tag_28\n  jump\t// in\ntag_40:\n    /* \"#utility.yul\":634:639   */\n  dup2\n    /* \"#utility.yul\":631:666   */\n  eq\n    /* \"#utility.yul\":621:684   */\n  tag_41\n  jumpi\n    /* \"#utility.yul\":680:681   */\n  0x00\n    /* \"#utility.yul\":677:678   */\n  dup1\n    /* \"#utility.yul\":670:682   */\n  revert\n    /* \"#utility.yul\":621:684   */\ntag_41:\n    /* \"#utility.yul\":568:690   */\n  pop\n  jump\t// out\n    /* \"#utility.yul\":696:839   */\ntag_30:\n    /* \"#utility.yul\":753:758   */\n  0x00\n    /* \"#utility.yul\":784:790   */\n  dup2\n    /* \"#utility.yul\":778:791   */\n  mload\n    /* \"#utility.yul\":769:791   */\n  swap1\n  pop\n    /* \"#utility.yul\":800:833   */\n  tag_43\n    /* \"#utility.yul\":827:832   */\n  dup2\n    /* \"#utility.yul\":800:833   */\n  tag_29\n  jump\t// in\ntag_43:\n    /* \"#utility.yul\":696:839   */\n  swap3\n  swap2\n  pop\n  pop\n  jump\t// out\n    /* \"#utility.yul\":845:1508   */\ntag_3:\n    /* \"#utility.yul\":933:939   */\n  0x00\n    /* \"#utility.yul\":941:947   */\n  dup1\n    /* \"#utility.yul\":949:955   */\n  0x00\n    /* \"#utility.yul\":998:1000   */\n  0x60\n    /* \"#utility.yul\":986:995   */\n  dup5\n    /* \"#utility.yul\":977:984   */\n  dup7\n    /* \"#utility.yul\":973:996   */\n  sub\n    /* \"#utility.yul\":969:1001   */\n  slt\n    /* \"#utility.yul\":966:1085   */\n  iszero\n  tag_45\n  jumpi\n    /* \"#utility.yul\":1004:1083   */\n  tag_46\n  tag_25\n  jump\t// in\ntag_46:\n    /* \"#utility.yul\":966:1085   */\ntag_45:\n    /* \"#utility.yul\":1124:1125   */\n  0x00\n    /* \"#utility.yul\":1149:1213   */\n  tag_47\n    /* \"#utility.yul\":1205:1212   */\n  dup7\n    /* \"#utility.yul\":1196:1202   */\n  dup3\n    /* \"#utility.yul\":1185:1194   */\n  dup8\n    /* \"#utility.yul\":1181:1203   */\n  add\n    /* \"#utility.yul\":1149:1213   */\n  tag_30\n  jump\t// in\ntag_47:\n    /* \"#utility.yul\":1139:1213   */\n  swap4\n  pop\n    /* \"#utility.yul\":1095:1223   */\n  pop\n    /* \"#utility.yul\":1262:1264   */\n  0x20\n    /* \"#utility.yul\":1288:1352   */\n  tag_48\n    /* \"#utility.yul\":1344:1351   */\n  dup7\n    /* \"#utility.yul\":1335:1341   */\n  dup3\n    /* \"#utility.yul\":1324:1333   */\n  dup8\n    /* \"#utility.yul\":1320:1342   */\n  add\n    /* \"#utility.yul\":1288:1352   */\n  tag_30\n  jump\t// in\ntag_48:\n    /* \"#utility.yul\":1278:1352   */\n  swap3\n  pop\n    /* \"#utility.yul\":1233:1362   */\n  pop\n    /* \"#utility.yul\":1401:1403   */\n  0x40\n    /* \"#utility.yul\":1427:1491   */\n  tag_49\n    /* \"#utility.yul\":1483:1490   */\n  dup7\n    /* \"#utility.yul\":1474:1480   */\n  dup3\n    /* \"#utility.yul\":1463:1472   */\n  dup8\n    /* \"#utility.yul\":1459:1481   */\n  add\n    /* \"#utility.yul\":1427:1491   */\n  tag_30\n  jump\t// in\ntag_49:\n    /* \"#utility.yul\":1417:1491   */\n  swap2\n  pop\n    /* \"#utility.yul\":1372:1501   */\n  pop\n    /* \"#utility.yul\":845:1508   */\n  swap3\n  pop\n  swap3\n  pop\n  swap3\n  jump\t// out\n    /* \"#utility.yul\":1514:1632   */\ntag_31:\n    /* \"#utility.yul\":1601:1625   */\n  tag_51\n    /* \"#utility.yul\":1619:1624   */\n  dup2\n    /* \"#utility.yul\":1601:1625   */\n  tag_28\n  jump\t// in\ntag_51:\n    /* \"#utility.yul\":1596:1599   */\n  dup3\n    /* \"#utility.yul\":1589:1626   */\n  mstore\n    /* \"#utility.yul\":1514:1632   */\n  pop\n  pop\n  jump\t// out\n    /* \"#utility.yul\":1638:1860   */\ntag_11:\n    /* \"#utility.yul\":1731:1735   */\n  0x00\n    /* \"#utility.yul\":1769:1771   */\n  0x20\n    /* \"#utility.yul\":1758:1767   */\n  dup3\n    /* \"#utility.yul\":1754:1772   */\n  add\n    /* \"#utility.yul\":1746:1772   */\n  swap1\n  pop\n    /* \"#utility.yul\":1782:1853   */\n  tag_53\n    /* \"#utility.yul\":1850:1851   */\n  0x00\n    /* \"#utility.yul\":1839:1848   */\n  dup4\n    /* \"#utility.yul\":1835:1852   */\n  add\n    /* \"#utility.yul\":1826:1832   */\n  dup5\n    /* \"#utility.yul\":1782:1853   */\n  tag_31\n  jump\t// in\ntag_53:\n    /* \"#utility.yul\":1638:1860   */\n  swap3\n  swap2\n  pop\n  pop\n  jump\t// out\n    /* \"src/OrderMatcherWrapper.sol\":324:8464  contract OrderMatcherWrapper is OApp, IOrderMatcherWrapper {... */\ntag_22:\n  mload(0x80)\n  codecopy(0x00, dataOffset(sub_0), dataSize(sub_0))\n  0x00\n  assignImmutable(\"0x7446b42d7fe1689ec32fc1ca65129d9f21f1979742315d34500a6886f6986bea\")\n  return(0x00, dataSize(sub_0))\nstop\n\nsub_0: assembly {\n        /* \"src/OrderMatcherWrapper.sol\":324:8464  contract OrderMatcherWrapper is OApp, IOrderMatcherWrapper {... */\n      mstore(0x40, 0x80)\n      jumpi(tag_1, lt(calldatasize, 0x04))\n      shr(0xe0, calldataload(0x00))\n      dup1\n      0x8b836b6b\n      gt\n      tag_26\n      jumpi\n      dup1\n      0xca5eb5e1\n      gt\n      tag_27\n      jumpi\n      dup1\n      0xca5eb5e1\n      eq\n      tag_20\n      jumpi\n      dup1\n      0xd5f39488\n      eq\n      tag_21\n      jumpi\n      dup1\n      0xe4cf4c66\n      eq\n      tag_22\n      jumpi\n      dup1\n      0xf2fde38b\n      eq\n      tag_23\n      jumpi\n      dup1\n      0xfde89598\n      eq\n      tag_24\n      jumpi\n      dup1\n      0xff7bd03d\n      eq\n      tag_25\n      jumpi\n      jump(tag_1)\n    tag_27:\n      dup1\n      0x8b836b6b\n      eq\n      tag_14\n      jumpi\n      dup1\n      0x8da5cb5b\n      eq\n      tag_15\n      jumpi\n      dup1\n      0xa5cdc8fc\n      eq\n      tag_16\n      jumpi\n      dup1\n      0xb92d0eff\n      eq\n      tag_17\n      jumpi\n      dup1\n      0xbb0b6a53\n      eq\n      tag_18\n      jumpi\n      dup1\n      0xc8e4d753\n      eq\n      tag_19\n      jumpi\n      jump(tag_1)\n    tag_26:\n      dup1\n      0x564b81ef\n      gt\n      tag_28\n      jumpi\n      dup1\n      0x564b81ef\n      eq\n      tag_8\n      jumpi\n      dup1\n      0x5e280f11\n      eq\n      tag_9\n      jumpi\n      dup1\n      0x648ea063\n      eq\n      tag_10\n      jumpi\n      dup1\n      0x715018a6\n      eq\n      tag_11\n      jumpi\n      dup1\n      0x732c2c64\n      eq\n      tag_12\n      jumpi\n      dup1\n      0x7d25a05e\n      eq\n      tag_13\n      jumpi\n      jump(tag_1)\n    tag_28:\n      dup1\n      0x06ef0339\n      eq\n      tag_2\n      jumpi\n      dup1\n      0x13137d65\n      eq\n      tag_3\n      jumpi\n      dup1\n      0x17442b70\n      eq\n      tag_4\n      jumpi\n      dup1\n      0x19849d5b\n      eq\n      tag_5\n      jumpi\n      dup1\n      0x3400288b\n      eq\n      tag_6\n      jumpi\n      dup1\n      0x3bbe032f\n      eq\n      tag_7\n      jumpi\n    tag_1:\n      0x00\n      dup1\n      revert\n        /* \"src/OrderMatcherWrapper.sol\":389:423  address public rustContractAddress */\n    tag_2:\n      callvalue\n      dup1\n      iszero\n      tag_29\n      jumpi\n      0x00\n      dup1\n      revert\n    tag_29:\n      pop\n      tag_30\n      tag_31\n      jump\t// in\n    tag_30:\n      mload(0x40)\n      tag_32\n      swap2\n      swap1\n      tag_33\n      jump\t// in\n    tag_32:\n      mload(0x40)\n      dup1\n      swap2\n      sub\n      swap1\n      return\n        /* \"lib/LayerZero-v2/packages/layerzero-v2/evm/oapp/contracts/oapp/OAppReceiver.sol\":3974:4682  function lzReceive(... */\n    tag_3:\n      tag_34\n      0x04\n      dup1\n      calldatasize\n      sub\n      dup2\n      add\n      swap1\n      tag_35\n      swap2\n      swap1\n      tag_36\n      jump\t// in\n    tag_35:\n      tag_37\n      jump\t// in\n    tag_34:\n      stop\n        /* \"lib/LayerZero-v2/packages/layerzero-v2/evm/oapp/contracts/oapp/OApp.sol\":1287:1522  function oAppVersion()... */\n    tag_4:\n      callvalue\n      dup1\n      iszero\n      tag_38\n      jumpi\n      0x00\n      dup1\n      revert\n    tag_38:\n      pop\n      tag_39\n      tag_40\n      jump\t// in\n    tag_39:\n      mload(0x40)\n      tag_41\n      swap3\n      swap2\n      swap1\n      tag_42\n      jump\t// in\n    tag_41:\n      mload(0x40)\n      dup1\n      swap2\n      sub\n      swap1\n      return\n        /* \"src/OrderMatcherWrapper.sol\":496:523  bool public setTrue = false */\n    tag_5:\n      callvalue\n      dup1\n      iszero\n      tag_43\n      jumpi\n      0x00\n      dup1\n      revert\n    tag_43:\n      pop\n      tag_44\n      tag_45\n      jump\t// in\n    tag_44:\n      mload(0x40)\n      tag_46\n      swap2\n      swap1\n      tag_47\n      jump\t// in\n    tag_46:\n      mload(0x40)\n      dup1\n      swap2\n      sub\n      swap1\n      return\n        /* \"lib/LayerZero-v2/packages/layerzero-v2/evm/oapp/contracts/oapp/OAppCore.sol\":1724:1865  function setPeer(uint32 _eid, bytes32 _peer) public virtual onlyOwner {... */\n    tag_6:\n      callvalue\n      dup1\n      iszero\n      tag_48\n      jumpi\n      0x00\n      dup1\n      revert\n    tag_48:\n      pop\n      tag_49\n      0x04\n      dup1\n      calldatasize\n      sub\n      dup2\n      add\n      swap1\n      tag_50\n      swap2\n      swap1\n      tag_51\n      jump\t// in\n    tag_50:\n      tag_52\n      jump\t// in\n    tag_49:\n      stop\n        /* \"src/OrderMatcherWrapper.sol\":1009:3959  function placeLimitOrder(... */\n    tag_7:\n      tag_53\n      0x04\n      dup1\n      calldatasize\n      sub\n      dup2\n      add\n      swap1\n      tag_54\n      swap2\n      swap1\n      tag_55\n      jump\t// in\n    tag_54:\n      tag_56\n      jump\t// in\n    tag_53:\n      stop\n        /* \"src/OrderMatcherWrapper.sol\":8371:8462  function getChainID() external view returns (uint256) {... */\n    tag_8:\n      callvalue\n      dup1\n      iszero\n      tag_57\n      jumpi\n      0x00\n      dup1\n      revert\n    tag_57:\n      pop\n      tag_58\n      tag_59\n      jump\t// in\n    tag_58:\n      mload(0x40)\n      tag_60\n      swap2\n      swap1\n      tag_61\n      jump\t// in\n    tag_60:\n      mload(0x40)\n      dup1\n      swap2\n      sub\n      swap1\n      return\n        /* \"lib/LayerZero-v2/packages/layerzero-v2/evm/oapp/contracts/oapp/OAppCore.sol\":446:492  ILayerZeroEndpointV2 public immutable endpoint */\n    tag_9:\n      callvalue\n      dup1\n      iszero\n      tag_62\n      jumpi\n      0x00\n      dup1\n      revert\n    tag_62:\n      pop\n      tag_63\n      tag_64\n      jump\t// in\n    tag_63:\n      mload(0x40)\n      tag_65\n      swap2\n      swap1\n      tag_66\n      jump\t// in\n    tag_65:\n      mload(0x40)\n      dup1\n      swap2\n      sub\n      swap1\n      return\n        /* \"src/OrderMatcherWrapper.sol\":3965:4878  function retrieveLimitOrder(uint256 index) public view returns (Order memory) {... */\n    tag_10:\n      callvalue\n      dup1\n      iszero\n      tag_67\n      jumpi\n      0x00\n      dup1\n      revert\n    tag_67:\n      pop\n      tag_68\n      0x04\n      dup1\n      calldatasize\n      sub\n      dup2\n      add\n      swap1\n      tag_69\n      swap2\n      swap1\n      tag_70\n      jump\t// in\n    tag_69:\n      tag_71\n      jump\t// in\n    tag_68:\n      mload(0x40)\n      tag_72\n      swap2\n      swap1\n      tag_73\n      jump\t// in\n    tag_72:\n      mload(0x40)\n      dup1\n      swap2\n      sub\n      swap1\n      return\n        /* \"lib/openzeppelin-contracts/contracts/access/Ownable.sol\":2293:2394  function renounceOwnership() public virtual onlyOwner {... */\n    tag_11:\n      callvalue\n      dup1\n      iszero\n      tag_74\n      jumpi\n      0x00\n      dup1\n      revert\n    tag_74:\n      pop\n      tag_75\n      tag_76\n      jump\t// in\n    tag_75:\n      stop\n        /* \"src/OrderMatcherWrapper.sol\":5479:6460  function placeMarketOrder(... */\n    tag_12:\n      callvalue\n      dup1\n      iszero\n      tag_77\n      jumpi\n      0x00\n      dup1\n      revert\n    tag_77:\n      pop\n      tag_78\n      0x04\n      dup1\n      calldatasize\n      sub\n      dup2\n      add\n      swap1\n      tag_79\n      swap2\n      swap1\n      tag_80\n      jump\t// in\n    tag_79:\n      tag_81\n      jump\t// in\n    tag_78:\n      stop\n        /* \"lib/LayerZero-v2/packages/layerzero-v2/evm/oapp/contracts/oapp/OAppReceiver.sol\":3113:3241  function nextNonce(uint32 /*_srcEid*/, bytes32 /*_sender*/) public view virtual returns (uint64 nonce) {... */\n    tag_13:\n      callvalue\n      dup1\n      iszero\n      tag_82\n      jumpi\n      0x00\n      dup1\n      revert\n    tag_82:\n      pop\n      tag_83\n      0x04\n      dup1\n      calldatasize\n      sub\n      dup2\n      add\n      swap1\n      tag_84\n      swap2\n      swap1\n      tag_51\n      jump\t// in\n    tag_84:\n      tag_85\n      jump\t// in\n    tag_83:\n      mload(0x40)\n      tag_86\n      swap2\n      swap1\n      tag_87\n      jump\t// in\n    tag_86:\n      mload(0x40)\n      dup1\n      swap2\n      sub\n      swap1\n      return\n        /* \"src/OrderMatcherWrapper.sol\":529:560  uint32 public callSenderEid = 1 */\n    tag_14:\n      callvalue\n      dup1\n      iszero\n      tag_88\n      jumpi\n      0x00\n      dup1\n      revert\n    tag_88:\n      pop\n      tag_89\n      tag_90\n      jump\t// in\n    tag_89:\n      mload(0x40)\n      tag_91\n      swap2\n      swap1\n      tag_92\n      jump\t// in\n    tag_91:\n      mload(0x40)\n      dup1\n      swap2\n      sub\n      swap1\n      return\n        /* \"lib/openzeppelin-contracts/contracts/access/Ownable.sol\":1638:1723  function owner() public view virtual returns (address) {... */\n    tag_15:\n      callvalue\n      dup1\n      iszero\n      tag_93\n      jumpi\n      0x00\n      dup1\n      revert\n    tag_93:\n      pop\n      tag_94\n      tag_95\n      jump\t// in\n    tag_94:\n      mload(0x40)\n      tag_96\n      swap2\n      swap1\n      tag_33\n      jump\t// in\n    tag_96:\n      mload(0x40)\n      dup1\n      swap2\n      sub\n      swap1\n      return\n        /* \"src/OrderMatcherWrapper.sol\":4884:5187  function cancelLimitOrder(uint256 orderId) public {... */\n    tag_16:\n      callvalue\n      dup1\n      iszero\n      tag_97\n      jumpi\n      0x00\n      dup1\n      revert\n    tag_97:\n      pop\n      tag_98\n      0x04\n      dup1\n      calldatasize\n      sub\n      dup2\n      add\n      swap1\n      tag_99\n      swap2\n      swap1\n      tag_70\n      jump\t// in\n    tag_99:\n      tag_100\n      jump\t// in\n    tag_98:\n      stop\n        /* \"lib/LayerZero-v2/packages/layerzero-v2/evm/oapp/contracts/oapp/OAppReceiver.sol\":1725:1835  function composeMsgSender() public view virtual returns (address sender) {... */\n    tag_17:\n      callvalue\n      dup1\n      iszero\n      tag_101\n      jumpi\n      0x00\n      dup1\n      revert\n    tag_101:\n      pop\n      tag_102\n      tag_103\n      jump\t// in\n    tag_102:\n      mload(0x40)\n      tag_104\n      swap2\n      swap1\n      tag_33\n      jump\t// in\n    tag_104:\n      mload(0x40)\n      dup1\n      swap2\n      sub\n      swap1\n      return\n        /* \"lib/LayerZero-v2/packages/layerzero-v2/evm/oapp/contracts/oapp/OAppCore.sol\":569:617  mapping(uint32 eid => bytes32 peer) public peers */\n    tag_18:\n      callvalue\n      dup1\n      iszero\n      tag_105\n      jumpi\n      0x00\n      dup1\n      revert\n    tag_105:\n      pop\n      tag_106\n      0x04\n      dup1\n      calldatasize\n      sub\n      dup2\n      add\n      swap1\n      tag_107\n      swap2\n      swap1\n      tag_108\n      jump\t// in\n    tag_107:\n      tag_109\n      jump\t// in\n    tag_106:\n      mload(0x40)\n      tag_110\n      swap2\n      swap1\n      tag_111\n      jump\t// in\n    tag_110:\n      mload(0x40)\n      dup1\n      swap2\n      sub\n      swap1\n      return\n        /* \"src/OrderMatcherWrapper.sol\":460:489  bool public inWrapper = false */\n    tag_19:\n      callvalue\n      dup1\n      iszero\n      tag_112\n      jumpi\n      0x00\n      dup1\n      revert\n    tag_112:\n      pop\n      tag_113\n      tag_114\n      jump\t// in\n    tag_113:\n      mload(0x40)\n      tag_115\n      swap2\n      swap1\n      tag_47\n      jump\t// in\n    tag_115:\n      mload(0x40)\n      dup1\n      swap2\n      sub\n      swap1\n      return\n        /* \"lib/LayerZero-v2/packages/layerzero-v2/evm/oapp/contracts/oapp/OAppCore.sol\":2697:2802  function setDelegate(address _delegate) public onlyOwner {... */\n    tag_20:\n      callvalue\n      dup1\n      iszero\n      tag_116\n      jumpi\n      0x00\n      dup1\n      revert\n    tag_116:\n      pop\n      tag_117\n      0x04\n      dup1\n      calldatasize\n      sub\n      dup2\n      add\n      swap1\n      tag_118\n      swap2\n      swap1\n      tag_119\n      jump\t// in\n    tag_118:\n      tag_120\n      jump\t// in\n    tag_117:\n      stop\n        /* \"src/OrderMatcherWrapper.sol\":430:453  address public deployer */\n    tag_21:\n      callvalue\n      dup1\n      iszero\n      tag_121\n      jumpi\n      0x00\n      dup1\n      revert\n    tag_121:\n      pop\n      tag_122\n      tag_123\n      jump\t// in\n    tag_122:\n      mload(0x40)\n      tag_124\n      swap2\n      swap1\n      tag_33\n      jump\t// in\n    tag_124:\n      mload(0x40)\n      dup1\n      swap2\n      sub\n      swap1\n      return\n        /* \"src/OrderMatcherWrapper.sol\":781:1003  function setRustContractAddress(address _rustContractAddress) external {... */\n    tag_22:\n      callvalue\n      dup1\n      iszero\n      tag_125\n      jumpi\n      0x00\n      dup1\n      revert\n    tag_125:\n      pop\n      tag_126\n      0x04\n      dup1\n      calldatasize\n      sub\n      dup2\n      add\n      swap1\n      tag_127\n      swap2\n      swap1\n      tag_119\n      jump\t// in\n    tag_127:\n      tag_128\n      jump\t// in\n    tag_126:\n      stop\n        /* \"lib/openzeppelin-contracts/contracts/access/Ownable.sol\":2543:2758  function transferOwnership(address newOwner) public virtual onlyOwner {... */\n    tag_23:\n      callvalue\n      dup1\n      iszero\n      tag_129\n      jumpi\n      0x00\n      dup1\n      revert\n    tag_129:\n      pop\n      tag_130\n      0x04\n      dup1\n      calldatasize\n      sub\n      dup2\n      add\n      swap1\n      tag_131\n      swap2\n      swap1\n      tag_119\n      jump\t// in\n    tag_131:\n      tag_132\n      jump\t// in\n    tag_130:\n      stop\n        /* \"src/OrderMatcherWrapper.sol\":5193:5473  function cancelAllLimitOrders() public {... */\n    tag_24:\n      callvalue\n      dup1\n      iszero\n      tag_133\n      jumpi\n      0x00\n      dup1\n      revert\n    tag_133:\n      pop\n      tag_134\n      tag_135\n      jump\t// in\n    tag_134:\n      stop\n        /* \"lib/LayerZero-v2/packages/layerzero-v2/evm/oapp/contracts/oapp/OAppReceiver.sol\":2377:2526  function allowInitializePath(Origin calldata origin) public view virtual returns (bool) {... */\n    tag_25:\n      callvalue\n      dup1\n      iszero\n      tag_136\n      jumpi\n      0x00\n      dup1\n      revert\n    tag_136:\n      pop\n      tag_137\n      0x04\n      dup1\n      calldatasize\n      sub\n      dup2\n      add\n      swap1\n      tag_138\n      swap2\n      swap1\n      tag_139\n      jump\t// in\n    tag_138:\n      tag_140\n      jump\t// in\n    tag_137:\n      mload(0x40)\n      tag_141\n      swap2\n      swap1\n      tag_47\n      jump\t// in\n    tag_141:\n      mload(0x40)\n      dup1\n      swap2\n      sub\n      swap1\n      return\n        /* \"src/OrderMatcherWrapper.sol\":389:423  address public rustContractAddress */\n    tag_31:\n      0x02\n      0x00\n      swap1\n      sload\n      swap1\n      0x0100\n      exp\n      swap1\n      div\n      0xffffffffffffffffffffffffffffffffffffffff\n      and\n      dup2\n      jump\t// out\n        /* \"lib/LayerZero-v2/packages/layerzero-v2/evm/oapp/contracts/oapp/OAppReceiver.sol\":3974:4682  function lzReceive(... */\n    tag_37:\n        /* \"lib/LayerZero-v2/packages/layerzero-v2/evm/oapp/contracts/oapp/OAppReceiver.sol\":4300:4310  msg.sender */\n      caller\n        /* \"lib/LayerZero-v2/packages/layerzero-v2/evm/oapp/contracts/oapp/OAppReceiver.sol\":4279:4310  address(endpoint) != msg.sender */\n      0xffffffffffffffffffffffffffffffffffffffff\n      and\n        /* \"lib/LayerZero-v2/packages/layerzero-v2/evm/oapp/contracts/oapp/OAppReceiver.sol\":4287:4295  endpoint */\n      immutable(\"0x7446b42d7fe1689ec32fc1ca65129d9f21f1979742315d34500a6886f6986bea\")\n        /* \"lib/LayerZero-v2/packages/layerzero-v2/evm/oapp/contracts/oapp/OAppReceiver.sol\":4279:4310  address(endpoint) != msg.sender */\n      0xffffffffffffffffffffffffffffffffffffffff\n      and\n      eq\n        /* \"lib/LayerZero-v2/packages/layerzero-v2/evm/oapp/contracts/oapp/OAppReceiver.sol\":4275:4343  if (address(endpoint) != msg.sender) revert OnlyEndpoint(msg.sender) */\n      tag_143\n      jumpi\n        /* \"lib/LayerZero-v2/packages/layerzero-v2/evm/oapp/contracts/oapp/OAppReceiver.sol\":4332:4342  msg.sender */\n      caller\n        /* \"lib/LayerZero-v2/packages/layerzero-v2/evm/oapp/contracts/oapp/OAppReceiver.sol\":4319:4343  OnlyEndpoint(msg.sender) */\n      mload(0x40)\n      0x91ac5e4f00000000000000000000000000000000000000000000000000000000\n      dup2\n      mstore\n      0x04\n      add\n      tag_144\n      swap2\n      swap1\n      tag_33\n      jump\t// in\n    tag_144:\n      mload(0x40)\n      dup1\n      swap2\n      sub\n      swap1\n      revert\n        /* \"lib/LayerZero-v2/packages/layerzero-v2/evm/oapp/contracts/oapp/OAppReceiver.sol\":4275:4343  if (address(endpoint) != msg.sender) revert OnlyEndpoint(msg.sender) */\n    tag_143:\n        /* \"lib/LayerZero-v2/packages/layerzero-v2/evm/oapp/contracts/oapp/OAppReceiver.sol\":4479:4486  _origin */\n      dup7\n        /* \"lib/LayerZero-v2/packages/layerzero-v2/evm/oapp/contracts/oapp/OAppReceiver.sol\":4479:4493  _origin.sender */\n      0x20\n      add\n      calldataload\n        /* \"lib/LayerZero-v2/packages/layerzero-v2/evm/oapp/contracts/oapp/OAppReceiver.sol\":4443:4475  _getPeerOrRevert(_origin.srcEid) */\n      tag_145\n        /* \"lib/LayerZero-v2/packages/layerzero-v2/evm/oapp/contracts/oapp/OAppReceiver.sol\":4460:4467  _origin */\n      dup9\n        /* \"lib/LayerZero-v2/packages/layerzero-v2/evm/oapp/contracts/oapp/OAppReceiver.sol\":4460:4474  _origin.srcEid */\n      0x00\n      add\n      0x20\n      dup2\n      add\n      swap1\n      tag_146\n      swap2\n      swap1\n      tag_108\n      jump\t// in\n    tag_146:\n        /* \"lib/LayerZero-v2/packages/layerzero-v2/evm/oapp/contracts/oapp/OAppReceiver.sol\":4443:4459  _getPeerOrRevert */\n      tag_147\n        /* \"lib/LayerZero-v2/packages/layerzero-v2/evm/oapp/contracts/oapp/OAppReceiver.sol\":4443:4475  _getPeerOrRevert(_origin.srcEid) */\n      jump\t// in\n    tag_145:\n        /* \"lib/LayerZero-v2/packages/layerzero-v2/evm/oapp/contracts/oapp/OAppReceiver.sol\":4443:4493  _getPeerOrRevert(_origin.srcEid) != _origin.sender */\n      eq\n        /* \"lib/LayerZero-v2/packages/layerzero-v2/evm/oapp/contracts/oapp/OAppReceiver.sol\":4439:4542  if (_getPeerOrRevert(_origin.srcEid) != _origin.sender) revert OnlyPeer(_origin.srcEid, _origin.sender) */\n      tag_148\n      jumpi\n        /* \"lib/LayerZero-v2/packages/layerzero-v2/evm/oapp/contracts/oapp/OAppReceiver.sol\":4511:4518  _origin */\n      dup7\n        /* \"lib/LayerZero-v2/packages/layerzero-v2/evm/oapp/contracts/oapp/OAppReceiver.sol\":4511:4525  _origin.srcEid */\n      0x00\n      add\n      0x20\n      dup2\n      add\n      swap1\n      tag_149\n      swap2\n      swap1\n      tag_108\n      jump\t// in\n    tag_149:\n        /* \"lib/LayerZero-v2/packages/layerzero-v2/evm/oapp/contracts/oapp/OAppReceiver.sol\":4527:4534  _origin */\n      dup8\n        /* \"lib/LayerZero-v2/packages/layerzero-v2/evm/oapp/contracts/oapp/OAppReceiver.sol\":4527:4541  _origin.sender */\n      0x20\n      add\n      calldataload\n        /* \"lib/LayerZero-v2/packages/layerzero-v2/evm/oapp/contracts/oapp/OAppReceiver.sol\":4502:4542  OnlyPeer(_origin.srcEid, _origin.sender) */\n      mload(0x40)\n      0xc26bebcc00000000000000000000000000000000000000000000000000000000\n      dup2\n      mstore\n      0x04\n      add\n      tag_150\n      swap3\n      swap2\n      swap1\n      tag_151\n      jump\t// in\n    tag_150:\n      mload(0x40)\n      dup1\n      swap2\n      sub\n      swap1\n      revert\n        /* \"lib/LayerZero-v2/packages/layerzero-v2/evm/oapp/contracts/oapp/OAppReceiver.sol\":4439:4542  if (_getPeerOrRevert(_origin.srcEid) != _origin.sender) revert OnlyPeer(_origin.srcEid, _origin.sender) */\n    tag_148:\n        /* \"lib/LayerZero-v2/packages/layerzero-v2/evm/oapp/contracts/oapp/OAppReceiver.sol\":4616:4675  _lzReceive(_origin, _guid, _message, _executor, _extraData) */\n      tag_152\n        /* \"lib/LayerZero-v2/packages/layerzero-v2/evm/oapp/contracts/oapp/OAppReceiver.sol\":4627:4634  _origin */\n      dup8\n        /* \"lib/LayerZero-v2/packages/layerzero-v2/evm/oapp/contracts/oapp/OAppReceiver.sol\":4636:4641  _guid */\n      dup8\n        /* \"lib/LayerZero-v2/packages/layerzero-v2/evm/oapp/contracts/oapp/OAppReceiver.sol\":4643:4651  _message */\n      dup8\n      dup8\n        /* \"lib/LayerZero-v2/packages/layerzero-v2/evm/oapp/contracts/oapp/OAppReceiver.sol\":4653:4662  _executor */\n      dup8\n        /* \"lib/LayerZero-v2/packages/layerzero-v2/evm/oapp/contracts/oapp/OAppReceiver.sol\":4664:4674  _extraData */\n      dup8\n      dup8\n        /* \"lib/LayerZero-v2/packages/layerzero-v2/evm/oapp/contracts/oapp/OAppReceiver.sol\":4616:4626  _lzReceive */\n      tag_153\n        /* \"lib/LayerZero-v2/packages/layerzero-v2/evm/oapp/contracts/oapp/OAppReceiver.sol\":4616:4675  _lzReceive(_origin, _guid, _message, _executor, _extraData) */\n      jump\t// in\n    tag_152:\n        /* \"lib/LayerZero-v2/packages/layerzero-v2/evm/oapp/contracts/oapp/OAppReceiver.sol\":3974:4682  function lzReceive(... */\n      pop\n      pop\n      pop\n      pop\n      pop\n      pop\n      pop\n      jump\t// out\n        /* \"lib/LayerZero-v2/packages/layerzero-v2/evm/oapp/contracts/oapp/OApp.sol\":1287:1522  function oAppVersion()... */\n    tag_40:\n        /* \"lib/LayerZero-v2/packages/layerzero-v2/evm/oapp/contracts/oapp/OApp.sol\":1414:1434  uint64 senderVersion */\n      0x00\n        /* \"lib/LayerZero-v2/packages/layerzero-v2/evm/oapp/contracts/oapp/OApp.sol\":1436:1458  uint64 receiverVersion */\n      dup1\n        /* \"lib/LayerZero-v2/packages/layerzero-v2/evm/oapp/contracts/oapp/OAppSender.sol\":843:844  1 */\n      0x01\n        /* \"lib/LayerZero-v2/packages/layerzero-v2/evm/oapp/contracts/oapp/OAppReceiver.sol\":678:679  1 */\n      dup1\n        /* \"lib/LayerZero-v2/packages/layerzero-v2/evm/oapp/contracts/oapp/OApp.sol\":1474:1515  return (SENDER_VERSION, RECEIVER_VERSION) */\n      swap2\n      pop\n      swap2\n      pop\n        /* \"lib/LayerZero-v2/packages/layerzero-v2/evm/oapp/contracts/oapp/OApp.sol\":1287:1522  function oAppVersion()... */\n      swap1\n      swap2\n      jump\t// out\n        /* \"src/OrderMatcherWrapper.sol\":496:523  bool public setTrue = false */\n    tag_45:\n      0x03\n      0x15\n      swap1\n      sload\n      swap1\n      0x0100\n      exp\n      swap1\n      div\n      0xff\n      and\n      dup2\n      jump\t// out\n        /* \"lib/LayerZero-v2/packages/layerzero-v2/evm/oapp/contracts/oapp/OAppCore.sol\":1724:1865  function setPeer(uint32 _eid, bytes32 _peer) public virtual onlyOwner {... */\n    tag_52:\n        /* \"lib/openzeppelin-contracts/contracts/access/Ownable.sol\":1531:1544  _checkOwner() */\n      tag_156\n        /* \"lib/openzeppelin-contracts/contracts/access/Ownable.sol\":1531:1542  _checkOwner */\n      tag_157\n        /* \"lib/openzeppelin-contracts/contracts/access/Ownable.sol\":1531:1544  _checkOwner() */\n      jump\t// in\n    tag_156:\n        /* \"lib/LayerZero-v2/packages/layerzero-v2/evm/oapp/contracts/oapp/OAppCore.sol\":1818:1823  _peer */\n      dup1\n        /* \"lib/LayerZero-v2/packages/layerzero-v2/evm/oapp/contracts/oapp/OAppCore.sol\":1804:1809  peers */\n      0x01\n        /* \"lib/LayerZero-v2/packages/layerzero-v2/evm/oapp/contracts/oapp/OAppCore.sol\":1804:1815  peers[_eid] */\n      0x00\n        /* \"lib/LayerZero-v2/packages/layerzero-v2/evm/oapp/contracts/oapp/OAppCore.sol\":1810:1814  _eid */\n      dup5\n        /* \"lib/LayerZero-v2/packages/layerzero-v2/evm/oapp/contracts/oapp/OAppCore.sol\":1804:1815  peers[_eid] */\n      0xffffffff\n      and\n      0xffffffff\n      and\n      dup2\n      mstore\n      0x20\n      add\n      swap1\n      dup2\n      mstore\n      0x20\n      add\n      0x00\n      keccak256\n        /* \"lib/LayerZero-v2/packages/layerzero-v2/evm/oapp/contracts/oapp/OAppCore.sol\":1804:1823  peers[_eid] = _peer */\n      dup2\n      swap1\n      sstore\n      pop\n        /* \"lib/LayerZero-v2/packages/layerzero-v2/evm/oapp/contracts/oapp/OAppCore.sol\":1838:1858  PeerSet(_eid, _peer) */\n      0x238399d427b947898edb290f5ff0f9109849b1c3ba196a42e35f00c50a54b98b\n        /* \"lib/LayerZero-v2/packages/layerzero-v2/evm/oapp/contracts/oapp/OAppCore.sol\":1846:1850  _eid */\n      dup3\n        /* \"lib/LayerZero-v2/packages/layerzero-v2/evm/oapp/contracts/oapp/OAppCore.sol\":1852:1857  _peer */\n      dup3\n        /* \"lib/LayerZero-v2/packages/layerzero-v2/evm/oapp/contracts/oapp/OAppCore.sol\":1838:1858  PeerSet(_eid, _peer) */\n      mload(0x40)\n      tag_159\n      swap3\n      swap2\n      swap1\n      tag_151\n      jump\t// in\n    tag_159:\n      mload(0x40)\n      dup1\n      swap2\n      sub\n      swap1\n      log1\n        /* \"lib/LayerZero-v2/packages/layerzero-v2/evm/oapp/contracts/oapp/OAppCore.sol\":1724:1865  function setPeer(uint32 _eid, bytes32 _peer) public virtual onlyOwner {... */\n      pop\n      pop\n      jump\t// out\n        /* \"src/OrderMatcherWrapper.sol\":1009:3959  function placeLimitOrder(... */\n    tag_56:\n        /* \"src/OrderMatcherWrapper.sol\":1248:1252  true */\n      0x01\n        /* \"src/OrderMatcherWrapper.sol\":1238:1245  setTrue */\n      0x03\n      0x15\n        /* \"src/OrderMatcherWrapper.sol\":1238:1252  setTrue = true */\n      0x0100\n      exp\n      dup2\n      sload\n      dup2\n      0xff\n      mul\n      not\n      and\n      swap1\n      dup4\n      iszero\n      iszero\n      mul\n      or\n      swap1\n      sstore\n      pop\n        /* \"src/OrderMatcherWrapper.sol\":1264:1276  bool success */\n      0x00\n        /* \"src/OrderMatcherWrapper.sol\":1278:1295  bytes memory data */\n      dup1\n        /* \"src/OrderMatcherWrapper.sol\":1299:1318  rustContractAddress */\n      0x02\n      0x00\n      swap1\n      sload\n      swap1\n      0x0100\n      exp\n      swap1\n      div\n      0xffffffffffffffffffffffffffffffffffffffff\n      and\n        /* \"src/OrderMatcherWrapper.sol\":1299:1323  rustContractAddress.call */\n      0xffffffffffffffffffffffffffffffffffffffff\n      and\n        /* \"src/OrderMatcherWrapper.sol\":1470:1474  user */\n      dup5\n        /* \"src/OrderMatcherWrapper.sol\":1500:1507  userEid */\n      dup5\n        /* \"src/OrderMatcherWrapper.sol\":1492:1508  uint256(userEid) */\n      0xffffffff\n      and\n        /* \"src/OrderMatcherWrapper.sol\":1526:1535  orderType */\n      dup12\n        /* \"src/OrderMatcherWrapper.sol\":1553:1559  token0 */\n      dup12\n        /* \"src/OrderMatcherWrapper.sol\":1577:1583  token1 */\n      dup12\n        /* \"src/OrderMatcherWrapper.sol\":1601:1607  amount */\n      dup12\n        /* \"src/OrderMatcherWrapper.sol\":1625:1630  price */\n      dup12\n        /* \"src/OrderMatcherWrapper.sol\":1337:1644  abi.encodeWithSignature(... */\n      add(0x24, mload(0x40))\n      tag_161\n      swap8\n      swap7\n      swap6\n      swap5\n      swap4\n      swap3\n      swap2\n      swap1\n      tag_162\n      jump\t// in\n    tag_161:\n      mload(0x40)\n      0x20\n      dup2\n      dup4\n      sub\n      sub\n      dup2\n      mstore\n      swap1\n      0x40\n      mstore\n      and(not(0xffffffffffffffffffffffffffffffffffffffffffffffffffffffff), 0x9390e44200000000000000000000000000000000000000000000000000000000)\n      0x20\n      dup3\n      add\n      dup1\n      mload\n      0xffffffffffffffffffffffffffffffffffffffffffffffffffffffff\n      dup4\n      dup2\n      dup4\n      and\n      or\n      dup4\n      mstore\n      pop\n      pop\n      pop\n      pop\n        /* \"src/OrderMatcherWrapper.sol\":1299:1654  rustContractAddress.call(... */\n      mload(0x40)\n      tag_163\n      swap2\n      swap1\n      tag_164\n      jump\t// in\n    tag_163:\n      0x00\n      mload(0x40)\n      dup1\n      dup4\n      sub\n      dup2\n      0x00\n      dup7\n      gas\n      call\n      swap2\n      pop\n      pop\n      returndatasize\n      dup1\n      0x00\n      dup2\n      eq\n      tag_167\n      jumpi\n      mload(0x40)\n      swap2\n      pop\n      and(add(returndatasize, 0x3f), not(0x1f))\n      dup3\n      add\n      0x40\n      mstore\n      returndatasize\n      dup3\n      mstore\n      returndatasize\n      0x00\n      0x20\n      dup5\n      add\n      returndatacopy\n      jump(tag_166)\n    tag_167:\n      0x60\n      swap2\n      pop\n    tag_166:\n      pop\n        /* \"src/OrderMatcherWrapper.sol\":1263:1654  (bool success, bytes memory data) = rustContractAddress.call(... */\n      swap2\n      pop\n      swap2\n      pop\n        /* \"src/OrderMatcherWrapper.sol\":1674:1681  success */\n      dup2\n        /* \"src/OrderMatcherWrapper.sol\":1666:1713  require(success, \"Failed to place limit order\") */\n      tag_168\n      jumpi\n      mload(0x40)\n      0x08c379a000000000000000000000000000000000000000000000000000000000\n      dup2\n      mstore\n      0x04\n      add\n      tag_169\n      swap1\n      tag_170\n      jump\t// in\n    tag_169:\n      mload(0x40)\n      dup1\n      swap2\n      sub\n      swap1\n      revert\n    tag_168:\n        /* \"src/OrderMatcherWrapper.sol\":1768:1783  uint256 orderId */\n      0x00\n        /* \"src/OrderMatcherWrapper.sol\":1793:1805  address user */\n      dup1\n        /* \"src/OrderMatcherWrapper.sol\":1815:1835  uint256 otherUserEid */\n      0x00\n        /* \"src/OrderMatcherWrapper.sol\":1845:1862  address otherUser */\n      dup1\n        /* \"src/OrderMatcherWrapper.sol\":1872:1900  int256 amountToken0DeltaUser */\n      0x00\n        /* \"src/OrderMatcherWrapper.sol\":1910:1938  int256 amountToken1DeltaUser */\n      dup1\n        /* \"src/OrderMatcherWrapper.sol\":1948:1981  int256 amountToken0DeltaOtherUser */\n      0x00\n        /* \"src/OrderMatcherWrapper.sol\":1991:2024  int256 amountToken1DeltaOtherUser */\n      dup1\n        /* \"src/OrderMatcherWrapper.sol\":2034:2053  address otherToken0 */\n      0x00\n        /* \"src/OrderMatcherWrapper.sol\":2063:2082  address otherToken1 */\n      dup1\n        /* \"src/OrderMatcherWrapper.sol\":2102:2106  data */\n      dup11\n        /* \"src/OrderMatcherWrapper.sol\":2091:2195  abi.decode(data, (uint256, address, uint256, address, int256, int256, int256, int256, address, address)) */\n      dup1\n      0x20\n      add\n      swap1\n      mload\n      dup2\n      add\n      swap1\n      tag_171\n      swap2\n      swap1\n      tag_172\n      jump\t// in\n    tag_171:\n        /* \"src/OrderMatcherWrapper.sol\":1758:2195  (... */\n      swap10\n      pop\n      swap10\n      pop\n      swap10\n      pop\n      swap10\n      pop\n      swap10\n      pop\n      swap10\n      pop\n      swap10\n      pop\n      swap10\n      pop\n      swap10\n      pop\n      swap10\n      pop\n        /* \"src/OrderMatcherWrapper.sol\":2205:2227  uint32 otherUserEidB32 */\n      0x00\n        /* \"src/OrderMatcherWrapper.sol\":2237:2249  otherUserEid */\n      dup9\n        /* \"src/OrderMatcherWrapper.sol\":2205:2250  uint32 otherUserEidB32 = uint32(otherUserEid) */\n      swap1\n      pop\n        /* \"src/OrderMatcherWrapper.sol\":1224:3959  {... */\n      pop\n      pop\n      pop\n      pop\n      pop\n      pop\n      pop\n      pop\n      pop\n      pop\n      pop\n      pop\n      pop\n        /* \"src/OrderMatcherWrapper.sol\":1009:3959  function placeLimitOrder(... */\n      pop\n      pop\n      pop\n      pop\n      pop\n      pop\n      pop\n      jump\t// out\n        /* \"src/OrderMatcherWrapper.sol\":8371:8462  function getChainID() external view returns (uint256) {... */\n    tag_59:\n        /* \"src/OrderMatcherWrapper.sol\":8416:8423  uint256 */\n      0x00\n        /* \"src/OrderMatcherWrapper.sol\":8442:8455  block.chainid */\n      chainid\n        /* \"src/OrderMatcherWrapper.sol\":8435:8455  return block.chainid */\n      swap1\n      pop\n        /* \"src/OrderMatcherWrapper.sol\":8371:8462  function getChainID() external view returns (uint256) {... */\n      swap1\n      jump\t// out\n        /* \"lib/LayerZero-v2/packages/layerzero-v2/evm/oapp/contracts/oapp/OAppCore.sol\":446:492  ILayerZeroEndpointV2 public immutable endpoint */\n    tag_64:\n      immutable(\"0x7446b42d7fe1689ec32fc1ca65129d9f21f1979742315d34500a6886f6986bea\")\n      dup2\n      jump\t// out\n        /* \"src/OrderMatcherWrapper.sol\":3965:4878  function retrieveLimitOrder(uint256 index) public view returns (Order memory) {... */\n    tag_71:\n        /* \"src/OrderMatcherWrapper.sol\":4029:4041  Order memory */\n      tag_174\n      tag_175\n      jump\t// in\n    tag_174:\n        /* \"src/OrderMatcherWrapper.sol\":4054:4066  bool success */\n      0x00\n        /* \"src/OrderMatcherWrapper.sol\":4068:4085  bytes memory data */\n      dup1\n        /* \"src/OrderMatcherWrapper.sol\":4089:4108  rustContractAddress */\n      0x02\n      0x00\n      swap1\n      sload\n      swap1\n      0x0100\n      exp\n      swap1\n      div\n      0xffffffffffffffffffffffffffffffffffffffff\n      and\n        /* \"src/OrderMatcherWrapper.sol\":4089:4119  rustContractAddress.staticcall */\n      0xffffffffffffffffffffffffffffffffffffffff\n      and\n        /* \"src/OrderMatcherWrapper.sol\":4188:4193  index */\n      dup5\n        /* \"src/OrderMatcherWrapper.sol\":4133:4194  abi.encodeWithSignature(\"retrieveLimitOrder(uint256)\", index) */\n      add(0x24, mload(0x40))\n      tag_177\n      swap2\n      swap1\n      tag_61\n      jump\t// in\n    tag_177:\n      mload(0x40)\n      0x20\n      dup2\n      dup4\n      sub\n      sub\n      dup2\n      mstore\n      swap1\n      0x40\n      mstore\n      and(not(0xffffffffffffffffffffffffffffffffffffffffffffffffffffffff), 0x648ea06300000000000000000000000000000000000000000000000000000000)\n      0x20\n      dup3\n      add\n      dup1\n      mload\n      0xffffffffffffffffffffffffffffffffffffffffffffffffffffffff\n      dup4\n      dup2\n      dup4\n      and\n      or\n      dup4\n      mstore\n      pop\n      pop\n      pop\n      pop\n        /* \"src/OrderMatcherWrapper.sol\":4089:4204  rustContractAddress.staticcall(... */\n      mload(0x40)\n      tag_178\n      swap2\n      swap1\n      tag_164\n      jump\t// in\n    tag_178:\n      0x00\n      mload(0x40)\n      dup1\n      dup4\n      sub\n      dup2\n      dup6\n      gas\n      staticcall\n      swap2\n      pop\n      pop\n      returndatasize\n      dup1\n      0x00\n      dup2\n      eq\n      tag_181\n      jumpi\n      mload(0x40)\n      swap2\n      pop\n      and(add(returndatasize, 0x3f), not(0x1f))\n      dup3\n      add\n      0x40\n      mstore\n      returndatasize\n      dup3\n      mstore\n      returndatasize\n      0x00\n      0x20\n      dup5\n      add\n      returndatacopy\n      jump(tag_180)\n    tag_181:\n      0x60\n      swap2\n      pop\n    tag_180:\n      pop\n        /* \"src/OrderMatcherWrapper.sol\":4053:4204  (bool success, bytes memory data) = rustContractAddress.staticcall(... */\n      swap2\n      pop\n      swap2\n      pop\n        /* \"src/OrderMatcherWrapper.sol\":4223:4230  success */\n      dup2\n        /* \"src/OrderMatcherWrapper.sol\":4215:4265  require(success, \"Failed to retrieve limit order\") */\n      tag_182\n      jumpi\n      mload(0x40)\n      0x08c379a000000000000000000000000000000000000000000000000000000000\n      dup2\n      mstore\n      0x04\n      add\n      tag_183\n      swap1\n      tag_184\n      jump\t// in\n    tag_183:\n      mload(0x40)\n      dup1\n      swap2\n      sub\n      swap1\n      revert\n    tag_182:\n        /* \"src/OrderMatcherWrapper.sol\":4277:4287  uint256 id */\n      0x00\n        /* \"src/OrderMatcherWrapper.sol\":4289:4301  address user */\n      dup1\n        /* \"src/OrderMatcherWrapper.sol\":4303:4320  uint256 orderType */\n      0x00\n        /* \"src/OrderMatcherWrapper.sol\":4322:4336  address token0 */\n      dup1\n        /* \"src/OrderMatcherWrapper.sol\":4338:4352  address token1 */\n      0x00\n        /* \"src/OrderMatcherWrapper.sol\":4354:4368  uint256 amount */\n      dup1\n        /* \"src/OrderMatcherWrapper.sol\":4370:4390  uint256 filledAmount */\n      0x00\n        /* \"src/OrderMatcherWrapper.sol\":4392:4405  uint256 price */\n      dup1\n        /* \"src/OrderMatcherWrapper.sol\":4407:4420  bool isFilled */\n      0x00\n        /* \"src/OrderMatcherWrapper.sol\":4422:4437  bool isCanceled */\n      dup1\n        /* \"src/OrderMatcherWrapper.sol\":4452:4456  data */\n      dup11\n        /* \"src/OrderMatcherWrapper.sol\":4441:4543  abi.decode(data, (uint256, address, uint256, address, address, uint256, uint256, uint256, bool, bool)) */\n      dup1\n      0x20\n      add\n      swap1\n      mload\n      dup2\n      add\n      swap1\n      tag_185\n      swap2\n      swap1\n      tag_186\n      jump\t// in\n    tag_185:\n        /* \"src/OrderMatcherWrapper.sol\":4276:4543  (uint256 id, address user, uint256 orderType, address token0, address token1, uint256 amount, uint256 filledAmount, uint256 price, bool isFilled, bool isCanceled) = abi.decode(data, (uint256, address, uint256, address, address, uint256, uint256, uint256, bool, bool)) */\n      swap10\n      pop\n      swap10\n      pop\n      swap10\n      pop\n      swap10\n      pop\n      swap10\n      pop\n      swap10\n      pop\n      swap10\n      pop\n      swap10\n      pop\n      swap10\n      pop\n      swap10\n      pop\n        /* \"src/OrderMatcherWrapper.sol\":4554:4572  Order memory order */\n      0x00\n        /* \"src/OrderMatcherWrapper.sol\":4575:4848  Order({... */\n      mload(0x40)\n      dup1\n      0x0120\n      add\n      0x40\n      mstore\n      dup1\n        /* \"src/OrderMatcherWrapper.sol\":4599:4601  id */\n      dup13\n        /* \"src/OrderMatcherWrapper.sol\":4575:4848  Order({... */\n      dup2\n      mstore\n      0x20\n      add\n        /* \"src/OrderMatcherWrapper.sol\":4621:4625  user */\n      dup12\n        /* \"src/OrderMatcherWrapper.sol\":4575:4848  Order({... */\n      0xffffffffffffffffffffffffffffffffffffffff\n      and\n      dup2\n      mstore\n      0x20\n      add\n        /* \"src/OrderMatcherWrapper.sol\":4650:4659  orderType */\n      dup11\n        /* \"src/OrderMatcherWrapper.sol\":4575:4848  Order({... */\n      dup2\n      mstore\n      0x20\n      add\n        /* \"src/OrderMatcherWrapper.sol\":4681:4687  token0 */\n      dup10\n        /* \"src/OrderMatcherWrapper.sol\":4575:4848  Order({... */\n      0xffffffffffffffffffffffffffffffffffffffff\n      and\n      dup2\n      mstore\n      0x20\n      add\n        /* \"src/OrderMatcherWrapper.sol\":4709:4715  token1 */\n      dup9\n        /* \"src/OrderMatcherWrapper.sol\":4575:4848  Order({... */\n      0xffffffffffffffffffffffffffffffffffffffff\n      and\n      dup2\n      mstore\n      0x20\n      add\n        /* \"src/OrderMatcherWrapper.sol\":4737:4743  amount */\n      dup8\n        /* \"src/OrderMatcherWrapper.sol\":4575:4848  Order({... */\n      dup2\n      mstore\n      0x20\n      add\n        /* \"src/OrderMatcherWrapper.sol\":4764:4769  price */\n      dup6\n        /* \"src/OrderMatcherWrapper.sol\":4575:4848  Order({... */\n      dup2\n      mstore\n      0x20\n      add\n        /* \"src/OrderMatcherWrapper.sol\":4793:4801  isFilled */\n      dup5\n        /* \"src/OrderMatcherWrapper.sol\":4575:4848  Order({... */\n      iszero\n      iszero\n      dup2\n      mstore\n      0x20\n      add\n        /* \"src/OrderMatcherWrapper.sol\":4827:4837  isCanceled */\n      dup4\n        /* \"src/OrderMatcherWrapper.sol\":4575:4848  Order({... */\n      iszero\n      iszero\n      dup2\n      mstore\n      pop\n        /* \"src/OrderMatcherWrapper.sol\":4554:4848  Order memory order = Order({... */\n      swap1\n      pop\n        /* \"src/OrderMatcherWrapper.sol\":4866:4871  order */\n      dup1\n        /* \"src/OrderMatcherWrapper.sol\":4859:4871  return order */\n      swap14\n      pop\n      pop\n      pop\n      pop\n      pop\n      pop\n      pop\n      pop\n      pop\n      pop\n      pop\n      pop\n      pop\n      pop\n        /* \"src/OrderMatcherWrapper.sol\":3965:4878  function retrieveLimitOrder(uint256 index) public view returns (Order memory) {... */\n      swap2\n      swap1\n      pop\n      jump\t// out\n        /* \"lib/openzeppelin-contracts/contracts/access/Ownable.sol\":2293:2394  function renounceOwnership() public virtual onlyOwner {... */\n    tag_76:\n        /* \"lib/openzeppelin-contracts/contracts/access/Ownable.sol\":1531:1544  _checkOwner() */\n      tag_188\n        /* \"lib/openzeppelin-contracts/contracts/access/Ownable.sol\":1531:1542  _checkOwner */\n      tag_157\n        /* \"lib/openzeppelin-contracts/contracts/access/Ownable.sol\":1531:1544  _checkOwner() */\n      jump\t// in\n    tag_188:\n        /* \"lib/openzeppelin-contracts/contracts/access/Ownable.sol\":2357:2387  _transferOwnership(address(0)) */\n      tag_190\n        /* \"lib/openzeppelin-contracts/contracts/access/Ownable.sol\":2384:2385  0 */\n      0x00\n        /* \"lib/openzeppelin-contracts/contracts/access/Ownable.sol\":2357:2375  _transferOwnership */\n      tag_191\n        /* \"lib/openzeppelin-contracts/contracts/access/Ownable.sol\":2357:2387  _transferOwnership(address(0)) */\n      jump\t// in\n    tag_190:\n        /* \"lib/openzeppelin-contracts/contracts/access/Ownable.sol\":2293:2394  function renounceOwnership() public virtual onlyOwner {... */\n      jump\t// out\n        /* \"src/OrderMatcherWrapper.sol\":5479:6460  function placeMarketOrder(... */\n    tag_81:\n        /* \"src/OrderMatcherWrapper.sol\":5629:5641  bool success */\n      0x00\n        /* \"src/OrderMatcherWrapper.sol\":5643:5660  bytes memory data */\n      dup1\n        /* \"src/OrderMatcherWrapper.sol\":5664:5683  rustContractAddress */\n      0x02\n      0x00\n      swap1\n      sload\n      swap1\n      0x0100\n      exp\n      swap1\n      div\n      0xffffffffffffffffffffffffffffffffffffffff\n      and\n        /* \"src/OrderMatcherWrapper.sol\":5664:5688  rustContractAddress.call */\n      0xffffffffffffffffffffffffffffffffffffffff\n      and\n        /* \"src/OrderMatcherWrapper.sol\":5820:5829  orderType */\n      dup7\n        /* \"src/OrderMatcherWrapper.sol\":5848:5854  token0 */\n      dup7\n        /* \"src/OrderMatcherWrapper.sol\":5872:5878  token1 */\n      dup7\n        /* \"src/OrderMatcherWrapper.sol\":5896:5902  amount */\n      dup7\n        /* \"src/OrderMatcherWrapper.sol\":5702:5916  abi.encodeWithSignature(... */\n      add(0x24, mload(0x40))\n      tag_193\n      swap5\n      swap4\n      swap3\n      swap2\n      swap1\n      tag_194\n      jump\t// in\n    tag_193:\n      mload(0x40)\n      0x20\n      dup2\n      dup4\n      sub\n      sub\n      dup2\n      mstore\n      swap1\n      0x40\n      mstore\n      and(not(0xffffffffffffffffffffffffffffffffffffffffffffffffffffffff), 0x732c2c6400000000000000000000000000000000000000000000000000000000)\n      0x20\n      dup3\n      add\n      dup1\n      mload\n      0xffffffffffffffffffffffffffffffffffffffffffffffffffffffff\n      dup4\n      dup2\n      dup4\n      and\n      or\n      dup4\n      mstore\n      pop\n      pop\n      pop\n      pop\n        /* \"src/OrderMatcherWrapper.sol\":5664:5926  rustContractAddress.call(... */\n      mload(0x40)\n      tag_195\n      swap2\n      swap1\n      tag_164\n      jump\t// in\n    tag_195:\n      0x00\n      mload(0x40)\n      dup1\n      dup4\n      sub\n      dup2\n      0x00\n      dup7\n      gas\n      call\n      swap2\n      pop\n      pop\n      returndatasize\n      dup1\n      0x00\n      dup2\n      eq\n      tag_198\n      jumpi\n      mload(0x40)\n      swap2\n      pop\n      and(add(returndatasize, 0x3f), not(0x1f))\n      dup3\n      add\n      0x40\n      mstore\n      returndatasize\n      dup3\n      mstore\n      returndatasize\n      0x00\n      0x20\n      dup5\n      add\n      returndatacopy\n      jump(tag_197)\n    tag_198:\n      0x60\n      swap2\n      pop\n    tag_197:\n      pop\n        /* \"src/OrderMatcherWrapper.sol\":5628:5926  (bool success, bytes memory data) = rustContractAddress.call(... */\n      swap2\n      pop\n      swap2\n      pop\n        /* \"src/OrderMatcherWrapper.sol\":5945:5952  success */\n      dup2\n        /* \"src/OrderMatcherWrapper.sol\":5937:5985  require(success, \"Failed to place market order\") */\n      tag_199\n      jumpi\n      mload(0x40)\n      0x08c379a000000000000000000000000000000000000000000000000000000000\n      dup2\n      mstore\n      0x04\n      add\n      tag_200\n      swap1\n      tag_201\n      jump\t// in\n    tag_200:\n      mload(0x40)\n      dup1\n      swap2\n      sub\n      swap1\n      revert\n    tag_199:\n        /* \"src/OrderMatcherWrapper.sol\":5997:6009  address user */\n      0x00\n        /* \"src/OrderMatcherWrapper.sol\":6011:6029  address otherUsers */\n      dup1\n        /* \"src/OrderMatcherWrapper.sol\":6031:6059  int256 amountToken0DeltaUser */\n      0x00\n        /* \"src/OrderMatcherWrapper.sol\":6061:6089  int256 amountToken1DeltaUser */\n      dup1\n        /* \"src/OrderMatcherWrapper.sol\":6091:6125  int256 amountToken0DeltaOtherUsers */\n      0x00\n        /* \"src/OrderMatcherWrapper.sol\":6127:6161  int256 amountToken1DeltaOtherUsers */\n      dup1\n        /* \"src/OrderMatcherWrapper.sol\":6185:6189  data */\n      dup7\n        /* \"src/OrderMatcherWrapper.sol\":6174:6242  abi.decode(data, (address, address, int256, int256, int256, int256)) */\n      dup1\n      0x20\n      add\n      swap1\n      mload\n      dup2\n      add\n      swap1\n      tag_202\n      swap2\n      swap1\n      tag_203\n      jump\t// in\n    tag_202:\n        /* \"src/OrderMatcherWrapper.sol\":5996:6242  (address user, address otherUsers, int256 amountToken0DeltaUser, int256 amountToken1DeltaUser, int256 amountToken0DeltaOtherUsers, int256 amountToken1DeltaOtherUsers) = ... */\n      swap6\n      pop\n      swap6\n      pop\n      swap6\n      pop\n      swap6\n      pop\n      swap6\n      pop\n      swap6\n      pop\n        /* \"src/OrderMatcherWrapper.sol\":5618:6460  {... */\n      pop\n      pop\n      pop\n      pop\n      pop\n      pop\n      pop\n      pop\n        /* \"src/OrderMatcherWrapper.sol\":5479:6460  function placeMarketOrder(... */\n      pop\n      pop\n      pop\n      pop\n      jump\t// out\n        /* \"lib/LayerZero-v2/packages/layerzero-v2/evm/oapp/contracts/oapp/OAppReceiver.sol\":3113:3241  function nextNonce(uint32 /*_srcEid*/, bytes32 /*_sender*/) public view virtual returns (uint64 nonce) {... */\n    tag_85:\n        /* \"lib/LayerZero-v2/packages/layerzero-v2/evm/oapp/contracts/oapp/OAppReceiver.sol\":3202:3214  uint64 nonce */\n      0x00\n        /* \"lib/LayerZero-v2/packages/layerzero-v2/evm/oapp/contracts/oapp/OAppReceiver.sol\":3113:3241  function nextNonce(uint32 /*_srcEid*/, bytes32 /*_sender*/) public view virtual returns (uint64 nonce) {... */\n      swap3\n      swap2\n      pop\n      pop\n      jump\t// out\n        /* \"src/OrderMatcherWrapper.sol\":529:560  uint32 public callSenderEid = 1 */\n    tag_90:\n      0x03\n      0x16\n      swap1\n      sload\n      swap1\n      0x0100\n      exp\n      swap1\n      div\n      0xffffffff\n      and\n      dup2\n      jump\t// out\n        /* \"lib/openzeppelin-contracts/contracts/access/Ownable.sol\":1638:1723  function owner() public view virtual returns (address) {... */\n    tag_95:\n        /* \"lib/openzeppelin-contracts/contracts/access/Ownable.sol\":1684:1691  address */\n      0x00\n        /* \"lib/openzeppelin-contracts/contracts/access/Ownable.sol\":1710:1716  _owner */\n      dup1\n      0x00\n      swap1\n      sload\n      swap1\n      0x0100\n      exp\n      swap1\n      div\n      0xffffffffffffffffffffffffffffffffffffffff\n      and\n        /* \"lib/openzeppelin-contracts/contracts/access/Ownable.sol\":1703:1716  return _owner */\n      swap1\n      pop\n        /* \"lib/openzeppelin-contracts/contracts/access/Ownable.sol\":1638:1723  function owner() public view virtual returns (address) {... */\n      swap1\n      jump\t// out\n        /* \"src/OrderMatcherWrapper.sol\":4884:5187  function cancelLimitOrder(uint256 orderId) public {... */\n    tag_100:\n        /* \"src/OrderMatcherWrapper.sol\":4945:4957  bool success */\n      0x00\n        /* \"src/OrderMatcherWrapper.sol\":4962:4981  rustContractAddress */\n      0x02\n      0x00\n      swap1\n      sload\n      swap1\n      0x0100\n      exp\n      swap1\n      div\n      0xffffffffffffffffffffffffffffffffffffffff\n      and\n        /* \"src/OrderMatcherWrapper.sol\":4962:4986  rustContractAddress.call */\n      0xffffffffffffffffffffffffffffffffffffffff\n      and\n        /* \"src/OrderMatcherWrapper.sol\":5053:5060  orderId */\n      dup3\n        /* \"src/OrderMatcherWrapper.sol\":5000:5061  abi.encodeWithSignature(\"cancelLimitOrder(uint256)\", orderId) */\n      add(0x24, mload(0x40))\n      tag_207\n      swap2\n      swap1\n      tag_61\n      jump\t// in\n    tag_207:\n      mload(0x40)\n      0x20\n      dup2\n      dup4\n      sub\n      sub\n      dup2\n      mstore\n      swap1\n      0x40\n      mstore\n      and(not(0xffffffffffffffffffffffffffffffffffffffffffffffffffffffff), 0xa5cdc8fc00000000000000000000000000000000000000000000000000000000)\n      0x20\n      dup3\n      add\n      dup1\n      mload\n      0xffffffffffffffffffffffffffffffffffffffffffffffffffffffff\n      dup4\n      dup2\n      dup4\n      and\n      or\n      dup4\n      mstore\n      pop\n      pop\n      pop\n      pop\n        /* \"src/OrderMatcherWrapper.sol\":4962:5071  rustContractAddress.call(... */\n      mload(0x40)\n      tag_208\n      swap2\n      swap1\n      tag_164\n      jump\t// in\n    tag_208:\n      0x00\n      mload(0x40)\n      dup1\n      dup4\n      sub\n      dup2\n      0x00\n      dup7\n      gas\n      call\n      swap2\n      pop\n      pop\n      returndatasize\n      dup1\n      0x00\n      dup2\n      eq\n      tag_211\n      jumpi\n      mload(0x40)\n      swap2\n      pop\n      and(add(returndatasize, 0x3f), not(0x1f))\n      dup3\n      add\n      0x40\n      mstore\n      returndatasize\n      dup3\n      mstore\n      returndatasize\n      0x00\n      0x20\n      dup5\n      add\n      returndatacopy\n      jump(tag_210)\n    tag_211:\n      0x60\n      swap2\n      pop\n    tag_210:\n      pop\n        /* \"src/OrderMatcherWrapper.sol\":4944:5071  (bool success,) = rustContractAddress.call(... */\n      pop\n      swap1\n      pop\n        /* \"src/OrderMatcherWrapper.sol\":5090:5097  success */\n      dup1\n        /* \"src/OrderMatcherWrapper.sol\":5082:5130  require(success, \"Failed to cancel limit order\") */\n      tag_212\n      jumpi\n      mload(0x40)\n      0x08c379a000000000000000000000000000000000000000000000000000000000\n      dup2\n      mstore\n      0x04\n      add\n      tag_213\n      swap1\n      tag_214\n      jump\t// in\n    tag_213:\n      mload(0x40)\n      dup1\n      swap2\n      sub\n      swap1\n      revert\n    tag_212:\n        /* \"src/OrderMatcherWrapper.sol\":5169:5179  msg.sender */\n      caller\n        /* \"src/OrderMatcherWrapper.sol\":5146:5180  OrderCanceled(orderId, msg.sender) */\n      0xffffffffffffffffffffffffffffffffffffffff\n      and\n      0x9384174c8517f5537b08e79211fc039e8a098571a3a2b4cb21dfa6f3237e8de1\n        /* \"src/OrderMatcherWrapper.sol\":5160:5167  orderId */\n      dup4\n        /* \"src/OrderMatcherWrapper.sol\":5146:5180  OrderCanceled(orderId, msg.sender) */\n      mload(0x40)\n      tag_215\n      swap2\n      swap1\n      tag_61\n      jump\t// in\n    tag_215:\n      mload(0x40)\n      dup1\n      swap2\n      sub\n      swap1\n      log2\n        /* \"src/OrderMatcherWrapper.sol\":4934:5187  {... */\n      pop\n        /* \"src/OrderMatcherWrapper.sol\":4884:5187  function cancelLimitOrder(uint256 orderId) public {... */\n      pop\n      jump\t// out\n        /* \"lib/LayerZero-v2/packages/layerzero-v2/evm/oapp/contracts/oapp/OAppReceiver.sol\":1725:1835  function composeMsgSender() public view virtual returns (address sender) {... */\n    tag_103:\n        /* \"lib/LayerZero-v2/packages/layerzero-v2/evm/oapp/contracts/oapp/OAppReceiver.sol\":1782:1796  address sender */\n      0x00\n        /* \"lib/LayerZero-v2/packages/layerzero-v2/evm/oapp/contracts/oapp/OAppReceiver.sol\":1823:1827  this */\n      address\n        /* \"lib/LayerZero-v2/packages/layerzero-v2/evm/oapp/contracts/oapp/OAppReceiver.sol\":1808:1828  return address(this) */\n      swap1\n      pop\n        /* \"lib/LayerZero-v2/packages/layerzero-v2/evm/oapp/contracts/oapp/OAppReceiver.sol\":1725:1835  function composeMsgSender() public view virtual returns (address sender) {... */\n      swap1\n      jump\t// out\n        /* \"lib/LayerZero-v2/packages/layerzero-v2/evm/oapp/contracts/oapp/OAppCore.sol\":569:617  mapping(uint32 eid => bytes32 peer) public peers */\n    tag_109:\n      mstore(0x20, 0x01)\n      dup1\n      0x00\n      mstore\n      keccak256(0x00, 0x40)\n      0x00\n      swap2\n      pop\n      swap1\n      pop\n      sload\n      dup2\n      jump\t// out\n        /* \"src/OrderMatcherWrapper.sol\":460:489  bool public inWrapper = false */\n    tag_114:\n      0x03\n      0x14\n      swap1\n      sload\n      swap1\n      0x0100\n      exp\n      swap1\n      div\n      0xff\n      and\n      dup2\n      jump\t// out\n        /* \"lib/LayerZero-v2/packages/layerzero-v2/evm/oapp/contracts/oapp/OAppCore.sol\":2697:2802  function setDelegate(address _delegate) public onlyOwner {... */\n    tag_120:\n        /* \"lib/openzeppelin-contracts/contracts/access/Ownable.sol\":1531:1544  _checkOwner() */\n      tag_218\n        /* \"lib/openzeppelin-contracts/contracts/access/Ownable.sol\":1531:1542  _checkOwner */\n      tag_157\n        /* \"lib/openzeppelin-contracts/contracts/access/Ownable.sol\":1531:1544  _checkOwner() */\n      jump\t// in\n    tag_218:\n        /* \"lib/LayerZero-v2/packages/layerzero-v2/evm/oapp/contracts/oapp/OAppCore.sol\":2764:2772  endpoint */\n      immutable(\"0x7446b42d7fe1689ec32fc1ca65129d9f21f1979742315d34500a6886f6986bea\")\n        /* \"lib/LayerZero-v2/packages/layerzero-v2/evm/oapp/contracts/oapp/OAppCore.sol\":2764:2784  endpoint.setDelegate */\n      0xffffffffffffffffffffffffffffffffffffffff\n      and\n      0xca5eb5e1\n        /* \"lib/LayerZero-v2/packages/layerzero-v2/evm/oapp/contracts/oapp/OAppCore.sol\":2785:2794  _delegate */\n      dup3\n        /* \"lib/LayerZero-v2/packages/layerzero-v2/evm/oapp/contracts/oapp/OAppCore.sol\":2764:2795  endpoint.setDelegate(_delegate) */\n      mload(0x40)\n      dup3\n      0xffffffff\n      and\n      0xe0\n      shl\n      dup2\n      mstore\n      0x04\n      add\n      tag_220\n      swap2\n      swap1\n      tag_33\n      jump\t// in\n    tag_220:\n      0x00\n      mload(0x40)\n      dup1\n      dup4\n      sub\n      dup2\n      0x00\n      dup8\n      dup1\n      extcodesize\n      iszero\n      dup1\n      iszero\n      tag_221\n      jumpi\n      0x00\n      dup1\n      revert\n    tag_221:\n      pop\n      gas\n      call\n      iszero\n      dup1\n      iszero\n      tag_223\n      jumpi\n      returndatasize\n      0x00\n      dup1\n      returndatacopy\n      revert(0x00, returndatasize)\n    tag_223:\n      pop\n      pop\n      pop\n      pop\n        /* \"lib/LayerZero-v2/packages/layerzero-v2/evm/oapp/contracts/oapp/OAppCore.sol\":2697:2802  function setDelegate(address _delegate) public onlyOwner {... */\n      pop\n      jump\t// out\n        /* \"src/OrderMatcherWrapper.sol\":430:453  address public deployer */\n    tag_123:\n      0x03\n      0x00\n      swap1\n      sload\n      swap1\n      0x0100\n      exp\n      swap1\n      div\n      0xffffffffffffffffffffffffffffffffffffffff\n      and\n      dup2\n      jump\t// out\n        /* \"src/OrderMatcherWrapper.sol\":781:1003  function setRustContractAddress(address _rustContractAddress) external {... */\n    tag_128:\n        /* \"src/OrderMatcherWrapper.sol\":884:892  deployer */\n      0x03\n      0x00\n      swap1\n      sload\n      swap1\n      0x0100\n      exp\n      swap1\n      div\n      0xffffffffffffffffffffffffffffffffffffffff\n      and\n        /* \"src/OrderMatcherWrapper.sol\":870:892  msg.sender == deployer */\n      0xffffffffffffffffffffffffffffffffffffffff\n      and\n        /* \"src/OrderMatcherWrapper.sol\":870:880  msg.sender */\n      caller\n        /* \"src/OrderMatcherWrapper.sol\":870:892  msg.sender == deployer */\n      0xffffffffffffffffffffffffffffffffffffffff\n      and\n      eq\n        /* \"src/OrderMatcherWrapper.sol\":862:944  require(msg.sender == deployer, \"Only deployer can set the Rust contract address\") */\n      tag_225\n      jumpi\n      mload(0x40)\n      0x08c379a000000000000000000000000000000000000000000000000000000000\n      dup2\n      mstore\n      0x04\n      add\n      tag_226\n      swap1\n      tag_227\n      jump\t// in\n    tag_226:\n      mload(0x40)\n      dup1\n      swap2\n      sub\n      swap1\n      revert\n    tag_225:\n        /* \"src/OrderMatcherWrapper.sol\":976:996  _rustContractAddress */\n      dup1\n        /* \"src/OrderMatcherWrapper.sol\":954:973  rustContractAddress */\n      0x02\n      0x00\n        /* \"src/OrderMatcherWrapper.sol\":954:996  rustContractAddress = _rustContractAddress */\n      0x0100\n      exp\n      dup2\n      sload\n      dup2\n      0xffffffffffffffffffffffffffffffffffffffff\n      mul\n      not\n      and\n      swap1\n      dup4\n      0xffffffffffffffffffffffffffffffffffffffff\n      and\n      mul\n      or\n      swap1\n      sstore\n      pop\n        /* \"src/OrderMatcherWrapper.sol\":781:1003  function setRustContractAddress(address _rustContractAddress) external {... */\n      pop\n      jump\t// out\n        /* \"lib/openzeppelin-contracts/contracts/access/Ownable.sol\":2543:2758  function transferOwnership(address newOwner) public virtual onlyOwner {... */\n    tag_132:\n        /* \"lib/openzeppelin-contracts/contracts/access/Ownable.sol\":1531:1544  _checkOwner() */\n      tag_229\n        /* \"lib/openzeppelin-contracts/contracts/access/Ownable.sol\":1531:1542  _checkOwner */\n      tag_157\n        /* \"lib/openzeppelin-contracts/contracts/access/Ownable.sol\":1531:1544  _checkOwner() */\n      jump\t// in\n    tag_229:\n        /* \"lib/openzeppelin-contracts/contracts/access/Ownable.sol\":2647:2648  0 */\n      0x00\n        /* \"lib/openzeppelin-contracts/contracts/access/Ownable.sol\":2627:2649  newOwner == address(0) */\n      0xffffffffffffffffffffffffffffffffffffffff\n      and\n        /* \"lib/openzeppelin-contracts/contracts/access/Ownable.sol\":2627:2635  newOwner */\n      dup2\n        /* \"lib/openzeppelin-contracts/contracts/access/Ownable.sol\":2627:2649  newOwner == address(0) */\n      0xffffffffffffffffffffffffffffffffffffffff\n      and\n      sub\n        /* \"lib/openzeppelin-contracts/contracts/access/Ownable.sol\":2623:2714  if (newOwner == address(0)) {... */\n      tag_231\n      jumpi\n        /* \"lib/openzeppelin-contracts/contracts/access/Ownable.sol\":2700:2701  0 */\n      0x00\n        /* \"lib/openzeppelin-contracts/contracts/access/Ownable.sol\":2672:2703  OwnableInvalidOwner(address(0)) */\n      mload(0x40)\n      0x1e4fbdf700000000000000000000000000000000000000000000000000000000\n      dup2\n      mstore\n      0x04\n      add\n      tag_232\n      swap2\n      swap1\n      tag_33\n      jump\t// in\n    tag_232:\n      mload(0x40)\n      dup1\n      swap2\n      sub\n      swap1\n      revert\n        /* \"lib/openzeppelin-contracts/contracts/access/Ownable.sol\":2623:2714  if (newOwner == address(0)) {... */\n    tag_231:\n        /* \"lib/openzeppelin-contracts/contracts/access/Ownable.sol\":2723:2751  _transferOwnership(newOwner) */\n      tag_233\n        /* \"lib/openzeppelin-contracts/contracts/access/Ownable.sol\":2742:2750  newOwner */\n      dup2\n        /* \"lib/openzeppelin-contracts/contracts/access/Ownable.sol\":2723:2741  _transferOwnership */\n      tag_191\n        /* \"lib/openzeppelin-contracts/contracts/access/Ownable.sol\":2723:2751  _transferOwnership(newOwner) */\n      jump\t// in\n    tag_233:\n        /* \"lib/openzeppelin-contracts/contracts/access/Ownable.sol\":2543:2758  function transferOwnership(address newOwner) public virtual onlyOwner {... */\n      pop\n      jump\t// out\n        /* \"src/OrderMatcherWrapper.sol\":5193:5473  function cancelAllLimitOrders() public {... */\n    tag_135:\n        /* \"src/OrderMatcherWrapper.sol\":5243:5255  bool success */\n      0x00\n        /* \"src/OrderMatcherWrapper.sol\":5260:5279  rustContractAddress */\n      0x02\n      0x00\n      swap1\n      sload\n      swap1\n      0x0100\n      exp\n      swap1\n      div\n      0xffffffffffffffffffffffffffffffffffffffff\n      and\n        /* \"src/OrderMatcherWrapper.sol\":5260:5284  rustContractAddress.call */\n      0xffffffffffffffffffffffffffffffffffffffff\n      and\n        /* \"src/OrderMatcherWrapper.sol\":5298:5347  abi.encodeWithSignature(\"cancelAllLimitOrders()\") */\n      add(0x24, mload(0x40))\n      mload(0x40)\n      0x20\n      dup2\n      dup4\n      sub\n      sub\n      dup2\n      mstore\n      swap1\n      0x40\n      mstore\n      and(not(0xffffffffffffffffffffffffffffffffffffffffffffffffffffffff), 0xfde8959800000000000000000000000000000000000000000000000000000000)\n      0x20\n      dup3\n      add\n      dup1\n      mload\n      0xffffffffffffffffffffffffffffffffffffffffffffffffffffffff\n      dup4\n      dup2\n      dup4\n      and\n      or\n      dup4\n      mstore\n      pop\n      pop\n      pop\n      pop\n        /* \"src/OrderMatcherWrapper.sol\":5260:5357  rustContractAddress.call(... */\n      mload(0x40)\n      tag_235\n      swap2\n      swap1\n      tag_164\n      jump\t// in\n    tag_235:\n      0x00\n      mload(0x40)\n      dup1\n      dup4\n      sub\n      dup2\n      0x00\n      dup7\n      gas\n      call\n      swap2\n      pop\n      pop\n      returndatasize\n      dup1\n      0x00\n      dup2\n      eq\n      tag_238\n      jumpi\n      mload(0x40)\n      swap2\n      pop\n      and(add(returndatasize, 0x3f), not(0x1f))\n      dup3\n      add\n      0x40\n      mstore\n      returndatasize\n      dup3\n      mstore\n      returndatasize\n      0x00\n      0x20\n      dup5\n      add\n      returndatacopy\n      jump(tag_237)\n    tag_238:\n      0x60\n      swap2\n      pop\n    tag_237:\n      pop\n        /* \"src/OrderMatcherWrapper.sol\":5242:5357  (bool success,) = rustContractAddress.call(... */\n      pop\n      swap1\n      pop\n        /* \"src/OrderMatcherWrapper.sol\":5376:5383  success */\n      dup1\n        /* \"src/OrderMatcherWrapper.sol\":5368:5421  require(success, \"Failed to cancel all limit orders\") */\n      tag_239\n      jumpi\n      mload(0x40)\n      0x08c379a000000000000000000000000000000000000000000000000000000000\n      dup2\n      mstore\n      0x04\n      add\n      tag_240\n      swap1\n      tag_241\n      jump\t// in\n    tag_240:\n      mload(0x40)\n      dup1\n      swap2\n      sub\n      swap1\n      revert\n    tag_239:\n        /* \"src/OrderMatcherWrapper.sol\":5455:5465  msg.sender */\n      caller\n        /* \"src/OrderMatcherWrapper.sol\":5437:5466  AllOrdersCanceled(msg.sender) */\n      0xffffffffffffffffffffffffffffffffffffffff\n      and\n      0x8595565d6fc010babc8f7612a8768886d8fe08635f358d75af306fdf25f00d03\n      mload(0x40)\n      mload(0x40)\n      dup1\n      swap2\n      sub\n      swap1\n      log2\n        /* \"src/OrderMatcherWrapper.sol\":5232:5473  {... */\n      pop\n        /* \"src/OrderMatcherWrapper.sol\":5193:5473  function cancelAllLimitOrders() public {... */\n      jump\t// out\n        /* \"lib/LayerZero-v2/packages/layerzero-v2/evm/oapp/contracts/oapp/OAppReceiver.sol\":2377:2526  function allowInitializePath(Origin calldata origin) public view virtual returns (bool) {... */\n    tag_140:\n        /* \"lib/LayerZero-v2/packages/layerzero-v2/evm/oapp/contracts/oapp/OAppReceiver.sol\":2459:2463  bool */\n      0x00\n        /* \"lib/LayerZero-v2/packages/layerzero-v2/evm/oapp/contracts/oapp/OAppReceiver.sol\":2506:2512  origin */\n      dup2\n        /* \"lib/LayerZero-v2/packages/layerzero-v2/evm/oapp/contracts/oapp/OAppReceiver.sol\":2506:2519  origin.sender */\n      0x20\n      add\n      calldataload\n        /* \"lib/LayerZero-v2/packages/layerzero-v2/evm/oapp/contracts/oapp/OAppReceiver.sol\":2482:2487  peers */\n      0x01\n        /* \"lib/LayerZero-v2/packages/layerzero-v2/evm/oapp/contracts/oapp/OAppReceiver.sol\":2482:2502  peers[origin.srcEid] */\n      0x00\n        /* \"lib/LayerZero-v2/packages/layerzero-v2/evm/oapp/contracts/oapp/OAppReceiver.sol\":2488:2494  origin */\n      dup5\n        /* \"lib/LayerZero-v2/packages/layerzero-v2/evm/oapp/contracts/oapp/OAppReceiver.sol\":2488:2501  origin.srcEid */\n      0x00\n      add\n      0x20\n      dup2\n      add\n      swap1\n      tag_243\n      swap2\n      swap1\n      tag_108\n      jump\t// in\n    tag_243:\n        /* \"lib/LayerZero-v2/packages/layerzero-v2/evm/oapp/contracts/oapp/OAppReceiver.sol\":2482:2502  peers[origin.srcEid] */\n      0xffffffff\n      and\n      0xffffffff\n      and\n      dup2\n      mstore\n      0x20\n      add\n      swap1\n      dup2\n      mstore\n      0x20\n      add\n      0x00\n      keccak256\n      sload\n        /* \"lib/LayerZero-v2/packages/layerzero-v2/evm/oapp/contracts/oapp/OAppReceiver.sol\":2482:2519  peers[origin.srcEid] == origin.sender */\n      eq\n        /* \"lib/LayerZero-v2/packages/layerzero-v2/evm/oapp/contracts/oapp/OAppReceiver.sol\":2475:2519  return peers[origin.srcEid] == origin.sender */\n      swap1\n      pop\n        /* \"lib/LayerZero-v2/packages/layerzero-v2/evm/oapp/contracts/oapp/OAppReceiver.sol\":2377:2526  function allowInitializePath(Origin calldata origin) public view virtual returns (bool) {... */\n      swap2\n      swap1\n      pop\n      jump\t// out\n        /* \"lib/LayerZero-v2/packages/layerzero-v2/evm/oapp/contracts/oapp/OAppCore.sol\":2163:2359  function _getPeerOrRevert(uint32 _eid) internal view virtual returns (bytes32) {... */\n    tag_147:\n        /* \"lib/LayerZero-v2/packages/layerzero-v2/evm/oapp/contracts/oapp/OAppCore.sol\":2233:2240  bytes32 */\n      0x00\n        /* \"lib/LayerZero-v2/packages/layerzero-v2/evm/oapp/contracts/oapp/OAppCore.sol\":2252:2264  bytes32 peer */\n      dup1\n        /* \"lib/LayerZero-v2/packages/layerzero-v2/evm/oapp/contracts/oapp/OAppCore.sol\":2267:2272  peers */\n      0x01\n        /* \"lib/LayerZero-v2/packages/layerzero-v2/evm/oapp/contracts/oapp/OAppCore.sol\":2267:2278  peers[_eid] */\n      0x00\n        /* \"lib/LayerZero-v2/packages/layerzero-v2/evm/oapp/contracts/oapp/OAppCore.sol\":2273:2277  _eid */\n      dup5\n        /* \"lib/LayerZero-v2/packages/layerzero-v2/evm/oapp/contracts/oapp/OAppCore.sol\":2267:2278  peers[_eid] */\n      0xffffffff\n      and\n      0xffffffff\n      and\n      dup2\n      mstore\n      0x20\n      add\n      swap1\n      dup2\n      mstore\n      0x20\n      add\n      0x00\n      keccak256\n      sload\n        /* \"lib/LayerZero-v2/packages/layerzero-v2/evm/oapp/contracts/oapp/OAppCore.sol\":2252:2278  bytes32 peer = peers[_eid] */\n      swap1\n      pop\n        /* \"lib/LayerZero-v2/packages/layerzero-v2/evm/oapp/contracts/oapp/OAppCore.sol\":2308:2309  0 */\n      0x00\n        /* \"lib/LayerZero-v2/packages/layerzero-v2/evm/oapp/contracts/oapp/OAppCore.sol\":2300:2310  bytes32(0) */\n      dup1\n      shl\n        /* \"lib/LayerZero-v2/packages/layerzero-v2/evm/oapp/contracts/oapp/OAppCore.sol\":2292:2296  peer */\n      dup2\n        /* \"lib/LayerZero-v2/packages/layerzero-v2/evm/oapp/contracts/oapp/OAppCore.sol\":2292:2310  peer == bytes32(0) */\n      sub\n        /* \"lib/LayerZero-v2/packages/layerzero-v2/evm/oapp/contracts/oapp/OAppCore.sol\":2288:2331  if (peer == bytes32(0)) revert NoPeer(_eid) */\n      tag_245\n      jumpi\n        /* \"lib/LayerZero-v2/packages/layerzero-v2/evm/oapp/contracts/oapp/OAppCore.sol\":2326:2330  _eid */\n      dup3\n        /* \"lib/LayerZero-v2/packages/layerzero-v2/evm/oapp/contracts/oapp/OAppCore.sol\":2319:2331  NoPeer(_eid) */\n      mload(0x40)\n      0xf6ff4fb700000000000000000000000000000000000000000000000000000000\n      dup2\n      mstore\n      0x04\n      add\n      tag_246\n      swap2\n      swap1\n      tag_92\n      jump\t// in\n    tag_246:\n      mload(0x40)\n      dup1\n      swap2\n      sub\n      swap1\n      revert\n        /* \"lib/LayerZero-v2/packages/layerzero-v2/evm/oapp/contracts/oapp/OAppCore.sol\":2288:2331  if (peer == bytes32(0)) revert NoPeer(_eid) */\n    tag_245:\n        /* \"lib/LayerZero-v2/packages/layerzero-v2/evm/oapp/contracts/oapp/OAppCore.sol\":2348:2352  peer */\n      dup1\n        /* \"lib/LayerZero-v2/packages/layerzero-v2/evm/oapp/contracts/oapp/OAppCore.sol\":2341:2352  return peer */\n      swap2\n      pop\n      pop\n        /* \"lib/LayerZero-v2/packages/layerzero-v2/evm/oapp/contracts/oapp/OAppCore.sol\":2163:2359  function _getPeerOrRevert(uint32 _eid) internal view virtual returns (bytes32) {... */\n      swap2\n      swap1\n      pop\n      jump\t// out\n        /* \"src/OrderMatcherWrapper.sol\":6464:8365  function _lzReceive(... */\n    tag_153:\n        /* \"src/OrderMatcherWrapper.sol\":6851:6865  address sender */\n      0x00\n        /* \"src/OrderMatcherWrapper.sol\":6879:6896  uint256 orderType */\n      dup1\n        /* \"src/OrderMatcherWrapper.sol\":6910:6941  string memory orderFunctionType */\n      0x00\n        /* \"src/OrderMatcherWrapper.sol\":6955:6969  address token0 */\n      dup1\n        /* \"src/OrderMatcherWrapper.sol\":6983:6997  address token1 */\n      0x00\n        /* \"src/OrderMatcherWrapper.sol\":7011:7025  uint256 amount */\n      dup1\n        /* \"src/OrderMatcherWrapper.sol\":7039:7052  uint256 price */\n      0x00\n        /* \"src/OrderMatcherWrapper.sol\":7076:7083  payload */\n      dup12\n      dup12\n        /* \"src/OrderMatcherWrapper.sol\":7065:7148  abi.decode(payload, (address, uint256, string, address, address, uint256, uint256)) */\n      dup2\n      add\n      swap1\n      tag_248\n      swap2\n      swap1\n      tag_249\n      jump\t// in\n    tag_248:\n        /* \"src/OrderMatcherWrapper.sol\":6837:7148  (... */\n      swap7\n      pop\n      swap7\n      pop\n      swap7\n      pop\n      swap7\n      pop\n      swap7\n      pop\n      swap7\n      pop\n      swap7\n      pop\n        /* \"src/OrderMatcherWrapper.sol\":7300:7316  uint32 senderEid */\n      0x00\n        /* \"src/OrderMatcherWrapper.sol\":7319:7326  _origin */\n      dup15\n        /* \"src/OrderMatcherWrapper.sol\":7319:7333  _origin.srcEid */\n      0x00\n      add\n      0x20\n      dup2\n      add\n      swap1\n      tag_250\n      swap2\n      swap1\n      tag_108\n      jump\t// in\n    tag_250:\n        /* \"src/OrderMatcherWrapper.sol\":7300:7333  uint32 senderEid = _origin.srcEid */\n      swap1\n      pop\n        /* \"src/OrderMatcherWrapper.sol\":7343:7362  bytes32 call_sender */\n      0x00\n        /* \"src/OrderMatcherWrapper.sol\":7365:7372  _origin */\n      dup16\n        /* \"src/OrderMatcherWrapper.sol\":7365:7379  _origin.sender */\n      0x20\n      add\n      calldataload\n        /* \"src/OrderMatcherWrapper.sol\":7343:7379  bytes32 call_sender = _origin.sender */\n      swap1\n      pop\n        /* \"src/OrderMatcherWrapper.sol\":7401:7405  true */\n      0x01\n        /* \"src/OrderMatcherWrapper.sol\":7389:7398  inWrapper */\n      0x03\n      0x14\n        /* \"src/OrderMatcherWrapper.sol\":7389:7405  inWrapper = true */\n      0x0100\n      exp\n      dup2\n      sload\n      dup2\n      0xff\n      mul\n      not\n      and\n      swap1\n      dup4\n      iszero\n      iszero\n      mul\n      or\n      swap1\n      sstore\n      pop\n        /* \"src/OrderMatcherWrapper.sol\":7431:7440  senderEid */\n      dup2\n        /* \"src/OrderMatcherWrapper.sol\":7415:7428  callSenderEid */\n      0x03\n      0x16\n        /* \"src/OrderMatcherWrapper.sol\":7415:7440  callSenderEid = senderEid */\n      0x0100\n      exp\n      dup2\n      sload\n      dup2\n      0xffffffff\n      mul\n      not\n      and\n      swap1\n      dup4\n      0xffffffff\n      and\n      mul\n      or\n      swap1\n      sstore\n      pop\n        /* \"src/OrderMatcherWrapper.sol\":7514:7545  abi.encodePacked(\"LIMIT_ORDER\") */\n      add(0x20, mload(0x40))\n      tag_251\n      swap1\n      tag_252\n      jump\t// in\n    tag_251:\n      mload(0x40)\n      0x20\n      dup2\n      dup4\n      sub\n      sub\n      dup2\n      mstore\n      swap1\n      0x40\n      mstore\n        /* \"src/OrderMatcherWrapper.sol\":7504:7546  keccak256(abi.encodePacked(\"LIMIT_ORDER\")) */\n      dup1\n      mload\n      swap1\n      0x20\n      add\n      keccak256\n        /* \"src/OrderMatcherWrapper.sol\":7481:7498  orderFunctionType */\n      dup8\n        /* \"src/OrderMatcherWrapper.sol\":7464:7499  abi.encodePacked(orderFunctionType) */\n      add(0x20, mload(0x40))\n      tag_253\n      swap2\n      swap1\n      tag_254\n      jump\t// in\n    tag_253:\n      mload(0x40)\n      0x20\n      dup2\n      dup4\n      sub\n      sub\n      dup2\n      mstore\n      swap1\n      0x40\n      mstore\n        /* \"src/OrderMatcherWrapper.sol\":7454:7500  keccak256(abi.encodePacked(orderFunctionType)) */\n      dup1\n      mload\n      swap1\n      0x20\n      add\n      keccak256\n        /* \"src/OrderMatcherWrapper.sol\":7454:7546  keccak256(abi.encodePacked(orderFunctionType)) == keccak256(abi.encodePacked(\"LIMIT_ORDER\")) */\n      sub\n        /* \"src/OrderMatcherWrapper.sol\":7451:8089  if(keccak256(abi.encodePacked(orderFunctionType)) == keccak256(abi.encodePacked(\"LIMIT_ORDER\"))){... */\n      tag_255\n      jumpi\n        /* \"src/OrderMatcherWrapper.sol\":7561:7565  this */\n      address\n        /* \"src/OrderMatcherWrapper.sol\":7561:7581  this.placeLimitOrder */\n      0xffffffffffffffffffffffffffffffffffffffff\n      and\n      0x3bbe032f\n        /* \"src/OrderMatcherWrapper.sol\":7582:7591  orderType */\n      dup10\n        /* \"src/OrderMatcherWrapper.sol\":7592:7598  token0 */\n      dup9\n        /* \"src/OrderMatcherWrapper.sol\":7599:7605  token1 */\n      dup9\n        /* \"src/OrderMatcherWrapper.sol\":7606:7612  amount */\n      dup9\n        /* \"src/OrderMatcherWrapper.sol\":7613:7618  price */\n      dup9\n        /* \"src/OrderMatcherWrapper.sol\":7619:7625  sender */\n      dup16\n        /* \"src/OrderMatcherWrapper.sol\":7627:7636  senderEid */\n      dup10\n        /* \"src/OrderMatcherWrapper.sol\":7561:7637  this.placeLimitOrder(orderType,token0,token1,amount,price,sender, senderEid) */\n      mload(0x40)\n      dup9\n      0xffffffff\n      and\n      0xe0\n      shl\n      dup2\n      mstore\n      0x04\n      add\n      tag_256\n      swap8\n      swap7\n      swap6\n      swap5\n      swap4\n      swap3\n      swap2\n      swap1\n      tag_257\n      jump\t// in\n    tag_256:\n      0x00\n      mload(0x40)\n      dup1\n      dup4\n      sub\n      dup2\n      0x00\n      dup8\n      dup1\n      extcodesize\n      iszero\n      dup1\n      iszero\n      tag_258\n      jumpi\n      0x00\n      dup1\n      revert\n    tag_258:\n      pop\n      gas\n      call\n      iszero\n      dup1\n      iszero\n      tag_260\n      jumpi\n      returndatasize\n      0x00\n      dup1\n      returndatacopy\n      revert(0x00, returndatasize)\n    tag_260:\n      pop\n      pop\n      pop\n      pop\n        /* \"src/OrderMatcherWrapper.sol\":7451:8089  if(keccak256(abi.encodePacked(orderFunctionType)) == keccak256(abi.encodePacked(\"LIMIT_ORDER\"))){... */\n      jump(tag_261)\n    tag_255:\n        /* \"src/OrderMatcherWrapper.sol\":7718:7750  abi.encodePacked(\"CANCEL_ORDER\") */\n      add(0x20, mload(0x40))\n      tag_262\n      swap1\n      tag_263\n      jump\t// in\n    tag_262:\n      mload(0x40)\n      0x20\n      dup2\n      dup4\n      sub\n      sub\n      dup2\n      mstore\n      swap1\n      0x40\n      mstore\n        /* \"src/OrderMatcherWrapper.sol\":7708:7751  keccak256(abi.encodePacked(\"CANCEL_ORDER\")) */\n      dup1\n      mload\n      swap1\n      0x20\n      add\n      keccak256\n        /* \"src/OrderMatcherWrapper.sol\":7684:7701  orderFunctionType */\n      dup8\n        /* \"src/OrderMatcherWrapper.sol\":7667:7702  abi.encodePacked(orderFunctionType) */\n      add(0x20, mload(0x40))\n      tag_264\n      swap2\n      swap1\n      tag_254\n      jump\t// in\n    tag_264:\n      mload(0x40)\n      0x20\n      dup2\n      dup4\n      sub\n      sub\n      dup2\n      mstore\n      swap1\n      0x40\n      mstore\n        /* \"src/OrderMatcherWrapper.sol\":7657:7703  keccak256(abi.encodePacked(orderFunctionType)) */\n      dup1\n      mload\n      swap1\n      0x20\n      add\n      keccak256\n        /* \"src/OrderMatcherWrapper.sol\":7657:7751  keccak256(abi.encodePacked(orderFunctionType))  == keccak256(abi.encodePacked(\"CANCEL_ORDER\")) */\n      sub\n        /* \"src/OrderMatcherWrapper.sol\":7654:8089  if(keccak256(abi.encodePacked(orderFunctionType))  == keccak256(abi.encodePacked(\"CANCEL_ORDER\"))){... */\n      iszero\n      tag_266\n      jumpi\n        /* \"src/OrderMatcherWrapper.sol\":7862:7898  abi.encodePacked(\"CANCEL_ALL_ORDER\") */\n      add(0x20, mload(0x40))\n      tag_267\n      swap1\n      tag_268\n      jump\t// in\n    tag_267:\n      mload(0x40)\n      0x20\n      dup2\n      dup4\n      sub\n      sub\n      dup2\n      mstore\n      swap1\n      0x40\n      mstore\n        /* \"src/OrderMatcherWrapper.sol\":7852:7899  keccak256(abi.encodePacked(\"CANCEL_ALL_ORDER\")) */\n      dup1\n      mload\n      swap1\n      0x20\n      add\n      keccak256\n        /* \"src/OrderMatcherWrapper.sol\":7828:7845  orderFunctionType */\n      dup8\n        /* \"src/OrderMatcherWrapper.sol\":7811:7846  abi.encodePacked(orderFunctionType) */\n      add(0x20, mload(0x40))\n      tag_269\n      swap2\n      swap1\n      tag_254\n      jump\t// in\n    tag_269:\n      mload(0x40)\n      0x20\n      dup2\n      dup4\n      sub\n      sub\n      dup2\n      mstore\n      swap1\n      0x40\n      mstore\n        /* \"src/OrderMatcherWrapper.sol\":7801:7847  keccak256(abi.encodePacked(orderFunctionType)) */\n      dup1\n      mload\n      swap1\n      0x20\n      add\n      keccak256\n        /* \"src/OrderMatcherWrapper.sol\":7801:7899  keccak256(abi.encodePacked(orderFunctionType)) ==  keccak256(abi.encodePacked(\"CANCEL_ALL_ORDER\")) */\n      sub\n        /* \"src/OrderMatcherWrapper.sol\":7798:8089  if(keccak256(abi.encodePacked(orderFunctionType)) ==  keccak256(abi.encodePacked(\"CANCEL_ALL_ORDER\"))){... */\n      iszero\n      tag_271\n      jumpi\n        /* \"src/OrderMatcherWrapper.sol\":7993:8025  abi.encodePacked(\"MARKET_ORDER\") */\n      add(0x20, mload(0x40))\n      tag_272\n      swap1\n      tag_273\n      jump\t// in\n    tag_272:\n      mload(0x40)\n      0x20\n      dup2\n      dup4\n      sub\n      sub\n      dup2\n      mstore\n      swap1\n      0x40\n      mstore\n        /* \"src/OrderMatcherWrapper.sol\":7983:8026  keccak256(abi.encodePacked(\"MARKET_ORDER\")) */\n      dup1\n      mload\n      swap1\n      0x20\n      add\n      keccak256\n        /* \"src/OrderMatcherWrapper.sol\":7959:7976  orderFunctionType */\n      dup8\n        /* \"src/OrderMatcherWrapper.sol\":7942:7977  abi.encodePacked(orderFunctionType) */\n      add(0x20, mload(0x40))\n      tag_274\n      swap2\n      swap1\n      tag_254\n      jump\t// in\n    tag_274:\n      mload(0x40)\n      0x20\n      dup2\n      dup4\n      sub\n      sub\n      dup2\n      mstore\n      swap1\n      0x40\n      mstore\n        /* \"src/OrderMatcherWrapper.sol\":7932:7978  keccak256(abi.encodePacked(orderFunctionType)) */\n      dup1\n      mload\n      swap1\n      0x20\n      add\n      keccak256\n        /* \"src/OrderMatcherWrapper.sol\":7932:8026  keccak256(abi.encodePacked(orderFunctionType)) ==  keccak256(abi.encodePacked(\"MARKET_ORDER\")) */\n      sub\n        /* \"src/OrderMatcherWrapper.sol\":7929:8089  if(keccak256(abi.encodePacked(orderFunctionType)) ==  keccak256(abi.encodePacked(\"MARKET_ORDER\"))){... */\n      iszero\n      tag_276\n      jumpi\n        /* \"src/OrderMatcherWrapper.sol\":8057:8078  revert(\"wrong order\") */\n      mload(0x40)\n      0x08c379a000000000000000000000000000000000000000000000000000000000\n      dup2\n      mstore\n      0x04\n      add\n      tag_277\n      swap1\n      tag_278\n      jump\t// in\n    tag_277:\n      mload(0x40)\n      dup1\n      swap2\n      sub\n      swap1\n      revert\n        /* \"src/OrderMatcherWrapper.sol\":7929:8089  if(keccak256(abi.encodePacked(orderFunctionType)) ==  keccak256(abi.encodePacked(\"MARKET_ORDER\"))){... */\n    tag_276:\n        /* \"src/OrderMatcherWrapper.sol\":7798:8089  if(keccak256(abi.encodePacked(orderFunctionType)) ==  keccak256(abi.encodePacked(\"CANCEL_ALL_ORDER\"))){... */\n    tag_271:\n        /* \"src/OrderMatcherWrapper.sol\":7654:8089  if(keccak256(abi.encodePacked(orderFunctionType))  == keccak256(abi.encodePacked(\"CANCEL_ORDER\"))){... */\n    tag_266:\n        /* \"src/OrderMatcherWrapper.sol\":7451:8089  if(keccak256(abi.encodePacked(orderFunctionType)) == keccak256(abi.encodePacked(\"LIMIT_ORDER\"))){... */\n    tag_261:\n        /* \"src/OrderMatcherWrapper.sol\":6737:8365  {... */\n      pop\n      pop\n      pop\n      pop\n      pop\n      pop\n      pop\n      pop\n      pop\n        /* \"src/OrderMatcherWrapper.sol\":6464:8365  function _lzReceive(... */\n      pop\n      pop\n      pop\n      pop\n      pop\n      pop\n      pop\n      jump\t// out\n        /* \"lib/openzeppelin-contracts/contracts/access/Ownable.sol\":1796:1958  function _checkOwner() internal view virtual {... */\n    tag_157:\n        /* \"lib/openzeppelin-contracts/contracts/access/Ownable.sol\":1866:1878  _msgSender() */\n      tag_280\n        /* \"lib/openzeppelin-contracts/contracts/access/Ownable.sol\":1866:1876  _msgSender */\n      tag_281\n        /* \"lib/openzeppelin-contracts/contracts/access/Ownable.sol\":1866:1878  _msgSender() */\n      jump\t// in\n    tag_280:\n        /* \"lib/openzeppelin-contracts/contracts/access/Ownable.sol\":1855:1878  owner() != _msgSender() */\n      0xffffffffffffffffffffffffffffffffffffffff\n      and\n        /* \"lib/openzeppelin-contracts/contracts/access/Ownable.sol\":1855:1862  owner() */\n      tag_282\n        /* \"lib/openzeppelin-contracts/contracts/access/Ownable.sol\":1855:1860  owner */\n      tag_95\n        /* \"lib/openzeppelin-contracts/contracts/access/Ownable.sol\":1855:1862  owner() */\n      jump\t// in\n    tag_282:\n        /* \"lib/openzeppelin-contracts/contracts/access/Ownable.sol\":1855:1878  owner() != _msgSender() */\n      0xffffffffffffffffffffffffffffffffffffffff\n      and\n      eq\n        /* \"lib/openzeppelin-contracts/contracts/access/Ownable.sol\":1851:1952  if (owner() != _msgSender()) {... */\n      tag_283\n      jumpi\n        /* \"lib/openzeppelin-contracts/contracts/access/Ownable.sol\":1928:1940  _msgSender() */\n      tag_284\n        /* \"lib/openzeppelin-contracts/contracts/access/Ownable.sol\":1928:1938  _msgSender */\n      tag_281\n        /* \"lib/openzeppelin-contracts/contracts/access/Ownable.sol\":1928:1940  _msgSender() */\n      jump\t// in\n    tag_284:\n        /* \"lib/openzeppelin-contracts/contracts/access/Ownable.sol\":1901:1941  OwnableUnauthorizedAccount(_msgSender()) */\n      mload(0x40)\n      0x118cdaa700000000000000000000000000000000000000000000000000000000\n      dup2\n      mstore\n      0x04\n      add\n      tag_285\n      swap2\n      swap1\n      tag_33\n      jump\t// in\n    tag_285:\n      mload(0x40)\n      dup1\n      swap2\n      sub\n      swap1\n      revert\n        /* \"lib/openzeppelin-contracts/contracts/access/Ownable.sol\":1851:1952  if (owner() != _msgSender()) {... */\n    tag_283:\n        /* \"lib/openzeppelin-contracts/contracts/access/Ownable.sol\":1796:1958  function _checkOwner() internal view virtual {... */\n      jump\t// out\n        /* \"lib/openzeppelin-contracts/contracts/access/Ownable.sol\":2912:3099  function _transferOwnership(address newOwner) internal virtual {... */\n    tag_191:\n        /* \"lib/openzeppelin-contracts/contracts/access/Ownable.sol\":2985:3001  address oldOwner */\n      0x00\n        /* \"lib/openzeppelin-contracts/contracts/access/Ownable.sol\":3004:3010  _owner */\n      dup1\n      0x00\n      swap1\n      sload\n      swap1\n      0x0100\n      exp\n      swap1\n      div\n      0xffffffffffffffffffffffffffffffffffffffff\n      and\n        /* \"lib/openzeppelin-contracts/contracts/access/Ownable.sol\":2985:3010  address oldOwner = _owner */\n      swap1\n      pop\n        /* \"lib/openzeppelin-contracts/contracts/access/Ownable.sol\":3029:3037  newOwner */\n      dup2\n        /* \"lib/openzeppelin-contracts/contracts/access/Ownable.sol\":3020:3026  _owner */\n      0x00\n      dup1\n        /* \"lib/openzeppelin-contracts/contracts/access/Ownable.sol\":3020:3037  _owner = newOwner */\n      0x0100\n      exp\n      dup2\n      sload\n      dup2\n      0xffffffffffffffffffffffffffffffffffffffff\n      mul\n      not\n      and\n      swap1\n      dup4\n      0xffffffffffffffffffffffffffffffffffffffff\n      and\n      mul\n      or\n      swap1\n      sstore\n      pop\n        /* \"lib/openzeppelin-contracts/contracts/access/Ownable.sol\":3083:3091  newOwner */\n      dup2\n        /* \"lib/openzeppelin-contracts/contracts/access/Ownable.sol\":3052:3092  OwnershipTransferred(oldOwner, newOwner) */\n      0xffffffffffffffffffffffffffffffffffffffff\n      and\n        /* \"lib/openzeppelin-contracts/contracts/access/Ownable.sol\":3073:3081  oldOwner */\n      dup2\n        /* \"lib/openzeppelin-contracts/contracts/access/Ownable.sol\":3052:3092  OwnershipTransferred(oldOwner, newOwner) */\n      0xffffffffffffffffffffffffffffffffffffffff\n      and\n      0x8be0079c531659141344cd1fd0a4f28419497f9722a3daafe3b4186f6b6457e0\n      mload(0x40)\n      mload(0x40)\n      dup1\n      swap2\n      sub\n      swap1\n      log3\n        /* \"lib/openzeppelin-contracts/contracts/access/Ownable.sol\":2975:3099  {... */\n      pop\n        /* \"lib/openzeppelin-contracts/contracts/access/Ownable.sol\":2912:3099  function _transferOwnership(address newOwner) internal virtual {... */\n      pop\n      jump\t// out\n        /* \"lib/openzeppelin-contracts/contracts/utils/Context.sol\":656:752  function _msgSender() internal view virtual returns (address) {... */\n    tag_281:\n        /* \"lib/openzeppelin-contracts/contracts/utils/Context.sol\":709:716  address */\n      0x00\n        /* \"lib/openzeppelin-contracts/contracts/utils/Context.sol\":735:745  msg.sender */\n      caller\n        /* \"lib/openzeppelin-contracts/contracts/utils/Context.sol\":728:745  return msg.sender */\n      swap1\n      pop\n        /* \"lib/openzeppelin-contracts/contracts/utils/Context.sol\":656:752  function _msgSender() internal view virtual returns (address) {... */\n      swap1\n      jump\t// out\n    tag_175:\n      mload(0x40)\n      dup1\n      0x0120\n      add\n      0x40\n      mstore\n      dup1\n      0x00\n      dup2\n      mstore\n      0x20\n      add\n      and(0xffffffffffffffffffffffffffffffffffffffff, 0x00)\n      dup2\n      mstore\n      0x20\n      add\n      0x00\n      dup2\n      mstore\n      0x20\n      add\n      and(0xffffffffffffffffffffffffffffffffffffffff, 0x00)\n      dup2\n      mstore\n      0x20\n      add\n      and(0xffffffffffffffffffffffffffffffffffffffff, 0x00)\n      dup2\n      mstore\n      0x20\n      add\n      0x00\n      dup2\n      mstore\n      0x20\n      add\n      0x00\n      dup2\n      mstore\n      0x20\n      add\n      iszero(iszero(0x00))\n      dup2\n      mstore\n      0x20\n      add\n      iszero(iszero(0x00))\n      dup2\n      mstore\n      pop\n      swap1\n      jump\t// out\n        /* \"#utility.yul\":7:133   */\n    tag_288:\n        /* \"#utility.yul\":44:51   */\n      0x00\n        /* \"#utility.yul\":84:126   */\n      0xffffffffffffffffffffffffffffffffffffffff\n        /* \"#utility.yul\":77:82   */\n      dup3\n        /* \"#utility.yul\":73:127   */\n      and\n        /* \"#utility.yul\":62:127   */\n      swap1\n      pop\n        /* \"#utility.yul\":7:133   */\n      swap2\n      swap1\n      pop\n      jump\t// out\n        /* \"#utility.yul\":139:235   */\n    tag_289:\n        /* \"#utility.yul\":176:183   */\n      0x00\n        /* \"#utility.yul\":205:229   */\n      tag_379\n        /* \"#utility.yul\":223:228   */\n      dup3\n        /* \"#utility.yul\":205:229   */\n      tag_288\n      jump\t// in\n    tag_379:\n        /* \"#utility.yul\":194:229   */\n      swap1\n      pop\n        /* \"#utility.yul\":139:235   */\n      swap2\n      swap1\n      pop\n      jump\t// out\n        /* \"#utility.yul\":241:359   */\n    tag_290:\n        /* \"#utility.yul\":328:352   */\n      tag_381\n        /* \"#utility.yul\":346:351   */\n      dup2\n        /* \"#utility.yul\":328:352   */\n      tag_289\n      jump\t// in\n    tag_381:\n        /* \"#utility.yul\":323:326   */\n      dup3\n        /* \"#utility.yul\":316:353   */\n      mstore\n        /* \"#utility.yul\":241:359   */\n      pop\n      pop\n      jump\t// out\n        /* \"#utility.yul\":365:587   */\n    tag_33:\n        /* \"#utility.yul\":458:462   */\n      0x00\n        /* \"#utility.yul\":496:498   */\n      0x20\n        /* \"#utility.yul\":485:494   */\n      dup3\n        /* \"#utility.yul\":481:499   */\n      add\n        /* \"#utility.yul\":473:499   */\n      swap1\n      pop\n        /* \"#utility.yul\":509:580   */\n      tag_383\n        /* \"#utility.yul\":577:578   */\n      0x00\n        /* \"#utility.yul\":566:575   */\n      dup4\n        /* \"#utility.yul\":562:579   */\n      add\n        /* \"#utility.yul\":553:559   */\n      dup5\n        /* \"#utility.yul\":509:580   */\n      tag_290\n      jump\t// in\n    tag_383:\n        /* \"#utility.yul\":365:587   */\n      swap3\n      swap2\n      pop\n      pop\n      jump\t// out\n        /* \"#utility.yul\":593:668   */\n    tag_291:\n        /* \"#utility.yul\":626:632   */\n      0x00\n        /* \"#utility.yul\":659:661   */\n      0x40\n        /* \"#utility.yul\":653:662   */\n      mload\n        /* \"#utility.yul\":643:662   */\n      swap1\n      pop\n        /* \"#utility.yul\":593:668   */\n      swap1\n      jump\t// out\n        /* \"#utility.yul\":674:791   */\n    tag_292:\n        /* \"#utility.yul\":783:784   */\n      0x00\n        /* \"#utility.yul\":780:781   */\n      dup1\n        /* \"#utility.yul\":773:785   */\n      revert\n        /* \"#utility.yul\":797:914   */\n    tag_293:\n        /* \"#utility.yul\":906:907   */\n      0x00\n        /* \"#utility.yul\":903:904   */\n      dup1\n        /* \"#utility.yul\":896:908   */\n      revert\n        /* \"#utility.yul\":920:1037   */\n    tag_294:\n        /* \"#utility.yul\":1029:1030   */\n      0x00\n        /* \"#utility.yul\":1026:1027   */\n      dup1\n        /* \"#utility.yul\":1019:1031   */\n      revert\n        /* \"#utility.yul\":1064:1293   */\n    tag_295:\n        /* \"#utility.yul\":1135:1140   */\n      0x00\n        /* \"#utility.yul\":1176:1178   */\n      0x60\n        /* \"#utility.yul\":1167:1173   */\n      dup3\n        /* \"#utility.yul\":1162:1165   */\n      dup5\n        /* \"#utility.yul\":1158:1174   */\n      sub\n        /* \"#utility.yul\":1154:1179   */\n      slt\n        /* \"#utility.yul\":1151:1263   */\n      iszero\n      tag_389\n      jumpi\n        /* \"#utility.yul\":1182:1261   */\n      tag_390\n      tag_294\n      jump\t// in\n    tag_390:\n        /* \"#utility.yul\":1151:1263   */\n    tag_389:\n        /* \"#utility.yul\":1281:1287   */\n      dup2\n        /* \"#utility.yul\":1272:1287   */\n      swap1\n      pop\n        /* \"#utility.yul\":1064:1293   */\n      swap3\n      swap2\n      pop\n      pop\n      jump\t// out\n        /* \"#utility.yul\":1299:1376   */\n    tag_296:\n        /* \"#utility.yul\":1336:1343   */\n      0x00\n        /* \"#utility.yul\":1365:1370   */\n      dup2\n        /* \"#utility.yul\":1354:1370   */\n      swap1\n      pop\n        /* \"#utility.yul\":1299:1376   */\n      swap2\n      swap1\n      pop\n      jump\t// out\n        /* \"#utility.yul\":1382:1504   */\n    tag_297:\n        /* \"#utility.yul\":1455:1479   */\n      tag_393\n        /* \"#utility.yul\":1473:1478   */\n      dup2\n        /* \"#utility.yul\":1455:1479   */\n      tag_296\n      jump\t// in\n    tag_393:\n        /* \"#utility.yul\":1448:1453   */\n      dup2\n        /* \"#utility.yul\":1445:1480   */\n      eq\n        /* \"#utility.yul\":1435:1498   */\n      tag_394\n      jumpi\n        /* \"#utility.yul\":1494:1495   */\n      0x00\n        /* \"#utility.yul\":1491:1492   */\n      dup1\n        /* \"#utility.yul\":1484:1496   */\n      revert\n        /* \"#utility.yul\":1435:1498   */\n    tag_394:\n        /* \"#utility.yul\":1382:1504   */\n      pop\n      jump\t// out\n        /* \"#utility.yul\":1510:1649   */\n    tag_298:\n        /* \"#utility.yul\":1556:1561   */\n      0x00\n        /* \"#utility.yul\":1594:1600   */\n      dup2\n        /* \"#utility.yul\":1581:1601   */\n      calldataload\n        /* \"#utility.yul\":1572:1601   */\n      swap1\n      pop\n        /* \"#utility.yul\":1610:1643   */\n      tag_396\n        /* \"#utility.yul\":1637:1642   */\n      dup2\n        /* \"#utility.yul\":1610:1643   */\n      tag_297\n      jump\t// in\n    tag_396:\n        /* \"#utility.yul\":1510:1649   */\n      swap3\n      swap2\n      pop\n      pop\n      jump\t// out\n        /* \"#utility.yul\":1655:1772   */\n    tag_299:\n        /* \"#utility.yul\":1764:1765   */\n      0x00\n        /* \"#utility.yul\":1761:1762   */\n      dup1\n        /* \"#utility.yul\":1754:1766   */\n      revert\n        /* \"#utility.yul\":1778:1895   */\n    tag_300:\n        /* \"#utility.yul\":1887:1888   */\n      0x00\n        /* \"#utility.yul\":1884:1885   */\n      dup1\n        /* \"#utility.yul\":1877:1889   */\n      revert\n        /* \"#utility.yul\":1901:2018   */\n    tag_301:\n        /* \"#utility.yul\":2010:2011   */\n      0x00\n        /* \"#utility.yul\":2007:2008   */\n      dup1\n        /* \"#utility.yul\":2000:2012   */\n      revert\n        /* \"#utility.yul\":2037:2589   */\n    tag_302:\n        /* \"#utility.yul\":2094:2102   */\n      0x00\n        /* \"#utility.yul\":2104:2110   */\n      dup1\n        /* \"#utility.yul\":2154:2157   */\n      dup4\n        /* \"#utility.yul\":2147:2151   */\n      0x1f\n        /* \"#utility.yul\":2139:2145   */\n      dup5\n        /* \"#utility.yul\":2135:2152   */\n      add\n        /* \"#utility.yul\":2131:2158   */\n      slt\n        /* \"#utility.yul\":2121:2243   */\n      tag_401\n      jumpi\n        /* \"#utility.yul\":2162:2241   */\n      tag_402\n      tag_299\n      jump\t// in\n    tag_402:\n        /* \"#utility.yul\":2121:2243   */\n    tag_401:\n        /* \"#utility.yul\":2275:2281   */\n      dup3\n        /* \"#utility.yul\":2262:2282   */\n      calldataload\n        /* \"#utility.yul\":2252:2282   */\n      swap1\n      pop\n        /* \"#utility.yul\":2305:2323   */\n      0xffffffffffffffff\n        /* \"#utility.yul\":2297:2303   */\n      dup2\n        /* \"#utility.yul\":2294:2324   */\n      gt\n        /* \"#utility.yul\":2291:2408   */\n      iszero\n      tag_403\n      jumpi\n        /* \"#utility.yul\":2327:2406   */\n      tag_404\n      tag_300\n      jump\t// in\n    tag_404:\n        /* \"#utility.yul\":2291:2408   */\n    tag_403:\n        /* \"#utility.yul\":2441:2445   */\n      0x20\n        /* \"#utility.yul\":2433:2439   */\n      dup4\n        /* \"#utility.yul\":2429:2446   */\n      add\n        /* \"#utility.yul\":2417:2446   */\n      swap2\n      pop\n        /* \"#utility.yul\":2495:2498   */\n      dup4\n        /* \"#utility.yul\":2487:2491   */\n      0x01\n        /* \"#utility.yul\":2479:2485   */\n      dup3\n        /* \"#utility.yul\":2475:2492   */\n      mul\n        /* \"#utility.yul\":2465:2473   */\n      dup4\n        /* \"#utility.yul\":2461:2493   */\n      add\n        /* \"#utility.yul\":2458:2499   */\n      gt\n        /* \"#utility.yul\":2455:2583   */\n      iszero\n      tag_405\n      jumpi\n        /* \"#utility.yul\":2502:2581   */\n      tag_406\n      tag_301\n      jump\t// in\n    tag_406:\n        /* \"#utility.yul\":2455:2583   */\n    tag_405:\n        /* \"#utility.yul\":2037:2589   */\n      swap3\n      pop\n      swap3\n      swap1\n      pop\n      jump\t// out\n        /* \"#utility.yul\":2595:2717   */\n    tag_303:\n        /* \"#utility.yul\":2668:2692   */\n      tag_408\n        /* \"#utility.yul\":2686:2691   */\n      dup2\n        /* \"#utility.yul\":2668:2692   */\n      tag_289\n      jump\t// in\n    tag_408:\n        /* \"#utility.yul\":2661:2666   */\n      dup2\n        /* \"#utility.yul\":2658:2693   */\n      eq\n        /* \"#utility.yul\":2648:2711   */\n      tag_409\n      jumpi\n        /* \"#utility.yul\":2707:2708   */\n      0x00\n        /* \"#utility.yul\":2704:2705   */\n      dup1\n        /* \"#utility.yul\":2697:2709   */\n      revert\n        /* \"#utility.yul\":2648:2711   */\n    tag_409:\n        /* \"#utility.yul\":2595:2717   */\n      pop\n      jump\t// out\n        /* \"#utility.yul\":2723:2862   */\n    tag_304:\n        /* \"#utility.yul\":2769:2774   */\n      0x00\n        /* \"#utility.yul\":2807:2813   */\n      dup2\n        /* \"#utility.yul\":2794:2814   */\n      calldataload\n        /* \"#utility.yul\":2785:2814   */\n      swap1\n      pop\n        /* \"#utility.yul\":2823:2856   */\n      tag_411\n        /* \"#utility.yul\":2850:2855   */\n      dup2\n        /* \"#utility.yul\":2823:2856   */\n      tag_303\n      jump\t// in\n    tag_411:\n        /* \"#utility.yul\":2723:2862   */\n      swap3\n      swap2\n      pop\n      pop\n      jump\t// out\n        /* \"#utility.yul\":2868:4227   */\n    tag_36:\n        /* \"#utility.yul\":3010:3016   */\n      0x00\n        /* \"#utility.yul\":3018:3024   */\n      dup1\n        /* \"#utility.yul\":3026:3032   */\n      0x00\n        /* \"#utility.yul\":3034:3040   */\n      dup1\n        /* \"#utility.yul\":3042:3048   */\n      0x00\n        /* \"#utility.yul\":3050:3056   */\n      dup1\n        /* \"#utility.yul\":3058:3064   */\n      0x00\n        /* \"#utility.yul\":3107:3110   */\n      0xe0\n        /* \"#utility.yul\":3095:3104   */\n      dup9\n        /* \"#utility.yul\":3086:3093   */\n      dup11\n        /* \"#utility.yul\":3082:3105   */\n      sub\n        /* \"#utility.yul\":3078:3111   */\n      slt\n        /* \"#utility.yul\":3075:3195   */\n      iszero\n      tag_413\n      jumpi\n        /* \"#utility.yul\":3114:3193   */\n      tag_414\n      tag_292\n      jump\t// in\n    tag_414:\n        /* \"#utility.yul\":3075:3195   */\n    tag_413:\n        /* \"#utility.yul\":3234:3235   */\n      0x00\n        /* \"#utility.yul\":3259:3337   */\n      tag_415\n        /* \"#utility.yul\":3329:3336   */\n      dup11\n        /* \"#utility.yul\":3320:3326   */\n      dup3\n        /* \"#utility.yul\":3309:3318   */\n      dup12\n        /* \"#utility.yul\":3305:3327   */\n      add\n        /* \"#utility.yul\":3259:3337   */\n      tag_295\n      jump\t// in\n    tag_415:\n        /* \"#utility.yul\":3249:3337   */\n      swap8\n      pop\n        /* \"#utility.yul\":3205:3347   */\n      pop\n        /* \"#utility.yul\":3386:3388   */\n      0x60\n        /* \"#utility.yul\":3412:3465   */\n      tag_416\n        /* \"#utility.yul\":3457:3464   */\n      dup11\n        /* \"#utility.yul\":3448:3454   */\n      dup3\n        /* \"#utility.yul\":3437:3446   */\n      dup12\n        /* \"#utility.yul\":3433:3455   */\n      add\n        /* \"#utility.yul\":3412:3465   */\n      tag_298\n      jump\t// in\n    tag_416:\n        /* \"#utility.yul\":3402:3465   */\n      swap7\n      pop\n        /* \"#utility.yul\":3357:3475   */\n      pop\n        /* \"#utility.yul\":3542:3545   */\n      0x80\n        /* \"#utility.yul\":3531:3540   */\n      dup9\n        /* \"#utility.yul\":3527:3546   */\n      add\n        /* \"#utility.yul\":3514:3547   */\n      calldataload\n        /* \"#utility.yul\":3574:3592   */\n      0xffffffffffffffff\n        /* \"#utility.yul\":3566:3572   */\n      dup2\n        /* \"#utility.yul\":3563:3593   */\n      gt\n        /* \"#utility.yul\":3560:3677   */\n      iszero\n      tag_417\n      jumpi\n        /* \"#utility.yul\":3596:3675   */\n      tag_418\n      tag_293\n      jump\t// in\n    tag_418:\n        /* \"#utility.yul\":3560:3677   */\n    tag_417:\n        /* \"#utility.yul\":3709:3773   */\n      tag_419\n        /* \"#utility.yul\":3765:3772   */\n      dup11\n        /* \"#utility.yul\":3756:3762   */\n      dup3\n        /* \"#utility.yul\":3745:3754   */\n      dup12\n        /* \"#utility.yul\":3741:3763   */\n      add\n        /* \"#utility.yul\":3709:3773   */\n      tag_302\n      jump\t// in\n    tag_419:\n        /* \"#utility.yul\":3691:3773   */\n      swap6\n      pop\n      swap6\n      pop\n        /* \"#utility.yul\":3485:3783   */\n      pop\n        /* \"#utility.yul\":3822:3825   */\n      0xa0\n        /* \"#utility.yul\":3849:3902   */\n      tag_420\n        /* \"#utility.yul\":3894:3901   */\n      dup11\n        /* \"#utility.yul\":3885:3891   */\n      dup3\n        /* \"#utility.yul\":3874:3883   */\n      dup12\n        /* \"#utility.yul\":3870:3892   */\n      add\n        /* \"#utility.yul\":3849:3902   */\n      tag_304\n      jump\t// in\n    tag_420:\n        /* \"#utility.yul\":3839:3902   */\n      swap4\n      pop\n        /* \"#utility.yul\":3793:3912   */\n      pop\n        /* \"#utility.yul\":3979:3982   */\n      0xc0\n        /* \"#utility.yul\":3968:3977   */\n      dup9\n        /* \"#utility.yul\":3964:3983   */\n      add\n        /* \"#utility.yul\":3951:3984   */\n      calldataload\n        /* \"#utility.yul\":4011:4029   */\n      0xffffffffffffffff\n        /* \"#utility.yul\":4003:4009   */\n      dup2\n        /* \"#utility.yul\":4000:4030   */\n      gt\n        /* \"#utility.yul\":3997:4114   */\n      iszero\n      tag_421\n      jumpi\n        /* \"#utility.yul\":4033:4112   */\n      tag_422\n      tag_293\n      jump\t// in\n    tag_422:\n        /* \"#utility.yul\":3997:4114   */\n    tag_421:\n        /* \"#utility.yul\":4146:4210   */\n      tag_423\n        /* \"#utility.yul\":4202:4209   */\n      dup11\n        /* \"#utility.yul\":4193:4199   */\n      dup3\n        /* \"#utility.yul\":4182:4191   */\n      dup12\n        /* \"#utility.yul\":4178:4200   */\n      add\n        /* \"#utility.yul\":4146:4210   */\n      tag_302\n      jump\t// in\n    tag_423:\n        /* \"#utility.yul\":4128:4210   */\n      swap3\n      pop\n      swap3\n      pop\n        /* \"#utility.yul\":3922:4220   */\n      pop\n        /* \"#utility.yul\":2868:4227   */\n      swap3\n      swap6\n      swap9\n      swap2\n      swap5\n      swap8\n      pop\n      swap3\n      swap6\n      pop\n      jump\t// out\n        /* \"#utility.yul\":4233:4334   */\n    tag_305:\n        /* \"#utility.yul\":4269:4276   */\n      0x00\n        /* \"#utility.yul\":4309:4327   */\n      0xffffffffffffffff\n        /* \"#utility.yul\":4302:4307   */\n      dup3\n        /* \"#utility.yul\":4298:4328   */\n      and\n        /* \"#utility.yul\":4287:4328   */\n      swap1\n      pop\n        /* \"#utility.yul\":4233:4334   */\n      swap2\n      swap1\n      pop\n      jump\t// out\n        /* \"#utility.yul\":4340:4455   */\n    tag_306:\n        /* \"#utility.yul\":4425:4448   */\n      tag_426\n        /* \"#utility.yul\":4442:4447   */\n      dup2\n        /* \"#utility.yul\":4425:4448   */\n      tag_305\n      jump\t// in\n    tag_426:\n        /* \"#utility.yul\":4420:4423   */\n      dup3\n        /* \"#utility.yul\":4413:4449   */\n      mstore\n        /* \"#utility.yul\":4340:4455   */\n      pop\n      pop\n      jump\t// out\n        /* \"#utility.yul\":4461:4785   */\n    tag_42:\n        /* \"#utility.yul\":4578:4582   */\n      0x00\n        /* \"#utility.yul\":4616:4618   */\n      0x40\n        /* \"#utility.yul\":4605:4614   */\n      dup3\n        /* \"#utility.yul\":4601:4619   */\n      add\n        /* \"#utility.yul\":4593:4619   */\n      swap1\n      pop\n        /* \"#utility.yul\":4629:4698   */\n      tag_428\n        /* \"#utility.yul\":4695:4696   */\n      0x00\n        /* \"#utility.yul\":4684:4693   */\n      dup4\n        /* \"#utility.yul\":4680:4697   */\n      add\n        /* \"#utility.yul\":4671:4677   */\n      dup6\n        /* \"#utility.yul\":4629:4698   */\n      tag_306\n      jump\t// in\n    tag_428:\n        /* \"#utility.yul\":4708:4778   */\n      tag_429\n        /* \"#utility.yul\":4774:4776   */\n      0x20\n        /* \"#utility.yul\":4763:4772   */\n      dup4\n        /* \"#utility.yul\":4759:4777   */\n      add\n        /* \"#utility.yul\":4750:4756   */\n      dup5\n        /* \"#utility.yul\":4708:4778   */\n      tag_306\n      jump\t// in\n    tag_429:\n        /* \"#utility.yul\":4461:4785   */\n      swap4\n      swap3\n      pop\n      pop\n      pop\n      jump\t// out\n        /* \"#utility.yul\":4791:4881   */\n    tag_307:\n        /* \"#utility.yul\":4825:4832   */\n      0x00\n        /* \"#utility.yul\":4868:4873   */\n      dup2\n        /* \"#utility.yul\":4861:4874   */\n      iszero\n        /* \"#utility.yul\":4854:4875   */\n      iszero\n        /* \"#utility.yul\":4843:4875   */\n      swap1\n      pop\n        /* \"#utility.yul\":4791:4881   */\n      swap2\n      swap1\n      pop\n      jump\t// out\n        /* \"#utility.yul\":4887:4996   */\n    tag_308:\n        /* \"#utility.yul\":4968:4989   */\n      tag_432\n        /* \"#utility.yul\":4983:4988   */\n      dup2\n        /* \"#utility.yul\":4968:4989   */\n      tag_307\n      jump\t// in\n    tag_432:\n        /* \"#utility.yul\":4963:4966   */\n      dup3\n        /* \"#utility.yul\":4956:4990   */\n      mstore\n        /* \"#utility.yul\":4887:4996   */\n      pop\n      pop\n      jump\t// out\n        /* \"#utility.yul\":5002:5212   */\n    tag_47:\n        /* \"#utility.yul\":5089:5093   */\n      0x00\n        /* \"#utility.yul\":5127:5129   */\n      0x20\n        /* \"#utility.yul\":5116:5125   */\n      dup3\n        /* \"#utility.yul\":5112:5130   */\n      add\n        /* \"#utility.yul\":5104:5130   */\n      swap1\n      pop\n        /* \"#utility.yul\":5140:5205   */\n      tag_434\n        /* \"#utility.yul\":5202:5203   */\n      0x00\n        /* \"#utility.yul\":5191:5200   */\n      dup4\n        /* \"#utility.yul\":5187:5204   */\n      add\n        /* \"#utility.yul\":5178:5184   */\n      dup5\n        /* \"#utility.yul\":5140:5205   */\n      tag_308\n      jump\t// in\n    tag_434:\n        /* \"#utility.yul\":5002:5212   */\n      swap3\n      swap2\n      pop\n      pop\n      jump\t// out\n        /* \"#utility.yul\":5218:5311   */\n    tag_309:\n        /* \"#utility.yul\":5254:5261   */\n      0x00\n        /* \"#utility.yul\":5294:5304   */\n      0xffffffff\n        /* \"#utility.yul\":5287:5292   */\n      dup3\n        /* \"#utility.yul\":5283:5305   */\n      and\n        /* \"#utility.yul\":5272:5305   */\n      swap1\n      pop\n        /* \"#utility.yul\":5218:5311   */\n      swap2\n      swap1\n      pop\n      jump\t// out\n        /* \"#utility.yul\":5317:5437   */\n    tag_310:\n        /* \"#utility.yul\":5389:5412   */\n      tag_437\n        /* \"#utility.yul\":5406:5411   */\n      dup2\n        /* \"#utility.yul\":5389:5412   */\n      tag_309\n      jump\t// in\n    tag_437:\n        /* \"#utility.yul\":5382:5387   */\n      dup2\n        /* \"#utility.yul\":5379:5413   */\n      eq\n        /* \"#utility.yul\":5369:5431   */\n      tag_438\n      jumpi\n        /* \"#utility.yul\":5427:5428   */\n      0x00\n        /* \"#utility.yul\":5424:5425   */\n      dup1\n        /* \"#utility.yul\":5417:5429   */\n      revert\n        /* \"#utility.yul\":5369:5431   */\n    tag_438:\n        /* \"#utility.yul\":5317:5437   */\n      pop\n      jump\t// out\n        /* \"#utility.yul\":5443:5580   */\n    tag_311:\n        /* \"#utility.yul\":5488:5493   */\n      0x00\n        /* \"#utility.yul\":5526:5532   */\n      dup2\n        /* \"#utility.yul\":5513:5533   */\n      calldataload\n        /* \"#utility.yul\":5504:5533   */\n      swap1\n      pop\n        /* \"#utility.yul\":5542:5574   */\n      tag_440\n        /* \"#utility.yul\":5568:5573   */\n      dup2\n        /* \"#utility.yul\":5542:5574   */\n      tag_310\n      jump\t// in\n    tag_440:\n        /* \"#utility.yul\":5443:5580   */\n      swap3\n      swap2\n      pop\n      pop\n      jump\t// out\n        /* \"#utility.yul\":5586:6058   */\n    tag_51:\n        /* \"#utility.yul\":5653:5659   */\n      0x00\n        /* \"#utility.yul\":5661:5667   */\n      dup1\n        /* \"#utility.yul\":5710:5712   */\n      0x40\n        /* \"#utility.yul\":5698:5707   */\n      dup4\n        /* \"#utility.yul\":5689:5696   */\n      dup6\n        /* \"#utility.yul\":5685:5708   */\n      sub\n        /* \"#utility.yul\":5681:5713   */\n      slt\n        /* \"#utility.yul\":5678:5797   */\n      iszero\n      tag_442\n      jumpi\n        /* \"#utility.yul\":5716:5795   */\n      tag_443\n      tag_292\n      jump\t// in\n    tag_443:\n        /* \"#utility.yul\":5678:5797   */\n    tag_442:\n        /* \"#utility.yul\":5836:5837   */\n      0x00\n        /* \"#utility.yul\":5861:5913   */\n      tag_444\n        /* \"#utility.yul\":5905:5912   */\n      dup6\n        /* \"#utility.yul\":5896:5902   */\n      dup3\n        /* \"#utility.yul\":5885:5894   */\n      dup7\n        /* \"#utility.yul\":5881:5903   */\n      add\n        /* \"#utility.yul\":5861:5913   */\n      tag_311\n      jump\t// in\n    tag_444:\n        /* \"#utility.yul\":5851:5913   */\n      swap3\n      pop\n        /* \"#utility.yul\":5807:5923   */\n      pop\n        /* \"#utility.yul\":5962:5964   */\n      0x20\n        /* \"#utility.yul\":5988:6041   */\n      tag_445\n        /* \"#utility.yul\":6033:6040   */\n      dup6\n        /* \"#utility.yul\":6024:6030   */\n      dup3\n        /* \"#utility.yul\":6013:6022   */\n      dup7\n        /* \"#utility.yul\":6009:6031   */\n      add\n        /* \"#utility.yul\":5988:6041   */\n      tag_298\n      jump\t// in\n    tag_445:\n        /* \"#utility.yul\":5978:6041   */\n      swap2\n      pop\n        /* \"#utility.yul\":5933:6051   */\n      pop\n        /* \"#utility.yul\":5586:6058   */\n      swap3\n      pop\n      swap3\n      swap1\n      pop\n      jump\t// out\n        /* \"#utility.yul\":6064:6141   */\n    tag_312:\n        /* \"#utility.yul\":6101:6108   */\n      0x00\n        /* \"#utility.yul\":6130:6135   */\n      dup2\n        /* \"#utility.yul\":6119:6135   */\n      swap1\n      pop\n        /* \"#utility.yul\":6064:6141   */\n      swap2\n      swap1\n      pop\n      jump\t// out\n        /* \"#utility.yul\":6147:6269   */\n    tag_313:\n        /* \"#utility.yul\":6220:6244   */\n      tag_448\n        /* \"#utility.yul\":6238:6243   */\n      dup2\n        /* \"#utility.yul\":6220:6244   */\n      tag_312\n      jump\t// in\n    tag_448:\n        /* \"#utility.yul\":6213:6218   */\n      dup2\n        /* \"#utility.yul\":6210:6245   */\n      eq\n        /* \"#utility.yul\":6200:6263   */\n      tag_449\n      jumpi\n        /* \"#utility.yul\":6259:6260   */\n      0x00\n        /* \"#utility.yul\":6256:6257   */\n      dup1\n        /* \"#utility.yul\":6249:6261   */\n      revert\n        /* \"#utility.yul\":6200:6263   */\n    tag_449:\n        /* \"#utility.yul\":6147:6269   */\n      pop\n      jump\t// out\n        /* \"#utility.yul\":6275:6414   */\n    tag_314:\n        /* \"#utility.yul\":6321:6326   */\n      0x00\n        /* \"#utility.yul\":6359:6365   */\n      dup2\n        /* \"#utility.yul\":6346:6366   */\n      calldataload\n        /* \"#utility.yul\":6337:6366   */\n      swap1\n      pop\n        /* \"#utility.yul\":6375:6408   */\n      tag_451\n        /* \"#utility.yul\":6402:6407   */\n      dup2\n        /* \"#utility.yul\":6375:6408   */\n      tag_313\n      jump\t// in\n    tag_451:\n        /* \"#utility.yul\":6275:6414   */\n      swap3\n      swap2\n      pop\n      pop\n      jump\t// out\n        /* \"#utility.yul\":6420:7621   */\n    tag_55:\n        /* \"#utility.yul\":6532:6538   */\n      0x00\n        /* \"#utility.yul\":6540:6546   */\n      dup1\n        /* \"#utility.yul\":6548:6554   */\n      0x00\n        /* \"#utility.yul\":6556:6562   */\n      dup1\n        /* \"#utility.yul\":6564:6570   */\n      0x00\n        /* \"#utility.yul\":6572:6578   */\n      dup1\n        /* \"#utility.yul\":6580:6586   */\n      0x00\n        /* \"#utility.yul\":6629:6632   */\n      0xe0\n        /* \"#utility.yul\":6617:6626   */\n      dup9\n        /* \"#utility.yul\":6608:6615   */\n      dup11\n        /* \"#utility.yul\":6604:6627   */\n      sub\n        /* \"#utility.yul\":6600:6633   */\n      slt\n        /* \"#utility.yul\":6597:6717   */\n      iszero\n      tag_453\n      jumpi\n        /* \"#utility.yul\":6636:6715   */\n      tag_454\n      tag_292\n      jump\t// in\n    tag_454:\n        /* \"#utility.yul\":6597:6717   */\n    tag_453:\n        /* \"#utility.yul\":6756:6757   */\n      0x00\n        /* \"#utility.yul\":6781:6834   */\n      tag_455\n        /* \"#utility.yul\":6826:6833   */\n      dup11\n        /* \"#utility.yul\":6817:6823   */\n      dup3\n        /* \"#utility.yul\":6806:6815   */\n      dup12\n        /* \"#utility.yul\":6802:6824   */\n      add\n        /* \"#utility.yul\":6781:6834   */\n      tag_314\n      jump\t// in\n    tag_455:\n        /* \"#utility.yul\":6771:6834   */\n      swap8\n      pop\n        /* \"#utility.yul\":6727:6844   */\n      pop\n        /* \"#utility.yul\":6883:6885   */\n      0x20\n        /* \"#utility.yul\":6909:6962   */\n      tag_456\n        /* \"#utility.yul\":6954:6961   */\n      dup11\n        /* \"#utility.yul\":6945:6951   */\n      dup3\n        /* \"#utility.yul\":6934:6943   */\n      dup12\n        /* \"#utility.yul\":6930:6952   */\n      add\n        /* \"#utility.yul\":6909:6962   */\n      tag_304\n      jump\t// in\n    tag_456:\n        /* \"#utility.yul\":6899:6962   */\n      swap7\n      pop\n        /* \"#utility.yul\":6854:6972   */\n      pop\n        /* \"#utility.yul\":7011:7013   */\n      0x40\n        /* \"#utility.yul\":7037:7090   */\n      tag_457\n        /* \"#utility.yul\":7082:7089   */\n      dup11\n        /* \"#utility.yul\":7073:7079   */\n      dup3\n        /* \"#utility.yul\":7062:7071   */\n      dup12\n        /* \"#utility.yul\":7058:7080   */\n      add\n        /* \"#utility.yul\":7037:7090   */\n      tag_304\n      jump\t// in\n    tag_457:\n        /* \"#utility.yul\":7027:7090   */\n      swap6\n      pop\n        /* \"#utility.yul\":6982:7100   */\n      pop\n        /* \"#utility.yul\":7139:7141   */\n      0x60\n        /* \"#utility.yul\":7165:7218   */\n      tag_458\n        /* \"#utility.yul\":7210:7217   */\n      dup11\n        /* \"#utility.yul\":7201:7207   */\n      dup3\n        /* \"#utility.yul\":7190:7199   */\n      dup12\n        /* \"#utility.yul\":7186:7208   */\n      add\n        /* \"#utility.yul\":7165:7218   */\n      tag_314\n      jump\t// in\n    tag_458:\n        /* \"#utility.yul\":7155:7218   */\n      swap5\n      pop\n        /* \"#utility.yul\":7110:7228   */\n      pop\n        /* \"#utility.yul\":7267:7270   */\n      0x80\n        /* \"#utility.yul\":7294:7347   */\n      tag_459\n        /* \"#utility.yul\":7339:7346   */\n      dup11\n        /* \"#utility.yul\":7330:7336   */\n      dup3\n        /* \"#utility.yul\":7319:7328   */\n      dup12\n        /* \"#utility.yul\":7315:7337   */\n      add\n        /* \"#utility.yul\":7294:7347   */\n      tag_314\n      jump\t// in\n    tag_459:\n        /* \"#utility.yul\":7284:7347   */\n      swap4\n      pop\n        /* \"#utility.yul\":7238:7357   */\n      pop\n        /* \"#utility.yul\":7396:7399   */\n      0xa0\n        /* \"#utility.yul\":7423:7476   */\n      tag_460\n        /* \"#utility.yul\":7468:7475   */\n      dup11\n        /* \"#utility.yul\":7459:7465   */\n      dup3\n        /* \"#utility.yul\":7448:7457   */\n      dup12\n        /* \"#utility.yul\":7444:7466   */\n      add\n        /* \"#utility.yul\":7423:7476   */\n      tag_304\n      jump\t// in\n    tag_460:\n        /* \"#utility.yul\":7413:7476   */\n      swap3\n      pop\n        /* \"#utility.yul\":7367:7486   */\n      pop\n        /* \"#utility.yul\":7525:7528   */\n      0xc0\n        /* \"#utility.yul\":7552:7604   */\n      tag_461\n        /* \"#utility.yul\":7596:7603   */\n      dup11\n        /* \"#utility.yul\":7587:7593   */\n      dup3\n        /* \"#utility.yul\":7576:7585   */\n      dup12\n        /* \"#utility.yul\":7572:7594   */\n      add\n        /* \"#utility.yul\":7552:7604   */\n      tag_311\n      jump\t// in\n    tag_461:\n        /* \"#utility.yul\":7542:7604   */\n      swap2\n      pop\n        /* \"#utility.yul\":7496:7614   */\n      pop\n        /* \"#utility.yul\":6420:7621   */\n      swap3\n      swap6\n      swap9\n      swap2\n      swap5\n      swap8\n      pop\n      swap3\n      swap6\n      pop\n      jump\t// out\n        /* \"#utility.yul\":7627:7745   */\n    tag_315:\n        /* \"#utility.yul\":7714:7738   */\n      tag_463\n        /* \"#utility.yul\":7732:7737   */\n      dup2\n        /* \"#utility.yul\":7714:7738   */\n      tag_312\n      jump\t// in\n    tag_463:\n        /* \"#utility.yul\":7709:7712   */\n      dup3\n        /* \"#utility.yul\":7702:7739   */\n      mstore\n        /* \"#utility.yul\":7627:7745   */\n      pop\n      pop\n      jump\t// out\n        /* \"#utility.yul\":7751:7973   */\n    tag_61:\n        /* \"#utility.yul\":7844:7848   */\n      0x00\n        /* \"#utility.yul\":7882:7884   */\n      0x20\n        /* \"#utility.yul\":7871:7880   */\n      dup3\n        /* \"#utility.yul\":7867:7885   */\n      add\n        /* \"#utility.yul\":7859:7885   */\n      swap1\n      pop\n        /* \"#utility.yul\":7895:7966   */\n      tag_465\n        /* \"#utility.yul\":7963:7964   */\n      0x00\n        /* \"#utility.yul\":7952:7961   */\n      dup4\n        /* \"#utility.yul\":7948:7965   */\n      add\n        /* \"#utility.yul\":7939:7945   */\n      dup5\n        /* \"#utility.yul\":7895:7966   */\n      tag_315\n      jump\t// in\n    tag_465:\n        /* \"#utility.yul\":7751:7973   */\n      swap3\n      swap2\n      pop\n      pop\n      jump\t// out\n        /* \"#utility.yul\":7979:8039   */\n    tag_316:\n        /* \"#utility.yul\":8007:8010   */\n      0x00\n        /* \"#utility.yul\":8028:8033   */\n      dup2\n        /* \"#utility.yul\":8021:8033   */\n      swap1\n      pop\n        /* \"#utility.yul\":7979:8039   */\n      swap2\n      swap1\n      pop\n      jump\t// out\n        /* \"#utility.yul\":8045:8187   */\n    tag_317:\n        /* \"#utility.yul\":8095:8104   */\n      0x00\n        /* \"#utility.yul\":8128:8181   */\n      tag_468\n        /* \"#utility.yul\":8146:8180   */\n      tag_469\n        /* \"#utility.yul\":8155:8179   */\n      tag_470\n        /* \"#utility.yul\":8173:8178   */\n      dup5\n        /* \"#utility.yul\":8155:8179   */\n      tag_288\n      jump\t// in\n    tag_470:\n        /* \"#utility.yul\":8146:8180   */\n      tag_316\n      jump\t// in\n    tag_469:\n        /* \"#utility.yul\":8128:8181   */\n      tag_288\n      jump\t// in\n    tag_468:\n        /* \"#utility.yul\":8115:8181   */\n      swap1\n      pop\n        /* \"#utility.yul\":8045:8187   */\n      swap2\n      swap1\n      pop\n      jump\t// out\n        /* \"#utility.yul\":8193:8319   */\n    tag_318:\n        /* \"#utility.yul\":8243:8252   */\n      0x00\n        /* \"#utility.yul\":8276:8313   */\n      tag_472\n        /* \"#utility.yul\":8307:8312   */\n      dup3\n        /* \"#utility.yul\":8276:8313   */\n      tag_317\n      jump\t// in\n    tag_472:\n        /* \"#utility.yul\":8263:8313   */\n      swap1\n      pop\n        /* \"#utility.yul\":8193:8319   */\n      swap2\n      swap1\n      pop\n      jump\t// out\n        /* \"#utility.yul\":8325:8479   */\n    tag_319:\n        /* \"#utility.yul\":8403:8412   */\n      0x00\n        /* \"#utility.yul\":8436:8473   */\n      tag_474\n        /* \"#utility.yul\":8467:8472   */\n      dup3\n        /* \"#utility.yul\":8436:8473   */\n      tag_318\n      jump\t// in\n    tag_474:\n        /* \"#utility.yul\":8423:8473   */\n      swap1\n      pop\n        /* \"#utility.yul\":8325:8479   */\n      swap2\n      swap1\n      pop\n      jump\t// out\n        /* \"#utility.yul\":8485:8672   */\n    tag_320:\n        /* \"#utility.yul\":8600:8665   */\n      tag_476\n        /* \"#utility.yul\":8659:8664   */\n      dup2\n        /* \"#utility.yul\":8600:8665   */\n      tag_319\n      jump\t// in\n    tag_476:\n        /* \"#utility.yul\":8595:8598   */\n      dup3\n        /* \"#utility.yul\":8588:8666   */\n      mstore\n        /* \"#utility.yul\":8485:8672   */\n      pop\n      pop\n      jump\t// out\n        /* \"#utility.yul\":8678:8956   */\n    tag_66:\n        /* \"#utility.yul\":8799:8803   */\n      0x00\n        /* \"#utility.yul\":8837:8839   */\n      0x20\n        /* \"#utility.yul\":8826:8835   */\n      dup3\n        /* \"#utility.yul\":8822:8840   */\n      add\n        /* \"#utility.yul\":8814:8840   */\n      swap1\n      pop\n        /* \"#utility.yul\":8850:8949   */\n      tag_478\n        /* \"#utility.yul\":8946:8947   */\n      0x00\n        /* \"#utility.yul\":8935:8944   */\n      dup4\n        /* \"#utility.yul\":8931:8948   */\n      add\n        /* \"#utility.yul\":8922:8928   */\n      dup5\n        /* \"#utility.yul\":8850:8949   */\n      tag_320\n      jump\t// in\n    tag_478:\n        /* \"#utility.yul\":8678:8956   */\n      swap3\n      swap2\n      pop\n      pop\n      jump\t// out\n        /* \"#utility.yul\":8962:9291   */\n    tag_70:\n        /* \"#utility.yul\":9021:9027   */\n      0x00\n        /* \"#utility.yul\":9070:9072   */\n      0x20\n        /* \"#utility.yul\":9058:9067   */\n      dup3\n        /* \"#utility.yul\":9049:9056   */\n      dup5\n        /* \"#utility.yul\":9045:9068   */\n      sub\n        /* \"#utility.yul\":9041:9073   */\n      slt\n        /* \"#utility.yul\":9038:9157   */\n      iszero\n      tag_480\n      jumpi\n        /* \"#utility.yul\":9076:9155   */\n      tag_481\n      tag_292\n      jump\t// in\n    tag_481:\n        /* \"#utility.yul\":9038:9157   */\n    tag_480:\n        /* \"#utility.yul\":9196:9197   */\n      0x00\n        /* \"#utility.yul\":9221:9274   */\n      tag_482\n        /* \"#utility.yul\":9266:9273   */\n      dup5\n        /* \"#utility.yul\":9257:9263   */\n      dup3\n        /* \"#utility.yul\":9246:9255   */\n      dup6\n        /* \"#utility.yul\":9242:9264   */\n      add\n        /* \"#utility.yul\":9221:9274   */\n      tag_314\n      jump\t// in\n    tag_482:\n        /* \"#utility.yul\":9211:9274   */\n      swap2\n      pop\n        /* \"#utility.yul\":9167:9284   */\n      pop\n        /* \"#utility.yul\":8962:9291   */\n      swap3\n      swap2\n      pop\n      pop\n      jump\t// out\n        /* \"#utility.yul\":9297:9405   */\n    tag_321:\n        /* \"#utility.yul\":9374:9398   */\n      tag_484\n        /* \"#utility.yul\":9392:9397   */\n      dup2\n        /* \"#utility.yul\":9374:9398   */\n      tag_312\n      jump\t// in\n    tag_484:\n        /* \"#utility.yul\":9369:9372   */\n      dup3\n        /* \"#utility.yul\":9362:9399   */\n      mstore\n        /* \"#utility.yul\":9297:9405   */\n      pop\n      pop\n      jump\t// out\n        /* \"#utility.yul\":9411:9519   */\n    tag_322:\n        /* \"#utility.yul\":9488:9512   */\n      tag_486\n        /* \"#utility.yul\":9506:9511   */\n      dup2\n        /* \"#utility.yul\":9488:9512   */\n      tag_289\n      jump\t// in\n    tag_486:\n        /* \"#utility.yul\":9483:9486   */\n      dup3\n        /* \"#utility.yul\":9476:9513   */\n      mstore\n        /* \"#utility.yul\":9411:9519   */\n      pop\n      pop\n      jump\t// out\n        /* \"#utility.yul\":9525:9624   */\n    tag_323:\n        /* \"#utility.yul\":9596:9617   */\n      tag_488\n        /* \"#utility.yul\":9611:9616   */\n      dup2\n        /* \"#utility.yul\":9596:9617   */\n      tag_307\n      jump\t// in\n    tag_488:\n        /* \"#utility.yul\":9591:9594   */\n      dup3\n        /* \"#utility.yul\":9584:9618   */\n      mstore\n        /* \"#utility.yul\":9525:9624   */\n      pop\n      pop\n      jump\t// out\n        /* \"#utility.yul\":9708:11443   */\n    tag_324:\n        /* \"#utility.yul\":9851:9857   */\n      0x0120\n        /* \"#utility.yul\":9846:9849   */\n      dup3\n        /* \"#utility.yul\":9842:9858   */\n      add\n        /* \"#utility.yul\":9938:9942   */\n      0x00\n        /* \"#utility.yul\":9931:9936   */\n      dup3\n        /* \"#utility.yul\":9927:9943   */\n      add\n        /* \"#utility.yul\":9921:9944   */\n      mload\n        /* \"#utility.yul\":9957:10020   */\n      tag_490\n        /* \"#utility.yul\":10014:10018   */\n      0x00\n        /* \"#utility.yul\":10009:10012   */\n      dup6\n        /* \"#utility.yul\":10005:10019   */\n      add\n        /* \"#utility.yul\":9991:10003   */\n      dup3\n        /* \"#utility.yul\":9957:10020   */\n      tag_321\n      jump\t// in\n    tag_490:\n        /* \"#utility.yul\":9868:10030   */\n      pop\n        /* \"#utility.yul\":10112:10116   */\n      0x20\n        /* \"#utility.yul\":10105:10110   */\n      dup3\n        /* \"#utility.yul\":10101:10117   */\n      add\n        /* \"#utility.yul\":10095:10118   */\n      mload\n        /* \"#utility.yul\":10131:10194   */\n      tag_491\n        /* \"#utility.yul\":10188:10192   */\n      0x20\n        /* \"#utility.yul\":10183:10186   */\n      dup6\n        /* \"#utility.yul\":10179:10193   */\n      add\n        /* \"#utility.yul\":10165:10177   */\n      dup3\n        /* \"#utility.yul\":10131:10194   */\n      tag_322\n      jump\t// in\n    tag_491:\n        /* \"#utility.yul\":10040:10204   */\n      pop\n        /* \"#utility.yul\":10291:10295   */\n      0x40\n        /* \"#utility.yul\":10284:10289   */\n      dup3\n        /* \"#utility.yul\":10280:10296   */\n      add\n        /* \"#utility.yul\":10274:10297   */\n      mload\n        /* \"#utility.yul\":10310:10373   */\n      tag_492\n        /* \"#utility.yul\":10367:10371   */\n      0x40\n        /* \"#utility.yul\":10362:10365   */\n      dup6\n        /* \"#utility.yul\":10358:10372   */\n      add\n        /* \"#utility.yul\":10344:10356   */\n      dup3\n        /* \"#utility.yul\":10310:10373   */\n      tag_321\n      jump\t// in\n    tag_492:\n        /* \"#utility.yul\":10214:10383   */\n      pop\n        /* \"#utility.yul\":10467:10471   */\n      0x60\n        /* \"#utility.yul\":10460:10465   */\n      dup3\n        /* \"#utility.yul\":10456:10472   */\n      add\n        /* \"#utility.yul\":10450:10473   */\n      mload\n        /* \"#utility.yul\":10486:10549   */\n      tag_493\n        /* \"#utility.yul\":10543:10547   */\n      0x60\n        /* \"#utility.yul\":10538:10541   */\n      dup6\n        /* \"#utility.yul\":10534:10548   */\n      add\n        /* \"#utility.yul\":10520:10532   */\n      dup3\n        /* \"#utility.yul\":10486:10549   */\n      tag_322\n      jump\t// in\n    tag_493:\n        /* \"#utility.yul\":10393:10559   */\n      pop\n        /* \"#utility.yul\":10643:10647   */\n      0x80\n        /* \"#utility.yul\":10636:10641   */\n      dup3\n        /* \"#utility.yul\":10632:10648   */\n      add\n        /* \"#utility.yul\":10626:10649   */\n      mload\n        /* \"#utility.yul\":10662:10725   */\n      tag_494\n        /* \"#utility.yul\":10719:10723   */\n      0x80\n        /* \"#utility.yul\":10714:10717   */\n      dup6\n        /* \"#utility.yul\":10710:10724   */\n      add\n        /* \"#utility.yul\":10696:10708   */\n      dup3\n        /* \"#utility.yul\":10662:10725   */\n      tag_322\n      jump\t// in\n    tag_494:\n        /* \"#utility.yul\":10569:10735   */\n      pop\n        /* \"#utility.yul\":10819:10823   */\n      0xa0\n        /* \"#utility.yul\":10812:10817   */\n      dup3\n        /* \"#utility.yul\":10808:10824   */\n      add\n        /* \"#utility.yul\":10802:10825   */\n      mload\n        /* \"#utility.yul\":10838:10901   */\n      tag_495\n        /* \"#utility.yul\":10895:10899   */\n      0xa0\n        /* \"#utility.yul\":10890:10893   */\n      dup6\n        /* \"#utility.yul\":10886:10900   */\n      add\n        /* \"#utility.yul\":10872:10884   */\n      dup3\n        /* \"#utility.yul\":10838:10901   */\n      tag_321\n      jump\t// in\n    tag_495:\n        /* \"#utility.yul\":10745:10911   */\n      pop\n        /* \"#utility.yul\":10994:10998   */\n      0xc0\n        /* \"#utility.yul\":10987:10992   */\n      dup3\n        /* \"#utility.yul\":10983:10999   */\n      add\n        /* \"#utility.yul\":10977:11000   */\n      mload\n        /* \"#utility.yul\":11013:11076   */\n      tag_496\n        /* \"#utility.yul\":11070:11074   */\n      0xc0\n        /* \"#utility.yul\":11065:11068   */\n      dup6\n        /* \"#utility.yul\":11061:11075   */\n      add\n        /* \"#utility.yul\":11047:11059   */\n      dup3\n        /* \"#utility.yul\":11013:11076   */\n      tag_321\n      jump\t// in\n    tag_496:\n        /* \"#utility.yul\":10921:11086   */\n      pop\n        /* \"#utility.yul\":11172:11176   */\n      0xe0\n        /* \"#utility.yul\":11165:11170   */\n      dup3\n        /* \"#utility.yul\":11161:11177   */\n      add\n        /* \"#utility.yul\":11155:11178   */\n      mload\n        /* \"#utility.yul\":11191:11248   */\n      tag_497\n        /* \"#utility.yul\":11242:11246   */\n      0xe0\n        /* \"#utility.yul\":11237:11240   */\n      dup6\n        /* \"#utility.yul\":11233:11247   */\n      add\n        /* \"#utility.yul\":11219:11231   */\n      dup3\n        /* \"#utility.yul\":11191:11248   */\n      tag_323\n      jump\t// in\n    tag_497:\n        /* \"#utility.yul\":11096:11258   */\n      pop\n        /* \"#utility.yul\":11346:11352   */\n      0x0100\n        /* \"#utility.yul\":11339:11344   */\n      dup3\n        /* \"#utility.yul\":11335:11353   */\n      add\n        /* \"#utility.yul\":11329:11354   */\n      mload\n        /* \"#utility.yul\":11367:11426   */\n      tag_498\n        /* \"#utility.yul\":11418:11424   */\n      0x0100\n        /* \"#utility.yul\":11413:11416   */\n      dup6\n        /* \"#utility.yul\":11409:11425   */\n      add\n        /* \"#utility.yul\":11395:11407   */\n      dup3\n        /* \"#utility.yul\":11367:11426   */\n      tag_323\n      jump\t// in\n    tag_498:\n        /* \"#utility.yul\":11268:11436   */\n      pop\n        /* \"#utility.yul\":9820:11443   */\n      pop\n        /* \"#utility.yul\":9708:11443   */\n      pop\n      pop\n      jump\t// out\n        /* \"#utility.yul\":11449:11764   */\n    tag_73:\n        /* \"#utility.yul\":11588:11592   */\n      0x00\n        /* \"#utility.yul\":11626:11629   */\n      0x0120\n        /* \"#utility.yul\":11615:11624   */\n      dup3\n        /* \"#utility.yul\":11611:11630   */\n      add\n        /* \"#utility.yul\":11603:11630   */\n      swap1\n      pop\n        /* \"#utility.yul\":11640:11757   */\n      tag_500\n        /* \"#utility.yul\":11754:11755   */\n      0x00\n        /* \"#utility.yul\":11743:11752   */\n      dup4\n        /* \"#utility.yul\":11739:11756   */\n      add\n        /* \"#utility.yul\":11730:11736   */\n      dup5\n        /* \"#utility.yul\":11640:11757   */\n      tag_324\n      jump\t// in\n    tag_500:\n        /* \"#utility.yul\":11449:11764   */\n      swap3\n      swap2\n      pop\n      pop\n      jump\t// out\n        /* \"#utility.yul\":11770:12535   */\n    tag_80:\n        /* \"#utility.yul\":11856:11862   */\n      0x00\n        /* \"#utility.yul\":11864:11870   */\n      dup1\n        /* \"#utility.yul\":11872:11878   */\n      0x00\n        /* \"#utility.yul\":11880:11886   */\n      dup1\n        /* \"#utility.yul\":11929:11932   */\n      0x80\n        /* \"#utility.yul\":11917:11926   */\n      dup6\n        /* \"#utility.yul\":11908:11915   */\n      dup8\n        /* \"#utility.yul\":11904:11927   */\n      sub\n        /* \"#utility.yul\":11900:11933   */\n      slt\n        /* \"#utility.yul\":11897:12017   */\n      iszero\n      tag_502\n      jumpi\n        /* \"#utility.yul\":11936:12015   */\n      tag_503\n      tag_292\n      jump\t// in\n    tag_503:\n        /* \"#utility.yul\":11897:12017   */\n    tag_502:\n        /* \"#utility.yul\":12056:12057   */\n      0x00\n        /* \"#utility.yul\":12081:12134   */\n      tag_504\n        /* \"#utility.yul\":12126:12133   */\n      dup8\n        /* \"#utility.yul\":12117:12123   */\n      dup3\n        /* \"#utility.yul\":12106:12115   */\n      dup9\n        /* \"#utility.yul\":12102:12124   */\n      add\n        /* \"#utility.yul\":12081:12134   */\n      tag_314\n      jump\t// in\n    tag_504:\n        /* \"#utility.yul\":12071:12134   */\n      swap5\n      pop\n        /* \"#utility.yul\":12027:12144   */\n      pop\n        /* \"#utility.yul\":12183:12185   */\n      0x20\n        /* \"#utility.yul\":12209:12262   */\n      tag_505\n        /* \"#utility.yul\":12254:12261   */\n      dup8\n        /* \"#utility.yul\":12245:12251   */\n      dup3\n        /* \"#utility.yul\":12234:12243   */\n      dup9\n        /* \"#utility.yul\":12230:12252   */\n      add\n        /* \"#utility.yul\":12209:12262   */\n      tag_304\n      jump\t// in\n    tag_505:\n        /* \"#utility.yul\":12199:12262   */\n      swap4\n      pop\n        /* \"#utility.yul\":12154:12272   */\n      pop\n        /* \"#utility.yul\":12311:12313   */\n      0x40\n        /* \"#utility.yul\":12337:12390   */\n      tag_506\n        /* \"#utility.yul\":12382:12389   */\n      dup8\n        /* \"#utility.yul\":12373:12379   */\n      dup3\n        /* \"#utility.yul\":12362:12371   */\n      dup9\n        /* \"#utility.yul\":12358:12380   */\n      add\n        /* \"#utility.yul\":12337:12390   */\n      tag_304\n      jump\t// in\n    tag_506:\n        /* \"#utility.yul\":12327:12390   */\n      swap3\n      pop\n        /* \"#utility.yul\":12282:12400   */\n      pop\n        /* \"#utility.yul\":12439:12441   */\n      0x60\n        /* \"#utility.yul\":12465:12518   */\n      tag_507\n        /* \"#utility.yul\":12510:12517   */\n      dup8\n        /* \"#utility.yul\":12501:12507   */\n      dup3\n        /* \"#utility.yul\":12490:12499   */\n      dup9\n        /* \"#utility.yul\":12486:12508   */\n      add\n        /* \"#utility.yul\":12465:12518   */\n      tag_314\n      jump\t// in\n    tag_507:\n        /* \"#utility.yul\":12455:12518   */\n      swap2\n      pop\n        /* \"#utility.yul\":12410:12528   */\n      pop\n        /* \"#utility.yul\":11770:12535   */\n      swap3\n      swap6\n      swap2\n      swap5\n      pop\n      swap3\n      pop\n      jump\t// out\n        /* \"#utility.yul\":12541:12759   */\n    tag_87:\n        /* \"#utility.yul\":12632:12636   */\n      0x00\n        /* \"#utility.yul\":12670:12672   */\n      0x20\n        /* \"#utility.yul\":12659:12668   */\n      dup3\n        /* \"#utility.yul\":12655:12673   */\n      add\n        /* \"#utility.yul\":12647:12673   */\n      swap1\n      pop\n        /* \"#utility.yul\":12683:12752   */\n      tag_509\n        /* \"#utility.yul\":12749:12750   */\n      0x00\n        /* \"#utility.yul\":12738:12747   */\n      dup4\n        /* \"#utility.yul\":12734:12751   */\n      add\n        /* \"#utility.yul\":12725:12731   */\n      dup5\n        /* \"#utility.yul\":12683:12752   */\n      tag_306\n      jump\t// in\n    tag_509:\n        /* \"#utility.yul\":12541:12759   */\n      swap3\n      swap2\n      pop\n      pop\n      jump\t// out\n        /* \"#utility.yul\":12765:12880   */\n    tag_325:\n        /* \"#utility.yul\":12850:12873   */\n      tag_511\n        /* \"#utility.yul\":12867:12872   */\n      dup2\n        /* \"#utility.yul\":12850:12873   */\n      tag_309\n      jump\t// in\n    tag_511:\n        /* \"#utility.yul\":12845:12848   */\n      dup3\n        /* \"#utility.yul\":12838:12874   */\n      mstore\n        /* \"#utility.yul\":12765:12880   */\n      pop\n      pop\n      jump\t// out\n        /* \"#utility.yul\":12886:13104   */\n    tag_92:\n        /* \"#utility.yul\":12977:12981   */\n      0x00\n        /* \"#utility.yul\":13015:13017   */\n      0x20\n        /* \"#utility.yul\":13004:13013   */\n      dup3\n        /* \"#utility.yul\":13000:13018   */\n      add\n        /* \"#utility.yul\":12992:13018   */\n      swap1\n      pop\n        /* \"#utility.yul\":13028:13097   */\n      tag_513\n        /* \"#utility.yul\":13094:13095   */\n      0x00\n        /* \"#utility.yul\":13083:13092   */\n      dup4\n        /* \"#utility.yul\":13079:13096   */\n      add\n        /* \"#utility.yul\":13070:13076   */\n      dup5\n        /* \"#utility.yul\":13028:13097   */\n      tag_325\n      jump\t// in\n    tag_513:\n        /* \"#utility.yul\":12886:13104   */\n      swap3\n      swap2\n      pop\n      pop\n      jump\t// out\n        /* \"#utility.yul\":13110:13437   */\n    tag_108:\n        /* \"#utility.yul\":13168:13174   */\n      0x00\n        /* \"#utility.yul\":13217:13219   */\n      0x20\n        /* \"#utility.yul\":13205:13214   */\n      dup3\n        /* \"#utility.yul\":13196:13203   */\n      dup5\n        /* \"#utility.yul\":13192:13215   */\n      sub\n        /* \"#utility.yul\":13188:13220   */\n      slt\n        /* \"#utility.yul\":13185:13304   */\n      iszero\n      tag_515\n      jumpi\n        /* \"#utility.yul\":13223:13302   */\n      tag_516\n      tag_292\n      jump\t// in\n    tag_516:\n        /* \"#utility.yul\":13185:13304   */\n    tag_515:\n        /* \"#utility.yul\":13343:13344   */\n      0x00\n        /* \"#utility.yul\":13368:13420   */\n      tag_517\n        /* \"#utility.yul\":13412:13419   */\n      dup5\n        /* \"#utility.yul\":13403:13409   */\n      dup3\n        /* \"#utility.yul\":13392:13401   */\n      dup6\n        /* \"#utility.yul\":13388:13410   */\n      add\n        /* \"#utility.yul\":13368:13420   */\n      tag_311\n      jump\t// in\n    tag_517:\n        /* \"#utility.yul\":13358:13420   */\n      swap2\n      pop\n        /* \"#utility.yul\":13314:13430   */\n      pop\n        /* \"#utility.yul\":13110:13437   */\n      swap3\n      swap2\n      pop\n      pop\n      jump\t// out\n        /* \"#utility.yul\":13443:13561   */\n    tag_326:\n        /* \"#utility.yul\":13530:13554   */\n      tag_519\n        /* \"#utility.yul\":13548:13553   */\n      dup2\n        /* \"#utility.yul\":13530:13554   */\n      tag_296\n      jump\t// in\n    tag_519:\n        /* \"#utility.yul\":13525:13528   */\n      dup3\n        /* \"#utility.yul\":13518:13555   */\n      mstore\n        /* \"#utility.yul\":13443:13561   */\n      pop\n      pop\n      jump\t// out\n        /* \"#utility.yul\":13567:13789   */\n    tag_111:\n        /* \"#utility.yul\":13660:13664   */\n      0x00\n        /* \"#utility.yul\":13698:13700   */\n      0x20\n        /* \"#utility.yul\":13687:13696   */\n      dup3\n        /* \"#utility.yul\":13683:13701   */\n      add\n        /* \"#utility.yul\":13675:13701   */\n      swap1\n      pop\n        /* \"#utility.yul\":13711:13782   */\n      tag_521\n        /* \"#utility.yul\":13779:13780   */\n      0x00\n        /* \"#utility.yul\":13768:13777   */\n      dup4\n        /* \"#utility.yul\":13764:13781   */\n      add\n        /* \"#utility.yul\":13755:13761   */\n      dup5\n        /* \"#utility.yul\":13711:13782   */\n      tag_326\n      jump\t// in\n    tag_521:\n        /* \"#utility.yul\":13567:13789   */\n      swap3\n      swap2\n      pop\n      pop\n      jump\t// out\n        /* \"#utility.yul\":13795:14124   */\n    tag_119:\n        /* \"#utility.yul\":13854:13860   */\n      0x00\n        /* \"#utility.yul\":13903:13905   */\n      0x20\n        /* \"#utility.yul\":13891:13900   */\n      dup3\n        /* \"#utility.yul\":13882:13889   */\n      dup5\n        /* \"#utility.yul\":13878:13901   */\n      sub\n        /* \"#utility.yul\":13874:13906   */\n      slt\n        /* \"#utility.yul\":13871:13990   */\n      iszero\n      tag_523\n      jumpi\n        /* \"#utility.yul\":13909:13988   */\n      tag_524\n      tag_292\n      jump\t// in\n    tag_524:\n        /* \"#utility.yul\":13871:13990   */\n    tag_523:\n        /* \"#utility.yul\":14029:14030   */\n      0x00\n        /* \"#utility.yul\":14054:14107   */\n      tag_525\n        /* \"#utility.yul\":14099:14106   */\n      dup5\n        /* \"#utility.yul\":14090:14096   */\n      dup3\n        /* \"#utility.yul\":14079:14088   */\n      dup6\n        /* \"#utility.yul\":14075:14097   */\n      add\n        /* \"#utility.yul\":14054:14107   */\n      tag_304\n      jump\t// in\n    tag_525:\n        /* \"#utility.yul\":14044:14107   */\n      swap2\n      pop\n        /* \"#utility.yul\":14000:14117   */\n      pop\n        /* \"#utility.yul\":13795:14124   */\n      swap3\n      swap2\n      pop\n      pop\n      jump\t// out\n        /* \"#utility.yul\":14130:14509   */\n    tag_139:\n        /* \"#utility.yul\":14214:14220   */\n      0x00\n        /* \"#utility.yul\":14263:14265   */\n      0x60\n        /* \"#utility.yul\":14251:14260   */\n      dup3\n        /* \"#utility.yul\":14242:14249   */\n      dup5\n        /* \"#utility.yul\":14238:14261   */\n      sub\n        /* \"#utility.yul\":14234:14266   */\n      slt\n        /* \"#utility.yul\":14231:14350   */\n      iszero\n      tag_527\n      jumpi\n        /* \"#utility.yul\":14269:14348   */\n      tag_528\n      tag_292\n      jump\t// in\n    tag_528:\n        /* \"#utility.yul\":14231:14350   */\n    tag_527:\n        /* \"#utility.yul\":14389:14390   */\n      0x00\n        /* \"#utility.yul\":14414:14492   */\n      tag_529\n        /* \"#utility.yul\":14484:14491   */\n      dup5\n        /* \"#utility.yul\":14475:14481   */\n      dup3\n        /* \"#utility.yul\":14464:14473   */\n      dup6\n        /* \"#utility.yul\":14460:14482   */\n      add\n        /* \"#utility.yul\":14414:14492   */\n      tag_295\n      jump\t// in\n    tag_529:\n        /* \"#utility.yul\":14404:14492   */\n      swap2\n      pop\n        /* \"#utility.yul\":14360:14502   */\n      pop\n        /* \"#utility.yul\":14130:14509   */\n      swap3\n      swap2\n      pop\n      pop\n      jump\t// out\n        /* \"#utility.yul\":14515:14843   */\n    tag_151:\n        /* \"#utility.yul\":14634:14638   */\n      0x00\n        /* \"#utility.yul\":14672:14674   */\n      0x40\n        /* \"#utility.yul\":14661:14670   */\n      dup3\n        /* \"#utility.yul\":14657:14675   */\n      add\n        /* \"#utility.yul\":14649:14675   */\n      swap1\n      pop\n        /* \"#utility.yul\":14685:14754   */\n      tag_531\n        /* \"#utility.yul\":14751:14752   */\n      0x00\n        /* \"#utility.yul\":14740:14749   */\n      dup4\n        /* \"#utility.yul\":14736:14753   */\n      add\n        /* \"#utility.yul\":14727:14733   */\n      dup6\n        /* \"#utility.yul\":14685:14754   */\n      tag_325\n      jump\t// in\n    tag_531:\n        /* \"#utility.yul\":14764:14836   */\n      tag_532\n        /* \"#utility.yul\":14832:14834   */\n      0x20\n        /* \"#utility.yul\":14821:14830   */\n      dup4\n        /* \"#utility.yul\":14817:14835   */\n      add\n        /* \"#utility.yul\":14808:14814   */\n      dup5\n        /* \"#utility.yul\":14764:14836   */\n      tag_326\n      jump\t// in\n    tag_532:\n        /* \"#utility.yul\":14515:14843   */\n      swap4\n      swap3\n      pop\n      pop\n      pop\n      jump\t// out\n        /* \"#utility.yul\":14849:15735   */\n    tag_162:\n        /* \"#utility.yul\":15110:15114   */\n      0x00\n        /* \"#utility.yul\":15148:15151   */\n      0xe0\n        /* \"#utility.yul\":15137:15146   */\n      dup3\n        /* \"#utility.yul\":15133:15152   */\n      add\n        /* \"#utility.yul\":15125:15152   */\n      swap1\n      pop\n        /* \"#utility.yul\":15162:15233   */\n      tag_534\n        /* \"#utility.yul\":15230:15231   */\n      0x00\n        /* \"#utility.yul\":15219:15228   */\n      dup4\n        /* \"#utility.yul\":15215:15232   */\n      add\n        /* \"#utility.yul\":15206:15212   */\n      dup11\n        /* \"#utility.yul\":15162:15233   */\n      tag_290\n      jump\t// in\n    tag_534:\n        /* \"#utility.yul\":15243:15315   */\n      tag_535\n        /* \"#utility.yul\":15311:15313   */\n      0x20\n        /* \"#utility.yul\":15300:15309   */\n      dup4\n        /* \"#utility.yul\":15296:15314   */\n      add\n        /* \"#utility.yul\":15287:15293   */\n      dup10\n        /* \"#utility.yul\":15243:15315   */\n      tag_315\n      jump\t// in\n    tag_535:\n        /* \"#utility.yul\":15325:15397   */\n      tag_536\n        /* \"#utility.yul\":15393:15395   */\n      0x40\n        /* \"#utility.yul\":15382:15391   */\n      dup4\n        /* \"#utility.yul\":15378:15396   */\n      add\n        /* \"#utility.yul\":15369:15375   */\n      dup9\n        /* \"#utility.yul\":15325:15397   */\n      tag_315\n      jump\t// in\n    tag_536:\n        /* \"#utility.yul\":15407:15479   */\n      tag_537\n        /* \"#utility.yul\":15475:15477   */\n      0x60\n        /* \"#utility.yul\":15464:15473   */\n      dup4\n        /* \"#utility.yul\":15460:15478   */\n      add\n        /* \"#utility.yul\":15451:15457   */\n      dup8\n        /* \"#utility.yul\":15407:15479   */\n      tag_290\n      jump\t// in\n    tag_537:\n        /* \"#utility.yul\":15489:15562   */\n      tag_538\n        /* \"#utility.yul\":15557:15560   */\n      0x80\n        /* \"#utility.yul\":15546:15555   */\n      dup4\n        /* \"#utility.yul\":15542:15561   */\n      add\n        /* \"#utility.yul\":15533:15539   */\n      dup7\n        /* \"#utility.yul\":15489:15562   */\n      tag_290\n      jump\t// in\n    tag_538:\n        /* \"#utility.yul\":15572:15645   */\n      tag_539\n        /* \"#utility.yul\":15640:15643   */\n      0xa0\n        /* \"#utility.yul\":15629:15638   */\n      dup4\n        /* \"#utility.yul\":15625:15644   */\n      add\n        /* \"#utility.yul\":15616:15622   */\n      dup6\n        /* \"#utility.yul\":15572:15645   */\n      tag_315\n      jump\t// in\n    tag_539:\n        /* \"#utility.yul\":15655:15728   */\n      tag_540\n        /* \"#utility.yul\":15723:15726   */\n      0xc0\n        /* \"#utility.yul\":15712:15721   */\n      dup4\n        /* \"#utility.yul\":15708:15727   */\n      add\n        /* \"#utility.yul\":15699:15705   */\n      dup5\n        /* \"#utility.yul\":15655:15728   */\n      tag_315\n      jump\t// in\n    tag_540:\n        /* \"#utility.yul\":14849:15735   */\n      swap9\n      swap8\n      pop\n      pop\n      pop\n      pop\n      pop\n      pop\n      pop\n      pop\n      jump\t// out\n        /* \"#utility.yul\":15741:15839   */\n    tag_327:\n        /* \"#utility.yul\":15792:15798   */\n      0x00\n        /* \"#utility.yul\":15826:15831   */\n      dup2\n        /* \"#utility.yul\":15820:15832   */\n      mload\n        /* \"#utility.yul\":15810:15832   */\n      swap1\n      pop\n        /* \"#utility.yul\":15741:15839   */\n      swap2\n      swap1\n      pop\n      jump\t// out\n        /* \"#utility.yul\":15845:15992   */\n    tag_328:\n        /* \"#utility.yul\":15946:15957   */\n      0x00\n        /* \"#utility.yul\":15983:15986   */\n      dup2\n        /* \"#utility.yul\":15968:15986   */\n      swap1\n      pop\n        /* \"#utility.yul\":15845:15992   */\n      swap3\n      swap2\n      pop\n      pop\n      jump\t// out\n        /* \"#utility.yul\":15998:16137   */\n    tag_329:\n        /* \"#utility.yul\":16087:16093   */\n      dup3\n        /* \"#utility.yul\":16082:16085   */\n      dup2\n        /* \"#utility.yul\":16077:16080   */\n      dup4\n        /* \"#utility.yul\":16071:16094   */\n      mcopy\n        /* \"#utility.yul\":16128:16129   */\n      0x00\n        /* \"#utility.yul\":16119:16125   */\n      dup4\n        /* \"#utility.yul\":16114:16117   */\n      dup4\n        /* \"#utility.yul\":16110:16126   */\n      add\n        /* \"#utility.yul\":16103:16130   */\n      mstore\n        /* \"#utility.yul\":15998:16137   */\n      pop\n      pop\n      pop\n      jump\t// out\n        /* \"#utility.yul\":16143:16529   */\n    tag_330:\n        /* \"#utility.yul\":16247:16250   */\n      0x00\n        /* \"#utility.yul\":16275:16313   */\n      tag_545\n        /* \"#utility.yul\":16307:16312   */\n      dup3\n        /* \"#utility.yul\":16275:16313   */\n      tag_327\n      jump\t// in\n    tag_545:\n        /* \"#utility.yul\":16329:16417   */\n      tag_546\n        /* \"#utility.yul\":16410:16416   */\n      dup2\n        /* \"#utility.yul\":16405:16408   */\n      dup6\n        /* \"#utility.yul\":16329:16417   */\n      tag_328\n      jump\t// in\n    tag_546:\n        /* \"#utility.yul\":16322:16417   */\n      swap4\n      pop\n        /* \"#utility.yul\":16426:16491   */\n      tag_547\n        /* \"#utility.yul\":16484:16490   */\n      dup2\n        /* \"#utility.yul\":16479:16482   */\n      dup6\n        /* \"#utility.yul\":16472:16476   */\n      0x20\n        /* \"#utility.yul\":16465:16470   */\n      dup7\n        /* \"#utility.yul\":16461:16477   */\n      add\n        /* \"#utility.yul\":16426:16491   */\n      tag_329\n      jump\t// in\n    tag_547:\n        /* \"#utility.yul\":16516:16522   */\n      dup1\n        /* \"#utility.yul\":16511:16514   */\n      dup5\n        /* \"#utility.yul\":16507:16523   */\n      add\n        /* \"#utility.yul\":16500:16523   */\n      swap2\n      pop\n        /* \"#utility.yul\":16251:16529   */\n      pop\n        /* \"#utility.yul\":16143:16529   */\n      swap3\n      swap2\n      pop\n      pop\n      jump\t// out\n        /* \"#utility.yul\":16535:16806   */\n    tag_164:\n        /* \"#utility.yul\":16665:16668   */\n      0x00\n        /* \"#utility.yul\":16687:16780   */\n      tag_549\n        /* \"#utility.yul\":16776:16779   */\n      dup3\n        /* \"#utility.yul\":16767:16773   */\n      dup5\n        /* \"#utility.yul\":16687:16780   */\n      tag_330\n      jump\t// in\n    tag_549:\n        /* \"#utility.yul\":16680:16780   */\n      swap2\n      pop\n        /* \"#utility.yul\":16797:16800   */\n      dup2\n        /* \"#utility.yul\":16790:16800   */\n      swap1\n      pop\n        /* \"#utility.yul\":16535:16806   */\n      swap3\n      swap2\n      pop\n      pop\n      jump\t// out\n        /* \"#utility.yul\":16812:16981   */\n    tag_331:\n        /* \"#utility.yul\":16896:16907   */\n      0x00\n        /* \"#utility.yul\":16930:16936   */\n      dup3\n        /* \"#utility.yul\":16925:16928   */\n      dup3\n        /* \"#utility.yul\":16918:16937   */\n      mstore\n        /* \"#utility.yul\":16970:16974   */\n      0x20\n        /* \"#utility.yul\":16965:16968   */\n      dup3\n        /* \"#utility.yul\":16961:16975   */\n      add\n        /* \"#utility.yul\":16946:16975   */\n      swap1\n      pop\n        /* \"#utility.yul\":16812:16981   */\n      swap3\n      swap2\n      pop\n      pop\n      jump\t// out\n        /* \"#utility.yul\":16987:17164   */\n    tag_332:\n        /* \"#utility.yul\":17127:17156   */\n      0x4661696c656420746f20706c616365206c696d6974206f726465720000000000\n        /* \"#utility.yul\":17123:17124   */\n      0x00\n        /* \"#utility.yul\":17115:17121   */\n      dup3\n        /* \"#utility.yul\":17111:17125   */\n      add\n        /* \"#utility.yul\":17104:17157   */\n      mstore\n        /* \"#utility.yul\":16987:17164   */\n      pop\n      jump\t// out\n        /* \"#utility.yul\":17170:17536   */\n    tag_333:\n        /* \"#utility.yul\":17312:17315   */\n      0x00\n        /* \"#utility.yul\":17333:17400   */\n      tag_553\n        /* \"#utility.yul\":17397:17399   */\n      0x1b\n        /* \"#utility.yul\":17392:17395   */\n      dup4\n        /* \"#utility.yul\":17333:17400   */\n      tag_331\n      jump\t// in\n    tag_553:\n        /* \"#utility.yul\":17326:17400   */\n      swap2\n      pop\n        /* \"#utility.yul\":17409:17502   */\n      tag_554\n        /* \"#utility.yul\":17498:17501   */\n      dup3\n        /* \"#utility.yul\":17409:17502   */\n      tag_332\n      jump\t// in\n    tag_554:\n        /* \"#utility.yul\":17527:17529   */\n      0x20\n        /* \"#utility.yul\":17522:17525   */\n      dup3\n        /* \"#utility.yul\":17518:17530   */\n      add\n        /* \"#utility.yul\":17511:17530   */\n      swap1\n      pop\n        /* \"#utility.yul\":17170:17536   */\n      swap2\n      swap1\n      pop\n      jump\t// out\n        /* \"#utility.yul\":17542:17961   */\n    tag_170:\n        /* \"#utility.yul\":17708:17712   */\n      0x00\n        /* \"#utility.yul\":17746:17748   */\n      0x20\n        /* \"#utility.yul\":17735:17744   */\n      dup3\n        /* \"#utility.yul\":17731:17749   */\n      add\n        /* \"#utility.yul\":17723:17749   */\n      swap1\n      pop\n        /* \"#utility.yul\":17795:17804   */\n      dup2\n        /* \"#utility.yul\":17789:17793   */\n      dup2\n        /* \"#utility.yul\":17785:17805   */\n      sub\n        /* \"#utility.yul\":17781:17782   */\n      0x00\n        /* \"#utility.yul\":17770:17779   */\n      dup4\n        /* \"#utility.yul\":17766:17783   */\n      add\n        /* \"#utility.yul\":17759:17806   */\n      mstore\n        /* \"#utility.yul\":17823:17954   */\n      tag_556\n        /* \"#utility.yul\":17949:17953   */\n      dup2\n        /* \"#utility.yul\":17823:17954   */\n      tag_333\n      jump\t// in\n    tag_556:\n        /* \"#utility.yul\":17815:17954   */\n      swap1\n      pop\n        /* \"#utility.yul\":17542:17961   */\n      swap2\n      swap1\n      pop\n      jump\t// out\n        /* \"#utility.yul\":17967:18110   */\n    tag_334:\n        /* \"#utility.yul\":18024:18029   */\n      0x00\n        /* \"#utility.yul\":18055:18061   */\n      dup2\n        /* \"#utility.yul\":18049:18062   */\n      mload\n        /* \"#utility.yul\":18040:18062   */\n      swap1\n      pop\n        /* \"#utility.yul\":18071:18104   */\n      tag_558\n        /* \"#utility.yul\":18098:18103   */\n      dup2\n        /* \"#utility.yul\":18071:18104   */\n      tag_313\n      jump\t// in\n    tag_558:\n        /* \"#utility.yul\":17967:18110   */\n      swap3\n      swap2\n      pop\n      pop\n      jump\t// out\n        /* \"#utility.yul\":18116:18220   */\n    tag_335:\n        /* \"#utility.yul\":18161:18168   */\n      0x00\n        /* \"#utility.yul\":18190:18214   */\n      tag_560\n        /* \"#utility.yul\":18208:18213   */\n      dup3\n        /* \"#utility.yul\":18190:18214   */\n      tag_288\n      jump\t// in\n    tag_560:\n        /* \"#utility.yul\":18179:18214   */\n      swap1\n      pop\n        /* \"#utility.yul\":18116:18220   */\n      swap2\n      swap1\n      pop\n      jump\t// out\n        /* \"#utility.yul\":18226:18364   */\n    tag_336:\n        /* \"#utility.yul\":18307:18339   */\n      tag_562\n        /* \"#utility.yul\":18333:18338   */\n      dup2\n        /* \"#utility.yul\":18307:18339   */\n      tag_335\n      jump\t// in\n    tag_562:\n        /* \"#utility.yul\":18300:18305   */\n      dup2\n        /* \"#utility.yul\":18297:18340   */\n      eq\n        /* \"#utility.yul\":18287:18358   */\n      tag_563\n      jumpi\n        /* \"#utility.yul\":18354:18355   */\n      0x00\n        /* \"#utility.yul\":18351:18352   */\n      dup1\n        /* \"#utility.yul\":18344:18356   */\n      revert\n        /* \"#utility.yul\":18287:18358   */\n    tag_563:\n        /* \"#utility.yul\":18226:18364   */\n      pop\n      jump\t// out\n        /* \"#utility.yul\":18370:18529   */\n    tag_337:\n        /* \"#utility.yul\":18435:18440   */\n      0x00\n        /* \"#utility.yul\":18466:18472   */\n      dup2\n        /* \"#utility.yul\":18460:18473   */\n      mload\n        /* \"#utility.yul\":18451:18473   */\n      swap1\n      pop\n        /* \"#utility.yul\":18482:18523   */\n      tag_565\n        /* \"#utility.yul\":18517:18522   */\n      dup2\n        /* \"#utility.yul\":18482:18523   */\n      tag_336\n      jump\t// in\n    tag_565:\n        /* \"#utility.yul\":18370:18529   */\n      swap3\n      swap2\n      pop\n      pop\n      jump\t// out\n        /* \"#utility.yul\":18535:18611   */\n    tag_338:\n        /* \"#utility.yul\":18571:18578   */\n      0x00\n        /* \"#utility.yul\":18600:18605   */\n      dup2\n        /* \"#utility.yul\":18589:18605   */\n      swap1\n      pop\n        /* \"#utility.yul\":18535:18611   */\n      swap2\n      swap1\n      pop\n      jump\t// out\n        /* \"#utility.yul\":18617:18737   */\n    tag_339:\n        /* \"#utility.yul\":18689:18712   */\n      tag_568\n        /* \"#utility.yul\":18706:18711   */\n      dup2\n        /* \"#utility.yul\":18689:18712   */\n      tag_338\n      jump\t// in\n    tag_568:\n        /* \"#utility.yul\":18682:18687   */\n      dup2\n        /* \"#utility.yul\":18679:18713   */\n      eq\n        /* \"#utility.yul\":18669:18731   */\n      tag_569\n      jumpi\n        /* \"#utility.yul\":18727:18728   */\n      0x00\n        /* \"#utility.yul\":18724:18725   */\n      dup1\n        /* \"#utility.yul\":18717:18729   */\n      revert\n        /* \"#utility.yul\":18669:18731   */\n    tag_569:\n        /* \"#utility.yul\":18617:18737   */\n      pop\n      jump\t// out\n        /* \"#utility.yul\":18743:18884   */\n    tag_340:\n        /* \"#utility.yul\":18799:18804   */\n      0x00\n        /* \"#utility.yul\":18830:18836   */\n      dup2\n        /* \"#utility.yul\":18824:18837   */\n      mload\n        /* \"#utility.yul\":18815:18837   */\n      swap1\n      pop\n        /* \"#utility.yul\":18846:18878   */\n      tag_571\n        /* \"#utility.yul\":18872:18877   */\n      dup2\n        /* \"#utility.yul\":18846:18878   */\n      tag_339\n      jump\t// in\n    tag_571:\n        /* \"#utility.yul\":18743:18884   */\n      swap3\n      swap2\n      pop\n      pop\n      jump\t// out\n        /* \"#utility.yul\":18890:20708   */\n    tag_172:\n        /* \"#utility.yul\":19069:19075   */\n      0x00\n        /* \"#utility.yul\":19077:19083   */\n      dup1\n        /* \"#utility.yul\":19085:19091   */\n      0x00\n        /* \"#utility.yul\":19093:19099   */\n      dup1\n        /* \"#utility.yul\":19101:19107   */\n      0x00\n        /* \"#utility.yul\":19109:19115   */\n      dup1\n        /* \"#utility.yul\":19117:19123   */\n      0x00\n        /* \"#utility.yul\":19125:19131   */\n      dup1\n        /* \"#utility.yul\":19133:19139   */\n      0x00\n        /* \"#utility.yul\":19141:19147   */\n      dup1\n        /* \"#utility.yul\":19190:19193   */\n      0x0140\n        /* \"#utility.yul\":19178:19187   */\n      dup12\n        /* \"#utility.yul\":19169:19176   */\n      dup14\n        /* \"#utility.yul\":19165:19188   */\n      sub\n        /* \"#utility.yul\":19161:19194   */\n      slt\n        /* \"#utility.yul\":19158:19278   */\n      iszero\n      tag_573\n      jumpi\n        /* \"#utility.yul\":19197:19276   */\n      tag_574\n      tag_292\n      jump\t// in\n    tag_574:\n        /* \"#utility.yul\":19158:19278   */\n    tag_573:\n        /* \"#utility.yul\":19317:19318   */\n      0x00\n        /* \"#utility.yul\":19342:19406   */\n      tag_575\n        /* \"#utility.yul\":19398:19405   */\n      dup14\n        /* \"#utility.yul\":19389:19395   */\n      dup3\n        /* \"#utility.yul\":19378:19387   */\n      dup15\n        /* \"#utility.yul\":19374:19396   */\n      add\n        /* \"#utility.yul\":19342:19406   */\n      tag_334\n      jump\t// in\n    tag_575:\n        /* \"#utility.yul\":19332:19406   */\n      swap11\n      pop\n        /* \"#utility.yul\":19288:19416   */\n      pop\n        /* \"#utility.yul\":19455:19457   */\n      0x20\n        /* \"#utility.yul\":19481:19553   */\n      tag_576\n        /* \"#utility.yul\":19545:19552   */\n      dup14\n        /* \"#utility.yul\":19536:19542   */\n      dup3\n        /* \"#utility.yul\":19525:19534   */\n      dup15\n        /* \"#utility.yul\":19521:19543   */\n      add\n        /* \"#utility.yul\":19481:19553   */\n      tag_337\n      jump\t// in\n    tag_576:\n        /* \"#utility.yul\":19471:19553   */\n      swap10\n      pop\n        /* \"#utility.yul\":19426:19563   */\n      pop\n        /* \"#utility.yul\":19602:19604   */\n      0x40\n        /* \"#utility.yul\":19628:19692   */\n      tag_577\n        /* \"#utility.yul\":19684:19691   */\n      dup14\n        /* \"#utility.yul\":19675:19681   */\n      dup3\n        /* \"#utility.yul\":19664:19673   */\n      dup15\n        /* \"#utility.yul\":19660:19682   */\n      add\n        /* \"#utility.yul\":19628:19692   */\n      tag_334\n      jump\t// in\n    tag_577:\n        /* \"#utility.yul\":19618:19692   */\n      swap9\n      pop\n        /* \"#utility.yul\":19573:19702   */\n      pop\n        /* \"#utility.yul\":19741:19743   */\n      0x60\n        /* \"#utility.yul\":19767:19839   */\n      tag_578\n        /* \"#utility.yul\":19831:19838   */\n      dup14\n        /* \"#utility.yul\":19822:19828   */\n      dup3\n        /* \"#utility.yul\":19811:19820   */\n      dup15\n        /* \"#utility.yul\":19807:19829   */\n      add\n        /* \"#utility.yul\":19767:19839   */\n      tag_337\n      jump\t// in\n    tag_578:\n        /* \"#utility.yul\":19757:19839   */\n      swap8\n      pop\n        /* \"#utility.yul\":19712:19849   */\n      pop\n        /* \"#utility.yul\":19888:19891   */\n      0x80\n        /* \"#utility.yul\":19915:19978   */\n      tag_579\n        /* \"#utility.yul\":19970:19977   */\n      dup14\n        /* \"#utility.yul\":19961:19967   */\n      dup3\n        /* \"#utility.yul\":19950:19959   */\n      dup15\n        /* \"#utility.yul\":19946:19968   */\n      add\n        /* \"#utility.yul\":19915:19978   */\n      tag_340\n      jump\t// in\n    tag_579:\n        /* \"#utility.yul\":19905:19978   */\n      swap7\n      pop\n        /* \"#utility.yul\":19859:19988   */\n      pop\n        /* \"#utility.yul\":20027:20030   */\n      0xa0\n        /* \"#utility.yul\":20054:20117   */\n      tag_580\n        /* \"#utility.yul\":20109:20116   */\n      dup14\n        /* \"#utility.yul\":20100:20106   */\n      dup3\n        /* \"#utility.yul\":20089:20098   */\n      dup15\n        /* \"#utility.yul\":20085:20107   */\n      add\n        /* \"#utility.yul\":20054:20117   */\n      tag_340\n      jump\t// in\n    tag_580:\n        /* \"#utility.yul\":20044:20117   */\n      swap6\n      pop\n        /* \"#utility.yul\":19998:20127   */\n      pop\n        /* \"#utility.yul\":20166:20169   */\n      0xc0\n        /* \"#utility.yul\":20193:20256   */\n      tag_581\n        /* \"#utility.yul\":20248:20255   */\n      dup14\n        /* \"#utility.yul\":20239:20245   */\n      dup3\n        /* \"#utility.yul\":20228:20237   */\n      dup15\n        /* \"#utility.yul\":20224:20246   */\n      add\n        /* \"#utility.yul\":20193:20256   */\n      tag_340\n      jump\t// in\n    tag_581:\n        /* \"#utility.yul\":20183:20256   */\n      swap5\n      pop\n        /* \"#utility.yul\":20137:20266   */\n      pop\n        /* \"#utility.yul\":20305:20308   */\n      0xe0\n        /* \"#utility.yul\":20332:20395   */\n      tag_582\n        /* \"#utility.yul\":20387:20394   */\n      dup14\n        /* \"#utility.yul\":20378:20384   */\n      dup3\n        /* \"#utility.yul\":20367:20376   */\n      dup15\n        /* \"#utility.yul\":20363:20385   */\n      add\n        /* \"#utility.yul\":20332:20395   */\n      tag_340\n      jump\t// in\n    tag_582:\n        /* \"#utility.yul\":20322:20395   */\n      swap4\n      pop\n        /* \"#utility.yul\":20276:20405   */\n      pop\n        /* \"#utility.yul\":20444:20447   */\n      0x0100\n        /* \"#utility.yul\":20471:20543   */\n      tag_583\n        /* \"#utility.yul\":20535:20542   */\n      dup14\n        /* \"#utility.yul\":20526:20532   */\n      dup3\n        /* \"#utility.yul\":20515:20524   */\n      dup15\n        /* \"#utility.yul\":20511:20533   */\n      add\n        /* \"#utility.yul\":20471:20543   */\n      tag_337\n      jump\t// in\n    tag_583:\n        /* \"#utility.yul\":20461:20543   */\n      swap3\n      pop\n        /* \"#utility.yul\":20415:20553   */\n      pop\n        /* \"#utility.yul\":20592:20595   */\n      0x0120\n        /* \"#utility.yul\":20619:20691   */\n      tag_584\n        /* \"#utility.yul\":20683:20690   */\n      dup14\n        /* \"#utility.yul\":20674:20680   */\n      dup3\n        /* \"#utility.yul\":20663:20672   */\n      dup15\n        /* \"#utility.yul\":20659:20681   */\n      add\n        /* \"#utility.yul\":20619:20691   */\n      tag_337\n      jump\t// in\n    tag_584:\n        /* \"#utility.yul\":20609:20691   */\n      swap2\n      pop\n        /* \"#utility.yul\":20563:20701   */\n      pop\n        /* \"#utility.yul\":18890:20708   */\n      swap3\n      swap6\n      swap9\n      swap12\n      swap2\n      swap5\n      swap8\n      swap11\n      pop\n      swap3\n      swap6\n      swap9\n      pop\n      jump\t// out\n        /* \"#utility.yul\":20714:20894   */\n    tag_341:\n        /* \"#utility.yul\":20854:20886   */\n      0x4661696c656420746f207265747269657665206c696d6974206f726465720000\n        /* \"#utility.yul\":20850:20851   */\n      0x00\n        /* \"#utility.yul\":20842:20848   */\n      dup3\n        /* \"#utility.yul\":20838:20852   */\n      add\n        /* \"#utility.yul\":20831:20887   */\n      mstore\n        /* \"#utility.yul\":20714:20894   */\n      pop\n      jump\t// out\n        /* \"#utility.yul\":20900:21266   */\n    tag_342:\n        /* \"#utility.yul\":21042:21045   */\n      0x00\n        /* \"#utility.yul\":21063:21130   */\n      tag_587\n        /* \"#utility.yul\":21127:21129   */\n      0x1e\n        /* \"#utility.yul\":21122:21125   */\n      dup4\n        /* \"#utility.yul\":21063:21130   */\n      tag_331\n      jump\t// in\n    tag_587:\n        /* \"#utility.yul\":21056:21130   */\n      swap2\n      pop\n        /* \"#utility.yul\":21139:21232   */\n      tag_588\n        /* \"#utility.yul\":21228:21231   */\n      dup3\n        /* \"#utility.yul\":21139:21232   */\n      tag_341\n      jump\t// in\n    tag_588:\n        /* \"#utility.yul\":21257:21259   */\n      0x20\n        /* \"#utility.yul\":21252:21255   */\n      dup3\n        /* \"#utility.yul\":21248:21260   */\n      add\n        /* \"#utility.yul\":21241:21260   */\n      swap1\n      pop\n        /* \"#utility.yul\":20900:21266   */\n      swap2\n      swap1\n      pop\n      jump\t// out\n        /* \"#utility.yul\":21272:21691   */\n    tag_184:\n        /* \"#utility.yul\":21438:21442   */\n      0x00\n        /* \"#utility.yul\":21476:21478   */\n      0x20\n        /* \"#utility.yul\":21465:21474   */\n      dup3\n        /* \"#utility.yul\":21461:21479   */\n      add\n        /* \"#utility.yul\":21453:21479   */\n      swap1\n      pop\n        /* \"#utility.yul\":21525:21534   */\n      dup2\n        /* \"#utility.yul\":21519:21523   */\n      dup2\n        /* \"#utility.yul\":21515:21535   */\n      sub\n        /* \"#utility.yul\":21511:21512   */\n      0x00\n        /* \"#utility.yul\":21500:21509   */\n      dup4\n        /* \"#utility.yul\":21496:21513   */\n      add\n        /* \"#utility.yul\":21489:21536   */\n      mstore\n        /* \"#utility.yul\":21553:21684   */\n      tag_590\n        /* \"#utility.yul\":21679:21683   */\n      dup2\n        /* \"#utility.yul\":21553:21684   */\n      tag_342\n      jump\t// in\n    tag_590:\n        /* \"#utility.yul\":21545:21684   */\n      swap1\n      pop\n        /* \"#utility.yul\":21272:21691   */\n      swap2\n      swap1\n      pop\n      jump\t// out\n        /* \"#utility.yul\":21697:21813   */\n    tag_343:\n        /* \"#utility.yul\":21767:21788   */\n      tag_592\n        /* \"#utility.yul\":21782:21787   */\n      dup2\n        /* \"#utility.yul\":21767:21788   */\n      tag_307\n      jump\t// in\n    tag_592:\n        /* \"#utility.yul\":21760:21765   */\n      dup2\n        /* \"#utility.yul\":21757:21789   */\n      eq\n        /* \"#utility.yul\":21747:21807   */\n      tag_593\n      jumpi\n        /* \"#utility.yul\":21803:21804   */\n      0x00\n        /* \"#utility.yul\":21800:21801   */\n      dup1\n        /* \"#utility.yul\":21793:21805   */\n      revert\n        /* \"#utility.yul\":21747:21807   */\n    tag_593:\n        /* \"#utility.yul\":21697:21813   */\n      pop\n      jump\t// out\n        /* \"#utility.yul\":21819:21956   */\n    tag_344:\n        /* \"#utility.yul\":21873:21878   */\n      0x00\n        /* \"#utility.yul\":21904:21910   */\n      dup2\n        /* \"#utility.yul\":21898:21911   */\n      mload\n        /* \"#utility.yul\":21889:21911   */\n      swap1\n      pop\n        /* \"#utility.yul\":21920:21950   */\n      tag_595\n        /* \"#utility.yul\":21944:21949   */\n      dup2\n        /* \"#utility.yul\":21920:21950   */\n      tag_343\n      jump\t// in\n    tag_595:\n        /* \"#utility.yul\":21819:21956   */\n      swap3\n      swap2\n      pop\n      pop\n      jump\t// out\n        /* \"#utility.yul\":21962:23760   */\n    tag_186:\n        /* \"#utility.yul\":22131:22137   */\n      0x00\n        /* \"#utility.yul\":22139:22145   */\n      dup1\n        /* \"#utility.yul\":22147:22153   */\n      0x00\n        /* \"#utility.yul\":22155:22161   */\n      dup1\n        /* \"#utility.yul\":22163:22169   */\n      0x00\n        /* \"#utility.yul\":22171:22177   */\n      dup1\n        /* \"#utility.yul\":22179:22185   */\n      0x00\n        /* \"#utility.yul\":22187:22193   */\n      dup1\n        /* \"#utility.yul\":22195:22201   */\n      0x00\n        /* \"#utility.yul\":22203:22209   */\n      dup1\n        /* \"#utility.yul\":22252:22255   */\n      0x0140\n        /* \"#utility.yul\":22240:22249   */\n      dup12\n        /* \"#utility.yul\":22231:22238   */\n      dup14\n        /* \"#utility.yul\":22227:22250   */\n      sub\n        /* \"#utility.yul\":22223:22256   */\n      slt\n        /* \"#utility.yul\":22220:22340   */\n      iszero\n      tag_597\n      jumpi\n        /* \"#utility.yul\":22259:22338   */\n      tag_598\n      tag_292\n      jump\t// in\n    tag_598:\n        /* \"#utility.yul\":22220:22340   */\n    tag_597:\n        /* \"#utility.yul\":22379:22380   */\n      0x00\n        /* \"#utility.yul\":22404:22468   */\n      tag_599\n        /* \"#utility.yul\":22460:22467   */\n      dup14\n        /* \"#utility.yul\":22451:22457   */\n      dup3\n        /* \"#utility.yul\":22440:22449   */\n      dup15\n        /* \"#utility.yul\":22436:22458   */\n      add\n        /* \"#utility.yul\":22404:22468   */\n      tag_334\n      jump\t// in\n    tag_599:\n        /* \"#utility.yul\":22394:22468   */\n      swap11\n      pop\n        /* \"#utility.yul\":22350:22478   */\n      pop\n        /* \"#utility.yul\":22517:22519   */\n      0x20\n        /* \"#utility.yul\":22543:22615   */\n      tag_600\n        /* \"#utility.yul\":22607:22614   */\n      dup14\n        /* \"#utility.yul\":22598:22604   */\n      dup3\n        /* \"#utility.yul\":22587:22596   */\n      dup15\n        /* \"#utility.yul\":22583:22605   */\n      add\n        /* \"#utility.yul\":22543:22615   */\n      tag_337\n      jump\t// in\n    tag_600:\n        /* \"#utility.yul\":22533:22615   */\n      swap10\n      pop\n        /* \"#utility.yul\":22488:22625   */\n      pop\n        /* \"#utility.yul\":22664:22666   */\n      0x40\n        /* \"#utility.yul\":22690:22754   */\n      tag_601\n        /* \"#utility.yul\":22746:22753   */\n      dup14\n        /* \"#utility.yul\":22737:22743   */\n      dup3\n        /* \"#utility.yul\":22726:22735   */\n      dup15\n        /* \"#utility.yul\":22722:22744   */\n      add\n        /* \"#utility.yul\":22690:22754   */\n      tag_334\n      jump\t// in\n    tag_601:\n        /* \"#utility.yul\":22680:22754   */\n      swap9\n      pop\n        /* \"#utility.yul\":22635:22764   */\n      pop\n        /* \"#utility.yul\":22803:22805   */\n      0x60\n        /* \"#utility.yul\":22829:22901   */\n      tag_602\n        /* \"#utility.yul\":22893:22900   */\n      dup14\n        /* \"#utility.yul\":22884:22890   */\n      dup3\n        /* \"#utility.yul\":22873:22882   */\n      dup15\n        /* \"#utility.yul\":22869:22891   */\n      add\n        /* \"#utility.yul\":22829:22901   */\n      tag_337\n      jump\t// in\n    tag_602:\n        /* \"#utility.yul\":22819:22901   */\n      swap8\n      pop\n        /* \"#utility.yul\":22774:22911   */\n      pop\n        /* \"#utility.yul\":22950:22953   */\n      0x80\n        /* \"#utility.yul\":22977:23049   */\n      tag_603\n        /* \"#utility.yul\":23041:23048   */\n      dup14\n        /* \"#utility.yul\":23032:23038   */\n      dup3\n        /* \"#utility.yul\":23021:23030   */\n      dup15\n        /* \"#utility.yul\":23017:23039   */\n      add\n        /* \"#utility.yul\":22977:23049   */\n      tag_337\n      jump\t// in\n    tag_603:\n        /* \"#utility.yul\":22967:23049   */\n      swap7\n      pop\n        /* \"#utility.yul\":22921:23059   */\n      pop\n        /* \"#utility.yul\":23098:23101   */\n      0xa0\n        /* \"#utility.yul\":23125:23189   */\n      tag_604\n        /* \"#utility.yul\":23181:23188   */\n      dup14\n        /* \"#utility.yul\":23172:23178   */\n      dup3\n        /* \"#utility.yul\":23161:23170   */\n      dup15\n        /* \"#utility.yul\":23157:23179   */\n      add\n        /* \"#utility.yul\":23125:23189   */\n      tag_334\n      jump\t// in\n    tag_604:\n        /* \"#utility.yul\":23115:23189   */\n      swap6\n      pop\n        /* \"#utility.yul\":23069:23199   */\n      pop\n        /* \"#utility.yul\":23238:23241   */\n      0xc0\n        /* \"#utility.yul\":23265:23329   */\n      tag_605\n        /* \"#utility.yul\":23321:23328   */\n      dup14\n        /* \"#utility.yul\":23312:23318   */\n      dup3\n        /* \"#utility.yul\":23301:23310   */\n      dup15\n        /* \"#utility.yul\":23297:23319   */\n      add\n        /* \"#utility.yul\":23265:23329   */\n      tag_334\n      jump\t// in\n    tag_605:\n        /* \"#utility.yul\":23255:23329   */\n      swap5\n      pop\n        /* \"#utility.yul\":23209:23339   */\n      pop\n        /* \"#utility.yul\":23378:23381   */\n      0xe0\n        /* \"#utility.yul\":23405:23469   */\n      tag_606\n        /* \"#utility.yul\":23461:23468   */\n      dup14\n        /* \"#utility.yul\":23452:23458   */\n      dup3\n        /* \"#utility.yul\":23441:23450   */\n      dup15\n        /* \"#utility.yul\":23437:23459   */\n      add\n        /* \"#utility.yul\":23405:23469   */\n      tag_334\n      jump\t// in\n    tag_606:\n        /* \"#utility.yul\":23395:23469   */\n      swap4\n      pop\n        /* \"#utility.yul\":23349:23479   */\n      pop\n        /* \"#utility.yul\":23518:23521   */\n      0x0100\n        /* \"#utility.yul\":23545:23606   */\n      tag_607\n        /* \"#utility.yul\":23598:23605   */\n      dup14\n        /* \"#utility.yul\":23589:23595   */\n      dup3\n        /* \"#utility.yul\":23578:23587   */\n      dup15\n        /* \"#utility.yul\":23574:23596   */\n      add\n        /* \"#utility.yul\":23545:23606   */\n      tag_344\n      jump\t// in\n    tag_607:\n        /* \"#utility.yul\":23535:23606   */\n      swap3\n      pop\n        /* \"#utility.yul\":23489:23616   */\n      pop\n        /* \"#utility.yul\":23655:23658   */\n      0x0120\n        /* \"#utility.yul\":23682:23743   */\n      tag_608\n        /* \"#utility.yul\":23735:23742   */\n      dup14\n        /* \"#utility.yul\":23726:23732   */\n      dup3\n        /* \"#utility.yul\":23715:23724   */\n      dup15\n        /* \"#utility.yul\":23711:23733   */\n      add\n        /* \"#utility.yul\":23682:23743   */\n      tag_344\n      jump\t// in\n    tag_608:\n        /* \"#utility.yul\":23672:23743   */\n      swap2\n      pop\n        /* \"#utility.yul\":23626:23753   */\n      pop\n        /* \"#utility.yul\":21962:23760   */\n      swap3\n      swap6\n      swap9\n      swap12\n      swap2\n      swap5\n      swap8\n      swap11\n      pop\n      swap3\n      swap6\n      swap9\n      pop\n      jump\t// out\n        /* \"#utility.yul\":23766:24319   */\n    tag_194:\n        /* \"#utility.yul\":23943:23947   */\n      0x00\n        /* \"#utility.yul\":23981:23984   */\n      0x80\n        /* \"#utility.yul\":23970:23979   */\n      dup3\n        /* \"#utility.yul\":23966:23985   */\n      add\n        /* \"#utility.yul\":23958:23985   */\n      swap1\n      pop\n        /* \"#utility.yul\":23995:24066   */\n      tag_610\n        /* \"#utility.yul\":24063:24064   */\n      0x00\n        /* \"#utility.yul\":24052:24061   */\n      dup4\n        /* \"#utility.yul\":24048:24065   */\n      add\n        /* \"#utility.yul\":24039:24045   */\n      dup8\n        /* \"#utility.yul\":23995:24066   */\n      tag_315\n      jump\t// in\n    tag_610:\n        /* \"#utility.yul\":24076:24148   */\n      tag_611\n        /* \"#utility.yul\":24144:24146   */\n      0x20\n        /* \"#utility.yul\":24133:24142   */\n      dup4\n        /* \"#utility.yul\":24129:24147   */\n      add\n        /* \"#utility.yul\":24120:24126   */\n      dup7\n        /* \"#utility.yul\":24076:24148   */\n      tag_290\n      jump\t// in\n    tag_611:\n        /* \"#utility.yul\":24158:24230   */\n      tag_612\n        /* \"#utility.yul\":24226:24228   */\n      0x40\n        /* \"#utility.yul\":24215:24224   */\n      dup4\n        /* \"#utility.yul\":24211:24229   */\n      add\n        /* \"#utility.yul\":24202:24208   */\n      dup6\n        /* \"#utility.yul\":24158:24230   */\n      tag_290\n      jump\t// in\n    tag_612:\n        /* \"#utility.yul\":24240:24312   */\n      tag_613\n        /* \"#utility.yul\":24308:24310   */\n      0x60\n        /* \"#utility.yul\":24297:24306   */\n      dup4\n        /* \"#utility.yul\":24293:24311   */\n      add\n        /* \"#utility.yul\":24284:24290   */\n      dup5\n        /* \"#utility.yul\":24240:24312   */\n      tag_315\n      jump\t// in\n    tag_613:\n        /* \"#utility.yul\":23766:24319   */\n      swap6\n      swap5\n      pop\n      pop\n      pop\n      pop\n      pop\n      jump\t// out\n        /* \"#utility.yul\":24325:24503   */\n    tag_345:\n        /* \"#utility.yul\":24465:24495   */\n      0x4661696c656420746f20706c616365206d61726b6574206f7264657200000000\n        /* \"#utility.yul\":24461:24462   */\n      0x00\n        /* \"#utility.yul\":24453:24459   */\n      dup3\n        /* \"#utility.yul\":24449:24463   */\n      add\n        /* \"#utility.yul\":24442:24496   */\n      mstore\n        /* \"#utility.yul\":24325:24503   */\n      pop\n      jump\t// out\n        /* \"#utility.yul\":24509:24875   */\n    tag_346:\n        /* \"#utility.yul\":24651:24654   */\n      0x00\n        /* \"#utility.yul\":24672:24739   */\n      tag_616\n        /* \"#utility.yul\":24736:24738   */\n      0x1c\n        /* \"#utility.yul\":24731:24734   */\n      dup4\n        /* \"#utility.yul\":24672:24739   */\n      tag_331\n      jump\t// in\n    tag_616:\n        /* \"#utility.yul\":24665:24739   */\n      swap2\n      pop\n        /* \"#utility.yul\":24748:24841   */\n      tag_617\n        /* \"#utility.yul\":24837:24840   */\n      dup3\n        /* \"#utility.yul\":24748:24841   */\n      tag_345\n      jump\t// in\n    tag_617:\n        /* \"#utility.yul\":24866:24868   */\n      0x20\n        /* \"#utility.yul\":24861:24864   */\n      dup3\n        /* \"#utility.yul\":24857:24869   */\n      add\n        /* \"#utility.yul\":24850:24869   */\n      swap1\n      pop\n        /* \"#utility.yul\":24509:24875   */\n      swap2\n      swap1\n      pop\n      jump\t// out\n        /* \"#utility.yul\":24881:25300   */\n    tag_201:\n        /* \"#utility.yul\":25047:25051   */\n      0x00\n        /* \"#utility.yul\":25085:25087   */\n      0x20\n        /* \"#utility.yul\":25074:25083   */\n      dup3\n        /* \"#utility.yul\":25070:25088   */\n      add\n        /* \"#utility.yul\":25062:25088   */\n      swap1\n      pop\n        /* \"#utility.yul\":25134:25143   */\n      dup2\n        /* \"#utility.yul\":25128:25132   */\n      dup2\n        /* \"#utility.yul\":25124:25144   */\n      sub\n        /* \"#utility.yul\":25120:25121   */\n      0x00\n        /* \"#utility.yul\":25109:25118   */\n      dup4\n        /* \"#utility.yul\":25105:25122   */\n      add\n        /* \"#utility.yul\":25098:25145   */\n      mstore\n        /* \"#utility.yul\":25162:25293   */\n      tag_619\n        /* \"#utility.yul\":25288:25292   */\n      dup2\n        /* \"#utility.yul\":25162:25293   */\n      tag_346\n      jump\t// in\n    tag_619:\n        /* \"#utility.yul\":25154:25293   */\n      swap1\n      pop\n        /* \"#utility.yul\":24881:25300   */\n      swap2\n      swap1\n      pop\n      jump\t// out\n        /* \"#utility.yul\":25306:26464   */\n    tag_203:\n        /* \"#utility.yul\":25433:25439   */\n      0x00\n        /* \"#utility.yul\":25441:25447   */\n      dup1\n        /* \"#utility.yul\":25449:25455   */\n      0x00\n        /* \"#utility.yul\":25457:25463   */\n      dup1\n        /* \"#utility.yul\":25465:25471   */\n      0x00\n        /* \"#utility.yul\":25473:25479   */\n      dup1\n        /* \"#utility.yul\":25522:25525   */\n      0xc0\n        /* \"#utility.yul\":25510:25519   */\n      dup8\n        /* \"#utility.yul\":25501:25508   */\n      dup10\n        /* \"#utility.yul\":25497:25520   */\n      sub\n        /* \"#utility.yul\":25493:25526   */\n      slt\n        /* \"#utility.yul\":25490:25610   */\n      iszero\n      tag_621\n      jumpi\n        /* \"#utility.yul\":25529:25608   */\n      tag_622\n      tag_292\n      jump\t// in\n    tag_622:\n        /* \"#utility.yul\":25490:25610   */\n    tag_621:\n        /* \"#utility.yul\":25649:25650   */\n      0x00\n        /* \"#utility.yul\":25674:25746   */\n      tag_623\n        /* \"#utility.yul\":25738:25745   */\n      dup10\n        /* \"#utility.yul\":25729:25735   */\n      dup3\n        /* \"#utility.yul\":25718:25727   */\n      dup11\n        /* \"#utility.yul\":25714:25736   */\n      add\n        /* \"#utility.yul\":25674:25746   */\n      tag_337\n      jump\t// in\n    tag_623:\n        /* \"#utility.yul\":25664:25746   */\n      swap7\n      pop\n        /* \"#utility.yul\":25620:25756   */\n      pop\n        /* \"#utility.yul\":25795:25797   */\n      0x20\n        /* \"#utility.yul\":25821:25893   */\n      tag_624\n        /* \"#utility.yul\":25885:25892   */\n      dup10\n        /* \"#utility.yul\":25876:25882   */\n      dup3\n        /* \"#utility.yul\":25865:25874   */\n      dup11\n        /* \"#utility.yul\":25861:25883   */\n      add\n        /* \"#utility.yul\":25821:25893   */\n      tag_337\n      jump\t// in\n    tag_624:\n        /* \"#utility.yul\":25811:25893   */\n      swap6\n      pop\n        /* \"#utility.yul\":25766:25903   */\n      pop\n        /* \"#utility.yul\":25942:25944   */\n      0x40\n        /* \"#utility.yul\":25968:26031   */\n      tag_625\n        /* \"#utility.yul\":26023:26030   */\n      dup10\n        /* \"#utility.yul\":26014:26020   */\n      dup3\n        /* \"#utility.yul\":26003:26012   */\n      dup11\n        /* \"#utility.yul\":25999:26021   */\n      add\n        /* \"#utility.yul\":25968:26031   */\n      tag_340\n      jump\t// in\n    tag_625:\n        /* \"#utility.yul\":25958:26031   */\n      swap5\n      pop\n        /* \"#utility.yul\":25913:26041   */\n      pop\n        /* \"#utility.yul\":26080:26082   */\n      0x60\n        /* \"#utility.yul\":26106:26169   */\n      tag_626\n        /* \"#utility.yul\":26161:26168   */\n      dup10\n        /* \"#utility.yul\":26152:26158   */\n      dup3\n        /* \"#utility.yul\":26141:26150   */\n      dup11\n        /* \"#utility.yul\":26137:26159   */\n      add\n        /* \"#utility.yul\":26106:26169   */\n      tag_340\n      jump\t// in\n    tag_626:\n        /* \"#utility.yul\":26096:26169   */\n      swap4\n      pop\n        /* \"#utility.yul\":26051:26179   */\n      pop\n        /* \"#utility.yul\":26218:26221   */\n      0x80\n        /* \"#utility.yul\":26245:26308   */\n      tag_627\n        /* \"#utility.yul\":26300:26307   */\n      dup10\n        /* \"#utility.yul\":26291:26297   */\n      dup3\n        /* \"#utility.yul\":26280:26289   */\n      dup11\n        /* \"#utility.yul\":26276:26298   */\n      add\n        /* \"#utility.yul\":26245:26308   */\n      tag_340\n      jump\t// in\n    tag_627:\n        /* \"#utility.yul\":26235:26308   */\n      swap3\n      pop\n        /* \"#utility.yul\":26189:26318   */\n      pop\n        /* \"#utility.yul\":26357:26360   */\n      0xa0\n        /* \"#utility.yul\":26384:26447   */\n      tag_628\n        /* \"#utility.yul\":26439:26446   */\n      dup10\n        /* \"#utility.yul\":26430:26436   */\n      dup3\n        /* \"#utility.yul\":26419:26428   */\n      dup11\n        /* \"#utility.yul\":26415:26437   */\n      add\n        /* \"#utility.yul\":26384:26447   */\n      tag_340\n      jump\t// in\n    tag_628:\n        /* \"#utility.yul\":26374:26447   */\n      swap2\n      pop\n        /* \"#utility.yul\":26328:26457   */\n      pop\n        /* \"#utility.yul\":25306:26464   */\n      swap3\n      swap6\n      pop\n      swap3\n      swap6\n      pop\n      swap3\n      swap6\n      jump\t// out\n        /* \"#utility.yul\":26470:26648   */\n    tag_347:\n        /* \"#utility.yul\":26610:26640   */\n      0x4661696c656420746f2063616e63656c206c696d6974206f7264657200000000\n        /* \"#utility.yul\":26606:26607   */\n      0x00\n        /* \"#utility.yul\":26598:26604   */\n      dup3\n        /* \"#utility.yul\":26594:26608   */\n      add\n        /* \"#utility.yul\":26587:26641   */\n      mstore\n        /* \"#utility.yul\":26470:26648   */\n      pop\n      jump\t// out\n        /* \"#utility.yul\":26654:27020   */\n    tag_348:\n        /* \"#utility.yul\":26796:26799   */\n      0x00\n        /* \"#utility.yul\":26817:26884   */\n      tag_631\n        /* \"#utility.yul\":26881:26883   */\n      0x1c\n        /* \"#utility.yul\":26876:26879   */\n      dup4\n        /* \"#utility.yul\":26817:26884   */\n      tag_331\n      jump\t// in\n    tag_631:\n        /* \"#utility.yul\":26810:26884   */\n      swap2\n      pop\n        /* \"#utility.yul\":26893:26986   */\n      tag_632\n        /* \"#utility.yul\":26982:26985   */\n      dup3\n        /* \"#utility.yul\":26893:26986   */\n      tag_347\n      jump\t// in\n    tag_632:\n        /* \"#utility.yul\":27011:27013   */\n      0x20\n        /* \"#utility.yul\":27006:27009   */\n      dup3\n        /* \"#utility.yul\":27002:27014   */\n      add\n        /* \"#utility.yul\":26995:27014   */\n      swap1\n      pop\n        /* \"#utility.yul\":26654:27020   */\n      swap2\n      swap1\n      pop\n      jump\t// out\n        /* \"#utility.yul\":27026:27445   */\n    tag_214:\n        /* \"#utility.yul\":27192:27196   */\n      0x00\n        /* \"#utility.yul\":27230:27232   */\n      0x20\n        /* \"#utility.yul\":27219:27228   */\n      dup3\n        /* \"#utility.yul\":27215:27233   */\n      add\n        /* \"#utility.yul\":27207:27233   */\n      swap1\n      pop\n        /* \"#utility.yul\":27279:27288   */\n      dup2\n        /* \"#utility.yul\":27273:27277   */\n      dup2\n        /* \"#utility.yul\":27269:27289   */\n      sub\n        /* \"#utility.yul\":27265:27266   */\n      0x00\n        /* \"#utility.yul\":27254:27263   */\n      dup4\n        /* \"#utility.yul\":27250:27267   */\n      add\n        /* \"#utility.yul\":27243:27290   */\n      mstore\n        /* \"#utility.yul\":27307:27438   */\n      tag_634\n        /* \"#utility.yul\":27433:27437   */\n      dup2\n        /* \"#utility.yul\":27307:27438   */\n      tag_348\n      jump\t// in\n    tag_634:\n        /* \"#utility.yul\":27299:27438   */\n      swap1\n      pop\n        /* \"#utility.yul\":27026:27445   */\n      swap2\n      swap1\n      pop\n      jump\t// out\n        /* \"#utility.yul\":27451:27685   */\n    tag_349:\n        /* \"#utility.yul\":27591:27625   */\n      0x4f6e6c79206465706c6f7965722063616e207365742074686520527573742063\n        /* \"#utility.yul\":27587:27588   */\n      0x00\n        /* \"#utility.yul\":27579:27585   */\n      dup3\n        /* \"#utility.yul\":27575:27589   */\n      add\n        /* \"#utility.yul\":27568:27626   */\n      mstore\n        /* \"#utility.yul\":27660:27677   */\n      0x6f6e747261637420616464726573730000000000000000000000000000000000\n        /* \"#utility.yul\":27655:27657   */\n      0x20\n        /* \"#utility.yul\":27647:27653   */\n      dup3\n        /* \"#utility.yul\":27643:27658   */\n      add\n        /* \"#utility.yul\":27636:27678   */\n      mstore\n        /* \"#utility.yul\":27451:27685   */\n      pop\n      jump\t// out\n        /* \"#utility.yul\":27691:28057   */\n    tag_350:\n        /* \"#utility.yul\":27833:27836   */\n      0x00\n        /* \"#utility.yul\":27854:27921   */\n      tag_637\n        /* \"#utility.yul\":27918:27920   */\n      0x2f\n        /* \"#utility.yul\":27913:27916   */\n      dup4\n        /* \"#utility.yul\":27854:27921   */\n      tag_331\n      jump\t// in\n    tag_637:\n        /* \"#utility.yul\":27847:27921   */\n      swap2\n      pop\n        /* \"#utility.yul\":27930:28023   */\n      tag_638\n        /* \"#utility.yul\":28019:28022   */\n      dup3\n        /* \"#utility.yul\":27930:28023   */\n      tag_349\n      jump\t// in\n    tag_638:\n        /* \"#utility.yul\":28048:28050   */\n      0x40\n        /* \"#utility.yul\":28043:28046   */\n      dup3\n        /* \"#utility.yul\":28039:28051   */\n      add\n        /* \"#utility.yul\":28032:28051   */\n      swap1\n      pop\n        /* \"#utility.yul\":27691:28057   */\n      swap2\n      swap1\n      pop\n      jump\t// out\n        /* \"#utility.yul\":28063:28482   */\n    tag_227:\n        /* \"#utility.yul\":28229:28233   */\n      0x00\n        /* \"#utility.yul\":28267:28269   */\n      0x20\n        /* \"#utility.yul\":28256:28265   */\n      dup3\n        /* \"#utility.yul\":28252:28270   */\n      add\n        /* \"#utility.yul\":28244:28270   */\n      swap1\n      pop\n        /* \"#utility.yul\":28316:28325   */\n      dup2\n        /* \"#utility.yul\":28310:28314   */\n      dup2\n        /* \"#utility.yul\":28306:28326   */\n      sub\n        /* \"#utility.yul\":28302:28303   */\n      0x00\n        /* \"#utility.yul\":28291:28300   */\n      dup4\n        /* \"#utility.yul\":28287:28304   */\n      add\n        /* \"#utility.yul\":28280:28327   */\n      mstore\n        /* \"#utility.yul\":28344:28475   */\n      tag_640\n        /* \"#utility.yul\":28470:28474   */\n      dup2\n        /* \"#utility.yul\":28344:28475   */\n      tag_350\n      jump\t// in\n    tag_640:\n        /* \"#utility.yul\":28336:28475   */\n      swap1\n      pop\n        /* \"#utility.yul\":28063:28482   */\n      swap2\n      swap1\n      pop\n      jump\t// out\n        /* \"#utility.yul\":28488:28708   */\n    tag_351:\n        /* \"#utility.yul\":28628:28662   */\n      0x4661696c656420746f2063616e63656c20616c6c206c696d6974206f72646572\n        /* \"#utility.yul\":28624:28625   */\n      0x00\n        /* \"#utility.yul\":28616:28622   */\n      dup3\n        /* \"#utility.yul\":28612:28626   */\n      add\n        /* \"#utility.yul\":28605:28663   */\n      mstore\n        /* \"#utility.yul\":28697:28700   */\n      0x7300000000000000000000000000000000000000000000000000000000000000\n        /* \"#utility.yul\":28692:28694   */\n      0x20\n        /* \"#utility.yul\":28684:28690   */\n      dup3\n        /* \"#utility.yul\":28680:28695   */\n      add\n        /* \"#utility.yul\":28673:28701   */\n      mstore\n        /* \"#utility.yul\":28488:28708   */\n      pop\n      jump\t// out\n        /* \"#utility.yul\":28714:29080   */\n    tag_352:\n        /* \"#utility.yul\":28856:28859   */\n      0x00\n        /* \"#utility.yul\":28877:28944   */\n      tag_643\n        /* \"#utility.yul\":28941:28943   */\n      0x21\n        /* \"#utility.yul\":28936:28939   */\n      dup4\n        /* \"#utility.yul\":28877:28944   */\n      tag_331\n      jump\t// in\n    tag_643:\n        /* \"#utility.yul\":28870:28944   */\n      swap2\n      pop\n        /* \"#utility.yul\":28953:29046   */\n      tag_644\n        /* \"#utility.yul\":29042:29045   */\n      dup3\n        /* \"#utility.yul\":28953:29046   */\n      tag_351\n      jump\t// in\n    tag_644:\n        /* \"#utility.yul\":29071:29073   */\n      0x40\n        /* \"#utility.yul\":29066:29069   */\n      dup3\n        /* \"#utility.yul\":29062:29074   */\n      add\n        /* \"#utility.yul\":29055:29074   */\n      swap1\n      pop\n        /* \"#utility.yul\":28714:29080   */\n      swap2\n      swap1\n      pop\n      jump\t// out\n        /* \"#utility.yul\":29086:29505   */\n    tag_241:\n        /* \"#utility.yul\":29252:29256   */\n      0x00\n        /* \"#utility.yul\":29290:29292   */\n      0x20\n        /* \"#utility.yul\":29279:29288   */\n      dup3\n        /* \"#utility.yul\":29275:29293   */\n      add\n        /* \"#utility.yul\":29267:29293   */\n      swap1\n      pop\n        /* \"#utility.yul\":29339:29348   */\n      dup2\n        /* \"#utility.yul\":29333:29337   */\n      dup2\n        /* \"#utility.yul\":29329:29349   */\n      sub\n        /* \"#utility.yul\":29325:29326   */\n      0x00\n        /* \"#utility.yul\":29314:29323   */\n      dup4\n        /* \"#utility.yul\":29310:29327   */\n      add\n        /* \"#utility.yul\":29303:29350   */\n      mstore\n        /* \"#utility.yul\":29367:29498   */\n      tag_646\n        /* \"#utility.yul\":29493:29497   */\n      dup2\n        /* \"#utility.yul\":29367:29498   */\n      tag_352\n      jump\t// in\n    tag_646:\n        /* \"#utility.yul\":29359:29498   */\n      swap1\n      pop\n        /* \"#utility.yul\":29086:29505   */\n      swap2\n      swap1\n      pop\n      jump\t// out\n        /* \"#utility.yul\":29511:29666   */\n    tag_353:\n        /* \"#utility.yul\":29565:29570   */\n      0x00\n        /* \"#utility.yul\":29603:29609   */\n      dup2\n        /* \"#utility.yul\":29590:29610   */\n      calldataload\n        /* \"#utility.yul\":29581:29610   */\n      swap1\n      pop\n        /* \"#utility.yul\":29619:29660   */\n      tag_648\n        /* \"#utility.yul\":29654:29659   */\n      dup2\n        /* \"#utility.yul\":29619:29660   */\n      tag_336\n      jump\t// in\n    tag_648:\n        /* \"#utility.yul\":29511:29666   */\n      swap3\n      swap2\n      pop\n      pop\n      jump\t// out\n        /* \"#utility.yul\":29672:29789   */\n    tag_354:\n        /* \"#utility.yul\":29781:29782   */\n      0x00\n        /* \"#utility.yul\":29778:29779   */\n      dup1\n        /* \"#utility.yul\":29771:29783   */\n      revert\n        /* \"#utility.yul\":29795:29897   */\n    tag_355:\n        /* \"#utility.yul\":29836:29842   */\n      0x00\n        /* \"#utility.yul\":29887:29889   */\n      0x1f\n        /* \"#utility.yul\":29883:29890   */\n      not\n        /* \"#utility.yul\":29878:29880   */\n      0x1f\n        /* \"#utility.yul\":29871:29876   */\n      dup4\n        /* \"#utility.yul\":29867:29881   */\n      add\n        /* \"#utility.yul\":29863:29891   */\n      and\n        /* \"#utility.yul\":29853:29891   */\n      swap1\n      pop\n        /* \"#utility.yul\":29795:29897   */\n      swap2\n      swap1\n      pop\n      jump\t// out\n        /* \"#utility.yul\":29903:30083   */\n    tag_356:\n        /* \"#utility.yul\":29951:30028   */\n      0x4e487b7100000000000000000000000000000000000000000000000000000000\n        /* \"#utility.yul\":29948:29949   */\n      0x00\n        /* \"#utility.yul\":29941:30029   */\n      mstore\n        /* \"#utility.yul\":30048:30052   */\n      0x41\n        /* \"#utility.yul\":30045:30046   */\n      0x04\n        /* \"#utility.yul\":30038:30053   */\n      mstore\n        /* \"#utility.yul\":30072:30076   */\n      0x24\n        /* \"#utility.yul\":30069:30070   */\n      0x00\n        /* \"#utility.yul\":30062:30077   */\n      revert\n        /* \"#utility.yul\":30089:30370   */\n    tag_357:\n        /* \"#utility.yul\":30172:30199   */\n      tag_653\n        /* \"#utility.yul\":30194:30198   */\n      dup3\n        /* \"#utility.yul\":30172:30199   */\n      tag_355\n      jump\t// in\n    tag_653:\n        /* \"#utility.yul\":30164:30170   */\n      dup2\n        /* \"#utility.yul\":30160:30200   */\n      add\n        /* \"#utility.yul\":30302:30308   */\n      dup2\n        /* \"#utility.yul\":30290:30300   */\n      dup2\n        /* \"#utility.yul\":30287:30309   */\n      lt\n        /* \"#utility.yul\":30266:30284   */\n      0xffffffffffffffff\n        /* \"#utility.yul\":30254:30264   */\n      dup3\n        /* \"#utility.yul\":30251:30285   */\n      gt\n        /* \"#utility.yul\":30248:30310   */\n      or\n        /* \"#utility.yul\":30245:30333   */\n      iszero\n      tag_654\n      jumpi\n        /* \"#utility.yul\":30313:30331   */\n      tag_655\n      tag_356\n      jump\t// in\n    tag_655:\n        /* \"#utility.yul\":30245:30333   */\n    tag_654:\n        /* \"#utility.yul\":30353:30363   */\n      dup1\n        /* \"#utility.yul\":30349:30351   */\n      0x40\n        /* \"#utility.yul\":30342:30364   */\n      mstore\n        /* \"#utility.yul\":30132:30370   */\n      pop\n        /* \"#utility.yul\":30089:30370   */\n      pop\n      pop\n      jump\t// out\n        /* \"#utility.yul\":30376:30505   */\n    tag_358:\n        /* \"#utility.yul\":30410:30416   */\n      0x00\n        /* \"#utility.yul\":30437:30457   */\n      tag_657\n      tag_291\n      jump\t// in\n    tag_657:\n        /* \"#utility.yul\":30427:30457   */\n      swap1\n      pop\n        /* \"#utility.yul\":30466:30499   */\n      tag_658\n        /* \"#utility.yul\":30494:30498   */\n      dup3\n        /* \"#utility.yul\":30486:30492   */\n      dup3\n        /* \"#utility.yul\":30466:30499   */\n      tag_357\n      jump\t// in\n    tag_658:\n        /* \"#utility.yul\":30376:30505   */\n      swap2\n      swap1\n      pop\n      jump\t// out\n        /* \"#utility.yul\":30511:30819   */\n    tag_359:\n        /* \"#utility.yul\":30573:30577   */\n      0x00\n        /* \"#utility.yul\":30663:30681   */\n      0xffffffffffffffff\n        /* \"#utility.yul\":30655:30661   */\n      dup3\n        /* \"#utility.yul\":30652:30682   */\n      gt\n        /* \"#utility.yul\":30649:30705   */\n      iszero\n      tag_660\n      jumpi\n        /* \"#utility.yul\":30685:30703   */\n      tag_661\n      tag_356\n      jump\t// in\n    tag_661:\n        /* \"#utility.yul\":30649:30705   */\n    tag_660:\n        /* \"#utility.yul\":30723:30752   */\n      tag_662\n        /* \"#utility.yul\":30745:30751   */\n      dup3\n        /* \"#utility.yul\":30723:30752   */\n      tag_355\n      jump\t// in\n    tag_662:\n        /* \"#utility.yul\":30715:30752   */\n      swap1\n      pop\n        /* \"#utility.yul\":30807:30811   */\n      0x20\n        /* \"#utility.yul\":30801:30805   */\n      dup2\n        /* \"#utility.yul\":30797:30812   */\n      add\n        /* \"#utility.yul\":30789:30812   */\n      swap1\n      pop\n        /* \"#utility.yul\":30511:30819   */\n      swap2\n      swap1\n      pop\n      jump\t// out\n        /* \"#utility.yul\":30825:30973   */\n    tag_360:\n        /* \"#utility.yul\":30923:30929   */\n      dup3\n        /* \"#utility.yul\":30918:30921   */\n      dup2\n        /* \"#utility.yul\":30913:30916   */\n      dup4\n        /* \"#utility.yul\":30900:30930   */\n      calldatacopy\n        /* \"#utility.yul\":30964:30965   */\n      0x00\n        /* \"#utility.yul\":30955:30961   */\n      dup4\n        /* \"#utility.yul\":30950:30953   */\n      dup4\n        /* \"#utility.yul\":30946:30962   */\n      add\n        /* \"#utility.yul\":30939:30966   */\n      mstore\n        /* \"#utility.yul\":30825:30973   */\n      pop\n      pop\n      pop\n      jump\t// out\n        /* \"#utility.yul\":30979:31404   */\n    tag_361:\n        /* \"#utility.yul\":31057:31062   */\n      0x00\n        /* \"#utility.yul\":31082:31148   */\n      tag_665\n        /* \"#utility.yul\":31098:31147   */\n      tag_666\n        /* \"#utility.yul\":31140:31146   */\n      dup5\n        /* \"#utility.yul\":31098:31147   */\n      tag_359\n      jump\t// in\n    tag_666:\n        /* \"#utility.yul\":31082:31148   */\n      tag_358\n      jump\t// in\n    tag_665:\n        /* \"#utility.yul\":31073:31148   */\n      swap1\n      pop\n        /* \"#utility.yul\":31171:31177   */\n      dup3\n        /* \"#utility.yul\":31164:31169   */\n      dup2\n        /* \"#utility.yul\":31157:31178   */\n      mstore\n        /* \"#utility.yul\":31209:31213   */\n      0x20\n        /* \"#utility.yul\":31202:31207   */\n      dup2\n        /* \"#utility.yul\":31198:31214   */\n      add\n        /* \"#utility.yul\":31247:31250   */\n      dup5\n        /* \"#utility.yul\":31238:31244   */\n      dup5\n        /* \"#utility.yul\":31233:31236   */\n      dup5\n        /* \"#utility.yul\":31229:31245   */\n      add\n        /* \"#utility.yul\":31226:31251   */\n      gt\n        /* \"#utility.yul\":31223:31335   */\n      iszero\n      tag_667\n      jumpi\n        /* \"#utility.yul\":31254:31333   */\n      tag_668\n      tag_354\n      jump\t// in\n    tag_668:\n        /* \"#utility.yul\":31223:31335   */\n    tag_667:\n        /* \"#utility.yul\":31344:31398   */\n      tag_669\n        /* \"#utility.yul\":31391:31397   */\n      dup5\n        /* \"#utility.yul\":31386:31389   */\n      dup3\n        /* \"#utility.yul\":31381:31384   */\n      dup6\n        /* \"#utility.yul\":31344:31398   */\n      tag_360\n      jump\t// in\n    tag_669:\n        /* \"#utility.yul\":31063:31404   */\n      pop\n        /* \"#utility.yul\":30979:31404   */\n      swap4\n      swap3\n      pop\n      pop\n      pop\n      jump\t// out\n        /* \"#utility.yul\":31424:31764   */\n    tag_362:\n        /* \"#utility.yul\":31480:31485   */\n      0x00\n        /* \"#utility.yul\":31529:31532   */\n      dup3\n        /* \"#utility.yul\":31522:31526   */\n      0x1f\n        /* \"#utility.yul\":31514:31520   */\n      dup4\n        /* \"#utility.yul\":31510:31527   */\n      add\n        /* \"#utility.yul\":31506:31533   */\n      slt\n        /* \"#utility.yul\":31496:31618   */\n      tag_671\n      jumpi\n        /* \"#utility.yul\":31537:31616   */\n      tag_672\n      tag_299\n      jump\t// in\n    tag_672:\n        /* \"#utility.yul\":31496:31618   */\n    tag_671:\n        /* \"#utility.yul\":31654:31660   */\n      dup2\n        /* \"#utility.yul\":31641:31661   */\n      calldataload\n        /* \"#utility.yul\":31679:31758   */\n      tag_673\n        /* \"#utility.yul\":31754:31757   */\n      dup5\n        /* \"#utility.yul\":31746:31752   */\n      dup3\n        /* \"#utility.yul\":31739:31743   */\n      0x20\n        /* \"#utility.yul\":31731:31737   */\n      dup7\n        /* \"#utility.yul\":31727:31744   */\n      add\n        /* \"#utility.yul\":31679:31758   */\n      tag_361\n      jump\t// in\n    tag_673:\n        /* \"#utility.yul\":31670:31758   */\n      swap2\n      pop\n        /* \"#utility.yul\":31486:31764   */\n      pop\n        /* \"#utility.yul\":31424:31764   */\n      swap3\n      swap2\n      pop\n      pop\n      jump\t// out\n        /* \"#utility.yul\":31770:33201   */\n    tag_249:\n        /* \"#utility.yul\":31917:31923   */\n      0x00\n        /* \"#utility.yul\":31925:31931   */\n      dup1\n        /* \"#utility.yul\":31933:31939   */\n      0x00\n        /* \"#utility.yul\":31941:31947   */\n      dup1\n        /* \"#utility.yul\":31949:31955   */\n      0x00\n        /* \"#utility.yul\":31957:31963   */\n      dup1\n        /* \"#utility.yul\":31965:31971   */\n      0x00\n        /* \"#utility.yul\":32014:32017   */\n      0xe0\n        /* \"#utility.yul\":32002:32011   */\n      dup9\n        /* \"#utility.yul\":31993:32000   */\n      dup11\n        /* \"#utility.yul\":31989:32012   */\n      sub\n        /* \"#utility.yul\":31985:32018   */\n      slt\n        /* \"#utility.yul\":31982:32102   */\n      iszero\n      tag_675\n      jumpi\n        /* \"#utility.yul\":32021:32100   */\n      tag_676\n      tag_292\n      jump\t// in\n    tag_676:\n        /* \"#utility.yul\":31982:32102   */\n    tag_675:\n        /* \"#utility.yul\":32141:32142   */\n      0x00\n        /* \"#utility.yul\":32166:32227   */\n      tag_677\n        /* \"#utility.yul\":32219:32226   */\n      dup11\n        /* \"#utility.yul\":32210:32216   */\n      dup3\n        /* \"#utility.yul\":32199:32208   */\n      dup12\n        /* \"#utility.yul\":32195:32217   */\n      add\n        /* \"#utility.yul\":32166:32227   */\n      tag_353\n      jump\t// in\n    tag_677:\n        /* \"#utility.yul\":32156:32227   */\n      swap8\n      pop\n        /* \"#utility.yul\":32112:32237   */\n      pop\n        /* \"#utility.yul\":32276:32278   */\n      0x20\n        /* \"#utility.yul\":32302:32355   */\n      tag_678\n        /* \"#utility.yul\":32347:32354   */\n      dup11\n        /* \"#utility.yul\":32338:32344   */\n      dup3\n        /* \"#utility.yul\":32327:32336   */\n      dup12\n        /* \"#utility.yul\":32323:32345   */\n      add\n        /* \"#utility.yul\":32302:32355   */\n      tag_314\n      jump\t// in\n    tag_678:\n        /* \"#utility.yul\":32292:32355   */\n      swap7\n      pop\n        /* \"#utility.yul\":32247:32365   */\n      pop\n        /* \"#utility.yul\":32432:32434   */\n      0x40\n        /* \"#utility.yul\":32421:32430   */\n      dup9\n        /* \"#utility.yul\":32417:32435   */\n      add\n        /* \"#utility.yul\":32404:32436   */\n      calldataload\n        /* \"#utility.yul\":32463:32481   */\n      0xffffffffffffffff\n        /* \"#utility.yul\":32455:32461   */\n      dup2\n        /* \"#utility.yul\":32452:32482   */\n      gt\n        /* \"#utility.yul\":32449:32566   */\n      iszero\n      tag_679\n      jumpi\n        /* \"#utility.yul\":32485:32564   */\n      tag_680\n      tag_293\n      jump\t// in\n    tag_680:\n        /* \"#utility.yul\":32449:32566   */\n    tag_679:\n        /* \"#utility.yul\":32590:32653   */\n      tag_681\n        /* \"#utility.yul\":32645:32652   */\n      dup11\n        /* \"#utility.yul\":32636:32642   */\n      dup3\n        /* \"#utility.yul\":32625:32634   */\n      dup12\n        /* \"#utility.yul\":32621:32643   */\n      add\n        /* \"#utility.yul\":32590:32653   */\n      tag_362\n      jump\t// in\n    tag_681:\n        /* \"#utility.yul\":32580:32653   */\n      swap6\n      pop\n        /* \"#utility.yul\":32375:32663   */\n      pop\n        /* \"#utility.yul\":32702:32704   */\n      0x60\n        /* \"#utility.yul\":32728:32789   */\n      tag_682\n        /* \"#utility.yul\":32781:32788   */\n      dup11\n        /* \"#utility.yul\":32772:32778   */\n      dup3\n        /* \"#utility.yul\":32761:32770   */\n      dup12\n        /* \"#utility.yul\":32757:32779   */\n      add\n        /* \"#utility.yul\":32728:32789   */\n      tag_353\n      jump\t// in\n    tag_682:\n        /* \"#utility.yul\":32718:32789   */\n      swap5\n      pop\n        /* \"#utility.yul\":32673:32799   */\n      pop\n        /* \"#utility.yul\":32838:32841   */\n      0x80\n        /* \"#utility.yul\":32865:32926   */\n      tag_683\n        /* \"#utility.yul\":32918:32925   */\n      dup11\n        /* \"#utility.yul\":32909:32915   */\n      dup3\n        /* \"#utility.yul\":32898:32907   */\n      dup12\n        /* \"#utility.yul\":32894:32916   */\n      add\n        /* \"#utility.yul\":32865:32926   */\n      tag_353\n      jump\t// in\n    tag_683:\n        /* \"#utility.yul\":32855:32926   */\n      swap4\n      pop\n        /* \"#utility.yul\":32809:32936   */\n      pop\n        /* \"#utility.yul\":32975:32978   */\n      0xa0\n        /* \"#utility.yul\":33002:33055   */\n      tag_684\n        /* \"#utility.yul\":33047:33054   */\n      dup11\n        /* \"#utility.yul\":33038:33044   */\n      dup3\n        /* \"#utility.yul\":33027:33036   */\n      dup12\n        /* \"#utility.yul\":33023:33045   */\n      add\n        /* \"#utility.yul\":33002:33055   */\n      tag_314\n      jump\t// in\n    tag_684:\n        /* \"#utility.yul\":32992:33055   */\n      swap3\n      pop\n        /* \"#utility.yul\":32946:33065   */\n      pop\n        /* \"#utility.yul\":33104:33107   */\n      0xc0\n        /* \"#utility.yul\":33131:33184   */\n      tag_685\n        /* \"#utility.yul\":33176:33183   */\n      dup11\n        /* \"#utility.yul\":33167:33173   */\n      dup3\n        /* \"#utility.yul\":33156:33165   */\n      dup12\n        /* \"#utility.yul\":33152:33174   */\n      add\n        /* \"#utility.yul\":33131:33184   */\n      tag_314\n      jump\t// in\n    tag_685:\n        /* \"#utility.yul\":33121:33184   */\n      swap2\n      pop\n        /* \"#utility.yul\":33075:33194   */\n      pop\n        /* \"#utility.yul\":31770:33201   */\n      swap3\n      swap6\n      swap9\n      swap2\n      swap5\n      swap8\n      pop\n      swap3\n      swap6\n      pop\n      jump\t// out\n        /* \"#utility.yul\":33207:33355   */\n    tag_363:\n        /* \"#utility.yul\":33309:33320   */\n      0x00\n        /* \"#utility.yul\":33346:33349   */\n      dup2\n        /* \"#utility.yul\":33331:33349   */\n      swap1\n      pop\n        /* \"#utility.yul\":33207:33355   */\n      swap3\n      swap2\n      pop\n      pop\n      jump\t// out\n        /* \"#utility.yul\":33361:33522   */\n    tag_364:\n        /* \"#utility.yul\":33501:33514   */\n      0x4c494d49545f4f52444552000000000000000000000000000000000000000000\n        /* \"#utility.yul\":33497:33498   */\n      0x00\n        /* \"#utility.yul\":33489:33495   */\n      dup3\n        /* \"#utility.yul\":33485:33499   */\n      add\n        /* \"#utility.yul\":33478:33515   */\n      mstore\n        /* \"#utility.yul\":33361:33522   */\n      pop\n      jump\t// out\n        /* \"#utility.yul\":33528:33930   */\n    tag_365:\n        /* \"#utility.yul\":33688:33691   */\n      0x00\n        /* \"#utility.yul\":33709:33794   */\n      tag_689\n        /* \"#utility.yul\":33791:33793   */\n      0x0b\n        /* \"#utility.yul\":33786:33789   */\n      dup4\n        /* \"#utility.yul\":33709:33794   */\n      tag_363\n      jump\t// in\n    tag_689:\n        /* \"#utility.yul\":33702:33794   */\n      swap2\n      pop\n        /* \"#utility.yul\":33803:33896   */\n      tag_690\n        /* \"#utility.yul\":33892:33895   */\n      dup3\n        /* \"#utility.yul\":33803:33896   */\n      tag_364\n      jump\t// in\n    tag_690:\n        /* \"#utility.yul\":33921:33923   */\n      0x0b\n        /* \"#utility.yul\":33916:33919   */\n      dup3\n        /* \"#utility.yul\":33912:33924   */\n      add\n        /* \"#utility.yul\":33905:33924   */\n      swap1\n      pop\n        /* \"#utility.yul\":33528:33930   */\n      swap2\n      swap1\n      pop\n      jump\t// out\n        /* \"#utility.yul\":33936:34317   */\n    tag_252:\n        /* \"#utility.yul\":34121:34124   */\n      0x00\n        /* \"#utility.yul\":34143:34291   */\n      tag_692\n        /* \"#utility.yul\":34287:34290   */\n      dup3\n        /* \"#utility.yul\":34143:34291   */\n      tag_365\n      jump\t// in\n    tag_692:\n        /* \"#utility.yul\":34136:34291   */\n      swap2\n      pop\n        /* \"#utility.yul\":34308:34311   */\n      dup2\n        /* \"#utility.yul\":34301:34311   */\n      swap1\n      pop\n        /* \"#utility.yul\":33936:34317   */\n      swap2\n      swap1\n      pop\n      jump\t// out\n        /* \"#utility.yul\":34323:34422   */\n    tag_366:\n        /* \"#utility.yul\":34375:34381   */\n      0x00\n        /* \"#utility.yul\":34409:34414   */\n      dup2\n        /* \"#utility.yul\":34403:34415   */\n      mload\n        /* \"#utility.yul\":34393:34415   */\n      swap1\n      pop\n        /* \"#utility.yul\":34323:34422   */\n      swap2\n      swap1\n      pop\n      jump\t// out\n        /* \"#utility.yul\":34428:34818   */\n    tag_367:\n        /* \"#utility.yul\":34534:34537   */\n      0x00\n        /* \"#utility.yul\":34562:34601   */\n      tag_695\n        /* \"#utility.yul\":34595:34600   */\n      dup3\n        /* \"#utility.yul\":34562:34601   */\n      tag_366\n      jump\t// in\n    tag_695:\n        /* \"#utility.yul\":34617:34706   */\n      tag_696\n        /* \"#utility.yul\":34699:34705   */\n      dup2\n        /* \"#utility.yul\":34694:34697   */\n      dup6\n        /* \"#utility.yul\":34617:34706   */\n      tag_363\n      jump\t// in\n    tag_696:\n        /* \"#utility.yul\":34610:34706   */\n      swap4\n      pop\n        /* \"#utility.yul\":34715:34780   */\n      tag_697\n        /* \"#utility.yul\":34773:34779   */\n      dup2\n        /* \"#utility.yul\":34768:34771   */\n      dup6\n        /* \"#utility.yul\":34761:34765   */\n      0x20\n        /* \"#utility.yul\":34754:34759   */\n      dup7\n        /* \"#utility.yul\":34750:34766   */\n      add\n        /* \"#utility.yul\":34715:34780   */\n      tag_329\n      jump\t// in\n    tag_697:\n        /* \"#utility.yul\":34805:34811   */\n      dup1\n        /* \"#utility.yul\":34800:34803   */\n      dup5\n        /* \"#utility.yul\":34796:34812   */\n      add\n        /* \"#utility.yul\":34789:34812   */\n      swap2\n      pop\n        /* \"#utility.yul\":34538:34818   */\n      pop\n        /* \"#utility.yul\":34428:34818   */\n      swap3\n      swap2\n      pop\n      pop\n      jump\t// out\n        /* \"#utility.yul\":34824:35099   */\n    tag_254:\n        /* \"#utility.yul\":34956:34959   */\n      0x00\n        /* \"#utility.yul\":34978:35073   */\n      tag_699\n        /* \"#utility.yul\":35069:35072   */\n      dup3\n        /* \"#utility.yul\":35060:35066   */\n      dup5\n        /* \"#utility.yul\":34978:35073   */\n      tag_367\n      jump\t// in\n    tag_699:\n        /* \"#utility.yul\":34971:35073   */\n      swap2\n      pop\n        /* \"#utility.yul\":35090:35093   */\n      dup2\n        /* \"#utility.yul\":35083:35093   */\n      swap1\n      pop\n        /* \"#utility.yul\":34824:35099   */\n      swap3\n      swap2\n      pop\n      pop\n      jump\t// out\n        /* \"#utility.yul\":35105:35987   */\n    tag_257:\n        /* \"#utility.yul\":35364:35368   */\n      0x00\n        /* \"#utility.yul\":35402:35405   */\n      0xe0\n        /* \"#utility.yul\":35391:35400   */\n      dup3\n        /* \"#utility.yul\":35387:35406   */\n      add\n        /* \"#utility.yul\":35379:35406   */\n      swap1\n      pop\n        /* \"#utility.yul\":35416:35487   */\n      tag_701\n        /* \"#utility.yul\":35484:35485   */\n      0x00\n        /* \"#utility.yul\":35473:35482   */\n      dup4\n        /* \"#utility.yul\":35469:35486   */\n      add\n        /* \"#utility.yul\":35460:35466   */\n      dup11\n        /* \"#utility.yul\":35416:35487   */\n      tag_315\n      jump\t// in\n    tag_701:\n        /* \"#utility.yul\":35497:35569   */\n      tag_702\n        /* \"#utility.yul\":35565:35567   */\n      0x20\n        /* \"#utility.yul\":35554:35563   */\n      dup4\n        /* \"#utility.yul\":35550:35568   */\n      add\n        /* \"#utility.yul\":35541:35547   */\n      dup10\n        /* \"#utility.yul\":35497:35569   */\n      tag_290\n      jump\t// in\n    tag_702:\n        /* \"#utility.yul\":35579:35651   */\n      tag_703\n        /* \"#utility.yul\":35647:35649   */\n      0x40\n        /* \"#utility.yul\":35636:35645   */\n      dup4\n        /* \"#utility.yul\":35632:35650   */\n      add\n        /* \"#utility.yul\":35623:35629   */\n      dup9\n        /* \"#utility.yul\":35579:35651   */\n      tag_290\n      jump\t// in\n    tag_703:\n        /* \"#utility.yul\":35661:35733   */\n      tag_704\n        /* \"#utility.yul\":35729:35731   */\n      0x60\n        /* \"#utility.yul\":35718:35727   */\n      dup4\n        /* \"#utility.yul\":35714:35732   */\n      add\n        /* \"#utility.yul\":35705:35711   */\n      dup8\n        /* \"#utility.yul\":35661:35733   */\n      tag_315\n      jump\t// in\n    tag_704:\n        /* \"#utility.yul\":35743:35816   */\n      tag_705\n        /* \"#utility.yul\":35811:35814   */\n      0x80\n        /* \"#utility.yul\":35800:35809   */\n      dup4\n        /* \"#utility.yul\":35796:35815   */\n      add\n        /* \"#utility.yul\":35787:35793   */\n      dup7\n        /* \"#utility.yul\":35743:35816   */\n      tag_315\n      jump\t// in\n    tag_705:\n        /* \"#utility.yul\":35826:35899   */\n      tag_706\n        /* \"#utility.yul\":35894:35897   */\n      0xa0\n        /* \"#utility.yul\":35883:35892   */\n      dup4\n        /* \"#utility.yul\":35879:35898   */\n      add\n        /* \"#utility.yul\":35870:35876   */\n      dup6\n        /* \"#utility.yul\":35826:35899   */\n      tag_290\n      jump\t// in\n    tag_706:\n        /* \"#utility.yul\":35909:35980   */\n      tag_707\n        /* \"#utility.yul\":35975:35978   */\n      0xc0\n        /* \"#utility.yul\":35964:35973   */\n      dup4\n        /* \"#utility.yul\":35960:35979   */\n      add\n        /* \"#utility.yul\":35951:35957   */\n      dup5\n        /* \"#utility.yul\":35909:35980   */\n      tag_325\n      jump\t// in\n    tag_707:\n        /* \"#utility.yul\":35105:35987   */\n      swap9\n      swap8\n      pop\n      pop\n      pop\n      pop\n      pop\n      pop\n      pop\n      pop\n      jump\t// out\n        /* \"#utility.yul\":35993:36155   */\n    tag_368:\n        /* \"#utility.yul\":36133:36147   */\n      0x43414e43454c5f4f524445520000000000000000000000000000000000000000\n        /* \"#utility.yul\":36129:36130   */\n      0x00\n        /* \"#utility.yul\":36121:36127   */\n      dup3\n        /* \"#utility.yul\":36117:36131   */\n      add\n        /* \"#utility.yul\":36110:36148   */\n      mstore\n        /* \"#utility.yul\":35993:36155   */\n      pop\n      jump\t// out\n        /* \"#utility.yul\":36161:36563   */\n    tag_369:\n        /* \"#utility.yul\":36321:36324   */\n      0x00\n        /* \"#utility.yul\":36342:36427   */\n      tag_710\n        /* \"#utility.yul\":36424:36426   */\n      0x0c\n        /* \"#utility.yul\":36419:36422   */\n      dup4\n        /* \"#utility.yul\":36342:36427   */\n      tag_363\n      jump\t// in\n    tag_710:\n        /* \"#utility.yul\":36335:36427   */\n      swap2\n      pop\n        /* \"#utility.yul\":36436:36529   */\n      tag_711\n        /* \"#utility.yul\":36525:36528   */\n      dup3\n        /* \"#utility.yul\":36436:36529   */\n      tag_368\n      jump\t// in\n    tag_711:\n        /* \"#utility.yul\":36554:36556   */\n      0x0c\n        /* \"#utility.yul\":36549:36552   */\n      dup3\n        /* \"#utility.yul\":36545:36557   */\n      add\n        /* \"#utility.yul\":36538:36557   */\n      swap1\n      pop\n        /* \"#utility.yul\":36161:36563   */\n      swap2\n      swap1\n      pop\n      jump\t// out\n        /* \"#utility.yul\":36569:36950   */\n    tag_263:\n        /* \"#utility.yul\":36754:36757   */\n      0x00\n        /* \"#utility.yul\":36776:36924   */\n      tag_713\n        /* \"#utility.yul\":36920:36923   */\n      dup3\n        /* \"#utility.yul\":36776:36924   */\n      tag_369\n      jump\t// in\n    tag_713:\n        /* \"#utility.yul\":36769:36924   */\n      swap2\n      pop\n        /* \"#utility.yul\":36941:36944   */\n      dup2\n        /* \"#utility.yul\":36934:36944   */\n      swap1\n      pop\n        /* \"#utility.yul\":36569:36950   */\n      swap2\n      swap1\n      pop\n      jump\t// out\n        /* \"#utility.yul\":36956:37122   */\n    tag_370:\n        /* \"#utility.yul\":37096:37114   */\n      0x43414e43454c5f414c4c5f4f5244455200000000000000000000000000000000\n        /* \"#utility.yul\":37092:37093   */\n      0x00\n        /* \"#utility.yul\":37084:37090   */\n      dup3\n        /* \"#utility.yul\":37080:37094   */\n      add\n        /* \"#utility.yul\":37073:37115   */\n      mstore\n        /* \"#utility.yul\":36956:37122   */\n      pop\n      jump\t// out\n        /* \"#utility.yul\":37128:37530   */\n    tag_371:\n        /* \"#utility.yul\":37288:37291   */\n      0x00\n        /* \"#utility.yul\":37309:37394   */\n      tag_716\n        /* \"#utility.yul\":37391:37393   */\n      0x10\n        /* \"#utility.yul\":37386:37389   */\n      dup4\n        /* \"#utility.yul\":37309:37394   */\n      tag_363\n      jump\t// in\n    tag_716:\n        /* \"#utility.yul\":37302:37394   */\n      swap2\n      pop\n        /* \"#utility.yul\":37403:37496   */\n      tag_717\n        /* \"#utility.yul\":37492:37495   */\n      dup3\n        /* \"#utility.yul\":37403:37496   */\n      tag_370\n      jump\t// in\n    tag_717:\n        /* \"#utility.yul\":37521:37523   */\n      0x10\n        /* \"#utility.yul\":37516:37519   */\n      dup3\n        /* \"#utility.yul\":37512:37524   */\n      add\n        /* \"#utility.yul\":37505:37524   */\n      swap1\n      pop\n        /* \"#utility.yul\":37128:37530   */\n      swap2\n      swap1\n      pop\n      jump\t// out\n        /* \"#utility.yul\":37536:37917   */\n    tag_268:\n        /* \"#utility.yul\":37721:37724   */\n      0x00\n        /* \"#utility.yul\":37743:37891   */\n      tag_719\n        /* \"#utility.yul\":37887:37890   */\n      dup3\n        /* \"#utility.yul\":37743:37891   */\n      tag_371\n      jump\t// in\n    tag_719:\n        /* \"#utility.yul\":37736:37891   */\n      swap2\n      pop\n        /* \"#utility.yul\":37908:37911   */\n      dup2\n        /* \"#utility.yul\":37901:37911   */\n      swap1\n      pop\n        /* \"#utility.yul\":37536:37917   */\n      swap2\n      swap1\n      pop\n      jump\t// out\n        /* \"#utility.yul\":37923:38085   */\n    tag_372:\n        /* \"#utility.yul\":38063:38077   */\n      0x4d41524b45545f4f524445520000000000000000000000000000000000000000\n        /* \"#utility.yul\":38059:38060   */\n      0x00\n        /* \"#utility.yul\":38051:38057   */\n      dup3\n        /* \"#utility.yul\":38047:38061   */\n      add\n        /* \"#utility.yul\":38040:38078   */\n      mstore\n        /* \"#utility.yul\":37923:38085   */\n      pop\n      jump\t// out\n        /* \"#utility.yul\":38091:38493   */\n    tag_373:\n        /* \"#utility.yul\":38251:38254   */\n      0x00\n        /* \"#utility.yul\":38272:38357   */\n      tag_722\n        /* \"#utility.yul\":38354:38356   */\n      0x0c\n        /* \"#utility.yul\":38349:38352   */\n      dup4\n        /* \"#utility.yul\":38272:38357   */\n      tag_363\n      jump\t// in\n    tag_722:\n        /* \"#utility.yul\":38265:38357   */\n      swap2\n      pop\n        /* \"#utility.yul\":38366:38459   */\n      tag_723\n        /* \"#utility.yul\":38455:38458   */\n      dup3\n        /* \"#utility.yul\":38366:38459   */\n      tag_372\n      jump\t// in\n    tag_723:\n        /* \"#utility.yul\":38484:38486   */\n      0x0c\n        /* \"#utility.yul\":38479:38482   */\n      dup3\n        /* \"#utility.yul\":38475:38487   */\n      add\n        /* \"#utility.yul\":38468:38487   */\n      swap1\n      pop\n        /* \"#utility.yul\":38091:38493   */\n      swap2\n      swap1\n      pop\n      jump\t// out\n        /* \"#utility.yul\":38499:38880   */\n    tag_273:\n        /* \"#utility.yul\":38684:38687   */\n      0x00\n        /* \"#utility.yul\":38706:38854   */\n      tag_725\n        /* \"#utility.yul\":38850:38853   */\n      dup3\n        /* \"#utility.yul\":38706:38854   */\n      tag_373\n      jump\t// in\n    tag_725:\n        /* \"#utility.yul\":38699:38854   */\n      swap2\n      pop\n        /* \"#utility.yul\":38871:38874   */\n      dup2\n        /* \"#utility.yul\":38864:38874   */\n      swap1\n      pop\n        /* \"#utility.yul\":38499:38880   */\n      swap2\n      swap1\n      pop\n      jump\t// out\n        /* \"#utility.yul\":38886:39047   */\n    tag_374:\n        /* \"#utility.yul\":39026:39039   */\n      0x77726f6e67206f72646572000000000000000000000000000000000000000000\n        /* \"#utility.yul\":39022:39023   */\n      0x00\n        /* \"#utility.yul\":39014:39020   */\n      dup3\n        /* \"#utility.yul\":39010:39024   */\n      add\n        /* \"#utility.yul\":39003:39040   */\n      mstore\n        /* \"#utility.yul\":38886:39047   */\n      pop\n      jump\t// out\n        /* \"#utility.yul\":39053:39419   */\n    tag_375:\n        /* \"#utility.yul\":39195:39198   */\n      0x00\n        /* \"#utility.yul\":39216:39283   */\n      tag_728\n        /* \"#utility.yul\":39280:39282   */\n      0x0b\n        /* \"#utility.yul\":39275:39278   */\n      dup4\n        /* \"#utility.yul\":39216:39283   */\n      tag_331\n      jump\t// in\n    tag_728:\n        /* \"#utility.yul\":39209:39283   */\n      swap2\n      pop\n        /* \"#utility.yul\":39292:39385   */\n      tag_729\n        /* \"#utility.yul\":39381:39384   */\n      dup3\n        /* \"#utility.yul\":39292:39385   */\n      tag_374\n      jump\t// in\n    tag_729:\n        /* \"#utility.yul\":39410:39412   */\n      0x20\n        /* \"#utility.yul\":39405:39408   */\n      dup3\n        /* \"#utility.yul\":39401:39413   */\n      add\n        /* \"#utility.yul\":39394:39413   */\n      swap1\n      pop\n        /* \"#utility.yul\":39053:39419   */\n      swap2\n      swap1\n      pop\n      jump\t// out\n        /* \"#utility.yul\":39425:39844   */\n    tag_278:\n        /* \"#utility.yul\":39591:39595   */\n      0x00\n        /* \"#utility.yul\":39629:39631   */\n      0x20\n        /* \"#utility.yul\":39618:39627   */\n      dup3\n        /* \"#utility.yul\":39614:39632   */\n      add\n        /* \"#utility.yul\":39606:39632   */\n      swap1\n      pop\n        /* \"#utility.yul\":39678:39687   */\n      dup2\n        /* \"#utility.yul\":39672:39676   */\n      dup2\n        /* \"#utility.yul\":39668:39688   */\n      sub\n        /* \"#utility.yul\":39664:39665   */\n      0x00\n        /* \"#utility.yul\":39653:39662   */\n      dup4\n        /* \"#utility.yul\":39649:39666   */\n      add\n        /* \"#utility.yul\":39642:39689   */\n      mstore\n        /* \"#utility.yul\":39706:39837   */\n      tag_731\n        /* \"#utility.yul\":39832:39836   */\n      dup2\n        /* \"#utility.yul\":39706:39837   */\n      tag_375\n      jump\t// in\n    tag_731:\n        /* \"#utility.yul\":39698:39837   */\n      swap1\n      pop\n        /* \"#utility.yul\":39425:39844   */\n      swap2\n      swap1\n      pop\n      jump\t// out\n\n    auxdata: 0xa2646970667358221220d60c06758553e20dca2fcd287e3da66c91ba72f1577f7dc97c07cf2bb441904d64736f6c63430008190033\n}\n",
				"bytecode": {
					"linkReferences": {},
					"object": "60a06040525f600360146101000a81548160ff0219169083151502179055505f600360156101000a81548160ff0219169083151502179055506001600360166101000a81548163ffffffff021916908363ffffffff160217905550348015610065575f80fd5b50604051612e9a380380612e9a833981810160405281019061008791906103b8565b82828181855f73ffffffffffffffffffffffffffffffffffffffff168173ffffffffffffffffffffffffffffffffffffffff16036100fc575f6040517f1e4fbdf70000000000000000000000000000000000000000000000000000000081526004016100f39190610417565b60405180910390fd5b61010b8161029960201b60201c565b508173ffffffffffffffffffffffffffffffffffffffff1660808173ffffffffffffffffffffffffffffffffffffffff16815250505f73ffffffffffffffffffffffffffffffffffffffff168173ffffffffffffffffffffffffffffffffffffffff16036101a5576040517fb586360400000000000000000000000000000000000000000000000000000000815260040160405180910390fd5b60805173ffffffffffffffffffffffffffffffffffffffff1663ca5eb5e1826040518263ffffffff1660e01b81526004016101e09190610417565b5f604051808303815f87803b1580156101f7575f80fd5b505af1158015610209573d5f803e3d5ffd5b50505050505050508060025f6101000a81548173ffffffffffffffffffffffffffffffffffffffff021916908373ffffffffffffffffffffffffffffffffffffffff1602179055503360035f6101000a81548173ffffffffffffffffffffffffffffffffffffffff021916908373ffffffffffffffffffffffffffffffffffffffff160217905550505050610430565b5f805f9054906101000a900473ffffffffffffffffffffffffffffffffffffffff169050815f806101000a81548173ffffffffffffffffffffffffffffffffffffffff021916908373ffffffffffffffffffffffffffffffffffffffff1602179055508173ffffffffffffffffffffffffffffffffffffffff168173ffffffffffffffffffffffffffffffffffffffff167f8be0079c531659141344cd1fd0a4f28419497f9722a3daafe3b4186f6b6457e060405160405180910390a35050565b5f80fd5b5f73ffffffffffffffffffffffffffffffffffffffff82169050919050565b5f6103878261035e565b9050919050565b6103978161037d565b81146103a1575f80fd5b50565b5f815190506103b28161038e565b92915050565b5f805f606084860312156103cf576103ce61035a565b5b5f6103dc868287016103a4565b93505060206103ed868287016103a4565b92505060406103fe868287016103a4565b9150509250925092565b6104118161037d565b82525050565b5f60208201905061042a5f830184610408565b92915050565b608051612a446104565f395f8181610575015281816108dd0152610ef80152612a445ff3fe60806040526004361061014a575f3560e01c80638b836b6b116100b5578063ca5eb5e11161006e578063ca5eb5e114610443578063d5f394881461046b578063e4cf4c6614610495578063f2fde38b146104bd578063fde89598146104e5578063ff7bd03d146104fb5761014a565b80638b836b6b146103375780638da5cb5b14610361578063a5cdc8fc1461038b578063b92d0eff146103b3578063bb0b6a53146103dd578063c8e4d753146104195761014a565b8063564b81ef11610107578063564b81ef1461022d5780635e280f1114610257578063648ea06314610281578063715018a6146102bd578063732c2c64146102d35780637d25a05e146102fb5761014a565b806306ef03391461014e57806313137d651461017857806317442b701461019457806319849d5b146101bf5780633400288b146101e95780633bbe032f14610211575b5f80fd5b348015610159575f80fd5b50610162610537565b60405161016f91906117db565b60405180910390f35b610192600480360381019061018d91906118e5565b61055c565b005b34801561019f575f80fd5b506101a861067c565b6040516101b69291906119be565b60405180910390f35b3480156101ca575f80fd5b506101d3610689565b6040516101e091906119ff565b60405180910390f35b3480156101f4575f80fd5b5061020f600480360381019061020a9190611a51565b61069c565b005b61022b60048036038101906102269190611ac2565b610703565b005b348015610238575f80fd5b506102416108d4565b60405161024e9190611b6e565b60405180910390f35b348015610262575f80fd5b5061026b6108db565b6040516102789190611be2565b60405180910390f35b34801561028c575f80fd5b506102a760048036038101906102a29190611bfb565b6108ff565b6040516102b49190611d08565b60405180910390f35b3480156102c8575f80fd5b506102d1610b2e565b005b3480156102de575f80fd5b506102f960048036038101906102f49190611d22565b610b41565b005b348015610306575f80fd5b50610321600480360381019061031c9190611a51565b610cd3565b60405161032e9190611d86565b60405180910390f35b348015610342575f80fd5b5061034b610cda565b6040516103589190611dae565b60405180910390f35b34801561036c575f80fd5b50610375610cf0565b60405161038291906117db565b60405180910390f35b348015610396575f80fd5b506103b160048036038101906103ac9190611bfb565b610d17565b005b3480156103be575f80fd5b506103c7610ebf565b6040516103d491906117db565b60405180910390f35b3480156103e8575f80fd5b5061040360048036038101906103fe9190611dc7565b610ec6565b6040516104109190611e01565b60405180910390f35b348015610424575f80fd5b5061042d610edb565b60405161043a91906119ff565b60405180910390f35b34801561044e575f80fd5b5061046960048036038101906104649190611e1a565b610eee565b005b348015610476575f80fd5b5061047f610f7f565b60405161048c91906117db565b60405180910390f35b3480156104a0575f80fd5b506104bb60048036038101906104b69190611e1a565b610fa4565b005b3480156104c8575f80fd5b506104e360048036038101906104de9190611e1a565b611076565b005b3480156104f0575f80fd5b506104f96110fa565b005b348015610506575f80fd5b50610521600480360381019061051c9190611e45565b61128b565b60405161052e91906119ff565b60405180910390f35b60025f9054906101000a900473ffffffffffffffffffffffffffffffffffffffff1681565b3373ffffffffffffffffffffffffffffffffffffffff167f000000000000000000000000000000000000000000000000000000000000000073ffffffffffffffffffffffffffffffffffffffff16146105ec57336040517f91ac5e4f0000000000000000000000000000000000000000000000000000000081526004016105e391906117db565b60405180910390fd5b866020013561060b885f0160208101906106069190611dc7565b6112c8565b1461066457865f0160208101906106229190611dc7565b87602001356040517fc26bebcc00000000000000000000000000000000000000000000000000000000815260040161065b929190611e70565b60405180910390fd5b61067387878787878787611339565b50505050505050565b5f80600180915091509091565b600360159054906101000a900460ff1681565b6106a46115c4565b8060015f8463ffffffff1663ffffffff1681526020019081526020015f20819055507f238399d427b947898edb290f5ff0f9109849b1c3ba196a42e35f00c50a54b98b82826040516106f7929190611e70565b60405180910390a15050565b6001600360156101000a81548160ff0219169083151502179055505f8060025f9054906101000a900473ffffffffffffffffffffffffffffffffffffffff1673ffffffffffffffffffffffffffffffffffffffff16848463ffffffff168b8b8b8b8b60405160240161077b9796959493929190611e97565b6040516020818303038152906040527f9390e442000000000000000000000000000000000000000000000000000000007bffffffffffffffffffffffffffffffffffffffffffffffffffffffff19166020820180517bffffffffffffffffffffffffffffffffffffffffffffffffffffffff83818316178352505050506040516108059190611f56565b5f604051808303815f865af19150503d805f811461083e576040519150601f19603f3d011682016040523d82523d5f602084013e610843565b606091505b509150915081610888576040517f08c379a000000000000000000000000000000000000000000000000000000000815260040161087f90611fc6565b60405180910390fd5b5f805f805f805f805f808a8060200190518101906108a69190612066565b99509950995099509950995099509950995099505f8890505050505050505050505050505050505050505050565b5f46905090565b7f000000000000000000000000000000000000000000000000000000000000000081565b610907611713565b5f8060025f9054906101000a900473ffffffffffffffffffffffffffffffffffffffff1673ffffffffffffffffffffffffffffffffffffffff16846040516024016109529190611b6e565b6040516020818303038152906040527f648ea063000000000000000000000000000000000000000000000000000000007bffffffffffffffffffffffffffffffffffffffffffffffffffffffff19166020820180517bffffffffffffffffffffffffffffffffffffffffffffffffffffffff83818316178352505050506040516109dc9190611f56565b5f60405180830381855afa9150503d805f8114610a14576040519150601f19603f3d011682016040523d82523d5f602084013e610a19565b606091505b509150915081610a5e576040517f08c379a0000000000000000000000000000000000000000000000000000000008152600401610a5590612189565b60405180910390fd5b5f805f805f805f805f808a806020019051810190610a7c91906121d1565b99509950995099509950995099509950995099505f6040518061012001604052808c81526020018b73ffffffffffffffffffffffffffffffffffffffff1681526020018a81526020018973ffffffffffffffffffffffffffffffffffffffff1681526020018873ffffffffffffffffffffffffffffffffffffffff16815260200187815260200185815260200184151581526020018315158152509050809d5050505050505050505050505050919050565b610b366115c4565b610b3f5f61164b565b565b5f8060025f9054906101000a900473ffffffffffffffffffffffffffffffffffffffff1673ffffffffffffffffffffffffffffffffffffffff1686868686604051602401610b9294939291906122aa565b6040516020818303038152906040527f732c2c64000000000000000000000000000000000000000000000000000000007bffffffffffffffffffffffffffffffffffffffffffffffffffffffff19166020820180517bffffffffffffffffffffffffffffffffffffffffffffffffffffffff8381831617835250505050604051610c1c9190611f56565b5f604051808303815f865af19150503d805f8114610c55576040519150601f19603f3d011682016040523d82523d5f602084013e610c5a565b606091505b509150915081610c9f576040517f08c379a0000000000000000000000000000000000000000000000000000000008152600401610c9690612337565b60405180910390fd5b5f805f805f8086806020019051810190610cb99190612355565b955095509550955095509550505050505050505050505050565b5f92915050565b600360169054906101000a900463ffffffff1681565b5f805f9054906101000a900473ffffffffffffffffffffffffffffffffffffffff16905090565b5f60025f9054906101000a900473ffffffffffffffffffffffffffffffffffffffff1673ffffffffffffffffffffffffffffffffffffffff1682604051602401610d619190611b6e565b6040516020818303038152906040527fa5cdc8fc000000000000000000000000000000000000000000000000000000007bffffffffffffffffffffffffffffffffffffffffffffffffffffffff19166020820180517bffffffffffffffffffffffffffffffffffffffffffffffffffffffff8381831617835250505050604051610deb9190611f56565b5f604051808303815f865af19150503d805f8114610e24576040519150601f19603f3d011682016040523d82523d5f602084013e610e29565b606091505b5050905080610e6d576040517f08c379a0000000000000000000000000000000000000000000000000000000008152600401610e6490612428565b60405180910390fd5b3373ffffffffffffffffffffffffffffffffffffffff167f9384174c8517f5537b08e79211fc039e8a098571a3a2b4cb21dfa6f3237e8de183604051610eb39190611b6e565b60405180910390a25050565b5f30905090565b6001602052805f5260405f205f915090505481565b600360149054906101000a900460ff1681565b610ef66115c4565b7f000000000000000000000000000000000000000000000000000000000000000073ffffffffffffffffffffffffffffffffffffffff1663ca5eb5e1826040518263ffffffff1660e01b8152600401610f4f91906117db565b5f604051808303815f87803b158015610f66575f80fd5b505af1158015610f78573d5f803e3d5ffd5b5050505050565b60035f9054906101000a900473ffffffffffffffffffffffffffffffffffffffff1681565b60035f9054906101000a900473ffffffffffffffffffffffffffffffffffffffff1673ffffffffffffffffffffffffffffffffffffffff163373ffffffffffffffffffffffffffffffffffffffff1614611033576040517f08c379a000000000000000000000000000000000000000000000000000000000815260040161102a906124b6565b60405180910390fd5b8060025f6101000a81548173ffffffffffffffffffffffffffffffffffffffff021916908373ffffffffffffffffffffffffffffffffffffffff16021790555050565b61107e6115c4565b5f73ffffffffffffffffffffffffffffffffffffffff168173ffffffffffffffffffffffffffffffffffffffff16036110ee575f6040517f1e4fbdf70000000000000000000000000000000000000000000000000000000081526004016110e591906117db565b60405180910390fd5b6110f78161164b565b50565b5f60025f9054906101000a900473ffffffffffffffffffffffffffffffffffffffff1673ffffffffffffffffffffffffffffffffffffffff166040516024016040516020818303038152906040527ffde89598000000000000000000000000000000000000000000000000000000007bffffffffffffffffffffffffffffffffffffffffffffffffffffffff19166020820180517bffffffffffffffffffffffffffffffffffffffffffffffffffffffff83818316178352505050506040516111c39190611f56565b5f604051808303815f865af19150503d805f81146111fc576040519150601f19603f3d011682016040523d82523d5f602084013e611201565b606091505b5050905080611245576040517f08c379a000000000000000000000000000000000000000000000000000000000815260040161123c90612544565b60405180910390fd5b3373ffffffffffffffffffffffffffffffffffffffff167f8595565d6fc010babc8f7612a8768886d8fe08635f358d75af306fdf25f00d0360405160405180910390a250565b5f816020013560015f845f0160208101906112a69190611dc7565b63ffffffff1663ffffffff1681526020019081526020015f2054149050919050565b5f8060015f8463ffffffff1663ffffffff1681526020019081526020015f205490505f801b810361133057826040517ff6ff4fb70000000000000000000000000000000000000000000000000000000081526004016113279190611dae565b60405180910390fd5b80915050919050565b5f805f805f805f8b8b81019061134f91906126ae565b96509650965096509650965096505f8e5f0160208101906113709190611dc7565b90505f8f6020013590506001600360146101000a81548160ff02191690831515021790555081600360166101000a81548163ffffffff021916908363ffffffff1602179055506040516020016113c5906127bb565b60405160208183030381529060405280519060200120876040516020016113ec9190612809565b604051602081830303815290604052805190602001200361147e573073ffffffffffffffffffffffffffffffffffffffff16633bbe032f89888888888f896040518863ffffffff1660e01b815260040161144c979695949392919061281f565b5f604051808303815f87803b158015611463575f80fd5b505af1158015611475573d5f803e3d5ffd5b505050506115b2565b60405160200161148d906128d6565b60405160208183030381529060405280519060200120876040516020016114b49190612809565b6040516020818303038152906040528051906020012003156115b1576040516020016114df90612934565b60405160208183030381529060405280519060200120876040516020016115069190612809565b6040516020818303038152906040528051906020012003156115b05760405160200161153190612992565b60405160208183030381529060405280519060200120876040516020016115589190612809565b6040516020818303038152906040528051906020012003156115af576040517f08c379a00000000000000000000000000000000000000000000000000000000081526004016115a6906129f0565b60405180910390fd5b5b5b5b50505050505050505050505050505050565b6115cc61170c565b73ffffffffffffffffffffffffffffffffffffffff166115ea610cf0565b73ffffffffffffffffffffffffffffffffffffffff16146116495761160d61170c565b6040517f118cdaa700000000000000000000000000000000000000000000000000000000815260040161164091906117db565b60405180910390fd5b565b5f805f9054906101000a900473ffffffffffffffffffffffffffffffffffffffff169050815f806101000a81548173ffffffffffffffffffffffffffffffffffffffff021916908373ffffffffffffffffffffffffffffffffffffffff1602179055508173ffffffffffffffffffffffffffffffffffffffff168173ffffffffffffffffffffffffffffffffffffffff167f8be0079c531659141344cd1fd0a4f28419497f9722a3daafe3b4186f6b6457e060405160405180910390a35050565b5f33905090565b6040518061012001604052805f81526020015f73ffffffffffffffffffffffffffffffffffffffff1681526020015f81526020015f73ffffffffffffffffffffffffffffffffffffffff1681526020015f73ffffffffffffffffffffffffffffffffffffffff1681526020015f81526020015f81526020015f151581526020015f151581525090565b5f73ffffffffffffffffffffffffffffffffffffffff82169050919050565b5f6117c58261179c565b9050919050565b6117d5816117bb565b82525050565b5f6020820190506117ee5f8301846117cc565b92915050565b5f604051905090565b5f80fd5b5f80fd5b5f80fd5b5f6060828403121561181e5761181d611805565b5b81905092915050565b5f819050919050565b61183981611827565b8114611843575f80fd5b50565b5f8135905061185481611830565b92915050565b5f80fd5b5f80fd5b5f80fd5b5f8083601f84011261187b5761187a61185a565b5b8235905067ffffffffffffffff8111156118985761189761185e565b5b6020830191508360018202830111156118b4576118b3611862565b5b9250929050565b6118c4816117bb565b81146118ce575f80fd5b50565b5f813590506118df816118bb565b92915050565b5f805f805f805f60e0888a031215611900576118ff6117fd565b5b5f61190d8a828b01611809565b975050606061191e8a828b01611846565b965050608088013567ffffffffffffffff81111561193f5761193e611801565b5b61194b8a828b01611866565b955095505060a061195e8a828b016118d1565b93505060c088013567ffffffffffffffff81111561197f5761197e611801565b5b61198b8a828b01611866565b925092505092959891949750929550565b5f67ffffffffffffffff82169050919050565b6119b88161199c565b82525050565b5f6040820190506119d15f8301856119af565b6119de60208301846119af565b9392505050565b5f8115159050919050565b6119f9816119e5565b82525050565b5f602082019050611a125f8301846119f0565b92915050565b5f63ffffffff82169050919050565b611a3081611a18565b8114611a3a575f80fd5b50565b5f81359050611a4b81611a27565b92915050565b5f8060408385031215611a6757611a666117fd565b5b5f611a7485828601611a3d565b9250506020611a8585828601611846565b9150509250929050565b5f819050919050565b611aa181611a8f565b8114611aab575f80fd5b50565b5f81359050611abc81611a98565b92915050565b5f805f805f805f60e0888a031215611add57611adc6117fd565b5b5f611aea8a828b01611aae565b9750506020611afb8a828b016118d1565b9650506040611b0c8a828b016118d1565b9550506060611b1d8a828b01611aae565b9450506080611b2e8a828b01611aae565b93505060a0611b3f8a828b016118d1565b92505060c0611b508a828b01611a3d565b91505092959891949750929550565b611b6881611a8f565b82525050565b5f602082019050611b815f830184611b5f565b92915050565b5f819050919050565b5f611baa611ba5611ba08461179c565b611b87565b61179c565b9050919050565b5f611bbb82611b90565b9050919050565b5f611bcc82611bb1565b9050919050565b611bdc81611bc2565b82525050565b5f602082019050611bf55f830184611bd3565b92915050565b5f60208284031215611c1057611c0f6117fd565b5b5f611c1d84828501611aae565b91505092915050565b611c2f81611a8f565b82525050565b611c3e816117bb565b82525050565b611c4d816119e5565b82525050565b61012082015f820151611c685f850182611c26565b506020820151611c7b6020850182611c35565b506040820151611c8e6040850182611c26565b506060820151611ca16060850182611c35565b506080820151611cb46080850182611c35565b5060a0820151611cc760a0850182611c26565b5060c0820151611cda60c0850182611c26565b5060e0820151611ced60e0850182611c44565b50610100820151611d02610100850182611c44565b50505050565b5f61012082019050611d1c5f830184611c53565b92915050565b5f805f8060808587031215611d3a57611d396117fd565b5b5f611d4787828801611aae565b9450506020611d58878288016118d1565b9350506040611d69878288016118d1565b9250506060611d7a87828801611aae565b91505092959194509250565b5f602082019050611d995f8301846119af565b92915050565b611da881611a18565b82525050565b5f602082019050611dc15f830184611d9f565b92915050565b5f60208284031215611ddc57611ddb6117fd565b5b5f611de984828501611a3d565b91505092915050565b611dfb81611827565b82525050565b5f602082019050611e145f830184611df2565b92915050565b5f60208284031215611e2f57611e2e6117fd565b5b5f611e3c848285016118d1565b91505092915050565b5f60608284031215611e5a57611e596117fd565b5b5f611e6784828501611809565b91505092915050565b5f604082019050611e835f830185611d9f565b611e906020830184611df2565b9392505050565b5f60e082019050611eaa5f83018a6117cc565b611eb76020830189611b5f565b611ec46040830188611b5f565b611ed160608301876117cc565b611ede60808301866117cc565b611eeb60a0830185611b5f565b611ef860c0830184611b5f565b98975050505050505050565b5f81519050919050565b5f81905092915050565b8281835e5f83830152505050565b5f611f3082611f04565b611f3a8185611f0e565b9350611f4a818560208601611f18565b80840191505092915050565b5f611f618284611f26565b915081905092915050565b5f82825260208201905092915050565b7f4661696c656420746f20706c616365206c696d6974206f7264657200000000005f82015250565b5f611fb0601b83611f6c565b9150611fbb82611f7c565b602082019050919050565b5f6020820190508181035f830152611fdd81611fa4565b9050919050565b5f81519050611ff281611a98565b92915050565b5f6120028261179c565b9050919050565b61201281611ff8565b811461201c575f80fd5b50565b5f8151905061202d81612009565b92915050565b5f819050919050565b61204581612033565b811461204f575f80fd5b50565b5f815190506120608161203c565b92915050565b5f805f805f805f805f806101408b8d031215612085576120846117fd565b5b5f6120928d828e01611fe4565b9a505060206120a38d828e0161201f565b99505060406120b48d828e01611fe4565b98505060606120c58d828e0161201f565b97505060806120d68d828e01612052565b96505060a06120e78d828e01612052565b95505060c06120f88d828e01612052565b94505060e06121098d828e01612052565b93505061010061211b8d828e0161201f565b92505061012061212d8d828e0161201f565b9150509295989b9194979a5092959850565b7f4661696c656420746f207265747269657665206c696d6974206f7264657200005f82015250565b5f612173601e83611f6c565b915061217e8261213f565b602082019050919050565b5f6020820190508181035f8301526121a081612167565b9050919050565b6121b0816119e5565b81146121ba575f80fd5b50565b5f815190506121cb816121a7565b92915050565b5f805f805f805f805f806101408b8d0312156121f0576121ef6117fd565b5b5f6121fd8d828e01611fe4565b9a5050602061220e8d828e0161201f565b995050604061221f8d828e01611fe4565b98505060606122308d828e0161201f565b97505060806122418d828e0161201f565b96505060a06122528d828e01611fe4565b95505060c06122638d828e01611fe4565b94505060e06122748d828e01611fe4565b9350506101006122868d828e016121bd565b9250506101206122988d828e016121bd565b9150509295989b9194979a5092959850565b5f6080820190506122bd5f830187611b5f565b6122ca60208301866117cc565b6122d760408301856117cc565b6122e46060830184611b5f565b95945050505050565b7f4661696c656420746f20706c616365206d61726b6574206f72646572000000005f82015250565b5f612321601c83611f6c565b915061232c826122ed565b602082019050919050565b5f6020820190508181035f83015261234e81612315565b9050919050565b5f805f805f8060c0878903121561236f5761236e6117fd565b5b5f61237c89828a0161201f565b965050602061238d89828a0161201f565b955050604061239e89828a01612052565b94505060606123af89828a01612052565b93505060806123c089828a01612052565b92505060a06123d189828a01612052565b9150509295509295509295565b7f4661696c656420746f2063616e63656c206c696d6974206f72646572000000005f82015250565b5f612412601c83611f6c565b915061241d826123de565b602082019050919050565b5f6020820190508181035f83015261243f81612406565b9050919050565b7f4f6e6c79206465706c6f7965722063616e2073657420746865205275737420635f8201527f6f6e747261637420616464726573730000000000000000000000000000000000602082015250565b5f6124a0602f83611f6c565b91506124ab82612446565b604082019050919050565b5f6020820190508181035f8301526124cd81612494565b9050919050565b7f4661696c656420746f2063616e63656c20616c6c206c696d6974206f726465725f8201527f7300000000000000000000000000000000000000000000000000000000000000602082015250565b5f61252e602183611f6c565b9150612539826124d4565b604082019050919050565b5f6020820190508181035f83015261255b81612522565b9050919050565b5f8135905061257081612009565b92915050565b5f80fd5b5f601f19601f8301169050919050565b7f4e487b71000000000000000000000000000000000000000000000000000000005f52604160045260245ffd5b6125c08261257a565b810181811067ffffffffffffffff821117156125df576125de61258a565b5b80604052505050565b5f6125f16117f4565b90506125fd82826125b7565b919050565b5f67ffffffffffffffff82111561261c5761261b61258a565b5b6126258261257a565b9050602081019050919050565b828183375f83830152505050565b5f61265261264d84612602565b6125e8565b90508281526020810184848401111561266e5761266d612576565b5b612679848285612632565b509392505050565b5f82601f8301126126955761269461185a565b5b81356126a5848260208601612640565b91505092915050565b5f805f805f805f60e0888a0312156126c9576126c86117fd565b5b5f6126d68a828b01612562565b97505060206126e78a828b01611aae565b965050604088013567ffffffffffffffff81111561270857612707611801565b5b6127148a828b01612681565b95505060606127258a828b01612562565b94505060806127368a828b01612562565b93505060a06127478a828b01611aae565b92505060c06127588a828b01611aae565b91505092959891949750929550565b5f81905092915050565b7f4c494d49545f4f524445520000000000000000000000000000000000000000005f82015250565b5f6127a5600b83612767565b91506127b082612771565b600b82019050919050565b5f6127c582612799565b9150819050919050565b5f81519050919050565b5f6127e3826127cf565b6127ed8185612767565b93506127fd818560208601611f18565b80840191505092915050565b5f61281482846127d9565b915081905092915050565b5f60e0820190506128325f83018a611b5f565b61283f60208301896117cc565b61284c60408301886117cc565b6128596060830187611b5f565b6128666080830186611b5f565b61287360a08301856117cc565b61288060c0830184611d9f565b98975050505050505050565b7f43414e43454c5f4f5244455200000000000000000000000000000000000000005f82015250565b5f6128c0600c83612767565b91506128cb8261288c565b600c82019050919050565b5f6128e0826128b4565b9150819050919050565b7f43414e43454c5f414c4c5f4f52444552000000000000000000000000000000005f82015250565b5f61291e601083612767565b9150612929826128ea565b601082019050919050565b5f61293e82612912565b9150819050919050565b7f4d41524b45545f4f5244455200000000000000000000000000000000000000005f82015250565b5f61297c600c83612767565b915061298782612948565b600c82019050919050565b5f61299c82612970565b9150819050919050565b7f77726f6e67206f726465720000000000000000000000000000000000000000005f82015250565b5f6129da600b83611f6c565b91506129e5826129a6565b602082019050919050565b5f6020820190508181035f830152612a07816129ce565b905091905056fea2646970667358221220d60c06758553e20dca2fcd287e3da66c91ba72f1577f7dc97c07cf2bb441904d64736f6c63430008190033",
					"opcodes": "PUSH1 0xA0 PUSH1 0x40 MSTORE PUSH0 PUSH1 0x3 PUSH1 0x14 PUSH2 0x100 EXP DUP2 SLOAD DUP2 PUSH1 0xFF MUL NOT AND SWAP1 DUP4 ISZERO ISZERO MUL OR SWAP1 SSTORE POP PUSH0 PUSH1 0x3 PUSH1 0x15 PUSH2 0x100 EXP DUP2 SLOAD DUP2 PUSH1 0xFF MUL NOT AND SWAP1 DUP4 ISZERO ISZERO MUL OR SWAP1 SSTORE POP PUSH1 0x1 PUSH1 0x3 PUSH1 0x16 PUSH2 0x100 EXP DUP2 SLOAD DUP2 PUSH4 0xFFFFFFFF MUL NOT AND SWAP1 DUP4 PUSH4 0xFFFFFFFF AND MUL OR SWAP1 SSTORE POP CALLVALUE DUP1 ISZERO PUSH2 0x65 JUMPI PUSH0 DUP1 REVERT JUMPDEST POP PUSH1 0x40 MLOAD PUSH2 0x2E9A CODESIZE SUB DUP1 PUSH2 0x2E9A DUP4 CODECOPY DUP2 DUP2 ADD PUSH1 0x40 MSTORE DUP2 ADD SWAP1 PUSH2 0x87 SWAP2 SWAP1 PUSH2 0x3B8 JUMP JUMPDEST DUP3 DUP3 DUP2 DUP2 DUP6 PUSH0 PUSH20 0xFFFFFFFFFFFFFFFFFFFFFFFFFFFFFFFFFFFFFFFF AND DUP2 PUSH20 0xFFFFFFFFFFFFFFFFFFFFFFFFFFFFFFFFFFFFFFFF AND SUB PUSH2 0xFC JUMPI PUSH0 PUSH1 0x40 MLOAD PUSH32 0x1E4FBDF700000000000000000000000000000000000000000000000000000000 DUP2 MSTORE PUSH1 0x4 ADD PUSH2 0xF3 SWAP2 SWAP1 PUSH2 0x417 JUMP JUMPDEST PUSH1 0x40 MLOAD DUP1 SWAP2 SUB SWAP1 REVERT JUMPDEST PUSH2 0x10B DUP2 PUSH2 0x299 PUSH1 0x20 SHL PUSH1 0x20 SHR JUMP JUMPDEST POP DUP2 PUSH20 0xFFFFFFFFFFFFFFFFFFFFFFFFFFFFFFFFFFFFFFFF AND PUSH1 0x80 DUP2 PUSH20 0xFFFFFFFFFFFFFFFFFFFFFFFFFFFFFFFFFFFFFFFF AND DUP2 MSTORE POP POP PUSH0 PUSH20 0xFFFFFFFFFFFFFFFFFFFFFFFFFFFFFFFFFFFFFFFF AND DUP2 PUSH20 0xFFFFFFFFFFFFFFFFFFFFFFFFFFFFFFFFFFFFFFFF AND SUB PUSH2 0x1A5 JUMPI PUSH1 0x40 MLOAD PUSH32 0xB586360400000000000000000000000000000000000000000000000000000000 DUP2 MSTORE PUSH1 0x4 ADD PUSH1 0x40 MLOAD DUP1 SWAP2 SUB SWAP1 REVERT JUMPDEST PUSH1 0x80 MLOAD PUSH20 0xFFFFFFFFFFFFFFFFFFFFFFFFFFFFFFFFFFFFFFFF AND PUSH4 0xCA5EB5E1 DUP3 PUSH1 0x40 MLOAD DUP3 PUSH4 0xFFFFFFFF AND PUSH1 0xE0 SHL DUP2 MSTORE PUSH1 0x4 ADD PUSH2 0x1E0 SWAP2 SWAP1 PUSH2 0x417 JUMP JUMPDEST PUSH0 PUSH1 0x40 MLOAD DUP1 DUP4 SUB DUP2 PUSH0 DUP8 DUP1 EXTCODESIZE ISZERO DUP1 ISZERO PUSH2 0x1F7 JUMPI PUSH0 DUP1 REVERT JUMPDEST POP GAS CALL ISZERO DUP1 ISZERO PUSH2 0x209 JUMPI RETURNDATASIZE PUSH0 DUP1 RETURNDATACOPY RETURNDATASIZE PUSH0 REVERT JUMPDEST POP POP POP POP POP POP POP POP DUP1 PUSH1 0x2 PUSH0 PUSH2 0x100 EXP DUP2 SLOAD DUP2 PUSH20 0xFFFFFFFFFFFFFFFFFFFFFFFFFFFFFFFFFFFFFFFF MUL NOT AND SWAP1 DUP4 PUSH20 0xFFFFFFFFFFFFFFFFFFFFFFFFFFFFFFFFFFFFFFFF AND MUL OR SWAP1 SSTORE POP CALLER PUSH1 0x3 PUSH0 PUSH2 0x100 EXP DUP2 SLOAD DUP2 PUSH20 0xFFFFFFFFFFFFFFFFFFFFFFFFFFFFFFFFFFFFFFFF MUL NOT AND SWAP1 DUP4 PUSH20 0xFFFFFFFFFFFFFFFFFFFFFFFFFFFFFFFFFFFFFFFF AND MUL OR SWAP1 SSTORE POP POP POP POP PUSH2 0x430 JUMP JUMPDEST PUSH0 DUP1 PUSH0 SWAP1 SLOAD SWAP1 PUSH2 0x100 EXP SWAP1 DIV PUSH20 0xFFFFFFFFFFFFFFFFFFFFFFFFFFFFFFFFFFFFFFFF AND SWAP1 POP DUP2 PUSH0 DUP1 PUSH2 0x100 EXP DUP2 SLOAD DUP2 PUSH20 0xFFFFFFFFFFFFFFFFFFFFFFFFFFFFFFFFFFFFFFFF MUL NOT AND SWAP1 DUP4 PUSH20 0xFFFFFFFFFFFFFFFFFFFFFFFFFFFFFFFFFFFFFFFF AND MUL OR SWAP1 SSTORE POP DUP2 PUSH20 0xFFFFFFFFFFFFFFFFFFFFFFFFFFFFFFFFFFFFFFFF AND DUP2 PUSH20 0xFFFFFFFFFFFFFFFFFFFFFFFFFFFFFFFFFFFFFFFF AND PUSH32 0x8BE0079C531659141344CD1FD0A4F28419497F9722A3DAAFE3B4186F6B6457E0 PUSH1 0x40 MLOAD PUSH1 0x40 MLOAD DUP1 SWAP2 SUB SWAP1 LOG3 POP POP JUMP JUMPDEST PUSH0 DUP1 REVERT JUMPDEST PUSH0 PUSH20 0xFFFFFFFFFFFFFFFFFFFFFFFFFFFFFFFFFFFFFFFF DUP3 AND SWAP1 POP SWAP2 SWAP1 POP JUMP JUMPDEST PUSH0 PUSH2 0x387 DUP3 PUSH2 0x35E JUMP JUMPDEST SWAP1 POP SWAP2 SWAP1 POP JUMP JUMPDEST PUSH2 0x397 DUP2 PUSH2 0x37D JUMP JUMPDEST DUP2 EQ PUSH2 0x3A1 JUMPI PUSH0 DUP1 REVERT JUMPDEST POP JUMP JUMPDEST PUSH0 DUP2 MLOAD SWAP1 POP PUSH2 0x3B2 DUP2 PUSH2 0x38E JUMP JUMPDEST SWAP3 SWAP2 POP POP JUMP JUMPDEST PUSH0 DUP1 PUSH0 PUSH1 0x60 DUP5 DUP7 SUB SLT ISZERO PUSH2 0x3CF JUMPI PUSH2 0x3CE PUSH2 0x35A JUMP JUMPDEST JUMPDEST PUSH0 PUSH2 0x3DC DUP7 DUP3 DUP8 ADD PUSH2 0x3A4 JUMP JUMPDEST SWAP4 POP POP PUSH1 0x20 PUSH2 0x3ED DUP7 DUP3 DUP8 ADD PUSH2 0x3A4 JUMP JUMPDEST SWAP3 POP POP PUSH1 0x40 PUSH2 0x3FE DUP7 DUP3 DUP8 ADD PUSH2 0x3A4 JUMP JUMPDEST SWAP2 POP POP SWAP3 POP SWAP3 POP SWAP3 JUMP JUMPDEST PUSH2 0x411 DUP2 PUSH2 0x37D JUMP JUMPDEST DUP3 MSTORE POP POP JUMP JUMPDEST PUSH0 PUSH1 0x20 DUP3 ADD SWAP1 POP PUSH2 0x42A PUSH0 DUP4 ADD DUP5 PUSH2 0x408 JUMP JUMPDEST SWAP3 SWAP2 POP POP JUMP JUMPDEST PUSH1 0x80 MLOAD PUSH2 0x2A44 PUSH2 0x456 PUSH0 CODECOPY PUSH0 DUP2 DUP2 PUSH2 0x575 ADD MSTORE DUP2 DUP2 PUSH2 0x8DD ADD MSTORE PUSH2 0xEF8 ADD MSTORE PUSH2 0x2A44 PUSH0 RETURN INVALID PUSH1 0x80 PUSH1 0x40 MSTORE PUSH1 0x4 CALLDATASIZE LT PUSH2 0x14A JUMPI PUSH0 CALLDATALOAD PUSH1 0xE0 SHR DUP1 PUSH4 0x8B836B6B GT PUSH2 0xB5 JUMPI DUP1 PUSH4 0xCA5EB5E1 GT PUSH2 0x6E JUMPI DUP1 PUSH4 0xCA5EB5E1 EQ PUSH2 0x443 JUMPI DUP1 PUSH4 0xD5F39488 EQ PUSH2 0x46B JUMPI DUP1 PUSH4 0xE4CF4C66 EQ PUSH2 0x495 JUMPI DUP1 PUSH4 0xF2FDE38B EQ PUSH2 0x4BD JUMPI DUP1 PUSH4 0xFDE89598 EQ PUSH2 0x4E5 JUMPI DUP1 PUSH4 0xFF7BD03D EQ PUSH2 0x4FB JUMPI PUSH2 0x14A JUMP JUMPDEST DUP1 PUSH4 0x8B836B6B EQ PUSH2 0x337 JUMPI DUP1 PUSH4 0x8DA5CB5B EQ PUSH2 0x361 JUMPI DUP1 PUSH4 0xA5CDC8FC EQ PUSH2 0x38B JUMPI DUP1 PUSH4 0xB92D0EFF EQ PUSH2 0x3B3 JUMPI DUP1 PUSH4 0xBB0B6A53 EQ PUSH2 0x3DD JUMPI DUP1 PUSH4 0xC8E4D753 EQ PUSH2 0x419 JUMPI PUSH2 0x14A JUMP JUMPDEST DUP1 PUSH4 0x564B81EF GT PUSH2 0x107 JUMPI DUP1 PUSH4 0x564B81EF EQ PUSH2 0x22D JUMPI DUP1 PUSH4 0x5E280F11 EQ PUSH2 0x257 JUMPI DUP1 PUSH4 0x648EA063 EQ PUSH2 0x281 JUMPI DUP1 PUSH4 0x715018A6 EQ PUSH2 0x2BD JUMPI DUP1 PUSH4 0x732C2C64 EQ PUSH2 0x2D3 JUMPI DUP1 PUSH4 0x7D25A05E EQ PUSH2 0x2FB JUMPI PUSH2 0x14A JUMP JUMPDEST DUP1 PUSH4 0x6EF0339 EQ PUSH2 0x14E JUMPI DUP1 PUSH4 0x13137D65 EQ PUSH2 0x178 JUMPI DUP1 PUSH4 0x17442B70 EQ PUSH2 0x194 JUMPI DUP1 PUSH4 0x19849D5B EQ PUSH2 0x1BF JUMPI DUP1 PUSH4 0x3400288B EQ PUSH2 0x1E9 JUMPI DUP1 PUSH4 0x3BBE032F EQ PUSH2 0x211 JUMPI JUMPDEST PUSH0 DUP1 REVERT JUMPDEST CALLVALUE DUP1 ISZERO PUSH2 0x159 JUMPI PUSH0 DUP1 REVERT JUMPDEST POP PUSH2 0x162 PUSH2 0x537 JUMP JUMPDEST PUSH1 0x40 MLOAD PUSH2 0x16F SWAP2 SWAP1 PUSH2 0x17DB JUMP JUMPDEST PUSH1 0x40 MLOAD DUP1 SWAP2 SUB SWAP1 RETURN JUMPDEST PUSH2 0x192 PUSH1 0x4 DUP1 CALLDATASIZE SUB DUP2 ADD SWAP1 PUSH2 0x18D SWAP2 SWAP1 PUSH2 0x18E5 JUMP JUMPDEST PUSH2 0x55C JUMP JUMPDEST STOP JUMPDEST CALLVALUE DUP1 ISZERO PUSH2 0x19F JUMPI PUSH0 DUP1 REVERT JUMPDEST POP PUSH2 0x1A8 PUSH2 0x67C JUMP JUMPDEST PUSH1 0x40 MLOAD PUSH2 0x1B6 SWAP3 SWAP2 SWAP1 PUSH2 0x19BE JUMP JUMPDEST PUSH1 0x40 MLOAD DUP1 SWAP2 SUB SWAP1 RETURN JUMPDEST CALLVALUE DUP1 ISZERO PUSH2 0x1CA JUMPI PUSH0 DUP1 REVERT JUMPDEST POP PUSH2 0x1D3 PUSH2 0x689 JUMP JUMPDEST PUSH1 0x40 MLOAD PUSH2 0x1E0 SWAP2 SWAP1 PUSH2 0x19FF JUMP JUMPDEST PUSH1 0x40 MLOAD DUP1 SWAP2 SUB SWAP1 RETURN JUMPDEST CALLVALUE DUP1 ISZERO PUSH2 0x1F4 JUMPI PUSH0 DUP1 REVERT JUMPDEST POP PUSH2 0x20F PUSH1 0x4 DUP1 CALLDATASIZE SUB DUP2 ADD SWAP1 PUSH2 0x20A SWAP2 SWAP1 PUSH2 0x1A51 JUMP JUMPDEST PUSH2 0x69C JUMP JUMPDEST STOP JUMPDEST PUSH2 0x22B PUSH1 0x4 DUP1 CALLDATASIZE SUB DUP2 ADD SWAP1 PUSH2 0x226 SWAP2 SWAP1 PUSH2 0x1AC2 JUMP JUMPDEST PUSH2 0x703 JUMP JUMPDEST STOP JUMPDEST CALLVALUE DUP1 ISZERO PUSH2 0x238 JUMPI PUSH0 DUP1 REVERT JUMPDEST POP PUSH2 0x241 PUSH2 0x8D4 JUMP JUMPDEST PUSH1 0x40 MLOAD PUSH2 0x24E SWAP2 SWAP1 PUSH2 0x1B6E JUMP JUMPDEST PUSH1 0x40 MLOAD DUP1 SWAP2 SUB SWAP1 RETURN JUMPDEST CALLVALUE DUP1 ISZERO PUSH2 0x262 JUMPI PUSH0 DUP1 REVERT JUMPDEST POP PUSH2 0x26B PUSH2 0x8DB JUMP JUMPDEST PUSH1 0x40 MLOAD PUSH2 0x278 SWAP2 SWAP1 PUSH2 0x1BE2 JUMP JUMPDEST PUSH1 0x40 MLOAD DUP1 SWAP2 SUB SWAP1 RETURN JUMPDEST CALLVALUE DUP1 ISZERO PUSH2 0x28C JUMPI PUSH0 DUP1 REVERT JUMPDEST POP PUSH2 0x2A7 PUSH1 0x4 DUP1 CALLDATASIZE SUB DUP2 ADD SWAP1 PUSH2 0x2A2 SWAP2 SWAP1 PUSH2 0x1BFB JUMP JUMPDEST PUSH2 0x8FF JUMP JUMPDEST PUSH1 0x40 MLOAD PUSH2 0x2B4 SWAP2 SWAP1 PUSH2 0x1D08 JUMP JUMPDEST PUSH1 0x40 MLOAD DUP1 SWAP2 SUB SWAP1 RETURN JUMPDEST CALLVALUE DUP1 ISZERO PUSH2 0x2C8 JUMPI PUSH0 DUP1 REVERT JUMPDEST POP PUSH2 0x2D1 PUSH2 0xB2E JUMP JUMPDEST STOP JUMPDEST CALLVALUE DUP1 ISZERO PUSH2 0x2DE JUMPI PUSH0 DUP1 REVERT JUMPDEST POP PUSH2 0x2F9 PUSH1 0x4 DUP1 CALLDATASIZE SUB DUP2 ADD SWAP1 PUSH2 0x2F4 SWAP2 SWAP1 PUSH2 0x1D22 JUMP JUMPDEST PUSH2 0xB41 JUMP JUMPDEST STOP JUMPDEST CALLVALUE DUP1 ISZERO PUSH2 0x306 JUMPI PUSH0 DUP1 REVERT JUMPDEST POP PUSH2 0x321 PUSH1 0x4 DUP1 CALLDATASIZE SUB DUP2 ADD SWAP1 PUSH2 0x31C SWAP2 SWAP1 PUSH2 0x1A51 JUMP JUMPDEST PUSH2 0xCD3 JUMP JUMPDEST PUSH1 0x40 MLOAD PUSH2 0x32E SWAP2 SWAP1 PUSH2 0x1D86 JUMP JUMPDEST PUSH1 0x40 MLOAD DUP1 SWAP2 SUB SWAP1 RETURN JUMPDEST CALLVALUE DUP1 ISZERO PUSH2 0x342 JUMPI PUSH0 DUP1 REVERT JUMPDEST POP PUSH2 0x34B PUSH2 0xCDA JUMP JUMPDEST PUSH1 0x40 MLOAD PUSH2 0x358 SWAP2 SWAP1 PUSH2 0x1DAE JUMP JUMPDEST PUSH1 0x40 MLOAD DUP1 SWAP2 SUB SWAP1 RETURN JUMPDEST CALLVALUE DUP1 ISZERO PUSH2 0x36C JUMPI PUSH0 DUP1 REVERT JUMPDEST POP PUSH2 0x375 PUSH2 0xCF0 JUMP JUMPDEST PUSH1 0x40 MLOAD PUSH2 0x382 SWAP2 SWAP1 PUSH2 0x17DB JUMP JUMPDEST PUSH1 0x40 MLOAD DUP1 SWAP2 SUB SWAP1 RETURN JUMPDEST CALLVALUE DUP1 ISZERO PUSH2 0x396 JUMPI PUSH0 DUP1 REVERT JUMPDEST POP PUSH2 0x3B1 PUSH1 0x4 DUP1 CALLDATASIZE SUB DUP2 ADD SWAP1 PUSH2 0x3AC SWAP2 SWAP1 PUSH2 0x1BFB JUMP JUMPDEST PUSH2 0xD17 JUMP JUMPDEST STOP JUMPDEST CALLVALUE DUP1 ISZERO PUSH2 0x3BE JUMPI PUSH0 DUP1 REVERT JUMPDEST POP PUSH2 0x3C7 PUSH2 0xEBF JUMP JUMPDEST PUSH1 0x40 MLOAD PUSH2 0x3D4 SWAP2 SWAP1 PUSH2 0x17DB JUMP JUMPDEST PUSH1 0x40 MLOAD DUP1 SWAP2 SUB SWAP1 RETURN JUMPDEST CALLVALUE DUP1 ISZERO PUSH2 0x3E8 JUMPI PUSH0 DUP1 REVERT JUMPDEST POP PUSH2 0x403 PUSH1 0x4 DUP1 CALLDATASIZE SUB DUP2 ADD SWAP1 PUSH2 0x3FE SWAP2 SWAP1 PUSH2 0x1DC7 JUMP JUMPDEST PUSH2 0xEC6 JUMP JUMPDEST PUSH1 0x40 MLOAD PUSH2 0x410 SWAP2 SWAP1 PUSH2 0x1E01 JUMP JUMPDEST PUSH1 0x40 MLOAD DUP1 SWAP2 SUB SWAP1 RETURN JUMPDEST CALLVALUE DUP1 ISZERO PUSH2 0x424 JUMPI PUSH0 DUP1 REVERT JUMPDEST POP PUSH2 0x42D PUSH2 0xEDB JUMP JUMPDEST PUSH1 0x40 MLOAD PUSH2 0x43A SWAP2 SWAP1 PUSH2 0x19FF JUMP JUMPDEST PUSH1 0x40 MLOAD DUP1 SWAP2 SUB SWAP1 RETURN JUMPDEST CALLVALUE DUP1 ISZERO PUSH2 0x44E JUMPI PUSH0 DUP1 REVERT JUMPDEST POP PUSH2 0x469 PUSH1 0x4 DUP1 CALLDATASIZE SUB DUP2 ADD SWAP1 PUSH2 0x464 SWAP2 SWAP1 PUSH2 0x1E1A JUMP JUMPDEST PUSH2 0xEEE JUMP JUMPDEST STOP JUMPDEST CALLVALUE DUP1 ISZERO PUSH2 0x476 JUMPI PUSH0 DUP1 REVERT JUMPDEST POP PUSH2 0x47F PUSH2 0xF7F JUMP JUMPDEST PUSH1 0x40 MLOAD PUSH2 0x48C SWAP2 SWAP1 PUSH2 0x17DB JUMP JUMPDEST PUSH1 0x40 MLOAD DUP1 SWAP2 SUB SWAP1 RETURN JUMPDEST CALLVALUE DUP1 ISZERO PUSH2 0x4A0 JUMPI PUSH0 DUP1 REVERT JUMPDEST POP PUSH2 0x4BB PUSH1 0x4 DUP1 CALLDATASIZE SUB DUP2 ADD SWAP1 PUSH2 0x4B6 SWAP2 SWAP1 PUSH2 0x1E1A JUMP JUMPDEST PUSH2 0xFA4 JUMP JUMPDEST STOP JUMPDEST CALLVALUE DUP1 ISZERO PUSH2 0x4C8 JUMPI PUSH0 DUP1 REVERT JUMPDEST POP PUSH2 0x4E3 PUSH1 0x4 DUP1 CALLDATASIZE SUB DUP2 ADD SWAP1 PUSH2 0x4DE SWAP2 SWAP1 PUSH2 0x1E1A JUMP JUMPDEST PUSH2 0x1076 JUMP JUMPDEST STOP JUMPDEST CALLVALUE DUP1 ISZERO PUSH2 0x4F0 JUMPI PUSH0 DUP1 REVERT JUMPDEST POP PUSH2 0x4F9 PUSH2 0x10FA JUMP JUMPDEST STOP JUMPDEST CALLVALUE DUP1 ISZERO PUSH2 0x506 JUMPI PUSH0 DUP1 REVERT JUMPDEST POP PUSH2 0x521 PUSH1 0x4 DUP1 CALLDATASIZE SUB DUP2 ADD SWAP1 PUSH2 0x51C SWAP2 SWAP1 PUSH2 0x1E45 JUMP JUMPDEST PUSH2 0x128B JUMP JUMPDEST PUSH1 0x40 MLOAD PUSH2 0x52E SWAP2 SWAP1 PUSH2 0x19FF JUMP JUMPDEST PUSH1 0x40 MLOAD DUP1 SWAP2 SUB SWAP1 RETURN JUMPDEST PUSH1 0x2 PUSH0 SWAP1 SLOAD SWAP1 PUSH2 0x100 EXP SWAP1 DIV PUSH20 0xFFFFFFFFFFFFFFFFFFFFFFFFFFFFFFFFFFFFFFFF AND DUP2 JUMP JUMPDEST CALLER PUSH20 0xFFFFFFFFFFFFFFFFFFFFFFFFFFFFFFFFFFFFFFFF AND PUSH32 0x0 PUSH20 0xFFFFFFFFFFFFFFFFFFFFFFFFFFFFFFFFFFFFFFFF AND EQ PUSH2 0x5EC JUMPI CALLER PUSH1 0x40 MLOAD PUSH32 0x91AC5E4F00000000000000000000000000000000000000000000000000000000 DUP2 MSTORE PUSH1 0x4 ADD PUSH2 0x5E3 SWAP2 SWAP1 PUSH2 0x17DB JUMP JUMPDEST PUSH1 0x40 MLOAD DUP1 SWAP2 SUB SWAP1 REVERT JUMPDEST DUP7 PUSH1 0x20 ADD CALLDATALOAD PUSH2 0x60B DUP9 PUSH0 ADD PUSH1 0x20 DUP2 ADD SWAP1 PUSH2 0x606 SWAP2 SWAP1 PUSH2 0x1DC7 JUMP JUMPDEST PUSH2 0x12C8 JUMP JUMPDEST EQ PUSH2 0x664 JUMPI DUP7 PUSH0 ADD PUSH1 0x20 DUP2 ADD SWAP1 PUSH2 0x622 SWAP2 SWAP1 PUSH2 0x1DC7 JUMP JUMPDEST DUP8 PUSH1 0x20 ADD CALLDATALOAD PUSH1 0x40 MLOAD PUSH32 0xC26BEBCC00000000000000000000000000000000000000000000000000000000 DUP2 MSTORE PUSH1 0x4 ADD PUSH2 0x65B SWAP3 SWAP2 SWAP1 PUSH2 0x1E70 JUMP JUMPDEST PUSH1 0x40 MLOAD DUP1 SWAP2 SUB SWAP1 REVERT JUMPDEST PUSH2 0x673 DUP8 DUP8 DUP8 DUP8 DUP8 DUP8 DUP8 PUSH2 0x1339 JUMP JUMPDEST POP POP POP POP POP POP POP JUMP JUMPDEST PUSH0 DUP1 PUSH1 0x1 DUP1 SWAP2 POP SWAP2 POP SWAP1 SWAP2 JUMP JUMPDEST PUSH1 0x3 PUSH1 0x15 SWAP1 SLOAD SWAP1 PUSH2 0x100 EXP SWAP1 DIV PUSH1 0xFF AND DUP2 JUMP JUMPDEST PUSH2 0x6A4 PUSH2 0x15C4 JUMP JUMPDEST DUP1 PUSH1 0x1 PUSH0 DUP5 PUSH4 0xFFFFFFFF AND PUSH4 0xFFFFFFFF AND DUP2 MSTORE PUSH1 0x20 ADD SWAP1 DUP2 MSTORE PUSH1 0x20 ADD PUSH0 KECCAK256 DUP2 SWAP1 SSTORE POP PUSH32 0x238399D427B947898EDB290F5FF0F9109849B1C3BA196A42E35F00C50A54B98B DUP3 DUP3 PUSH1 0x40 MLOAD PUSH2 0x6F7 SWAP3 SWAP2 SWAP1 PUSH2 0x1E70 JUMP JUMPDEST PUSH1 0x40 MLOAD DUP1 SWAP2 SUB SWAP1 LOG1 POP POP JUMP JUMPDEST PUSH1 0x1 PUSH1 0x3 PUSH1 0x15 PUSH2 0x100 EXP DUP2 SLOAD DUP2 PUSH1 0xFF MUL NOT AND SWAP1 DUP4 ISZERO ISZERO MUL OR SWAP1 SSTORE POP PUSH0 DUP1 PUSH1 0x2 PUSH0 SWAP1 SLOAD SWAP1 PUSH2 0x100 EXP SWAP1 DIV PUSH20 0xFFFFFFFFFFFFFFFFFFFFFFFFFFFFFFFFFFFFFFFF AND PUSH20 0xFFFFFFFFFFFFFFFFFFFFFFFFFFFFFFFFFFFFFFFF AND DUP5 DUP5 PUSH4 0xFFFFFFFF AND DUP12 DUP12 DUP12 DUP12 DUP12 PUSH1 0x40 MLOAD PUSH1 0x24 ADD PUSH2 0x77B SWAP8 SWAP7 SWAP6 SWAP5 SWAP4 SWAP3 SWAP2 SWAP1 PUSH2 0x1E97 JUMP JUMPDEST PUSH1 0x40 MLOAD PUSH1 0x20 DUP2 DUP4 SUB SUB DUP2 MSTORE SWAP1 PUSH1 0x40 MSTORE PUSH32 0x9390E44200000000000000000000000000000000000000000000000000000000 PUSH28 0xFFFFFFFFFFFFFFFFFFFFFFFFFFFFFFFFFFFFFFFFFFFFFFFFFFFFFFFF NOT AND PUSH1 0x20 DUP3 ADD DUP1 MLOAD PUSH28 0xFFFFFFFFFFFFFFFFFFFFFFFFFFFFFFFFFFFFFFFFFFFFFFFFFFFFFFFF DUP4 DUP2 DUP4 AND OR DUP4 MSTORE POP POP POP POP PUSH1 0x40 MLOAD PUSH2 0x805 SWAP2 SWAP1 PUSH2 0x1F56 JUMP JUMPDEST PUSH0 PUSH1 0x40 MLOAD DUP1 DUP4 SUB DUP2 PUSH0 DUP7 GAS CALL SWAP2 POP POP RETURNDATASIZE DUP1 PUSH0 DUP2 EQ PUSH2 0x83E JUMPI PUSH1 0x40 MLOAD SWAP2 POP PUSH1 0x1F NOT PUSH1 0x3F RETURNDATASIZE ADD AND DUP3 ADD PUSH1 0x40 MSTORE RETURNDATASIZE DUP3 MSTORE RETURNDATASIZE PUSH0 PUSH1 0x20 DUP5 ADD RETURNDATACOPY PUSH2 0x843 JUMP JUMPDEST PUSH1 0x60 SWAP2 POP JUMPDEST POP SWAP2 POP SWAP2 POP DUP2 PUSH2 0x888 JUMPI PUSH1 0x40 MLOAD PUSH32 0x8C379A000000000000000000000000000000000000000000000000000000000 DUP2 MSTORE PUSH1 0x4 ADD PUSH2 0x87F SWAP1 PUSH2 0x1FC6 JUMP JUMPDEST PUSH1 0x40 MLOAD DUP1 SWAP2 SUB SWAP1 REVERT JUMPDEST PUSH0 DUP1 PUSH0 DUP1 PUSH0 DUP1 PUSH0 DUP1 PUSH0 DUP1 DUP11 DUP1 PUSH1 0x20 ADD SWAP1 MLOAD DUP2 ADD SWAP1 PUSH2 0x8A6 SWAP2 SWAP1 PUSH2 0x2066 JUMP JUMPDEST SWAP10 POP SWAP10 POP SWAP10 POP SWAP10 POP SWAP10 POP SWAP10 POP SWAP10 POP SWAP10 POP SWAP10 POP SWAP10 POP PUSH0 DUP9 SWAP1 POP POP POP POP POP POP POP POP POP POP POP POP POP POP POP POP POP POP POP POP POP JUMP JUMPDEST PUSH0 CHAINID SWAP1 POP SWAP1 JUMP JUMPDEST PUSH32 0x0 DUP2 JUMP JUMPDEST PUSH2 0x907 PUSH2 0x1713 JUMP JUMPDEST PUSH0 DUP1 PUSH1 0x2 PUSH0 SWAP1 SLOAD SWAP1 PUSH2 0x100 EXP SWAP1 DIV PUSH20 0xFFFFFFFFFFFFFFFFFFFFFFFFFFFFFFFFFFFFFFFF AND PUSH20 0xFFFFFFFFFFFFFFFFFFFFFFFFFFFFFFFFFFFFFFFF AND DUP5 PUSH1 0x40 MLOAD PUSH1 0x24 ADD PUSH2 0x952 SWAP2 SWAP1 PUSH2 0x1B6E JUMP JUMPDEST PUSH1 0x40 MLOAD PUSH1 0x20 DUP2 DUP4 SUB SUB DUP2 MSTORE SWAP1 PUSH1 0x40 MSTORE PUSH32 0x648EA06300000000000000000000000000000000000000000000000000000000 PUSH28 0xFFFFFFFFFFFFFFFFFFFFFFFFFFFFFFFFFFFFFFFFFFFFFFFFFFFFFFFF NOT AND PUSH1 0x20 DUP3 ADD DUP1 MLOAD PUSH28 0xFFFFFFFFFFFFFFFFFFFFFFFFFFFFFFFFFFFFFFFFFFFFFFFFFFFFFFFF DUP4 DUP2 DUP4 AND OR DUP4 MSTORE POP POP POP POP PUSH1 0x40 MLOAD PUSH2 0x9DC SWAP2 SWAP1 PUSH2 0x1F56 JUMP JUMPDEST PUSH0 PUSH1 0x40 MLOAD DUP1 DUP4 SUB DUP2 DUP6 GAS STATICCALL SWAP2 POP POP RETURNDATASIZE DUP1 PUSH0 DUP2 EQ PUSH2 0xA14 JUMPI PUSH1 0x40 MLOAD SWAP2 POP PUSH1 0x1F NOT PUSH1 0x3F RETURNDATASIZE ADD AND DUP3 ADD PUSH1 0x40 MSTORE RETURNDATASIZE DUP3 MSTORE RETURNDATASIZE PUSH0 PUSH1 0x20 DUP5 ADD RETURNDATACOPY PUSH2 0xA19 JUMP JUMPDEST PUSH1 0x60 SWAP2 POP JUMPDEST POP SWAP2 POP SWAP2 POP DUP2 PUSH2 0xA5E JUMPI PUSH1 0x40 MLOAD PUSH32 0x8C379A000000000000000000000000000000000000000000000000000000000 DUP2 MSTORE PUSH1 0x4 ADD PUSH2 0xA55 SWAP1 PUSH2 0x2189 JUMP JUMPDEST PUSH1 0x40 MLOAD DUP1 SWAP2 SUB SWAP1 REVERT JUMPDEST PUSH0 DUP1 PUSH0 DUP1 PUSH0 DUP1 PUSH0 DUP1 PUSH0 DUP1 DUP11 DUP1 PUSH1 0x20 ADD SWAP1 MLOAD DUP2 ADD SWAP1 PUSH2 0xA7C SWAP2 SWAP1 PUSH2 0x21D1 JUMP JUMPDEST SWAP10 POP SWAP10 POP SWAP10 POP SWAP10 POP SWAP10 POP SWAP10 POP SWAP10 POP SWAP10 POP SWAP10 POP SWAP10 POP PUSH0 PUSH1 0x40 MLOAD DUP1 PUSH2 0x120 ADD PUSH1 0x40 MSTORE DUP1 DUP13 DUP2 MSTORE PUSH1 0x20 ADD DUP12 PUSH20 0xFFFFFFFFFFFFFFFFFFFFFFFFFFFFFFFFFFFFFFFF AND DUP2 MSTORE PUSH1 0x20 ADD DUP11 DUP2 MSTORE PUSH1 0x20 ADD DUP10 PUSH20 0xFFFFFFFFFFFFFFFFFFFFFFFFFFFFFFFFFFFFFFFF AND DUP2 MSTORE PUSH1 0x20 ADD DUP9 PUSH20 0xFFFFFFFFFFFFFFFFFFFFFFFFFFFFFFFFFFFFFFFF AND DUP2 MSTORE PUSH1 0x20 ADD DUP8 DUP2 MSTORE PUSH1 0x20 ADD DUP6 DUP2 MSTORE PUSH1 0x20 ADD DUP5 ISZERO ISZERO DUP2 MSTORE PUSH1 0x20 ADD DUP4 ISZERO ISZERO DUP2 MSTORE POP SWAP1 POP DUP1 SWAP14 POP POP POP POP POP POP POP POP POP POP POP POP POP POP SWAP2 SWAP1 POP JUMP JUMPDEST PUSH2 0xB36 PUSH2 0x15C4 JUMP JUMPDEST PUSH2 0xB3F PUSH0 PUSH2 0x164B JUMP JUMPDEST JUMP JUMPDEST PUSH0 DUP1 PUSH1 0x2 PUSH0 SWAP1 SLOAD SWAP1 PUSH2 0x100 EXP SWAP1 DIV PUSH20 0xFFFFFFFFFFFFFFFFFFFFFFFFFFFFFFFFFFFFFFFF AND PUSH20 0xFFFFFFFFFFFFFFFFFFFFFFFFFFFFFFFFFFFFFFFF AND DUP7 DUP7 DUP7 DUP7 PUSH1 0x40 MLOAD PUSH1 0x24 ADD PUSH2 0xB92 SWAP5 SWAP4 SWAP3 SWAP2 SWAP1 PUSH2 0x22AA JUMP JUMPDEST PUSH1 0x40 MLOAD PUSH1 0x20 DUP2 DUP4 SUB SUB DUP2 MSTORE SWAP1 PUSH1 0x40 MSTORE PUSH32 0x732C2C6400000000000000000000000000000000000000000000000000000000 PUSH28 0xFFFFFFFFFFFFFFFFFFFFFFFFFFFFFFFFFFFFFFFFFFFFFFFFFFFFFFFF NOT AND PUSH1 0x20 DUP3 ADD DUP1 MLOAD PUSH28 0xFFFFFFFFFFFFFFFFFFFFFFFFFFFFFFFFFFFFFFFFFFFFFFFFFFFFFFFF DUP4 DUP2 DUP4 AND OR DUP4 MSTORE POP POP POP POP PUSH1 0x40 MLOAD PUSH2 0xC1C SWAP2 SWAP1 PUSH2 0x1F56 JUMP JUMPDEST PUSH0 PUSH1 0x40 MLOAD DUP1 DUP4 SUB DUP2 PUSH0 DUP7 GAS CALL SWAP2 POP POP RETURNDATASIZE DUP1 PUSH0 DUP2 EQ PUSH2 0xC55 JUMPI PUSH1 0x40 MLOAD SWAP2 POP PUSH1 0x1F NOT PUSH1 0x3F RETURNDATASIZE ADD AND DUP3 ADD PUSH1 0x40 MSTORE RETURNDATASIZE DUP3 MSTORE RETURNDATASIZE PUSH0 PUSH1 0x20 DUP5 ADD RETURNDATACOPY PUSH2 0xC5A JUMP JUMPDEST PUSH1 0x60 SWAP2 POP JUMPDEST POP SWAP2 POP SWAP2 POP DUP2 PUSH2 0xC9F JUMPI PUSH1 0x40 MLOAD PUSH32 0x8C379A000000000000000000000000000000000000000000000000000000000 DUP2 MSTORE PUSH1 0x4 ADD PUSH2 0xC96 SWAP1 PUSH2 0x2337 JUMP JUMPDEST PUSH1 0x40 MLOAD DUP1 SWAP2 SUB SWAP1 REVERT JUMPDEST PUSH0 DUP1 PUSH0 DUP1 PUSH0 DUP1 DUP7 DUP1 PUSH1 0x20 ADD SWAP1 MLOAD DUP2 ADD SWAP1 PUSH2 0xCB9 SWAP2 SWAP1 PUSH2 0x2355 JUMP JUMPDEST SWAP6 POP SWAP6 POP SWAP6 POP SWAP6 POP SWAP6 POP SWAP6 POP POP POP POP POP POP POP POP POP POP POP POP POP JUMP JUMPDEST PUSH0 SWAP3 SWAP2 POP POP JUMP JUMPDEST PUSH1 0x3 PUSH1 0x16 SWAP1 SLOAD SWAP1 PUSH2 0x100 EXP SWAP1 DIV PUSH4 0xFFFFFFFF AND DUP2 JUMP JUMPDEST PUSH0 DUP1 PUSH0 SWAP1 SLOAD SWAP1 PUSH2 0x100 EXP SWAP1 DIV PUSH20 0xFFFFFFFFFFFFFFFFFFFFFFFFFFFFFFFFFFFFFFFF AND SWAP1 POP SWAP1 JUMP JUMPDEST PUSH0 PUSH1 0x2 PUSH0 SWAP1 SLOAD SWAP1 PUSH2 0x100 EXP SWAP1 DIV PUSH20 0xFFFFFFFFFFFFFFFFFFFFFFFFFFFFFFFFFFFFFFFF AND PUSH20 0xFFFFFFFFFFFFFFFFFFFFFFFFFFFFFFFFFFFFFFFF AND DUP3 PUSH1 0x40 MLOAD PUSH1 0x24 ADD PUSH2 0xD61 SWAP2 SWAP1 PUSH2 0x1B6E JUMP JUMPDEST PUSH1 0x40 MLOAD PUSH1 0x20 DUP2 DUP4 SUB SUB DUP2 MSTORE SWAP1 PUSH1 0x40 MSTORE PUSH32 0xA5CDC8FC00000000000000000000000000000000000000000000000000000000 PUSH28 0xFFFFFFFFFFFFFFFFFFFFFFFFFFFFFFFFFFFFFFFFFFFFFFFFFFFFFFFF NOT AND PUSH1 0x20 DUP3 ADD DUP1 MLOAD PUSH28 0xFFFFFFFFFFFFFFFFFFFFFFFFFFFFFFFFFFFFFFFFFFFFFFFFFFFFFFFF DUP4 DUP2 DUP4 AND OR DUP4 MSTORE POP POP POP POP PUSH1 0x40 MLOAD PUSH2 0xDEB SWAP2 SWAP1 PUSH2 0x1F56 JUMP JUMPDEST PUSH0 PUSH1 0x40 MLOAD DUP1 DUP4 SUB DUP2 PUSH0 DUP7 GAS CALL SWAP2 POP POP RETURNDATASIZE DUP1 PUSH0 DUP2 EQ PUSH2 0xE24 JUMPI PUSH1 0x40 MLOAD SWAP2 POP PUSH1 0x1F NOT PUSH1 0x3F RETURNDATASIZE ADD AND DUP3 ADD PUSH1 0x40 MSTORE RETURNDATASIZE DUP3 MSTORE RETURNDATASIZE PUSH0 PUSH1 0x20 DUP5 ADD RETURNDATACOPY PUSH2 0xE29 JUMP JUMPDEST PUSH1 0x60 SWAP2 POP JUMPDEST POP POP SWAP1 POP DUP1 PUSH2 0xE6D JUMPI PUSH1 0x40 MLOAD PUSH32 0x8C379A000000000000000000000000000000000000000000000000000000000 DUP2 MSTORE PUSH1 0x4 ADD PUSH2 0xE64 SWAP1 PUSH2 0x2428 JUMP JUMPDEST PUSH1 0x40 MLOAD DUP1 SWAP2 SUB SWAP1 REVERT JUMPDEST CALLER PUSH20 0xFFFFFFFFFFFFFFFFFFFFFFFFFFFFFFFFFFFFFFFF AND PUSH32 0x9384174C8517F5537B08E79211FC039E8A098571A3A2B4CB21DFA6F3237E8DE1 DUP4 PUSH1 0x40 MLOAD PUSH2 0xEB3 SWAP2 SWAP1 PUSH2 0x1B6E JUMP JUMPDEST PUSH1 0x40 MLOAD DUP1 SWAP2 SUB SWAP1 LOG2 POP POP JUMP JUMPDEST PUSH0 ADDRESS SWAP1 POP SWAP1 JUMP JUMPDEST PUSH1 0x1 PUSH1 0x20 MSTORE DUP1 PUSH0 MSTORE PUSH1 0x40 PUSH0 KECCAK256 PUSH0 SWAP2 POP SWAP1 POP SLOAD DUP2 JUMP JUMPDEST PUSH1 0x3 PUSH1 0x14 SWAP1 SLOAD SWAP1 PUSH2 0x100 EXP SWAP1 DIV PUSH1 0xFF AND DUP2 JUMP JUMPDEST PUSH2 0xEF6 PUSH2 0x15C4 JUMP JUMPDEST PUSH32 0x0 PUSH20 0xFFFFFFFFFFFFFFFFFFFFFFFFFFFFFFFFFFFFFFFF AND PUSH4 0xCA5EB5E1 DUP3 PUSH1 0x40 MLOAD DUP3 PUSH4 0xFFFFFFFF AND PUSH1 0xE0 SHL DUP2 MSTORE PUSH1 0x4 ADD PUSH2 0xF4F SWAP2 SWAP1 PUSH2 0x17DB JUMP JUMPDEST PUSH0 PUSH1 0x40 MLOAD DUP1 DUP4 SUB DUP2 PUSH0 DUP8 DUP1 EXTCODESIZE ISZERO DUP1 ISZERO PUSH2 0xF66 JUMPI PUSH0 DUP1 REVERT JUMPDEST POP GAS CALL ISZERO DUP1 ISZERO PUSH2 0xF78 JUMPI RETURNDATASIZE PUSH0 DUP1 RETURNDATACOPY RETURNDATASIZE PUSH0 REVERT JUMPDEST POP POP POP POP POP JUMP JUMPDEST PUSH1 0x3 PUSH0 SWAP1 SLOAD SWAP1 PUSH2 0x100 EXP SWAP1 DIV PUSH20 0xFFFFFFFFFFFFFFFFFFFFFFFFFFFFFFFFFFFFFFFF AND DUP2 JUMP JUMPDEST PUSH1 0x3 PUSH0 SWAP1 SLOAD SWAP1 PUSH2 0x100 EXP SWAP1 DIV PUSH20 0xFFFFFFFFFFFFFFFFFFFFFFFFFFFFFFFFFFFFFFFF AND PUSH20 0xFFFFFFFFFFFFFFFFFFFFFFFFFFFFFFFFFFFFFFFF AND CALLER PUSH20 0xFFFFFFFFFFFFFFFFFFFFFFFFFFFFFFFFFFFFFFFF AND EQ PUSH2 0x1033 JUMPI PUSH1 0x40 MLOAD PUSH32 0x8C379A000000000000000000000000000000000000000000000000000000000 DUP2 MSTORE PUSH1 0x4 ADD PUSH2 0x102A SWAP1 PUSH2 0x24B6 JUMP JUMPDEST PUSH1 0x40 MLOAD DUP1 SWAP2 SUB SWAP1 REVERT JUMPDEST DUP1 PUSH1 0x2 PUSH0 PUSH2 0x100 EXP DUP2 SLOAD DUP2 PUSH20 0xFFFFFFFFFFFFFFFFFFFFFFFFFFFFFFFFFFFFFFFF MUL NOT AND SWAP1 DUP4 PUSH20 0xFFFFFFFFFFFFFFFFFFFFFFFFFFFFFFFFFFFFFFFF AND MUL OR SWAP1 SSTORE POP POP JUMP JUMPDEST PUSH2 0x107E PUSH2 0x15C4 JUMP JUMPDEST PUSH0 PUSH20 0xFFFFFFFFFFFFFFFFFFFFFFFFFFFFFFFFFFFFFFFF AND DUP2 PUSH20 0xFFFFFFFFFFFFFFFFFFFFFFFFFFFFFFFFFFFFFFFF AND SUB PUSH2 0x10EE JUMPI PUSH0 PUSH1 0x40 MLOAD PUSH32 0x1E4FBDF700000000000000000000000000000000000000000000000000000000 DUP2 MSTORE PUSH1 0x4 ADD PUSH2 0x10E5 SWAP2 SWAP1 PUSH2 0x17DB JUMP JUMPDEST PUSH1 0x40 MLOAD DUP1 SWAP2 SUB SWAP1 REVERT JUMPDEST PUSH2 0x10F7 DUP2 PUSH2 0x164B JUMP JUMPDEST POP JUMP JUMPDEST PUSH0 PUSH1 0x2 PUSH0 SWAP1 SLOAD SWAP1 PUSH2 0x100 EXP SWAP1 DIV PUSH20 0xFFFFFFFFFFFFFFFFFFFFFFFFFFFFFFFFFFFFFFFF AND PUSH20 0xFFFFFFFFFFFFFFFFFFFFFFFFFFFFFFFFFFFFFFFF AND PUSH1 0x40 MLOAD PUSH1 0x24 ADD PUSH1 0x40 MLOAD PUSH1 0x20 DUP2 DUP4 SUB SUB DUP2 MSTORE SWAP1 PUSH1 0x40 MSTORE PUSH32 0xFDE8959800000000000000000000000000000000000000000000000000000000 PUSH28 0xFFFFFFFFFFFFFFFFFFFFFFFFFFFFFFFFFFFFFFFFFFFFFFFFFFFFFFFF NOT AND PUSH1 0x20 DUP3 ADD DUP1 MLOAD PUSH28 0xFFFFFFFFFFFFFFFFFFFFFFFFFFFFFFFFFFFFFFFFFFFFFFFFFFFFFFFF DUP4 DUP2 DUP4 AND OR DUP4 MSTORE POP POP POP POP PUSH1 0x40 MLOAD PUSH2 0x11C3 SWAP2 SWAP1 PUSH2 0x1F56 JUMP JUMPDEST PUSH0 PUSH1 0x40 MLOAD DUP1 DUP4 SUB DUP2 PUSH0 DUP7 GAS CALL SWAP2 POP POP RETURNDATASIZE DUP1 PUSH0 DUP2 EQ PUSH2 0x11FC JUMPI PUSH1 0x40 MLOAD SWAP2 POP PUSH1 0x1F NOT PUSH1 0x3F RETURNDATASIZE ADD AND DUP3 ADD PUSH1 0x40 MSTORE RETURNDATASIZE DUP3 MSTORE RETURNDATASIZE PUSH0 PUSH1 0x20 DUP5 ADD RETURNDATACOPY PUSH2 0x1201 JUMP JUMPDEST PUSH1 0x60 SWAP2 POP JUMPDEST POP POP SWAP1 POP DUP1 PUSH2 0x1245 JUMPI PUSH1 0x40 MLOAD PUSH32 0x8C379A000000000000000000000000000000000000000000000000000000000 DUP2 MSTORE PUSH1 0x4 ADD PUSH2 0x123C SWAP1 PUSH2 0x2544 JUMP JUMPDEST PUSH1 0x40 MLOAD DUP1 SWAP2 SUB SWAP1 REVERT JUMPDEST CALLER PUSH20 0xFFFFFFFFFFFFFFFFFFFFFFFFFFFFFFFFFFFFFFFF AND PUSH32 0x8595565D6FC010BABC8F7612A8768886D8FE08635F358D75AF306FDF25F00D03 PUSH1 0x40 MLOAD PUSH1 0x40 MLOAD DUP1 SWAP2 SUB SWAP1 LOG2 POP JUMP JUMPDEST PUSH0 DUP2 PUSH1 0x20 ADD CALLDATALOAD PUSH1 0x1 PUSH0 DUP5 PUSH0 ADD PUSH1 0x20 DUP2 ADD SWAP1 PUSH2 0x12A6 SWAP2 SWAP1 PUSH2 0x1DC7 JUMP JUMPDEST PUSH4 0xFFFFFFFF AND PUSH4 0xFFFFFFFF AND DUP2 MSTORE PUSH1 0x20 ADD SWAP1 DUP2 MSTORE PUSH1 0x20 ADD PUSH0 KECCAK256 SLOAD EQ SWAP1 POP SWAP2 SWAP1 POP JUMP JUMPDEST PUSH0 DUP1 PUSH1 0x1 PUSH0 DUP5 PUSH4 0xFFFFFFFF AND PUSH4 0xFFFFFFFF AND DUP2 MSTORE PUSH1 0x20 ADD SWAP1 DUP2 MSTORE PUSH1 0x20 ADD PUSH0 KECCAK256 SLOAD SWAP1 POP PUSH0 DUP1 SHL DUP2 SUB PUSH2 0x1330 JUMPI DUP3 PUSH1 0x40 MLOAD PUSH32 0xF6FF4FB700000000000000000000000000000000000000000000000000000000 DUP2 MSTORE PUSH1 0x4 ADD PUSH2 0x1327 SWAP2 SWAP1 PUSH2 0x1DAE JUMP JUMPDEST PUSH1 0x40 MLOAD DUP1 SWAP2 SUB SWAP1 REVERT JUMPDEST DUP1 SWAP2 POP POP SWAP2 SWAP1 POP JUMP JUMPDEST PUSH0 DUP1 PUSH0 DUP1 PUSH0 DUP1 PUSH0 DUP12 DUP12 DUP2 ADD SWAP1 PUSH2 0x134F SWAP2 SWAP1 PUSH2 0x26AE JUMP JUMPDEST SWAP7 POP SWAP7 POP SWAP7 POP SWAP7 POP SWAP7 POP SWAP7 POP SWAP7 POP PUSH0 DUP15 PUSH0 ADD PUSH1 0x20 DUP2 ADD SWAP1 PUSH2 0x1370 SWAP2 SWAP1 PUSH2 0x1DC7 JUMP JUMPDEST SWAP1 POP PUSH0 DUP16 PUSH1 0x20 ADD CALLDATALOAD SWAP1 POP PUSH1 0x1 PUSH1 0x3 PUSH1 0x14 PUSH2 0x100 EXP DUP2 SLOAD DUP2 PUSH1 0xFF MUL NOT AND SWAP1 DUP4 ISZERO ISZERO MUL OR SWAP1 SSTORE POP DUP2 PUSH1 0x3 PUSH1 0x16 PUSH2 0x100 EXP DUP2 SLOAD DUP2 PUSH4 0xFFFFFFFF MUL NOT AND SWAP1 DUP4 PUSH4 0xFFFFFFFF AND MUL OR SWAP1 SSTORE POP PUSH1 0x40 MLOAD PUSH1 0x20 ADD PUSH2 0x13C5 SWAP1 PUSH2 0x27BB JUMP JUMPDEST PUSH1 0x40 MLOAD PUSH1 0x20 DUP2 DUP4 SUB SUB DUP2 MSTORE SWAP1 PUSH1 0x40 MSTORE DUP1 MLOAD SWAP1 PUSH1 0x20 ADD KECCAK256 DUP8 PUSH1 0x40 MLOAD PUSH1 0x20 ADD PUSH2 0x13EC SWAP2 SWAP1 PUSH2 0x2809 JUMP JUMPDEST PUSH1 0x40 MLOAD PUSH1 0x20 DUP2 DUP4 SUB SUB DUP2 MSTORE SWAP1 PUSH1 0x40 MSTORE DUP1 MLOAD SWAP1 PUSH1 0x20 ADD KECCAK256 SUB PUSH2 0x147E JUMPI ADDRESS PUSH20 0xFFFFFFFFFFFFFFFFFFFFFFFFFFFFFFFFFFFFFFFF AND PUSH4 0x3BBE032F DUP10 DUP9 DUP9 DUP9 DUP9 DUP16 DUP10 PUSH1 0x40 MLOAD DUP9 PUSH4 0xFFFFFFFF AND PUSH1 0xE0 SHL DUP2 MSTORE PUSH1 0x4 ADD PUSH2 0x144C SWAP8 SWAP7 SWAP6 SWAP5 SWAP4 SWAP3 SWAP2 SWAP1 PUSH2 0x281F JUMP JUMPDEST PUSH0 PUSH1 0x40 MLOAD DUP1 DUP4 SUB DUP2 PUSH0 DUP8 DUP1 EXTCODESIZE ISZERO DUP1 ISZERO PUSH2 0x1463 JUMPI PUSH0 DUP1 REVERT JUMPDEST POP GAS CALL ISZERO DUP1 ISZERO PUSH2 0x1475 JUMPI RETURNDATASIZE PUSH0 DUP1 RETURNDATACOPY RETURNDATASIZE PUSH0 REVERT JUMPDEST POP POP POP POP PUSH2 0x15B2 JUMP JUMPDEST PUSH1 0x40 MLOAD PUSH1 0x20 ADD PUSH2 0x148D SWAP1 PUSH2 0x28D6 JUMP JUMPDEST PUSH1 0x40 MLOAD PUSH1 0x20 DUP2 DUP4 SUB SUB DUP2 MSTORE SWAP1 PUSH1 0x40 MSTORE DUP1 MLOAD SWAP1 PUSH1 0x20 ADD KECCAK256 DUP8 PUSH1 0x40 MLOAD PUSH1 0x20 ADD PUSH2 0x14B4 SWAP2 SWAP1 PUSH2 0x2809 JUMP JUMPDEST PUSH1 0x40 MLOAD PUSH1 0x20 DUP2 DUP4 SUB SUB DUP2 MSTORE SWAP1 PUSH1 0x40 MSTORE DUP1 MLOAD SWAP1 PUSH1 0x20 ADD KECCAK256 SUB ISZERO PUSH2 0x15B1 JUMPI PUSH1 0x40 MLOAD PUSH1 0x20 ADD PUSH2 0x14DF SWAP1 PUSH2 0x2934 JUMP JUMPDEST PUSH1 0x40 MLOAD PUSH1 0x20 DUP2 DUP4 SUB SUB DUP2 MSTORE SWAP1 PUSH1 0x40 MSTORE DUP1 MLOAD SWAP1 PUSH1 0x20 ADD KECCAK256 DUP8 PUSH1 0x40 MLOAD PUSH1 0x20 ADD PUSH2 0x1506 SWAP2 SWAP1 PUSH2 0x2809 JUMP JUMPDEST PUSH1 0x40 MLOAD PUSH1 0x20 DUP2 DUP4 SUB SUB DUP2 MSTORE SWAP1 PUSH1 0x40 MSTORE DUP1 MLOAD SWAP1 PUSH1 0x20 ADD KECCAK256 SUB ISZERO PUSH2 0x15B0 JUMPI PUSH1 0x40 MLOAD PUSH1 0x20 ADD PUSH2 0x1531 SWAP1 PUSH2 0x2992 JUMP JUMPDEST PUSH1 0x40 MLOAD PUSH1 0x20 DUP2 DUP4 SUB SUB DUP2 MSTORE SWAP1 PUSH1 0x40 MSTORE DUP1 MLOAD SWAP1 PUSH1 0x20 ADD KECCAK256 DUP8 PUSH1 0x40 MLOAD PUSH1 0x20 ADD PUSH2 0x1558 SWAP2 SWAP1 PUSH2 0x2809 JUMP JUMPDEST PUSH1 0x40 MLOAD PUSH1 0x20 DUP2 DUP4 SUB SUB DUP2 MSTORE SWAP1 PUSH1 0x40 MSTORE DUP1 MLOAD SWAP1 PUSH1 0x20 ADD KECCAK256 SUB ISZERO PUSH2 0x15AF JUMPI PUSH1 0x40 MLOAD PUSH32 0x8C379A000000000000000000000000000000000000000000000000000000000 DUP2 MSTORE PUSH1 0x4 ADD PUSH2 0x15A6 SWAP1 PUSH2 0x29F0 JUMP JUMPDEST PUSH1 0x40 MLOAD DUP1 SWAP2 SUB SWAP1 REVERT JUMPDEST JUMPDEST JUMPDEST JUMPDEST POP POP POP POP POP POP POP POP POP POP POP POP POP POP POP POP JUMP JUMPDEST PUSH2 0x15CC PUSH2 0x170C JUMP JUMPDEST PUSH20 0xFFFFFFFFFFFFFFFFFFFFFFFFFFFFFFFFFFFFFFFF AND PUSH2 0x15EA PUSH2 0xCF0 JUMP JUMPDEST PUSH20 0xFFFFFFFFFFFFFFFFFFFFFFFFFFFFFFFFFFFFFFFF AND EQ PUSH2 0x1649 JUMPI PUSH2 0x160D PUSH2 0x170C JUMP JUMPDEST PUSH1 0x40 MLOAD PUSH32 0x118CDAA700000000000000000000000000000000000000000000000000000000 DUP2 MSTORE PUSH1 0x4 ADD PUSH2 0x1640 SWAP2 SWAP1 PUSH2 0x17DB JUMP JUMPDEST PUSH1 0x40 MLOAD DUP1 SWAP2 SUB SWAP1 REVERT JUMPDEST JUMP JUMPDEST PUSH0 DUP1 PUSH0 SWAP1 SLOAD SWAP1 PUSH2 0x100 EXP SWAP1 DIV PUSH20 0xFFFFFFFFFFFFFFFFFFFFFFFFFFFFFFFFFFFFFFFF AND SWAP1 POP DUP2 PUSH0 DUP1 PUSH2 0x100 EXP DUP2 SLOAD DUP2 PUSH20 0xFFFFFFFFFFFFFFFFFFFFFFFFFFFFFFFFFFFFFFFF MUL NOT AND SWAP1 DUP4 PUSH20 0xFFFFFFFFFFFFFFFFFFFFFFFFFFFFFFFFFFFFFFFF AND MUL OR SWAP1 SSTORE POP DUP2 PUSH20 0xFFFFFFFFFFFFFFFFFFFFFFFFFFFFFFFFFFFFFFFF AND DUP2 PUSH20 0xFFFFFFFFFFFFFFFFFFFFFFFFFFFFFFFFFFFFFFFF AND PUSH32 0x8BE0079C531659141344CD1FD0A4F28419497F9722A3DAAFE3B4186F6B6457E0 PUSH1 0x40 MLOAD PUSH1 0x40 MLOAD DUP1 SWAP2 SUB SWAP1 LOG3 POP POP JUMP JUMPDEST PUSH0 CALLER SWAP1 POP SWAP1 JUMP JUMPDEST PUSH1 0x40 MLOAD DUP1 PUSH2 0x120 ADD PUSH1 0x40 MSTORE DUP1 PUSH0 DUP2 MSTORE PUSH1 0x20 ADD PUSH0 PUSH20 0xFFFFFFFFFFFFFFFFFFFFFFFFFFFFFFFFFFFFFFFF AND DUP2 MSTORE PUSH1 0x20 ADD PUSH0 DUP2 MSTORE PUSH1 0x20 ADD PUSH0 PUSH20 0xFFFFFFFFFFFFFFFFFFFFFFFFFFFFFFFFFFFFFFFF AND DUP2 MSTORE PUSH1 0x20 ADD PUSH0 PUSH20 0xFFFFFFFFFFFFFFFFFFFFFFFFFFFFFFFFFFFFFFFF AND DUP2 MSTORE PUSH1 0x20 ADD PUSH0 DUP2 MSTORE PUSH1 0x20 ADD PUSH0 DUP2 MSTORE PUSH1 0x20 ADD PUSH0 ISZERO ISZERO DUP2 MSTORE PUSH1 0x20 ADD PUSH0 ISZERO ISZERO DUP2 MSTORE POP SWAP1 JUMP JUMPDEST PUSH0 PUSH20 0xFFFFFFFFFFFFFFFFFFFFFFFFFFFFFFFFFFFFFFFF DUP3 AND SWAP1 POP SWAP2 SWAP1 POP JUMP JUMPDEST PUSH0 PUSH2 0x17C5 DUP3 PUSH2 0x179C JUMP JUMPDEST SWAP1 POP SWAP2 SWAP1 POP JUMP JUMPDEST PUSH2 0x17D5 DUP2 PUSH2 0x17BB JUMP JUMPDEST DUP3 MSTORE POP POP JUMP JUMPDEST PUSH0 PUSH1 0x20 DUP3 ADD SWAP1 POP PUSH2 0x17EE PUSH0 DUP4 ADD DUP5 PUSH2 0x17CC JUMP JUMPDEST SWAP3 SWAP2 POP POP JUMP JUMPDEST PUSH0 PUSH1 0x40 MLOAD SWAP1 POP SWAP1 JUMP JUMPDEST PUSH0 DUP1 REVERT JUMPDEST PUSH0 DUP1 REVERT JUMPDEST PUSH0 DUP1 REVERT JUMPDEST PUSH0 PUSH1 0x60 DUP3 DUP5 SUB SLT ISZERO PUSH2 0x181E JUMPI PUSH2 0x181D PUSH2 0x1805 JUMP JUMPDEST JUMPDEST DUP2 SWAP1 POP SWAP3 SWAP2 POP POP JUMP JUMPDEST PUSH0 DUP2 SWAP1 POP SWAP2 SWAP1 POP JUMP JUMPDEST PUSH2 0x1839 DUP2 PUSH2 0x1827 JUMP JUMPDEST DUP2 EQ PUSH2 0x1843 JUMPI PUSH0 DUP1 REVERT JUMPDEST POP JUMP JUMPDEST PUSH0 DUP2 CALLDATALOAD SWAP1 POP PUSH2 0x1854 DUP2 PUSH2 0x1830 JUMP JUMPDEST SWAP3 SWAP2 POP POP JUMP JUMPDEST PUSH0 DUP1 REVERT JUMPDEST PUSH0 DUP1 REVERT JUMPDEST PUSH0 DUP1 REVERT JUMPDEST PUSH0 DUP1 DUP4 PUSH1 0x1F DUP5 ADD SLT PUSH2 0x187B JUMPI PUSH2 0x187A PUSH2 0x185A JUMP JUMPDEST JUMPDEST DUP3 CALLDATALOAD SWAP1 POP PUSH8 0xFFFFFFFFFFFFFFFF DUP2 GT ISZERO PUSH2 0x1898 JUMPI PUSH2 0x1897 PUSH2 0x185E JUMP JUMPDEST JUMPDEST PUSH1 0x20 DUP4 ADD SWAP2 POP DUP4 PUSH1 0x1 DUP3 MUL DUP4 ADD GT ISZERO PUSH2 0x18B4 JUMPI PUSH2 0x18B3 PUSH2 0x1862 JUMP JUMPDEST JUMPDEST SWAP3 POP SWAP3 SWAP1 POP JUMP JUMPDEST PUSH2 0x18C4 DUP2 PUSH2 0x17BB JUMP JUMPDEST DUP2 EQ PUSH2 0x18CE JUMPI PUSH0 DUP1 REVERT JUMPDEST POP JUMP JUMPDEST PUSH0 DUP2 CALLDATALOAD SWAP1 POP PUSH2 0x18DF DUP2 PUSH2 0x18BB JUMP JUMPDEST SWAP3 SWAP2 POP POP JUMP JUMPDEST PUSH0 DUP1 PUSH0 DUP1 PUSH0 DUP1 PUSH0 PUSH1 0xE0 DUP9 DUP11 SUB SLT ISZERO PUSH2 0x1900 JUMPI PUSH2 0x18FF PUSH2 0x17FD JUMP JUMPDEST JUMPDEST PUSH0 PUSH2 0x190D DUP11 DUP3 DUP12 ADD PUSH2 0x1809 JUMP JUMPDEST SWAP8 POP POP PUSH1 0x60 PUSH2 0x191E DUP11 DUP3 DUP12 ADD PUSH2 0x1846 JUMP JUMPDEST SWAP7 POP POP PUSH1 0x80 DUP9 ADD CALLDATALOAD PUSH8 0xFFFFFFFFFFFFFFFF DUP2 GT ISZERO PUSH2 0x193F JUMPI PUSH2 0x193E PUSH2 0x1801 JUMP JUMPDEST JUMPDEST PUSH2 0x194B DUP11 DUP3 DUP12 ADD PUSH2 0x1866 JUMP JUMPDEST SWAP6 POP SWAP6 POP POP PUSH1 0xA0 PUSH2 0x195E DUP11 DUP3 DUP12 ADD PUSH2 0x18D1 JUMP JUMPDEST SWAP4 POP POP PUSH1 0xC0 DUP9 ADD CALLDATALOAD PUSH8 0xFFFFFFFFFFFFFFFF DUP2 GT ISZERO PUSH2 0x197F JUMPI PUSH2 0x197E PUSH2 0x1801 JUMP JUMPDEST JUMPDEST PUSH2 0x198B DUP11 DUP3 DUP12 ADD PUSH2 0x1866 JUMP JUMPDEST SWAP3 POP SWAP3 POP POP SWAP3 SWAP6 SWAP9 SWAP2 SWAP5 SWAP8 POP SWAP3 SWAP6 POP JUMP JUMPDEST PUSH0 PUSH8 0xFFFFFFFFFFFFFFFF DUP3 AND SWAP1 POP SWAP2 SWAP1 POP JUMP JUMPDEST PUSH2 0x19B8 DUP2 PUSH2 0x199C JUMP JUMPDEST DUP3 MSTORE POP POP JUMP JUMPDEST PUSH0 PUSH1 0x40 DUP3 ADD SWAP1 POP PUSH2 0x19D1 PUSH0 DUP4 ADD DUP6 PUSH2 0x19AF JUMP JUMPDEST PUSH2 0x19DE PUSH1 0x20 DUP4 ADD DUP5 PUSH2 0x19AF JUMP JUMPDEST SWAP4 SWAP3 POP POP POP JUMP JUMPDEST PUSH0 DUP2 ISZERO ISZERO SWAP1 POP SWAP2 SWAP1 POP JUMP JUMPDEST PUSH2 0x19F9 DUP2 PUSH2 0x19E5 JUMP JUMPDEST DUP3 MSTORE POP POP JUMP JUMPDEST PUSH0 PUSH1 0x20 DUP3 ADD SWAP1 POP PUSH2 0x1A12 PUSH0 DUP4 ADD DUP5 PUSH2 0x19F0 JUMP JUMPDEST SWAP3 SWAP2 POP POP JUMP JUMPDEST PUSH0 PUSH4 0xFFFFFFFF DUP3 AND SWAP1 POP SWAP2 SWAP1 POP JUMP JUMPDEST PUSH2 0x1A30 DUP2 PUSH2 0x1A18 JUMP JUMPDEST DUP2 EQ PUSH2 0x1A3A JUMPI PUSH0 DUP1 REVERT JUMPDEST POP JUMP JUMPDEST PUSH0 DUP2 CALLDATALOAD SWAP1 POP PUSH2 0x1A4B DUP2 PUSH2 0x1A27 JUMP JUMPDEST SWAP3 SWAP2 POP POP JUMP JUMPDEST PUSH0 DUP1 PUSH1 0x40 DUP4 DUP6 SUB SLT ISZERO PUSH2 0x1A67 JUMPI PUSH2 0x1A66 PUSH2 0x17FD JUMP JUMPDEST JUMPDEST PUSH0 PUSH2 0x1A74 DUP6 DUP3 DUP7 ADD PUSH2 0x1A3D JUMP JUMPDEST SWAP3 POP POP PUSH1 0x20 PUSH2 0x1A85 DUP6 DUP3 DUP7 ADD PUSH2 0x1846 JUMP JUMPDEST SWAP2 POP POP SWAP3 POP SWAP3 SWAP1 POP JUMP JUMPDEST PUSH0 DUP2 SWAP1 POP SWAP2 SWAP1 POP JUMP JUMPDEST PUSH2 0x1AA1 DUP2 PUSH2 0x1A8F JUMP JUMPDEST DUP2 EQ PUSH2 0x1AAB JUMPI PUSH0 DUP1 REVERT JUMPDEST POP JUMP JUMPDEST PUSH0 DUP2 CALLDATALOAD SWAP1 POP PUSH2 0x1ABC DUP2 PUSH2 0x1A98 JUMP JUMPDEST SWAP3 SWAP2 POP POP JUMP JUMPDEST PUSH0 DUP1 PUSH0 DUP1 PUSH0 DUP1 PUSH0 PUSH1 0xE0 DUP9 DUP11 SUB SLT ISZERO PUSH2 0x1ADD JUMPI PUSH2 0x1ADC PUSH2 0x17FD JUMP JUMPDEST JUMPDEST PUSH0 PUSH2 0x1AEA DUP11 DUP3 DUP12 ADD PUSH2 0x1AAE JUMP JUMPDEST SWAP8 POP POP PUSH1 0x20 PUSH2 0x1AFB DUP11 DUP3 DUP12 ADD PUSH2 0x18D1 JUMP JUMPDEST SWAP7 POP POP PUSH1 0x40 PUSH2 0x1B0C DUP11 DUP3 DUP12 ADD PUSH2 0x18D1 JUMP JUMPDEST SWAP6 POP POP PUSH1 0x60 PUSH2 0x1B1D DUP11 DUP3 DUP12 ADD PUSH2 0x1AAE JUMP JUMPDEST SWAP5 POP POP PUSH1 0x80 PUSH2 0x1B2E DUP11 DUP3 DUP12 ADD PUSH2 0x1AAE JUMP JUMPDEST SWAP4 POP POP PUSH1 0xA0 PUSH2 0x1B3F DUP11 DUP3 DUP12 ADD PUSH2 0x18D1 JUMP JUMPDEST SWAP3 POP POP PUSH1 0xC0 PUSH2 0x1B50 DUP11 DUP3 DUP12 ADD PUSH2 0x1A3D JUMP JUMPDEST SWAP2 POP POP SWAP3 SWAP6 SWAP9 SWAP2 SWAP5 SWAP8 POP SWAP3 SWAP6 POP JUMP JUMPDEST PUSH2 0x1B68 DUP2 PUSH2 0x1A8F JUMP JUMPDEST DUP3 MSTORE POP POP JUMP JUMPDEST PUSH0 PUSH1 0x20 DUP3 ADD SWAP1 POP PUSH2 0x1B81 PUSH0 DUP4 ADD DUP5 PUSH2 0x1B5F JUMP JUMPDEST SWAP3 SWAP2 POP POP JUMP JUMPDEST PUSH0 DUP2 SWAP1 POP SWAP2 SWAP1 POP JUMP JUMPDEST PUSH0 PUSH2 0x1BAA PUSH2 0x1BA5 PUSH2 0x1BA0 DUP5 PUSH2 0x179C JUMP JUMPDEST PUSH2 0x1B87 JUMP JUMPDEST PUSH2 0x179C JUMP JUMPDEST SWAP1 POP SWAP2 SWAP1 POP JUMP JUMPDEST PUSH0 PUSH2 0x1BBB DUP3 PUSH2 0x1B90 JUMP JUMPDEST SWAP1 POP SWAP2 SWAP1 POP JUMP JUMPDEST PUSH0 PUSH2 0x1BCC DUP3 PUSH2 0x1BB1 JUMP JUMPDEST SWAP1 POP SWAP2 SWAP1 POP JUMP JUMPDEST PUSH2 0x1BDC DUP2 PUSH2 0x1BC2 JUMP JUMPDEST DUP3 MSTORE POP POP JUMP JUMPDEST PUSH0 PUSH1 0x20 DUP3 ADD SWAP1 POP PUSH2 0x1BF5 PUSH0 DUP4 ADD DUP5 PUSH2 0x1BD3 JUMP JUMPDEST SWAP3 SWAP2 POP POP JUMP JUMPDEST PUSH0 PUSH1 0x20 DUP3 DUP5 SUB SLT ISZERO PUSH2 0x1C10 JUMPI PUSH2 0x1C0F PUSH2 0x17FD JUMP JUMPDEST JUMPDEST PUSH0 PUSH2 0x1C1D DUP5 DUP3 DUP6 ADD PUSH2 0x1AAE JUMP JUMPDEST SWAP2 POP POP SWAP3 SWAP2 POP POP JUMP JUMPDEST PUSH2 0x1C2F DUP2 PUSH2 0x1A8F JUMP JUMPDEST DUP3 MSTORE POP POP JUMP JUMPDEST PUSH2 0x1C3E DUP2 PUSH2 0x17BB JUMP JUMPDEST DUP3 MSTORE POP POP JUMP JUMPDEST PUSH2 0x1C4D DUP2 PUSH2 0x19E5 JUMP JUMPDEST DUP3 MSTORE POP POP JUMP JUMPDEST PUSH2 0x120 DUP3 ADD PUSH0 DUP3 ADD MLOAD PUSH2 0x1C68 PUSH0 DUP6 ADD DUP3 PUSH2 0x1C26 JUMP JUMPDEST POP PUSH1 0x20 DUP3 ADD MLOAD PUSH2 0x1C7B PUSH1 0x20 DUP6 ADD DUP3 PUSH2 0x1C35 JUMP JUMPDEST POP PUSH1 0x40 DUP3 ADD MLOAD PUSH2 0x1C8E PUSH1 0x40 DUP6 ADD DUP3 PUSH2 0x1C26 JUMP JUMPDEST POP PUSH1 0x60 DUP3 ADD MLOAD PUSH2 0x1CA1 PUSH1 0x60 DUP6 ADD DUP3 PUSH2 0x1C35 JUMP JUMPDEST POP PUSH1 0x80 DUP3 ADD MLOAD PUSH2 0x1CB4 PUSH1 0x80 DUP6 ADD DUP3 PUSH2 0x1C35 JUMP JUMPDEST POP PUSH1 0xA0 DUP3 ADD MLOAD PUSH2 0x1CC7 PUSH1 0xA0 DUP6 ADD DUP3 PUSH2 0x1C26 JUMP JUMPDEST POP PUSH1 0xC0 DUP3 ADD MLOAD PUSH2 0x1CDA PUSH1 0xC0 DUP6 ADD DUP3 PUSH2 0x1C26 JUMP JUMPDEST POP PUSH1 0xE0 DUP3 ADD MLOAD PUSH2 0x1CED PUSH1 0xE0 DUP6 ADD DUP3 PUSH2 0x1C44 JUMP JUMPDEST POP PUSH2 0x100 DUP3 ADD MLOAD PUSH2 0x1D02 PUSH2 0x100 DUP6 ADD DUP3 PUSH2 0x1C44 JUMP JUMPDEST POP POP POP POP JUMP JUMPDEST PUSH0 PUSH2 0x120 DUP3 ADD SWAP1 POP PUSH2 0x1D1C PUSH0 DUP4 ADD DUP5 PUSH2 0x1C53 JUMP JUMPDEST SWAP3 SWAP2 POP POP JUMP JUMPDEST PUSH0 DUP1 PUSH0 DUP1 PUSH1 0x80 DUP6 DUP8 SUB SLT ISZERO PUSH2 0x1D3A JUMPI PUSH2 0x1D39 PUSH2 0x17FD JUMP JUMPDEST JUMPDEST PUSH0 PUSH2 0x1D47 DUP8 DUP3 DUP9 ADD PUSH2 0x1AAE JUMP JUMPDEST SWAP5 POP POP PUSH1 0x20 PUSH2 0x1D58 DUP8 DUP3 DUP9 ADD PUSH2 0x18D1 JUMP JUMPDEST SWAP4 POP POP PUSH1 0x40 PUSH2 0x1D69 DUP8 DUP3 DUP9 ADD PUSH2 0x18D1 JUMP JUMPDEST SWAP3 POP POP PUSH1 0x60 PUSH2 0x1D7A DUP8 DUP3 DUP9 ADD PUSH2 0x1AAE JUMP JUMPDEST SWAP2 POP POP SWAP3 SWAP6 SWAP2 SWAP5 POP SWAP3 POP JUMP JUMPDEST PUSH0 PUSH1 0x20 DUP3 ADD SWAP1 POP PUSH2 0x1D99 PUSH0 DUP4 ADD DUP5 PUSH2 0x19AF JUMP JUMPDEST SWAP3 SWAP2 POP POP JUMP JUMPDEST PUSH2 0x1DA8 DUP2 PUSH2 0x1A18 JUMP JUMPDEST DUP3 MSTORE POP POP JUMP JUMPDEST PUSH0 PUSH1 0x20 DUP3 ADD SWAP1 POP PUSH2 0x1DC1 PUSH0 DUP4 ADD DUP5 PUSH2 0x1D9F JUMP JUMPDEST SWAP3 SWAP2 POP POP JUMP JUMPDEST PUSH0 PUSH1 0x20 DUP3 DUP5 SUB SLT ISZERO PUSH2 0x1DDC JUMPI PUSH2 0x1DDB PUSH2 0x17FD JUMP JUMPDEST JUMPDEST PUSH0 PUSH2 0x1DE9 DUP5 DUP3 DUP6 ADD PUSH2 0x1A3D JUMP JUMPDEST SWAP2 POP POP SWAP3 SWAP2 POP POP JUMP JUMPDEST PUSH2 0x1DFB DUP2 PUSH2 0x1827 JUMP JUMPDEST DUP3 MSTORE POP POP JUMP JUMPDEST PUSH0 PUSH1 0x20 DUP3 ADD SWAP1 POP PUSH2 0x1E14 PUSH0 DUP4 ADD DUP5 PUSH2 0x1DF2 JUMP JUMPDEST SWAP3 SWAP2 POP POP JUMP JUMPDEST PUSH0 PUSH1 0x20 DUP3 DUP5 SUB SLT ISZERO PUSH2 0x1E2F JUMPI PUSH2 0x1E2E PUSH2 0x17FD JUMP JUMPDEST JUMPDEST PUSH0 PUSH2 0x1E3C DUP5 DUP3 DUP6 ADD PUSH2 0x18D1 JUMP JUMPDEST SWAP2 POP POP SWAP3 SWAP2 POP POP JUMP JUMPDEST PUSH0 PUSH1 0x60 DUP3 DUP5 SUB SLT ISZERO PUSH2 0x1E5A JUMPI PUSH2 0x1E59 PUSH2 0x17FD JUMP JUMPDEST JUMPDEST PUSH0 PUSH2 0x1E67 DUP5 DUP3 DUP6 ADD PUSH2 0x1809 JUMP JUMPDEST SWAP2 POP POP SWAP3 SWAP2 POP POP JUMP JUMPDEST PUSH0 PUSH1 0x40 DUP3 ADD SWAP1 POP PUSH2 0x1E83 PUSH0 DUP4 ADD DUP6 PUSH2 0x1D9F JUMP JUMPDEST PUSH2 0x1E90 PUSH1 0x20 DUP4 ADD DUP5 PUSH2 0x1DF2 JUMP JUMPDEST SWAP4 SWAP3 POP POP POP JUMP JUMPDEST PUSH0 PUSH1 0xE0 DUP3 ADD SWAP1 POP PUSH2 0x1EAA PUSH0 DUP4 ADD DUP11 PUSH2 0x17CC JUMP JUMPDEST PUSH2 0x1EB7 PUSH1 0x20 DUP4 ADD DUP10 PUSH2 0x1B5F JUMP JUMPDEST PUSH2 0x1EC4 PUSH1 0x40 DUP4 ADD DUP9 PUSH2 0x1B5F JUMP JUMPDEST PUSH2 0x1ED1 PUSH1 0x60 DUP4 ADD DUP8 PUSH2 0x17CC JUMP JUMPDEST PUSH2 0x1EDE PUSH1 0x80 DUP4 ADD DUP7 PUSH2 0x17CC JUMP JUMPDEST PUSH2 0x1EEB PUSH1 0xA0 DUP4 ADD DUP6 PUSH2 0x1B5F JUMP JUMPDEST PUSH2 0x1EF8 PUSH1 0xC0 DUP4 ADD DUP5 PUSH2 0x1B5F JUMP JUMPDEST SWAP9 SWAP8 POP POP POP POP POP POP POP POP JUMP JUMPDEST PUSH0 DUP2 MLOAD SWAP1 POP SWAP2 SWAP1 POP JUMP JUMPDEST PUSH0 DUP2 SWAP1 POP SWAP3 SWAP2 POP POP JUMP JUMPDEST DUP3 DUP2 DUP4 MCOPY PUSH0 DUP4 DUP4 ADD MSTORE POP POP POP JUMP JUMPDEST PUSH0 PUSH2 0x1F30 DUP3 PUSH2 0x1F04 JUMP JUMPDEST PUSH2 0x1F3A DUP2 DUP6 PUSH2 0x1F0E JUMP JUMPDEST SWAP4 POP PUSH2 0x1F4A DUP2 DUP6 PUSH1 0x20 DUP7 ADD PUSH2 0x1F18 JUMP JUMPDEST DUP1 DUP5 ADD SWAP2 POP POP SWAP3 SWAP2 POP POP JUMP JUMPDEST PUSH0 PUSH2 0x1F61 DUP3 DUP5 PUSH2 0x1F26 JUMP JUMPDEST SWAP2 POP DUP2 SWAP1 POP SWAP3 SWAP2 POP POP JUMP JUMPDEST PUSH0 DUP3 DUP3 MSTORE PUSH1 0x20 DUP3 ADD SWAP1 POP SWAP3 SWAP2 POP POP JUMP JUMPDEST PUSH32 0x4661696C656420746F20706C616365206C696D6974206F726465720000000000 PUSH0 DUP3 ADD MSTORE POP JUMP JUMPDEST PUSH0 PUSH2 0x1FB0 PUSH1 0x1B DUP4 PUSH2 0x1F6C JUMP JUMPDEST SWAP2 POP PUSH2 0x1FBB DUP3 PUSH2 0x1F7C JUMP JUMPDEST PUSH1 0x20 DUP3 ADD SWAP1 POP SWAP2 SWAP1 POP JUMP JUMPDEST PUSH0 PUSH1 0x20 DUP3 ADD SWAP1 POP DUP2 DUP2 SUB PUSH0 DUP4 ADD MSTORE PUSH2 0x1FDD DUP2 PUSH2 0x1FA4 JUMP JUMPDEST SWAP1 POP SWAP2 SWAP1 POP JUMP JUMPDEST PUSH0 DUP2 MLOAD SWAP1 POP PUSH2 0x1FF2 DUP2 PUSH2 0x1A98 JUMP JUMPDEST SWAP3 SWAP2 POP POP JUMP JUMPDEST PUSH0 PUSH2 0x2002 DUP3 PUSH2 0x179C JUMP JUMPDEST SWAP1 POP SWAP2 SWAP1 POP JUMP JUMPDEST PUSH2 0x2012 DUP2 PUSH2 0x1FF8 JUMP JUMPDEST DUP2 EQ PUSH2 0x201C JUMPI PUSH0 DUP1 REVERT JUMPDEST POP JUMP JUMPDEST PUSH0 DUP2 MLOAD SWAP1 POP PUSH2 0x202D DUP2 PUSH2 0x2009 JUMP JUMPDEST SWAP3 SWAP2 POP POP JUMP JUMPDEST PUSH0 DUP2 SWAP1 POP SWAP2 SWAP1 POP JUMP JUMPDEST PUSH2 0x2045 DUP2 PUSH2 0x2033 JUMP JUMPDEST DUP2 EQ PUSH2 0x204F JUMPI PUSH0 DUP1 REVERT JUMPDEST POP JUMP JUMPDEST PUSH0 DUP2 MLOAD SWAP1 POP PUSH2 0x2060 DUP2 PUSH2 0x203C JUMP JUMPDEST SWAP3 SWAP2 POP POP JUMP JUMPDEST PUSH0 DUP1 PUSH0 DUP1 PUSH0 DUP1 PUSH0 DUP1 PUSH0 DUP1 PUSH2 0x140 DUP12 DUP14 SUB SLT ISZERO PUSH2 0x2085 JUMPI PUSH2 0x2084 PUSH2 0x17FD JUMP JUMPDEST JUMPDEST PUSH0 PUSH2 0x2092 DUP14 DUP3 DUP15 ADD PUSH2 0x1FE4 JUMP JUMPDEST SWAP11 POP POP PUSH1 0x20 PUSH2 0x20A3 DUP14 DUP3 DUP15 ADD PUSH2 0x201F JUMP JUMPDEST SWAP10 POP POP PUSH1 0x40 PUSH2 0x20B4 DUP14 DUP3 DUP15 ADD PUSH2 0x1FE4 JUMP JUMPDEST SWAP9 POP POP PUSH1 0x60 PUSH2 0x20C5 DUP14 DUP3 DUP15 ADD PUSH2 0x201F JUMP JUMPDEST SWAP8 POP POP PUSH1 0x80 PUSH2 0x20D6 DUP14 DUP3 DUP15 ADD PUSH2 0x2052 JUMP JUMPDEST SWAP7 POP POP PUSH1 0xA0 PUSH2 0x20E7 DUP14 DUP3 DUP15 ADD PUSH2 0x2052 JUMP JUMPDEST SWAP6 POP POP PUSH1 0xC0 PUSH2 0x20F8 DUP14 DUP3 DUP15 ADD PUSH2 0x2052 JUMP JUMPDEST SWAP5 POP POP PUSH1 0xE0 PUSH2 0x2109 DUP14 DUP3 DUP15 ADD PUSH2 0x2052 JUMP JUMPDEST SWAP4 POP POP PUSH2 0x100 PUSH2 0x211B DUP14 DUP3 DUP15 ADD PUSH2 0x201F JUMP JUMPDEST SWAP3 POP POP PUSH2 0x120 PUSH2 0x212D DUP14 DUP3 DUP15 ADD PUSH2 0x201F JUMP JUMPDEST SWAP2 POP POP SWAP3 SWAP6 SWAP9 SWAP12 SWAP2 SWAP5 SWAP8 SWAP11 POP SWAP3 SWAP6 SWAP9 POP JUMP JUMPDEST PUSH32 0x4661696C656420746F207265747269657665206C696D6974206F726465720000 PUSH0 DUP3 ADD MSTORE POP JUMP JUMPDEST PUSH0 PUSH2 0x2173 PUSH1 0x1E DUP4 PUSH2 0x1F6C JUMP JUMPDEST SWAP2 POP PUSH2 0x217E DUP3 PUSH2 0x213F JUMP JUMPDEST PUSH1 0x20 DUP3 ADD SWAP1 POP SWAP2 SWAP1 POP JUMP JUMPDEST PUSH0 PUSH1 0x20 DUP3 ADD SWAP1 POP DUP2 DUP2 SUB PUSH0 DUP4 ADD MSTORE PUSH2 0x21A0 DUP2 PUSH2 0x2167 JUMP JUMPDEST SWAP1 POP SWAP2 SWAP1 POP JUMP JUMPDEST PUSH2 0x21B0 DUP2 PUSH2 0x19E5 JUMP JUMPDEST DUP2 EQ PUSH2 0x21BA JUMPI PUSH0 DUP1 REVERT JUMPDEST POP JUMP JUMPDEST PUSH0 DUP2 MLOAD SWAP1 POP PUSH2 0x21CB DUP2 PUSH2 0x21A7 JUMP JUMPDEST SWAP3 SWAP2 POP POP JUMP JUMPDEST PUSH0 DUP1 PUSH0 DUP1 PUSH0 DUP1 PUSH0 DUP1 PUSH0 DUP1 PUSH2 0x140 DUP12 DUP14 SUB SLT ISZERO PUSH2 0x21F0 JUMPI PUSH2 0x21EF PUSH2 0x17FD JUMP JUMPDEST JUMPDEST PUSH0 PUSH2 0x21FD DUP14 DUP3 DUP15 ADD PUSH2 0x1FE4 JUMP JUMPDEST SWAP11 POP POP PUSH1 0x20 PUSH2 0x220E DUP14 DUP3 DUP15 ADD PUSH2 0x201F JUMP JUMPDEST SWAP10 POP POP PUSH1 0x40 PUSH2 0x221F DUP14 DUP3 DUP15 ADD PUSH2 0x1FE4 JUMP JUMPDEST SWAP9 POP POP PUSH1 0x60 PUSH2 0x2230 DUP14 DUP3 DUP15 ADD PUSH2 0x201F JUMP JUMPDEST SWAP8 POP POP PUSH1 0x80 PUSH2 0x2241 DUP14 DUP3 DUP15 ADD PUSH2 0x201F JUMP JUMPDEST SWAP7 POP POP PUSH1 0xA0 PUSH2 0x2252 DUP14 DUP3 DUP15 ADD PUSH2 0x1FE4 JUMP JUMPDEST SWAP6 POP POP PUSH1 0xC0 PUSH2 0x2263 DUP14 DUP3 DUP15 ADD PUSH2 0x1FE4 JUMP JUMPDEST SWAP5 POP POP PUSH1 0xE0 PUSH2 0x2274 DUP14 DUP3 DUP15 ADD PUSH2 0x1FE4 JUMP JUMPDEST SWAP4 POP POP PUSH2 0x100 PUSH2 0x2286 DUP14 DUP3 DUP15 ADD PUSH2 0x21BD JUMP JUMPDEST SWAP3 POP POP PUSH2 0x120 PUSH2 0x2298 DUP14 DUP3 DUP15 ADD PUSH2 0x21BD JUMP JUMPDEST SWAP2 POP POP SWAP3 SWAP6 SWAP9 SWAP12 SWAP2 SWAP5 SWAP8 SWAP11 POP SWAP3 SWAP6 SWAP9 POP JUMP JUMPDEST PUSH0 PUSH1 0x80 DUP3 ADD SWAP1 POP PUSH2 0x22BD PUSH0 DUP4 ADD DUP8 PUSH2 0x1B5F JUMP JUMPDEST PUSH2 0x22CA PUSH1 0x20 DUP4 ADD DUP7 PUSH2 0x17CC JUMP JUMPDEST PUSH2 0x22D7 PUSH1 0x40 DUP4 ADD DUP6 PUSH2 0x17CC JUMP JUMPDEST PUSH2 0x22E4 PUSH1 0x60 DUP4 ADD DUP5 PUSH2 0x1B5F JUMP JUMPDEST SWAP6 SWAP5 POP POP POP POP POP JUMP JUMPDEST PUSH32 0x4661696C656420746F20706C616365206D61726B6574206F7264657200000000 PUSH0 DUP3 ADD MSTORE POP JUMP JUMPDEST PUSH0 PUSH2 0x2321 PUSH1 0x1C DUP4 PUSH2 0x1F6C JUMP JUMPDEST SWAP2 POP PUSH2 0x232C DUP3 PUSH2 0x22ED JUMP JUMPDEST PUSH1 0x20 DUP3 ADD SWAP1 POP SWAP2 SWAP1 POP JUMP JUMPDEST PUSH0 PUSH1 0x20 DUP3 ADD SWAP1 POP DUP2 DUP2 SUB PUSH0 DUP4 ADD MSTORE PUSH2 0x234E DUP2 PUSH2 0x2315 JUMP JUMPDEST SWAP1 POP SWAP2 SWAP1 POP JUMP JUMPDEST PUSH0 DUP1 PUSH0 DUP1 PUSH0 DUP1 PUSH1 0xC0 DUP8 DUP10 SUB SLT ISZERO PUSH2 0x236F JUMPI PUSH2 0x236E PUSH2 0x17FD JUMP JUMPDEST JUMPDEST PUSH0 PUSH2 0x237C DUP10 DUP3 DUP11 ADD PUSH2 0x201F JUMP JUMPDEST SWAP7 POP POP PUSH1 0x20 PUSH2 0x238D DUP10 DUP3 DUP11 ADD PUSH2 0x201F JUMP JUMPDEST SWAP6 POP POP PUSH1 0x40 PUSH2 0x239E DUP10 DUP3 DUP11 ADD PUSH2 0x2052 JUMP JUMPDEST SWAP5 POP POP PUSH1 0x60 PUSH2 0x23AF DUP10 DUP3 DUP11 ADD PUSH2 0x2052 JUMP JUMPDEST SWAP4 POP POP PUSH1 0x80 PUSH2 0x23C0 DUP10 DUP3 DUP11 ADD PUSH2 0x2052 JUMP JUMPDEST SWAP3 POP POP PUSH1 0xA0 PUSH2 0x23D1 DUP10 DUP3 DUP11 ADD PUSH2 0x2052 JUMP JUMPDEST SWAP2 POP POP SWAP3 SWAP6 POP SWAP3 SWAP6 POP SWAP3 SWAP6 JUMP JUMPDEST PUSH32 0x4661696C656420746F2063616E63656C206C696D6974206F7264657200000000 PUSH0 DUP3 ADD MSTORE POP JUMP JUMPDEST PUSH0 PUSH2 0x2412 PUSH1 0x1C DUP4 PUSH2 0x1F6C JUMP JUMPDEST SWAP2 POP PUSH2 0x241D DUP3 PUSH2 0x23DE JUMP JUMPDEST PUSH1 0x20 DUP3 ADD SWAP1 POP SWAP2 SWAP1 POP JUMP JUMPDEST PUSH0 PUSH1 0x20 DUP3 ADD SWAP1 POP DUP2 DUP2 SUB PUSH0 DUP4 ADD MSTORE PUSH2 0x243F DUP2 PUSH2 0x2406 JUMP JUMPDEST SWAP1 POP SWAP2 SWAP1 POP JUMP JUMPDEST PUSH32 0x4F6E6C79206465706C6F7965722063616E207365742074686520527573742063 PUSH0 DUP3 ADD MSTORE PUSH32 0x6F6E747261637420616464726573730000000000000000000000000000000000 PUSH1 0x20 DUP3 ADD MSTORE POP JUMP JUMPDEST PUSH0 PUSH2 0x24A0 PUSH1 0x2F DUP4 PUSH2 0x1F6C JUMP JUMPDEST SWAP2 POP PUSH2 0x24AB DUP3 PUSH2 0x2446 JUMP JUMPDEST PUSH1 0x40 DUP3 ADD SWAP1 POP SWAP2 SWAP1 POP JUMP JUMPDEST PUSH0 PUSH1 0x20 DUP3 ADD SWAP1 POP DUP2 DUP2 SUB PUSH0 DUP4 ADD MSTORE PUSH2 0x24CD DUP2 PUSH2 0x2494 JUMP JUMPDEST SWAP1 POP SWAP2 SWAP1 POP JUMP JUMPDEST PUSH32 0x4661696C656420746F2063616E63656C20616C6C206C696D6974206F72646572 PUSH0 DUP3 ADD MSTORE PUSH32 0x7300000000000000000000000000000000000000000000000000000000000000 PUSH1 0x20 DUP3 ADD MSTORE POP JUMP JUMPDEST PUSH0 PUSH2 0x252E PUSH1 0x21 DUP4 PUSH2 0x1F6C JUMP JUMPDEST SWAP2 POP PUSH2 0x2539 DUP3 PUSH2 0x24D4 JUMP JUMPDEST PUSH1 0x40 DUP3 ADD SWAP1 POP SWAP2 SWAP1 POP JUMP JUMPDEST PUSH0 PUSH1 0x20 DUP3 ADD SWAP1 POP DUP2 DUP2 SUB PUSH0 DUP4 ADD MSTORE PUSH2 0x255B DUP2 PUSH2 0x2522 JUMP JUMPDEST SWAP1 POP SWAP2 SWAP1 POP JUMP JUMPDEST PUSH0 DUP2 CALLDATALOAD SWAP1 POP PUSH2 0x2570 DUP2 PUSH2 0x2009 JUMP JUMPDEST SWAP3 SWAP2 POP POP JUMP JUMPDEST PUSH0 DUP1 REVERT JUMPDEST PUSH0 PUSH1 0x1F NOT PUSH1 0x1F DUP4 ADD AND SWAP1 POP SWAP2 SWAP1 POP JUMP JUMPDEST PUSH32 0x4E487B7100000000000000000000000000000000000000000000000000000000 PUSH0 MSTORE PUSH1 0x41 PUSH1 0x4 MSTORE PUSH1 0x24 PUSH0 REVERT JUMPDEST PUSH2 0x25C0 DUP3 PUSH2 0x257A JUMP JUMPDEST DUP2 ADD DUP2 DUP2 LT PUSH8 0xFFFFFFFFFFFFFFFF DUP3 GT OR ISZERO PUSH2 0x25DF JUMPI PUSH2 0x25DE PUSH2 0x258A JUMP JUMPDEST JUMPDEST DUP1 PUSH1 0x40 MSTORE POP POP POP JUMP JUMPDEST PUSH0 PUSH2 0x25F1 PUSH2 0x17F4 JUMP JUMPDEST SWAP1 POP PUSH2 0x25FD DUP3 DUP3 PUSH2 0x25B7 JUMP JUMPDEST SWAP2 SWAP1 POP JUMP JUMPDEST PUSH0 PUSH8 0xFFFFFFFFFFFFFFFF DUP3 GT ISZERO PUSH2 0x261C JUMPI PUSH2 0x261B PUSH2 0x258A JUMP JUMPDEST JUMPDEST PUSH2 0x2625 DUP3 PUSH2 0x257A JUMP JUMPDEST SWAP1 POP PUSH1 0x20 DUP2 ADD SWAP1 POP SWAP2 SWAP1 POP JUMP JUMPDEST DUP3 DUP2 DUP4 CALLDATACOPY PUSH0 DUP4 DUP4 ADD MSTORE POP POP POP JUMP JUMPDEST PUSH0 PUSH2 0x2652 PUSH2 0x264D DUP5 PUSH2 0x2602 JUMP JUMPDEST PUSH2 0x25E8 JUMP JUMPDEST SWAP1 POP DUP3 DUP2 MSTORE PUSH1 0x20 DUP2 ADD DUP5 DUP5 DUP5 ADD GT ISZERO PUSH2 0x266E JUMPI PUSH2 0x266D PUSH2 0x2576 JUMP JUMPDEST JUMPDEST PUSH2 0x2679 DUP5 DUP3 DUP6 PUSH2 0x2632 JUMP JUMPDEST POP SWAP4 SWAP3 POP POP POP JUMP JUMPDEST PUSH0 DUP3 PUSH1 0x1F DUP4 ADD SLT PUSH2 0x2695 JUMPI PUSH2 0x2694 PUSH2 0x185A JUMP JUMPDEST JUMPDEST DUP2 CALLDATALOAD PUSH2 0x26A5 DUP5 DUP3 PUSH1 0x20 DUP7 ADD PUSH2 0x2640 JUMP JUMPDEST SWAP2 POP POP SWAP3 SWAP2 POP POP JUMP JUMPDEST PUSH0 DUP1 PUSH0 DUP1 PUSH0 DUP1 PUSH0 PUSH1 0xE0 DUP9 DUP11 SUB SLT ISZERO PUSH2 0x26C9 JUMPI PUSH2 0x26C8 PUSH2 0x17FD JUMP JUMPDEST JUMPDEST PUSH0 PUSH2 0x26D6 DUP11 DUP3 DUP12 ADD PUSH2 0x2562 JUMP JUMPDEST SWAP8 POP POP PUSH1 0x20 PUSH2 0x26E7 DUP11 DUP3 DUP12 ADD PUSH2 0x1AAE JUMP JUMPDEST SWAP7 POP POP PUSH1 0x40 DUP9 ADD CALLDATALOAD PUSH8 0xFFFFFFFFFFFFFFFF DUP2 GT ISZERO PUSH2 0x2708 JUMPI PUSH2 0x2707 PUSH2 0x1801 JUMP JUMPDEST JUMPDEST PUSH2 0x2714 DUP11 DUP3 DUP12 ADD PUSH2 0x2681 JUMP JUMPDEST SWAP6 POP POP PUSH1 0x60 PUSH2 0x2725 DUP11 DUP3 DUP12 ADD PUSH2 0x2562 JUMP JUMPDEST SWAP5 POP POP PUSH1 0x80 PUSH2 0x2736 DUP11 DUP3 DUP12 ADD PUSH2 0x2562 JUMP JUMPDEST SWAP4 POP POP PUSH1 0xA0 PUSH2 0x2747 DUP11 DUP3 DUP12 ADD PUSH2 0x1AAE JUMP JUMPDEST SWAP3 POP POP PUSH1 0xC0 PUSH2 0x2758 DUP11 DUP3 DUP12 ADD PUSH2 0x1AAE JUMP JUMPDEST SWAP2 POP POP SWAP3 SWAP6 SWAP9 SWAP2 SWAP5 SWAP8 POP SWAP3 SWAP6 POP JUMP JUMPDEST PUSH0 DUP2 SWAP1 POP SWAP3 SWAP2 POP POP JUMP JUMPDEST PUSH32 0x4C494D49545F4F52444552000000000000000000000000000000000000000000 PUSH0 DUP3 ADD MSTORE POP JUMP JUMPDEST PUSH0 PUSH2 0x27A5 PUSH1 0xB DUP4 PUSH2 0x2767 JUMP JUMPDEST SWAP2 POP PUSH2 0x27B0 DUP3 PUSH2 0x2771 JUMP JUMPDEST PUSH1 0xB DUP3 ADD SWAP1 POP SWAP2 SWAP1 POP JUMP JUMPDEST PUSH0 PUSH2 0x27C5 DUP3 PUSH2 0x2799 JUMP JUMPDEST SWAP2 POP DUP2 SWAP1 POP SWAP2 SWAP1 POP JUMP JUMPDEST PUSH0 DUP2 MLOAD SWAP1 POP SWAP2 SWAP1 POP JUMP JUMPDEST PUSH0 PUSH2 0x27E3 DUP3 PUSH2 0x27CF JUMP JUMPDEST PUSH2 0x27ED DUP2 DUP6 PUSH2 0x2767 JUMP JUMPDEST SWAP4 POP PUSH2 0x27FD DUP2 DUP6 PUSH1 0x20 DUP7 ADD PUSH2 0x1F18 JUMP JUMPDEST DUP1 DUP5 ADD SWAP2 POP POP SWAP3 SWAP2 POP POP JUMP JUMPDEST PUSH0 PUSH2 0x2814 DUP3 DUP5 PUSH2 0x27D9 JUMP JUMPDEST SWAP2 POP DUP2 SWAP1 POP SWAP3 SWAP2 POP POP JUMP JUMPDEST PUSH0 PUSH1 0xE0 DUP3 ADD SWAP1 POP PUSH2 0x2832 PUSH0 DUP4 ADD DUP11 PUSH2 0x1B5F JUMP JUMPDEST PUSH2 0x283F PUSH1 0x20 DUP4 ADD DUP10 PUSH2 0x17CC JUMP JUMPDEST PUSH2 0x284C PUSH1 0x40 DUP4 ADD DUP9 PUSH2 0x17CC JUMP JUMPDEST PUSH2 0x2859 PUSH1 0x60 DUP4 ADD DUP8 PUSH2 0x1B5F JUMP JUMPDEST PUSH2 0x2866 PUSH1 0x80 DUP4 ADD DUP7 PUSH2 0x1B5F JUMP JUMPDEST PUSH2 0x2873 PUSH1 0xA0 DUP4 ADD DUP6 PUSH2 0x17CC JUMP JUMPDEST PUSH2 0x2880 PUSH1 0xC0 DUP4 ADD DUP5 PUSH2 0x1D9F JUMP JUMPDEST SWAP9 SWAP8 POP POP POP POP POP POP POP POP JUMP JUMPDEST PUSH32 0x43414E43454C5F4F524445520000000000000000000000000000000000000000 PUSH0 DUP3 ADD MSTORE POP JUMP JUMPDEST PUSH0 PUSH2 0x28C0 PUSH1 0xC DUP4 PUSH2 0x2767 JUMP JUMPDEST SWAP2 POP PUSH2 0x28CB DUP3 PUSH2 0x288C JUMP JUMPDEST PUSH1 0xC DUP3 ADD SWAP1 POP SWAP2 SWAP1 POP JUMP JUMPDEST PUSH0 PUSH2 0x28E0 DUP3 PUSH2 0x28B4 JUMP JUMPDEST SWAP2 POP DUP2 SWAP1 POP SWAP2 SWAP1 POP JUMP JUMPDEST PUSH32 0x43414E43454C5F414C4C5F4F5244455200000000000000000000000000000000 PUSH0 DUP3 ADD MSTORE POP JUMP JUMPDEST PUSH0 PUSH2 0x291E PUSH1 0x10 DUP4 PUSH2 0x2767 JUMP JUMPDEST SWAP2 POP PUSH2 0x2929 DUP3 PUSH2 0x28EA JUMP JUMPDEST PUSH1 0x10 DUP3 ADD SWAP1 POP SWAP2 SWAP1 POP JUMP JUMPDEST PUSH0 PUSH2 0x293E DUP3 PUSH2 0x2912 JUMP JUMPDEST SWAP2 POP DUP2 SWAP1 POP SWAP2 SWAP1 POP JUMP JUMPDEST PUSH32 0x4D41524B45545F4F524445520000000000000000000000000000000000000000 PUSH0 DUP3 ADD MSTORE POP JUMP JUMPDEST PUSH0 PUSH2 0x297C PUSH1 0xC DUP4 PUSH2 0x2767 JUMP JUMPDEST SWAP2 POP PUSH2 0x2987 DUP3 PUSH2 0x2948 JUMP JUMPDEST PUSH1 0xC DUP3 ADD SWAP1 POP SWAP2 SWAP1 POP JUMP JUMPDEST PUSH0 PUSH2 0x299C DUP3 PUSH2 0x2970 JUMP JUMPDEST SWAP2 POP DUP2 SWAP1 POP SWAP2 SWAP1 POP JUMP JUMPDEST PUSH32 0x77726F6E67206F72646572000000000000000000000000000000000000000000 PUSH0 DUP3 ADD MSTORE POP JUMP JUMPDEST PUSH0 PUSH2 0x29DA PUSH1 0xB DUP4 PUSH2 0x1F6C JUMP JUMPDEST SWAP2 POP PUSH2 0x29E5 DUP3 PUSH2 0x29A6 JUMP JUMPDEST PUSH1 0x20 DUP3 ADD SWAP1 POP SWAP2 SWAP1 POP JUMP JUMPDEST PUSH0 PUSH1 0x20 DUP3 ADD SWAP1 POP DUP2 DUP2 SUB PUSH0 DUP4 ADD MSTORE PUSH2 0x2A07 DUP2 PUSH2 0x29CE JUMP JUMPDEST SWAP1 POP SWAP2 SWAP1 POP JUMP INVALID LOG2 PUSH5 0x6970667358 0x22 SLT KECCAK256 0xD6 0xC MOD PUSH22 0x8553E20DCA2FCD287E3DA66C91BA72F1577F7DC97C07 0xCF 0x2B 0xB4 COINBASE SWAP1 0x4D PUSH5 0x736F6C6343 STOP ADDMOD NOT STOP CALLER "
				},
				"gasEstimates": {
					"creation": {
						"codeDepositCost": "2164000",
						"executionCost": "infinite",
						"totalCost": "infinite"
					},
					"external": {
						"allowInitializePath((uint32,bytes32,uint64))": "3128",
						"callSenderEid()": "2540",
						"cancelAllLimitOrders()": "infinite",
						"cancelLimitOrder(uint256)": "infinite",
						"composeMsgSender()": "468",
						"deployer()": "2552",
						"endpoint()": "infinite",
						"getChainID()": "354",
						"inWrapper()": "2650",
						"lzReceive((uint32,bytes32,uint64),bytes32,bytes,address,bytes)": "infinite",
						"nextNonce(uint32,bytes32)": "901",
						"oAppVersion()": "infinite",
						"owner()": "2560",
						"peers(uint32)": "2871",
						"placeLimitOrder(uint256,address,address,uint256,uint256,address,uint32)": "infinite",
						"placeMarketOrder(uint256,address,address,uint256)": "infinite",
						"renounceOwnership()": "infinite",
						"retrieveLimitOrder(uint256)": "infinite",
						"rustContractAddress()": "2532",
						"setDelegate(address)": "infinite",
						"setPeer(uint32,bytes32)": "infinite",
						"setRustContractAddress(address)": "26950",
						"setTrue()": "2607",
						"transferOwnership(address)": "infinite"
					},
					"internal": {
						"_lzReceive(struct Origin calldata,bytes32,bytes calldata,address,bytes calldata)": "infinite"
					}
				},
				"methodIdentifiers": {
					"allowInitializePath((uint32,bytes32,uint64))": "ff7bd03d",
					"callSenderEid()": "8b836b6b",
					"cancelAllLimitOrders()": "fde89598",
					"cancelLimitOrder(uint256)": "a5cdc8fc",
					"composeMsgSender()": "b92d0eff",
					"deployer()": "d5f39488",
					"endpoint()": "5e280f11",
					"getChainID()": "564b81ef",
					"inWrapper()": "c8e4d753",
					"lzReceive((uint32,bytes32,uint64),bytes32,bytes,address,bytes)": "13137d65",
					"nextNonce(uint32,bytes32)": "7d25a05e",
					"oAppVersion()": "17442b70",
					"owner()": "8da5cb5b",
					"peers(uint32)": "bb0b6a53",
					"placeLimitOrder(uint256,address,address,uint256,uint256,address,uint32)": "3bbe032f",
					"placeMarketOrder(uint256,address,address,uint256)": "732c2c64",
					"renounceOwnership()": "715018a6",
					"retrieveLimitOrder(uint256)": "648ea063",
					"rustContractAddress()": "06ef0339",
					"setDelegate(address)": "ca5eb5e1",
					"setPeer(uint32,bytes32)": "3400288b",
					"setRustContractAddress(address)": "e4cf4c66",
					"setTrue()": "19849d5b",
					"transferOwnership(address)": "f2fde38b"
				}
			},
			"storageLayout": {
				"storage": [
					{
						"astId": 1297,
						"contract": "src/OrderMatcherWrapper.sol:OrderMatcherWrapper",
						"label": "_owner",
						"offset": 0,
						"slot": "0",
						"type": "t_address"
					},
					{
						"astId": 64,
						"contract": "src/OrderMatcherWrapper.sol:OrderMatcherWrapper",
						"label": "peers",
						"offset": 0,
						"slot": "1",
						"type": "t_mapping(t_uint32,t_bytes32)"
					},
					{
						"astId": 2222,
						"contract": "src/OrderMatcherWrapper.sol:OrderMatcherWrapper",
						"label": "rustContractAddress",
						"offset": 0,
						"slot": "2",
						"type": "t_address"
					},
					{
						"astId": 2224,
						"contract": "src/OrderMatcherWrapper.sol:OrderMatcherWrapper",
						"label": "deployer",
						"offset": 0,
						"slot": "3",
						"type": "t_address"
					},
					{
						"astId": 2227,
						"contract": "src/OrderMatcherWrapper.sol:OrderMatcherWrapper",
						"label": "inWrapper",
						"offset": 20,
						"slot": "3",
						"type": "t_bool"
					},
					{
						"astId": 2230,
						"contract": "src/OrderMatcherWrapper.sol:OrderMatcherWrapper",
						"label": "setTrue",
						"offset": 21,
						"slot": "3",
						"type": "t_bool"
					},
					{
						"astId": 2233,
						"contract": "src/OrderMatcherWrapper.sol:OrderMatcherWrapper",
						"label": "callSenderEid",
						"offset": 22,
						"slot": "3",
						"type": "t_uint32"
					}
				],
				"types": {
					"t_address": {
						"encoding": "inplace",
						"label": "address",
						"numberOfBytes": "20"
					},
					"t_bool": {
						"encoding": "inplace",
						"label": "bool",
						"numberOfBytes": "1"
					},
					"t_bytes32": {
						"encoding": "inplace",
						"label": "bytes32",
						"numberOfBytes": "32"
					},
					"t_mapping(t_uint32,t_bytes32)": {
						"encoding": "mapping",
						"key": "t_uint32",
						"label": "mapping(uint32 => bytes32)",
						"numberOfBytes": "32",
						"value": "t_bytes32"
					},
					"t_uint32": {
						"encoding": "inplace",
						"label": "uint32",
						"numberOfBytes": "4"
					}
				}
			},
			"userdoc": {
				"events": {
					"AllOrdersCanceled(address)": {
						"notice": "Event emitted when all orders are canceled for a user"
					},
					"OrderCanceled(uint256,address)": {
						"notice": "Event emitted when an order is canceled"
					},
					"OrderMatched(uint256,uint256,address,address,uint256,uint256)": {
						"notice": "Event emitted when two orders are matched"
					},
					"OrderPlaced(uint256,address,uint256,address,address,uint256,uint256)": {
						"notice": "Event emitted when an order is placed"
					}
				},
				"kind": "user",
				"methods": {
					"allowInitializePath((uint32,bytes32,uint64))": {
						"notice": "Checks if the path initialization is allowed based on the provided origin."
					},
					"composeMsgSender()": {
						"notice": "Retrieves the address responsible for 'sending' composeMsg's to the Endpoint."
					},
					"endpoint()": {
						"notice": "Retrieves the LayerZero endpoint associated with the OApp."
					},
					"nextNonce(uint32,bytes32)": {
						"notice": "Retrieves the next nonce for a given source endpoint and sender address."
					},
					"oAppVersion()": {
						"notice": "Retrieves the OApp version information."
					},
					"peers(uint32)": {
						"notice": "Retrieves the peer (OApp) associated with a corresponding endpoint."
					},
					"setDelegate(address)": {
						"notice": "Sets the delegate address for the OApp."
					},
					"setPeer(uint32,bytes32)": {
						"notice": "Sets the peer address (OApp instance) for a corresponding endpoint."
					}
				},
				"version": 1
			}
		}
	}
}