{
	"data": {
		"bytecode": {
			"linkReferences": {},
			"object": "608060405234801561000f575f80fd5b50604051611eff380380611eff83398181016040528101906100319190610115565b8060025f6101000a81548173ffffffffffffffffffffffffffffffffffffffff021916908373ffffffffffffffffffffffffffffffffffffffff1602179055503360015f6101000a81548173ffffffffffffffffffffffffffffffffffffffff021916908373ffffffffffffffffffffffffffffffffffffffff16021790555050610140565b5f80fd5b5f73ffffffffffffffffffffffffffffffffffffffff82169050919050565b5f6100e4826100bb565b9050919050565b6100f4816100da565b81146100fe575f80fd5b50565b5f8151905061010f816100eb565b92915050565b5f6020828403121561012a576101296100b7565b5b5f61013784828501610101565b91505092915050565b611db28061014d5f395ff3fe6080604052600436106100c1575f3560e01c8063a5cdc8fc1161007e578063e51f25c811610058578063e51f25c814610243578063e9c379d21461025f578063fde8959814610287578063ffd16ae11461029d576100c1565b8063a5cdc8fc146101c9578063d5f39488146101f1578063e4cf4c661461021b576100c1565b806306ef0339146100c5578063416ecebf146100ef578063648ea06314610119578063732c2c64146101555780638304b8f41461017d5780638ee4c2bf146101ad575b5f80fd5b3480156100d0575f80fd5b506100d96102c7565b6040516100e69190610fa1565b60405180910390f35b3480156100fa575f80fd5b506101036102ea565b6040516101109190610fd8565b60405180910390f35b348015610124575f80fd5b5061013f600480360381019061013a9190611035565b610300565b60405161014c919061114d565b60405180910390f35b348015610160575f80fd5b5061017b60048036038101906101769190611191565b610531565b005b610197600480360381019061019291906111f5565b6106d8565b6040516101a49190611310565b60405180910390f35b6101c760048036038101906101c29190611465565b61080e565b005b3480156101d4575f80fd5b506101ef60048036038101906101ea9190611035565b6108b2565b005b3480156101fc575f80fd5b50610205610a59565b6040516102129190610fa1565b60405180910390f35b348015610226575f80fd5b50610241600480360381019061023c919061150a565b610a7e565b005b61025d600480360381019061025891906111f5565b610b4f565b005b34801561026a575f80fd5b506102856004803603810190610280919061150a565b610bf0565b005b348015610292575f80fd5b5061029b610cc2565b005b3480156102a8575f80fd5b506102b1610e52565b6040516102be9190611590565b60405180910390f35b5f8054906101000a900473ffffffffffffffffffffffffffffffffffffffff1681565b600260149054906101000a900463ffffffff1681565b610308610e77565b5f805f8054906101000a900473ffffffffffffffffffffffffffffffffffffffff1673ffffffffffffffffffffffffffffffffffffffff168460405160240161035191906115b8565b6040516020818303038152906040527f648ea063000000000000000000000000000000000000000000000000000000007bffffffffffffffffffffffffffffffffffffffffffffffffffffffff19166020820180517bffffffffffffffffffffffffffffffffffffffffffffffffffffffff83818316178352505050506040516103db9190611623565b5f60405180830381855afa9150503d805f8114610413576040519150601f19603f3d011682016040523d82523d5f602084013e610418565b606091505b50915091508161045d576040517f08c379a000000000000000000000000000000000000000000000000000000000815260040161045490611693565b60405180910390fd5b5f805f805f805f805f805f8b80602001905181019061047c919061172a565b9a509a509a509a509a509a509a509a509a509a509a505f6040518061012001604052808d81526020018c73ffffffffffffffffffffffffffffffffffffffff1681526020018a81526020018973ffffffffffffffffffffffffffffffffffffffff1681526020018873ffffffffffffffffffffffffffffffffffffffff16815260200187815260200185815260200184151581526020018315158152509050809e505050505050505050505050505050919050565b5f3390505f80805f8054906101000a900473ffffffffffffffffffffffffffffffffffffffff1673ffffffffffffffffffffffffffffffffffffffff1684848a8a8a8a60405160240161058996959493929190611817565b6040516020818303038152906040527fcee54a95000000000000000000000000000000000000000000000000000000007bffffffffffffffffffffffffffffffffffffffffffffffffffffffff19166020820180517bffffffffffffffffffffffffffffffffffffffffffffffffffffffff83818316178352505050506040516106139190611623565b5f604051808303815f865af19150503d805f811461064c576040519150601f19603f3d011682016040523d82523d5f602084013e610651565b606091505b509150915081610696576040517f08c379a000000000000000000000000000000000000000000000000000000000815260040161068d906118c0565b60405180910390fd5b5f805f805f805f805f898060200190518101906106b39190611908565b9850985098509850985098509850985098505050505050505050505050505050505050565b6106e0610f00565b5f3390505f60025f9054906101000a900473ffffffffffffffffffffffffffffffffffffffff1673ffffffffffffffffffffffffffffffffffffffff1663b6ae5ba8348a8a8a8a8a896040518863ffffffff1660e01b815260040161074a96959493929190611a4c565b5f604051808303818588803b158015610761575f80fd5b505af1158015610773573d5f803e3d5ffd5b50505050505f805f805f805f6001898a606460c861012c61019096509650965096509650965096506040518060e001604052808881526020018773ffffffffffffffffffffffffffffffffffffffff1681526020018673ffffffffffffffffffffffffffffffffffffffff16815260200185815260200184815260200183815260200182815250995050505050505050505095945050505050565b5f3390505f60025f9054906101000a900473ffffffffffffffffffffffffffffffffffffffff1673ffffffffffffffffffffffffffffffffffffffff1663b6ae5ba8348a8a8a8a8a898b6040518963ffffffff1660e01b815260040161087a9796959493929190611af6565b5f604051808303818588803b158015610891575f80fd5b505af11580156108a3573d5f803e3d5ffd5b50505050505050505050505050565b5f805f9054906101000a900473ffffffffffffffffffffffffffffffffffffffff1673ffffffffffffffffffffffffffffffffffffffff16826040516024016108fb91906115b8565b6040516020818303038152906040527fa5cdc8fc000000000000000000000000000000000000000000000000000000007bffffffffffffffffffffffffffffffffffffffffffffffffffffffff19166020820180517bffffffffffffffffffffffffffffffffffffffffffffffffffffffff83818316178352505050506040516109859190611623565b5f604051808303815f865af19150503d805f81146109be576040519150601f19603f3d011682016040523d82523d5f602084013e6109c3565b606091505b5050905080610a07576040517f08c379a00000000000000000000000000000000000000000000000000000000081526004016109fe90611bb4565b60405180910390fd5b3373ffffffffffffffffffffffffffffffffffffffff167f9384174c8517f5537b08e79211fc039e8a098571a3a2b4cb21dfa6f3237e8de183604051610a4d91906115b8565b60405180910390a25050565b60015f9054906101000a900473ffffffffffffffffffffffffffffffffffffffff1681565b60015f9054906101000a900473ffffffffffffffffffffffffffffffffffffffff1673ffffffffffffffffffffffffffffffffffffffff163373ffffffffffffffffffffffffffffffffffffffff1614610b0d576040517f08c379a0000000000000000000000000000000000000000000000000000000008152600401610b0490611c42565b60405180910390fd5b805f806101000a81548173ffffffffffffffffffffffffffffffffffffffff021916908373ffffffffffffffffffffffffffffffffffffffff16021790555050565b5f3390505f60025f9054906101000a900473ffffffffffffffffffffffffffffffffffffffff1673ffffffffffffffffffffffffffffffffffffffff1663b6ae5ba8348989898989896040518863ffffffff1660e01b8152600401610bb996959493929190611a4c565b5f604051808303818588803b158015610bd0575f80fd5b505af1158015610be2573d5f803e3d5ffd5b505050505050505050505050565b60015f9054906101000a900473ffffffffffffffffffffffffffffffffffffffff1673ffffffffffffffffffffffffffffffffffffffff163373ffffffffffffffffffffffffffffffffffffffff1614610c7f576040517f08c379a0000000000000000000000000000000000000000000000000000000008152600401610c7690611cd0565b60405180910390fd5b8060025f6101000a81548173ffffffffffffffffffffffffffffffffffffffff021916908373ffffffffffffffffffffffffffffffffffffffff16021790555050565b5f805f9054906101000a900473ffffffffffffffffffffffffffffffffffffffff1673ffffffffffffffffffffffffffffffffffffffff166040516024016040516020818303038152906040527ffde89598000000000000000000000000000000000000000000000000000000007bffffffffffffffffffffffffffffffffffffffffffffffffffffffff19166020820180517bffffffffffffffffffffffffffffffffffffffffffffffffffffffff8381831617835250505050604051610d8a9190611623565b5f604051808303815f865af19150503d805f8114610dc3576040519150601f19603f3d011682016040523d82523d5f602084013e610dc8565b606091505b5050905080610e0c576040517f08c379a0000000000000000000000000000000000000000000000000000000008152600401610e0390611d5e565b60405180910390fd5b3373ffffffffffffffffffffffffffffffffffffffff167f8595565d6fc010babc8f7612a8768886d8fe08635f358d75af306fdf25f00d0360405160405180910390a250565b60025f9054906101000a900473ffffffffffffffffffffffffffffffffffffffff1681565b6040518061012001604052805f81526020015f73ffffffffffffffffffffffffffffffffffffffff1681526020015f81526020015f73ffffffffffffffffffffffffffffffffffffffff1681526020015f73ffffffffffffffffffffffffffffffffffffffff1681526020015f81526020015f81526020015f151581526020015f151581525090565b6040518060e001604052805f81526020015f73ffffffffffffffffffffffffffffffffffffffff1681526020015f73ffffffffffffffffffffffffffffffffffffffff1681526020015f81526020015f81526020015f81526020015f81525090565b5f73ffffffffffffffffffffffffffffffffffffffff82169050919050565b5f610f8b82610f62565b9050919050565b610f9b81610f81565b82525050565b5f602082019050610fb45f830184610f92565b92915050565b5f63ffffffff82169050919050565b610fd281610fba565b82525050565b5f602082019050610feb5f830184610fc9565b92915050565b5f604051905090565b5f80fd5b5f80fd5b5f819050919050565b61101481611002565b811461101e575f80fd5b50565b5f8135905061102f8161100b565b92915050565b5f6020828403121561104a57611049610ffa565b5b5f61105784828501611021565b91505092915050565b61106981611002565b82525050565b61107881610f81565b82525050565b5f8115159050919050565b6110928161107e565b82525050565b61012082015f8201516110ad5f850182611060565b5060208201516110c0602085018261106f565b5060408201516110d36040850182611060565b5060608201516110e6606085018261106f565b5060808201516110f9608085018261106f565b5060a082015161110c60a0850182611060565b5060c082015161111f60c0850182611060565b5060e082015161113260e0850182611089565b50610100820151611147610100850182611089565b50505050565b5f610120820190506111615f830184611098565b92915050565b61117081610f81565b811461117a575f80fd5b50565b5f8135905061118b81611167565b92915050565b5f805f80608085870312156111a9576111a8610ffa565b5b5f6111b687828801611021565b94505060206111c78782880161117d565b93505060406111d88782880161117d565b92505060606111e987828801611021565b91505092959194509250565b5f805f805f60a0868803121561120e5761120d610ffa565b5b5f61121b88828901611021565b955050602061122c8882890161117d565b945050604061123d8882890161117d565b935050606061124e88828901611021565b925050608061125f88828901611021565b9150509295509295909350565b5f819050919050565b61127e8161126c565b82525050565b60e082015f8201516112985f850182611060565b5060208201516112ab602085018261106f565b5060408201516112be604085018261106f565b5060608201516112d16060850182611275565b5060808201516112e46080850182611275565b5060a08201516112f760a0850182611275565b5060c082015161130a60c0850182611275565b50505050565b5f60e0820190506113235f830184611284565b92915050565b5f80fd5b5f80fd5b5f601f19601f8301169050919050565b7f4e487b71000000000000000000000000000000000000000000000000000000005f52604160045260245ffd5b61137782611331565b810181811067ffffffffffffffff8211171561139657611395611341565b5b80604052505050565b5f6113a8610ff1565b90506113b4828261136e565b919050565b5f67ffffffffffffffff8211156113d3576113d2611341565b5b6113dc82611331565b9050602081019050919050565b828183375f83830152505050565b5f611409611404846113b9565b61139f565b9050828152602081018484840111156114255761142461132d565b5b6114308482856113e9565b509392505050565b5f82601f83011261144c5761144b611329565b5b813561145c8482602086016113f7565b91505092915050565b5f805f805f8060c0878903121561147f5761147e610ffa565b5b5f61148c89828a01611021565b965050602061149d89828a0161117d565b95505060406114ae89828a0161117d565b94505060606114bf89828a01611021565b93505060806114d089828a01611021565b92505060a087013567ffffffffffffffff8111156114f1576114f0610ffe565b5b6114fd89828a01611438565b9150509295509295509295565b5f6020828403121561151f5761151e610ffa565b5b5f61152c8482850161117d565b91505092915050565b5f819050919050565b5f61155861155361154e84610f62565b611535565b610f62565b9050919050565b5f6115698261153e565b9050919050565b5f61157a8261155f565b9050919050565b61158a81611570565b82525050565b5f6020820190506115a35f830184611581565b92915050565b6115b281611002565b82525050565b5f6020820190506115cb5f8301846115a9565b92915050565b5f81519050919050565b5f81905092915050565b8281835e5f83830152505050565b5f6115fd826115d1565b61160781856115db565b93506116178185602086016115e5565b80840191505092915050565b5f61162e82846115f3565b915081905092915050565b5f82825260208201905092915050565b7f4661696c656420746f207265747269657665206c696d6974206f7264657200005f82015250565b5f61167d601e83611639565b915061168882611649565b602082019050919050565b5f6020820190508181035f8301526116aa81611671565b9050919050565b5f815190506116bf8161100b565b92915050565b5f6116cf82610f62565b9050919050565b6116df816116c5565b81146116e9575f80fd5b50565b5f815190506116fa816116d6565b92915050565b6117098161107e565b8114611713575f80fd5b50565b5f8151905061172481611700565b92915050565b5f805f805f805f805f805f6101608c8e03121561174a57611749610ffa565b5b5f6117578e828f016116b1565b9b505060206117688e828f016116ec565b9a505060406117798e828f016116b1565b995050606061178a8e828f016116b1565b985050608061179b8e828f016116ec565b97505060a06117ac8e828f016116ec565b96505060c06117bd8e828f016116b1565b95505060e06117ce8e828f016116b1565b9450506101006117e08e828f016116b1565b9350506101206117f28e828f01611716565b9250506101406118048e828f01611716565b9150509295989b509295989b9093969950565b5f60c08201905061182a5f830189610f92565b61183760208301886115a9565b61184460408301876115a9565b6118516060830186610f92565b61185e6080830185610f92565b61186b60a08301846115a9565b979650505050505050565b7f4661696c656420746f20706c616365206d61726b6574206f72646572000000005f82015250565b5f6118aa601c83611639565b91506118b582611876565b602082019050919050565b5f6020820190508181035f8301526118d78161189e565b9050919050565b6118e78161126c565b81146118f1575f80fd5b50565b5f81519050611902816118de565b92915050565b5f805f805f805f805f6101208a8c03121561192657611925610ffa565b5b5f6119338c828d016116ec565b99505060206119448c828d016116b1565b98505060406119558c828d016116ec565b97505060606119668c828d016118f4565b96505060806119778c828d016118f4565b95505060a06119888c828d016118f4565b94505060c06119998c828d016118f4565b93505060e06119aa8c828d016116ec565b9250506101006119bc8c828d016116ec565b9150509295985092959850929598565b5f82825260208201905092915050565b7f30783030303330313030313130313030303030303030303030303030303030305f8201527f3030303030303030303065613630000000000000000000000000000000000000602082015250565b5f611a36602e836119cc565b9150611a41826119dc565b604082019050919050565b5f60e082019050611a5f5f8301896115a9565b611a6c6020830188610f92565b611a796040830187610f92565b611a8660608301866115a9565b611a9360808301856115a9565b611aa060a0830184610f92565b81810360c0830152611ab181611a2a565b9050979650505050505050565b5f611ac8826115d1565b611ad281856119cc565b9350611ae28185602086016115e5565b611aeb81611331565b840191505092915050565b5f60e082019050611b095f83018a6115a9565b611b166020830189610f92565b611b236040830188610f92565b611b3060608301876115a9565b611b3d60808301866115a9565b611b4a60a0830185610f92565b81810360c0830152611b5c8184611abe565b905098975050505050505050565b7f4661696c656420746f2063616e63656c206c696d6974206f72646572000000005f82015250565b5f611b9e601c83611639565b9150611ba982611b6a565b602082019050919050565b5f6020820190508181035f830152611bcb81611b92565b9050919050565b7f4f6e6c79206465706c6f7965722063616e2073657420746865205275737420635f8201527f6f6e747261637420616464726573730000000000000000000000000000000000602082015250565b5f611c2c602f83611639565b9150611c3782611bd2565b604082019050919050565b5f6020820190508181035f830152611c5981611c20565b9050919050565b7f4f6e6c79206465706c6f7965722063616e2073657420746865206f72646572505f8201527f6c6163657250726f787900000000000000000000000000000000000000000000602082015250565b5f611cba602a83611639565b9150611cc582611c60565b604082019050919050565b5f6020820190508181035f830152611ce781611cae565b9050919050565b7f4661696c656420746f2063616e63656c20616c6c206c696d6974206f726465725f8201527f7300000000000000000000000000000000000000000000000000000000000000602082015250565b5f611d48602183611639565b9150611d5382611cee565b604082019050919050565b5f6020820190508181035f830152611d7581611d3c565b905091905056fea2646970667358221220a4112351c107f2e382ed0c3895c0fc9e30309291d740926ad393d656d9bd0d4564736f6c63430008190033",
			"opcodes": "PUSH1 0x80 PUSH1 0x40 MSTORE CALLVALUE DUP1 ISZERO PUSH2 0xF JUMPI PUSH0 DUP1 REVERT JUMPDEST POP PUSH1 0x40 MLOAD PUSH2 0x1EFF CODESIZE SUB DUP1 PUSH2 0x1EFF DUP4 CODECOPY DUP2 DUP2 ADD PUSH1 0x40 MSTORE DUP2 ADD SWAP1 PUSH2 0x31 SWAP2 SWAP1 PUSH2 0x115 JUMP JUMPDEST DUP1 PUSH1 0x2 PUSH0 PUSH2 0x100 EXP DUP2 SLOAD DUP2 PUSH20 0xFFFFFFFFFFFFFFFFFFFFFFFFFFFFFFFFFFFFFFFF MUL NOT AND SWAP1 DUP4 PUSH20 0xFFFFFFFFFFFFFFFFFFFFFFFFFFFFFFFFFFFFFFFF AND MUL OR SWAP1 SSTORE POP CALLER PUSH1 0x1 PUSH0 PUSH2 0x100 EXP DUP2 SLOAD DUP2 PUSH20 0xFFFFFFFFFFFFFFFFFFFFFFFFFFFFFFFFFFFFFFFF MUL NOT AND SWAP1 DUP4 PUSH20 0xFFFFFFFFFFFFFFFFFFFFFFFFFFFFFFFFFFFFFFFF AND MUL OR SWAP1 SSTORE POP POP PUSH2 0x140 JUMP JUMPDEST PUSH0 DUP1 REVERT JUMPDEST PUSH0 PUSH20 0xFFFFFFFFFFFFFFFFFFFFFFFFFFFFFFFFFFFFFFFF DUP3 AND SWAP1 POP SWAP2 SWAP1 POP JUMP JUMPDEST PUSH0 PUSH2 0xE4 DUP3 PUSH2 0xBB JUMP JUMPDEST SWAP1 POP SWAP2 SWAP1 POP JUMP JUMPDEST PUSH2 0xF4 DUP2 PUSH2 0xDA JUMP JUMPDEST DUP2 EQ PUSH2 0xFE JUMPI PUSH0 DUP1 REVERT JUMPDEST POP JUMP JUMPDEST PUSH0 DUP2 MLOAD SWAP1 POP PUSH2 0x10F DUP2 PUSH2 0xEB JUMP JUMPDEST SWAP3 SWAP2 POP POP JUMP JUMPDEST PUSH0 PUSH1 0x20 DUP3 DUP5 SUB SLT ISZERO PUSH2 0x12A JUMPI PUSH2 0x129 PUSH2 0xB7 JUMP JUMPDEST JUMPDEST PUSH0 PUSH2 0x137 DUP5 DUP3 DUP6 ADD PUSH2 0x101 JUMP JUMPDEST SWAP2 POP POP SWAP3 SWAP2 POP POP JUMP JUMPDEST PUSH2 0x1DB2 DUP1 PUSH2 0x14D PUSH0 CODECOPY PUSH0 RETURN INVALID PUSH1 0x80 PUSH1 0x40 MSTORE PUSH1 0x4 CALLDATASIZE LT PUSH2 0xC1 JUMPI PUSH0 CALLDATALOAD PUSH1 0xE0 SHR DUP1 PUSH4 0xA5CDC8FC GT PUSH2 0x7E JUMPI DUP1 PUSH4 0xE51F25C8 GT PUSH2 0x58 JUMPI DUP1 PUSH4 0xE51F25C8 EQ PUSH2 0x243 JUMPI DUP1 PUSH4 0xE9C379D2 EQ PUSH2 0x25F JUMPI DUP1 PUSH4 0xFDE89598 EQ PUSH2 0x287 JUMPI DUP1 PUSH4 0xFFD16AE1 EQ PUSH2 0x29D JUMPI PUSH2 0xC1 JUMP JUMPDEST DUP1 PUSH4 0xA5CDC8FC EQ PUSH2 0x1C9 JUMPI DUP1 PUSH4 0xD5F39488 EQ PUSH2 0x1F1 JUMPI DUP1 PUSH4 0xE4CF4C66 EQ PUSH2 0x21B JUMPI PUSH2 0xC1 JUMP JUMPDEST DUP1 PUSH4 0x6EF0339 EQ PUSH2 0xC5 JUMPI DUP1 PUSH4 0x416ECEBF EQ PUSH2 0xEF JUMPI DUP1 PUSH4 0x648EA063 EQ PUSH2 0x119 JUMPI DUP1 PUSH4 0x732C2C64 EQ PUSH2 0x155 JUMPI DUP1 PUSH4 0x8304B8F4 EQ PUSH2 0x17D JUMPI DUP1 PUSH4 0x8EE4C2BF EQ PUSH2 0x1AD JUMPI JUMPDEST PUSH0 DUP1 REVERT JUMPDEST CALLVALUE DUP1 ISZERO PUSH2 0xD0 JUMPI PUSH0 DUP1 REVERT JUMPDEST POP PUSH2 0xD9 PUSH2 0x2C7 JUMP JUMPDEST PUSH1 0x40 MLOAD PUSH2 0xE6 SWAP2 SWAP1 PUSH2 0xFA1 JUMP JUMPDEST PUSH1 0x40 MLOAD DUP1 SWAP2 SUB SWAP1 RETURN JUMPDEST CALLVALUE DUP1 ISZERO PUSH2 0xFA JUMPI PUSH0 DUP1 REVERT JUMPDEST POP PUSH2 0x103 PUSH2 0x2EA JUMP JUMPDEST PUSH1 0x40 MLOAD PUSH2 0x110 SWAP2 SWAP1 PUSH2 0xFD8 JUMP JUMPDEST PUSH1 0x40 MLOAD DUP1 SWAP2 SUB SWAP1 RETURN JUMPDEST CALLVALUE DUP1 ISZERO PUSH2 0x124 JUMPI PUSH0 DUP1 REVERT JUMPDEST POP PUSH2 0x13F PUSH1 0x4 DUP1 CALLDATASIZE SUB DUP2 ADD SWAP1 PUSH2 0x13A SWAP2 SWAP1 PUSH2 0x1035 JUMP JUMPDEST PUSH2 0x300 JUMP JUMPDEST PUSH1 0x40 MLOAD PUSH2 0x14C SWAP2 SWAP1 PUSH2 0x114D JUMP JUMPDEST PUSH1 0x40 MLOAD DUP1 SWAP2 SUB SWAP1 RETURN JUMPDEST CALLVALUE DUP1 ISZERO PUSH2 0x160 JUMPI PUSH0 DUP1 REVERT JUMPDEST POP PUSH2 0x17B PUSH1 0x4 DUP1 CALLDATASIZE SUB DUP2 ADD SWAP1 PUSH2 0x176 SWAP2 SWAP1 PUSH2 0x1191 JUMP JUMPDEST PUSH2 0x531 JUMP JUMPDEST STOP JUMPDEST PUSH2 0x197 PUSH1 0x4 DUP1 CALLDATASIZE SUB DUP2 ADD SWAP1 PUSH2 0x192 SWAP2 SWAP1 PUSH2 0x11F5 JUMP JUMPDEST PUSH2 0x6D8 JUMP JUMPDEST PUSH1 0x40 MLOAD PUSH2 0x1A4 SWAP2 SWAP1 PUSH2 0x1310 JUMP JUMPDEST PUSH1 0x40 MLOAD DUP1 SWAP2 SUB SWAP1 RETURN JUMPDEST PUSH2 0x1C7 PUSH1 0x4 DUP1 CALLDATASIZE SUB DUP2 ADD SWAP1 PUSH2 0x1C2 SWAP2 SWAP1 PUSH2 0x1465 JUMP JUMPDEST PUSH2 0x80E JUMP JUMPDEST STOP JUMPDEST CALLVALUE DUP1 ISZERO PUSH2 0x1D4 JUMPI PUSH0 DUP1 REVERT JUMPDEST POP PUSH2 0x1EF PUSH1 0x4 DUP1 CALLDATASIZE SUB DUP2 ADD SWAP1 PUSH2 0x1EA SWAP2 SWAP1 PUSH2 0x1035 JUMP JUMPDEST PUSH2 0x8B2 JUMP JUMPDEST STOP JUMPDEST CALLVALUE DUP1 ISZERO PUSH2 0x1FC JUMPI PUSH0 DUP1 REVERT JUMPDEST POP PUSH2 0x205 PUSH2 0xA59 JUMP JUMPDEST PUSH1 0x40 MLOAD PUSH2 0x212 SWAP2 SWAP1 PUSH2 0xFA1 JUMP JUMPDEST PUSH1 0x40 MLOAD DUP1 SWAP2 SUB SWAP1 RETURN JUMPDEST CALLVALUE DUP1 ISZERO PUSH2 0x226 JUMPI PUSH0 DUP1 REVERT JUMPDEST POP PUSH2 0x241 PUSH1 0x4 DUP1 CALLDATASIZE SUB DUP2 ADD SWAP1 PUSH2 0x23C SWAP2 SWAP1 PUSH2 0x150A JUMP JUMPDEST PUSH2 0xA7E JUMP JUMPDEST STOP JUMPDEST PUSH2 0x25D PUSH1 0x4 DUP1 CALLDATASIZE SUB DUP2 ADD SWAP1 PUSH2 0x258 SWAP2 SWAP1 PUSH2 0x11F5 JUMP JUMPDEST PUSH2 0xB4F JUMP JUMPDEST STOP JUMPDEST CALLVALUE DUP1 ISZERO PUSH2 0x26A JUMPI PUSH0 DUP1 REVERT JUMPDEST POP PUSH2 0x285 PUSH1 0x4 DUP1 CALLDATASIZE SUB DUP2 ADD SWAP1 PUSH2 0x280 SWAP2 SWAP1 PUSH2 0x150A JUMP JUMPDEST PUSH2 0xBF0 JUMP JUMPDEST STOP JUMPDEST CALLVALUE DUP1 ISZERO PUSH2 0x292 JUMPI PUSH0 DUP1 REVERT JUMPDEST POP PUSH2 0x29B PUSH2 0xCC2 JUMP JUMPDEST STOP JUMPDEST CALLVALUE DUP1 ISZERO PUSH2 0x2A8 JUMPI PUSH0 DUP1 REVERT JUMPDEST POP PUSH2 0x2B1 PUSH2 0xE52 JUMP JUMPDEST PUSH1 0x40 MLOAD PUSH2 0x2BE SWAP2 SWAP1 PUSH2 0x1590 JUMP JUMPDEST PUSH1 0x40 MLOAD DUP1 SWAP2 SUB SWAP1 RETURN JUMPDEST PUSH0 DUP1 SLOAD SWAP1 PUSH2 0x100 EXP SWAP1 DIV PUSH20 0xFFFFFFFFFFFFFFFFFFFFFFFFFFFFFFFFFFFFFFFF AND DUP2 JUMP JUMPDEST PUSH1 0x2 PUSH1 0x14 SWAP1 SLOAD SWAP1 PUSH2 0x100 EXP SWAP1 DIV PUSH4 0xFFFFFFFF AND DUP2 JUMP JUMPDEST PUSH2 0x308 PUSH2 0xE77 JUMP JUMPDEST PUSH0 DUP1 PUSH0 DUP1 SLOAD SWAP1 PUSH2 0x100 EXP SWAP1 DIV PUSH20 0xFFFFFFFFFFFFFFFFFFFFFFFFFFFFFFFFFFFFFFFF AND PUSH20 0xFFFFFFFFFFFFFFFFFFFFFFFFFFFFFFFFFFFFFFFF AND DUP5 PUSH1 0x40 MLOAD PUSH1 0x24 ADD PUSH2 0x351 SWAP2 SWAP1 PUSH2 0x15B8 JUMP JUMPDEST PUSH1 0x40 MLOAD PUSH1 0x20 DUP2 DUP4 SUB SUB DUP2 MSTORE SWAP1 PUSH1 0x40 MSTORE PUSH32 0x648EA06300000000000000000000000000000000000000000000000000000000 PUSH28 0xFFFFFFFFFFFFFFFFFFFFFFFFFFFFFFFFFFFFFFFFFFFFFFFFFFFFFFFF NOT AND PUSH1 0x20 DUP3 ADD DUP1 MLOAD PUSH28 0xFFFFFFFFFFFFFFFFFFFFFFFFFFFFFFFFFFFFFFFFFFFFFFFFFFFFFFFF DUP4 DUP2 DUP4 AND OR DUP4 MSTORE POP POP POP POP PUSH1 0x40 MLOAD PUSH2 0x3DB SWAP2 SWAP1 PUSH2 0x1623 JUMP JUMPDEST PUSH0 PUSH1 0x40 MLOAD DUP1 DUP4 SUB DUP2 DUP6 GAS STATICCALL SWAP2 POP POP RETURNDATASIZE DUP1 PUSH0 DUP2 EQ PUSH2 0x413 JUMPI PUSH1 0x40 MLOAD SWAP2 POP PUSH1 0x1F NOT PUSH1 0x3F RETURNDATASIZE ADD AND DUP3 ADD PUSH1 0x40 MSTORE RETURNDATASIZE DUP3 MSTORE RETURNDATASIZE PUSH0 PUSH1 0x20 DUP5 ADD RETURNDATACOPY PUSH2 0x418 JUMP JUMPDEST PUSH1 0x60 SWAP2 POP JUMPDEST POP SWAP2 POP SWAP2 POP DUP2 PUSH2 0x45D JUMPI PUSH1 0x40 MLOAD PUSH32 0x8C379A000000000000000000000000000000000000000000000000000000000 DUP2 MSTORE PUSH1 0x4 ADD PUSH2 0x454 SWAP1 PUSH2 0x1693 JUMP JUMPDEST PUSH1 0x40 MLOAD DUP1 SWAP2 SUB SWAP1 REVERT JUMPDEST PUSH0 DUP1 PUSH0 DUP1 PUSH0 DUP1 PUSH0 DUP1 PUSH0 DUP1 PUSH0 DUP12 DUP1 PUSH1 0x20 ADD SWAP1 MLOAD DUP2 ADD SWAP1 PUSH2 0x47C SWAP2 SWAP1 PUSH2 0x172A JUMP JUMPDEST SWAP11 POP SWAP11 POP SWAP11 POP SWAP11 POP SWAP11 POP SWAP11 POP SWAP11 POP SWAP11 POP SWAP11 POP SWAP11 POP SWAP11 POP PUSH0 PUSH1 0x40 MLOAD DUP1 PUSH2 0x120 ADD PUSH1 0x40 MSTORE DUP1 DUP14 DUP2 MSTORE PUSH1 0x20 ADD DUP13 PUSH20 0xFFFFFFFFFFFFFFFFFFFFFFFFFFFFFFFFFFFFFFFF AND DUP2 MSTORE PUSH1 0x20 ADD DUP11 DUP2 MSTORE PUSH1 0x20 ADD DUP10 PUSH20 0xFFFFFFFFFFFFFFFFFFFFFFFFFFFFFFFFFFFFFFFF AND DUP2 MSTORE PUSH1 0x20 ADD DUP9 PUSH20 0xFFFFFFFFFFFFFFFFFFFFFFFFFFFFFFFFFFFFFFFF AND DUP2 MSTORE PUSH1 0x20 ADD DUP8 DUP2 MSTORE PUSH1 0x20 ADD DUP6 DUP2 MSTORE PUSH1 0x20 ADD DUP5 ISZERO ISZERO DUP2 MSTORE PUSH1 0x20 ADD DUP4 ISZERO ISZERO DUP2 MSTORE POP SWAP1 POP DUP1 SWAP15 POP POP POP POP POP POP POP POP POP POP POP POP POP POP POP SWAP2 SWAP1 POP JUMP JUMPDEST PUSH0 CALLER SWAP1 POP PUSH0 DUP1 DUP1 PUSH0 DUP1 SLOAD SWAP1 PUSH2 0x100 EXP SWAP1 DIV PUSH20 0xFFFFFFFFFFFFFFFFFFFFFFFFFFFFFFFFFFFFFFFF AND PUSH20 0xFFFFFFFFFFFFFFFFFFFFFFFFFFFFFFFFFFFFFFFF AND DUP5 DUP5 DUP11 DUP11 DUP11 DUP11 PUSH1 0x40 MLOAD PUSH1 0x24 ADD PUSH2 0x589 SWAP7 SWAP6 SWAP5 SWAP4 SWAP3 SWAP2 SWAP1 PUSH2 0x1817 JUMP JUMPDEST PUSH1 0x40 MLOAD PUSH1 0x20 DUP2 DUP4 SUB SUB DUP2 MSTORE SWAP1 PUSH1 0x40 MSTORE PUSH32 0xCEE54A9500000000000000000000000000000000000000000000000000000000 PUSH28 0xFFFFFFFFFFFFFFFFFFFFFFFFFFFFFFFFFFFFFFFFFFFFFFFFFFFFFFFF NOT AND PUSH1 0x20 DUP3 ADD DUP1 MLOAD PUSH28 0xFFFFFFFFFFFFFFFFFFFFFFFFFFFFFFFFFFFFFFFFFFFFFFFFFFFFFFFF DUP4 DUP2 DUP4 AND OR DUP4 MSTORE POP POP POP POP PUSH1 0x40 MLOAD PUSH2 0x613 SWAP2 SWAP1 PUSH2 0x1623 JUMP JUMPDEST PUSH0 PUSH1 0x40 MLOAD DUP1 DUP4 SUB DUP2 PUSH0 DUP7 GAS CALL SWAP2 POP POP RETURNDATASIZE DUP1 PUSH0 DUP2 EQ PUSH2 0x64C JUMPI PUSH1 0x40 MLOAD SWAP2 POP PUSH1 0x1F NOT PUSH1 0x3F RETURNDATASIZE ADD AND DUP3 ADD PUSH1 0x40 MSTORE RETURNDATASIZE DUP3 MSTORE RETURNDATASIZE PUSH0 PUSH1 0x20 DUP5 ADD RETURNDATACOPY PUSH2 0x651 JUMP JUMPDEST PUSH1 0x60 SWAP2 POP JUMPDEST POP SWAP2 POP SWAP2 POP DUP2 PUSH2 0x696 JUMPI PUSH1 0x40 MLOAD PUSH32 0x8C379A000000000000000000000000000000000000000000000000000000000 DUP2 MSTORE PUSH1 0x4 ADD PUSH2 0x68D SWAP1 PUSH2 0x18C0 JUMP JUMPDEST PUSH1 0x40 MLOAD DUP1 SWAP2 SUB SWAP1 REVERT JUMPDEST PUSH0 DUP1 PUSH0 DUP1 PUSH0 DUP1 PUSH0 DUP1 PUSH0 DUP10 DUP1 PUSH1 0x20 ADD SWAP1 MLOAD DUP2 ADD SWAP1 PUSH2 0x6B3 SWAP2 SWAP1 PUSH2 0x1908 JUMP JUMPDEST SWAP9 POP SWAP9 POP SWAP9 POP SWAP9 POP SWAP9 POP SWAP9 POP SWAP9 POP SWAP9 POP SWAP9 POP POP POP POP POP POP POP POP POP POP POP POP POP POP POP POP POP POP JUMP JUMPDEST PUSH2 0x6E0 PUSH2 0xF00 JUMP JUMPDEST PUSH0 CALLER SWAP1 POP PUSH0 PUSH1 0x2 PUSH0 SWAP1 SLOAD SWAP1 PUSH2 0x100 EXP SWAP1 DIV PUSH20 0xFFFFFFFFFFFFFFFFFFFFFFFFFFFFFFFFFFFFFFFF AND PUSH20 0xFFFFFFFFFFFFFFFFFFFFFFFFFFFFFFFFFFFFFFFF AND PUSH4 0xB6AE5BA8 CALLVALUE DUP11 DUP11 DUP11 DUP11 DUP11 DUP10 PUSH1 0x40 MLOAD DUP9 PUSH4 0xFFFFFFFF AND PUSH1 0xE0 SHL DUP2 MSTORE PUSH1 0x4 ADD PUSH2 0x74A SWAP7 SWAP6 SWAP5 SWAP4 SWAP3 SWAP2 SWAP1 PUSH2 0x1A4C JUMP JUMPDEST PUSH0 PUSH1 0x40 MLOAD DUP1 DUP4 SUB DUP2 DUP6 DUP9 DUP1 EXTCODESIZE ISZERO DUP1 ISZERO PUSH2 0x761 JUMPI PUSH0 DUP1 REVERT JUMPDEST POP GAS CALL ISZERO DUP1 ISZERO PUSH2 0x773 JUMPI RETURNDATASIZE PUSH0 DUP1 RETURNDATACOPY RETURNDATASIZE PUSH0 REVERT JUMPDEST POP POP POP POP POP PUSH0 DUP1 PUSH0 DUP1 PUSH0 DUP1 PUSH0 PUSH1 0x1 DUP10 DUP11 PUSH1 0x64 PUSH1 0xC8 PUSH2 0x12C PUSH2 0x190 SWAP7 POP SWAP7 POP SWAP7 POP SWAP7 POP SWAP7 POP SWAP7 POP SWAP7 POP PUSH1 0x40 MLOAD DUP1 PUSH1 0xE0 ADD PUSH1 0x40 MSTORE DUP1 DUP9 DUP2 MSTORE PUSH1 0x20 ADD DUP8 PUSH20 0xFFFFFFFFFFFFFFFFFFFFFFFFFFFFFFFFFFFFFFFF AND DUP2 MSTORE PUSH1 0x20 ADD DUP7 PUSH20 0xFFFFFFFFFFFFFFFFFFFFFFFFFFFFFFFFFFFFFFFF AND DUP2 MSTORE PUSH1 0x20 ADD DUP6 DUP2 MSTORE PUSH1 0x20 ADD DUP5 DUP2 MSTORE PUSH1 0x20 ADD DUP4 DUP2 MSTORE PUSH1 0x20 ADD DUP3 DUP2 MSTORE POP SWAP10 POP POP POP POP POP POP POP POP POP POP SWAP6 SWAP5 POP POP POP POP POP JUMP JUMPDEST PUSH0 CALLER SWAP1 POP PUSH0 PUSH1 0x2 PUSH0 SWAP1 SLOAD SWAP1 PUSH2 0x100 EXP SWAP1 DIV PUSH20 0xFFFFFFFFFFFFFFFFFFFFFFFFFFFFFFFFFFFFFFFF AND PUSH20 0xFFFFFFFFFFFFFFFFFFFFFFFFFFFFFFFFFFFFFFFF AND PUSH4 0xB6AE5BA8 CALLVALUE DUP11 DUP11 DUP11 DUP11 DUP11 DUP10 DUP12 PUSH1 0x40 MLOAD DUP10 PUSH4 0xFFFFFFFF AND PUSH1 0xE0 SHL DUP2 MSTORE PUSH1 0x4 ADD PUSH2 0x87A SWAP8 SWAP7 SWAP6 SWAP5 SWAP4 SWAP3 SWAP2 SWAP1 PUSH2 0x1AF6 JUMP JUMPDEST PUSH0 PUSH1 0x40 MLOAD DUP1 DUP4 SUB DUP2 DUP6 DUP9 DUP1 EXTCODESIZE ISZERO DUP1 ISZERO PUSH2 0x891 JUMPI PUSH0 DUP1 REVERT JUMPDEST POP GAS CALL ISZERO DUP1 ISZERO PUSH2 0x8A3 JUMPI RETURNDATASIZE PUSH0 DUP1 RETURNDATACOPY RETURNDATASIZE PUSH0 REVERT JUMPDEST POP POP POP POP POP POP POP POP POP POP POP POP POP JUMP JUMPDEST PUSH0 DUP1 PUSH0 SWAP1 SLOAD SWAP1 PUSH2 0x100 EXP SWAP1 DIV PUSH20 0xFFFFFFFFFFFFFFFFFFFFFFFFFFFFFFFFFFFFFFFF AND PUSH20 0xFFFFFFFFFFFFFFFFFFFFFFFFFFFFFFFFFFFFFFFF AND DUP3 PUSH1 0x40 MLOAD PUSH1 0x24 ADD PUSH2 0x8FB SWAP2 SWAP1 PUSH2 0x15B8 JUMP JUMPDEST PUSH1 0x40 MLOAD PUSH1 0x20 DUP2 DUP4 SUB SUB DUP2 MSTORE SWAP1 PUSH1 0x40 MSTORE PUSH32 0xA5CDC8FC00000000000000000000000000000000000000000000000000000000 PUSH28 0xFFFFFFFFFFFFFFFFFFFFFFFFFFFFFFFFFFFFFFFFFFFFFFFFFFFFFFFF NOT AND PUSH1 0x20 DUP3 ADD DUP1 MLOAD PUSH28 0xFFFFFFFFFFFFFFFFFFFFFFFFFFFFFFFFFFFFFFFFFFFFFFFFFFFFFFFF DUP4 DUP2 DUP4 AND OR DUP4 MSTORE POP POP POP POP PUSH1 0x40 MLOAD PUSH2 0x985 SWAP2 SWAP1 PUSH2 0x1623 JUMP JUMPDEST PUSH0 PUSH1 0x40 MLOAD DUP1 DUP4 SUB DUP2 PUSH0 DUP7 GAS CALL SWAP2 POP POP RETURNDATASIZE DUP1 PUSH0 DUP2 EQ PUSH2 0x9BE JUMPI PUSH1 0x40 MLOAD SWAP2 POP PUSH1 0x1F NOT PUSH1 0x3F RETURNDATASIZE ADD AND DUP3 ADD PUSH1 0x40 MSTORE RETURNDATASIZE DUP3 MSTORE RETURNDATASIZE PUSH0 PUSH1 0x20 DUP5 ADD RETURNDATACOPY PUSH2 0x9C3 JUMP JUMPDEST PUSH1 0x60 SWAP2 POP JUMPDEST POP POP SWAP1 POP DUP1 PUSH2 0xA07 JUMPI PUSH1 0x40 MLOAD PUSH32 0x8C379A000000000000000000000000000000000000000000000000000000000 DUP2 MSTORE PUSH1 0x4 ADD PUSH2 0x9FE SWAP1 PUSH2 0x1BB4 JUMP JUMPDEST PUSH1 0x40 MLOAD DUP1 SWAP2 SUB SWAP1 REVERT JUMPDEST CALLER PUSH20 0xFFFFFFFFFFFFFFFFFFFFFFFFFFFFFFFFFFFFFFFF AND PUSH32 0x9384174C8517F5537B08E79211FC039E8A098571A3A2B4CB21DFA6F3237E8DE1 DUP4 PUSH1 0x40 MLOAD PUSH2 0xA4D SWAP2 SWAP1 PUSH2 0x15B8 JUMP JUMPDEST PUSH1 0x40 MLOAD DUP1 SWAP2 SUB SWAP1 LOG2 POP POP JUMP JUMPDEST PUSH1 0x1 PUSH0 SWAP1 SLOAD SWAP1 PUSH2 0x100 EXP SWAP1 DIV PUSH20 0xFFFFFFFFFFFFFFFFFFFFFFFFFFFFFFFFFFFFFFFF AND DUP2 JUMP JUMPDEST PUSH1 0x1 PUSH0 SWAP1 SLOAD SWAP1 PUSH2 0x100 EXP SWAP1 DIV PUSH20 0xFFFFFFFFFFFFFFFFFFFFFFFFFFFFFFFFFFFFFFFF AND PUSH20 0xFFFFFFFFFFFFFFFFFFFFFFFFFFFFFFFFFFFFFFFF AND CALLER PUSH20 0xFFFFFFFFFFFFFFFFFFFFFFFFFFFFFFFFFFFFFFFF AND EQ PUSH2 0xB0D JUMPI PUSH1 0x40 MLOAD PUSH32 0x8C379A000000000000000000000000000000000000000000000000000000000 DUP2 MSTORE PUSH1 0x4 ADD PUSH2 0xB04 SWAP1 PUSH2 0x1C42 JUMP JUMPDEST PUSH1 0x40 MLOAD DUP1 SWAP2 SUB SWAP1 REVERT JUMPDEST DUP1 PUSH0 DUP1 PUSH2 0x100 EXP DUP2 SLOAD DUP2 PUSH20 0xFFFFFFFFFFFFFFFFFFFFFFFFFFFFFFFFFFFFFFFF MUL NOT AND SWAP1 DUP4 PUSH20 0xFFFFFFFFFFFFFFFFFFFFFFFFFFFFFFFFFFFFFFFF AND MUL OR SWAP1 SSTORE POP POP JUMP JUMPDEST PUSH0 CALLER SWAP1 POP PUSH0 PUSH1 0x2 PUSH0 SWAP1 SLOAD SWAP1 PUSH2 0x100 EXP SWAP1 DIV PUSH20 0xFFFFFFFFFFFFFFFFFFFFFFFFFFFFFFFFFFFFFFFF AND PUSH20 0xFFFFFFFFFFFFFFFFFFFFFFFFFFFFFFFFFFFFFFFF AND PUSH4 0xB6AE5BA8 CALLVALUE DUP10 DUP10 DUP10 DUP10 DUP10 DUP10 PUSH1 0x40 MLOAD DUP9 PUSH4 0xFFFFFFFF AND PUSH1 0xE0 SHL DUP2 MSTORE PUSH1 0x4 ADD PUSH2 0xBB9 SWAP7 SWAP6 SWAP5 SWAP4 SWAP3 SWAP2 SWAP1 PUSH2 0x1A4C JUMP JUMPDEST PUSH0 PUSH1 0x40 MLOAD DUP1 DUP4 SUB DUP2 DUP6 DUP9 DUP1 EXTCODESIZE ISZERO DUP1 ISZERO PUSH2 0xBD0 JUMPI PUSH0 DUP1 REVERT JUMPDEST POP GAS CALL ISZERO DUP1 ISZERO PUSH2 0xBE2 JUMPI RETURNDATASIZE PUSH0 DUP1 RETURNDATACOPY RETURNDATASIZE PUSH0 REVERT JUMPDEST POP POP POP POP POP POP POP POP POP POP POP POP JUMP JUMPDEST PUSH1 0x1 PUSH0 SWAP1 SLOAD SWAP1 PUSH2 0x100 EXP SWAP1 DIV PUSH20 0xFFFFFFFFFFFFFFFFFFFFFFFFFFFFFFFFFFFFFFFF AND PUSH20 0xFFFFFFFFFFFFFFFFFFFFFFFFFFFFFFFFFFFFFFFF AND CALLER PUSH20 0xFFFFFFFFFFFFFFFFFFFFFFFFFFFFFFFFFFFFFFFF AND EQ PUSH2 0xC7F JUMPI PUSH1 0x40 MLOAD PUSH32 0x8C379A000000000000000000000000000000000000000000000000000000000 DUP2 MSTORE PUSH1 0x4 ADD PUSH2 0xC76 SWAP1 PUSH2 0x1CD0 JUMP JUMPDEST PUSH1 0x40 MLOAD DUP1 SWAP2 SUB SWAP1 REVERT JUMPDEST DUP1 PUSH1 0x2 PUSH0 PUSH2 0x100 EXP DUP2 SLOAD DUP2 PUSH20 0xFFFFFFFFFFFFFFFFFFFFFFFFFFFFFFFFFFFFFFFF MUL NOT AND SWAP1 DUP4 PUSH20 0xFFFFFFFFFFFFFFFFFFFFFFFFFFFFFFFFFFFFFFFF AND MUL OR SWAP1 SSTORE POP POP JUMP JUMPDEST PUSH0 DUP1 PUSH0 SWAP1 SLOAD SWAP1 PUSH2 0x100 EXP SWAP1 DIV PUSH20 0xFFFFFFFFFFFFFFFFFFFFFFFFFFFFFFFFFFFFFFFF AND PUSH20 0xFFFFFFFFFFFFFFFFFFFFFFFFFFFFFFFFFFFFFFFF AND PUSH1 0x40 MLOAD PUSH1 0x24 ADD PUSH1 0x40 MLOAD PUSH1 0x20 DUP2 DUP4 SUB SUB DUP2 MSTORE SWAP1 PUSH1 0x40 MSTORE PUSH32 0xFDE8959800000000000000000000000000000000000000000000000000000000 PUSH28 0xFFFFFFFFFFFFFFFFFFFFFFFFFFFFFFFFFFFFFFFFFFFFFFFFFFFFFFFF NOT AND PUSH1 0x20 DUP3 ADD DUP1 MLOAD PUSH28 0xFFFFFFFFFFFFFFFFFFFFFFFFFFFFFFFFFFFFFFFFFFFFFFFFFFFFFFFF DUP4 DUP2 DUP4 AND OR DUP4 MSTORE POP POP POP POP PUSH1 0x40 MLOAD PUSH2 0xD8A SWAP2 SWAP1 PUSH2 0x1623 JUMP JUMPDEST PUSH0 PUSH1 0x40 MLOAD DUP1 DUP4 SUB DUP2 PUSH0 DUP7 GAS CALL SWAP2 POP POP RETURNDATASIZE DUP1 PUSH0 DUP2 EQ PUSH2 0xDC3 JUMPI PUSH1 0x40 MLOAD SWAP2 POP PUSH1 0x1F NOT PUSH1 0x3F RETURNDATASIZE ADD AND DUP3 ADD PUSH1 0x40 MSTORE RETURNDATASIZE DUP3 MSTORE RETURNDATASIZE PUSH0 PUSH1 0x20 DUP5 ADD RETURNDATACOPY PUSH2 0xDC8 JUMP JUMPDEST PUSH1 0x60 SWAP2 POP JUMPDEST POP POP SWAP1 POP DUP1 PUSH2 0xE0C JUMPI PUSH1 0x40 MLOAD PUSH32 0x8C379A000000000000000000000000000000000000000000000000000000000 DUP2 MSTORE PUSH1 0x4 ADD PUSH2 0xE03 SWAP1 PUSH2 0x1D5E JUMP JUMPDEST PUSH1 0x40 MLOAD DUP1 SWAP2 SUB SWAP1 REVERT JUMPDEST CALLER PUSH20 0xFFFFFFFFFFFFFFFFFFFFFFFFFFFFFFFFFFFFFFFF AND PUSH32 0x8595565D6FC010BABC8F7612A8768886D8FE08635F358D75AF306FDF25F00D03 PUSH1 0x40 MLOAD PUSH1 0x40 MLOAD DUP1 SWAP2 SUB SWAP1 LOG2 POP JUMP JUMPDEST PUSH1 0x2 PUSH0 SWAP1 SLOAD SWAP1 PUSH2 0x100 EXP SWAP1 DIV PUSH20 0xFFFFFFFFFFFFFFFFFFFFFFFFFFFFFFFFFFFFFFFF AND DUP2 JUMP JUMPDEST PUSH1 0x40 MLOAD DUP1 PUSH2 0x120 ADD PUSH1 0x40 MSTORE DUP1 PUSH0 DUP2 MSTORE PUSH1 0x20 ADD PUSH0 PUSH20 0xFFFFFFFFFFFFFFFFFFFFFFFFFFFFFFFFFFFFFFFF AND DUP2 MSTORE PUSH1 0x20 ADD PUSH0 DUP2 MSTORE PUSH1 0x20 ADD PUSH0 PUSH20 0xFFFFFFFFFFFFFFFFFFFFFFFFFFFFFFFFFFFFFFFF AND DUP2 MSTORE PUSH1 0x20 ADD PUSH0 PUSH20 0xFFFFFFFFFFFFFFFFFFFFFFFFFFFFFFFFFFFFFFFF AND DUP2 MSTORE PUSH1 0x20 ADD PUSH0 DUP2 MSTORE PUSH1 0x20 ADD PUSH0 DUP2 MSTORE PUSH1 0x20 ADD PUSH0 ISZERO ISZERO DUP2 MSTORE PUSH1 0x20 ADD PUSH0 ISZERO ISZERO DUP2 MSTORE POP SWAP1 JUMP JUMPDEST PUSH1 0x40 MLOAD DUP1 PUSH1 0xE0 ADD PUSH1 0x40 MSTORE DUP1 PUSH0 DUP2 MSTORE PUSH1 0x20 ADD PUSH0 PUSH20 0xFFFFFFFFFFFFFFFFFFFFFFFFFFFFFFFFFFFFFFFF AND DUP2 MSTORE PUSH1 0x20 ADD PUSH0 PUSH20 0xFFFFFFFFFFFFFFFFFFFFFFFFFFFFFFFFFFFFFFFF AND DUP2 MSTORE PUSH1 0x20 ADD PUSH0 DUP2 MSTORE PUSH1 0x20 ADD PUSH0 DUP2 MSTORE PUSH1 0x20 ADD PUSH0 DUP2 MSTORE PUSH1 0x20 ADD PUSH0 DUP2 MSTORE POP SWAP1 JUMP JUMPDEST PUSH0 PUSH20 0xFFFFFFFFFFFFFFFFFFFFFFFFFFFFFFFFFFFFFFFF DUP3 AND SWAP1 POP SWAP2 SWAP1 POP JUMP JUMPDEST PUSH0 PUSH2 0xF8B DUP3 PUSH2 0xF62 JUMP JUMPDEST SWAP1 POP SWAP2 SWAP1 POP JUMP JUMPDEST PUSH2 0xF9B DUP2 PUSH2 0xF81 JUMP JUMPDEST DUP3 MSTORE POP POP JUMP JUMPDEST PUSH0 PUSH1 0x20 DUP3 ADD SWAP1 POP PUSH2 0xFB4 PUSH0 DUP4 ADD DUP5 PUSH2 0xF92 JUMP JUMPDEST SWAP3 SWAP2 POP POP JUMP JUMPDEST PUSH0 PUSH4 0xFFFFFFFF DUP3 AND SWAP1 POP SWAP2 SWAP1 POP JUMP JUMPDEST PUSH2 0xFD2 DUP2 PUSH2 0xFBA JUMP JUMPDEST DUP3 MSTORE POP POP JUMP JUMPDEST PUSH0 PUSH1 0x20 DUP3 ADD SWAP1 POP PUSH2 0xFEB PUSH0 DUP4 ADD DUP5 PUSH2 0xFC9 JUMP JUMPDEST SWAP3 SWAP2 POP POP JUMP JUMPDEST PUSH0 PUSH1 0x40 MLOAD SWAP1 POP SWAP1 JUMP JUMPDEST PUSH0 DUP1 REVERT JUMPDEST PUSH0 DUP1 REVERT JUMPDEST PUSH0 DUP2 SWAP1 POP SWAP2 SWAP1 POP JUMP JUMPDEST PUSH2 0x1014 DUP2 PUSH2 0x1002 JUMP JUMPDEST DUP2 EQ PUSH2 0x101E JUMPI PUSH0 DUP1 REVERT JUMPDEST POP JUMP JUMPDEST PUSH0 DUP2 CALLDATALOAD SWAP1 POP PUSH2 0x102F DUP2 PUSH2 0x100B JUMP JUMPDEST SWAP3 SWAP2 POP POP JUMP JUMPDEST PUSH0 PUSH1 0x20 DUP3 DUP5 SUB SLT ISZERO PUSH2 0x104A JUMPI PUSH2 0x1049 PUSH2 0xFFA JUMP JUMPDEST JUMPDEST PUSH0 PUSH2 0x1057 DUP5 DUP3 DUP6 ADD PUSH2 0x1021 JUMP JUMPDEST SWAP2 POP POP SWAP3 SWAP2 POP POP JUMP JUMPDEST PUSH2 0x1069 DUP2 PUSH2 0x1002 JUMP JUMPDEST DUP3 MSTORE POP POP JUMP JUMPDEST PUSH2 0x1078 DUP2 PUSH2 0xF81 JUMP JUMPDEST DUP3 MSTORE POP POP JUMP JUMPDEST PUSH0 DUP2 ISZERO ISZERO SWAP1 POP SWAP2 SWAP1 POP JUMP JUMPDEST PUSH2 0x1092 DUP2 PUSH2 0x107E JUMP JUMPDEST DUP3 MSTORE POP POP JUMP JUMPDEST PUSH2 0x120 DUP3 ADD PUSH0 DUP3 ADD MLOAD PUSH2 0x10AD PUSH0 DUP6 ADD DUP3 PUSH2 0x1060 JUMP JUMPDEST POP PUSH1 0x20 DUP3 ADD MLOAD PUSH2 0x10C0 PUSH1 0x20 DUP6 ADD DUP3 PUSH2 0x106F JUMP JUMPDEST POP PUSH1 0x40 DUP3 ADD MLOAD PUSH2 0x10D3 PUSH1 0x40 DUP6 ADD DUP3 PUSH2 0x1060 JUMP JUMPDEST POP PUSH1 0x60 DUP3 ADD MLOAD PUSH2 0x10E6 PUSH1 0x60 DUP6 ADD DUP3 PUSH2 0x106F JUMP JUMPDEST POP PUSH1 0x80 DUP3 ADD MLOAD PUSH2 0x10F9 PUSH1 0x80 DUP6 ADD DUP3 PUSH2 0x106F JUMP JUMPDEST POP PUSH1 0xA0 DUP3 ADD MLOAD PUSH2 0x110C PUSH1 0xA0 DUP6 ADD DUP3 PUSH2 0x1060 JUMP JUMPDEST POP PUSH1 0xC0 DUP3 ADD MLOAD PUSH2 0x111F PUSH1 0xC0 DUP6 ADD DUP3 PUSH2 0x1060 JUMP JUMPDEST POP PUSH1 0xE0 DUP3 ADD MLOAD PUSH2 0x1132 PUSH1 0xE0 DUP6 ADD DUP3 PUSH2 0x1089 JUMP JUMPDEST POP PUSH2 0x100 DUP3 ADD MLOAD PUSH2 0x1147 PUSH2 0x100 DUP6 ADD DUP3 PUSH2 0x1089 JUMP JUMPDEST POP POP POP POP JUMP JUMPDEST PUSH0 PUSH2 0x120 DUP3 ADD SWAP1 POP PUSH2 0x1161 PUSH0 DUP4 ADD DUP5 PUSH2 0x1098 JUMP JUMPDEST SWAP3 SWAP2 POP POP JUMP JUMPDEST PUSH2 0x1170 DUP2 PUSH2 0xF81 JUMP JUMPDEST DUP2 EQ PUSH2 0x117A JUMPI PUSH0 DUP1 REVERT JUMPDEST POP JUMP JUMPDEST PUSH0 DUP2 CALLDATALOAD SWAP1 POP PUSH2 0x118B DUP2 PUSH2 0x1167 JUMP JUMPDEST SWAP3 SWAP2 POP POP JUMP JUMPDEST PUSH0 DUP1 PUSH0 DUP1 PUSH1 0x80 DUP6 DUP8 SUB SLT ISZERO PUSH2 0x11A9 JUMPI PUSH2 0x11A8 PUSH2 0xFFA JUMP JUMPDEST JUMPDEST PUSH0 PUSH2 0x11B6 DUP8 DUP3 DUP9 ADD PUSH2 0x1021 JUMP JUMPDEST SWAP5 POP POP PUSH1 0x20 PUSH2 0x11C7 DUP8 DUP3 DUP9 ADD PUSH2 0x117D JUMP JUMPDEST SWAP4 POP POP PUSH1 0x40 PUSH2 0x11D8 DUP8 DUP3 DUP9 ADD PUSH2 0x117D JUMP JUMPDEST SWAP3 POP POP PUSH1 0x60 PUSH2 0x11E9 DUP8 DUP3 DUP9 ADD PUSH2 0x1021 JUMP JUMPDEST SWAP2 POP POP SWAP3 SWAP6 SWAP2 SWAP5 POP SWAP3 POP JUMP JUMPDEST PUSH0 DUP1 PUSH0 DUP1 PUSH0 PUSH1 0xA0 DUP7 DUP9 SUB SLT ISZERO PUSH2 0x120E JUMPI PUSH2 0x120D PUSH2 0xFFA JUMP JUMPDEST JUMPDEST PUSH0 PUSH2 0x121B DUP9 DUP3 DUP10 ADD PUSH2 0x1021 JUMP JUMPDEST SWAP6 POP POP PUSH1 0x20 PUSH2 0x122C DUP9 DUP3 DUP10 ADD PUSH2 0x117D JUMP JUMPDEST SWAP5 POP POP PUSH1 0x40 PUSH2 0x123D DUP9 DUP3 DUP10 ADD PUSH2 0x117D JUMP JUMPDEST SWAP4 POP POP PUSH1 0x60 PUSH2 0x124E DUP9 DUP3 DUP10 ADD PUSH2 0x1021 JUMP JUMPDEST SWAP3 POP POP PUSH1 0x80 PUSH2 0x125F DUP9 DUP3 DUP10 ADD PUSH2 0x1021 JUMP JUMPDEST SWAP2 POP POP SWAP3 SWAP6 POP SWAP3 SWAP6 SWAP1 SWAP4 POP JUMP JUMPDEST PUSH0 DUP2 SWAP1 POP SWAP2 SWAP1 POP JUMP JUMPDEST PUSH2 0x127E DUP2 PUSH2 0x126C JUMP JUMPDEST DUP3 MSTORE POP POP JUMP JUMPDEST PUSH1 0xE0 DUP3 ADD PUSH0 DUP3 ADD MLOAD PUSH2 0x1298 PUSH0 DUP6 ADD DUP3 PUSH2 0x1060 JUMP JUMPDEST POP PUSH1 0x20 DUP3 ADD MLOAD PUSH2 0x12AB PUSH1 0x20 DUP6 ADD DUP3 PUSH2 0x106F JUMP JUMPDEST POP PUSH1 0x40 DUP3 ADD MLOAD PUSH2 0x12BE PUSH1 0x40 DUP6 ADD DUP3 PUSH2 0x106F JUMP JUMPDEST POP PUSH1 0x60 DUP3 ADD MLOAD PUSH2 0x12D1 PUSH1 0x60 DUP6 ADD DUP3 PUSH2 0x1275 JUMP JUMPDEST POP PUSH1 0x80 DUP3 ADD MLOAD PUSH2 0x12E4 PUSH1 0x80 DUP6 ADD DUP3 PUSH2 0x1275 JUMP JUMPDEST POP PUSH1 0xA0 DUP3 ADD MLOAD PUSH2 0x12F7 PUSH1 0xA0 DUP6 ADD DUP3 PUSH2 0x1275 JUMP JUMPDEST POP PUSH1 0xC0 DUP3 ADD MLOAD PUSH2 0x130A PUSH1 0xC0 DUP6 ADD DUP3 PUSH2 0x1275 JUMP JUMPDEST POP POP POP POP JUMP JUMPDEST PUSH0 PUSH1 0xE0 DUP3 ADD SWAP1 POP PUSH2 0x1323 PUSH0 DUP4 ADD DUP5 PUSH2 0x1284 JUMP JUMPDEST SWAP3 SWAP2 POP POP JUMP JUMPDEST PUSH0 DUP1 REVERT JUMPDEST PUSH0 DUP1 REVERT JUMPDEST PUSH0 PUSH1 0x1F NOT PUSH1 0x1F DUP4 ADD AND SWAP1 POP SWAP2 SWAP1 POP JUMP JUMPDEST PUSH32 0x4E487B7100000000000000000000000000000000000000000000000000000000 PUSH0 MSTORE PUSH1 0x41 PUSH1 0x4 MSTORE PUSH1 0x24 PUSH0 REVERT JUMPDEST PUSH2 0x1377 DUP3 PUSH2 0x1331 JUMP JUMPDEST DUP2 ADD DUP2 DUP2 LT PUSH8 0xFFFFFFFFFFFFFFFF DUP3 GT OR ISZERO PUSH2 0x1396 JUMPI PUSH2 0x1395 PUSH2 0x1341 JUMP JUMPDEST JUMPDEST DUP1 PUSH1 0x40 MSTORE POP POP POP JUMP JUMPDEST PUSH0 PUSH2 0x13A8 PUSH2 0xFF1 JUMP JUMPDEST SWAP1 POP PUSH2 0x13B4 DUP3 DUP3 PUSH2 0x136E JUMP JUMPDEST SWAP2 SWAP1 POP JUMP JUMPDEST PUSH0 PUSH8 0xFFFFFFFFFFFFFFFF DUP3 GT ISZERO PUSH2 0x13D3 JUMPI PUSH2 0x13D2 PUSH2 0x1341 JUMP JUMPDEST JUMPDEST PUSH2 0x13DC DUP3 PUSH2 0x1331 JUMP JUMPDEST SWAP1 POP PUSH1 0x20 DUP2 ADD SWAP1 POP SWAP2 SWAP1 POP JUMP JUMPDEST DUP3 DUP2 DUP4 CALLDATACOPY PUSH0 DUP4 DUP4 ADD MSTORE POP POP POP JUMP JUMPDEST PUSH0 PUSH2 0x1409 PUSH2 0x1404 DUP5 PUSH2 0x13B9 JUMP JUMPDEST PUSH2 0x139F JUMP JUMPDEST SWAP1 POP DUP3 DUP2 MSTORE PUSH1 0x20 DUP2 ADD DUP5 DUP5 DUP5 ADD GT ISZERO PUSH2 0x1425 JUMPI PUSH2 0x1424 PUSH2 0x132D JUMP JUMPDEST JUMPDEST PUSH2 0x1430 DUP5 DUP3 DUP6 PUSH2 0x13E9 JUMP JUMPDEST POP SWAP4 SWAP3 POP POP POP JUMP JUMPDEST PUSH0 DUP3 PUSH1 0x1F DUP4 ADD SLT PUSH2 0x144C JUMPI PUSH2 0x144B PUSH2 0x1329 JUMP JUMPDEST JUMPDEST DUP2 CALLDATALOAD PUSH2 0x145C DUP5 DUP3 PUSH1 0x20 DUP7 ADD PUSH2 0x13F7 JUMP JUMPDEST SWAP2 POP POP SWAP3 SWAP2 POP POP JUMP JUMPDEST PUSH0 DUP1 PUSH0 DUP1 PUSH0 DUP1 PUSH1 0xC0 DUP8 DUP10 SUB SLT ISZERO PUSH2 0x147F JUMPI PUSH2 0x147E PUSH2 0xFFA JUMP JUMPDEST JUMPDEST PUSH0 PUSH2 0x148C DUP10 DUP3 DUP11 ADD PUSH2 0x1021 JUMP JUMPDEST SWAP7 POP POP PUSH1 0x20 PUSH2 0x149D DUP10 DUP3 DUP11 ADD PUSH2 0x117D JUMP JUMPDEST SWAP6 POP POP PUSH1 0x40 PUSH2 0x14AE DUP10 DUP3 DUP11 ADD PUSH2 0x117D JUMP JUMPDEST SWAP5 POP POP PUSH1 0x60 PUSH2 0x14BF DUP10 DUP3 DUP11 ADD PUSH2 0x1021 JUMP JUMPDEST SWAP4 POP POP PUSH1 0x80 PUSH2 0x14D0 DUP10 DUP3 DUP11 ADD PUSH2 0x1021 JUMP JUMPDEST SWAP3 POP POP PUSH1 0xA0 DUP8 ADD CALLDATALOAD PUSH8 0xFFFFFFFFFFFFFFFF DUP2 GT ISZERO PUSH2 0x14F1 JUMPI PUSH2 0x14F0 PUSH2 0xFFE JUMP JUMPDEST JUMPDEST PUSH2 0x14FD DUP10 DUP3 DUP11 ADD PUSH2 0x1438 JUMP JUMPDEST SWAP2 POP POP SWAP3 SWAP6 POP SWAP3 SWAP6 POP SWAP3 SWAP6 JUMP JUMPDEST PUSH0 PUSH1 0x20 DUP3 DUP5 SUB SLT ISZERO PUSH2 0x151F JUMPI PUSH2 0x151E PUSH2 0xFFA JUMP JUMPDEST JUMPDEST PUSH0 PUSH2 0x152C DUP5 DUP3 DUP6 ADD PUSH2 0x117D JUMP JUMPDEST SWAP2 POP POP SWAP3 SWAP2 POP POP JUMP JUMPDEST PUSH0 DUP2 SWAP1 POP SWAP2 SWAP1 POP JUMP JUMPDEST PUSH0 PUSH2 0x1558 PUSH2 0x1553 PUSH2 0x154E DUP5 PUSH2 0xF62 JUMP JUMPDEST PUSH2 0x1535 JUMP JUMPDEST PUSH2 0xF62 JUMP JUMPDEST SWAP1 POP SWAP2 SWAP1 POP JUMP JUMPDEST PUSH0 PUSH2 0x1569 DUP3 PUSH2 0x153E JUMP JUMPDEST SWAP1 POP SWAP2 SWAP1 POP JUMP JUMPDEST PUSH0 PUSH2 0x157A DUP3 PUSH2 0x155F JUMP JUMPDEST SWAP1 POP SWAP2 SWAP1 POP JUMP JUMPDEST PUSH2 0x158A DUP2 PUSH2 0x1570 JUMP JUMPDEST DUP3 MSTORE POP POP JUMP JUMPDEST PUSH0 PUSH1 0x20 DUP3 ADD SWAP1 POP PUSH2 0x15A3 PUSH0 DUP4 ADD DUP5 PUSH2 0x1581 JUMP JUMPDEST SWAP3 SWAP2 POP POP JUMP JUMPDEST PUSH2 0x15B2 DUP2 PUSH2 0x1002 JUMP JUMPDEST DUP3 MSTORE POP POP JUMP JUMPDEST PUSH0 PUSH1 0x20 DUP3 ADD SWAP1 POP PUSH2 0x15CB PUSH0 DUP4 ADD DUP5 PUSH2 0x15A9 JUMP JUMPDEST SWAP3 SWAP2 POP POP JUMP JUMPDEST PUSH0 DUP2 MLOAD SWAP1 POP SWAP2 SWAP1 POP JUMP JUMPDEST PUSH0 DUP2 SWAP1 POP SWAP3 SWAP2 POP POP JUMP JUMPDEST DUP3 DUP2 DUP4 MCOPY PUSH0 DUP4 DUP4 ADD MSTORE POP POP POP JUMP JUMPDEST PUSH0 PUSH2 0x15FD DUP3 PUSH2 0x15D1 JUMP JUMPDEST PUSH2 0x1607 DUP2 DUP6 PUSH2 0x15DB JUMP JUMPDEST SWAP4 POP PUSH2 0x1617 DUP2 DUP6 PUSH1 0x20 DUP7 ADD PUSH2 0x15E5 JUMP JUMPDEST DUP1 DUP5 ADD SWAP2 POP POP SWAP3 SWAP2 POP POP JUMP JUMPDEST PUSH0 PUSH2 0x162E DUP3 DUP5 PUSH2 0x15F3 JUMP JUMPDEST SWAP2 POP DUP2 SWAP1 POP SWAP3 SWAP2 POP POP JUMP JUMPDEST PUSH0 DUP3 DUP3 MSTORE PUSH1 0x20 DUP3 ADD SWAP1 POP SWAP3 SWAP2 POP POP JUMP JUMPDEST PUSH32 0x4661696C656420746F207265747269657665206C696D6974206F726465720000 PUSH0 DUP3 ADD MSTORE POP JUMP JUMPDEST PUSH0 PUSH2 0x167D PUSH1 0x1E DUP4 PUSH2 0x1639 JUMP JUMPDEST SWAP2 POP PUSH2 0x1688 DUP3 PUSH2 0x1649 JUMP JUMPDEST PUSH1 0x20 DUP3 ADD SWAP1 POP SWAP2 SWAP1 POP JUMP JUMPDEST PUSH0 PUSH1 0x20 DUP3 ADD SWAP1 POP DUP2 DUP2 SUB PUSH0 DUP4 ADD MSTORE PUSH2 0x16AA DUP2 PUSH2 0x1671 JUMP JUMPDEST SWAP1 POP SWAP2 SWAP1 POP JUMP JUMPDEST PUSH0 DUP2 MLOAD SWAP1 POP PUSH2 0x16BF DUP2 PUSH2 0x100B JUMP JUMPDEST SWAP3 SWAP2 POP POP JUMP JUMPDEST PUSH0 PUSH2 0x16CF DUP3 PUSH2 0xF62 JUMP JUMPDEST SWAP1 POP SWAP2 SWAP1 POP JUMP JUMPDEST PUSH2 0x16DF DUP2 PUSH2 0x16C5 JUMP JUMPDEST DUP2 EQ PUSH2 0x16E9 JUMPI PUSH0 DUP1 REVERT JUMPDEST POP JUMP JUMPDEST PUSH0 DUP2 MLOAD SWAP1 POP PUSH2 0x16FA DUP2 PUSH2 0x16D6 JUMP JUMPDEST SWAP3 SWAP2 POP POP JUMP JUMPDEST PUSH2 0x1709 DUP2 PUSH2 0x107E JUMP JUMPDEST DUP2 EQ PUSH2 0x1713 JUMPI PUSH0 DUP1 REVERT JUMPDEST POP JUMP JUMPDEST PUSH0 DUP2 MLOAD SWAP1 POP PUSH2 0x1724 DUP2 PUSH2 0x1700 JUMP JUMPDEST SWAP3 SWAP2 POP POP JUMP JUMPDEST PUSH0 DUP1 PUSH0 DUP1 PUSH0 DUP1 PUSH0 DUP1 PUSH0 DUP1 PUSH0 PUSH2 0x160 DUP13 DUP15 SUB SLT ISZERO PUSH2 0x174A JUMPI PUSH2 0x1749 PUSH2 0xFFA JUMP JUMPDEST JUMPDEST PUSH0 PUSH2 0x1757 DUP15 DUP3 DUP16 ADD PUSH2 0x16B1 JUMP JUMPDEST SWAP12 POP POP PUSH1 0x20 PUSH2 0x1768 DUP15 DUP3 DUP16 ADD PUSH2 0x16EC JUMP JUMPDEST SWAP11 POP POP PUSH1 0x40 PUSH2 0x1779 DUP15 DUP3 DUP16 ADD PUSH2 0x16B1 JUMP JUMPDEST SWAP10 POP POP PUSH1 0x60 PUSH2 0x178A DUP15 DUP3 DUP16 ADD PUSH2 0x16B1 JUMP JUMPDEST SWAP9 POP POP PUSH1 0x80 PUSH2 0x179B DUP15 DUP3 DUP16 ADD PUSH2 0x16EC JUMP JUMPDEST SWAP8 POP POP PUSH1 0xA0 PUSH2 0x17AC DUP15 DUP3 DUP16 ADD PUSH2 0x16EC JUMP JUMPDEST SWAP7 POP POP PUSH1 0xC0 PUSH2 0x17BD DUP15 DUP3 DUP16 ADD PUSH2 0x16B1 JUMP JUMPDEST SWAP6 POP POP PUSH1 0xE0 PUSH2 0x17CE DUP15 DUP3 DUP16 ADD PUSH2 0x16B1 JUMP JUMPDEST SWAP5 POP POP PUSH2 0x100 PUSH2 0x17E0 DUP15 DUP3 DUP16 ADD PUSH2 0x16B1 JUMP JUMPDEST SWAP4 POP POP PUSH2 0x120 PUSH2 0x17F2 DUP15 DUP3 DUP16 ADD PUSH2 0x1716 JUMP JUMPDEST SWAP3 POP POP PUSH2 0x140 PUSH2 0x1804 DUP15 DUP3 DUP16 ADD PUSH2 0x1716 JUMP JUMPDEST SWAP2 POP POP SWAP3 SWAP6 SWAP9 SWAP12 POP SWAP3 SWAP6 SWAP9 SWAP12 SWAP1 SWAP4 SWAP7 SWAP10 POP JUMP JUMPDEST PUSH0 PUSH1 0xC0 DUP3 ADD SWAP1 POP PUSH2 0x182A PUSH0 DUP4 ADD DUP10 PUSH2 0xF92 JUMP JUMPDEST PUSH2 0x1837 PUSH1 0x20 DUP4 ADD DUP9 PUSH2 0x15A9 JUMP JUMPDEST PUSH2 0x1844 PUSH1 0x40 DUP4 ADD DUP8 PUSH2 0x15A9 JUMP JUMPDEST PUSH2 0x1851 PUSH1 0x60 DUP4 ADD DUP7 PUSH2 0xF92 JUMP JUMPDEST PUSH2 0x185E PUSH1 0x80 DUP4 ADD DUP6 PUSH2 0xF92 JUMP JUMPDEST PUSH2 0x186B PUSH1 0xA0 DUP4 ADD DUP5 PUSH2 0x15A9 JUMP JUMPDEST SWAP8 SWAP7 POP POP POP POP POP POP POP JUMP JUMPDEST PUSH32 0x4661696C656420746F20706C616365206D61726B6574206F7264657200000000 PUSH0 DUP3 ADD MSTORE POP JUMP JUMPDEST PUSH0 PUSH2 0x18AA PUSH1 0x1C DUP4 PUSH2 0x1639 JUMP JUMPDEST SWAP2 POP PUSH2 0x18B5 DUP3 PUSH2 0x1876 JUMP JUMPDEST PUSH1 0x20 DUP3 ADD SWAP1 POP SWAP2 SWAP1 POP JUMP JUMPDEST PUSH0 PUSH1 0x20 DUP3 ADD SWAP1 POP DUP2 DUP2 SUB PUSH0 DUP4 ADD MSTORE PUSH2 0x18D7 DUP2 PUSH2 0x189E JUMP JUMPDEST SWAP1 POP SWAP2 SWAP1 POP JUMP JUMPDEST PUSH2 0x18E7 DUP2 PUSH2 0x126C JUMP JUMPDEST DUP2 EQ PUSH2 0x18F1 JUMPI PUSH0 DUP1 REVERT JUMPDEST POP JUMP JUMPDEST PUSH0 DUP2 MLOAD SWAP1 POP PUSH2 0x1902 DUP2 PUSH2 0x18DE JUMP JUMPDEST SWAP3 SWAP2 POP POP JUMP JUMPDEST PUSH0 DUP1 PUSH0 DUP1 PUSH0 DUP1 PUSH0 DUP1 PUSH0 PUSH2 0x120 DUP11 DUP13 SUB SLT ISZERO PUSH2 0x1926 JUMPI PUSH2 0x1925 PUSH2 0xFFA JUMP JUMPDEST JUMPDEST PUSH0 PUSH2 0x1933 DUP13 DUP3 DUP14 ADD PUSH2 0x16EC JUMP JUMPDEST SWAP10 POP POP PUSH1 0x20 PUSH2 0x1944 DUP13 DUP3 DUP14 ADD PUSH2 0x16B1 JUMP JUMPDEST SWAP9 POP POP PUSH1 0x40 PUSH2 0x1955 DUP13 DUP3 DUP14 ADD PUSH2 0x16EC JUMP JUMPDEST SWAP8 POP POP PUSH1 0x60 PUSH2 0x1966 DUP13 DUP3 DUP14 ADD PUSH2 0x18F4 JUMP JUMPDEST SWAP7 POP POP PUSH1 0x80 PUSH2 0x1977 DUP13 DUP3 DUP14 ADD PUSH2 0x18F4 JUMP JUMPDEST SWAP6 POP POP PUSH1 0xA0 PUSH2 0x1988 DUP13 DUP3 DUP14 ADD PUSH2 0x18F4 JUMP JUMPDEST SWAP5 POP POP PUSH1 0xC0 PUSH2 0x1999 DUP13 DUP3 DUP14 ADD PUSH2 0x18F4 JUMP JUMPDEST SWAP4 POP POP PUSH1 0xE0 PUSH2 0x19AA DUP13 DUP3 DUP14 ADD PUSH2 0x16EC JUMP JUMPDEST SWAP3 POP POP PUSH2 0x100 PUSH2 0x19BC DUP13 DUP3 DUP14 ADD PUSH2 0x16EC JUMP JUMPDEST SWAP2 POP POP SWAP3 SWAP6 SWAP9 POP SWAP3 SWAP6 SWAP9 POP SWAP3 SWAP6 SWAP9 JUMP JUMPDEST PUSH0 DUP3 DUP3 MSTORE PUSH1 0x20 DUP3 ADD SWAP1 POP SWAP3 SWAP2 POP POP JUMP JUMPDEST PUSH32 0x3078303030333031303031313031303030303030303030303030303030303030 PUSH0 DUP3 ADD MSTORE PUSH32 0x3030303030303030303065613630000000000000000000000000000000000000 PUSH1 0x20 DUP3 ADD MSTORE POP JUMP JUMPDEST PUSH0 PUSH2 0x1A36 PUSH1 0x2E DUP4 PUSH2 0x19CC JUMP JUMPDEST SWAP2 POP PUSH2 0x1A41 DUP3 PUSH2 0x19DC JUMP JUMPDEST PUSH1 0x40 DUP3 ADD SWAP1 POP SWAP2 SWAP1 POP JUMP JUMPDEST PUSH0 PUSH1 0xE0 DUP3 ADD SWAP1 POP PUSH2 0x1A5F PUSH0 DUP4 ADD DUP10 PUSH2 0x15A9 JUMP JUMPDEST PUSH2 0x1A6C PUSH1 0x20 DUP4 ADD DUP9 PUSH2 0xF92 JUMP JUMPDEST PUSH2 0x1A79 PUSH1 0x40 DUP4 ADD DUP8 PUSH2 0xF92 JUMP JUMPDEST PUSH2 0x1A86 PUSH1 0x60 DUP4 ADD DUP7 PUSH2 0x15A9 JUMP JUMPDEST PUSH2 0x1A93 PUSH1 0x80 DUP4 ADD DUP6 PUSH2 0x15A9 JUMP JUMPDEST PUSH2 0x1AA0 PUSH1 0xA0 DUP4 ADD DUP5 PUSH2 0xF92 JUMP JUMPDEST DUP2 DUP2 SUB PUSH1 0xC0 DUP4 ADD MSTORE PUSH2 0x1AB1 DUP2 PUSH2 0x1A2A JUMP JUMPDEST SWAP1 POP SWAP8 SWAP7 POP POP POP POP POP POP POP JUMP JUMPDEST PUSH0 PUSH2 0x1AC8 DUP3 PUSH2 0x15D1 JUMP JUMPDEST PUSH2 0x1AD2 DUP2 DUP6 PUSH2 0x19CC JUMP JUMPDEST SWAP4 POP PUSH2 0x1AE2 DUP2 DUP6 PUSH1 0x20 DUP7 ADD PUSH2 0x15E5 JUMP JUMPDEST PUSH2 0x1AEB DUP2 PUSH2 0x1331 JUMP JUMPDEST DUP5 ADD SWAP2 POP POP SWAP3 SWAP2 POP POP JUMP JUMPDEST PUSH0 PUSH1 0xE0 DUP3 ADD SWAP1 POP PUSH2 0x1B09 PUSH0 DUP4 ADD DUP11 PUSH2 0x15A9 JUMP JUMPDEST PUSH2 0x1B16 PUSH1 0x20 DUP4 ADD DUP10 PUSH2 0xF92 JUMP JUMPDEST PUSH2 0x1B23 PUSH1 0x40 DUP4 ADD DUP9 PUSH2 0xF92 JUMP JUMPDEST PUSH2 0x1B30 PUSH1 0x60 DUP4 ADD DUP8 PUSH2 0x15A9 JUMP JUMPDEST PUSH2 0x1B3D PUSH1 0x80 DUP4 ADD DUP7 PUSH2 0x15A9 JUMP JUMPDEST PUSH2 0x1B4A PUSH1 0xA0 DUP4 ADD DUP6 PUSH2 0xF92 JUMP JUMPDEST DUP2 DUP2 SUB PUSH1 0xC0 DUP4 ADD MSTORE PUSH2 0x1B5C DUP2 DUP5 PUSH2 0x1ABE JUMP JUMPDEST SWAP1 POP SWAP9 SWAP8 POP POP POP POP POP POP POP POP JUMP JUMPDEST PUSH32 0x4661696C656420746F2063616E63656C206C696D6974206F7264657200000000 PUSH0 DUP3 ADD MSTORE POP JUMP JUMPDEST PUSH0 PUSH2 0x1B9E PUSH1 0x1C DUP4 PUSH2 0x1639 JUMP JUMPDEST SWAP2 POP PUSH2 0x1BA9 DUP3 PUSH2 0x1B6A JUMP JUMPDEST PUSH1 0x20 DUP3 ADD SWAP1 POP SWAP2 SWAP1 POP JUMP JUMPDEST PUSH0 PUSH1 0x20 DUP3 ADD SWAP1 POP DUP2 DUP2 SUB PUSH0 DUP4 ADD MSTORE PUSH2 0x1BCB DUP2 PUSH2 0x1B92 JUMP JUMPDEST SWAP1 POP SWAP2 SWAP1 POP JUMP JUMPDEST PUSH32 0x4F6E6C79206465706C6F7965722063616E207365742074686520527573742063 PUSH0 DUP3 ADD MSTORE PUSH32 0x6F6E747261637420616464726573730000000000000000000000000000000000 PUSH1 0x20 DUP3 ADD MSTORE POP JUMP JUMPDEST PUSH0 PUSH2 0x1C2C PUSH1 0x2F DUP4 PUSH2 0x1639 JUMP JUMPDEST SWAP2 POP PUSH2 0x1C37 DUP3 PUSH2 0x1BD2 JUMP JUMPDEST PUSH1 0x40 DUP3 ADD SWAP1 POP SWAP2 SWAP1 POP JUMP JUMPDEST PUSH0 PUSH1 0x20 DUP3 ADD SWAP1 POP DUP2 DUP2 SUB PUSH0 DUP4 ADD MSTORE PUSH2 0x1C59 DUP2 PUSH2 0x1C20 JUMP JUMPDEST SWAP1 POP SWAP2 SWAP1 POP JUMP JUMPDEST PUSH32 0x4F6E6C79206465706C6F7965722063616E2073657420746865206F7264657250 PUSH0 DUP3 ADD MSTORE PUSH32 0x6C6163657250726F787900000000000000000000000000000000000000000000 PUSH1 0x20 DUP3 ADD MSTORE POP JUMP JUMPDEST PUSH0 PUSH2 0x1CBA PUSH1 0x2A DUP4 PUSH2 0x1639 JUMP JUMPDEST SWAP2 POP PUSH2 0x1CC5 DUP3 PUSH2 0x1C60 JUMP JUMPDEST PUSH1 0x40 DUP3 ADD SWAP1 POP SWAP2 SWAP1 POP JUMP JUMPDEST PUSH0 PUSH1 0x20 DUP3 ADD SWAP1 POP DUP2 DUP2 SUB PUSH0 DUP4 ADD MSTORE PUSH2 0x1CE7 DUP2 PUSH2 0x1CAE JUMP JUMPDEST SWAP1 POP SWAP2 SWAP1 POP JUMP JUMPDEST PUSH32 0x4661696C656420746F2063616E63656C20616C6C206C696D6974206F72646572 PUSH0 DUP3 ADD MSTORE PUSH32 0x7300000000000000000000000000000000000000000000000000000000000000 PUSH1 0x20 DUP3 ADD MSTORE POP JUMP JUMPDEST PUSH0 PUSH2 0x1D48 PUSH1 0x21 DUP4 PUSH2 0x1639 JUMP JUMPDEST SWAP2 POP PUSH2 0x1D53 DUP3 PUSH2 0x1CEE JUMP JUMPDEST PUSH1 0x40 DUP3 ADD SWAP1 POP SWAP2 SWAP1 POP JUMP JUMPDEST PUSH0 PUSH1 0x20 DUP3 ADD SWAP1 POP DUP2 DUP2 SUB PUSH0 DUP4 ADD MSTORE PUSH2 0x1D75 DUP2 PUSH2 0x1D3C JUMP JUMPDEST SWAP1 POP SWAP2 SWAP1 POP JUMP INVALID LOG2 PUSH5 0x6970667358 0x22 SLT KECCAK256 LOG4 GT 0x23 MLOAD 0xC1 SMOD CALLCODE 0xE3 DUP3 0xED 0xC CODESIZE SWAP6 0xC0 0xFC SWAP15 ADDRESS ADDRESS SWAP3 SWAP2 0xD7 BLOCKHASH SWAP3 PUSH11 0xD393D656D9BD0D4564736F PUSH13 0x63430008190033000000000000 "
		},
		"gasEstimates": {
			"creation": {
				"codeDepositCost": "1520400",
				"executionCost": "infinite",
				"totalCost": "infinite"
			},
			"external": {
				"cancelAllLimitOrders()": "infinite",
				"cancelLimitOrder(uint256)": "infinite",
				"deployer()": "2553",
				"eid()": "2540",
				"orderPlacerProxy()": "infinite",
				"placeLimitOrder(uint256,address,address,uint256,uint256)": "infinite",
				"placeLimitOrder2(uint256,address,address,uint256,uint256,bytes)": "infinite",
				"placeLimitOrder3(uint256,address,address,uint256,uint256)": "infinite",
				"placeMarketOrder(uint256,address,address,uint256)": "infinite",
				"retrieveLimitOrder(uint256)": "infinite",
				"rustContractAddress()": "2506",
				"setOrderPlacerProxy(address)": "26928",
				"setRustContractAddress(address)": "26951"
			}
		},
		"methodIdentifiers": {
			"cancelAllLimitOrders()": "fde89598",
			"cancelLimitOrder(uint256)": "a5cdc8fc",
			"deployer()": "d5f39488",
			"eid()": "416ecebf",
			"orderPlacerProxy()": "ffd16ae1",
			"placeLimitOrder(uint256,address,address,uint256,uint256)": "8304b8f4",
			"placeLimitOrder2(uint256,address,address,uint256,uint256,bytes)": "8ee4c2bf",
			"placeLimitOrder3(uint256,address,address,uint256,uint256)": "e51f25c8",
			"placeMarketOrder(uint256,address,address,uint256)": "732c2c64",
			"retrieveLimitOrder(uint256)": "648ea063",
			"rustContractAddress()": "06ef0339",
			"setOrderPlacerProxy(address)": "e9c379d2",
			"setRustContractAddress(address)": "e4cf4c66"
		}
	},
	"abi": [
		{
			"inputs": [
				{
					"internalType": "address",
					"name": "_orderPlacerProxy",
					"type": "address"
				}
			],
			"stateMutability": "nonpayable",
			"type": "constructor"
		},
		{
			"anonymous": false,
			"inputs": [
				{
					"indexed": true,
					"internalType": "address",
					"name": "user",
					"type": "address"
				}
			],
			"name": "AllOrdersCanceled",
			"type": "event"
		},
		{
			"anonymous": false,
			"inputs": [
				{
					"indexed": false,
					"internalType": "uint256",
					"name": "orderId",
					"type": "uint256"
				},
				{
					"indexed": true,
					"internalType": "address",
					"name": "user",
					"type": "address"
				}
			],
			"name": "OrderCanceled",
			"type": "event"
		},
		{
			"anonymous": false,
			"inputs": [
				{
					"indexed": false,
					"internalType": "uint256",
					"name": "buyOrderId",
					"type": "uint256"
				},
				{
					"indexed": false,
					"internalType": "uint256",
					"name": "sellOrderId",
					"type": "uint256"
				},
				{
					"indexed": true,
					"internalType": "address",
					"name": "buyer",
					"type": "address"
				},
				{
					"indexed": true,
					"internalType": "address",
					"name": "seller",
					"type": "address"
				},
				{
					"indexed": false,
					"internalType": "uint256",
					"name": "amount",
					"type": "uint256"
				},
				{
					"indexed": false,
					"internalType": "uint256",
					"name": "price",
					"type": "uint256"
				}
			],
			"name": "OrderMatched",
			"type": "event"
		},
		{
			"anonymous": false,
			"inputs": [
				{
					"indexed": false,
					"internalType": "uint256",
					"name": "orderId",
					"type": "uint256"
				},
				{
					"indexed": true,
					"internalType": "address",
					"name": "user",
					"type": "address"
				},
				{
					"indexed": false,
					"internalType": "uint256",
					"name": "orderType",
					"type": "uint256"
				},
				{
					"indexed": false,
					"internalType": "address",
					"name": "token0",
					"type": "address"
				},
				{
					"indexed": false,
					"internalType": "address",
					"name": "token1",
					"type": "address"
				},
				{
					"indexed": false,
					"internalType": "uint256",
					"name": "amount",
					"type": "uint256"
				},
				{
					"indexed": false,
					"internalType": "uint256",
					"name": "price",
					"type": "uint256"
				}
			],
			"name": "OrderPlaced",
			"type": "event"
		},
		{
			"inputs": [],
			"name": "cancelAllLimitOrders",
			"outputs": [],
			"stateMutability": "nonpayable",
			"type": "function"
		},
		{
			"inputs": [
				{
					"internalType": "uint256",
					"name": "orderId",
					"type": "uint256"
				}
			],
			"name": "cancelLimitOrder",
			"outputs": [],
			"stateMutability": "nonpayable",
			"type": "function"
		},
		{
			"inputs": [],
			"name": "deployer",
			"outputs": [
				{
					"internalType": "address",
					"name": "",
					"type": "address"
				}
			],
			"stateMutability": "view",
			"type": "function"
		},
		{
			"inputs": [],
			"name": "eid",
			"outputs": [
				{
					"internalType": "uint32",
					"name": "",
					"type": "uint32"
				}
			],
			"stateMutability": "view",
			"type": "function"
		},
		{
			"inputs": [],
			"name": "orderPlacerProxy",
			"outputs": [
				{
					"internalType": "contract OrderPlacerProxy",
					"name": "",
					"type": "address"
				}
			],
			"stateMutability": "view",
			"type": "function"
		},
		{
			"inputs": [
				{
					"internalType": "uint256",
					"name": "orderType",
					"type": "uint256"
				},
				{
					"internalType": "address",
					"name": "token0",
					"type": "address"
				},
				{
					"internalType": "address",
					"name": "token1",
					"type": "address"
				},
				{
					"internalType": "uint256",
					"name": "amount",
					"type": "uint256"
				},
				{
					"internalType": "uint256",
					"name": "price",
					"type": "uint256"
				}
			],
			"name": "placeLimitOrder",
			"outputs": [
				{
					"components": [
						{
							"internalType": "uint256",
							"name": "orderId",
							"type": "uint256"
						},
						{
							"internalType": "address",
							"name": "user",
							"type": "address"
						},
						{
							"internalType": "address",
							"name": "other_users",
							"type": "address"
						},
						{
							"internalType": "int256",
							"name": "amount_token0_delta_user",
							"type": "int256"
						},
						{
							"internalType": "int256",
							"name": "amount_token1_delta_user",
							"type": "int256"
						},
						{
							"internalType": "int256",
							"name": "amount_token0_delta_other_users",
							"type": "int256"
						},
						{
							"internalType": "int256",
							"name": "amount_token1_delta_other_users",
							"type": "int256"
						}
					],
					"internalType": "struct IOrderMatcher.OrderResponse",
					"name": "",
					"type": "tuple"
				}
			],
			"stateMutability": "payable",
			"type": "function"
		},
		{
			"inputs": [
				{
					"internalType": "uint256",
					"name": "orderType",
					"type": "uint256"
				},
				{
					"internalType": "address",
					"name": "token0",
					"type": "address"
				},
				{
					"internalType": "address",
					"name": "token1",
					"type": "address"
				},
				{
					"internalType": "uint256",
					"name": "amount",
					"type": "uint256"
				},
				{
					"internalType": "uint256",
					"name": "price",
					"type": "uint256"
				},
				{
					"internalType": "bytes",
					"name": "_orders",
					"type": "bytes"
				}
			],
			"name": "placeLimitOrder2",
			"outputs": [],
			"stateMutability": "payable",
			"type": "function"
		},
		{
			"inputs": [
				{
					"internalType": "uint256",
					"name": "orderType",
					"type": "uint256"
				},
				{
					"internalType": "address",
					"name": "token0",
					"type": "address"
				},
				{
					"internalType": "address",
					"name": "token1",
					"type": "address"
				},
				{
					"internalType": "uint256",
					"name": "amount",
					"type": "uint256"
				},
				{
					"internalType": "uint256",
					"name": "price",
					"type": "uint256"
				}
			],
			"name": "placeLimitOrder3",
			"outputs": [],
			"stateMutability": "payable",
			"type": "function"
		},
		{
			"inputs": [
				{
					"internalType": "uint256",
					"name": "orderType",
					"type": "uint256"
				},
				{
					"internalType": "address",
					"name": "token0",
					"type": "address"
				},
				{
					"internalType": "address",
					"name": "token1",
					"type": "address"
				},
				{
					"internalType": "uint256",
					"name": "amount",
					"type": "uint256"
				}
			],
			"name": "placeMarketOrder",
			"outputs": [],
			"stateMutability": "nonpayable",
			"type": "function"
		},
		{
			"inputs": [
				{
					"internalType": "uint256",
					"name": "index",
					"type": "uint256"
				}
			],
			"name": "retrieveLimitOrder",
			"outputs": [
				{
					"components": [
						{
							"internalType": "uint256",
							"name": "id",
							"type": "uint256"
						},
						{
							"internalType": "address",
							"name": "user",
							"type": "address"
						},
						{
							"internalType": "uint256",
							"name": "orderType",
							"type": "uint256"
						},
						{
							"internalType": "address",
							"name": "token0",
							"type": "address"
						},
						{
							"internalType": "address",
							"name": "token1",
							"type": "address"
						},
						{
							"internalType": "uint256",
							"name": "amount",
							"type": "uint256"
						},
						{
							"internalType": "uint256",
							"name": "price",
							"type": "uint256"
						},
						{
							"internalType": "bool",
							"name": "isFilled",
							"type": "bool"
						},
						{
							"internalType": "bool",
							"name": "isCanceled",
							"type": "bool"
						}
					],
					"internalType": "struct IOrderMatcher.Order",
					"name": "",
					"type": "tuple"
				}
			],
			"stateMutability": "view",
			"type": "function"
		},
		{
			"inputs": [],
			"name": "rustContractAddress",
			"outputs": [
				{
					"internalType": "address",
					"name": "",
					"type": "address"
				}
			],
			"stateMutability": "view",
			"type": "function"
		},
		{
			"inputs": [
				{
					"internalType": "address",
					"name": "_orderPlacerProxy",
					"type": "address"
				}
			],
			"name": "setOrderPlacerProxy",
			"outputs": [],
			"stateMutability": "nonpayable",
			"type": "function"
		},
		{
			"inputs": [
				{
					"internalType": "address",
					"name": "_rustContractAddress",
					"type": "address"
				}
			],
			"name": "setRustContractAddress",
			"outputs": [],
			"stateMutability": "nonpayable",
			"type": "function"
		}
	]
}