{
	"data": {
		"bytecode": {
			"linkReferences": {},
			"object": "60c060405234801561000f575f80fd5b5060405161603238038061603283398181016040528101906100319190610809565b8484848483836100456102b760201b60201c565b8484818181818e5f73ffffffffffffffffffffffffffffffffffffffff168173ffffffffffffffffffffffffffffffffffffffff16036100bc575f6040517f1e4fbdf70000000000000000000000000000000000000000000000000000000081526004016100b391906108c7565b60405180910390fd5b6100cb816102bf60201b60201c565b508173ffffffffffffffffffffffffffffffffffffffff1660808173ffffffffffffffffffffffffffffffffffffffff16815250505f73ffffffffffffffffffffffffffffffffffffffff168173ffffffffffffffffffffffffffffffffffffffff1603610165576040517fb586360400000000000000000000000000000000000000000000000000000000815260040160405180910390fd5b60805173ffffffffffffffffffffffffffffffffffffffff1663ca5eb5e1826040518263ffffffff1660e01b81526004016101a091906108c7565b5f604051808303815f87803b1580156101b7575f80fd5b505af11580156101c9573d5f803e3d5ffd5b50505050505050506101df61038060201b60201c565b60ff168360ff16101561021e576040517f1e9714b000000000000000000000000000000000000000000000000000000000815260040160405180910390fd5b61022c61038060201b60201c565b836102379190610919565b600a6102439190610a85565b60a08181525050505050816008908161025c9190610cd3565b50806009908161026c9190610cd3565b5050505050505061028d3369152d02c7e14af680000061038860201b60201c565b80600a5f6101000a81548163ffffffff021916908363ffffffff1602179055505050505050610e32565b5f6012905090565b5f805f9054906101000a900473ffffffffffffffffffffffffffffffffffffffff169050815f806101000a81548173ffffffffffffffffffffffffffffffffffffffff021916908373ffffffffffffffffffffffffffffffffffffffff1602179055508173ffffffffffffffffffffffffffffffffffffffff168173ffffffffffffffffffffffffffffffffffffffff167f8be0079c531659141344cd1fd0a4f28419497f9722a3daafe3b4186f6b6457e060405160405180910390a35050565b5f6006905090565b5f73ffffffffffffffffffffffffffffffffffffffff168273ffffffffffffffffffffffffffffffffffffffff16036103f8575f6040517fec442f050000000000000000000000000000000000000000000000000000000081526004016103ef91906108c7565b60405180910390fd5b6104095f838361040d60201b60201c565b5050565b5f73ffffffffffffffffffffffffffffffffffffffff168373ffffffffffffffffffffffffffffffffffffffff160361045d578060075f8282546104519190610da2565b9250508190555061052d565b5f60055f8573ffffffffffffffffffffffffffffffffffffffff1673ffffffffffffffffffffffffffffffffffffffff1681526020019081526020015f20549050818110156104e7578381836040517fe450d38c0000000000000000000000000000000000000000000000000000000081526004016104de93929190610de4565b60405180910390fd5b81810360055f8673ffffffffffffffffffffffffffffffffffffffff1673ffffffffffffffffffffffffffffffffffffffff1681526020019081526020015f2081905550505b5f73ffffffffffffffffffffffffffffffffffffffff168273ffffffffffffffffffffffffffffffffffffffff1603610574578060075f82825403925050819055506105bf565b8060055f8473ffffffffffffffffffffffffffffffffffffffff1673ffffffffffffffffffffffffffffffffffffffff1681526020019081526020015f205f82825401925050819055505b8173ffffffffffffffffffffffffffffffffffffffff168373ffffffffffffffffffffffffffffffffffffffff167fddf252ad1be2c89b69c2b068fc378daa952ba7f163c4a11628f55a4df523b3ef8360405161061c9190610e19565b60405180910390a3505050565b5f604051905090565b5f80fd5b5f80fd5b5f80fd5b5f80fd5b5f601f19601f8301169050919050565b7f4e487b71000000000000000000000000000000000000000000000000000000005f52604160045260245ffd5b61068882610642565b810181811067ffffffffffffffff821117156106a7576106a6610652565b5b80604052505050565b5f6106b9610629565b90506106c5828261067f565b919050565b5f67ffffffffffffffff8211156106e4576106e3610652565b5b6106ed82610642565b9050602081019050919050565b8281835e5f83830152505050565b5f61071a610715846106ca565b6106b0565b9050828152602081018484840111156107365761073561063e565b5b6107418482856106fa565b509392505050565b5f82601f83011261075d5761075c61063a565b5b815161076d848260208601610708565b91505092915050565b5f73ffffffffffffffffffffffffffffffffffffffff82169050919050565b5f61079f82610776565b9050919050565b6107af81610795565b81146107b9575f80fd5b50565b5f815190506107ca816107a6565b92915050565b5f63ffffffff82169050919050565b6107e8816107d0565b81146107f2575f80fd5b50565b5f81519050610803816107df565b92915050565b5f805f805f60a0868803121561082257610821610632565b5b5f86015167ffffffffffffffff81111561083f5761083e610636565b5b61084b88828901610749565b955050602086015167ffffffffffffffff81111561086c5761086b610636565b5b61087888828901610749565b9450506040610889888289016107bc565b935050606061089a888289016107bc565b92505060806108ab888289016107f5565b9150509295509295909350565b6108c181610795565b82525050565b5f6020820190506108da5f8301846108b8565b92915050565b5f60ff82169050919050565b7f4e487b71000000000000000000000000000000000000000000000000000000005f52601160045260245ffd5b5f610923826108e0565b915061092e836108e0565b9250828203905060ff811115610947576109466108ec565b5b92915050565b5f8160011c9050919050565b5f808291508390505b60018511156109a25780860481111561097e5761097d6108ec565b5b600185161561098d5780820291505b808102905061099b8561094d565b9450610962565b94509492505050565b5f826109ba5760019050610a75565b816109c7575f9050610a75565b81600181146109dd57600281146109e757610a16565b6001915050610a75565b60ff8411156109f9576109f86108ec565b5b8360020a915084821115610a1057610a0f6108ec565b5b50610a75565b5060208310610133831016604e8410600b8410161715610a4b5782820a905083811115610a4657610a456108ec565b5b610a75565b610a588484846001610959565b92509050818404811115610a6f57610a6e6108ec565b5b81810290505b9392505050565b5f819050919050565b5f610a8f82610a7c565b9150610a9a836108e0565b9250610ac77fffffffffffffffffffffffffffffffffffffffffffffffffffffffffffffffff84846109ab565b905092915050565b5f81519050919050565b7f4e487b71000000000000000000000000000000000000000000000000000000005f52602260045260245ffd5b5f6002820490506001821680610b1d57607f821691505b602082108103610b3057610b2f610ad9565b5b50919050565b5f819050815f5260205f209050919050565b5f6020601f8301049050919050565b5f82821b905092915050565b5f60088302610b927fffffffffffffffffffffffffffffffffffffffffffffffffffffffffffffffff82610b57565b610b9c8683610b57565b95508019841693508086168417925050509392505050565b5f819050919050565b5f610bd7610bd2610bcd84610a7c565b610bb4565b610a7c565b9050919050565b5f819050919050565b610bf083610bbd565b610c04610bfc82610bde565b848454610b63565b825550505050565b5f90565b610c18610c0c565b610c23818484610be7565b505050565b5b81811015610c4657610c3b5f82610c10565b600181019050610c29565b5050565b601f821115610c8b57610c5c81610b36565b610c6584610b48565b81016020851015610c74578190505b610c88610c8085610b48565b830182610c28565b50505b505050565b5f82821c905092915050565b5f610cab5f1984600802610c90565b1980831691505092915050565b5f610cc38383610c9c565b9150826002028217905092915050565b610cdc82610acf565b67ffffffffffffffff811115610cf557610cf4610652565b5b610cff8254610b06565b610d0a828285610c4a565b5f60209050601f831160018114610d3b575f8415610d29578287015190505b610d338582610cb8565b865550610d9a565b601f198416610d4986610b36565b5f5b82811015610d7057848901518255600182019150602085019450602081019050610d4b565b86831015610d8d5784890151610d89601f891682610c9c565b8355505b6001600288020188555050505b505050505050565b5f610dac82610a7c565b9150610db783610a7c565b9250828201905080821115610dcf57610dce6108ec565b5b92915050565b610dde81610a7c565b82525050565b5f606082019050610df75f8301866108b8565b610e046020830185610dd5565b610e116040830184610dd5565b949350505050565b5f602082019050610e2c5f830184610dd5565b92915050565b60805160a051615192610ea05f395f81816111030152818161261301528181612634015281816126d801526129d901525f8181610bfb01528181610f3e015281816117a301528181611c0e015281816120c70152818161233101528181612b470152612c3f01526151925ff3fe608060405260043610610266575f3560e01c80637d25a05e11610143578063bc70b354116100b5578063d424388511610079578063d424388514610923578063dd62ed3e1461094b578063ef6506db14610987578063f2fde38b146109a3578063fc0c546a146109cb578063ff7bd03d146109f557610266565b8063bc70b35414610856578063bd815db014610892578063c7c7f5b3146108ae578063ca5eb5e1146108df578063d045a0dc1461090757610266565b80639f68b964116101075780639f68b96414610738578063a9059cbb14610762578063b731ea0a1461079e578063b92d0eff146107c8578063b98bd070146107f2578063bb0b6a531461081a57610266565b80637d25a05e14610654578063857749b0146106905780638da5cb5b146106ba57806395d89b41146106e4578063963efcaa1461070e57610266565b8063313ce567116101dc5780635535d461116101a05780635535d461146105385780635a0dfe4d146105745780635e280f11146105b05780636fc1b31e146105da57806370a0823114610602578063715018a61461063e57610266565b8063313ce567146104645780633400288b1461048e5780633b6f743b146104b657806352ae2879146104f257806354f524141461051c57610266565b8063134d4f251161022e578063134d4f2514610354578063156a0d0f1461037e57806317442b70146103a957806318160ddd146103d45780631f5e1334146103fe57806323b872dd1461042857610266565b806306fdde031461026a578063095ea7b3146102945780630d35b415146102d0578063111ecdad1461030e57806313137d6514610338575b5f80fd5b348015610275575f80fd5b5061027e610a31565b60405161028b91906130f3565b60405180910390f35b34801561029f575f80fd5b506102ba60048036038101906102b591906131b1565b610ac1565b6040516102c79190613209565b60405180910390f35b3480156102db575f80fd5b506102f660048036038101906102f19190613244565b610ae3565b60405161030593929190613449565b60405180910390f35b348015610319575f80fd5b50610322610bbd565b60405161032f9190613494565b60405180910390f35b610352600480360381019061034d919061355f565b610be2565b005b34801561035f575f80fd5b50610368610d02565b6040516103759190613632565b60405180910390f35b348015610389575f80fd5b50610392610d07565b6040516103a09291906136a7565b60405180910390f35b3480156103b4575f80fd5b506103bd610d34565b6040516103cb9291906136ce565b60405180910390f35b3480156103df575f80fd5b506103e8610d41565b6040516103f59190613704565b60405180910390f35b348015610409575f80fd5b50610412610d4a565b60405161041f9190613632565b60405180910390f35b348015610433575f80fd5b5061044e6004803603810190610449919061371d565b610d4f565b60405161045b9190613209565b60405180910390f35b34801561046f575f80fd5b50610478610d7d565b6040516104859190613788565b60405180910390f35b348015610499575f80fd5b506104b460048036038101906104af91906137da565b610d85565b005b3480156104c1575f80fd5b506104dc60048036038101906104d79190613842565b610dec565b6040516104e991906138c9565b60405180910390f35b3480156104fd575f80fd5b50610506610e54565b6040516105139190613494565b60405180910390f35b610536600480360381019061053191906138e2565b610e5b565b005b348015610543575f80fd5b5061055e6004803603810190610559919061395c565b610e6d565b60405161056b91906139ec565b60405180910390f35b34801561057f575f80fd5b5061059a600480360381019061059591906137da565b610f13565b6040516105a79190613209565b60405180910390f35b3480156105bb575f80fd5b506105c4610f3c565b6040516105d19190613a67565b60405180910390f35b3480156105e5575f80fd5b5061060060048036038101906105fb9190613a80565b610f60565b005b34801561060d575f80fd5b5061062860048036038101906106239190613a80565b610fe2565b6040516106359190613704565b60405180910390f35b348015610649575f80fd5b50610652611028565b005b34801561065f575f80fd5b5061067a600480360381019061067591906137da565b61103b565b6040516106879190613aab565b60405180910390f35b34801561069b575f80fd5b506106a4611042565b6040516106b19190613788565b60405180910390f35b3480156106c5575f80fd5b506106ce61104a565b6040516106db9190613494565b60405180910390f35b3480156106ef575f80fd5b506106f8611071565b60405161070591906130f3565b60405180910390f35b348015610719575f80fd5b50610722611101565b60405161072f9190613704565b60405180910390f35b348015610743575f80fd5b5061074c611125565b6040516107599190613209565b60405180910390f35b34801561076d575f80fd5b50610788600480360381019061078391906131b1565b611129565b6040516107959190613209565b60405180910390f35b3480156107a9575f80fd5b506107b261114b565b6040516107bf9190613494565b60405180910390f35b3480156107d3575f80fd5b506107dc611170565b6040516107e99190613494565b60405180910390f35b3480156107fd575f80fd5b5061081860048036038101906108139190613b19565b611177565b005b348015610825575f80fd5b50610840600480360381019061083b9190613b64565b6112f4565b60405161084d9190613b9e565b60405180910390f35b348015610861575f80fd5b5061087c60048036038101906108779190613bb7565b611309565b60405161088991906139ec565b60405180910390f35b6108ac60048036038101906108a79190613c7d565b6114c9565b005b6108c860048036038101906108c39190613ce6565b611695565b6040516108d6929190613ddd565b60405180910390f35b3480156108ea575f80fd5b5061090560048036038101906109009190613a80565b611799565b005b610921600480360381019061091c919061355f565b61182a565b005b34801561092e575f80fd5b5061094960048036038101906109449190613a80565b6118a7565b005b348015610956575f80fd5b50610971600480360381019061096c9190613e04565b611929565b60405161097e9190613704565b60405180910390f35b6109a1600480360381019061099c91906131b1565b6119ab565b005b3480156109ae575f80fd5b506109c960048036038101906109c49190613a80565b6119cc565b005b3480156109d6575f80fd5b506109df611a50565b6040516109ec9190613494565b60405180910390f35b348015610a00575f80fd5b50610a1b6004803603810190610a169190613e42565b611a57565b604051610a289190613209565b60405180910390f35b606060088054610a4090613e9a565b80601f0160208091040260200160405190810160405280929190818152602001828054610a6c90613e9a565b8015610ab75780601f10610a8e57610100808354040283529160200191610ab7565b820191905f5260205f20905b815481529060010190602001808311610a9a57829003601f168201915b5050505050905090565b5f80610acb611a94565b9050610ad8818585611a9b565b600191505092915050565b610aeb612ff0565b6060610af5613008565b5f8067ffffffffffffffff8016905060405180604001604052808381526020018281525094505f67ffffffffffffffff811115610b3557610b34613eca565b5b604051908082528060200260200182016040528015610b6e57816020015b610b5b613020565b815260200190600190039081610b535790505b5093505f80610b97886040013589606001358a5f016020810190610b929190613b64565b611aad565b915091506040518060400160405280838152602001828152509450505050509193909250565b60045f9054906101000a900473ffffffffffffffffffffffffffffffffffffffff1681565b3373ffffffffffffffffffffffffffffffffffffffff167f000000000000000000000000000000000000000000000000000000000000000073ffffffffffffffffffffffffffffffffffffffff1614610c7257336040517f91ac5e4f000000000000000000000000000000000000000000000000000000008152600401610c699190613494565b60405180910390fd5b8660200135610c91885f016020810190610c8c9190613b64565b611b0c565b14610cea57865f016020810190610ca89190613b64565b87602001356040517fc26bebcc000000000000000000000000000000000000000000000000000000008152600401610ce1929190613f06565b60405180910390fd5b610cf987878787878787611b7d565b50505050505050565b600281565b5f807f02e49c2c000000000000000000000000000000000000000000000000000000006001915091509091565b5f80600180915091509091565b5f600754905090565b600181565b5f80610d59611a94565b9050610d66858285611d07565b610d71858585611d99565b60019150509392505050565b5f6012905090565b610d8d611e89565b8060015f8463ffffffff1663ffffffff1681526020019081526020015f20819055507f238399d427b947898edb290f5ff0f9109849b1c3ba196a42e35f00c50a54b98b8282604051610de0929190613f06565b60405180910390a15050565b610df4613039565b5f610e1984604001358560600135865f016020810190610e149190613b64565b611aad565b9150505f80610e288684611f10565b91509150610e49865f016020810190610e419190613b64565b8383886120bd565b935050505092915050565b5f30905090565b610e6683838361219e565b5050505050565b6003602052815f5260405f20602052805f5260405f205f91509150508054610e9490613e9a565b80601f0160208091040260200160405190810160405280929190818152602001828054610ec090613e9a565b8015610f0b5780601f10610ee257610100808354040283529160200191610f0b565b820191905f5260205f20905b815481529060010190602001808311610eee57829003601f168201915b505050505081565b5f8160015f8563ffffffff1663ffffffff1681526020019081526020015f205414905092915050565b7f000000000000000000000000000000000000000000000000000000000000000081565b610f68611e89565b8060045f6101000a81548173ffffffffffffffffffffffffffffffffffffffff021916908373ffffffffffffffffffffffffffffffffffffffff1602179055507ff0be4f1e87349231d80c36b33f9e8639658eeaf474014dee15a3e6a4d441419781604051610fd79190613494565b60405180910390a150565b5f60055f8373ffffffffffffffffffffffffffffffffffffffff1673ffffffffffffffffffffffffffffffffffffffff1681526020019081526020015f20549050919050565b611030611e89565b6110395f6121c5565b565b5f92915050565b5f6006905090565b5f805f9054906101000a900473ffffffffffffffffffffffffffffffffffffffff16905090565b60606009805461108090613e9a565b80601f01602080910402602001604051908101604052809291908181526020018280546110ac90613e9a565b80156110f75780601f106110ce576101008083540402835291602001916110f7565b820191905f5260205f20905b8154815290600101906020018083116110da57829003601f168201915b5050505050905090565b7f000000000000000000000000000000000000000000000000000000000000000081565b5f90565b5f80611133611a94565b9050611140818585611d99565b600191505092915050565b60025f9054906101000a900473ffffffffffffffffffffffffffffffffffffffff1681565b5f30905090565b61117f611e89565b5f5b828290508110156112b6576111c88383838181106111a2576111a1613f2d565b5b90506020028101906111b49190613f66565b80604001906111c39190613f8d565b612286565b8282828181106111db576111da613f2d565b5b90506020028101906111ed9190613f66565b80604001906111fc9190613f8d565b60035f86868681811061121257611211613f2d565b5b90506020028101906112249190613f66565b5f0160208101906112359190613b64565b63ffffffff1663ffffffff1681526020019081526020015f205f86868681811061126257611261613f2d565b5b90506020028101906112749190613f66565b60200160208101906112869190613fef565b61ffff1661ffff1681526020019081526020015f2091826112a89291906141b8565b508080600101915050611181565b507fbe4864a8e820971c0247f5992e2da559595f7bf076a21cb5928d443d2a13b67482826040516112e89291906144bf565b60405180910390a15050565b6001602052805f5260405f205f915090505481565b60605f60035f8763ffffffff1663ffffffff1681526020019081526020015f205f8661ffff1661ffff1681526020019081526020015f20805461134b90613e9a565b80601f016020809104026020016040519081016040528092919081815260200182805461137790613e9a565b80156113c25780601f10611399576101008083540402835291602001916113c2565b820191905f5260205f20905b8154815290600101906020018083116113a557829003601f168201915b505050505090505f81510361141d5783838080601f0160208091040260200160405190810160405280939291908181526020018383808284375f81840152601f19601f820116905080830192505050505050509150506114c1565b5f848490500361143057809150506114c1565b60028484905010611482576114458484612286565b8084846002908092611459939291906144e9565b60405160200161146b93929190614581565b6040516020818303038152906040529150506114c1565b83836040517f9a6d49cd0000000000000000000000000000000000000000000000000000000081526004016114b89291906145d2565b60405180910390fd5b949350505050565b5f5b828290508110156115e857368383838181106114ea576114e9613f2d565b5b90506020028101906114fc91906145f4565b9050611521815f015f0160208101906115159190613b64565b825f0160200135610f13565b61152b57506115db565b3073ffffffffffffffffffffffffffffffffffffffff1663d045a0dc8260c00135835f018460a00135858061010001906115659190613f8d565b8760e00160208101906115789190613a80565b888061012001906115899190613f8d565b6040518963ffffffff1660e01b81526004016115ab97969594939291906146ca565b5f604051808303818588803b1580156115c2575f80fd5b505af11580156115d4573d5f803e3d5ffd5b5050505050505b80806001019150506114cb565b503373ffffffffffffffffffffffffffffffffffffffff16638e9e70996040518163ffffffff1660e01b81526004015f60405180830381865afa158015611631573d5f803e3d5ffd5b505050506040513d5f823e3d601f19601f82011682018060405250810190611659919061481a565b6040517f8351eea700000000000000000000000000000000000000000000000000000000815260040161168c91906139ec565b60405180910390fd5b61169d613051565b6116a5613008565b5f806116cb87604001358860600135895f0160208101906116c69190613b64565b61219e565b915091505f806116db8984611f10565b9150915061170d895f0160208101906116f49190613b64565b83838b80360381019061170791906148b2565b8b6122fe565b955060405180604001604052808581526020018481525094503373ffffffffffffffffffffffffffffffffffffffff16865f01517f85496b760a4b7f8d66384b9df21b381f5d1b1e79f229a47aaf4c232edc2fe59a8b5f0160208101906117749190613b64565b8787604051611785939291906148dd565b60405180910390a350505050935093915050565b6117a1611e89565b7f000000000000000000000000000000000000000000000000000000000000000073ffffffffffffffffffffffffffffffffffffffff1663ca5eb5e1826040518263ffffffff1660e01b81526004016117fa9190613494565b5f604051808303815f87803b158015611811575f80fd5b505af1158015611823573d5f803e3d5ffd5b5050505050565b3073ffffffffffffffffffffffffffffffffffffffff163373ffffffffffffffffffffffffffffffffffffffff161461188f576040517f14d4a4e800000000000000000000000000000000000000000000000000000000815260040160405180910390fd5b61189e87878787878787612414565b50505050505050565b6118af611e89565b8060025f6101000a81548173ffffffffffffffffffffffffffffffffffffffff021916908373ffffffffffffffffffffffffffffffffffffffff1602179055507fd48d879cef83a1c0bdda516f27b13ddb1b3f8bbac1c9e1511bb2a659c24277608160405161191e9190613494565b60405180910390a150565b5f60065f8473ffffffffffffffffffffffffffffffffffffffff1673ffffffffffffffffffffffffffffffffffffffff1681526020019081526020015f205f8373ffffffffffffffffffffffffffffffffffffffff1673ffffffffffffffffffffffffffffffffffffffff1681526020019081526020015f2054905092915050565b6119c78282600a5f9054906101000a900463ffffffff1661242c565b505050565b6119d4611e89565b5f73ffffffffffffffffffffffffffffffffffffffff168173ffffffffffffffffffffffffffffffffffffffff1603611a44575f6040517f1e4fbdf7000000000000000000000000000000000000000000000000000000008152600401611a3b9190613494565b60405180910390fd5b611a4d816121c5565b50565b5f30905090565b5f816020013560015f845f016020810190611a729190613b64565b63ffffffff1663ffffffff1681526020019081526020015f2054149050919050565b5f33905090565b611aa88383836001612441565b505050565b5f80611ab885612610565b915081905083811015611b045780846040517f71c4efed000000000000000000000000000000000000000000000000000000008152600401611afb929190614912565b60405180910390fd5b935093915050565b5f8060015f8463ffffffff1663ffffffff1681526020019081526020015f205490505f801b8103611b7457826040517ff6ff4fb7000000000000000000000000000000000000000000000000000000008152600401611b6b9190614939565b60405180910390fd5b80915050919050565b5f611b90611b8b878761266f565b612699565b90505f611bc082611ba9611ba48a8a6126a4565b6126d5565b8b5f016020810190611bbb9190613b64565b61242c565b9050611bcc8787612713565b15611c9a575f611c0a8a6040016020810190611be89190614952565b8b5f016020810190611bfa9190613b64565b84611c058c8c612726565b612788565b90507f000000000000000000000000000000000000000000000000000000000000000073ffffffffffffffffffffffffffffffffffffffff16637cb59012848b5f856040518563ffffffff1660e01b8152600401611c6b94939291906149b6565b5f604051808303815f87803b158015611c82575f80fd5b505af1158015611c94573d5f803e3d5ffd5b50505050505b8173ffffffffffffffffffffffffffffffffffffffff16887fefed6d3500546b29533b128a29e3a94d70788727f0507505ac12eaf2e578fd9c8b5f016020810190611ce59190613b64565b84604051611cf4929190614a00565b60405180910390a3505050505050505050565b5f611d128484611929565b90507fffffffffffffffffffffffffffffffffffffffffffffffffffffffffffffffff8114611d935781811015611d84578281836040517ffb8f41b2000000000000000000000000000000000000000000000000000000008152600401611d7b93929190614a27565b60405180910390fd5b611d9284848484035f612441565b5b50505050565b5f73ffffffffffffffffffffffffffffffffffffffff168373ffffffffffffffffffffffffffffffffffffffff1603611e09575f6040517f96c6fd1e000000000000000000000000000000000000000000000000000000008152600401611e009190613494565b60405180910390fd5b5f73ffffffffffffffffffffffffffffffffffffffff168273ffffffffffffffffffffffffffffffffffffffff1603611e79575f6040517fec442f05000000000000000000000000000000000000000000000000000000008152600401611e709190613494565b60405180910390fd5b611e848383836127ba565b505050565b611e91611a94565b73ffffffffffffffffffffffffffffffffffffffff16611eaf61104a565b73ffffffffffffffffffffffffffffffffffffffff1614611f0e57611ed2611a94565b6040517f118cdaa7000000000000000000000000000000000000000000000000000000008152600401611f059190613494565b60405180910390fd5b565b6060805f611f7c8560200135611f25866129d6565b878060a00190611f359190613f8d565b8080601f0160208091040260200160405190810160405280939291908181526020018383808284375f81840152601f19601f82011690508083019250505050505050612a0a565b80925081945050505f81611f91576001611f94565b60025b9050611fc1865f016020810190611fab9190613b64565b82888060800190611fbc9190613f8d565b611309565b92505f73ffffffffffffffffffffffffffffffffffffffff1660045f9054906101000a900473ffffffffffffffffffffffffffffffffffffffff1673ffffffffffffffffffffffffffffffffffffffff16146120b45760045f9054906101000a900473ffffffffffffffffffffffffffffffffffffffff1673ffffffffffffffffffffffffffffffffffffffff1663043a78eb85856040518363ffffffff1660e01b8152600401612073929190614a5c565b602060405180830381865afa15801561208e573d5f803e3d5ffd5b505050506040513d601f19601f820116820180604052508101906120b29190614aa5565b505b50509250929050565b6120c5613039565b7f000000000000000000000000000000000000000000000000000000000000000073ffffffffffffffffffffffffffffffffffffffff1663ddc28c586040518060a001604052808863ffffffff16815260200161212189611b0c565b8152602001878152602001868152602001851515815250306040518363ffffffff1660e01b8152600401612156929190614b91565b6040805180830381865afa158015612170573d5f803e3d5ffd5b505050506040513d601f19601f820116820180604052508101906121949190614c20565b9050949350505050565b5f806121ab858585611aad565b80925081935050506121bd3383612a78565b935093915050565b5f805f9054906101000a900473ffffffffffffffffffffffffffffffffffffffff169050815f806101000a81548173ffffffffffffffffffffffffffffffffffffffff021916908373ffffffffffffffffffffffffffffffffffffffff1602179055508173ffffffffffffffffffffffffffffffffffffffff168173ffffffffffffffffffffffffffffffffffffffff167f8be0079c531659141344cd1fd0a4f28419497f9722a3daafe3b4186f6b6457e060405160405180910390a35050565b5f82825f9060029261229a939291906144e9565b906122a59190614c76565b60f01c9050600361ffff168161ffff16146122f95782826040517f9a6d49cd0000000000000000000000000000000000000000000000000000000081526004016122f09291906145d2565b60405180910390fd5b505050565b612306613051565b5f612313845f0151612af7565b90505f8460200151111561232f5761232e8460200151612b44565b5b7f000000000000000000000000000000000000000000000000000000000000000073ffffffffffffffffffffffffffffffffffffffff16632637a450826040518060a001604052808b63ffffffff16815260200161238c8c611b0c565b81526020018a81526020018981526020015f8960200151111515815250866040518463ffffffff1660e01b81526004016123c7929190614b91565b60806040518083038185885af11580156123e3573d5f803e3d5ffd5b50505050506040513d601f19601f820116820180604052508101906124089190614d5d565b91505095945050505050565b61242387878787878787611b7d565b50505050505050565b5f6124378484612c8a565b8290509392505050565b5f73ffffffffffffffffffffffffffffffffffffffff168473ffffffffffffffffffffffffffffffffffffffff16036124b1575f6040517fe602df050000000000000000000000000000000000000000000000000000000081526004016124a89190613494565b60405180910390fd5b5f73ffffffffffffffffffffffffffffffffffffffff168373ffffffffffffffffffffffffffffffffffffffff1603612521575f6040517f94280d620000000000000000000000000000000000000000000000000000000081526004016125189190613494565b60405180910390fd5b8160065f8673ffffffffffffffffffffffffffffffffffffffff1673ffffffffffffffffffffffffffffffffffffffff1681526020019081526020015f205f8573ffffffffffffffffffffffffffffffffffffffff1673ffffffffffffffffffffffffffffffffffffffff1681526020019081526020015f2081905550801561260a578273ffffffffffffffffffffffffffffffffffffffff168473ffffffffffffffffffffffffffffffffffffffff167f8c5be1e5ebec7d5bd14f71427d1e84f3dd0314c0f7b2291e5b200ac8c7c3b925846040516126019190613704565b60405180910390a35b50505050565b5f7f00000000000000000000000000000000000000000000000000000000000000007f00000000000000000000000000000000000000000000000000000000000000008361265e9190614de2565b6126689190614e12565b9050919050565b5f82825f90602060ff1692612686939291906144e9565b906126919190614e53565b905092915050565b5f815f1c9050919050565b5f8282602060ff1690602860ff16926126bf939291906144e9565b906126ca9190614edc565b60c01c905092915050565b5f7f00000000000000000000000000000000000000000000000000000000000000008267ffffffffffffffff1661270c9190614e12565b9050919050565b5f602860ff168383905011905092915050565b60608282602860ff1690809261273e939291906144e9565b8080601f0160208091040260200160405190810160405280939291908181526020018383808284375f81840152601f19601f82011690508083019250505050505050905092915050565b6060848484846040516020016127a19493929190614fc2565b6040516020818303038152906040529050949350505050565b5f73ffffffffffffffffffffffffffffffffffffffff168373ffffffffffffffffffffffffffffffffffffffff160361280a578060075f8282546127fe919061500b565b925050819055506128da565b5f60055f8573ffffffffffffffffffffffffffffffffffffffff1673ffffffffffffffffffffffffffffffffffffffff1681526020019081526020015f2054905081811015612894578381836040517fe450d38c00000000000000000000000000000000000000000000000000000000815260040161288b93929190614a27565b60405180910390fd5b81810360055f8673ffffffffffffffffffffffffffffffffffffffff1673ffffffffffffffffffffffffffffffffffffffff1681526020019081526020015f2081905550505b5f73ffffffffffffffffffffffffffffffffffffffff168273ffffffffffffffffffffffffffffffffffffffff1603612921578060075f828254039250508190555061296c565b8060055f8473ffffffffffffffffffffffffffffffffffffffff1673ffffffffffffffffffffffffffffffffffffffff1681526020019081526020015f205f82825401925050819055505b8173ffffffffffffffffffffffffffffffffffffffff168373ffffffffffffffffffffffffffffffffffffffff167fddf252ad1be2c89b69c2b068fc378daa952ba7f163c4a11628f55a4df523b3ef836040516129c99190613704565b60405180910390a3505050565b5f7f000000000000000000000000000000000000000000000000000000000000000082612a039190614de2565b9050919050565b60605f80835111905080612a3f578484604051602001612a2b92919061505e565b604051602081830303815290604052612a6e565b8484612a4a33612d09565b85604051602001612a5e9493929190615089565b6040516020818303038152906040525b9150935093915050565b5f73ffffffffffffffffffffffffffffffffffffffff168273ffffffffffffffffffffffffffffffffffffffff1603612ae8575f6040517f96c6fd1e000000000000000000000000000000000000000000000000000000008152600401612adf9190613494565b60405180910390fd5b612af3825f836127ba565b5050565b5f813414612b3c57346040517f9f704120000000000000000000000000000000000000000000000000000000008152600401612b339190613704565b60405180910390fd5b819050919050565b5f7f000000000000000000000000000000000000000000000000000000000000000073ffffffffffffffffffffffffffffffffffffffff1663e4fe1d946040518163ffffffff1660e01b8152600401602060405180830381865afa158015612bae573d5f803e3d5ffd5b505050506040513d601f19601f82011682018060405250810190612bd291906150e6565b90505f73ffffffffffffffffffffffffffffffffffffffff168173ffffffffffffffffffffffffffffffffffffffff1603612c39576040517f5373352a00000000000000000000000000000000000000000000000000000000815260040160405180910390fd5b612c86337f0000000000000000000000000000000000000000000000000000000000000000848473ffffffffffffffffffffffffffffffffffffffff16612d2a909392919063ffffffff16565b5050565b5f73ffffffffffffffffffffffffffffffffffffffff168273ffffffffffffffffffffffffffffffffffffffff1603612cfa575f6040517fec442f05000000000000000000000000000000000000000000000000000000008152600401612cf19190613494565b60405180910390fd5b612d055f83836127ba565b5050565b5f8173ffffffffffffffffffffffffffffffffffffffff165f1b9050919050565b612da6848573ffffffffffffffffffffffffffffffffffffffff166323b872dd868686604051602401612d5f93929190615111565b604051602081830303815290604052915060e01b6020820180517bffffffffffffffffffffffffffffffffffffffffffffffffffffffff8381831617835250505050612dac565b50505050565b5f612dd6828473ffffffffffffffffffffffffffffffffffffffff16612e4190919063ffffffff16565b90505f815114158015612dfa575080806020019051810190612df89190614aa5565b155b15612e3c57826040517f5274afe7000000000000000000000000000000000000000000000000000000008152600401612e339190613494565b60405180910390fd5b505050565b6060612e4e83835f612e56565b905092915050565b606081471015612e9d57306040517fcd786059000000000000000000000000000000000000000000000000000000008152600401612e949190613494565b60405180910390fd5b5f808573ffffffffffffffffffffffffffffffffffffffff168486604051612ec59190615146565b5f6040518083038185875af1925050503d805f8114612eff576040519150601f19603f3d011682016040523d82523d5f602084013e612f04565b606091505b5091509150612f14868383612f1f565b925050509392505050565b606082612f3457612f2f82612fac565b612fa4565b5f8251148015612f5a57505f8473ffffffffffffffffffffffffffffffffffffffff163b145b15612f9c57836040517f9996b315000000000000000000000000000000000000000000000000000000008152600401612f939190613494565b60405180910390fd5b819050612fa5565b5b9392505050565b5f81511115612fbe5780518082602001fd5b6040517f1425ea4200000000000000000000000000000000000000000000000000000000815260040160405180910390fd5b60405180604001604052805f81526020015f81525090565b60405180604001604052805f81526020015f81525090565b60405180604001604052805f8152602001606081525090565b60405180604001604052805f81526020015f81525090565b60405180606001604052805f80191681526020015f67ffffffffffffffff16815260200161307d613039565b81525090565b5f81519050919050565b5f82825260208201905092915050565b8281835e5f83830152505050565b5f601f19601f8301169050919050565b5f6130c582613083565b6130cf818561308d565b93506130df81856020860161309d565b6130e8816130ab565b840191505092915050565b5f6020820190508181035f83015261310b81846130bb565b905092915050565b5f604051905090565b5f80fd5b5f80fd5b5f73ffffffffffffffffffffffffffffffffffffffff82169050919050565b5f61314d82613124565b9050919050565b61315d81613143565b8114613167575f80fd5b50565b5f8135905061317881613154565b92915050565b5f819050919050565b6131908161317e565b811461319a575f80fd5b50565b5f813590506131ab81613187565b92915050565b5f80604083850312156131c7576131c661311c565b5b5f6131d48582860161316a565b92505060206131e58582860161319d565b9150509250929050565b5f8115159050919050565b613203816131ef565b82525050565b5f60208201905061321c5f8301846131fa565b92915050565b5f80fd5b5f60e0828403121561323b5761323a613222565b5b81905092915050565b5f602082840312156132595761325861311c565b5b5f82013567ffffffffffffffff81111561327657613275613120565b5b61328284828501613226565b91505092915050565b6132948161317e565b82525050565b604082015f8201516132ae5f85018261328b565b5060208201516132c1602085018261328b565b50505050565b5f81519050919050565b5f82825260208201905092915050565b5f819050602082019050919050565b5f819050919050565b613302816132f0565b82525050565b5f82825260208201905092915050565b5f61332282613083565b61332c8185613308565b935061333c81856020860161309d565b613345816130ab565b840191505092915050565b5f604083015f8301516133655f8601826132f9565b506020830151848203602086015261337d8282613318565b9150508091505092915050565b5f6133958383613350565b905092915050565b5f602082019050919050565b5f6133b3826132c7565b6133bd81856132d1565b9350836020820285016133cf856132e1565b805f5b8581101561340a57848403895281516133eb858261338a565b94506133f68361339d565b925060208a019950506001810190506133d2565b50829750879550505050505092915050565b604082015f8201516134305f85018261328b565b506020820151613443602085018261328b565b50505050565b5f60a08201905061345c5f83018661329a565b818103604083015261346e81856133a9565b905061347d606083018461341c565b949350505050565b61348e81613143565b82525050565b5f6020820190506134a75f830184613485565b92915050565b5f606082840312156134c2576134c1613222565b5b81905092915050565b5f819050919050565b6134dd816134cb565b81146134e7575f80fd5b50565b5f813590506134f8816134d4565b92915050565b5f80fd5b5f80fd5b5f80fd5b5f8083601f84011261351f5761351e6134fe565b5b8235905067ffffffffffffffff81111561353c5761353b613502565b5b60208301915083600182028301111561355857613557613506565b5b9250929050565b5f805f805f805f60e0888a03121561357a5761357961311c565b5b5f6135878a828b016134ad565b97505060606135988a828b016134ea565b965050608088013567ffffffffffffffff8111156135b9576135b8613120565b5b6135c58a828b0161350a565b955095505060a06135d88a828b0161316a565b93505060c088013567ffffffffffffffff8111156135f9576135f8613120565b5b6136058a828b0161350a565b925092505092959891949750929550565b5f61ffff82169050919050565b61362c81613616565b82525050565b5f6020820190506136455f830184613623565b92915050565b5f7fffffffff0000000000000000000000000000000000000000000000000000000082169050919050565b61367f8161364b565b82525050565b5f67ffffffffffffffff82169050919050565b6136a181613685565b82525050565b5f6040820190506136ba5f830185613676565b6136c76020830184613698565b9392505050565b5f6040820190506136e15f830185613698565b6136ee6020830184613698565b9392505050565b6136fe8161317e565b82525050565b5f6020820190506137175f8301846136f5565b92915050565b5f805f606084860312156137345761373361311c565b5b5f6137418682870161316a565b93505060206137528682870161316a565b92505060406137638682870161319d565b9150509250925092565b5f60ff82169050919050565b6137828161376d565b82525050565b5f60208201905061379b5f830184613779565b92915050565b5f63ffffffff82169050919050565b6137b9816137a1565b81146137c3575f80fd5b50565b5f813590506137d4816137b0565b92915050565b5f80604083850312156137f0576137ef61311c565b5b5f6137fd858286016137c6565b925050602061380e858286016134ea565b9150509250929050565b613821816131ef565b811461382b575f80fd5b50565b5f8135905061383c81613818565b92915050565b5f80604083850312156138585761385761311c565b5b5f83013567ffffffffffffffff81111561387557613874613120565b5b61388185828601613226565b92505060206138928582860161382e565b9150509250929050565b604082015f8201516138b05f85018261328b565b5060208201516138c3602085018261328b565b50505050565b5f6040820190506138dc5f83018461389c565b92915050565b5f805f606084860312156138f9576138f861311c565b5b5f6139068682870161319d565b93505060206139178682870161319d565b9250506040613928868287016137c6565b9150509250925092565b61393b81613616565b8114613945575f80fd5b50565b5f8135905061395681613932565b92915050565b5f80604083850312156139725761397161311c565b5b5f61397f858286016137c6565b925050602061399085828601613948565b9150509250929050565b5f81519050919050565b5f82825260208201905092915050565b5f6139be8261399a565b6139c881856139a4565b93506139d881856020860161309d565b6139e1816130ab565b840191505092915050565b5f6020820190508181035f830152613a0481846139b4565b905092915050565b5f819050919050565b5f613a2f613a2a613a2584613124565b613a0c565b613124565b9050919050565b5f613a4082613a15565b9050919050565b5f613a5182613a36565b9050919050565b613a6181613a47565b82525050565b5f602082019050613a7a5f830184613a58565b92915050565b5f60208284031215613a9557613a9461311c565b5b5f613aa28482850161316a565b91505092915050565b5f602082019050613abe5f830184613698565b92915050565b5f8083601f840112613ad957613ad86134fe565b5b8235905067ffffffffffffffff811115613af657613af5613502565b5b602083019150836020820283011115613b1257613b11613506565b5b9250929050565b5f8060208385031215613b2f57613b2e61311c565b5b5f83013567ffffffffffffffff811115613b4c57613b4b613120565b5b613b5885828601613ac4565b92509250509250929050565b5f60208284031215613b7957613b7861311c565b5b5f613b86848285016137c6565b91505092915050565b613b98816134cb565b82525050565b5f602082019050613bb15f830184613b8f565b92915050565b5f805f8060608587031215613bcf57613bce61311c565b5b5f613bdc878288016137c6565b9450506020613bed87828801613948565b935050604085013567ffffffffffffffff811115613c0e57613c0d613120565b5b613c1a8782880161350a565b925092505092959194509250565b5f8083601f840112613c3d57613c3c6134fe565b5b8235905067ffffffffffffffff811115613c5a57613c59613502565b5b602083019150836020820283011115613c7657613c75613506565b5b9250929050565b5f8060208385031215613c9357613c9261311c565b5b5f83013567ffffffffffffffff811115613cb057613caf613120565b5b613cbc85828601613c28565b92509250509250929050565b5f60408284031215613cdd57613cdc613222565b5b81905092915050565b5f805f60808486031215613cfd57613cfc61311c565b5b5f84013567ffffffffffffffff811115613d1a57613d19613120565b5b613d2686828701613226565b9350506020613d3786828701613cc8565b9250506060613d488682870161316a565b9150509250925092565b613d5b816134cb565b82525050565b613d6a81613685565b82525050565b604082015f820151613d845f85018261328b565b506020820151613d97602085018261328b565b50505050565b608082015f820151613db15f850182613d52565b506020820151613dc46020850182613d61565b506040820151613dd76040850182613d70565b50505050565b5f60c082019050613df05f830185613d9d565b613dfd608083018461341c565b9392505050565b5f8060408385031215613e1a57613e1961311c565b5b5f613e278582860161316a565b9250506020613e388582860161316a565b9150509250929050565b5f60608284031215613e5757613e5661311c565b5b5f613e64848285016134ad565b91505092915050565b7f4e487b71000000000000000000000000000000000000000000000000000000005f52602260045260245ffd5b5f6002820490506001821680613eb157607f821691505b602082108103613ec457613ec3613e6d565b5b50919050565b7f4e487b71000000000000000000000000000000000000000000000000000000005f52604160045260245ffd5b613f00816137a1565b82525050565b5f604082019050613f195f830185613ef7565b613f266020830184613b8f565b9392505050565b7f4e487b71000000000000000000000000000000000000000000000000000000005f52603260045260245ffd5b5f80fd5b5f80fd5b5f80fd5b5f82356001606003833603038112613f8157613f80613f5a565b5b80830191505092915050565b5f8083356001602003843603038112613fa957613fa8613f5a565b5b80840192508235915067ffffffffffffffff821115613fcb57613fca613f5e565b5b602083019250600182023603831315613fe757613fe6613f62565b5b509250929050565b5f602082840312156140045761400361311c565b5b5f61401184828501613948565b91505092915050565b5f82905092915050565b5f819050815f5260205f209050919050565b5f6020601f8301049050919050565b5f82821b905092915050565b5f600883026140807fffffffffffffffffffffffffffffffffffffffffffffffffffffffffffffffff82614045565b61408a8683614045565b95508019841693508086168417925050509392505050565b5f6140bc6140b76140b28461317e565b613a0c565b61317e565b9050919050565b5f819050919050565b6140d5836140a2565b6140e96140e1826140c3565b848454614051565b825550505050565b5f90565b6140fd6140f1565b6141088184846140cc565b505050565b5b8181101561412b576141205f826140f5565b60018101905061410e565b5050565b601f8211156141705761414181614024565b61414a84614036565b81016020851015614159578190505b61416d61416585614036565b83018261410d565b50505b505050565b5f82821c905092915050565b5f6141905f1984600802614175565b1980831691505092915050565b5f6141a88383614181565b9150826002028217905092915050565b6141c2838361401a565b67ffffffffffffffff8111156141db576141da613eca565b5b6141e58254613e9a565b6141f082828561412f565b5f601f83116001811461421d575f841561420b578287013590505b614215858261419d565b86555061427c565b601f19841661422b86614024565b5f5b828110156142525784890135825560018201915060208501945060208101905061422d565b8683101561426f578489013561426b601f891682614181565b8355505b6001600288020188555050505b50505050505050565b5f82825260208201905092915050565b5f819050919050565b5f6142ac60208401846137c6565b905092915050565b6142bd816137a1565b82525050565b5f6142d16020840184613948565b905092915050565b6142e281613616565b82525050565b5f80fd5b5f80fd5b5f80fd5b5f80833560016020038436030381126143105761430f6142f0565b5b83810192508235915060208301925067ffffffffffffffff821115614338576143376142e8565b5b60018202360383131561434e5761434d6142ec565b5b509250929050565b5f82825260208201905092915050565b828183375f83830152505050565b5f61437f8385614356565b935061438c838584614366565b614395836130ab565b840190509392505050565b5f606083016143b15f84018461429e565b6143bd5f8601826142b4565b506143cb60208401846142c3565b6143d860208601826142d9565b506143e660408401846142f4565b85830360408701526143f9838284614374565b925050508091505092915050565b5f61441283836143a0565b905092915050565b5f82356001606003833603038112614435576144346142f0565b5b82810191505092915050565b5f602082019050919050565b5f6144588385614285565b93508360208402850161446a84614295565b805f5b878110156144ad578484038952614484828461441a565b61448e8582614407565b945061449983614441565b925060208a0199505060018101905061446d565b50829750879450505050509392505050565b5f6020820190508181035f8301526144d881848661444d565b90509392505050565b5f80fd5b5f80fd5b5f80858511156144fc576144fb6144e1565b5b8386111561450d5761450c6144e5565b5b6001850283019150848603905094509492505050565b5f81905092915050565b5f6145378261399a565b6145418185614523565b935061455181856020860161309d565b80840191505092915050565b5f6145688385614523565b9350614575838584614366565b82840190509392505050565b5f61458c828661452d565b915061459982848661455d565b9150819050949350505050565b5f6145b183856139a4565b93506145be838584614366565b6145c7836130ab565b840190509392505050565b5f6020820190508181035f8301526145eb8184866145a6565b90509392505050565b5f82356001610140038336030381126146105761460f613f5a565b5b80830191505092915050565b5f61462a60208401846134ea565b905092915050565b61463b81613685565b8114614645575f80fd5b50565b5f8135905061465681614632565b92915050565b5f61466a6020840184614648565b905092915050565b606082016146825f83018361429e565b61468e5f8501826142b4565b5061469c602083018361461c565b6146a96020850182613d52565b506146b7604083018361465c565b6146c46040850182613d61565b50505050565b5f60e0820190506146dd5f83018a614672565b6146ea6060830189613b8f565b81810360808301526146fd8187896145a6565b905061470c60a0830186613485565b81810360c083015261471f8184866145a6565b905098975050505050505050565b5f80fd5b61473a826130ab565b810181811067ffffffffffffffff8211171561475957614758613eca565b5b80604052505050565b5f61476b613113565b90506147778282614731565b919050565b5f67ffffffffffffffff82111561479657614795613eca565b5b61479f826130ab565b9050602081019050919050565b5f6147be6147b98461477c565b614762565b9050828152602081018484840111156147da576147d961472d565b5b6147e584828561309d565b509392505050565b5f82601f830112614801576148006134fe565b5b81516148118482602086016147ac565b91505092915050565b5f6020828403121561482f5761482e61311c565b5b5f82015167ffffffffffffffff81111561484c5761484b613120565b5b614858848285016147ed565b91505092915050565b5f80fd5b5f6040828403121561487a57614879614861565b5b6148846040614762565b90505f6148938482850161319d565b5f8301525060206148a68482850161319d565b60208301525092915050565b5f604082840312156148c7576148c661311c565b5b5f6148d484828501614865565b91505092915050565b5f6060820190506148f05f830186613ef7565b6148fd60208301856136f5565b61490a60408301846136f5565b949350505050565b5f6040820190506149255f8301856136f5565b61493260208301846136f5565b9392505050565b5f60208201905061494c5f830184613ef7565b92915050565b5f602082840312156149675761496661311c565b5b5f61497484828501614648565b91505092915050565b5f819050919050565b5f6149a061499b6149968461497d565b613a0c565b613616565b9050919050565b6149b081614986565b82525050565b5f6080820190506149c95f830187613485565b6149d66020830186613b8f565b6149e360408301856149a7565b81810360608301526149f581846139b4565b905095945050505050565b5f604082019050614a135f830185613ef7565b614a2060208301846136f5565b9392505050565b5f606082019050614a3a5f830186613485565b614a4760208301856136f5565b614a5460408301846136f5565b949350505050565b5f6040820190508181035f830152614a7481856139b4565b90508181036020830152614a8881846139b4565b90509392505050565b5f81519050614a9f81613818565b92915050565b5f60208284031215614aba57614ab961311c565b5b5f614ac784828501614a91565b91505092915050565b5f614ada8261399a565b614ae48185614356565b9350614af481856020860161309d565b614afd816130ab565b840191505092915050565b614b11816131ef565b82525050565b5f60a083015f830151614b2c5f8601826142b4565b506020830151614b3f6020860182613d52565b5060408301518482036040860152614b578282614ad0565b91505060608301518482036060860152614b718282614ad0565b9150506080830151614b866080860182614b08565b508091505092915050565b5f6040820190508181035f830152614ba98185614b17565b9050614bb86020830184613485565b9392505050565b5f81519050614bcd81613187565b92915050565b5f60408284031215614be857614be7614861565b5b614bf26040614762565b90505f614c0184828501614bbf565b5f830152506020614c1484828501614bbf565b60208301525092915050565b5f60408284031215614c3557614c3461311c565b5b5f614c4284828501614bd3565b91505092915050565b5f7fffff00000000000000000000000000000000000000000000000000000000000082169050919050565b5f614c81838361401a565b82614c8c8135614c4b565b92506002821015614ccc57614cc77fffff00000000000000000000000000000000000000000000000000000000000083600203600802614045565b831692505b505092915050565b5f81519050614ce2816134d4565b92915050565b5f81519050614cf681614632565b92915050565b5f60808284031215614d1157614d10614861565b5b614d1b6060614762565b90505f614d2a84828501614cd4565b5f830152506020614d3d84828501614ce8565b6020830152506040614d5184828501614bd3565b60408301525092915050565b5f60808284031215614d7257614d7161311c565b5b5f614d7f84828501614cfc565b91505092915050565b7f4e487b71000000000000000000000000000000000000000000000000000000005f52601260045260245ffd5b7f4e487b71000000000000000000000000000000000000000000000000000000005f52601160045260245ffd5b5f614dec8261317e565b9150614df78361317e565b925082614e0757614e06614d88565b5b828204905092915050565b5f614e1c8261317e565b9150614e278361317e565b9250828202614e358161317e565b91508282048414831517614e4c57614e4b614db5565b5b5092915050565b5f614e5e838361401a565b82614e6981356134cb565b92506020821015614ea957614ea47fffffffffffffffffffffffffffffffffffffffffffffffffffffffffffffffff83602003600802614045565b831692505b505092915050565b5f7fffffffffffffffff00000000000000000000000000000000000000000000000082169050919050565b5f614ee7838361401a565b82614ef28135614eb1565b92506008821015614f3257614f2d7fffffffffffffffff00000000000000000000000000000000000000000000000083600803600802614045565b831692505b505092915050565b5f8160c01b9050919050565b5f614f5082614f3a565b9050919050565b614f68614f6382613685565b614f46565b82525050565b5f8160e01b9050919050565b5f614f8482614f6e565b9050919050565b614f9c614f97826137a1565b614f7a565b82525050565b5f819050919050565b614fbc614fb78261317e565b614fa2565b82525050565b5f614fcd8287614f57565b600882019150614fdd8286614f8b565b600482019150614fed8285614fab565b602082019150614ffd828461452d565b915081905095945050505050565b5f6150158261317e565b91506150208361317e565b925082820190508082111561503857615037614db5565b5b92915050565b5f819050919050565b615058615053826134cb565b61503e565b82525050565b5f6150698285615047565b6020820191506150798284614f57565b6008820191508190509392505050565b5f6150948287615047565b6020820191506150a48286614f57565b6008820191506150b48285615047565b6020820191506150c4828461452d565b915081905095945050505050565b5f815190506150e081613154565b92915050565b5f602082840312156150fb576150fa61311c565b5b5f615108848285016150d2565b91505092915050565b5f6060820190506151245f830186613485565b6151316020830185613485565b61513e60408301846136f5565b949350505050565b5f615151828461452d565b91508190509291505056fea2646970667358221220ed76849dfb3f677a5a121f5b09b2597d9c623254f9de3ce2e4acad899e618aa664736f6c63430008190033",
			"opcodes": "PUSH1 0xC0 PUSH1 0x40 MSTORE CALLVALUE DUP1 ISZERO PUSH2 0xF JUMPI PUSH0 DUP1 REVERT JUMPDEST POP PUSH1 0x40 MLOAD PUSH2 0x6032 CODESIZE SUB DUP1 PUSH2 0x6032 DUP4 CODECOPY DUP2 DUP2 ADD PUSH1 0x40 MSTORE DUP2 ADD SWAP1 PUSH2 0x31 SWAP2 SWAP1 PUSH2 0x809 JUMP JUMPDEST DUP5 DUP5 DUP5 DUP5 DUP4 DUP4 PUSH2 0x45 PUSH2 0x2B7 PUSH1 0x20 SHL PUSH1 0x20 SHR JUMP JUMPDEST DUP5 DUP5 DUP2 DUP2 DUP2 DUP2 DUP15 PUSH0 PUSH20 0xFFFFFFFFFFFFFFFFFFFFFFFFFFFFFFFFFFFFFFFF AND DUP2 PUSH20 0xFFFFFFFFFFFFFFFFFFFFFFFFFFFFFFFFFFFFFFFF AND SUB PUSH2 0xBC JUMPI PUSH0 PUSH1 0x40 MLOAD PUSH32 0x1E4FBDF700000000000000000000000000000000000000000000000000000000 DUP2 MSTORE PUSH1 0x4 ADD PUSH2 0xB3 SWAP2 SWAP1 PUSH2 0x8C7 JUMP JUMPDEST PUSH1 0x40 MLOAD DUP1 SWAP2 SUB SWAP1 REVERT JUMPDEST PUSH2 0xCB DUP2 PUSH2 0x2BF PUSH1 0x20 SHL PUSH1 0x20 SHR JUMP JUMPDEST POP DUP2 PUSH20 0xFFFFFFFFFFFFFFFFFFFFFFFFFFFFFFFFFFFFFFFF AND PUSH1 0x80 DUP2 PUSH20 0xFFFFFFFFFFFFFFFFFFFFFFFFFFFFFFFFFFFFFFFF AND DUP2 MSTORE POP POP PUSH0 PUSH20 0xFFFFFFFFFFFFFFFFFFFFFFFFFFFFFFFFFFFFFFFF AND DUP2 PUSH20 0xFFFFFFFFFFFFFFFFFFFFFFFFFFFFFFFFFFFFFFFF AND SUB PUSH2 0x165 JUMPI PUSH1 0x40 MLOAD PUSH32 0xB586360400000000000000000000000000000000000000000000000000000000 DUP2 MSTORE PUSH1 0x4 ADD PUSH1 0x40 MLOAD DUP1 SWAP2 SUB SWAP1 REVERT JUMPDEST PUSH1 0x80 MLOAD PUSH20 0xFFFFFFFFFFFFFFFFFFFFFFFFFFFFFFFFFFFFFFFF AND PUSH4 0xCA5EB5E1 DUP3 PUSH1 0x40 MLOAD DUP3 PUSH4 0xFFFFFFFF AND PUSH1 0xE0 SHL DUP2 MSTORE PUSH1 0x4 ADD PUSH2 0x1A0 SWAP2 SWAP1 PUSH2 0x8C7 JUMP JUMPDEST PUSH0 PUSH1 0x40 MLOAD DUP1 DUP4 SUB DUP2 PUSH0 DUP8 DUP1 EXTCODESIZE ISZERO DUP1 ISZERO PUSH2 0x1B7 JUMPI PUSH0 DUP1 REVERT JUMPDEST POP GAS CALL ISZERO DUP1 ISZERO PUSH2 0x1C9 JUMPI RETURNDATASIZE PUSH0 DUP1 RETURNDATACOPY RETURNDATASIZE PUSH0 REVERT JUMPDEST POP POP POP POP POP POP POP POP PUSH2 0x1DF PUSH2 0x380 PUSH1 0x20 SHL PUSH1 0x20 SHR JUMP JUMPDEST PUSH1 0xFF AND DUP4 PUSH1 0xFF AND LT ISZERO PUSH2 0x21E JUMPI PUSH1 0x40 MLOAD PUSH32 0x1E9714B000000000000000000000000000000000000000000000000000000000 DUP2 MSTORE PUSH1 0x4 ADD PUSH1 0x40 MLOAD DUP1 SWAP2 SUB SWAP1 REVERT JUMPDEST PUSH2 0x22C PUSH2 0x380 PUSH1 0x20 SHL PUSH1 0x20 SHR JUMP JUMPDEST DUP4 PUSH2 0x237 SWAP2 SWAP1 PUSH2 0x919 JUMP JUMPDEST PUSH1 0xA PUSH2 0x243 SWAP2 SWAP1 PUSH2 0xA85 JUMP JUMPDEST PUSH1 0xA0 DUP2 DUP2 MSTORE POP POP POP POP POP DUP2 PUSH1 0x8 SWAP1 DUP2 PUSH2 0x25C SWAP2 SWAP1 PUSH2 0xCD3 JUMP JUMPDEST POP DUP1 PUSH1 0x9 SWAP1 DUP2 PUSH2 0x26C SWAP2 SWAP1 PUSH2 0xCD3 JUMP JUMPDEST POP POP POP POP POP POP POP PUSH2 0x28D CALLER PUSH10 0x152D02C7E14AF6800000 PUSH2 0x388 PUSH1 0x20 SHL PUSH1 0x20 SHR JUMP JUMPDEST DUP1 PUSH1 0xA PUSH0 PUSH2 0x100 EXP DUP2 SLOAD DUP2 PUSH4 0xFFFFFFFF MUL NOT AND SWAP1 DUP4 PUSH4 0xFFFFFFFF AND MUL OR SWAP1 SSTORE POP POP POP POP POP POP PUSH2 0xE32 JUMP JUMPDEST PUSH0 PUSH1 0x12 SWAP1 POP SWAP1 JUMP JUMPDEST PUSH0 DUP1 PUSH0 SWAP1 SLOAD SWAP1 PUSH2 0x100 EXP SWAP1 DIV PUSH20 0xFFFFFFFFFFFFFFFFFFFFFFFFFFFFFFFFFFFFFFFF AND SWAP1 POP DUP2 PUSH0 DUP1 PUSH2 0x100 EXP DUP2 SLOAD DUP2 PUSH20 0xFFFFFFFFFFFFFFFFFFFFFFFFFFFFFFFFFFFFFFFF MUL NOT AND SWAP1 DUP4 PUSH20 0xFFFFFFFFFFFFFFFFFFFFFFFFFFFFFFFFFFFFFFFF AND MUL OR SWAP1 SSTORE POP DUP2 PUSH20 0xFFFFFFFFFFFFFFFFFFFFFFFFFFFFFFFFFFFFFFFF AND DUP2 PUSH20 0xFFFFFFFFFFFFFFFFFFFFFFFFFFFFFFFFFFFFFFFF AND PUSH32 0x8BE0079C531659141344CD1FD0A4F28419497F9722A3DAAFE3B4186F6B6457E0 PUSH1 0x40 MLOAD PUSH1 0x40 MLOAD DUP1 SWAP2 SUB SWAP1 LOG3 POP POP JUMP JUMPDEST PUSH0 PUSH1 0x6 SWAP1 POP SWAP1 JUMP JUMPDEST PUSH0 PUSH20 0xFFFFFFFFFFFFFFFFFFFFFFFFFFFFFFFFFFFFFFFF AND DUP3 PUSH20 0xFFFFFFFFFFFFFFFFFFFFFFFFFFFFFFFFFFFFFFFF AND SUB PUSH2 0x3F8 JUMPI PUSH0 PUSH1 0x40 MLOAD PUSH32 0xEC442F0500000000000000000000000000000000000000000000000000000000 DUP2 MSTORE PUSH1 0x4 ADD PUSH2 0x3EF SWAP2 SWAP1 PUSH2 0x8C7 JUMP JUMPDEST PUSH1 0x40 MLOAD DUP1 SWAP2 SUB SWAP1 REVERT JUMPDEST PUSH2 0x409 PUSH0 DUP4 DUP4 PUSH2 0x40D PUSH1 0x20 SHL PUSH1 0x20 SHR JUMP JUMPDEST POP POP JUMP JUMPDEST PUSH0 PUSH20 0xFFFFFFFFFFFFFFFFFFFFFFFFFFFFFFFFFFFFFFFF AND DUP4 PUSH20 0xFFFFFFFFFFFFFFFFFFFFFFFFFFFFFFFFFFFFFFFF AND SUB PUSH2 0x45D JUMPI DUP1 PUSH1 0x7 PUSH0 DUP3 DUP3 SLOAD PUSH2 0x451 SWAP2 SWAP1 PUSH2 0xDA2 JUMP JUMPDEST SWAP3 POP POP DUP2 SWAP1 SSTORE POP PUSH2 0x52D JUMP JUMPDEST PUSH0 PUSH1 0x5 PUSH0 DUP6 PUSH20 0xFFFFFFFFFFFFFFFFFFFFFFFFFFFFFFFFFFFFFFFF AND PUSH20 0xFFFFFFFFFFFFFFFFFFFFFFFFFFFFFFFFFFFFFFFF AND DUP2 MSTORE PUSH1 0x20 ADD SWAP1 DUP2 MSTORE PUSH1 0x20 ADD PUSH0 KECCAK256 SLOAD SWAP1 POP DUP2 DUP2 LT ISZERO PUSH2 0x4E7 JUMPI DUP4 DUP2 DUP4 PUSH1 0x40 MLOAD PUSH32 0xE450D38C00000000000000000000000000000000000000000000000000000000 DUP2 MSTORE PUSH1 0x4 ADD PUSH2 0x4DE SWAP4 SWAP3 SWAP2 SWAP1 PUSH2 0xDE4 JUMP JUMPDEST PUSH1 0x40 MLOAD DUP1 SWAP2 SUB SWAP1 REVERT JUMPDEST DUP2 DUP2 SUB PUSH1 0x5 PUSH0 DUP7 PUSH20 0xFFFFFFFFFFFFFFFFFFFFFFFFFFFFFFFFFFFFFFFF AND PUSH20 0xFFFFFFFFFFFFFFFFFFFFFFFFFFFFFFFFFFFFFFFF AND DUP2 MSTORE PUSH1 0x20 ADD SWAP1 DUP2 MSTORE PUSH1 0x20 ADD PUSH0 KECCAK256 DUP2 SWAP1 SSTORE POP POP JUMPDEST PUSH0 PUSH20 0xFFFFFFFFFFFFFFFFFFFFFFFFFFFFFFFFFFFFFFFF AND DUP3 PUSH20 0xFFFFFFFFFFFFFFFFFFFFFFFFFFFFFFFFFFFFFFFF AND SUB PUSH2 0x574 JUMPI DUP1 PUSH1 0x7 PUSH0 DUP3 DUP3 SLOAD SUB SWAP3 POP POP DUP2 SWAP1 SSTORE POP PUSH2 0x5BF JUMP JUMPDEST DUP1 PUSH1 0x5 PUSH0 DUP5 PUSH20 0xFFFFFFFFFFFFFFFFFFFFFFFFFFFFFFFFFFFFFFFF AND PUSH20 0xFFFFFFFFFFFFFFFFFFFFFFFFFFFFFFFFFFFFFFFF AND DUP2 MSTORE PUSH1 0x20 ADD SWAP1 DUP2 MSTORE PUSH1 0x20 ADD PUSH0 KECCAK256 PUSH0 DUP3 DUP3 SLOAD ADD SWAP3 POP POP DUP2 SWAP1 SSTORE POP JUMPDEST DUP2 PUSH20 0xFFFFFFFFFFFFFFFFFFFFFFFFFFFFFFFFFFFFFFFF AND DUP4 PUSH20 0xFFFFFFFFFFFFFFFFFFFFFFFFFFFFFFFFFFFFFFFF AND PUSH32 0xDDF252AD1BE2C89B69C2B068FC378DAA952BA7F163C4A11628F55A4DF523B3EF DUP4 PUSH1 0x40 MLOAD PUSH2 0x61C SWAP2 SWAP1 PUSH2 0xE19 JUMP JUMPDEST PUSH1 0x40 MLOAD DUP1 SWAP2 SUB SWAP1 LOG3 POP POP POP JUMP JUMPDEST PUSH0 PUSH1 0x40 MLOAD SWAP1 POP SWAP1 JUMP JUMPDEST PUSH0 DUP1 REVERT JUMPDEST PUSH0 DUP1 REVERT JUMPDEST PUSH0 DUP1 REVERT JUMPDEST PUSH0 DUP1 REVERT JUMPDEST PUSH0 PUSH1 0x1F NOT PUSH1 0x1F DUP4 ADD AND SWAP1 POP SWAP2 SWAP1 POP JUMP JUMPDEST PUSH32 0x4E487B7100000000000000000000000000000000000000000000000000000000 PUSH0 MSTORE PUSH1 0x41 PUSH1 0x4 MSTORE PUSH1 0x24 PUSH0 REVERT JUMPDEST PUSH2 0x688 DUP3 PUSH2 0x642 JUMP JUMPDEST DUP2 ADD DUP2 DUP2 LT PUSH8 0xFFFFFFFFFFFFFFFF DUP3 GT OR ISZERO PUSH2 0x6A7 JUMPI PUSH2 0x6A6 PUSH2 0x652 JUMP JUMPDEST JUMPDEST DUP1 PUSH1 0x40 MSTORE POP POP POP JUMP JUMPDEST PUSH0 PUSH2 0x6B9 PUSH2 0x629 JUMP JUMPDEST SWAP1 POP PUSH2 0x6C5 DUP3 DUP3 PUSH2 0x67F JUMP JUMPDEST SWAP2 SWAP1 POP JUMP JUMPDEST PUSH0 PUSH8 0xFFFFFFFFFFFFFFFF DUP3 GT ISZERO PUSH2 0x6E4 JUMPI PUSH2 0x6E3 PUSH2 0x652 JUMP JUMPDEST JUMPDEST PUSH2 0x6ED DUP3 PUSH2 0x642 JUMP JUMPDEST SWAP1 POP PUSH1 0x20 DUP2 ADD SWAP1 POP SWAP2 SWAP1 POP JUMP JUMPDEST DUP3 DUP2 DUP4 MCOPY PUSH0 DUP4 DUP4 ADD MSTORE POP POP POP JUMP JUMPDEST PUSH0 PUSH2 0x71A PUSH2 0x715 DUP5 PUSH2 0x6CA JUMP JUMPDEST PUSH2 0x6B0 JUMP JUMPDEST SWAP1 POP DUP3 DUP2 MSTORE PUSH1 0x20 DUP2 ADD DUP5 DUP5 DUP5 ADD GT ISZERO PUSH2 0x736 JUMPI PUSH2 0x735 PUSH2 0x63E JUMP JUMPDEST JUMPDEST PUSH2 0x741 DUP5 DUP3 DUP6 PUSH2 0x6FA JUMP JUMPDEST POP SWAP4 SWAP3 POP POP POP JUMP JUMPDEST PUSH0 DUP3 PUSH1 0x1F DUP4 ADD SLT PUSH2 0x75D JUMPI PUSH2 0x75C PUSH2 0x63A JUMP JUMPDEST JUMPDEST DUP2 MLOAD PUSH2 0x76D DUP5 DUP3 PUSH1 0x20 DUP7 ADD PUSH2 0x708 JUMP JUMPDEST SWAP2 POP POP SWAP3 SWAP2 POP POP JUMP JUMPDEST PUSH0 PUSH20 0xFFFFFFFFFFFFFFFFFFFFFFFFFFFFFFFFFFFFFFFF DUP3 AND SWAP1 POP SWAP2 SWAP1 POP JUMP JUMPDEST PUSH0 PUSH2 0x79F DUP3 PUSH2 0x776 JUMP JUMPDEST SWAP1 POP SWAP2 SWAP1 POP JUMP JUMPDEST PUSH2 0x7AF DUP2 PUSH2 0x795 JUMP JUMPDEST DUP2 EQ PUSH2 0x7B9 JUMPI PUSH0 DUP1 REVERT JUMPDEST POP JUMP JUMPDEST PUSH0 DUP2 MLOAD SWAP1 POP PUSH2 0x7CA DUP2 PUSH2 0x7A6 JUMP JUMPDEST SWAP3 SWAP2 POP POP JUMP JUMPDEST PUSH0 PUSH4 0xFFFFFFFF DUP3 AND SWAP1 POP SWAP2 SWAP1 POP JUMP JUMPDEST PUSH2 0x7E8 DUP2 PUSH2 0x7D0 JUMP JUMPDEST DUP2 EQ PUSH2 0x7F2 JUMPI PUSH0 DUP1 REVERT JUMPDEST POP JUMP JUMPDEST PUSH0 DUP2 MLOAD SWAP1 POP PUSH2 0x803 DUP2 PUSH2 0x7DF JUMP JUMPDEST SWAP3 SWAP2 POP POP JUMP JUMPDEST PUSH0 DUP1 PUSH0 DUP1 PUSH0 PUSH1 0xA0 DUP7 DUP9 SUB SLT ISZERO PUSH2 0x822 JUMPI PUSH2 0x821 PUSH2 0x632 JUMP JUMPDEST JUMPDEST PUSH0 DUP7 ADD MLOAD PUSH8 0xFFFFFFFFFFFFFFFF DUP2 GT ISZERO PUSH2 0x83F JUMPI PUSH2 0x83E PUSH2 0x636 JUMP JUMPDEST JUMPDEST PUSH2 0x84B DUP9 DUP3 DUP10 ADD PUSH2 0x749 JUMP JUMPDEST SWAP6 POP POP PUSH1 0x20 DUP7 ADD MLOAD PUSH8 0xFFFFFFFFFFFFFFFF DUP2 GT ISZERO PUSH2 0x86C JUMPI PUSH2 0x86B PUSH2 0x636 JUMP JUMPDEST JUMPDEST PUSH2 0x878 DUP9 DUP3 DUP10 ADD PUSH2 0x749 JUMP JUMPDEST SWAP5 POP POP PUSH1 0x40 PUSH2 0x889 DUP9 DUP3 DUP10 ADD PUSH2 0x7BC JUMP JUMPDEST SWAP4 POP POP PUSH1 0x60 PUSH2 0x89A DUP9 DUP3 DUP10 ADD PUSH2 0x7BC JUMP JUMPDEST SWAP3 POP POP PUSH1 0x80 PUSH2 0x8AB DUP9 DUP3 DUP10 ADD PUSH2 0x7F5 JUMP JUMPDEST SWAP2 POP POP SWAP3 SWAP6 POP SWAP3 SWAP6 SWAP1 SWAP4 POP JUMP JUMPDEST PUSH2 0x8C1 DUP2 PUSH2 0x795 JUMP JUMPDEST DUP3 MSTORE POP POP JUMP JUMPDEST PUSH0 PUSH1 0x20 DUP3 ADD SWAP1 POP PUSH2 0x8DA PUSH0 DUP4 ADD DUP5 PUSH2 0x8B8 JUMP JUMPDEST SWAP3 SWAP2 POP POP JUMP JUMPDEST PUSH0 PUSH1 0xFF DUP3 AND SWAP1 POP SWAP2 SWAP1 POP JUMP JUMPDEST PUSH32 0x4E487B7100000000000000000000000000000000000000000000000000000000 PUSH0 MSTORE PUSH1 0x11 PUSH1 0x4 MSTORE PUSH1 0x24 PUSH0 REVERT JUMPDEST PUSH0 PUSH2 0x923 DUP3 PUSH2 0x8E0 JUMP JUMPDEST SWAP2 POP PUSH2 0x92E DUP4 PUSH2 0x8E0 JUMP JUMPDEST SWAP3 POP DUP3 DUP3 SUB SWAP1 POP PUSH1 0xFF DUP2 GT ISZERO PUSH2 0x947 JUMPI PUSH2 0x946 PUSH2 0x8EC JUMP JUMPDEST JUMPDEST SWAP3 SWAP2 POP POP JUMP JUMPDEST PUSH0 DUP2 PUSH1 0x1 SHR SWAP1 POP SWAP2 SWAP1 POP JUMP JUMPDEST PUSH0 DUP1 DUP3 SWAP2 POP DUP4 SWAP1 POP JUMPDEST PUSH1 0x1 DUP6 GT ISZERO PUSH2 0x9A2 JUMPI DUP1 DUP7 DIV DUP2 GT ISZERO PUSH2 0x97E JUMPI PUSH2 0x97D PUSH2 0x8EC JUMP JUMPDEST JUMPDEST PUSH1 0x1 DUP6 AND ISZERO PUSH2 0x98D JUMPI DUP1 DUP3 MUL SWAP2 POP JUMPDEST DUP1 DUP2 MUL SWAP1 POP PUSH2 0x99B DUP6 PUSH2 0x94D JUMP JUMPDEST SWAP5 POP PUSH2 0x962 JUMP JUMPDEST SWAP5 POP SWAP5 SWAP3 POP POP POP JUMP JUMPDEST PUSH0 DUP3 PUSH2 0x9BA JUMPI PUSH1 0x1 SWAP1 POP PUSH2 0xA75 JUMP JUMPDEST DUP2 PUSH2 0x9C7 JUMPI PUSH0 SWAP1 POP PUSH2 0xA75 JUMP JUMPDEST DUP2 PUSH1 0x1 DUP2 EQ PUSH2 0x9DD JUMPI PUSH1 0x2 DUP2 EQ PUSH2 0x9E7 JUMPI PUSH2 0xA16 JUMP JUMPDEST PUSH1 0x1 SWAP2 POP POP PUSH2 0xA75 JUMP JUMPDEST PUSH1 0xFF DUP5 GT ISZERO PUSH2 0x9F9 JUMPI PUSH2 0x9F8 PUSH2 0x8EC JUMP JUMPDEST JUMPDEST DUP4 PUSH1 0x2 EXP SWAP2 POP DUP5 DUP3 GT ISZERO PUSH2 0xA10 JUMPI PUSH2 0xA0F PUSH2 0x8EC JUMP JUMPDEST JUMPDEST POP PUSH2 0xA75 JUMP JUMPDEST POP PUSH1 0x20 DUP4 LT PUSH2 0x133 DUP4 LT AND PUSH1 0x4E DUP5 LT PUSH1 0xB DUP5 LT AND OR ISZERO PUSH2 0xA4B JUMPI DUP3 DUP3 EXP SWAP1 POP DUP4 DUP2 GT ISZERO PUSH2 0xA46 JUMPI PUSH2 0xA45 PUSH2 0x8EC JUMP JUMPDEST JUMPDEST PUSH2 0xA75 JUMP JUMPDEST PUSH2 0xA58 DUP5 DUP5 DUP5 PUSH1 0x1 PUSH2 0x959 JUMP JUMPDEST SWAP3 POP SWAP1 POP DUP2 DUP5 DIV DUP2 GT ISZERO PUSH2 0xA6F JUMPI PUSH2 0xA6E PUSH2 0x8EC JUMP JUMPDEST JUMPDEST DUP2 DUP2 MUL SWAP1 POP JUMPDEST SWAP4 SWAP3 POP POP POP JUMP JUMPDEST PUSH0 DUP2 SWAP1 POP SWAP2 SWAP1 POP JUMP JUMPDEST PUSH0 PUSH2 0xA8F DUP3 PUSH2 0xA7C JUMP JUMPDEST SWAP2 POP PUSH2 0xA9A DUP4 PUSH2 0x8E0 JUMP JUMPDEST SWAP3 POP PUSH2 0xAC7 PUSH32 0xFFFFFFFFFFFFFFFFFFFFFFFFFFFFFFFFFFFFFFFFFFFFFFFFFFFFFFFFFFFFFFFF DUP5 DUP5 PUSH2 0x9AB JUMP JUMPDEST SWAP1 POP SWAP3 SWAP2 POP POP JUMP JUMPDEST PUSH0 DUP2 MLOAD SWAP1 POP SWAP2 SWAP1 POP JUMP JUMPDEST PUSH32 0x4E487B7100000000000000000000000000000000000000000000000000000000 PUSH0 MSTORE PUSH1 0x22 PUSH1 0x4 MSTORE PUSH1 0x24 PUSH0 REVERT JUMPDEST PUSH0 PUSH1 0x2 DUP3 DIV SWAP1 POP PUSH1 0x1 DUP3 AND DUP1 PUSH2 0xB1D JUMPI PUSH1 0x7F DUP3 AND SWAP2 POP JUMPDEST PUSH1 0x20 DUP3 LT DUP2 SUB PUSH2 0xB30 JUMPI PUSH2 0xB2F PUSH2 0xAD9 JUMP JUMPDEST JUMPDEST POP SWAP2 SWAP1 POP JUMP JUMPDEST PUSH0 DUP2 SWAP1 POP DUP2 PUSH0 MSTORE PUSH1 0x20 PUSH0 KECCAK256 SWAP1 POP SWAP2 SWAP1 POP JUMP JUMPDEST PUSH0 PUSH1 0x20 PUSH1 0x1F DUP4 ADD DIV SWAP1 POP SWAP2 SWAP1 POP JUMP JUMPDEST PUSH0 DUP3 DUP3 SHL SWAP1 POP SWAP3 SWAP2 POP POP JUMP JUMPDEST PUSH0 PUSH1 0x8 DUP4 MUL PUSH2 0xB92 PUSH32 0xFFFFFFFFFFFFFFFFFFFFFFFFFFFFFFFFFFFFFFFFFFFFFFFFFFFFFFFFFFFFFFFF DUP3 PUSH2 0xB57 JUMP JUMPDEST PUSH2 0xB9C DUP7 DUP4 PUSH2 0xB57 JUMP JUMPDEST SWAP6 POP DUP1 NOT DUP5 AND SWAP4 POP DUP1 DUP7 AND DUP5 OR SWAP3 POP POP POP SWAP4 SWAP3 POP POP POP JUMP JUMPDEST PUSH0 DUP2 SWAP1 POP SWAP2 SWAP1 POP JUMP JUMPDEST PUSH0 PUSH2 0xBD7 PUSH2 0xBD2 PUSH2 0xBCD DUP5 PUSH2 0xA7C JUMP JUMPDEST PUSH2 0xBB4 JUMP JUMPDEST PUSH2 0xA7C JUMP JUMPDEST SWAP1 POP SWAP2 SWAP1 POP JUMP JUMPDEST PUSH0 DUP2 SWAP1 POP SWAP2 SWAP1 POP JUMP JUMPDEST PUSH2 0xBF0 DUP4 PUSH2 0xBBD JUMP JUMPDEST PUSH2 0xC04 PUSH2 0xBFC DUP3 PUSH2 0xBDE JUMP JUMPDEST DUP5 DUP5 SLOAD PUSH2 0xB63 JUMP JUMPDEST DUP3 SSTORE POP POP POP POP JUMP JUMPDEST PUSH0 SWAP1 JUMP JUMPDEST PUSH2 0xC18 PUSH2 0xC0C JUMP JUMPDEST PUSH2 0xC23 DUP2 DUP5 DUP5 PUSH2 0xBE7 JUMP JUMPDEST POP POP POP JUMP JUMPDEST JUMPDEST DUP2 DUP2 LT ISZERO PUSH2 0xC46 JUMPI PUSH2 0xC3B PUSH0 DUP3 PUSH2 0xC10 JUMP JUMPDEST PUSH1 0x1 DUP2 ADD SWAP1 POP PUSH2 0xC29 JUMP JUMPDEST POP POP JUMP JUMPDEST PUSH1 0x1F DUP3 GT ISZERO PUSH2 0xC8B JUMPI PUSH2 0xC5C DUP2 PUSH2 0xB36 JUMP JUMPDEST PUSH2 0xC65 DUP5 PUSH2 0xB48 JUMP JUMPDEST DUP2 ADD PUSH1 0x20 DUP6 LT ISZERO PUSH2 0xC74 JUMPI DUP2 SWAP1 POP JUMPDEST PUSH2 0xC88 PUSH2 0xC80 DUP6 PUSH2 0xB48 JUMP JUMPDEST DUP4 ADD DUP3 PUSH2 0xC28 JUMP JUMPDEST POP POP JUMPDEST POP POP POP JUMP JUMPDEST PUSH0 DUP3 DUP3 SHR SWAP1 POP SWAP3 SWAP2 POP POP JUMP JUMPDEST PUSH0 PUSH2 0xCAB PUSH0 NOT DUP5 PUSH1 0x8 MUL PUSH2 0xC90 JUMP JUMPDEST NOT DUP1 DUP4 AND SWAP2 POP POP SWAP3 SWAP2 POP POP JUMP JUMPDEST PUSH0 PUSH2 0xCC3 DUP4 DUP4 PUSH2 0xC9C JUMP JUMPDEST SWAP2 POP DUP3 PUSH1 0x2 MUL DUP3 OR SWAP1 POP SWAP3 SWAP2 POP POP JUMP JUMPDEST PUSH2 0xCDC DUP3 PUSH2 0xACF JUMP JUMPDEST PUSH8 0xFFFFFFFFFFFFFFFF DUP2 GT ISZERO PUSH2 0xCF5 JUMPI PUSH2 0xCF4 PUSH2 0x652 JUMP JUMPDEST JUMPDEST PUSH2 0xCFF DUP3 SLOAD PUSH2 0xB06 JUMP JUMPDEST PUSH2 0xD0A DUP3 DUP3 DUP6 PUSH2 0xC4A JUMP JUMPDEST PUSH0 PUSH1 0x20 SWAP1 POP PUSH1 0x1F DUP4 GT PUSH1 0x1 DUP2 EQ PUSH2 0xD3B JUMPI PUSH0 DUP5 ISZERO PUSH2 0xD29 JUMPI DUP3 DUP8 ADD MLOAD SWAP1 POP JUMPDEST PUSH2 0xD33 DUP6 DUP3 PUSH2 0xCB8 JUMP JUMPDEST DUP7 SSTORE POP PUSH2 0xD9A JUMP JUMPDEST PUSH1 0x1F NOT DUP5 AND PUSH2 0xD49 DUP7 PUSH2 0xB36 JUMP JUMPDEST PUSH0 JUMPDEST DUP3 DUP2 LT ISZERO PUSH2 0xD70 JUMPI DUP5 DUP10 ADD MLOAD DUP3 SSTORE PUSH1 0x1 DUP3 ADD SWAP2 POP PUSH1 0x20 DUP6 ADD SWAP5 POP PUSH1 0x20 DUP2 ADD SWAP1 POP PUSH2 0xD4B JUMP JUMPDEST DUP7 DUP4 LT ISZERO PUSH2 0xD8D JUMPI DUP5 DUP10 ADD MLOAD PUSH2 0xD89 PUSH1 0x1F DUP10 AND DUP3 PUSH2 0xC9C JUMP JUMPDEST DUP4 SSTORE POP JUMPDEST PUSH1 0x1 PUSH1 0x2 DUP9 MUL ADD DUP9 SSTORE POP POP POP JUMPDEST POP POP POP POP POP POP JUMP JUMPDEST PUSH0 PUSH2 0xDAC DUP3 PUSH2 0xA7C JUMP JUMPDEST SWAP2 POP PUSH2 0xDB7 DUP4 PUSH2 0xA7C JUMP JUMPDEST SWAP3 POP DUP3 DUP3 ADD SWAP1 POP DUP1 DUP3 GT ISZERO PUSH2 0xDCF JUMPI PUSH2 0xDCE PUSH2 0x8EC JUMP JUMPDEST JUMPDEST SWAP3 SWAP2 POP POP JUMP JUMPDEST PUSH2 0xDDE DUP2 PUSH2 0xA7C JUMP JUMPDEST DUP3 MSTORE POP POP JUMP JUMPDEST PUSH0 PUSH1 0x60 DUP3 ADD SWAP1 POP PUSH2 0xDF7 PUSH0 DUP4 ADD DUP7 PUSH2 0x8B8 JUMP JUMPDEST PUSH2 0xE04 PUSH1 0x20 DUP4 ADD DUP6 PUSH2 0xDD5 JUMP JUMPDEST PUSH2 0xE11 PUSH1 0x40 DUP4 ADD DUP5 PUSH2 0xDD5 JUMP JUMPDEST SWAP5 SWAP4 POP POP POP POP JUMP JUMPDEST PUSH0 PUSH1 0x20 DUP3 ADD SWAP1 POP PUSH2 0xE2C PUSH0 DUP4 ADD DUP5 PUSH2 0xDD5 JUMP JUMPDEST SWAP3 SWAP2 POP POP JUMP JUMPDEST PUSH1 0x80 MLOAD PUSH1 0xA0 MLOAD PUSH2 0x5192 PUSH2 0xEA0 PUSH0 CODECOPY PUSH0 DUP2 DUP2 PUSH2 0x1103 ADD MSTORE DUP2 DUP2 PUSH2 0x2613 ADD MSTORE DUP2 DUP2 PUSH2 0x2634 ADD MSTORE DUP2 DUP2 PUSH2 0x26D8 ADD MSTORE PUSH2 0x29D9 ADD MSTORE PUSH0 DUP2 DUP2 PUSH2 0xBFB ADD MSTORE DUP2 DUP2 PUSH2 0xF3E ADD MSTORE DUP2 DUP2 PUSH2 0x17A3 ADD MSTORE DUP2 DUP2 PUSH2 0x1C0E ADD MSTORE DUP2 DUP2 PUSH2 0x20C7 ADD MSTORE DUP2 DUP2 PUSH2 0x2331 ADD MSTORE DUP2 DUP2 PUSH2 0x2B47 ADD MSTORE PUSH2 0x2C3F ADD MSTORE PUSH2 0x5192 PUSH0 RETURN INVALID PUSH1 0x80 PUSH1 0x40 MSTORE PUSH1 0x4 CALLDATASIZE LT PUSH2 0x266 JUMPI PUSH0 CALLDATALOAD PUSH1 0xE0 SHR DUP1 PUSH4 0x7D25A05E GT PUSH2 0x143 JUMPI DUP1 PUSH4 0xBC70B354 GT PUSH2 0xB5 JUMPI DUP1 PUSH4 0xD4243885 GT PUSH2 0x79 JUMPI DUP1 PUSH4 0xD4243885 EQ PUSH2 0x923 JUMPI DUP1 PUSH4 0xDD62ED3E EQ PUSH2 0x94B JUMPI DUP1 PUSH4 0xEF6506DB EQ PUSH2 0x987 JUMPI DUP1 PUSH4 0xF2FDE38B EQ PUSH2 0x9A3 JUMPI DUP1 PUSH4 0xFC0C546A EQ PUSH2 0x9CB JUMPI DUP1 PUSH4 0xFF7BD03D EQ PUSH2 0x9F5 JUMPI PUSH2 0x266 JUMP JUMPDEST DUP1 PUSH4 0xBC70B354 EQ PUSH2 0x856 JUMPI DUP1 PUSH4 0xBD815DB0 EQ PUSH2 0x892 JUMPI DUP1 PUSH4 0xC7C7F5B3 EQ PUSH2 0x8AE JUMPI DUP1 PUSH4 0xCA5EB5E1 EQ PUSH2 0x8DF JUMPI DUP1 PUSH4 0xD045A0DC EQ PUSH2 0x907 JUMPI PUSH2 0x266 JUMP JUMPDEST DUP1 PUSH4 0x9F68B964 GT PUSH2 0x107 JUMPI DUP1 PUSH4 0x9F68B964 EQ PUSH2 0x738 JUMPI DUP1 PUSH4 0xA9059CBB EQ PUSH2 0x762 JUMPI DUP1 PUSH4 0xB731EA0A EQ PUSH2 0x79E JUMPI DUP1 PUSH4 0xB92D0EFF EQ PUSH2 0x7C8 JUMPI DUP1 PUSH4 0xB98BD070 EQ PUSH2 0x7F2 JUMPI DUP1 PUSH4 0xBB0B6A53 EQ PUSH2 0x81A JUMPI PUSH2 0x266 JUMP JUMPDEST DUP1 PUSH4 0x7D25A05E EQ PUSH2 0x654 JUMPI DUP1 PUSH4 0x857749B0 EQ PUSH2 0x690 JUMPI DUP1 PUSH4 0x8DA5CB5B EQ PUSH2 0x6BA JUMPI DUP1 PUSH4 0x95D89B41 EQ PUSH2 0x6E4 JUMPI DUP1 PUSH4 0x963EFCAA EQ PUSH2 0x70E JUMPI PUSH2 0x266 JUMP JUMPDEST DUP1 PUSH4 0x313CE567 GT PUSH2 0x1DC JUMPI DUP1 PUSH4 0x5535D461 GT PUSH2 0x1A0 JUMPI DUP1 PUSH4 0x5535D461 EQ PUSH2 0x538 JUMPI DUP1 PUSH4 0x5A0DFE4D EQ PUSH2 0x574 JUMPI DUP1 PUSH4 0x5E280F11 EQ PUSH2 0x5B0 JUMPI DUP1 PUSH4 0x6FC1B31E EQ PUSH2 0x5DA JUMPI DUP1 PUSH4 0x70A08231 EQ PUSH2 0x602 JUMPI DUP1 PUSH4 0x715018A6 EQ PUSH2 0x63E JUMPI PUSH2 0x266 JUMP JUMPDEST DUP1 PUSH4 0x313CE567 EQ PUSH2 0x464 JUMPI DUP1 PUSH4 0x3400288B EQ PUSH2 0x48E JUMPI DUP1 PUSH4 0x3B6F743B EQ PUSH2 0x4B6 JUMPI DUP1 PUSH4 0x52AE2879 EQ PUSH2 0x4F2 JUMPI DUP1 PUSH4 0x54F52414 EQ PUSH2 0x51C JUMPI PUSH2 0x266 JUMP JUMPDEST DUP1 PUSH4 0x134D4F25 GT PUSH2 0x22E JUMPI DUP1 PUSH4 0x134D4F25 EQ PUSH2 0x354 JUMPI DUP1 PUSH4 0x156A0D0F EQ PUSH2 0x37E JUMPI DUP1 PUSH4 0x17442B70 EQ PUSH2 0x3A9 JUMPI DUP1 PUSH4 0x18160DDD EQ PUSH2 0x3D4 JUMPI DUP1 PUSH4 0x1F5E1334 EQ PUSH2 0x3FE JUMPI DUP1 PUSH4 0x23B872DD EQ PUSH2 0x428 JUMPI PUSH2 0x266 JUMP JUMPDEST DUP1 PUSH4 0x6FDDE03 EQ PUSH2 0x26A JUMPI DUP1 PUSH4 0x95EA7B3 EQ PUSH2 0x294 JUMPI DUP1 PUSH4 0xD35B415 EQ PUSH2 0x2D0 JUMPI DUP1 PUSH4 0x111ECDAD EQ PUSH2 0x30E JUMPI DUP1 PUSH4 0x13137D65 EQ PUSH2 0x338 JUMPI JUMPDEST PUSH0 DUP1 REVERT JUMPDEST CALLVALUE DUP1 ISZERO PUSH2 0x275 JUMPI PUSH0 DUP1 REVERT JUMPDEST POP PUSH2 0x27E PUSH2 0xA31 JUMP JUMPDEST PUSH1 0x40 MLOAD PUSH2 0x28B SWAP2 SWAP1 PUSH2 0x30F3 JUMP JUMPDEST PUSH1 0x40 MLOAD DUP1 SWAP2 SUB SWAP1 RETURN JUMPDEST CALLVALUE DUP1 ISZERO PUSH2 0x29F JUMPI PUSH0 DUP1 REVERT JUMPDEST POP PUSH2 0x2BA PUSH1 0x4 DUP1 CALLDATASIZE SUB DUP2 ADD SWAP1 PUSH2 0x2B5 SWAP2 SWAP1 PUSH2 0x31B1 JUMP JUMPDEST PUSH2 0xAC1 JUMP JUMPDEST PUSH1 0x40 MLOAD PUSH2 0x2C7 SWAP2 SWAP1 PUSH2 0x3209 JUMP JUMPDEST PUSH1 0x40 MLOAD DUP1 SWAP2 SUB SWAP1 RETURN JUMPDEST CALLVALUE DUP1 ISZERO PUSH2 0x2DB JUMPI PUSH0 DUP1 REVERT JUMPDEST POP PUSH2 0x2F6 PUSH1 0x4 DUP1 CALLDATASIZE SUB DUP2 ADD SWAP1 PUSH2 0x2F1 SWAP2 SWAP1 PUSH2 0x3244 JUMP JUMPDEST PUSH2 0xAE3 JUMP JUMPDEST PUSH1 0x40 MLOAD PUSH2 0x305 SWAP4 SWAP3 SWAP2 SWAP1 PUSH2 0x3449 JUMP JUMPDEST PUSH1 0x40 MLOAD DUP1 SWAP2 SUB SWAP1 RETURN JUMPDEST CALLVALUE DUP1 ISZERO PUSH2 0x319 JUMPI PUSH0 DUP1 REVERT JUMPDEST POP PUSH2 0x322 PUSH2 0xBBD JUMP JUMPDEST PUSH1 0x40 MLOAD PUSH2 0x32F SWAP2 SWAP1 PUSH2 0x3494 JUMP JUMPDEST PUSH1 0x40 MLOAD DUP1 SWAP2 SUB SWAP1 RETURN JUMPDEST PUSH2 0x352 PUSH1 0x4 DUP1 CALLDATASIZE SUB DUP2 ADD SWAP1 PUSH2 0x34D SWAP2 SWAP1 PUSH2 0x355F JUMP JUMPDEST PUSH2 0xBE2 JUMP JUMPDEST STOP JUMPDEST CALLVALUE DUP1 ISZERO PUSH2 0x35F JUMPI PUSH0 DUP1 REVERT JUMPDEST POP PUSH2 0x368 PUSH2 0xD02 JUMP JUMPDEST PUSH1 0x40 MLOAD PUSH2 0x375 SWAP2 SWAP1 PUSH2 0x3632 JUMP JUMPDEST PUSH1 0x40 MLOAD DUP1 SWAP2 SUB SWAP1 RETURN JUMPDEST CALLVALUE DUP1 ISZERO PUSH2 0x389 JUMPI PUSH0 DUP1 REVERT JUMPDEST POP PUSH2 0x392 PUSH2 0xD07 JUMP JUMPDEST PUSH1 0x40 MLOAD PUSH2 0x3A0 SWAP3 SWAP2 SWAP1 PUSH2 0x36A7 JUMP JUMPDEST PUSH1 0x40 MLOAD DUP1 SWAP2 SUB SWAP1 RETURN JUMPDEST CALLVALUE DUP1 ISZERO PUSH2 0x3B4 JUMPI PUSH0 DUP1 REVERT JUMPDEST POP PUSH2 0x3BD PUSH2 0xD34 JUMP JUMPDEST PUSH1 0x40 MLOAD PUSH2 0x3CB SWAP3 SWAP2 SWAP1 PUSH2 0x36CE JUMP JUMPDEST PUSH1 0x40 MLOAD DUP1 SWAP2 SUB SWAP1 RETURN JUMPDEST CALLVALUE DUP1 ISZERO PUSH2 0x3DF JUMPI PUSH0 DUP1 REVERT JUMPDEST POP PUSH2 0x3E8 PUSH2 0xD41 JUMP JUMPDEST PUSH1 0x40 MLOAD PUSH2 0x3F5 SWAP2 SWAP1 PUSH2 0x3704 JUMP JUMPDEST PUSH1 0x40 MLOAD DUP1 SWAP2 SUB SWAP1 RETURN JUMPDEST CALLVALUE DUP1 ISZERO PUSH2 0x409 JUMPI PUSH0 DUP1 REVERT JUMPDEST POP PUSH2 0x412 PUSH2 0xD4A JUMP JUMPDEST PUSH1 0x40 MLOAD PUSH2 0x41F SWAP2 SWAP1 PUSH2 0x3632 JUMP JUMPDEST PUSH1 0x40 MLOAD DUP1 SWAP2 SUB SWAP1 RETURN JUMPDEST CALLVALUE DUP1 ISZERO PUSH2 0x433 JUMPI PUSH0 DUP1 REVERT JUMPDEST POP PUSH2 0x44E PUSH1 0x4 DUP1 CALLDATASIZE SUB DUP2 ADD SWAP1 PUSH2 0x449 SWAP2 SWAP1 PUSH2 0x371D JUMP JUMPDEST PUSH2 0xD4F JUMP JUMPDEST PUSH1 0x40 MLOAD PUSH2 0x45B SWAP2 SWAP1 PUSH2 0x3209 JUMP JUMPDEST PUSH1 0x40 MLOAD DUP1 SWAP2 SUB SWAP1 RETURN JUMPDEST CALLVALUE DUP1 ISZERO PUSH2 0x46F JUMPI PUSH0 DUP1 REVERT JUMPDEST POP PUSH2 0x478 PUSH2 0xD7D JUMP JUMPDEST PUSH1 0x40 MLOAD PUSH2 0x485 SWAP2 SWAP1 PUSH2 0x3788 JUMP JUMPDEST PUSH1 0x40 MLOAD DUP1 SWAP2 SUB SWAP1 RETURN JUMPDEST CALLVALUE DUP1 ISZERO PUSH2 0x499 JUMPI PUSH0 DUP1 REVERT JUMPDEST POP PUSH2 0x4B4 PUSH1 0x4 DUP1 CALLDATASIZE SUB DUP2 ADD SWAP1 PUSH2 0x4AF SWAP2 SWAP1 PUSH2 0x37DA JUMP JUMPDEST PUSH2 0xD85 JUMP JUMPDEST STOP JUMPDEST CALLVALUE DUP1 ISZERO PUSH2 0x4C1 JUMPI PUSH0 DUP1 REVERT JUMPDEST POP PUSH2 0x4DC PUSH1 0x4 DUP1 CALLDATASIZE SUB DUP2 ADD SWAP1 PUSH2 0x4D7 SWAP2 SWAP1 PUSH2 0x3842 JUMP JUMPDEST PUSH2 0xDEC JUMP JUMPDEST PUSH1 0x40 MLOAD PUSH2 0x4E9 SWAP2 SWAP1 PUSH2 0x38C9 JUMP JUMPDEST PUSH1 0x40 MLOAD DUP1 SWAP2 SUB SWAP1 RETURN JUMPDEST CALLVALUE DUP1 ISZERO PUSH2 0x4FD JUMPI PUSH0 DUP1 REVERT JUMPDEST POP PUSH2 0x506 PUSH2 0xE54 JUMP JUMPDEST PUSH1 0x40 MLOAD PUSH2 0x513 SWAP2 SWAP1 PUSH2 0x3494 JUMP JUMPDEST PUSH1 0x40 MLOAD DUP1 SWAP2 SUB SWAP1 RETURN JUMPDEST PUSH2 0x536 PUSH1 0x4 DUP1 CALLDATASIZE SUB DUP2 ADD SWAP1 PUSH2 0x531 SWAP2 SWAP1 PUSH2 0x38E2 JUMP JUMPDEST PUSH2 0xE5B JUMP JUMPDEST STOP JUMPDEST CALLVALUE DUP1 ISZERO PUSH2 0x543 JUMPI PUSH0 DUP1 REVERT JUMPDEST POP PUSH2 0x55E PUSH1 0x4 DUP1 CALLDATASIZE SUB DUP2 ADD SWAP1 PUSH2 0x559 SWAP2 SWAP1 PUSH2 0x395C JUMP JUMPDEST PUSH2 0xE6D JUMP JUMPDEST PUSH1 0x40 MLOAD PUSH2 0x56B SWAP2 SWAP1 PUSH2 0x39EC JUMP JUMPDEST PUSH1 0x40 MLOAD DUP1 SWAP2 SUB SWAP1 RETURN JUMPDEST CALLVALUE DUP1 ISZERO PUSH2 0x57F JUMPI PUSH0 DUP1 REVERT JUMPDEST POP PUSH2 0x59A PUSH1 0x4 DUP1 CALLDATASIZE SUB DUP2 ADD SWAP1 PUSH2 0x595 SWAP2 SWAP1 PUSH2 0x37DA JUMP JUMPDEST PUSH2 0xF13 JUMP JUMPDEST PUSH1 0x40 MLOAD PUSH2 0x5A7 SWAP2 SWAP1 PUSH2 0x3209 JUMP JUMPDEST PUSH1 0x40 MLOAD DUP1 SWAP2 SUB SWAP1 RETURN JUMPDEST CALLVALUE DUP1 ISZERO PUSH2 0x5BB JUMPI PUSH0 DUP1 REVERT JUMPDEST POP PUSH2 0x5C4 PUSH2 0xF3C JUMP JUMPDEST PUSH1 0x40 MLOAD PUSH2 0x5D1 SWAP2 SWAP1 PUSH2 0x3A67 JUMP JUMPDEST PUSH1 0x40 MLOAD DUP1 SWAP2 SUB SWAP1 RETURN JUMPDEST CALLVALUE DUP1 ISZERO PUSH2 0x5E5 JUMPI PUSH0 DUP1 REVERT JUMPDEST POP PUSH2 0x600 PUSH1 0x4 DUP1 CALLDATASIZE SUB DUP2 ADD SWAP1 PUSH2 0x5FB SWAP2 SWAP1 PUSH2 0x3A80 JUMP JUMPDEST PUSH2 0xF60 JUMP JUMPDEST STOP JUMPDEST CALLVALUE DUP1 ISZERO PUSH2 0x60D JUMPI PUSH0 DUP1 REVERT JUMPDEST POP PUSH2 0x628 PUSH1 0x4 DUP1 CALLDATASIZE SUB DUP2 ADD SWAP1 PUSH2 0x623 SWAP2 SWAP1 PUSH2 0x3A80 JUMP JUMPDEST PUSH2 0xFE2 JUMP JUMPDEST PUSH1 0x40 MLOAD PUSH2 0x635 SWAP2 SWAP1 PUSH2 0x3704 JUMP JUMPDEST PUSH1 0x40 MLOAD DUP1 SWAP2 SUB SWAP1 RETURN JUMPDEST CALLVALUE DUP1 ISZERO PUSH2 0x649 JUMPI PUSH0 DUP1 REVERT JUMPDEST POP PUSH2 0x652 PUSH2 0x1028 JUMP JUMPDEST STOP JUMPDEST CALLVALUE DUP1 ISZERO PUSH2 0x65F JUMPI PUSH0 DUP1 REVERT JUMPDEST POP PUSH2 0x67A PUSH1 0x4 DUP1 CALLDATASIZE SUB DUP2 ADD SWAP1 PUSH2 0x675 SWAP2 SWAP1 PUSH2 0x37DA JUMP JUMPDEST PUSH2 0x103B JUMP JUMPDEST PUSH1 0x40 MLOAD PUSH2 0x687 SWAP2 SWAP1 PUSH2 0x3AAB JUMP JUMPDEST PUSH1 0x40 MLOAD DUP1 SWAP2 SUB SWAP1 RETURN JUMPDEST CALLVALUE DUP1 ISZERO PUSH2 0x69B JUMPI PUSH0 DUP1 REVERT JUMPDEST POP PUSH2 0x6A4 PUSH2 0x1042 JUMP JUMPDEST PUSH1 0x40 MLOAD PUSH2 0x6B1 SWAP2 SWAP1 PUSH2 0x3788 JUMP JUMPDEST PUSH1 0x40 MLOAD DUP1 SWAP2 SUB SWAP1 RETURN JUMPDEST CALLVALUE DUP1 ISZERO PUSH2 0x6C5 JUMPI PUSH0 DUP1 REVERT JUMPDEST POP PUSH2 0x6CE PUSH2 0x104A JUMP JUMPDEST PUSH1 0x40 MLOAD PUSH2 0x6DB SWAP2 SWAP1 PUSH2 0x3494 JUMP JUMPDEST PUSH1 0x40 MLOAD DUP1 SWAP2 SUB SWAP1 RETURN JUMPDEST CALLVALUE DUP1 ISZERO PUSH2 0x6EF JUMPI PUSH0 DUP1 REVERT JUMPDEST POP PUSH2 0x6F8 PUSH2 0x1071 JUMP JUMPDEST PUSH1 0x40 MLOAD PUSH2 0x705 SWAP2 SWAP1 PUSH2 0x30F3 JUMP JUMPDEST PUSH1 0x40 MLOAD DUP1 SWAP2 SUB SWAP1 RETURN JUMPDEST CALLVALUE DUP1 ISZERO PUSH2 0x719 JUMPI PUSH0 DUP1 REVERT JUMPDEST POP PUSH2 0x722 PUSH2 0x1101 JUMP JUMPDEST PUSH1 0x40 MLOAD PUSH2 0x72F SWAP2 SWAP1 PUSH2 0x3704 JUMP JUMPDEST PUSH1 0x40 MLOAD DUP1 SWAP2 SUB SWAP1 RETURN JUMPDEST CALLVALUE DUP1 ISZERO PUSH2 0x743 JUMPI PUSH0 DUP1 REVERT JUMPDEST POP PUSH2 0x74C PUSH2 0x1125 JUMP JUMPDEST PUSH1 0x40 MLOAD PUSH2 0x759 SWAP2 SWAP1 PUSH2 0x3209 JUMP JUMPDEST PUSH1 0x40 MLOAD DUP1 SWAP2 SUB SWAP1 RETURN JUMPDEST CALLVALUE DUP1 ISZERO PUSH2 0x76D JUMPI PUSH0 DUP1 REVERT JUMPDEST POP PUSH2 0x788 PUSH1 0x4 DUP1 CALLDATASIZE SUB DUP2 ADD SWAP1 PUSH2 0x783 SWAP2 SWAP1 PUSH2 0x31B1 JUMP JUMPDEST PUSH2 0x1129 JUMP JUMPDEST PUSH1 0x40 MLOAD PUSH2 0x795 SWAP2 SWAP1 PUSH2 0x3209 JUMP JUMPDEST PUSH1 0x40 MLOAD DUP1 SWAP2 SUB SWAP1 RETURN JUMPDEST CALLVALUE DUP1 ISZERO PUSH2 0x7A9 JUMPI PUSH0 DUP1 REVERT JUMPDEST POP PUSH2 0x7B2 PUSH2 0x114B JUMP JUMPDEST PUSH1 0x40 MLOAD PUSH2 0x7BF SWAP2 SWAP1 PUSH2 0x3494 JUMP JUMPDEST PUSH1 0x40 MLOAD DUP1 SWAP2 SUB SWAP1 RETURN JUMPDEST CALLVALUE DUP1 ISZERO PUSH2 0x7D3 JUMPI PUSH0 DUP1 REVERT JUMPDEST POP PUSH2 0x7DC PUSH2 0x1170 JUMP JUMPDEST PUSH1 0x40 MLOAD PUSH2 0x7E9 SWAP2 SWAP1 PUSH2 0x3494 JUMP JUMPDEST PUSH1 0x40 MLOAD DUP1 SWAP2 SUB SWAP1 RETURN JUMPDEST CALLVALUE DUP1 ISZERO PUSH2 0x7FD JUMPI PUSH0 DUP1 REVERT JUMPDEST POP PUSH2 0x818 PUSH1 0x4 DUP1 CALLDATASIZE SUB DUP2 ADD SWAP1 PUSH2 0x813 SWAP2 SWAP1 PUSH2 0x3B19 JUMP JUMPDEST PUSH2 0x1177 JUMP JUMPDEST STOP JUMPDEST CALLVALUE DUP1 ISZERO PUSH2 0x825 JUMPI PUSH0 DUP1 REVERT JUMPDEST POP PUSH2 0x840 PUSH1 0x4 DUP1 CALLDATASIZE SUB DUP2 ADD SWAP1 PUSH2 0x83B SWAP2 SWAP1 PUSH2 0x3B64 JUMP JUMPDEST PUSH2 0x12F4 JUMP JUMPDEST PUSH1 0x40 MLOAD PUSH2 0x84D SWAP2 SWAP1 PUSH2 0x3B9E JUMP JUMPDEST PUSH1 0x40 MLOAD DUP1 SWAP2 SUB SWAP1 RETURN JUMPDEST CALLVALUE DUP1 ISZERO PUSH2 0x861 JUMPI PUSH0 DUP1 REVERT JUMPDEST POP PUSH2 0x87C PUSH1 0x4 DUP1 CALLDATASIZE SUB DUP2 ADD SWAP1 PUSH2 0x877 SWAP2 SWAP1 PUSH2 0x3BB7 JUMP JUMPDEST PUSH2 0x1309 JUMP JUMPDEST PUSH1 0x40 MLOAD PUSH2 0x889 SWAP2 SWAP1 PUSH2 0x39EC JUMP JUMPDEST PUSH1 0x40 MLOAD DUP1 SWAP2 SUB SWAP1 RETURN JUMPDEST PUSH2 0x8AC PUSH1 0x4 DUP1 CALLDATASIZE SUB DUP2 ADD SWAP1 PUSH2 0x8A7 SWAP2 SWAP1 PUSH2 0x3C7D JUMP JUMPDEST PUSH2 0x14C9 JUMP JUMPDEST STOP JUMPDEST PUSH2 0x8C8 PUSH1 0x4 DUP1 CALLDATASIZE SUB DUP2 ADD SWAP1 PUSH2 0x8C3 SWAP2 SWAP1 PUSH2 0x3CE6 JUMP JUMPDEST PUSH2 0x1695 JUMP JUMPDEST PUSH1 0x40 MLOAD PUSH2 0x8D6 SWAP3 SWAP2 SWAP1 PUSH2 0x3DDD JUMP JUMPDEST PUSH1 0x40 MLOAD DUP1 SWAP2 SUB SWAP1 RETURN JUMPDEST CALLVALUE DUP1 ISZERO PUSH2 0x8EA JUMPI PUSH0 DUP1 REVERT JUMPDEST POP PUSH2 0x905 PUSH1 0x4 DUP1 CALLDATASIZE SUB DUP2 ADD SWAP1 PUSH2 0x900 SWAP2 SWAP1 PUSH2 0x3A80 JUMP JUMPDEST PUSH2 0x1799 JUMP JUMPDEST STOP JUMPDEST PUSH2 0x921 PUSH1 0x4 DUP1 CALLDATASIZE SUB DUP2 ADD SWAP1 PUSH2 0x91C SWAP2 SWAP1 PUSH2 0x355F JUMP JUMPDEST PUSH2 0x182A JUMP JUMPDEST STOP JUMPDEST CALLVALUE DUP1 ISZERO PUSH2 0x92E JUMPI PUSH0 DUP1 REVERT JUMPDEST POP PUSH2 0x949 PUSH1 0x4 DUP1 CALLDATASIZE SUB DUP2 ADD SWAP1 PUSH2 0x944 SWAP2 SWAP1 PUSH2 0x3A80 JUMP JUMPDEST PUSH2 0x18A7 JUMP JUMPDEST STOP JUMPDEST CALLVALUE DUP1 ISZERO PUSH2 0x956 JUMPI PUSH0 DUP1 REVERT JUMPDEST POP PUSH2 0x971 PUSH1 0x4 DUP1 CALLDATASIZE SUB DUP2 ADD SWAP1 PUSH2 0x96C SWAP2 SWAP1 PUSH2 0x3E04 JUMP JUMPDEST PUSH2 0x1929 JUMP JUMPDEST PUSH1 0x40 MLOAD PUSH2 0x97E SWAP2 SWAP1 PUSH2 0x3704 JUMP JUMPDEST PUSH1 0x40 MLOAD DUP1 SWAP2 SUB SWAP1 RETURN JUMPDEST PUSH2 0x9A1 PUSH1 0x4 DUP1 CALLDATASIZE SUB DUP2 ADD SWAP1 PUSH2 0x99C SWAP2 SWAP1 PUSH2 0x31B1 JUMP JUMPDEST PUSH2 0x19AB JUMP JUMPDEST STOP JUMPDEST CALLVALUE DUP1 ISZERO PUSH2 0x9AE JUMPI PUSH0 DUP1 REVERT JUMPDEST POP PUSH2 0x9C9 PUSH1 0x4 DUP1 CALLDATASIZE SUB DUP2 ADD SWAP1 PUSH2 0x9C4 SWAP2 SWAP1 PUSH2 0x3A80 JUMP JUMPDEST PUSH2 0x19CC JUMP JUMPDEST STOP JUMPDEST CALLVALUE DUP1 ISZERO PUSH2 0x9D6 JUMPI PUSH0 DUP1 REVERT JUMPDEST POP PUSH2 0x9DF PUSH2 0x1A50 JUMP JUMPDEST PUSH1 0x40 MLOAD PUSH2 0x9EC SWAP2 SWAP1 PUSH2 0x3494 JUMP JUMPDEST PUSH1 0x40 MLOAD DUP1 SWAP2 SUB SWAP1 RETURN JUMPDEST CALLVALUE DUP1 ISZERO PUSH2 0xA00 JUMPI PUSH0 DUP1 REVERT JUMPDEST POP PUSH2 0xA1B PUSH1 0x4 DUP1 CALLDATASIZE SUB DUP2 ADD SWAP1 PUSH2 0xA16 SWAP2 SWAP1 PUSH2 0x3E42 JUMP JUMPDEST PUSH2 0x1A57 JUMP JUMPDEST PUSH1 0x40 MLOAD PUSH2 0xA28 SWAP2 SWAP1 PUSH2 0x3209 JUMP JUMPDEST PUSH1 0x40 MLOAD DUP1 SWAP2 SUB SWAP1 RETURN JUMPDEST PUSH1 0x60 PUSH1 0x8 DUP1 SLOAD PUSH2 0xA40 SWAP1 PUSH2 0x3E9A JUMP JUMPDEST DUP1 PUSH1 0x1F ADD PUSH1 0x20 DUP1 SWAP2 DIV MUL PUSH1 0x20 ADD PUSH1 0x40 MLOAD SWAP1 DUP2 ADD PUSH1 0x40 MSTORE DUP1 SWAP3 SWAP2 SWAP1 DUP2 DUP2 MSTORE PUSH1 0x20 ADD DUP3 DUP1 SLOAD PUSH2 0xA6C SWAP1 PUSH2 0x3E9A JUMP JUMPDEST DUP1 ISZERO PUSH2 0xAB7 JUMPI DUP1 PUSH1 0x1F LT PUSH2 0xA8E JUMPI PUSH2 0x100 DUP1 DUP4 SLOAD DIV MUL DUP4 MSTORE SWAP2 PUSH1 0x20 ADD SWAP2 PUSH2 0xAB7 JUMP JUMPDEST DUP3 ADD SWAP2 SWAP1 PUSH0 MSTORE PUSH1 0x20 PUSH0 KECCAK256 SWAP1 JUMPDEST DUP2 SLOAD DUP2 MSTORE SWAP1 PUSH1 0x1 ADD SWAP1 PUSH1 0x20 ADD DUP1 DUP4 GT PUSH2 0xA9A JUMPI DUP3 SWAP1 SUB PUSH1 0x1F AND DUP3 ADD SWAP2 JUMPDEST POP POP POP POP POP SWAP1 POP SWAP1 JUMP JUMPDEST PUSH0 DUP1 PUSH2 0xACB PUSH2 0x1A94 JUMP JUMPDEST SWAP1 POP PUSH2 0xAD8 DUP2 DUP6 DUP6 PUSH2 0x1A9B JUMP JUMPDEST PUSH1 0x1 SWAP2 POP POP SWAP3 SWAP2 POP POP JUMP JUMPDEST PUSH2 0xAEB PUSH2 0x2FF0 JUMP JUMPDEST PUSH1 0x60 PUSH2 0xAF5 PUSH2 0x3008 JUMP JUMPDEST PUSH0 DUP1 PUSH8 0xFFFFFFFFFFFFFFFF DUP1 AND SWAP1 POP PUSH1 0x40 MLOAD DUP1 PUSH1 0x40 ADD PUSH1 0x40 MSTORE DUP1 DUP4 DUP2 MSTORE PUSH1 0x20 ADD DUP3 DUP2 MSTORE POP SWAP5 POP PUSH0 PUSH8 0xFFFFFFFFFFFFFFFF DUP2 GT ISZERO PUSH2 0xB35 JUMPI PUSH2 0xB34 PUSH2 0x3ECA JUMP JUMPDEST JUMPDEST PUSH1 0x40 MLOAD SWAP1 DUP1 DUP3 MSTORE DUP1 PUSH1 0x20 MUL PUSH1 0x20 ADD DUP3 ADD PUSH1 0x40 MSTORE DUP1 ISZERO PUSH2 0xB6E JUMPI DUP2 PUSH1 0x20 ADD JUMPDEST PUSH2 0xB5B PUSH2 0x3020 JUMP JUMPDEST DUP2 MSTORE PUSH1 0x20 ADD SWAP1 PUSH1 0x1 SWAP1 SUB SWAP1 DUP2 PUSH2 0xB53 JUMPI SWAP1 POP JUMPDEST POP SWAP4 POP PUSH0 DUP1 PUSH2 0xB97 DUP9 PUSH1 0x40 ADD CALLDATALOAD DUP10 PUSH1 0x60 ADD CALLDATALOAD DUP11 PUSH0 ADD PUSH1 0x20 DUP2 ADD SWAP1 PUSH2 0xB92 SWAP2 SWAP1 PUSH2 0x3B64 JUMP JUMPDEST PUSH2 0x1AAD JUMP JUMPDEST SWAP2 POP SWAP2 POP PUSH1 0x40 MLOAD DUP1 PUSH1 0x40 ADD PUSH1 0x40 MSTORE DUP1 DUP4 DUP2 MSTORE PUSH1 0x20 ADD DUP3 DUP2 MSTORE POP SWAP5 POP POP POP POP POP SWAP2 SWAP4 SWAP1 SWAP3 POP JUMP JUMPDEST PUSH1 0x4 PUSH0 SWAP1 SLOAD SWAP1 PUSH2 0x100 EXP SWAP1 DIV PUSH20 0xFFFFFFFFFFFFFFFFFFFFFFFFFFFFFFFFFFFFFFFF AND DUP2 JUMP JUMPDEST CALLER PUSH20 0xFFFFFFFFFFFFFFFFFFFFFFFFFFFFFFFFFFFFFFFF AND PUSH32 0x0 PUSH20 0xFFFFFFFFFFFFFFFFFFFFFFFFFFFFFFFFFFFFFFFF AND EQ PUSH2 0xC72 JUMPI CALLER PUSH1 0x40 MLOAD PUSH32 0x91AC5E4F00000000000000000000000000000000000000000000000000000000 DUP2 MSTORE PUSH1 0x4 ADD PUSH2 0xC69 SWAP2 SWAP1 PUSH2 0x3494 JUMP JUMPDEST PUSH1 0x40 MLOAD DUP1 SWAP2 SUB SWAP1 REVERT JUMPDEST DUP7 PUSH1 0x20 ADD CALLDATALOAD PUSH2 0xC91 DUP9 PUSH0 ADD PUSH1 0x20 DUP2 ADD SWAP1 PUSH2 0xC8C SWAP2 SWAP1 PUSH2 0x3B64 JUMP JUMPDEST PUSH2 0x1B0C JUMP JUMPDEST EQ PUSH2 0xCEA JUMPI DUP7 PUSH0 ADD PUSH1 0x20 DUP2 ADD SWAP1 PUSH2 0xCA8 SWAP2 SWAP1 PUSH2 0x3B64 JUMP JUMPDEST DUP8 PUSH1 0x20 ADD CALLDATALOAD PUSH1 0x40 MLOAD PUSH32 0xC26BEBCC00000000000000000000000000000000000000000000000000000000 DUP2 MSTORE PUSH1 0x4 ADD PUSH2 0xCE1 SWAP3 SWAP2 SWAP1 PUSH2 0x3F06 JUMP JUMPDEST PUSH1 0x40 MLOAD DUP1 SWAP2 SUB SWAP1 REVERT JUMPDEST PUSH2 0xCF9 DUP8 DUP8 DUP8 DUP8 DUP8 DUP8 DUP8 PUSH2 0x1B7D JUMP JUMPDEST POP POP POP POP POP POP POP JUMP JUMPDEST PUSH1 0x2 DUP2 JUMP JUMPDEST PUSH0 DUP1 PUSH32 0x2E49C2C00000000000000000000000000000000000000000000000000000000 PUSH1 0x1 SWAP2 POP SWAP2 POP SWAP1 SWAP2 JUMP JUMPDEST PUSH0 DUP1 PUSH1 0x1 DUP1 SWAP2 POP SWAP2 POP SWAP1 SWAP2 JUMP JUMPDEST PUSH0 PUSH1 0x7 SLOAD SWAP1 POP SWAP1 JUMP JUMPDEST PUSH1 0x1 DUP2 JUMP JUMPDEST PUSH0 DUP1 PUSH2 0xD59 PUSH2 0x1A94 JUMP JUMPDEST SWAP1 POP PUSH2 0xD66 DUP6 DUP3 DUP6 PUSH2 0x1D07 JUMP JUMPDEST PUSH2 0xD71 DUP6 DUP6 DUP6 PUSH2 0x1D99 JUMP JUMPDEST PUSH1 0x1 SWAP2 POP POP SWAP4 SWAP3 POP POP POP JUMP JUMPDEST PUSH0 PUSH1 0x12 SWAP1 POP SWAP1 JUMP JUMPDEST PUSH2 0xD8D PUSH2 0x1E89 JUMP JUMPDEST DUP1 PUSH1 0x1 PUSH0 DUP5 PUSH4 0xFFFFFFFF AND PUSH4 0xFFFFFFFF AND DUP2 MSTORE PUSH1 0x20 ADD SWAP1 DUP2 MSTORE PUSH1 0x20 ADD PUSH0 KECCAK256 DUP2 SWAP1 SSTORE POP PUSH32 0x238399D427B947898EDB290F5FF0F9109849B1C3BA196A42E35F00C50A54B98B DUP3 DUP3 PUSH1 0x40 MLOAD PUSH2 0xDE0 SWAP3 SWAP2 SWAP1 PUSH2 0x3F06 JUMP JUMPDEST PUSH1 0x40 MLOAD DUP1 SWAP2 SUB SWAP1 LOG1 POP POP JUMP JUMPDEST PUSH2 0xDF4 PUSH2 0x3039 JUMP JUMPDEST PUSH0 PUSH2 0xE19 DUP5 PUSH1 0x40 ADD CALLDATALOAD DUP6 PUSH1 0x60 ADD CALLDATALOAD DUP7 PUSH0 ADD PUSH1 0x20 DUP2 ADD SWAP1 PUSH2 0xE14 SWAP2 SWAP1 PUSH2 0x3B64 JUMP JUMPDEST PUSH2 0x1AAD JUMP JUMPDEST SWAP2 POP POP PUSH0 DUP1 PUSH2 0xE28 DUP7 DUP5 PUSH2 0x1F10 JUMP JUMPDEST SWAP2 POP SWAP2 POP PUSH2 0xE49 DUP7 PUSH0 ADD PUSH1 0x20 DUP2 ADD SWAP1 PUSH2 0xE41 SWAP2 SWAP1 PUSH2 0x3B64 JUMP JUMPDEST DUP4 DUP4 DUP9 PUSH2 0x20BD JUMP JUMPDEST SWAP4 POP POP POP POP SWAP3 SWAP2 POP POP JUMP JUMPDEST PUSH0 ADDRESS SWAP1 POP SWAP1 JUMP JUMPDEST PUSH2 0xE66 DUP4 DUP4 DUP4 PUSH2 0x219E JUMP JUMPDEST POP POP POP POP POP JUMP JUMPDEST PUSH1 0x3 PUSH1 0x20 MSTORE DUP2 PUSH0 MSTORE PUSH1 0x40 PUSH0 KECCAK256 PUSH1 0x20 MSTORE DUP1 PUSH0 MSTORE PUSH1 0x40 PUSH0 KECCAK256 PUSH0 SWAP2 POP SWAP2 POP POP DUP1 SLOAD PUSH2 0xE94 SWAP1 PUSH2 0x3E9A JUMP JUMPDEST DUP1 PUSH1 0x1F ADD PUSH1 0x20 DUP1 SWAP2 DIV MUL PUSH1 0x20 ADD PUSH1 0x40 MLOAD SWAP1 DUP2 ADD PUSH1 0x40 MSTORE DUP1 SWAP3 SWAP2 SWAP1 DUP2 DUP2 MSTORE PUSH1 0x20 ADD DUP3 DUP1 SLOAD PUSH2 0xEC0 SWAP1 PUSH2 0x3E9A JUMP JUMPDEST DUP1 ISZERO PUSH2 0xF0B JUMPI DUP1 PUSH1 0x1F LT PUSH2 0xEE2 JUMPI PUSH2 0x100 DUP1 DUP4 SLOAD DIV MUL DUP4 MSTORE SWAP2 PUSH1 0x20 ADD SWAP2 PUSH2 0xF0B JUMP JUMPDEST DUP3 ADD SWAP2 SWAP1 PUSH0 MSTORE PUSH1 0x20 PUSH0 KECCAK256 SWAP1 JUMPDEST DUP2 SLOAD DUP2 MSTORE SWAP1 PUSH1 0x1 ADD SWAP1 PUSH1 0x20 ADD DUP1 DUP4 GT PUSH2 0xEEE JUMPI DUP3 SWAP1 SUB PUSH1 0x1F AND DUP3 ADD SWAP2 JUMPDEST POP POP POP POP POP DUP2 JUMP JUMPDEST PUSH0 DUP2 PUSH1 0x1 PUSH0 DUP6 PUSH4 0xFFFFFFFF AND PUSH4 0xFFFFFFFF AND DUP2 MSTORE PUSH1 0x20 ADD SWAP1 DUP2 MSTORE PUSH1 0x20 ADD PUSH0 KECCAK256 SLOAD EQ SWAP1 POP SWAP3 SWAP2 POP POP JUMP JUMPDEST PUSH32 0x0 DUP2 JUMP JUMPDEST PUSH2 0xF68 PUSH2 0x1E89 JUMP JUMPDEST DUP1 PUSH1 0x4 PUSH0 PUSH2 0x100 EXP DUP2 SLOAD DUP2 PUSH20 0xFFFFFFFFFFFFFFFFFFFFFFFFFFFFFFFFFFFFFFFF MUL NOT AND SWAP1 DUP4 PUSH20 0xFFFFFFFFFFFFFFFFFFFFFFFFFFFFFFFFFFFFFFFF AND MUL OR SWAP1 SSTORE POP PUSH32 0xF0BE4F1E87349231D80C36B33F9E8639658EEAF474014DEE15A3E6A4D4414197 DUP2 PUSH1 0x40 MLOAD PUSH2 0xFD7 SWAP2 SWAP1 PUSH2 0x3494 JUMP JUMPDEST PUSH1 0x40 MLOAD DUP1 SWAP2 SUB SWAP1 LOG1 POP JUMP JUMPDEST PUSH0 PUSH1 0x5 PUSH0 DUP4 PUSH20 0xFFFFFFFFFFFFFFFFFFFFFFFFFFFFFFFFFFFFFFFF AND PUSH20 0xFFFFFFFFFFFFFFFFFFFFFFFFFFFFFFFFFFFFFFFF AND DUP2 MSTORE PUSH1 0x20 ADD SWAP1 DUP2 MSTORE PUSH1 0x20 ADD PUSH0 KECCAK256 SLOAD SWAP1 POP SWAP2 SWAP1 POP JUMP JUMPDEST PUSH2 0x1030 PUSH2 0x1E89 JUMP JUMPDEST PUSH2 0x1039 PUSH0 PUSH2 0x21C5 JUMP JUMPDEST JUMP JUMPDEST PUSH0 SWAP3 SWAP2 POP POP JUMP JUMPDEST PUSH0 PUSH1 0x6 SWAP1 POP SWAP1 JUMP JUMPDEST PUSH0 DUP1 PUSH0 SWAP1 SLOAD SWAP1 PUSH2 0x100 EXP SWAP1 DIV PUSH20 0xFFFFFFFFFFFFFFFFFFFFFFFFFFFFFFFFFFFFFFFF AND SWAP1 POP SWAP1 JUMP JUMPDEST PUSH1 0x60 PUSH1 0x9 DUP1 SLOAD PUSH2 0x1080 SWAP1 PUSH2 0x3E9A JUMP JUMPDEST DUP1 PUSH1 0x1F ADD PUSH1 0x20 DUP1 SWAP2 DIV MUL PUSH1 0x20 ADD PUSH1 0x40 MLOAD SWAP1 DUP2 ADD PUSH1 0x40 MSTORE DUP1 SWAP3 SWAP2 SWAP1 DUP2 DUP2 MSTORE PUSH1 0x20 ADD DUP3 DUP1 SLOAD PUSH2 0x10AC SWAP1 PUSH2 0x3E9A JUMP JUMPDEST DUP1 ISZERO PUSH2 0x10F7 JUMPI DUP1 PUSH1 0x1F LT PUSH2 0x10CE JUMPI PUSH2 0x100 DUP1 DUP4 SLOAD DIV MUL DUP4 MSTORE SWAP2 PUSH1 0x20 ADD SWAP2 PUSH2 0x10F7 JUMP JUMPDEST DUP3 ADD SWAP2 SWAP1 PUSH0 MSTORE PUSH1 0x20 PUSH0 KECCAK256 SWAP1 JUMPDEST DUP2 SLOAD DUP2 MSTORE SWAP1 PUSH1 0x1 ADD SWAP1 PUSH1 0x20 ADD DUP1 DUP4 GT PUSH2 0x10DA JUMPI DUP3 SWAP1 SUB PUSH1 0x1F AND DUP3 ADD SWAP2 JUMPDEST POP POP POP POP POP SWAP1 POP SWAP1 JUMP JUMPDEST PUSH32 0x0 DUP2 JUMP JUMPDEST PUSH0 SWAP1 JUMP JUMPDEST PUSH0 DUP1 PUSH2 0x1133 PUSH2 0x1A94 JUMP JUMPDEST SWAP1 POP PUSH2 0x1140 DUP2 DUP6 DUP6 PUSH2 0x1D99 JUMP JUMPDEST PUSH1 0x1 SWAP2 POP POP SWAP3 SWAP2 POP POP JUMP JUMPDEST PUSH1 0x2 PUSH0 SWAP1 SLOAD SWAP1 PUSH2 0x100 EXP SWAP1 DIV PUSH20 0xFFFFFFFFFFFFFFFFFFFFFFFFFFFFFFFFFFFFFFFF AND DUP2 JUMP JUMPDEST PUSH0 ADDRESS SWAP1 POP SWAP1 JUMP JUMPDEST PUSH2 0x117F PUSH2 0x1E89 JUMP JUMPDEST PUSH0 JUMPDEST DUP3 DUP3 SWAP1 POP DUP2 LT ISZERO PUSH2 0x12B6 JUMPI PUSH2 0x11C8 DUP4 DUP4 DUP4 DUP2 DUP2 LT PUSH2 0x11A2 JUMPI PUSH2 0x11A1 PUSH2 0x3F2D JUMP JUMPDEST JUMPDEST SWAP1 POP PUSH1 0x20 MUL DUP2 ADD SWAP1 PUSH2 0x11B4 SWAP2 SWAP1 PUSH2 0x3F66 JUMP JUMPDEST DUP1 PUSH1 0x40 ADD SWAP1 PUSH2 0x11C3 SWAP2 SWAP1 PUSH2 0x3F8D JUMP JUMPDEST PUSH2 0x2286 JUMP JUMPDEST DUP3 DUP3 DUP3 DUP2 DUP2 LT PUSH2 0x11DB JUMPI PUSH2 0x11DA PUSH2 0x3F2D JUMP JUMPDEST JUMPDEST SWAP1 POP PUSH1 0x20 MUL DUP2 ADD SWAP1 PUSH2 0x11ED SWAP2 SWAP1 PUSH2 0x3F66 JUMP JUMPDEST DUP1 PUSH1 0x40 ADD SWAP1 PUSH2 0x11FC SWAP2 SWAP1 PUSH2 0x3F8D JUMP JUMPDEST PUSH1 0x3 PUSH0 DUP7 DUP7 DUP7 DUP2 DUP2 LT PUSH2 0x1212 JUMPI PUSH2 0x1211 PUSH2 0x3F2D JUMP JUMPDEST JUMPDEST SWAP1 POP PUSH1 0x20 MUL DUP2 ADD SWAP1 PUSH2 0x1224 SWAP2 SWAP1 PUSH2 0x3F66 JUMP JUMPDEST PUSH0 ADD PUSH1 0x20 DUP2 ADD SWAP1 PUSH2 0x1235 SWAP2 SWAP1 PUSH2 0x3B64 JUMP JUMPDEST PUSH4 0xFFFFFFFF AND PUSH4 0xFFFFFFFF AND DUP2 MSTORE PUSH1 0x20 ADD SWAP1 DUP2 MSTORE PUSH1 0x20 ADD PUSH0 KECCAK256 PUSH0 DUP7 DUP7 DUP7 DUP2 DUP2 LT PUSH2 0x1262 JUMPI PUSH2 0x1261 PUSH2 0x3F2D JUMP JUMPDEST JUMPDEST SWAP1 POP PUSH1 0x20 MUL DUP2 ADD SWAP1 PUSH2 0x1274 SWAP2 SWAP1 PUSH2 0x3F66 JUMP JUMPDEST PUSH1 0x20 ADD PUSH1 0x20 DUP2 ADD SWAP1 PUSH2 0x1286 SWAP2 SWAP1 PUSH2 0x3FEF JUMP JUMPDEST PUSH2 0xFFFF AND PUSH2 0xFFFF AND DUP2 MSTORE PUSH1 0x20 ADD SWAP1 DUP2 MSTORE PUSH1 0x20 ADD PUSH0 KECCAK256 SWAP2 DUP3 PUSH2 0x12A8 SWAP3 SWAP2 SWAP1 PUSH2 0x41B8 JUMP JUMPDEST POP DUP1 DUP1 PUSH1 0x1 ADD SWAP2 POP POP PUSH2 0x1181 JUMP JUMPDEST POP PUSH32 0xBE4864A8E820971C0247F5992E2DA559595F7BF076A21CB5928D443D2A13B674 DUP3 DUP3 PUSH1 0x40 MLOAD PUSH2 0x12E8 SWAP3 SWAP2 SWAP1 PUSH2 0x44BF JUMP JUMPDEST PUSH1 0x40 MLOAD DUP1 SWAP2 SUB SWAP1 LOG1 POP POP JUMP JUMPDEST PUSH1 0x1 PUSH1 0x20 MSTORE DUP1 PUSH0 MSTORE PUSH1 0x40 PUSH0 KECCAK256 PUSH0 SWAP2 POP SWAP1 POP SLOAD DUP2 JUMP JUMPDEST PUSH1 0x60 PUSH0 PUSH1 0x3 PUSH0 DUP8 PUSH4 0xFFFFFFFF AND PUSH4 0xFFFFFFFF AND DUP2 MSTORE PUSH1 0x20 ADD SWAP1 DUP2 MSTORE PUSH1 0x20 ADD PUSH0 KECCAK256 PUSH0 DUP7 PUSH2 0xFFFF AND PUSH2 0xFFFF AND DUP2 MSTORE PUSH1 0x20 ADD SWAP1 DUP2 MSTORE PUSH1 0x20 ADD PUSH0 KECCAK256 DUP1 SLOAD PUSH2 0x134B SWAP1 PUSH2 0x3E9A JUMP JUMPDEST DUP1 PUSH1 0x1F ADD PUSH1 0x20 DUP1 SWAP2 DIV MUL PUSH1 0x20 ADD PUSH1 0x40 MLOAD SWAP1 DUP2 ADD PUSH1 0x40 MSTORE DUP1 SWAP3 SWAP2 SWAP1 DUP2 DUP2 MSTORE PUSH1 0x20 ADD DUP3 DUP1 SLOAD PUSH2 0x1377 SWAP1 PUSH2 0x3E9A JUMP JUMPDEST DUP1 ISZERO PUSH2 0x13C2 JUMPI DUP1 PUSH1 0x1F LT PUSH2 0x1399 JUMPI PUSH2 0x100 DUP1 DUP4 SLOAD DIV MUL DUP4 MSTORE SWAP2 PUSH1 0x20 ADD SWAP2 PUSH2 0x13C2 JUMP JUMPDEST DUP3 ADD SWAP2 SWAP1 PUSH0 MSTORE PUSH1 0x20 PUSH0 KECCAK256 SWAP1 JUMPDEST DUP2 SLOAD DUP2 MSTORE SWAP1 PUSH1 0x1 ADD SWAP1 PUSH1 0x20 ADD DUP1 DUP4 GT PUSH2 0x13A5 JUMPI DUP3 SWAP1 SUB PUSH1 0x1F AND DUP3 ADD SWAP2 JUMPDEST POP POP POP POP POP SWAP1 POP PUSH0 DUP2 MLOAD SUB PUSH2 0x141D JUMPI DUP4 DUP4 DUP1 DUP1 PUSH1 0x1F ADD PUSH1 0x20 DUP1 SWAP2 DIV MUL PUSH1 0x20 ADD PUSH1 0x40 MLOAD SWAP1 DUP2 ADD PUSH1 0x40 MSTORE DUP1 SWAP4 SWAP3 SWAP2 SWAP1 DUP2 DUP2 MSTORE PUSH1 0x20 ADD DUP4 DUP4 DUP1 DUP3 DUP5 CALLDATACOPY PUSH0 DUP2 DUP5 ADD MSTORE PUSH1 0x1F NOT PUSH1 0x1F DUP3 ADD AND SWAP1 POP DUP1 DUP4 ADD SWAP3 POP POP POP POP POP POP POP SWAP2 POP POP PUSH2 0x14C1 JUMP JUMPDEST PUSH0 DUP5 DUP5 SWAP1 POP SUB PUSH2 0x1430 JUMPI DUP1 SWAP2 POP POP PUSH2 0x14C1 JUMP JUMPDEST PUSH1 0x2 DUP5 DUP5 SWAP1 POP LT PUSH2 0x1482 JUMPI PUSH2 0x1445 DUP5 DUP5 PUSH2 0x2286 JUMP JUMPDEST DUP1 DUP5 DUP5 PUSH1 0x2 SWAP1 DUP1 SWAP3 PUSH2 0x1459 SWAP4 SWAP3 SWAP2 SWAP1 PUSH2 0x44E9 JUMP JUMPDEST PUSH1 0x40 MLOAD PUSH1 0x20 ADD PUSH2 0x146B SWAP4 SWAP3 SWAP2 SWAP1 PUSH2 0x4581 JUMP JUMPDEST PUSH1 0x40 MLOAD PUSH1 0x20 DUP2 DUP4 SUB SUB DUP2 MSTORE SWAP1 PUSH1 0x40 MSTORE SWAP2 POP POP PUSH2 0x14C1 JUMP JUMPDEST DUP4 DUP4 PUSH1 0x40 MLOAD PUSH32 0x9A6D49CD00000000000000000000000000000000000000000000000000000000 DUP2 MSTORE PUSH1 0x4 ADD PUSH2 0x14B8 SWAP3 SWAP2 SWAP1 PUSH2 0x45D2 JUMP JUMPDEST PUSH1 0x40 MLOAD DUP1 SWAP2 SUB SWAP1 REVERT JUMPDEST SWAP5 SWAP4 POP POP POP POP JUMP JUMPDEST PUSH0 JUMPDEST DUP3 DUP3 SWAP1 POP DUP2 LT ISZERO PUSH2 0x15E8 JUMPI CALLDATASIZE DUP4 DUP4 DUP4 DUP2 DUP2 LT PUSH2 0x14EA JUMPI PUSH2 0x14E9 PUSH2 0x3F2D JUMP JUMPDEST JUMPDEST SWAP1 POP PUSH1 0x20 MUL DUP2 ADD SWAP1 PUSH2 0x14FC SWAP2 SWAP1 PUSH2 0x45F4 JUMP JUMPDEST SWAP1 POP PUSH2 0x1521 DUP2 PUSH0 ADD PUSH0 ADD PUSH1 0x20 DUP2 ADD SWAP1 PUSH2 0x1515 SWAP2 SWAP1 PUSH2 0x3B64 JUMP JUMPDEST DUP3 PUSH0 ADD PUSH1 0x20 ADD CALLDATALOAD PUSH2 0xF13 JUMP JUMPDEST PUSH2 0x152B JUMPI POP PUSH2 0x15DB JUMP JUMPDEST ADDRESS PUSH20 0xFFFFFFFFFFFFFFFFFFFFFFFFFFFFFFFFFFFFFFFF AND PUSH4 0xD045A0DC DUP3 PUSH1 0xC0 ADD CALLDATALOAD DUP4 PUSH0 ADD DUP5 PUSH1 0xA0 ADD CALLDATALOAD DUP6 DUP1 PUSH2 0x100 ADD SWAP1 PUSH2 0x1565 SWAP2 SWAP1 PUSH2 0x3F8D JUMP JUMPDEST DUP8 PUSH1 0xE0 ADD PUSH1 0x20 DUP2 ADD SWAP1 PUSH2 0x1578 SWAP2 SWAP1 PUSH2 0x3A80 JUMP JUMPDEST DUP9 DUP1 PUSH2 0x120 ADD SWAP1 PUSH2 0x1589 SWAP2 SWAP1 PUSH2 0x3F8D JUMP JUMPDEST PUSH1 0x40 MLOAD DUP10 PUSH4 0xFFFFFFFF AND PUSH1 0xE0 SHL DUP2 MSTORE PUSH1 0x4 ADD PUSH2 0x15AB SWAP8 SWAP7 SWAP6 SWAP5 SWAP4 SWAP3 SWAP2 SWAP1 PUSH2 0x46CA JUMP JUMPDEST PUSH0 PUSH1 0x40 MLOAD DUP1 DUP4 SUB DUP2 DUP6 DUP9 DUP1 EXTCODESIZE ISZERO DUP1 ISZERO PUSH2 0x15C2 JUMPI PUSH0 DUP1 REVERT JUMPDEST POP GAS CALL ISZERO DUP1 ISZERO PUSH2 0x15D4 JUMPI RETURNDATASIZE PUSH0 DUP1 RETURNDATACOPY RETURNDATASIZE PUSH0 REVERT JUMPDEST POP POP POP POP POP POP JUMPDEST DUP1 DUP1 PUSH1 0x1 ADD SWAP2 POP POP PUSH2 0x14CB JUMP JUMPDEST POP CALLER PUSH20 0xFFFFFFFFFFFFFFFFFFFFFFFFFFFFFFFFFFFFFFFF AND PUSH4 0x8E9E7099 PUSH1 0x40 MLOAD DUP2 PUSH4 0xFFFFFFFF AND PUSH1 0xE0 SHL DUP2 MSTORE PUSH1 0x4 ADD PUSH0 PUSH1 0x40 MLOAD DUP1 DUP4 SUB DUP2 DUP7 GAS STATICCALL ISZERO DUP1 ISZERO PUSH2 0x1631 JUMPI RETURNDATASIZE PUSH0 DUP1 RETURNDATACOPY RETURNDATASIZE PUSH0 REVERT JUMPDEST POP POP POP POP PUSH1 0x40 MLOAD RETURNDATASIZE PUSH0 DUP3 RETURNDATACOPY RETURNDATASIZE PUSH1 0x1F NOT PUSH1 0x1F DUP3 ADD AND DUP3 ADD DUP1 PUSH1 0x40 MSTORE POP DUP2 ADD SWAP1 PUSH2 0x1659 SWAP2 SWAP1 PUSH2 0x481A JUMP JUMPDEST PUSH1 0x40 MLOAD PUSH32 0x8351EEA700000000000000000000000000000000000000000000000000000000 DUP2 MSTORE PUSH1 0x4 ADD PUSH2 0x168C SWAP2 SWAP1 PUSH2 0x39EC JUMP JUMPDEST PUSH1 0x40 MLOAD DUP1 SWAP2 SUB SWAP1 REVERT JUMPDEST PUSH2 0x169D PUSH2 0x3051 JUMP JUMPDEST PUSH2 0x16A5 PUSH2 0x3008 JUMP JUMPDEST PUSH0 DUP1 PUSH2 0x16CB DUP8 PUSH1 0x40 ADD CALLDATALOAD DUP9 PUSH1 0x60 ADD CALLDATALOAD DUP10 PUSH0 ADD PUSH1 0x20 DUP2 ADD SWAP1 PUSH2 0x16C6 SWAP2 SWAP1 PUSH2 0x3B64 JUMP JUMPDEST PUSH2 0x219E JUMP JUMPDEST SWAP2 POP SWAP2 POP PUSH0 DUP1 PUSH2 0x16DB DUP10 DUP5 PUSH2 0x1F10 JUMP JUMPDEST SWAP2 POP SWAP2 POP PUSH2 0x170D DUP10 PUSH0 ADD PUSH1 0x20 DUP2 ADD SWAP1 PUSH2 0x16F4 SWAP2 SWAP1 PUSH2 0x3B64 JUMP JUMPDEST DUP4 DUP4 DUP12 DUP1 CALLDATASIZE SUB DUP2 ADD SWAP1 PUSH2 0x1707 SWAP2 SWAP1 PUSH2 0x48B2 JUMP JUMPDEST DUP12 PUSH2 0x22FE JUMP JUMPDEST SWAP6 POP PUSH1 0x40 MLOAD DUP1 PUSH1 0x40 ADD PUSH1 0x40 MSTORE DUP1 DUP6 DUP2 MSTORE PUSH1 0x20 ADD DUP5 DUP2 MSTORE POP SWAP5 POP CALLER PUSH20 0xFFFFFFFFFFFFFFFFFFFFFFFFFFFFFFFFFFFFFFFF AND DUP7 PUSH0 ADD MLOAD PUSH32 0x85496B760A4B7F8D66384B9DF21B381F5D1B1E79F229A47AAF4C232EDC2FE59A DUP12 PUSH0 ADD PUSH1 0x20 DUP2 ADD SWAP1 PUSH2 0x1774 SWAP2 SWAP1 PUSH2 0x3B64 JUMP JUMPDEST DUP8 DUP8 PUSH1 0x40 MLOAD PUSH2 0x1785 SWAP4 SWAP3 SWAP2 SWAP1 PUSH2 0x48DD JUMP JUMPDEST PUSH1 0x40 MLOAD DUP1 SWAP2 SUB SWAP1 LOG3 POP POP POP POP SWAP4 POP SWAP4 SWAP2 POP POP JUMP JUMPDEST PUSH2 0x17A1 PUSH2 0x1E89 JUMP JUMPDEST PUSH32 0x0 PUSH20 0xFFFFFFFFFFFFFFFFFFFFFFFFFFFFFFFFFFFFFFFF AND PUSH4 0xCA5EB5E1 DUP3 PUSH1 0x40 MLOAD DUP3 PUSH4 0xFFFFFFFF AND PUSH1 0xE0 SHL DUP2 MSTORE PUSH1 0x4 ADD PUSH2 0x17FA SWAP2 SWAP1 PUSH2 0x3494 JUMP JUMPDEST PUSH0 PUSH1 0x40 MLOAD DUP1 DUP4 SUB DUP2 PUSH0 DUP8 DUP1 EXTCODESIZE ISZERO DUP1 ISZERO PUSH2 0x1811 JUMPI PUSH0 DUP1 REVERT JUMPDEST POP GAS CALL ISZERO DUP1 ISZERO PUSH2 0x1823 JUMPI RETURNDATASIZE PUSH0 DUP1 RETURNDATACOPY RETURNDATASIZE PUSH0 REVERT JUMPDEST POP POP POP POP POP JUMP JUMPDEST ADDRESS PUSH20 0xFFFFFFFFFFFFFFFFFFFFFFFFFFFFFFFFFFFFFFFF AND CALLER PUSH20 0xFFFFFFFFFFFFFFFFFFFFFFFFFFFFFFFFFFFFFFFF AND EQ PUSH2 0x188F JUMPI PUSH1 0x40 MLOAD PUSH32 0x14D4A4E800000000000000000000000000000000000000000000000000000000 DUP2 MSTORE PUSH1 0x4 ADD PUSH1 0x40 MLOAD DUP1 SWAP2 SUB SWAP1 REVERT JUMPDEST PUSH2 0x189E DUP8 DUP8 DUP8 DUP8 DUP8 DUP8 DUP8 PUSH2 0x2414 JUMP JUMPDEST POP POP POP POP POP POP POP JUMP JUMPDEST PUSH2 0x18AF PUSH2 0x1E89 JUMP JUMPDEST DUP1 PUSH1 0x2 PUSH0 PUSH2 0x100 EXP DUP2 SLOAD DUP2 PUSH20 0xFFFFFFFFFFFFFFFFFFFFFFFFFFFFFFFFFFFFFFFF MUL NOT AND SWAP1 DUP4 PUSH20 0xFFFFFFFFFFFFFFFFFFFFFFFFFFFFFFFFFFFFFFFF AND MUL OR SWAP1 SSTORE POP PUSH32 0xD48D879CEF83A1C0BDDA516F27B13DDB1B3F8BBAC1C9E1511BB2A659C2427760 DUP2 PUSH1 0x40 MLOAD PUSH2 0x191E SWAP2 SWAP1 PUSH2 0x3494 JUMP JUMPDEST PUSH1 0x40 MLOAD DUP1 SWAP2 SUB SWAP1 LOG1 POP JUMP JUMPDEST PUSH0 PUSH1 0x6 PUSH0 DUP5 PUSH20 0xFFFFFFFFFFFFFFFFFFFFFFFFFFFFFFFFFFFFFFFF AND PUSH20 0xFFFFFFFFFFFFFFFFFFFFFFFFFFFFFFFFFFFFFFFF AND DUP2 MSTORE PUSH1 0x20 ADD SWAP1 DUP2 MSTORE PUSH1 0x20 ADD PUSH0 KECCAK256 PUSH0 DUP4 PUSH20 0xFFFFFFFFFFFFFFFFFFFFFFFFFFFFFFFFFFFFFFFF AND PUSH20 0xFFFFFFFFFFFFFFFFFFFFFFFFFFFFFFFFFFFFFFFF AND DUP2 MSTORE PUSH1 0x20 ADD SWAP1 DUP2 MSTORE PUSH1 0x20 ADD PUSH0 KECCAK256 SLOAD SWAP1 POP SWAP3 SWAP2 POP POP JUMP JUMPDEST PUSH2 0x19C7 DUP3 DUP3 PUSH1 0xA PUSH0 SWAP1 SLOAD SWAP1 PUSH2 0x100 EXP SWAP1 DIV PUSH4 0xFFFFFFFF AND PUSH2 0x242C JUMP JUMPDEST POP POP POP JUMP JUMPDEST PUSH2 0x19D4 PUSH2 0x1E89 JUMP JUMPDEST PUSH0 PUSH20 0xFFFFFFFFFFFFFFFFFFFFFFFFFFFFFFFFFFFFFFFF AND DUP2 PUSH20 0xFFFFFFFFFFFFFFFFFFFFFFFFFFFFFFFFFFFFFFFF AND SUB PUSH2 0x1A44 JUMPI PUSH0 PUSH1 0x40 MLOAD PUSH32 0x1E4FBDF700000000000000000000000000000000000000000000000000000000 DUP2 MSTORE PUSH1 0x4 ADD PUSH2 0x1A3B SWAP2 SWAP1 PUSH2 0x3494 JUMP JUMPDEST PUSH1 0x40 MLOAD DUP1 SWAP2 SUB SWAP1 REVERT JUMPDEST PUSH2 0x1A4D DUP2 PUSH2 0x21C5 JUMP JUMPDEST POP JUMP JUMPDEST PUSH0 ADDRESS SWAP1 POP SWAP1 JUMP JUMPDEST PUSH0 DUP2 PUSH1 0x20 ADD CALLDATALOAD PUSH1 0x1 PUSH0 DUP5 PUSH0 ADD PUSH1 0x20 DUP2 ADD SWAP1 PUSH2 0x1A72 SWAP2 SWAP1 PUSH2 0x3B64 JUMP JUMPDEST PUSH4 0xFFFFFFFF AND PUSH4 0xFFFFFFFF AND DUP2 MSTORE PUSH1 0x20 ADD SWAP1 DUP2 MSTORE PUSH1 0x20 ADD PUSH0 KECCAK256 SLOAD EQ SWAP1 POP SWAP2 SWAP1 POP JUMP JUMPDEST PUSH0 CALLER SWAP1 POP SWAP1 JUMP JUMPDEST PUSH2 0x1AA8 DUP4 DUP4 DUP4 PUSH1 0x1 PUSH2 0x2441 JUMP JUMPDEST POP POP POP JUMP JUMPDEST PUSH0 DUP1 PUSH2 0x1AB8 DUP6 PUSH2 0x2610 JUMP JUMPDEST SWAP2 POP DUP2 SWAP1 POP DUP4 DUP2 LT ISZERO PUSH2 0x1B04 JUMPI DUP1 DUP5 PUSH1 0x40 MLOAD PUSH32 0x71C4EFED00000000000000000000000000000000000000000000000000000000 DUP2 MSTORE PUSH1 0x4 ADD PUSH2 0x1AFB SWAP3 SWAP2 SWAP1 PUSH2 0x4912 JUMP JUMPDEST PUSH1 0x40 MLOAD DUP1 SWAP2 SUB SWAP1 REVERT JUMPDEST SWAP4 POP SWAP4 SWAP2 POP POP JUMP JUMPDEST PUSH0 DUP1 PUSH1 0x1 PUSH0 DUP5 PUSH4 0xFFFFFFFF AND PUSH4 0xFFFFFFFF AND DUP2 MSTORE PUSH1 0x20 ADD SWAP1 DUP2 MSTORE PUSH1 0x20 ADD PUSH0 KECCAK256 SLOAD SWAP1 POP PUSH0 DUP1 SHL DUP2 SUB PUSH2 0x1B74 JUMPI DUP3 PUSH1 0x40 MLOAD PUSH32 0xF6FF4FB700000000000000000000000000000000000000000000000000000000 DUP2 MSTORE PUSH1 0x4 ADD PUSH2 0x1B6B SWAP2 SWAP1 PUSH2 0x4939 JUMP JUMPDEST PUSH1 0x40 MLOAD DUP1 SWAP2 SUB SWAP1 REVERT JUMPDEST DUP1 SWAP2 POP POP SWAP2 SWAP1 POP JUMP JUMPDEST PUSH0 PUSH2 0x1B90 PUSH2 0x1B8B DUP8 DUP8 PUSH2 0x266F JUMP JUMPDEST PUSH2 0x2699 JUMP JUMPDEST SWAP1 POP PUSH0 PUSH2 0x1BC0 DUP3 PUSH2 0x1BA9 PUSH2 0x1BA4 DUP11 DUP11 PUSH2 0x26A4 JUMP JUMPDEST PUSH2 0x26D5 JUMP JUMPDEST DUP12 PUSH0 ADD PUSH1 0x20 DUP2 ADD SWAP1 PUSH2 0x1BBB SWAP2 SWAP1 PUSH2 0x3B64 JUMP JUMPDEST PUSH2 0x242C JUMP JUMPDEST SWAP1 POP PUSH2 0x1BCC DUP8 DUP8 PUSH2 0x2713 JUMP JUMPDEST ISZERO PUSH2 0x1C9A JUMPI PUSH0 PUSH2 0x1C0A DUP11 PUSH1 0x40 ADD PUSH1 0x20 DUP2 ADD SWAP1 PUSH2 0x1BE8 SWAP2 SWAP1 PUSH2 0x4952 JUMP JUMPDEST DUP12 PUSH0 ADD PUSH1 0x20 DUP2 ADD SWAP1 PUSH2 0x1BFA SWAP2 SWAP1 PUSH2 0x3B64 JUMP JUMPDEST DUP5 PUSH2 0x1C05 DUP13 DUP13 PUSH2 0x2726 JUMP JUMPDEST PUSH2 0x2788 JUMP JUMPDEST SWAP1 POP PUSH32 0x0 PUSH20 0xFFFFFFFFFFFFFFFFFFFFFFFFFFFFFFFFFFFFFFFF AND PUSH4 0x7CB59012 DUP5 DUP12 PUSH0 DUP6 PUSH1 0x40 MLOAD DUP6 PUSH4 0xFFFFFFFF AND PUSH1 0xE0 SHL DUP2 MSTORE PUSH1 0x4 ADD PUSH2 0x1C6B SWAP5 SWAP4 SWAP3 SWAP2 SWAP1 PUSH2 0x49B6 JUMP JUMPDEST PUSH0 PUSH1 0x40 MLOAD DUP1 DUP4 SUB DUP2 PUSH0 DUP8 DUP1 EXTCODESIZE ISZERO DUP1 ISZERO PUSH2 0x1C82 JUMPI PUSH0 DUP1 REVERT JUMPDEST POP GAS CALL ISZERO DUP1 ISZERO PUSH2 0x1C94 JUMPI RETURNDATASIZE PUSH0 DUP1 RETURNDATACOPY RETURNDATASIZE PUSH0 REVERT JUMPDEST POP POP POP POP POP JUMPDEST DUP2 PUSH20 0xFFFFFFFFFFFFFFFFFFFFFFFFFFFFFFFFFFFFFFFF AND DUP9 PUSH32 0xEFED6D3500546B29533B128A29E3A94D70788727F0507505AC12EAF2E578FD9C DUP12 PUSH0 ADD PUSH1 0x20 DUP2 ADD SWAP1 PUSH2 0x1CE5 SWAP2 SWAP1 PUSH2 0x3B64 JUMP JUMPDEST DUP5 PUSH1 0x40 MLOAD PUSH2 0x1CF4 SWAP3 SWAP2 SWAP1 PUSH2 0x4A00 JUMP JUMPDEST PUSH1 0x40 MLOAD DUP1 SWAP2 SUB SWAP1 LOG3 POP POP POP POP POP POP POP POP POP JUMP JUMPDEST PUSH0 PUSH2 0x1D12 DUP5 DUP5 PUSH2 0x1929 JUMP JUMPDEST SWAP1 POP PUSH32 0xFFFFFFFFFFFFFFFFFFFFFFFFFFFFFFFFFFFFFFFFFFFFFFFFFFFFFFFFFFFFFFFF DUP2 EQ PUSH2 0x1D93 JUMPI DUP2 DUP2 LT ISZERO PUSH2 0x1D84 JUMPI DUP3 DUP2 DUP4 PUSH1 0x40 MLOAD PUSH32 0xFB8F41B200000000000000000000000000000000000000000000000000000000 DUP2 MSTORE PUSH1 0x4 ADD PUSH2 0x1D7B SWAP4 SWAP3 SWAP2 SWAP1 PUSH2 0x4A27 JUMP JUMPDEST PUSH1 0x40 MLOAD DUP1 SWAP2 SUB SWAP1 REVERT JUMPDEST PUSH2 0x1D92 DUP5 DUP5 DUP5 DUP5 SUB PUSH0 PUSH2 0x2441 JUMP JUMPDEST JUMPDEST POP POP POP POP JUMP JUMPDEST PUSH0 PUSH20 0xFFFFFFFFFFFFFFFFFFFFFFFFFFFFFFFFFFFFFFFF AND DUP4 PUSH20 0xFFFFFFFFFFFFFFFFFFFFFFFFFFFFFFFFFFFFFFFF AND SUB PUSH2 0x1E09 JUMPI PUSH0 PUSH1 0x40 MLOAD PUSH32 0x96C6FD1E00000000000000000000000000000000000000000000000000000000 DUP2 MSTORE PUSH1 0x4 ADD PUSH2 0x1E00 SWAP2 SWAP1 PUSH2 0x3494 JUMP JUMPDEST PUSH1 0x40 MLOAD DUP1 SWAP2 SUB SWAP1 REVERT JUMPDEST PUSH0 PUSH20 0xFFFFFFFFFFFFFFFFFFFFFFFFFFFFFFFFFFFFFFFF AND DUP3 PUSH20 0xFFFFFFFFFFFFFFFFFFFFFFFFFFFFFFFFFFFFFFFF AND SUB PUSH2 0x1E79 JUMPI PUSH0 PUSH1 0x40 MLOAD PUSH32 0xEC442F0500000000000000000000000000000000000000000000000000000000 DUP2 MSTORE PUSH1 0x4 ADD PUSH2 0x1E70 SWAP2 SWAP1 PUSH2 0x3494 JUMP JUMPDEST PUSH1 0x40 MLOAD DUP1 SWAP2 SUB SWAP1 REVERT JUMPDEST PUSH2 0x1E84 DUP4 DUP4 DUP4 PUSH2 0x27BA JUMP JUMPDEST POP POP POP JUMP JUMPDEST PUSH2 0x1E91 PUSH2 0x1A94 JUMP JUMPDEST PUSH20 0xFFFFFFFFFFFFFFFFFFFFFFFFFFFFFFFFFFFFFFFF AND PUSH2 0x1EAF PUSH2 0x104A JUMP JUMPDEST PUSH20 0xFFFFFFFFFFFFFFFFFFFFFFFFFFFFFFFFFFFFFFFF AND EQ PUSH2 0x1F0E JUMPI PUSH2 0x1ED2 PUSH2 0x1A94 JUMP JUMPDEST PUSH1 0x40 MLOAD PUSH32 0x118CDAA700000000000000000000000000000000000000000000000000000000 DUP2 MSTORE PUSH1 0x4 ADD PUSH2 0x1F05 SWAP2 SWAP1 PUSH2 0x3494 JUMP JUMPDEST PUSH1 0x40 MLOAD DUP1 SWAP2 SUB SWAP1 REVERT JUMPDEST JUMP JUMPDEST PUSH1 0x60 DUP1 PUSH0 PUSH2 0x1F7C DUP6 PUSH1 0x20 ADD CALLDATALOAD PUSH2 0x1F25 DUP7 PUSH2 0x29D6 JUMP JUMPDEST DUP8 DUP1 PUSH1 0xA0 ADD SWAP1 PUSH2 0x1F35 SWAP2 SWAP1 PUSH2 0x3F8D JUMP JUMPDEST DUP1 DUP1 PUSH1 0x1F ADD PUSH1 0x20 DUP1 SWAP2 DIV MUL PUSH1 0x20 ADD PUSH1 0x40 MLOAD SWAP1 DUP2 ADD PUSH1 0x40 MSTORE DUP1 SWAP4 SWAP3 SWAP2 SWAP1 DUP2 DUP2 MSTORE PUSH1 0x20 ADD DUP4 DUP4 DUP1 DUP3 DUP5 CALLDATACOPY PUSH0 DUP2 DUP5 ADD MSTORE PUSH1 0x1F NOT PUSH1 0x1F DUP3 ADD AND SWAP1 POP DUP1 DUP4 ADD SWAP3 POP POP POP POP POP POP POP PUSH2 0x2A0A JUMP JUMPDEST DUP1 SWAP3 POP DUP2 SWAP5 POP POP POP PUSH0 DUP2 PUSH2 0x1F91 JUMPI PUSH1 0x1 PUSH2 0x1F94 JUMP JUMPDEST PUSH1 0x2 JUMPDEST SWAP1 POP PUSH2 0x1FC1 DUP7 PUSH0 ADD PUSH1 0x20 DUP2 ADD SWAP1 PUSH2 0x1FAB SWAP2 SWAP1 PUSH2 0x3B64 JUMP JUMPDEST DUP3 DUP9 DUP1 PUSH1 0x80 ADD SWAP1 PUSH2 0x1FBC SWAP2 SWAP1 PUSH2 0x3F8D JUMP JUMPDEST PUSH2 0x1309 JUMP JUMPDEST SWAP3 POP PUSH0 PUSH20 0xFFFFFFFFFFFFFFFFFFFFFFFFFFFFFFFFFFFFFFFF AND PUSH1 0x4 PUSH0 SWAP1 SLOAD SWAP1 PUSH2 0x100 EXP SWAP1 DIV PUSH20 0xFFFFFFFFFFFFFFFFFFFFFFFFFFFFFFFFFFFFFFFF AND PUSH20 0xFFFFFFFFFFFFFFFFFFFFFFFFFFFFFFFFFFFFFFFF AND EQ PUSH2 0x20B4 JUMPI PUSH1 0x4 PUSH0 SWAP1 SLOAD SWAP1 PUSH2 0x100 EXP SWAP1 DIV PUSH20 0xFFFFFFFFFFFFFFFFFFFFFFFFFFFFFFFFFFFFFFFF AND PUSH20 0xFFFFFFFFFFFFFFFFFFFFFFFFFFFFFFFFFFFFFFFF AND PUSH4 0x43A78EB DUP6 DUP6 PUSH1 0x40 MLOAD DUP4 PUSH4 0xFFFFFFFF AND PUSH1 0xE0 SHL DUP2 MSTORE PUSH1 0x4 ADD PUSH2 0x2073 SWAP3 SWAP2 SWAP1 PUSH2 0x4A5C JUMP JUMPDEST PUSH1 0x20 PUSH1 0x40 MLOAD DUP1 DUP4 SUB DUP2 DUP7 GAS STATICCALL ISZERO DUP1 ISZERO PUSH2 0x208E JUMPI RETURNDATASIZE PUSH0 DUP1 RETURNDATACOPY RETURNDATASIZE PUSH0 REVERT JUMPDEST POP POP POP POP PUSH1 0x40 MLOAD RETURNDATASIZE PUSH1 0x1F NOT PUSH1 0x1F DUP3 ADD AND DUP3 ADD DUP1 PUSH1 0x40 MSTORE POP DUP2 ADD SWAP1 PUSH2 0x20B2 SWAP2 SWAP1 PUSH2 0x4AA5 JUMP JUMPDEST POP JUMPDEST POP POP SWAP3 POP SWAP3 SWAP1 POP JUMP JUMPDEST PUSH2 0x20C5 PUSH2 0x3039 JUMP JUMPDEST PUSH32 0x0 PUSH20 0xFFFFFFFFFFFFFFFFFFFFFFFFFFFFFFFFFFFFFFFF AND PUSH4 0xDDC28C58 PUSH1 0x40 MLOAD DUP1 PUSH1 0xA0 ADD PUSH1 0x40 MSTORE DUP1 DUP9 PUSH4 0xFFFFFFFF AND DUP2 MSTORE PUSH1 0x20 ADD PUSH2 0x2121 DUP10 PUSH2 0x1B0C JUMP JUMPDEST DUP2 MSTORE PUSH1 0x20 ADD DUP8 DUP2 MSTORE PUSH1 0x20 ADD DUP7 DUP2 MSTORE PUSH1 0x20 ADD DUP6 ISZERO ISZERO DUP2 MSTORE POP ADDRESS PUSH1 0x40 MLOAD DUP4 PUSH4 0xFFFFFFFF AND PUSH1 0xE0 SHL DUP2 MSTORE PUSH1 0x4 ADD PUSH2 0x2156 SWAP3 SWAP2 SWAP1 PUSH2 0x4B91 JUMP JUMPDEST PUSH1 0x40 DUP1 MLOAD DUP1 DUP4 SUB DUP2 DUP7 GAS STATICCALL ISZERO DUP1 ISZERO PUSH2 0x2170 JUMPI RETURNDATASIZE PUSH0 DUP1 RETURNDATACOPY RETURNDATASIZE PUSH0 REVERT JUMPDEST POP POP POP POP PUSH1 0x40 MLOAD RETURNDATASIZE PUSH1 0x1F NOT PUSH1 0x1F DUP3 ADD AND DUP3 ADD DUP1 PUSH1 0x40 MSTORE POP DUP2 ADD SWAP1 PUSH2 0x2194 SWAP2 SWAP1 PUSH2 0x4C20 JUMP JUMPDEST SWAP1 POP SWAP5 SWAP4 POP POP POP POP JUMP JUMPDEST PUSH0 DUP1 PUSH2 0x21AB DUP6 DUP6 DUP6 PUSH2 0x1AAD JUMP JUMPDEST DUP1 SWAP3 POP DUP2 SWAP4 POP POP POP PUSH2 0x21BD CALLER DUP4 PUSH2 0x2A78 JUMP JUMPDEST SWAP4 POP SWAP4 SWAP2 POP POP JUMP JUMPDEST PUSH0 DUP1 PUSH0 SWAP1 SLOAD SWAP1 PUSH2 0x100 EXP SWAP1 DIV PUSH20 0xFFFFFFFFFFFFFFFFFFFFFFFFFFFFFFFFFFFFFFFF AND SWAP1 POP DUP2 PUSH0 DUP1 PUSH2 0x100 EXP DUP2 SLOAD DUP2 PUSH20 0xFFFFFFFFFFFFFFFFFFFFFFFFFFFFFFFFFFFFFFFF MUL NOT AND SWAP1 DUP4 PUSH20 0xFFFFFFFFFFFFFFFFFFFFFFFFFFFFFFFFFFFFFFFF AND MUL OR SWAP1 SSTORE POP DUP2 PUSH20 0xFFFFFFFFFFFFFFFFFFFFFFFFFFFFFFFFFFFFFFFF AND DUP2 PUSH20 0xFFFFFFFFFFFFFFFFFFFFFFFFFFFFFFFFFFFFFFFF AND PUSH32 0x8BE0079C531659141344CD1FD0A4F28419497F9722A3DAAFE3B4186F6B6457E0 PUSH1 0x40 MLOAD PUSH1 0x40 MLOAD DUP1 SWAP2 SUB SWAP1 LOG3 POP POP JUMP JUMPDEST PUSH0 DUP3 DUP3 PUSH0 SWAP1 PUSH1 0x2 SWAP3 PUSH2 0x229A SWAP4 SWAP3 SWAP2 SWAP1 PUSH2 0x44E9 JUMP JUMPDEST SWAP1 PUSH2 0x22A5 SWAP2 SWAP1 PUSH2 0x4C76 JUMP JUMPDEST PUSH1 0xF0 SHR SWAP1 POP PUSH1 0x3 PUSH2 0xFFFF AND DUP2 PUSH2 0xFFFF AND EQ PUSH2 0x22F9 JUMPI DUP3 DUP3 PUSH1 0x40 MLOAD PUSH32 0x9A6D49CD00000000000000000000000000000000000000000000000000000000 DUP2 MSTORE PUSH1 0x4 ADD PUSH2 0x22F0 SWAP3 SWAP2 SWAP1 PUSH2 0x45D2 JUMP JUMPDEST PUSH1 0x40 MLOAD DUP1 SWAP2 SUB SWAP1 REVERT JUMPDEST POP POP POP JUMP JUMPDEST PUSH2 0x2306 PUSH2 0x3051 JUMP JUMPDEST PUSH0 PUSH2 0x2313 DUP5 PUSH0 ADD MLOAD PUSH2 0x2AF7 JUMP JUMPDEST SWAP1 POP PUSH0 DUP5 PUSH1 0x20 ADD MLOAD GT ISZERO PUSH2 0x232F JUMPI PUSH2 0x232E DUP5 PUSH1 0x20 ADD MLOAD PUSH2 0x2B44 JUMP JUMPDEST JUMPDEST PUSH32 0x0 PUSH20 0xFFFFFFFFFFFFFFFFFFFFFFFFFFFFFFFFFFFFFFFF AND PUSH4 0x2637A450 DUP3 PUSH1 0x40 MLOAD DUP1 PUSH1 0xA0 ADD PUSH1 0x40 MSTORE DUP1 DUP12 PUSH4 0xFFFFFFFF AND DUP2 MSTORE PUSH1 0x20 ADD PUSH2 0x238C DUP13 PUSH2 0x1B0C JUMP JUMPDEST DUP2 MSTORE PUSH1 0x20 ADD DUP11 DUP2 MSTORE PUSH1 0x20 ADD DUP10 DUP2 MSTORE PUSH1 0x20 ADD PUSH0 DUP10 PUSH1 0x20 ADD MLOAD GT ISZERO ISZERO DUP2 MSTORE POP DUP7 PUSH1 0x40 MLOAD DUP5 PUSH4 0xFFFFFFFF AND PUSH1 0xE0 SHL DUP2 MSTORE PUSH1 0x4 ADD PUSH2 0x23C7 SWAP3 SWAP2 SWAP1 PUSH2 0x4B91 JUMP JUMPDEST PUSH1 0x80 PUSH1 0x40 MLOAD DUP1 DUP4 SUB DUP2 DUP6 DUP9 GAS CALL ISZERO DUP1 ISZERO PUSH2 0x23E3 JUMPI RETURNDATASIZE PUSH0 DUP1 RETURNDATACOPY RETURNDATASIZE PUSH0 REVERT JUMPDEST POP POP POP POP POP PUSH1 0x40 MLOAD RETURNDATASIZE PUSH1 0x1F NOT PUSH1 0x1F DUP3 ADD AND DUP3 ADD DUP1 PUSH1 0x40 MSTORE POP DUP2 ADD SWAP1 PUSH2 0x2408 SWAP2 SWAP1 PUSH2 0x4D5D JUMP JUMPDEST SWAP2 POP POP SWAP6 SWAP5 POP POP POP POP POP JUMP JUMPDEST PUSH2 0x2423 DUP8 DUP8 DUP8 DUP8 DUP8 DUP8 DUP8 PUSH2 0x1B7D JUMP JUMPDEST POP POP POP POP POP POP POP JUMP JUMPDEST PUSH0 PUSH2 0x2437 DUP5 DUP5 PUSH2 0x2C8A JUMP JUMPDEST DUP3 SWAP1 POP SWAP4 SWAP3 POP POP POP JUMP JUMPDEST PUSH0 PUSH20 0xFFFFFFFFFFFFFFFFFFFFFFFFFFFFFFFFFFFFFFFF AND DUP5 PUSH20 0xFFFFFFFFFFFFFFFFFFFFFFFFFFFFFFFFFFFFFFFF AND SUB PUSH2 0x24B1 JUMPI PUSH0 PUSH1 0x40 MLOAD PUSH32 0xE602DF0500000000000000000000000000000000000000000000000000000000 DUP2 MSTORE PUSH1 0x4 ADD PUSH2 0x24A8 SWAP2 SWAP1 PUSH2 0x3494 JUMP JUMPDEST PUSH1 0x40 MLOAD DUP1 SWAP2 SUB SWAP1 REVERT JUMPDEST PUSH0 PUSH20 0xFFFFFFFFFFFFFFFFFFFFFFFFFFFFFFFFFFFFFFFF AND DUP4 PUSH20 0xFFFFFFFFFFFFFFFFFFFFFFFFFFFFFFFFFFFFFFFF AND SUB PUSH2 0x2521 JUMPI PUSH0 PUSH1 0x40 MLOAD PUSH32 0x94280D6200000000000000000000000000000000000000000000000000000000 DUP2 MSTORE PUSH1 0x4 ADD PUSH2 0x2518 SWAP2 SWAP1 PUSH2 0x3494 JUMP JUMPDEST PUSH1 0x40 MLOAD DUP1 SWAP2 SUB SWAP1 REVERT JUMPDEST DUP2 PUSH1 0x6 PUSH0 DUP7 PUSH20 0xFFFFFFFFFFFFFFFFFFFFFFFFFFFFFFFFFFFFFFFF AND PUSH20 0xFFFFFFFFFFFFFFFFFFFFFFFFFFFFFFFFFFFFFFFF AND DUP2 MSTORE PUSH1 0x20 ADD SWAP1 DUP2 MSTORE PUSH1 0x20 ADD PUSH0 KECCAK256 PUSH0 DUP6 PUSH20 0xFFFFFFFFFFFFFFFFFFFFFFFFFFFFFFFFFFFFFFFF AND PUSH20 0xFFFFFFFFFFFFFFFFFFFFFFFFFFFFFFFFFFFFFFFF AND DUP2 MSTORE PUSH1 0x20 ADD SWAP1 DUP2 MSTORE PUSH1 0x20 ADD PUSH0 KECCAK256 DUP2 SWAP1 SSTORE POP DUP1 ISZERO PUSH2 0x260A JUMPI DUP3 PUSH20 0xFFFFFFFFFFFFFFFFFFFFFFFFFFFFFFFFFFFFFFFF AND DUP5 PUSH20 0xFFFFFFFFFFFFFFFFFFFFFFFFFFFFFFFFFFFFFFFF AND PUSH32 0x8C5BE1E5EBEC7D5BD14F71427D1E84F3DD0314C0F7B2291E5B200AC8C7C3B925 DUP5 PUSH1 0x40 MLOAD PUSH2 0x2601 SWAP2 SWAP1 PUSH2 0x3704 JUMP JUMPDEST PUSH1 0x40 MLOAD DUP1 SWAP2 SUB SWAP1 LOG3 JUMPDEST POP POP POP POP JUMP JUMPDEST PUSH0 PUSH32 0x0 PUSH32 0x0 DUP4 PUSH2 0x265E SWAP2 SWAP1 PUSH2 0x4DE2 JUMP JUMPDEST PUSH2 0x2668 SWAP2 SWAP1 PUSH2 0x4E12 JUMP JUMPDEST SWAP1 POP SWAP2 SWAP1 POP JUMP JUMPDEST PUSH0 DUP3 DUP3 PUSH0 SWAP1 PUSH1 0x20 PUSH1 0xFF AND SWAP3 PUSH2 0x2686 SWAP4 SWAP3 SWAP2 SWAP1 PUSH2 0x44E9 JUMP JUMPDEST SWAP1 PUSH2 0x2691 SWAP2 SWAP1 PUSH2 0x4E53 JUMP JUMPDEST SWAP1 POP SWAP3 SWAP2 POP POP JUMP JUMPDEST PUSH0 DUP2 PUSH0 SHR SWAP1 POP SWAP2 SWAP1 POP JUMP JUMPDEST PUSH0 DUP3 DUP3 PUSH1 0x20 PUSH1 0xFF AND SWAP1 PUSH1 0x28 PUSH1 0xFF AND SWAP3 PUSH2 0x26BF SWAP4 SWAP3 SWAP2 SWAP1 PUSH2 0x44E9 JUMP JUMPDEST SWAP1 PUSH2 0x26CA SWAP2 SWAP1 PUSH2 0x4EDC JUMP JUMPDEST PUSH1 0xC0 SHR SWAP1 POP SWAP3 SWAP2 POP POP JUMP JUMPDEST PUSH0 PUSH32 0x0 DUP3 PUSH8 0xFFFFFFFFFFFFFFFF AND PUSH2 0x270C SWAP2 SWAP1 PUSH2 0x4E12 JUMP JUMPDEST SWAP1 POP SWAP2 SWAP1 POP JUMP JUMPDEST PUSH0 PUSH1 0x28 PUSH1 0xFF AND DUP4 DUP4 SWAP1 POP GT SWAP1 POP SWAP3 SWAP2 POP POP JUMP JUMPDEST PUSH1 0x60 DUP3 DUP3 PUSH1 0x28 PUSH1 0xFF AND SWAP1 DUP1 SWAP3 PUSH2 0x273E SWAP4 SWAP3 SWAP2 SWAP1 PUSH2 0x44E9 JUMP JUMPDEST DUP1 DUP1 PUSH1 0x1F ADD PUSH1 0x20 DUP1 SWAP2 DIV MUL PUSH1 0x20 ADD PUSH1 0x40 MLOAD SWAP1 DUP2 ADD PUSH1 0x40 MSTORE DUP1 SWAP4 SWAP3 SWAP2 SWAP1 DUP2 DUP2 MSTORE PUSH1 0x20 ADD DUP4 DUP4 DUP1 DUP3 DUP5 CALLDATACOPY PUSH0 DUP2 DUP5 ADD MSTORE PUSH1 0x1F NOT PUSH1 0x1F DUP3 ADD AND SWAP1 POP DUP1 DUP4 ADD SWAP3 POP POP POP POP POP POP POP SWAP1 POP SWAP3 SWAP2 POP POP JUMP JUMPDEST PUSH1 0x60 DUP5 DUP5 DUP5 DUP5 PUSH1 0x40 MLOAD PUSH1 0x20 ADD PUSH2 0x27A1 SWAP5 SWAP4 SWAP3 SWAP2 SWAP1 PUSH2 0x4FC2 JUMP JUMPDEST PUSH1 0x40 MLOAD PUSH1 0x20 DUP2 DUP4 SUB SUB DUP2 MSTORE SWAP1 PUSH1 0x40 MSTORE SWAP1 POP SWAP5 SWAP4 POP POP POP POP JUMP JUMPDEST PUSH0 PUSH20 0xFFFFFFFFFFFFFFFFFFFFFFFFFFFFFFFFFFFFFFFF AND DUP4 PUSH20 0xFFFFFFFFFFFFFFFFFFFFFFFFFFFFFFFFFFFFFFFF AND SUB PUSH2 0x280A JUMPI DUP1 PUSH1 0x7 PUSH0 DUP3 DUP3 SLOAD PUSH2 0x27FE SWAP2 SWAP1 PUSH2 0x500B JUMP JUMPDEST SWAP3 POP POP DUP2 SWAP1 SSTORE POP PUSH2 0x28DA JUMP JUMPDEST PUSH0 PUSH1 0x5 PUSH0 DUP6 PUSH20 0xFFFFFFFFFFFFFFFFFFFFFFFFFFFFFFFFFFFFFFFF AND PUSH20 0xFFFFFFFFFFFFFFFFFFFFFFFFFFFFFFFFFFFFFFFF AND DUP2 MSTORE PUSH1 0x20 ADD SWAP1 DUP2 MSTORE PUSH1 0x20 ADD PUSH0 KECCAK256 SLOAD SWAP1 POP DUP2 DUP2 LT ISZERO PUSH2 0x2894 JUMPI DUP4 DUP2 DUP4 PUSH1 0x40 MLOAD PUSH32 0xE450D38C00000000000000000000000000000000000000000000000000000000 DUP2 MSTORE PUSH1 0x4 ADD PUSH2 0x288B SWAP4 SWAP3 SWAP2 SWAP1 PUSH2 0x4A27 JUMP JUMPDEST PUSH1 0x40 MLOAD DUP1 SWAP2 SUB SWAP1 REVERT JUMPDEST DUP2 DUP2 SUB PUSH1 0x5 PUSH0 DUP7 PUSH20 0xFFFFFFFFFFFFFFFFFFFFFFFFFFFFFFFFFFFFFFFF AND PUSH20 0xFFFFFFFFFFFFFFFFFFFFFFFFFFFFFFFFFFFFFFFF AND DUP2 MSTORE PUSH1 0x20 ADD SWAP1 DUP2 MSTORE PUSH1 0x20 ADD PUSH0 KECCAK256 DUP2 SWAP1 SSTORE POP POP JUMPDEST PUSH0 PUSH20 0xFFFFFFFFFFFFFFFFFFFFFFFFFFFFFFFFFFFFFFFF AND DUP3 PUSH20 0xFFFFFFFFFFFFFFFFFFFFFFFFFFFFFFFFFFFFFFFF AND SUB PUSH2 0x2921 JUMPI DUP1 PUSH1 0x7 PUSH0 DUP3 DUP3 SLOAD SUB SWAP3 POP POP DUP2 SWAP1 SSTORE POP PUSH2 0x296C JUMP JUMPDEST DUP1 PUSH1 0x5 PUSH0 DUP5 PUSH20 0xFFFFFFFFFFFFFFFFFFFFFFFFFFFFFFFFFFFFFFFF AND PUSH20 0xFFFFFFFFFFFFFFFFFFFFFFFFFFFFFFFFFFFFFFFF AND DUP2 MSTORE PUSH1 0x20 ADD SWAP1 DUP2 MSTORE PUSH1 0x20 ADD PUSH0 KECCAK256 PUSH0 DUP3 DUP3 SLOAD ADD SWAP3 POP POP DUP2 SWAP1 SSTORE POP JUMPDEST DUP2 PUSH20 0xFFFFFFFFFFFFFFFFFFFFFFFFFFFFFFFFFFFFFFFF AND DUP4 PUSH20 0xFFFFFFFFFFFFFFFFFFFFFFFFFFFFFFFFFFFFFFFF AND PUSH32 0xDDF252AD1BE2C89B69C2B068FC378DAA952BA7F163C4A11628F55A4DF523B3EF DUP4 PUSH1 0x40 MLOAD PUSH2 0x29C9 SWAP2 SWAP1 PUSH2 0x3704 JUMP JUMPDEST PUSH1 0x40 MLOAD DUP1 SWAP2 SUB SWAP1 LOG3 POP POP POP JUMP JUMPDEST PUSH0 PUSH32 0x0 DUP3 PUSH2 0x2A03 SWAP2 SWAP1 PUSH2 0x4DE2 JUMP JUMPDEST SWAP1 POP SWAP2 SWAP1 POP JUMP JUMPDEST PUSH1 0x60 PUSH0 DUP1 DUP4 MLOAD GT SWAP1 POP DUP1 PUSH2 0x2A3F JUMPI DUP5 DUP5 PUSH1 0x40 MLOAD PUSH1 0x20 ADD PUSH2 0x2A2B SWAP3 SWAP2 SWAP1 PUSH2 0x505E JUMP JUMPDEST PUSH1 0x40 MLOAD PUSH1 0x20 DUP2 DUP4 SUB SUB DUP2 MSTORE SWAP1 PUSH1 0x40 MSTORE PUSH2 0x2A6E JUMP JUMPDEST DUP5 DUP5 PUSH2 0x2A4A CALLER PUSH2 0x2D09 JUMP JUMPDEST DUP6 PUSH1 0x40 MLOAD PUSH1 0x20 ADD PUSH2 0x2A5E SWAP5 SWAP4 SWAP3 SWAP2 SWAP1 PUSH2 0x5089 JUMP JUMPDEST PUSH1 0x40 MLOAD PUSH1 0x20 DUP2 DUP4 SUB SUB DUP2 MSTORE SWAP1 PUSH1 0x40 MSTORE JUMPDEST SWAP2 POP SWAP4 POP SWAP4 SWAP2 POP POP JUMP JUMPDEST PUSH0 PUSH20 0xFFFFFFFFFFFFFFFFFFFFFFFFFFFFFFFFFFFFFFFF AND DUP3 PUSH20 0xFFFFFFFFFFFFFFFFFFFFFFFFFFFFFFFFFFFFFFFF AND SUB PUSH2 0x2AE8 JUMPI PUSH0 PUSH1 0x40 MLOAD PUSH32 0x96C6FD1E00000000000000000000000000000000000000000000000000000000 DUP2 MSTORE PUSH1 0x4 ADD PUSH2 0x2ADF SWAP2 SWAP1 PUSH2 0x3494 JUMP JUMPDEST PUSH1 0x40 MLOAD DUP1 SWAP2 SUB SWAP1 REVERT JUMPDEST PUSH2 0x2AF3 DUP3 PUSH0 DUP4 PUSH2 0x27BA JUMP JUMPDEST POP POP JUMP JUMPDEST PUSH0 DUP2 CALLVALUE EQ PUSH2 0x2B3C JUMPI CALLVALUE PUSH1 0x40 MLOAD PUSH32 0x9F70412000000000000000000000000000000000000000000000000000000000 DUP2 MSTORE PUSH1 0x4 ADD PUSH2 0x2B33 SWAP2 SWAP1 PUSH2 0x3704 JUMP JUMPDEST PUSH1 0x40 MLOAD DUP1 SWAP2 SUB SWAP1 REVERT JUMPDEST DUP2 SWAP1 POP SWAP2 SWAP1 POP JUMP JUMPDEST PUSH0 PUSH32 0x0 PUSH20 0xFFFFFFFFFFFFFFFFFFFFFFFFFFFFFFFFFFFFFFFF AND PUSH4 0xE4FE1D94 PUSH1 0x40 MLOAD DUP2 PUSH4 0xFFFFFFFF AND PUSH1 0xE0 SHL DUP2 MSTORE PUSH1 0x4 ADD PUSH1 0x20 PUSH1 0x40 MLOAD DUP1 DUP4 SUB DUP2 DUP7 GAS STATICCALL ISZERO DUP1 ISZERO PUSH2 0x2BAE JUMPI RETURNDATASIZE PUSH0 DUP1 RETURNDATACOPY RETURNDATASIZE PUSH0 REVERT JUMPDEST POP POP POP POP PUSH1 0x40 MLOAD RETURNDATASIZE PUSH1 0x1F NOT PUSH1 0x1F DUP3 ADD AND DUP3 ADD DUP1 PUSH1 0x40 MSTORE POP DUP2 ADD SWAP1 PUSH2 0x2BD2 SWAP2 SWAP1 PUSH2 0x50E6 JUMP JUMPDEST SWAP1 POP PUSH0 PUSH20 0xFFFFFFFFFFFFFFFFFFFFFFFFFFFFFFFFFFFFFFFF AND DUP2 PUSH20 0xFFFFFFFFFFFFFFFFFFFFFFFFFFFFFFFFFFFFFFFF AND SUB PUSH2 0x2C39 JUMPI PUSH1 0x40 MLOAD PUSH32 0x5373352A00000000000000000000000000000000000000000000000000000000 DUP2 MSTORE PUSH1 0x4 ADD PUSH1 0x40 MLOAD DUP1 SWAP2 SUB SWAP1 REVERT JUMPDEST PUSH2 0x2C86 CALLER PUSH32 0x0 DUP5 DUP5 PUSH20 0xFFFFFFFFFFFFFFFFFFFFFFFFFFFFFFFFFFFFFFFF AND PUSH2 0x2D2A SWAP1 SWAP4 SWAP3 SWAP2 SWAP1 PUSH4 0xFFFFFFFF AND JUMP JUMPDEST POP POP JUMP JUMPDEST PUSH0 PUSH20 0xFFFFFFFFFFFFFFFFFFFFFFFFFFFFFFFFFFFFFFFF AND DUP3 PUSH20 0xFFFFFFFFFFFFFFFFFFFFFFFFFFFFFFFFFFFFFFFF AND SUB PUSH2 0x2CFA JUMPI PUSH0 PUSH1 0x40 MLOAD PUSH32 0xEC442F0500000000000000000000000000000000000000000000000000000000 DUP2 MSTORE PUSH1 0x4 ADD PUSH2 0x2CF1 SWAP2 SWAP1 PUSH2 0x3494 JUMP JUMPDEST PUSH1 0x40 MLOAD DUP1 SWAP2 SUB SWAP1 REVERT JUMPDEST PUSH2 0x2D05 PUSH0 DUP4 DUP4 PUSH2 0x27BA JUMP JUMPDEST POP POP JUMP JUMPDEST PUSH0 DUP2 PUSH20 0xFFFFFFFFFFFFFFFFFFFFFFFFFFFFFFFFFFFFFFFF AND PUSH0 SHL SWAP1 POP SWAP2 SWAP1 POP JUMP JUMPDEST PUSH2 0x2DA6 DUP5 DUP6 PUSH20 0xFFFFFFFFFFFFFFFFFFFFFFFFFFFFFFFFFFFFFFFF AND PUSH4 0x23B872DD DUP7 DUP7 DUP7 PUSH1 0x40 MLOAD PUSH1 0x24 ADD PUSH2 0x2D5F SWAP4 SWAP3 SWAP2 SWAP1 PUSH2 0x5111 JUMP JUMPDEST PUSH1 0x40 MLOAD PUSH1 0x20 DUP2 DUP4 SUB SUB DUP2 MSTORE SWAP1 PUSH1 0x40 MSTORE SWAP2 POP PUSH1 0xE0 SHL PUSH1 0x20 DUP3 ADD DUP1 MLOAD PUSH28 0xFFFFFFFFFFFFFFFFFFFFFFFFFFFFFFFFFFFFFFFFFFFFFFFFFFFFFFFF DUP4 DUP2 DUP4 AND OR DUP4 MSTORE POP POP POP POP PUSH2 0x2DAC JUMP JUMPDEST POP POP POP POP JUMP JUMPDEST PUSH0 PUSH2 0x2DD6 DUP3 DUP5 PUSH20 0xFFFFFFFFFFFFFFFFFFFFFFFFFFFFFFFFFFFFFFFF AND PUSH2 0x2E41 SWAP1 SWAP2 SWAP1 PUSH4 0xFFFFFFFF AND JUMP JUMPDEST SWAP1 POP PUSH0 DUP2 MLOAD EQ ISZERO DUP1 ISZERO PUSH2 0x2DFA JUMPI POP DUP1 DUP1 PUSH1 0x20 ADD SWAP1 MLOAD DUP2 ADD SWAP1 PUSH2 0x2DF8 SWAP2 SWAP1 PUSH2 0x4AA5 JUMP JUMPDEST ISZERO JUMPDEST ISZERO PUSH2 0x2E3C JUMPI DUP3 PUSH1 0x40 MLOAD PUSH32 0x5274AFE700000000000000000000000000000000000000000000000000000000 DUP2 MSTORE PUSH1 0x4 ADD PUSH2 0x2E33 SWAP2 SWAP1 PUSH2 0x3494 JUMP JUMPDEST PUSH1 0x40 MLOAD DUP1 SWAP2 SUB SWAP1 REVERT JUMPDEST POP POP POP JUMP JUMPDEST PUSH1 0x60 PUSH2 0x2E4E DUP4 DUP4 PUSH0 PUSH2 0x2E56 JUMP JUMPDEST SWAP1 POP SWAP3 SWAP2 POP POP JUMP JUMPDEST PUSH1 0x60 DUP2 SELFBALANCE LT ISZERO PUSH2 0x2E9D JUMPI ADDRESS PUSH1 0x40 MLOAD PUSH32 0xCD78605900000000000000000000000000000000000000000000000000000000 DUP2 MSTORE PUSH1 0x4 ADD PUSH2 0x2E94 SWAP2 SWAP1 PUSH2 0x3494 JUMP JUMPDEST PUSH1 0x40 MLOAD DUP1 SWAP2 SUB SWAP1 REVERT JUMPDEST PUSH0 DUP1 DUP6 PUSH20 0xFFFFFFFFFFFFFFFFFFFFFFFFFFFFFFFFFFFFFFFF AND DUP5 DUP7 PUSH1 0x40 MLOAD PUSH2 0x2EC5 SWAP2 SWAP1 PUSH2 0x5146 JUMP JUMPDEST PUSH0 PUSH1 0x40 MLOAD DUP1 DUP4 SUB DUP2 DUP6 DUP8 GAS CALL SWAP3 POP POP POP RETURNDATASIZE DUP1 PUSH0 DUP2 EQ PUSH2 0x2EFF JUMPI PUSH1 0x40 MLOAD SWAP2 POP PUSH1 0x1F NOT PUSH1 0x3F RETURNDATASIZE ADD AND DUP3 ADD PUSH1 0x40 MSTORE RETURNDATASIZE DUP3 MSTORE RETURNDATASIZE PUSH0 PUSH1 0x20 DUP5 ADD RETURNDATACOPY PUSH2 0x2F04 JUMP JUMPDEST PUSH1 0x60 SWAP2 POP JUMPDEST POP SWAP2 POP SWAP2 POP PUSH2 0x2F14 DUP7 DUP4 DUP4 PUSH2 0x2F1F JUMP JUMPDEST SWAP3 POP POP POP SWAP4 SWAP3 POP POP POP JUMP JUMPDEST PUSH1 0x60 DUP3 PUSH2 0x2F34 JUMPI PUSH2 0x2F2F DUP3 PUSH2 0x2FAC JUMP JUMPDEST PUSH2 0x2FA4 JUMP JUMPDEST PUSH0 DUP3 MLOAD EQ DUP1 ISZERO PUSH2 0x2F5A JUMPI POP PUSH0 DUP5 PUSH20 0xFFFFFFFFFFFFFFFFFFFFFFFFFFFFFFFFFFFFFFFF AND EXTCODESIZE EQ JUMPDEST ISZERO PUSH2 0x2F9C JUMPI DUP4 PUSH1 0x40 MLOAD PUSH32 0x9996B31500000000000000000000000000000000000000000000000000000000 DUP2 MSTORE PUSH1 0x4 ADD PUSH2 0x2F93 SWAP2 SWAP1 PUSH2 0x3494 JUMP JUMPDEST PUSH1 0x40 MLOAD DUP1 SWAP2 SUB SWAP1 REVERT JUMPDEST DUP2 SWAP1 POP PUSH2 0x2FA5 JUMP JUMPDEST JUMPDEST SWAP4 SWAP3 POP POP POP JUMP JUMPDEST PUSH0 DUP2 MLOAD GT ISZERO PUSH2 0x2FBE JUMPI DUP1 MLOAD DUP1 DUP3 PUSH1 0x20 ADD REVERT JUMPDEST PUSH1 0x40 MLOAD PUSH32 0x1425EA4200000000000000000000000000000000000000000000000000000000 DUP2 MSTORE PUSH1 0x4 ADD PUSH1 0x40 MLOAD DUP1 SWAP2 SUB SWAP1 REVERT JUMPDEST PUSH1 0x40 MLOAD DUP1 PUSH1 0x40 ADD PUSH1 0x40 MSTORE DUP1 PUSH0 DUP2 MSTORE PUSH1 0x20 ADD PUSH0 DUP2 MSTORE POP SWAP1 JUMP JUMPDEST PUSH1 0x40 MLOAD DUP1 PUSH1 0x40 ADD PUSH1 0x40 MSTORE DUP1 PUSH0 DUP2 MSTORE PUSH1 0x20 ADD PUSH0 DUP2 MSTORE POP SWAP1 JUMP JUMPDEST PUSH1 0x40 MLOAD DUP1 PUSH1 0x40 ADD PUSH1 0x40 MSTORE DUP1 PUSH0 DUP2 MSTORE PUSH1 0x20 ADD PUSH1 0x60 DUP2 MSTORE POP SWAP1 JUMP JUMPDEST PUSH1 0x40 MLOAD DUP1 PUSH1 0x40 ADD PUSH1 0x40 MSTORE DUP1 PUSH0 DUP2 MSTORE PUSH1 0x20 ADD PUSH0 DUP2 MSTORE POP SWAP1 JUMP JUMPDEST PUSH1 0x40 MLOAD DUP1 PUSH1 0x60 ADD PUSH1 0x40 MSTORE DUP1 PUSH0 DUP1 NOT AND DUP2 MSTORE PUSH1 0x20 ADD PUSH0 PUSH8 0xFFFFFFFFFFFFFFFF AND DUP2 MSTORE PUSH1 0x20 ADD PUSH2 0x307D PUSH2 0x3039 JUMP JUMPDEST DUP2 MSTORE POP SWAP1 JUMP JUMPDEST PUSH0 DUP2 MLOAD SWAP1 POP SWAP2 SWAP1 POP JUMP JUMPDEST PUSH0 DUP3 DUP3 MSTORE PUSH1 0x20 DUP3 ADD SWAP1 POP SWAP3 SWAP2 POP POP JUMP JUMPDEST DUP3 DUP2 DUP4 MCOPY PUSH0 DUP4 DUP4 ADD MSTORE POP POP POP JUMP JUMPDEST PUSH0 PUSH1 0x1F NOT PUSH1 0x1F DUP4 ADD AND SWAP1 POP SWAP2 SWAP1 POP JUMP JUMPDEST PUSH0 PUSH2 0x30C5 DUP3 PUSH2 0x3083 JUMP JUMPDEST PUSH2 0x30CF DUP2 DUP6 PUSH2 0x308D JUMP JUMPDEST SWAP4 POP PUSH2 0x30DF DUP2 DUP6 PUSH1 0x20 DUP7 ADD PUSH2 0x309D JUMP JUMPDEST PUSH2 0x30E8 DUP2 PUSH2 0x30AB JUMP JUMPDEST DUP5 ADD SWAP2 POP POP SWAP3 SWAP2 POP POP JUMP JUMPDEST PUSH0 PUSH1 0x20 DUP3 ADD SWAP1 POP DUP2 DUP2 SUB PUSH0 DUP4 ADD MSTORE PUSH2 0x310B DUP2 DUP5 PUSH2 0x30BB JUMP JUMPDEST SWAP1 POP SWAP3 SWAP2 POP POP JUMP JUMPDEST PUSH0 PUSH1 0x40 MLOAD SWAP1 POP SWAP1 JUMP JUMPDEST PUSH0 DUP1 REVERT JUMPDEST PUSH0 DUP1 REVERT JUMPDEST PUSH0 PUSH20 0xFFFFFFFFFFFFFFFFFFFFFFFFFFFFFFFFFFFFFFFF DUP3 AND SWAP1 POP SWAP2 SWAP1 POP JUMP JUMPDEST PUSH0 PUSH2 0x314D DUP3 PUSH2 0x3124 JUMP JUMPDEST SWAP1 POP SWAP2 SWAP1 POP JUMP JUMPDEST PUSH2 0x315D DUP2 PUSH2 0x3143 JUMP JUMPDEST DUP2 EQ PUSH2 0x3167 JUMPI PUSH0 DUP1 REVERT JUMPDEST POP JUMP JUMPDEST PUSH0 DUP2 CALLDATALOAD SWAP1 POP PUSH2 0x3178 DUP2 PUSH2 0x3154 JUMP JUMPDEST SWAP3 SWAP2 POP POP JUMP JUMPDEST PUSH0 DUP2 SWAP1 POP SWAP2 SWAP1 POP JUMP JUMPDEST PUSH2 0x3190 DUP2 PUSH2 0x317E JUMP JUMPDEST DUP2 EQ PUSH2 0x319A JUMPI PUSH0 DUP1 REVERT JUMPDEST POP JUMP JUMPDEST PUSH0 DUP2 CALLDATALOAD SWAP1 POP PUSH2 0x31AB DUP2 PUSH2 0x3187 JUMP JUMPDEST SWAP3 SWAP2 POP POP JUMP JUMPDEST PUSH0 DUP1 PUSH1 0x40 DUP4 DUP6 SUB SLT ISZERO PUSH2 0x31C7 JUMPI PUSH2 0x31C6 PUSH2 0x311C JUMP JUMPDEST JUMPDEST PUSH0 PUSH2 0x31D4 DUP6 DUP3 DUP7 ADD PUSH2 0x316A JUMP JUMPDEST SWAP3 POP POP PUSH1 0x20 PUSH2 0x31E5 DUP6 DUP3 DUP7 ADD PUSH2 0x319D JUMP JUMPDEST SWAP2 POP POP SWAP3 POP SWAP3 SWAP1 POP JUMP JUMPDEST PUSH0 DUP2 ISZERO ISZERO SWAP1 POP SWAP2 SWAP1 POP JUMP JUMPDEST PUSH2 0x3203 DUP2 PUSH2 0x31EF JUMP JUMPDEST DUP3 MSTORE POP POP JUMP JUMPDEST PUSH0 PUSH1 0x20 DUP3 ADD SWAP1 POP PUSH2 0x321C PUSH0 DUP4 ADD DUP5 PUSH2 0x31FA JUMP JUMPDEST SWAP3 SWAP2 POP POP JUMP JUMPDEST PUSH0 DUP1 REVERT JUMPDEST PUSH0 PUSH1 0xE0 DUP3 DUP5 SUB SLT ISZERO PUSH2 0x323B JUMPI PUSH2 0x323A PUSH2 0x3222 JUMP JUMPDEST JUMPDEST DUP2 SWAP1 POP SWAP3 SWAP2 POP POP JUMP JUMPDEST PUSH0 PUSH1 0x20 DUP3 DUP5 SUB SLT ISZERO PUSH2 0x3259 JUMPI PUSH2 0x3258 PUSH2 0x311C JUMP JUMPDEST JUMPDEST PUSH0 DUP3 ADD CALLDATALOAD PUSH8 0xFFFFFFFFFFFFFFFF DUP2 GT ISZERO PUSH2 0x3276 JUMPI PUSH2 0x3275 PUSH2 0x3120 JUMP JUMPDEST JUMPDEST PUSH2 0x3282 DUP5 DUP3 DUP6 ADD PUSH2 0x3226 JUMP JUMPDEST SWAP2 POP POP SWAP3 SWAP2 POP POP JUMP JUMPDEST PUSH2 0x3294 DUP2 PUSH2 0x317E JUMP JUMPDEST DUP3 MSTORE POP POP JUMP JUMPDEST PUSH1 0x40 DUP3 ADD PUSH0 DUP3 ADD MLOAD PUSH2 0x32AE PUSH0 DUP6 ADD DUP3 PUSH2 0x328B JUMP JUMPDEST POP PUSH1 0x20 DUP3 ADD MLOAD PUSH2 0x32C1 PUSH1 0x20 DUP6 ADD DUP3 PUSH2 0x328B JUMP JUMPDEST POP POP POP POP JUMP JUMPDEST PUSH0 DUP2 MLOAD SWAP1 POP SWAP2 SWAP1 POP JUMP JUMPDEST PUSH0 DUP3 DUP3 MSTORE PUSH1 0x20 DUP3 ADD SWAP1 POP SWAP3 SWAP2 POP POP JUMP JUMPDEST PUSH0 DUP2 SWAP1 POP PUSH1 0x20 DUP3 ADD SWAP1 POP SWAP2 SWAP1 POP JUMP JUMPDEST PUSH0 DUP2 SWAP1 POP SWAP2 SWAP1 POP JUMP JUMPDEST PUSH2 0x3302 DUP2 PUSH2 0x32F0 JUMP JUMPDEST DUP3 MSTORE POP POP JUMP JUMPDEST PUSH0 DUP3 DUP3 MSTORE PUSH1 0x20 DUP3 ADD SWAP1 POP SWAP3 SWAP2 POP POP JUMP JUMPDEST PUSH0 PUSH2 0x3322 DUP3 PUSH2 0x3083 JUMP JUMPDEST PUSH2 0x332C DUP2 DUP6 PUSH2 0x3308 JUMP JUMPDEST SWAP4 POP PUSH2 0x333C DUP2 DUP6 PUSH1 0x20 DUP7 ADD PUSH2 0x309D JUMP JUMPDEST PUSH2 0x3345 DUP2 PUSH2 0x30AB JUMP JUMPDEST DUP5 ADD SWAP2 POP POP SWAP3 SWAP2 POP POP JUMP JUMPDEST PUSH0 PUSH1 0x40 DUP4 ADD PUSH0 DUP4 ADD MLOAD PUSH2 0x3365 PUSH0 DUP7 ADD DUP3 PUSH2 0x32F9 JUMP JUMPDEST POP PUSH1 0x20 DUP4 ADD MLOAD DUP5 DUP3 SUB PUSH1 0x20 DUP7 ADD MSTORE PUSH2 0x337D DUP3 DUP3 PUSH2 0x3318 JUMP JUMPDEST SWAP2 POP POP DUP1 SWAP2 POP POP SWAP3 SWAP2 POP POP JUMP JUMPDEST PUSH0 PUSH2 0x3395 DUP4 DUP4 PUSH2 0x3350 JUMP JUMPDEST SWAP1 POP SWAP3 SWAP2 POP POP JUMP JUMPDEST PUSH0 PUSH1 0x20 DUP3 ADD SWAP1 POP SWAP2 SWAP1 POP JUMP JUMPDEST PUSH0 PUSH2 0x33B3 DUP3 PUSH2 0x32C7 JUMP JUMPDEST PUSH2 0x33BD DUP2 DUP6 PUSH2 0x32D1 JUMP JUMPDEST SWAP4 POP DUP4 PUSH1 0x20 DUP3 MUL DUP6 ADD PUSH2 0x33CF DUP6 PUSH2 0x32E1 JUMP JUMPDEST DUP1 PUSH0 JUMPDEST DUP6 DUP2 LT ISZERO PUSH2 0x340A JUMPI DUP5 DUP5 SUB DUP10 MSTORE DUP2 MLOAD PUSH2 0x33EB DUP6 DUP3 PUSH2 0x338A JUMP JUMPDEST SWAP5 POP PUSH2 0x33F6 DUP4 PUSH2 0x339D JUMP JUMPDEST SWAP3 POP PUSH1 0x20 DUP11 ADD SWAP10 POP POP PUSH1 0x1 DUP2 ADD SWAP1 POP PUSH2 0x33D2 JUMP JUMPDEST POP DUP3 SWAP8 POP DUP8 SWAP6 POP POP POP POP POP POP SWAP3 SWAP2 POP POP JUMP JUMPDEST PUSH1 0x40 DUP3 ADD PUSH0 DUP3 ADD MLOAD PUSH2 0x3430 PUSH0 DUP6 ADD DUP3 PUSH2 0x328B JUMP JUMPDEST POP PUSH1 0x20 DUP3 ADD MLOAD PUSH2 0x3443 PUSH1 0x20 DUP6 ADD DUP3 PUSH2 0x328B JUMP JUMPDEST POP POP POP POP JUMP JUMPDEST PUSH0 PUSH1 0xA0 DUP3 ADD SWAP1 POP PUSH2 0x345C PUSH0 DUP4 ADD DUP7 PUSH2 0x329A JUMP JUMPDEST DUP2 DUP2 SUB PUSH1 0x40 DUP4 ADD MSTORE PUSH2 0x346E DUP2 DUP6 PUSH2 0x33A9 JUMP JUMPDEST SWAP1 POP PUSH2 0x347D PUSH1 0x60 DUP4 ADD DUP5 PUSH2 0x341C JUMP JUMPDEST SWAP5 SWAP4 POP POP POP POP JUMP JUMPDEST PUSH2 0x348E DUP2 PUSH2 0x3143 JUMP JUMPDEST DUP3 MSTORE POP POP JUMP JUMPDEST PUSH0 PUSH1 0x20 DUP3 ADD SWAP1 POP PUSH2 0x34A7 PUSH0 DUP4 ADD DUP5 PUSH2 0x3485 JUMP JUMPDEST SWAP3 SWAP2 POP POP JUMP JUMPDEST PUSH0 PUSH1 0x60 DUP3 DUP5 SUB SLT ISZERO PUSH2 0x34C2 JUMPI PUSH2 0x34C1 PUSH2 0x3222 JUMP JUMPDEST JUMPDEST DUP2 SWAP1 POP SWAP3 SWAP2 POP POP JUMP JUMPDEST PUSH0 DUP2 SWAP1 POP SWAP2 SWAP1 POP JUMP JUMPDEST PUSH2 0x34DD DUP2 PUSH2 0x34CB JUMP JUMPDEST DUP2 EQ PUSH2 0x34E7 JUMPI PUSH0 DUP1 REVERT JUMPDEST POP JUMP JUMPDEST PUSH0 DUP2 CALLDATALOAD SWAP1 POP PUSH2 0x34F8 DUP2 PUSH2 0x34D4 JUMP JUMPDEST SWAP3 SWAP2 POP POP JUMP JUMPDEST PUSH0 DUP1 REVERT JUMPDEST PUSH0 DUP1 REVERT JUMPDEST PUSH0 DUP1 REVERT JUMPDEST PUSH0 DUP1 DUP4 PUSH1 0x1F DUP5 ADD SLT PUSH2 0x351F JUMPI PUSH2 0x351E PUSH2 0x34FE JUMP JUMPDEST JUMPDEST DUP3 CALLDATALOAD SWAP1 POP PUSH8 0xFFFFFFFFFFFFFFFF DUP2 GT ISZERO PUSH2 0x353C JUMPI PUSH2 0x353B PUSH2 0x3502 JUMP JUMPDEST JUMPDEST PUSH1 0x20 DUP4 ADD SWAP2 POP DUP4 PUSH1 0x1 DUP3 MUL DUP4 ADD GT ISZERO PUSH2 0x3558 JUMPI PUSH2 0x3557 PUSH2 0x3506 JUMP JUMPDEST JUMPDEST SWAP3 POP SWAP3 SWAP1 POP JUMP JUMPDEST PUSH0 DUP1 PUSH0 DUP1 PUSH0 DUP1 PUSH0 PUSH1 0xE0 DUP9 DUP11 SUB SLT ISZERO PUSH2 0x357A JUMPI PUSH2 0x3579 PUSH2 0x311C JUMP JUMPDEST JUMPDEST PUSH0 PUSH2 0x3587 DUP11 DUP3 DUP12 ADD PUSH2 0x34AD JUMP JUMPDEST SWAP8 POP POP PUSH1 0x60 PUSH2 0x3598 DUP11 DUP3 DUP12 ADD PUSH2 0x34EA JUMP JUMPDEST SWAP7 POP POP PUSH1 0x80 DUP9 ADD CALLDATALOAD PUSH8 0xFFFFFFFFFFFFFFFF DUP2 GT ISZERO PUSH2 0x35B9 JUMPI PUSH2 0x35B8 PUSH2 0x3120 JUMP JUMPDEST JUMPDEST PUSH2 0x35C5 DUP11 DUP3 DUP12 ADD PUSH2 0x350A JUMP JUMPDEST SWAP6 POP SWAP6 POP POP PUSH1 0xA0 PUSH2 0x35D8 DUP11 DUP3 DUP12 ADD PUSH2 0x316A JUMP JUMPDEST SWAP4 POP POP PUSH1 0xC0 DUP9 ADD CALLDATALOAD PUSH8 0xFFFFFFFFFFFFFFFF DUP2 GT ISZERO PUSH2 0x35F9 JUMPI PUSH2 0x35F8 PUSH2 0x3120 JUMP JUMPDEST JUMPDEST PUSH2 0x3605 DUP11 DUP3 DUP12 ADD PUSH2 0x350A JUMP JUMPDEST SWAP3 POP SWAP3 POP POP SWAP3 SWAP6 SWAP9 SWAP2 SWAP5 SWAP8 POP SWAP3 SWAP6 POP JUMP JUMPDEST PUSH0 PUSH2 0xFFFF DUP3 AND SWAP1 POP SWAP2 SWAP1 POP JUMP JUMPDEST PUSH2 0x362C DUP2 PUSH2 0x3616 JUMP JUMPDEST DUP3 MSTORE POP POP JUMP JUMPDEST PUSH0 PUSH1 0x20 DUP3 ADD SWAP1 POP PUSH2 0x3645 PUSH0 DUP4 ADD DUP5 PUSH2 0x3623 JUMP JUMPDEST SWAP3 SWAP2 POP POP JUMP JUMPDEST PUSH0 PUSH32 0xFFFFFFFF00000000000000000000000000000000000000000000000000000000 DUP3 AND SWAP1 POP SWAP2 SWAP1 POP JUMP JUMPDEST PUSH2 0x367F DUP2 PUSH2 0x364B JUMP JUMPDEST DUP3 MSTORE POP POP JUMP JUMPDEST PUSH0 PUSH8 0xFFFFFFFFFFFFFFFF DUP3 AND SWAP1 POP SWAP2 SWAP1 POP JUMP JUMPDEST PUSH2 0x36A1 DUP2 PUSH2 0x3685 JUMP JUMPDEST DUP3 MSTORE POP POP JUMP JUMPDEST PUSH0 PUSH1 0x40 DUP3 ADD SWAP1 POP PUSH2 0x36BA PUSH0 DUP4 ADD DUP6 PUSH2 0x3676 JUMP JUMPDEST PUSH2 0x36C7 PUSH1 0x20 DUP4 ADD DUP5 PUSH2 0x3698 JUMP JUMPDEST SWAP4 SWAP3 POP POP POP JUMP JUMPDEST PUSH0 PUSH1 0x40 DUP3 ADD SWAP1 POP PUSH2 0x36E1 PUSH0 DUP4 ADD DUP6 PUSH2 0x3698 JUMP JUMPDEST PUSH2 0x36EE PUSH1 0x20 DUP4 ADD DUP5 PUSH2 0x3698 JUMP JUMPDEST SWAP4 SWAP3 POP POP POP JUMP JUMPDEST PUSH2 0x36FE DUP2 PUSH2 0x317E JUMP JUMPDEST DUP3 MSTORE POP POP JUMP JUMPDEST PUSH0 PUSH1 0x20 DUP3 ADD SWAP1 POP PUSH2 0x3717 PUSH0 DUP4 ADD DUP5 PUSH2 0x36F5 JUMP JUMPDEST SWAP3 SWAP2 POP POP JUMP JUMPDEST PUSH0 DUP1 PUSH0 PUSH1 0x60 DUP5 DUP7 SUB SLT ISZERO PUSH2 0x3734 JUMPI PUSH2 0x3733 PUSH2 0x311C JUMP JUMPDEST JUMPDEST PUSH0 PUSH2 0x3741 DUP7 DUP3 DUP8 ADD PUSH2 0x316A JUMP JUMPDEST SWAP4 POP POP PUSH1 0x20 PUSH2 0x3752 DUP7 DUP3 DUP8 ADD PUSH2 0x316A JUMP JUMPDEST SWAP3 POP POP PUSH1 0x40 PUSH2 0x3763 DUP7 DUP3 DUP8 ADD PUSH2 0x319D JUMP JUMPDEST SWAP2 POP POP SWAP3 POP SWAP3 POP SWAP3 JUMP JUMPDEST PUSH0 PUSH1 0xFF DUP3 AND SWAP1 POP SWAP2 SWAP1 POP JUMP JUMPDEST PUSH2 0x3782 DUP2 PUSH2 0x376D JUMP JUMPDEST DUP3 MSTORE POP POP JUMP JUMPDEST PUSH0 PUSH1 0x20 DUP3 ADD SWAP1 POP PUSH2 0x379B PUSH0 DUP4 ADD DUP5 PUSH2 0x3779 JUMP JUMPDEST SWAP3 SWAP2 POP POP JUMP JUMPDEST PUSH0 PUSH4 0xFFFFFFFF DUP3 AND SWAP1 POP SWAP2 SWAP1 POP JUMP JUMPDEST PUSH2 0x37B9 DUP2 PUSH2 0x37A1 JUMP JUMPDEST DUP2 EQ PUSH2 0x37C3 JUMPI PUSH0 DUP1 REVERT JUMPDEST POP JUMP JUMPDEST PUSH0 DUP2 CALLDATALOAD SWAP1 POP PUSH2 0x37D4 DUP2 PUSH2 0x37B0 JUMP JUMPDEST SWAP3 SWAP2 POP POP JUMP JUMPDEST PUSH0 DUP1 PUSH1 0x40 DUP4 DUP6 SUB SLT ISZERO PUSH2 0x37F0 JUMPI PUSH2 0x37EF PUSH2 0x311C JUMP JUMPDEST JUMPDEST PUSH0 PUSH2 0x37FD DUP6 DUP3 DUP7 ADD PUSH2 0x37C6 JUMP JUMPDEST SWAP3 POP POP PUSH1 0x20 PUSH2 0x380E DUP6 DUP3 DUP7 ADD PUSH2 0x34EA JUMP JUMPDEST SWAP2 POP POP SWAP3 POP SWAP3 SWAP1 POP JUMP JUMPDEST PUSH2 0x3821 DUP2 PUSH2 0x31EF JUMP JUMPDEST DUP2 EQ PUSH2 0x382B JUMPI PUSH0 DUP1 REVERT JUMPDEST POP JUMP JUMPDEST PUSH0 DUP2 CALLDATALOAD SWAP1 POP PUSH2 0x383C DUP2 PUSH2 0x3818 JUMP JUMPDEST SWAP3 SWAP2 POP POP JUMP JUMPDEST PUSH0 DUP1 PUSH1 0x40 DUP4 DUP6 SUB SLT ISZERO PUSH2 0x3858 JUMPI PUSH2 0x3857 PUSH2 0x311C JUMP JUMPDEST JUMPDEST PUSH0 DUP4 ADD CALLDATALOAD PUSH8 0xFFFFFFFFFFFFFFFF DUP2 GT ISZERO PUSH2 0x3875 JUMPI PUSH2 0x3874 PUSH2 0x3120 JUMP JUMPDEST JUMPDEST PUSH2 0x3881 DUP6 DUP3 DUP7 ADD PUSH2 0x3226 JUMP JUMPDEST SWAP3 POP POP PUSH1 0x20 PUSH2 0x3892 DUP6 DUP3 DUP7 ADD PUSH2 0x382E JUMP JUMPDEST SWAP2 POP POP SWAP3 POP SWAP3 SWAP1 POP JUMP JUMPDEST PUSH1 0x40 DUP3 ADD PUSH0 DUP3 ADD MLOAD PUSH2 0x38B0 PUSH0 DUP6 ADD DUP3 PUSH2 0x328B JUMP JUMPDEST POP PUSH1 0x20 DUP3 ADD MLOAD PUSH2 0x38C3 PUSH1 0x20 DUP6 ADD DUP3 PUSH2 0x328B JUMP JUMPDEST POP POP POP POP JUMP JUMPDEST PUSH0 PUSH1 0x40 DUP3 ADD SWAP1 POP PUSH2 0x38DC PUSH0 DUP4 ADD DUP5 PUSH2 0x389C JUMP JUMPDEST SWAP3 SWAP2 POP POP JUMP JUMPDEST PUSH0 DUP1 PUSH0 PUSH1 0x60 DUP5 DUP7 SUB SLT ISZERO PUSH2 0x38F9 JUMPI PUSH2 0x38F8 PUSH2 0x311C JUMP JUMPDEST JUMPDEST PUSH0 PUSH2 0x3906 DUP7 DUP3 DUP8 ADD PUSH2 0x319D JUMP JUMPDEST SWAP4 POP POP PUSH1 0x20 PUSH2 0x3917 DUP7 DUP3 DUP8 ADD PUSH2 0x319D JUMP JUMPDEST SWAP3 POP POP PUSH1 0x40 PUSH2 0x3928 DUP7 DUP3 DUP8 ADD PUSH2 0x37C6 JUMP JUMPDEST SWAP2 POP POP SWAP3 POP SWAP3 POP SWAP3 JUMP JUMPDEST PUSH2 0x393B DUP2 PUSH2 0x3616 JUMP JUMPDEST DUP2 EQ PUSH2 0x3945 JUMPI PUSH0 DUP1 REVERT JUMPDEST POP JUMP JUMPDEST PUSH0 DUP2 CALLDATALOAD SWAP1 POP PUSH2 0x3956 DUP2 PUSH2 0x3932 JUMP JUMPDEST SWAP3 SWAP2 POP POP JUMP JUMPDEST PUSH0 DUP1 PUSH1 0x40 DUP4 DUP6 SUB SLT ISZERO PUSH2 0x3972 JUMPI PUSH2 0x3971 PUSH2 0x311C JUMP JUMPDEST JUMPDEST PUSH0 PUSH2 0x397F DUP6 DUP3 DUP7 ADD PUSH2 0x37C6 JUMP JUMPDEST SWAP3 POP POP PUSH1 0x20 PUSH2 0x3990 DUP6 DUP3 DUP7 ADD PUSH2 0x3948 JUMP JUMPDEST SWAP2 POP POP SWAP3 POP SWAP3 SWAP1 POP JUMP JUMPDEST PUSH0 DUP2 MLOAD SWAP1 POP SWAP2 SWAP1 POP JUMP JUMPDEST PUSH0 DUP3 DUP3 MSTORE PUSH1 0x20 DUP3 ADD SWAP1 POP SWAP3 SWAP2 POP POP JUMP JUMPDEST PUSH0 PUSH2 0x39BE DUP3 PUSH2 0x399A JUMP JUMPDEST PUSH2 0x39C8 DUP2 DUP6 PUSH2 0x39A4 JUMP JUMPDEST SWAP4 POP PUSH2 0x39D8 DUP2 DUP6 PUSH1 0x20 DUP7 ADD PUSH2 0x309D JUMP JUMPDEST PUSH2 0x39E1 DUP2 PUSH2 0x30AB JUMP JUMPDEST DUP5 ADD SWAP2 POP POP SWAP3 SWAP2 POP POP JUMP JUMPDEST PUSH0 PUSH1 0x20 DUP3 ADD SWAP1 POP DUP2 DUP2 SUB PUSH0 DUP4 ADD MSTORE PUSH2 0x3A04 DUP2 DUP5 PUSH2 0x39B4 JUMP JUMPDEST SWAP1 POP SWAP3 SWAP2 POP POP JUMP JUMPDEST PUSH0 DUP2 SWAP1 POP SWAP2 SWAP1 POP JUMP JUMPDEST PUSH0 PUSH2 0x3A2F PUSH2 0x3A2A PUSH2 0x3A25 DUP5 PUSH2 0x3124 JUMP JUMPDEST PUSH2 0x3A0C JUMP JUMPDEST PUSH2 0x3124 JUMP JUMPDEST SWAP1 POP SWAP2 SWAP1 POP JUMP JUMPDEST PUSH0 PUSH2 0x3A40 DUP3 PUSH2 0x3A15 JUMP JUMPDEST SWAP1 POP SWAP2 SWAP1 POP JUMP JUMPDEST PUSH0 PUSH2 0x3A51 DUP3 PUSH2 0x3A36 JUMP JUMPDEST SWAP1 POP SWAP2 SWAP1 POP JUMP JUMPDEST PUSH2 0x3A61 DUP2 PUSH2 0x3A47 JUMP JUMPDEST DUP3 MSTORE POP POP JUMP JUMPDEST PUSH0 PUSH1 0x20 DUP3 ADD SWAP1 POP PUSH2 0x3A7A PUSH0 DUP4 ADD DUP5 PUSH2 0x3A58 JUMP JUMPDEST SWAP3 SWAP2 POP POP JUMP JUMPDEST PUSH0 PUSH1 0x20 DUP3 DUP5 SUB SLT ISZERO PUSH2 0x3A95 JUMPI PUSH2 0x3A94 PUSH2 0x311C JUMP JUMPDEST JUMPDEST PUSH0 PUSH2 0x3AA2 DUP5 DUP3 DUP6 ADD PUSH2 0x316A JUMP JUMPDEST SWAP2 POP POP SWAP3 SWAP2 POP POP JUMP JUMPDEST PUSH0 PUSH1 0x20 DUP3 ADD SWAP1 POP PUSH2 0x3ABE PUSH0 DUP4 ADD DUP5 PUSH2 0x3698 JUMP JUMPDEST SWAP3 SWAP2 POP POP JUMP JUMPDEST PUSH0 DUP1 DUP4 PUSH1 0x1F DUP5 ADD SLT PUSH2 0x3AD9 JUMPI PUSH2 0x3AD8 PUSH2 0x34FE JUMP JUMPDEST JUMPDEST DUP3 CALLDATALOAD SWAP1 POP PUSH8 0xFFFFFFFFFFFFFFFF DUP2 GT ISZERO PUSH2 0x3AF6 JUMPI PUSH2 0x3AF5 PUSH2 0x3502 JUMP JUMPDEST JUMPDEST PUSH1 0x20 DUP4 ADD SWAP2 POP DUP4 PUSH1 0x20 DUP3 MUL DUP4 ADD GT ISZERO PUSH2 0x3B12 JUMPI PUSH2 0x3B11 PUSH2 0x3506 JUMP JUMPDEST JUMPDEST SWAP3 POP SWAP3 SWAP1 POP JUMP JUMPDEST PUSH0 DUP1 PUSH1 0x20 DUP4 DUP6 SUB SLT ISZERO PUSH2 0x3B2F JUMPI PUSH2 0x3B2E PUSH2 0x311C JUMP JUMPDEST JUMPDEST PUSH0 DUP4 ADD CALLDATALOAD PUSH8 0xFFFFFFFFFFFFFFFF DUP2 GT ISZERO PUSH2 0x3B4C JUMPI PUSH2 0x3B4B PUSH2 0x3120 JUMP JUMPDEST JUMPDEST PUSH2 0x3B58 DUP6 DUP3 DUP7 ADD PUSH2 0x3AC4 JUMP JUMPDEST SWAP3 POP SWAP3 POP POP SWAP3 POP SWAP3 SWAP1 POP JUMP JUMPDEST PUSH0 PUSH1 0x20 DUP3 DUP5 SUB SLT ISZERO PUSH2 0x3B79 JUMPI PUSH2 0x3B78 PUSH2 0x311C JUMP JUMPDEST JUMPDEST PUSH0 PUSH2 0x3B86 DUP5 DUP3 DUP6 ADD PUSH2 0x37C6 JUMP JUMPDEST SWAP2 POP POP SWAP3 SWAP2 POP POP JUMP JUMPDEST PUSH2 0x3B98 DUP2 PUSH2 0x34CB JUMP JUMPDEST DUP3 MSTORE POP POP JUMP JUMPDEST PUSH0 PUSH1 0x20 DUP3 ADD SWAP1 POP PUSH2 0x3BB1 PUSH0 DUP4 ADD DUP5 PUSH2 0x3B8F JUMP JUMPDEST SWAP3 SWAP2 POP POP JUMP JUMPDEST PUSH0 DUP1 PUSH0 DUP1 PUSH1 0x60 DUP6 DUP8 SUB SLT ISZERO PUSH2 0x3BCF JUMPI PUSH2 0x3BCE PUSH2 0x311C JUMP JUMPDEST JUMPDEST PUSH0 PUSH2 0x3BDC DUP8 DUP3 DUP9 ADD PUSH2 0x37C6 JUMP JUMPDEST SWAP5 POP POP PUSH1 0x20 PUSH2 0x3BED DUP8 DUP3 DUP9 ADD PUSH2 0x3948 JUMP JUMPDEST SWAP4 POP POP PUSH1 0x40 DUP6 ADD CALLDATALOAD PUSH8 0xFFFFFFFFFFFFFFFF DUP2 GT ISZERO PUSH2 0x3C0E JUMPI PUSH2 0x3C0D PUSH2 0x3120 JUMP JUMPDEST JUMPDEST PUSH2 0x3C1A DUP8 DUP3 DUP9 ADD PUSH2 0x350A JUMP JUMPDEST SWAP3 POP SWAP3 POP POP SWAP3 SWAP6 SWAP2 SWAP5 POP SWAP3 POP JUMP JUMPDEST PUSH0 DUP1 DUP4 PUSH1 0x1F DUP5 ADD SLT PUSH2 0x3C3D JUMPI PUSH2 0x3C3C PUSH2 0x34FE JUMP JUMPDEST JUMPDEST DUP3 CALLDATALOAD SWAP1 POP PUSH8 0xFFFFFFFFFFFFFFFF DUP2 GT ISZERO PUSH2 0x3C5A JUMPI PUSH2 0x3C59 PUSH2 0x3502 JUMP JUMPDEST JUMPDEST PUSH1 0x20 DUP4 ADD SWAP2 POP DUP4 PUSH1 0x20 DUP3 MUL DUP4 ADD GT ISZERO PUSH2 0x3C76 JUMPI PUSH2 0x3C75 PUSH2 0x3506 JUMP JUMPDEST JUMPDEST SWAP3 POP SWAP3 SWAP1 POP JUMP JUMPDEST PUSH0 DUP1 PUSH1 0x20 DUP4 DUP6 SUB SLT ISZERO PUSH2 0x3C93 JUMPI PUSH2 0x3C92 PUSH2 0x311C JUMP JUMPDEST JUMPDEST PUSH0 DUP4 ADD CALLDATALOAD PUSH8 0xFFFFFFFFFFFFFFFF DUP2 GT ISZERO PUSH2 0x3CB0 JUMPI PUSH2 0x3CAF PUSH2 0x3120 JUMP JUMPDEST JUMPDEST PUSH2 0x3CBC DUP6 DUP3 DUP7 ADD PUSH2 0x3C28 JUMP JUMPDEST SWAP3 POP SWAP3 POP POP SWAP3 POP SWAP3 SWAP1 POP JUMP JUMPDEST PUSH0 PUSH1 0x40 DUP3 DUP5 SUB SLT ISZERO PUSH2 0x3CDD JUMPI PUSH2 0x3CDC PUSH2 0x3222 JUMP JUMPDEST JUMPDEST DUP2 SWAP1 POP SWAP3 SWAP2 POP POP JUMP JUMPDEST PUSH0 DUP1 PUSH0 PUSH1 0x80 DUP5 DUP7 SUB SLT ISZERO PUSH2 0x3CFD JUMPI PUSH2 0x3CFC PUSH2 0x311C JUMP JUMPDEST JUMPDEST PUSH0 DUP5 ADD CALLDATALOAD PUSH8 0xFFFFFFFFFFFFFFFF DUP2 GT ISZERO PUSH2 0x3D1A JUMPI PUSH2 0x3D19 PUSH2 0x3120 JUMP JUMPDEST JUMPDEST PUSH2 0x3D26 DUP7 DUP3 DUP8 ADD PUSH2 0x3226 JUMP JUMPDEST SWAP4 POP POP PUSH1 0x20 PUSH2 0x3D37 DUP7 DUP3 DUP8 ADD PUSH2 0x3CC8 JUMP JUMPDEST SWAP3 POP POP PUSH1 0x60 PUSH2 0x3D48 DUP7 DUP3 DUP8 ADD PUSH2 0x316A JUMP JUMPDEST SWAP2 POP POP SWAP3 POP SWAP3 POP SWAP3 JUMP JUMPDEST PUSH2 0x3D5B DUP2 PUSH2 0x34CB JUMP JUMPDEST DUP3 MSTORE POP POP JUMP JUMPDEST PUSH2 0x3D6A DUP2 PUSH2 0x3685 JUMP JUMPDEST DUP3 MSTORE POP POP JUMP JUMPDEST PUSH1 0x40 DUP3 ADD PUSH0 DUP3 ADD MLOAD PUSH2 0x3D84 PUSH0 DUP6 ADD DUP3 PUSH2 0x328B JUMP JUMPDEST POP PUSH1 0x20 DUP3 ADD MLOAD PUSH2 0x3D97 PUSH1 0x20 DUP6 ADD DUP3 PUSH2 0x328B JUMP JUMPDEST POP POP POP POP JUMP JUMPDEST PUSH1 0x80 DUP3 ADD PUSH0 DUP3 ADD MLOAD PUSH2 0x3DB1 PUSH0 DUP6 ADD DUP3 PUSH2 0x3D52 JUMP JUMPDEST POP PUSH1 0x20 DUP3 ADD MLOAD PUSH2 0x3DC4 PUSH1 0x20 DUP6 ADD DUP3 PUSH2 0x3D61 JUMP JUMPDEST POP PUSH1 0x40 DUP3 ADD MLOAD PUSH2 0x3DD7 PUSH1 0x40 DUP6 ADD DUP3 PUSH2 0x3D70 JUMP JUMPDEST POP POP POP POP JUMP JUMPDEST PUSH0 PUSH1 0xC0 DUP3 ADD SWAP1 POP PUSH2 0x3DF0 PUSH0 DUP4 ADD DUP6 PUSH2 0x3D9D JUMP JUMPDEST PUSH2 0x3DFD PUSH1 0x80 DUP4 ADD DUP5 PUSH2 0x341C JUMP JUMPDEST SWAP4 SWAP3 POP POP POP JUMP JUMPDEST PUSH0 DUP1 PUSH1 0x40 DUP4 DUP6 SUB SLT ISZERO PUSH2 0x3E1A JUMPI PUSH2 0x3E19 PUSH2 0x311C JUMP JUMPDEST JUMPDEST PUSH0 PUSH2 0x3E27 DUP6 DUP3 DUP7 ADD PUSH2 0x316A JUMP JUMPDEST SWAP3 POP POP PUSH1 0x20 PUSH2 0x3E38 DUP6 DUP3 DUP7 ADD PUSH2 0x316A JUMP JUMPDEST SWAP2 POP POP SWAP3 POP SWAP3 SWAP1 POP JUMP JUMPDEST PUSH0 PUSH1 0x60 DUP3 DUP5 SUB SLT ISZERO PUSH2 0x3E57 JUMPI PUSH2 0x3E56 PUSH2 0x311C JUMP JUMPDEST JUMPDEST PUSH0 PUSH2 0x3E64 DUP5 DUP3 DUP6 ADD PUSH2 0x34AD JUMP JUMPDEST SWAP2 POP POP SWAP3 SWAP2 POP POP JUMP JUMPDEST PUSH32 0x4E487B7100000000000000000000000000000000000000000000000000000000 PUSH0 MSTORE PUSH1 0x22 PUSH1 0x4 MSTORE PUSH1 0x24 PUSH0 REVERT JUMPDEST PUSH0 PUSH1 0x2 DUP3 DIV SWAP1 POP PUSH1 0x1 DUP3 AND DUP1 PUSH2 0x3EB1 JUMPI PUSH1 0x7F DUP3 AND SWAP2 POP JUMPDEST PUSH1 0x20 DUP3 LT DUP2 SUB PUSH2 0x3EC4 JUMPI PUSH2 0x3EC3 PUSH2 0x3E6D JUMP JUMPDEST JUMPDEST POP SWAP2 SWAP1 POP JUMP JUMPDEST PUSH32 0x4E487B7100000000000000000000000000000000000000000000000000000000 PUSH0 MSTORE PUSH1 0x41 PUSH1 0x4 MSTORE PUSH1 0x24 PUSH0 REVERT JUMPDEST PUSH2 0x3F00 DUP2 PUSH2 0x37A1 JUMP JUMPDEST DUP3 MSTORE POP POP JUMP JUMPDEST PUSH0 PUSH1 0x40 DUP3 ADD SWAP1 POP PUSH2 0x3F19 PUSH0 DUP4 ADD DUP6 PUSH2 0x3EF7 JUMP JUMPDEST PUSH2 0x3F26 PUSH1 0x20 DUP4 ADD DUP5 PUSH2 0x3B8F JUMP JUMPDEST SWAP4 SWAP3 POP POP POP JUMP JUMPDEST PUSH32 0x4E487B7100000000000000000000000000000000000000000000000000000000 PUSH0 MSTORE PUSH1 0x32 PUSH1 0x4 MSTORE PUSH1 0x24 PUSH0 REVERT JUMPDEST PUSH0 DUP1 REVERT JUMPDEST PUSH0 DUP1 REVERT JUMPDEST PUSH0 DUP1 REVERT JUMPDEST PUSH0 DUP3 CALLDATALOAD PUSH1 0x1 PUSH1 0x60 SUB DUP4 CALLDATASIZE SUB SUB DUP2 SLT PUSH2 0x3F81 JUMPI PUSH2 0x3F80 PUSH2 0x3F5A JUMP JUMPDEST JUMPDEST DUP1 DUP4 ADD SWAP2 POP POP SWAP3 SWAP2 POP POP JUMP JUMPDEST PUSH0 DUP1 DUP4 CALLDATALOAD PUSH1 0x1 PUSH1 0x20 SUB DUP5 CALLDATASIZE SUB SUB DUP2 SLT PUSH2 0x3FA9 JUMPI PUSH2 0x3FA8 PUSH2 0x3F5A JUMP JUMPDEST JUMPDEST DUP1 DUP5 ADD SWAP3 POP DUP3 CALLDATALOAD SWAP2 POP PUSH8 0xFFFFFFFFFFFFFFFF DUP3 GT ISZERO PUSH2 0x3FCB JUMPI PUSH2 0x3FCA PUSH2 0x3F5E JUMP JUMPDEST JUMPDEST PUSH1 0x20 DUP4 ADD SWAP3 POP PUSH1 0x1 DUP3 MUL CALLDATASIZE SUB DUP4 SGT ISZERO PUSH2 0x3FE7 JUMPI PUSH2 0x3FE6 PUSH2 0x3F62 JUMP JUMPDEST JUMPDEST POP SWAP3 POP SWAP3 SWAP1 POP JUMP JUMPDEST PUSH0 PUSH1 0x20 DUP3 DUP5 SUB SLT ISZERO PUSH2 0x4004 JUMPI PUSH2 0x4003 PUSH2 0x311C JUMP JUMPDEST JUMPDEST PUSH0 PUSH2 0x4011 DUP5 DUP3 DUP6 ADD PUSH2 0x3948 JUMP JUMPDEST SWAP2 POP POP SWAP3 SWAP2 POP POP JUMP JUMPDEST PUSH0 DUP3 SWAP1 POP SWAP3 SWAP2 POP POP JUMP JUMPDEST PUSH0 DUP2 SWAP1 POP DUP2 PUSH0 MSTORE PUSH1 0x20 PUSH0 KECCAK256 SWAP1 POP SWAP2 SWAP1 POP JUMP JUMPDEST PUSH0 PUSH1 0x20 PUSH1 0x1F DUP4 ADD DIV SWAP1 POP SWAP2 SWAP1 POP JUMP JUMPDEST PUSH0 DUP3 DUP3 SHL SWAP1 POP SWAP3 SWAP2 POP POP JUMP JUMPDEST PUSH0 PUSH1 0x8 DUP4 MUL PUSH2 0x4080 PUSH32 0xFFFFFFFFFFFFFFFFFFFFFFFFFFFFFFFFFFFFFFFFFFFFFFFFFFFFFFFFFFFFFFFF DUP3 PUSH2 0x4045 JUMP JUMPDEST PUSH2 0x408A DUP7 DUP4 PUSH2 0x4045 JUMP JUMPDEST SWAP6 POP DUP1 NOT DUP5 AND SWAP4 POP DUP1 DUP7 AND DUP5 OR SWAP3 POP POP POP SWAP4 SWAP3 POP POP POP JUMP JUMPDEST PUSH0 PUSH2 0x40BC PUSH2 0x40B7 PUSH2 0x40B2 DUP5 PUSH2 0x317E JUMP JUMPDEST PUSH2 0x3A0C JUMP JUMPDEST PUSH2 0x317E JUMP JUMPDEST SWAP1 POP SWAP2 SWAP1 POP JUMP JUMPDEST PUSH0 DUP2 SWAP1 POP SWAP2 SWAP1 POP JUMP JUMPDEST PUSH2 0x40D5 DUP4 PUSH2 0x40A2 JUMP JUMPDEST PUSH2 0x40E9 PUSH2 0x40E1 DUP3 PUSH2 0x40C3 JUMP JUMPDEST DUP5 DUP5 SLOAD PUSH2 0x4051 JUMP JUMPDEST DUP3 SSTORE POP POP POP POP JUMP JUMPDEST PUSH0 SWAP1 JUMP JUMPDEST PUSH2 0x40FD PUSH2 0x40F1 JUMP JUMPDEST PUSH2 0x4108 DUP2 DUP5 DUP5 PUSH2 0x40CC JUMP JUMPDEST POP POP POP JUMP JUMPDEST JUMPDEST DUP2 DUP2 LT ISZERO PUSH2 0x412B JUMPI PUSH2 0x4120 PUSH0 DUP3 PUSH2 0x40F5 JUMP JUMPDEST PUSH1 0x1 DUP2 ADD SWAP1 POP PUSH2 0x410E JUMP JUMPDEST POP POP JUMP JUMPDEST PUSH1 0x1F DUP3 GT ISZERO PUSH2 0x4170 JUMPI PUSH2 0x4141 DUP2 PUSH2 0x4024 JUMP JUMPDEST PUSH2 0x414A DUP5 PUSH2 0x4036 JUMP JUMPDEST DUP2 ADD PUSH1 0x20 DUP6 LT ISZERO PUSH2 0x4159 JUMPI DUP2 SWAP1 POP JUMPDEST PUSH2 0x416D PUSH2 0x4165 DUP6 PUSH2 0x4036 JUMP JUMPDEST DUP4 ADD DUP3 PUSH2 0x410D JUMP JUMPDEST POP POP JUMPDEST POP POP POP JUMP JUMPDEST PUSH0 DUP3 DUP3 SHR SWAP1 POP SWAP3 SWAP2 POP POP JUMP JUMPDEST PUSH0 PUSH2 0x4190 PUSH0 NOT DUP5 PUSH1 0x8 MUL PUSH2 0x4175 JUMP JUMPDEST NOT DUP1 DUP4 AND SWAP2 POP POP SWAP3 SWAP2 POP POP JUMP JUMPDEST PUSH0 PUSH2 0x41A8 DUP4 DUP4 PUSH2 0x4181 JUMP JUMPDEST SWAP2 POP DUP3 PUSH1 0x2 MUL DUP3 OR SWAP1 POP SWAP3 SWAP2 POP POP JUMP JUMPDEST PUSH2 0x41C2 DUP4 DUP4 PUSH2 0x401A JUMP JUMPDEST PUSH8 0xFFFFFFFFFFFFFFFF DUP2 GT ISZERO PUSH2 0x41DB JUMPI PUSH2 0x41DA PUSH2 0x3ECA JUMP JUMPDEST JUMPDEST PUSH2 0x41E5 DUP3 SLOAD PUSH2 0x3E9A JUMP JUMPDEST PUSH2 0x41F0 DUP3 DUP3 DUP6 PUSH2 0x412F JUMP JUMPDEST PUSH0 PUSH1 0x1F DUP4 GT PUSH1 0x1 DUP2 EQ PUSH2 0x421D JUMPI PUSH0 DUP5 ISZERO PUSH2 0x420B JUMPI DUP3 DUP8 ADD CALLDATALOAD SWAP1 POP JUMPDEST PUSH2 0x4215 DUP6 DUP3 PUSH2 0x419D JUMP JUMPDEST DUP7 SSTORE POP PUSH2 0x427C JUMP JUMPDEST PUSH1 0x1F NOT DUP5 AND PUSH2 0x422B DUP7 PUSH2 0x4024 JUMP JUMPDEST PUSH0 JUMPDEST DUP3 DUP2 LT ISZERO PUSH2 0x4252 JUMPI DUP5 DUP10 ADD CALLDATALOAD DUP3 SSTORE PUSH1 0x1 DUP3 ADD SWAP2 POP PUSH1 0x20 DUP6 ADD SWAP5 POP PUSH1 0x20 DUP2 ADD SWAP1 POP PUSH2 0x422D JUMP JUMPDEST DUP7 DUP4 LT ISZERO PUSH2 0x426F JUMPI DUP5 DUP10 ADD CALLDATALOAD PUSH2 0x426B PUSH1 0x1F DUP10 AND DUP3 PUSH2 0x4181 JUMP JUMPDEST DUP4 SSTORE POP JUMPDEST PUSH1 0x1 PUSH1 0x2 DUP9 MUL ADD DUP9 SSTORE POP POP POP JUMPDEST POP POP POP POP POP POP POP JUMP JUMPDEST PUSH0 DUP3 DUP3 MSTORE PUSH1 0x20 DUP3 ADD SWAP1 POP SWAP3 SWAP2 POP POP JUMP JUMPDEST PUSH0 DUP2 SWAP1 POP SWAP2 SWAP1 POP JUMP JUMPDEST PUSH0 PUSH2 0x42AC PUSH1 0x20 DUP5 ADD DUP5 PUSH2 0x37C6 JUMP JUMPDEST SWAP1 POP SWAP3 SWAP2 POP POP JUMP JUMPDEST PUSH2 0x42BD DUP2 PUSH2 0x37A1 JUMP JUMPDEST DUP3 MSTORE POP POP JUMP JUMPDEST PUSH0 PUSH2 0x42D1 PUSH1 0x20 DUP5 ADD DUP5 PUSH2 0x3948 JUMP JUMPDEST SWAP1 POP SWAP3 SWAP2 POP POP JUMP JUMPDEST PUSH2 0x42E2 DUP2 PUSH2 0x3616 JUMP JUMPDEST DUP3 MSTORE POP POP JUMP JUMPDEST PUSH0 DUP1 REVERT JUMPDEST PUSH0 DUP1 REVERT JUMPDEST PUSH0 DUP1 REVERT JUMPDEST PUSH0 DUP1 DUP4 CALLDATALOAD PUSH1 0x1 PUSH1 0x20 SUB DUP5 CALLDATASIZE SUB SUB DUP2 SLT PUSH2 0x4310 JUMPI PUSH2 0x430F PUSH2 0x42F0 JUMP JUMPDEST JUMPDEST DUP4 DUP2 ADD SWAP3 POP DUP3 CALLDATALOAD SWAP2 POP PUSH1 0x20 DUP4 ADD SWAP3 POP PUSH8 0xFFFFFFFFFFFFFFFF DUP3 GT ISZERO PUSH2 0x4338 JUMPI PUSH2 0x4337 PUSH2 0x42E8 JUMP JUMPDEST JUMPDEST PUSH1 0x1 DUP3 MUL CALLDATASIZE SUB DUP4 SGT ISZERO PUSH2 0x434E JUMPI PUSH2 0x434D PUSH2 0x42EC JUMP JUMPDEST JUMPDEST POP SWAP3 POP SWAP3 SWAP1 POP JUMP JUMPDEST PUSH0 DUP3 DUP3 MSTORE PUSH1 0x20 DUP3 ADD SWAP1 POP SWAP3 SWAP2 POP POP JUMP JUMPDEST DUP3 DUP2 DUP4 CALLDATACOPY PUSH0 DUP4 DUP4 ADD MSTORE POP POP POP JUMP JUMPDEST PUSH0 PUSH2 0x437F DUP4 DUP6 PUSH2 0x4356 JUMP JUMPDEST SWAP4 POP PUSH2 0x438C DUP4 DUP6 DUP5 PUSH2 0x4366 JUMP JUMPDEST PUSH2 0x4395 DUP4 PUSH2 0x30AB JUMP JUMPDEST DUP5 ADD SWAP1 POP SWAP4 SWAP3 POP POP POP JUMP JUMPDEST PUSH0 PUSH1 0x60 DUP4 ADD PUSH2 0x43B1 PUSH0 DUP5 ADD DUP5 PUSH2 0x429E JUMP JUMPDEST PUSH2 0x43BD PUSH0 DUP7 ADD DUP3 PUSH2 0x42B4 JUMP JUMPDEST POP PUSH2 0x43CB PUSH1 0x20 DUP5 ADD DUP5 PUSH2 0x42C3 JUMP JUMPDEST PUSH2 0x43D8 PUSH1 0x20 DUP7 ADD DUP3 PUSH2 0x42D9 JUMP JUMPDEST POP PUSH2 0x43E6 PUSH1 0x40 DUP5 ADD DUP5 PUSH2 0x42F4 JUMP JUMPDEST DUP6 DUP4 SUB PUSH1 0x40 DUP8 ADD MSTORE PUSH2 0x43F9 DUP4 DUP3 DUP5 PUSH2 0x4374 JUMP JUMPDEST SWAP3 POP POP POP DUP1 SWAP2 POP POP SWAP3 SWAP2 POP POP JUMP JUMPDEST PUSH0 PUSH2 0x4412 DUP4 DUP4 PUSH2 0x43A0 JUMP JUMPDEST SWAP1 POP SWAP3 SWAP2 POP POP JUMP JUMPDEST PUSH0 DUP3 CALLDATALOAD PUSH1 0x1 PUSH1 0x60 SUB DUP4 CALLDATASIZE SUB SUB DUP2 SLT PUSH2 0x4435 JUMPI PUSH2 0x4434 PUSH2 0x42F0 JUMP JUMPDEST JUMPDEST DUP3 DUP2 ADD SWAP2 POP POP SWAP3 SWAP2 POP POP JUMP JUMPDEST PUSH0 PUSH1 0x20 DUP3 ADD SWAP1 POP SWAP2 SWAP1 POP JUMP JUMPDEST PUSH0 PUSH2 0x4458 DUP4 DUP6 PUSH2 0x4285 JUMP JUMPDEST SWAP4 POP DUP4 PUSH1 0x20 DUP5 MUL DUP6 ADD PUSH2 0x446A DUP5 PUSH2 0x4295 JUMP JUMPDEST DUP1 PUSH0 JUMPDEST DUP8 DUP2 LT ISZERO PUSH2 0x44AD JUMPI DUP5 DUP5 SUB DUP10 MSTORE PUSH2 0x4484 DUP3 DUP5 PUSH2 0x441A JUMP JUMPDEST PUSH2 0x448E DUP6 DUP3 PUSH2 0x4407 JUMP JUMPDEST SWAP5 POP PUSH2 0x4499 DUP4 PUSH2 0x4441 JUMP JUMPDEST SWAP3 POP PUSH1 0x20 DUP11 ADD SWAP10 POP POP PUSH1 0x1 DUP2 ADD SWAP1 POP PUSH2 0x446D JUMP JUMPDEST POP DUP3 SWAP8 POP DUP8 SWAP5 POP POP POP POP POP SWAP4 SWAP3 POP POP POP JUMP JUMPDEST PUSH0 PUSH1 0x20 DUP3 ADD SWAP1 POP DUP2 DUP2 SUB PUSH0 DUP4 ADD MSTORE PUSH2 0x44D8 DUP2 DUP5 DUP7 PUSH2 0x444D JUMP JUMPDEST SWAP1 POP SWAP4 SWAP3 POP POP POP JUMP JUMPDEST PUSH0 DUP1 REVERT JUMPDEST PUSH0 DUP1 REVERT JUMPDEST PUSH0 DUP1 DUP6 DUP6 GT ISZERO PUSH2 0x44FC JUMPI PUSH2 0x44FB PUSH2 0x44E1 JUMP JUMPDEST JUMPDEST DUP4 DUP7 GT ISZERO PUSH2 0x450D JUMPI PUSH2 0x450C PUSH2 0x44E5 JUMP JUMPDEST JUMPDEST PUSH1 0x1 DUP6 MUL DUP4 ADD SWAP2 POP DUP5 DUP7 SUB SWAP1 POP SWAP5 POP SWAP5 SWAP3 POP POP POP JUMP JUMPDEST PUSH0 DUP2 SWAP1 POP SWAP3 SWAP2 POP POP JUMP JUMPDEST PUSH0 PUSH2 0x4537 DUP3 PUSH2 0x399A JUMP JUMPDEST PUSH2 0x4541 DUP2 DUP6 PUSH2 0x4523 JUMP JUMPDEST SWAP4 POP PUSH2 0x4551 DUP2 DUP6 PUSH1 0x20 DUP7 ADD PUSH2 0x309D JUMP JUMPDEST DUP1 DUP5 ADD SWAP2 POP POP SWAP3 SWAP2 POP POP JUMP JUMPDEST PUSH0 PUSH2 0x4568 DUP4 DUP6 PUSH2 0x4523 JUMP JUMPDEST SWAP4 POP PUSH2 0x4575 DUP4 DUP6 DUP5 PUSH2 0x4366 JUMP JUMPDEST DUP3 DUP5 ADD SWAP1 POP SWAP4 SWAP3 POP POP POP JUMP JUMPDEST PUSH0 PUSH2 0x458C DUP3 DUP7 PUSH2 0x452D JUMP JUMPDEST SWAP2 POP PUSH2 0x4599 DUP3 DUP5 DUP7 PUSH2 0x455D JUMP JUMPDEST SWAP2 POP DUP2 SWAP1 POP SWAP5 SWAP4 POP POP POP POP JUMP JUMPDEST PUSH0 PUSH2 0x45B1 DUP4 DUP6 PUSH2 0x39A4 JUMP JUMPDEST SWAP4 POP PUSH2 0x45BE DUP4 DUP6 DUP5 PUSH2 0x4366 JUMP JUMPDEST PUSH2 0x45C7 DUP4 PUSH2 0x30AB JUMP JUMPDEST DUP5 ADD SWAP1 POP SWAP4 SWAP3 POP POP POP JUMP JUMPDEST PUSH0 PUSH1 0x20 DUP3 ADD SWAP1 POP DUP2 DUP2 SUB PUSH0 DUP4 ADD MSTORE PUSH2 0x45EB DUP2 DUP5 DUP7 PUSH2 0x45A6 JUMP JUMPDEST SWAP1 POP SWAP4 SWAP3 POP POP POP JUMP JUMPDEST PUSH0 DUP3 CALLDATALOAD PUSH1 0x1 PUSH2 0x140 SUB DUP4 CALLDATASIZE SUB SUB DUP2 SLT PUSH2 0x4610 JUMPI PUSH2 0x460F PUSH2 0x3F5A JUMP JUMPDEST JUMPDEST DUP1 DUP4 ADD SWAP2 POP POP SWAP3 SWAP2 POP POP JUMP JUMPDEST PUSH0 PUSH2 0x462A PUSH1 0x20 DUP5 ADD DUP5 PUSH2 0x34EA JUMP JUMPDEST SWAP1 POP SWAP3 SWAP2 POP POP JUMP JUMPDEST PUSH2 0x463B DUP2 PUSH2 0x3685 JUMP JUMPDEST DUP2 EQ PUSH2 0x4645 JUMPI PUSH0 DUP1 REVERT JUMPDEST POP JUMP JUMPDEST PUSH0 DUP2 CALLDATALOAD SWAP1 POP PUSH2 0x4656 DUP2 PUSH2 0x4632 JUMP JUMPDEST SWAP3 SWAP2 POP POP JUMP JUMPDEST PUSH0 PUSH2 0x466A PUSH1 0x20 DUP5 ADD DUP5 PUSH2 0x4648 JUMP JUMPDEST SWAP1 POP SWAP3 SWAP2 POP POP JUMP JUMPDEST PUSH1 0x60 DUP3 ADD PUSH2 0x4682 PUSH0 DUP4 ADD DUP4 PUSH2 0x429E JUMP JUMPDEST PUSH2 0x468E PUSH0 DUP6 ADD DUP3 PUSH2 0x42B4 JUMP JUMPDEST POP PUSH2 0x469C PUSH1 0x20 DUP4 ADD DUP4 PUSH2 0x461C JUMP JUMPDEST PUSH2 0x46A9 PUSH1 0x20 DUP6 ADD DUP3 PUSH2 0x3D52 JUMP JUMPDEST POP PUSH2 0x46B7 PUSH1 0x40 DUP4 ADD DUP4 PUSH2 0x465C JUMP JUMPDEST PUSH2 0x46C4 PUSH1 0x40 DUP6 ADD DUP3 PUSH2 0x3D61 JUMP JUMPDEST POP POP POP POP JUMP JUMPDEST PUSH0 PUSH1 0xE0 DUP3 ADD SWAP1 POP PUSH2 0x46DD PUSH0 DUP4 ADD DUP11 PUSH2 0x4672 JUMP JUMPDEST PUSH2 0x46EA PUSH1 0x60 DUP4 ADD DUP10 PUSH2 0x3B8F JUMP JUMPDEST DUP2 DUP2 SUB PUSH1 0x80 DUP4 ADD MSTORE PUSH2 0x46FD DUP2 DUP8 DUP10 PUSH2 0x45A6 JUMP JUMPDEST SWAP1 POP PUSH2 0x470C PUSH1 0xA0 DUP4 ADD DUP7 PUSH2 0x3485 JUMP JUMPDEST DUP2 DUP2 SUB PUSH1 0xC0 DUP4 ADD MSTORE PUSH2 0x471F DUP2 DUP5 DUP7 PUSH2 0x45A6 JUMP JUMPDEST SWAP1 POP SWAP9 SWAP8 POP POP POP POP POP POP POP POP JUMP JUMPDEST PUSH0 DUP1 REVERT JUMPDEST PUSH2 0x473A DUP3 PUSH2 0x30AB JUMP JUMPDEST DUP2 ADD DUP2 DUP2 LT PUSH8 0xFFFFFFFFFFFFFFFF DUP3 GT OR ISZERO PUSH2 0x4759 JUMPI PUSH2 0x4758 PUSH2 0x3ECA JUMP JUMPDEST JUMPDEST DUP1 PUSH1 0x40 MSTORE POP POP POP JUMP JUMPDEST PUSH0 PUSH2 0x476B PUSH2 0x3113 JUMP JUMPDEST SWAP1 POP PUSH2 0x4777 DUP3 DUP3 PUSH2 0x4731 JUMP JUMPDEST SWAP2 SWAP1 POP JUMP JUMPDEST PUSH0 PUSH8 0xFFFFFFFFFFFFFFFF DUP3 GT ISZERO PUSH2 0x4796 JUMPI PUSH2 0x4795 PUSH2 0x3ECA JUMP JUMPDEST JUMPDEST PUSH2 0x479F DUP3 PUSH2 0x30AB JUMP JUMPDEST SWAP1 POP PUSH1 0x20 DUP2 ADD SWAP1 POP SWAP2 SWAP1 POP JUMP JUMPDEST PUSH0 PUSH2 0x47BE PUSH2 0x47B9 DUP5 PUSH2 0x477C JUMP JUMPDEST PUSH2 0x4762 JUMP JUMPDEST SWAP1 POP DUP3 DUP2 MSTORE PUSH1 0x20 DUP2 ADD DUP5 DUP5 DUP5 ADD GT ISZERO PUSH2 0x47DA JUMPI PUSH2 0x47D9 PUSH2 0x472D JUMP JUMPDEST JUMPDEST PUSH2 0x47E5 DUP5 DUP3 DUP6 PUSH2 0x309D JUMP JUMPDEST POP SWAP4 SWAP3 POP POP POP JUMP JUMPDEST PUSH0 DUP3 PUSH1 0x1F DUP4 ADD SLT PUSH2 0x4801 JUMPI PUSH2 0x4800 PUSH2 0x34FE JUMP JUMPDEST JUMPDEST DUP2 MLOAD PUSH2 0x4811 DUP5 DUP3 PUSH1 0x20 DUP7 ADD PUSH2 0x47AC JUMP JUMPDEST SWAP2 POP POP SWAP3 SWAP2 POP POP JUMP JUMPDEST PUSH0 PUSH1 0x20 DUP3 DUP5 SUB SLT ISZERO PUSH2 0x482F JUMPI PUSH2 0x482E PUSH2 0x311C JUMP JUMPDEST JUMPDEST PUSH0 DUP3 ADD MLOAD PUSH8 0xFFFFFFFFFFFFFFFF DUP2 GT ISZERO PUSH2 0x484C JUMPI PUSH2 0x484B PUSH2 0x3120 JUMP JUMPDEST JUMPDEST PUSH2 0x4858 DUP5 DUP3 DUP6 ADD PUSH2 0x47ED JUMP JUMPDEST SWAP2 POP POP SWAP3 SWAP2 POP POP JUMP JUMPDEST PUSH0 DUP1 REVERT JUMPDEST PUSH0 PUSH1 0x40 DUP3 DUP5 SUB SLT ISZERO PUSH2 0x487A JUMPI PUSH2 0x4879 PUSH2 0x4861 JUMP JUMPDEST JUMPDEST PUSH2 0x4884 PUSH1 0x40 PUSH2 0x4762 JUMP JUMPDEST SWAP1 POP PUSH0 PUSH2 0x4893 DUP5 DUP3 DUP6 ADD PUSH2 0x319D JUMP JUMPDEST PUSH0 DUP4 ADD MSTORE POP PUSH1 0x20 PUSH2 0x48A6 DUP5 DUP3 DUP6 ADD PUSH2 0x319D JUMP JUMPDEST PUSH1 0x20 DUP4 ADD MSTORE POP SWAP3 SWAP2 POP POP JUMP JUMPDEST PUSH0 PUSH1 0x40 DUP3 DUP5 SUB SLT ISZERO PUSH2 0x48C7 JUMPI PUSH2 0x48C6 PUSH2 0x311C JUMP JUMPDEST JUMPDEST PUSH0 PUSH2 0x48D4 DUP5 DUP3 DUP6 ADD PUSH2 0x4865 JUMP JUMPDEST SWAP2 POP POP SWAP3 SWAP2 POP POP JUMP JUMPDEST PUSH0 PUSH1 0x60 DUP3 ADD SWAP1 POP PUSH2 0x48F0 PUSH0 DUP4 ADD DUP7 PUSH2 0x3EF7 JUMP JUMPDEST PUSH2 0x48FD PUSH1 0x20 DUP4 ADD DUP6 PUSH2 0x36F5 JUMP JUMPDEST PUSH2 0x490A PUSH1 0x40 DUP4 ADD DUP5 PUSH2 0x36F5 JUMP JUMPDEST SWAP5 SWAP4 POP POP POP POP JUMP JUMPDEST PUSH0 PUSH1 0x40 DUP3 ADD SWAP1 POP PUSH2 0x4925 PUSH0 DUP4 ADD DUP6 PUSH2 0x36F5 JUMP JUMPDEST PUSH2 0x4932 PUSH1 0x20 DUP4 ADD DUP5 PUSH2 0x36F5 JUMP JUMPDEST SWAP4 SWAP3 POP POP POP JUMP JUMPDEST PUSH0 PUSH1 0x20 DUP3 ADD SWAP1 POP PUSH2 0x494C PUSH0 DUP4 ADD DUP5 PUSH2 0x3EF7 JUMP JUMPDEST SWAP3 SWAP2 POP POP JUMP JUMPDEST PUSH0 PUSH1 0x20 DUP3 DUP5 SUB SLT ISZERO PUSH2 0x4967 JUMPI PUSH2 0x4966 PUSH2 0x311C JUMP JUMPDEST JUMPDEST PUSH0 PUSH2 0x4974 DUP5 DUP3 DUP6 ADD PUSH2 0x4648 JUMP JUMPDEST SWAP2 POP POP SWAP3 SWAP2 POP POP JUMP JUMPDEST PUSH0 DUP2 SWAP1 POP SWAP2 SWAP1 POP JUMP JUMPDEST PUSH0 PUSH2 0x49A0 PUSH2 0x499B PUSH2 0x4996 DUP5 PUSH2 0x497D JUMP JUMPDEST PUSH2 0x3A0C JUMP JUMPDEST PUSH2 0x3616 JUMP JUMPDEST SWAP1 POP SWAP2 SWAP1 POP JUMP JUMPDEST PUSH2 0x49B0 DUP2 PUSH2 0x4986 JUMP JUMPDEST DUP3 MSTORE POP POP JUMP JUMPDEST PUSH0 PUSH1 0x80 DUP3 ADD SWAP1 POP PUSH2 0x49C9 PUSH0 DUP4 ADD DUP8 PUSH2 0x3485 JUMP JUMPDEST PUSH2 0x49D6 PUSH1 0x20 DUP4 ADD DUP7 PUSH2 0x3B8F JUMP JUMPDEST PUSH2 0x49E3 PUSH1 0x40 DUP4 ADD DUP6 PUSH2 0x49A7 JUMP JUMPDEST DUP2 DUP2 SUB PUSH1 0x60 DUP4 ADD MSTORE PUSH2 0x49F5 DUP2 DUP5 PUSH2 0x39B4 JUMP JUMPDEST SWAP1 POP SWAP6 SWAP5 POP POP POP POP POP JUMP JUMPDEST PUSH0 PUSH1 0x40 DUP3 ADD SWAP1 POP PUSH2 0x4A13 PUSH0 DUP4 ADD DUP6 PUSH2 0x3EF7 JUMP JUMPDEST PUSH2 0x4A20 PUSH1 0x20 DUP4 ADD DUP5 PUSH2 0x36F5 JUMP JUMPDEST SWAP4 SWAP3 POP POP POP JUMP JUMPDEST PUSH0 PUSH1 0x60 DUP3 ADD SWAP1 POP PUSH2 0x4A3A PUSH0 DUP4 ADD DUP7 PUSH2 0x3485 JUMP JUMPDEST PUSH2 0x4A47 PUSH1 0x20 DUP4 ADD DUP6 PUSH2 0x36F5 JUMP JUMPDEST PUSH2 0x4A54 PUSH1 0x40 DUP4 ADD DUP5 PUSH2 0x36F5 JUMP JUMPDEST SWAP5 SWAP4 POP POP POP POP JUMP JUMPDEST PUSH0 PUSH1 0x40 DUP3 ADD SWAP1 POP DUP2 DUP2 SUB PUSH0 DUP4 ADD MSTORE PUSH2 0x4A74 DUP2 DUP6 PUSH2 0x39B4 JUMP JUMPDEST SWAP1 POP DUP2 DUP2 SUB PUSH1 0x20 DUP4 ADD MSTORE PUSH2 0x4A88 DUP2 DUP5 PUSH2 0x39B4 JUMP JUMPDEST SWAP1 POP SWAP4 SWAP3 POP POP POP JUMP JUMPDEST PUSH0 DUP2 MLOAD SWAP1 POP PUSH2 0x4A9F DUP2 PUSH2 0x3818 JUMP JUMPDEST SWAP3 SWAP2 POP POP JUMP JUMPDEST PUSH0 PUSH1 0x20 DUP3 DUP5 SUB SLT ISZERO PUSH2 0x4ABA JUMPI PUSH2 0x4AB9 PUSH2 0x311C JUMP JUMPDEST JUMPDEST PUSH0 PUSH2 0x4AC7 DUP5 DUP3 DUP6 ADD PUSH2 0x4A91 JUMP JUMPDEST SWAP2 POP POP SWAP3 SWAP2 POP POP JUMP JUMPDEST PUSH0 PUSH2 0x4ADA DUP3 PUSH2 0x399A JUMP JUMPDEST PUSH2 0x4AE4 DUP2 DUP6 PUSH2 0x4356 JUMP JUMPDEST SWAP4 POP PUSH2 0x4AF4 DUP2 DUP6 PUSH1 0x20 DUP7 ADD PUSH2 0x309D JUMP JUMPDEST PUSH2 0x4AFD DUP2 PUSH2 0x30AB JUMP JUMPDEST DUP5 ADD SWAP2 POP POP SWAP3 SWAP2 POP POP JUMP JUMPDEST PUSH2 0x4B11 DUP2 PUSH2 0x31EF JUMP JUMPDEST DUP3 MSTORE POP POP JUMP JUMPDEST PUSH0 PUSH1 0xA0 DUP4 ADD PUSH0 DUP4 ADD MLOAD PUSH2 0x4B2C PUSH0 DUP7 ADD DUP3 PUSH2 0x42B4 JUMP JUMPDEST POP PUSH1 0x20 DUP4 ADD MLOAD PUSH2 0x4B3F PUSH1 0x20 DUP7 ADD DUP3 PUSH2 0x3D52 JUMP JUMPDEST POP PUSH1 0x40 DUP4 ADD MLOAD DUP5 DUP3 SUB PUSH1 0x40 DUP7 ADD MSTORE PUSH2 0x4B57 DUP3 DUP3 PUSH2 0x4AD0 JUMP JUMPDEST SWAP2 POP POP PUSH1 0x60 DUP4 ADD MLOAD DUP5 DUP3 SUB PUSH1 0x60 DUP7 ADD MSTORE PUSH2 0x4B71 DUP3 DUP3 PUSH2 0x4AD0 JUMP JUMPDEST SWAP2 POP POP PUSH1 0x80 DUP4 ADD MLOAD PUSH2 0x4B86 PUSH1 0x80 DUP7 ADD DUP3 PUSH2 0x4B08 JUMP JUMPDEST POP DUP1 SWAP2 POP POP SWAP3 SWAP2 POP POP JUMP JUMPDEST PUSH0 PUSH1 0x40 DUP3 ADD SWAP1 POP DUP2 DUP2 SUB PUSH0 DUP4 ADD MSTORE PUSH2 0x4BA9 DUP2 DUP6 PUSH2 0x4B17 JUMP JUMPDEST SWAP1 POP PUSH2 0x4BB8 PUSH1 0x20 DUP4 ADD DUP5 PUSH2 0x3485 JUMP JUMPDEST SWAP4 SWAP3 POP POP POP JUMP JUMPDEST PUSH0 DUP2 MLOAD SWAP1 POP PUSH2 0x4BCD DUP2 PUSH2 0x3187 JUMP JUMPDEST SWAP3 SWAP2 POP POP JUMP JUMPDEST PUSH0 PUSH1 0x40 DUP3 DUP5 SUB SLT ISZERO PUSH2 0x4BE8 JUMPI PUSH2 0x4BE7 PUSH2 0x4861 JUMP JUMPDEST JUMPDEST PUSH2 0x4BF2 PUSH1 0x40 PUSH2 0x4762 JUMP JUMPDEST SWAP1 POP PUSH0 PUSH2 0x4C01 DUP5 DUP3 DUP6 ADD PUSH2 0x4BBF JUMP JUMPDEST PUSH0 DUP4 ADD MSTORE POP PUSH1 0x20 PUSH2 0x4C14 DUP5 DUP3 DUP6 ADD PUSH2 0x4BBF JUMP JUMPDEST PUSH1 0x20 DUP4 ADD MSTORE POP SWAP3 SWAP2 POP POP JUMP JUMPDEST PUSH0 PUSH1 0x40 DUP3 DUP5 SUB SLT ISZERO PUSH2 0x4C35 JUMPI PUSH2 0x4C34 PUSH2 0x311C JUMP JUMPDEST JUMPDEST PUSH0 PUSH2 0x4C42 DUP5 DUP3 DUP6 ADD PUSH2 0x4BD3 JUMP JUMPDEST SWAP2 POP POP SWAP3 SWAP2 POP POP JUMP JUMPDEST PUSH0 PUSH32 0xFFFF000000000000000000000000000000000000000000000000000000000000 DUP3 AND SWAP1 POP SWAP2 SWAP1 POP JUMP JUMPDEST PUSH0 PUSH2 0x4C81 DUP4 DUP4 PUSH2 0x401A JUMP JUMPDEST DUP3 PUSH2 0x4C8C DUP2 CALLDATALOAD PUSH2 0x4C4B JUMP JUMPDEST SWAP3 POP PUSH1 0x2 DUP3 LT ISZERO PUSH2 0x4CCC JUMPI PUSH2 0x4CC7 PUSH32 0xFFFF000000000000000000000000000000000000000000000000000000000000 DUP4 PUSH1 0x2 SUB PUSH1 0x8 MUL PUSH2 0x4045 JUMP JUMPDEST DUP4 AND SWAP3 POP JUMPDEST POP POP SWAP3 SWAP2 POP POP JUMP JUMPDEST PUSH0 DUP2 MLOAD SWAP1 POP PUSH2 0x4CE2 DUP2 PUSH2 0x34D4 JUMP JUMPDEST SWAP3 SWAP2 POP POP JUMP JUMPDEST PUSH0 DUP2 MLOAD SWAP1 POP PUSH2 0x4CF6 DUP2 PUSH2 0x4632 JUMP JUMPDEST SWAP3 SWAP2 POP POP JUMP JUMPDEST PUSH0 PUSH1 0x80 DUP3 DUP5 SUB SLT ISZERO PUSH2 0x4D11 JUMPI PUSH2 0x4D10 PUSH2 0x4861 JUMP JUMPDEST JUMPDEST PUSH2 0x4D1B PUSH1 0x60 PUSH2 0x4762 JUMP JUMPDEST SWAP1 POP PUSH0 PUSH2 0x4D2A DUP5 DUP3 DUP6 ADD PUSH2 0x4CD4 JUMP JUMPDEST PUSH0 DUP4 ADD MSTORE POP PUSH1 0x20 PUSH2 0x4D3D DUP5 DUP3 DUP6 ADD PUSH2 0x4CE8 JUMP JUMPDEST PUSH1 0x20 DUP4 ADD MSTORE POP PUSH1 0x40 PUSH2 0x4D51 DUP5 DUP3 DUP6 ADD PUSH2 0x4BD3 JUMP JUMPDEST PUSH1 0x40 DUP4 ADD MSTORE POP SWAP3 SWAP2 POP POP JUMP JUMPDEST PUSH0 PUSH1 0x80 DUP3 DUP5 SUB SLT ISZERO PUSH2 0x4D72 JUMPI PUSH2 0x4D71 PUSH2 0x311C JUMP JUMPDEST JUMPDEST PUSH0 PUSH2 0x4D7F DUP5 DUP3 DUP6 ADD PUSH2 0x4CFC JUMP JUMPDEST SWAP2 POP POP SWAP3 SWAP2 POP POP JUMP JUMPDEST PUSH32 0x4E487B7100000000000000000000000000000000000000000000000000000000 PUSH0 MSTORE PUSH1 0x12 PUSH1 0x4 MSTORE PUSH1 0x24 PUSH0 REVERT JUMPDEST PUSH32 0x4E487B7100000000000000000000000000000000000000000000000000000000 PUSH0 MSTORE PUSH1 0x11 PUSH1 0x4 MSTORE PUSH1 0x24 PUSH0 REVERT JUMPDEST PUSH0 PUSH2 0x4DEC DUP3 PUSH2 0x317E JUMP JUMPDEST SWAP2 POP PUSH2 0x4DF7 DUP4 PUSH2 0x317E JUMP JUMPDEST SWAP3 POP DUP3 PUSH2 0x4E07 JUMPI PUSH2 0x4E06 PUSH2 0x4D88 JUMP JUMPDEST JUMPDEST DUP3 DUP3 DIV SWAP1 POP SWAP3 SWAP2 POP POP JUMP JUMPDEST PUSH0 PUSH2 0x4E1C DUP3 PUSH2 0x317E JUMP JUMPDEST SWAP2 POP PUSH2 0x4E27 DUP4 PUSH2 0x317E JUMP JUMPDEST SWAP3 POP DUP3 DUP3 MUL PUSH2 0x4E35 DUP2 PUSH2 0x317E JUMP JUMPDEST SWAP2 POP DUP3 DUP3 DIV DUP5 EQ DUP4 ISZERO OR PUSH2 0x4E4C JUMPI PUSH2 0x4E4B PUSH2 0x4DB5 JUMP JUMPDEST JUMPDEST POP SWAP3 SWAP2 POP POP JUMP JUMPDEST PUSH0 PUSH2 0x4E5E DUP4 DUP4 PUSH2 0x401A JUMP JUMPDEST DUP3 PUSH2 0x4E69 DUP2 CALLDATALOAD PUSH2 0x34CB JUMP JUMPDEST SWAP3 POP PUSH1 0x20 DUP3 LT ISZERO PUSH2 0x4EA9 JUMPI PUSH2 0x4EA4 PUSH32 0xFFFFFFFFFFFFFFFFFFFFFFFFFFFFFFFFFFFFFFFFFFFFFFFFFFFFFFFFFFFFFFFF DUP4 PUSH1 0x20 SUB PUSH1 0x8 MUL PUSH2 0x4045 JUMP JUMPDEST DUP4 AND SWAP3 POP JUMPDEST POP POP SWAP3 SWAP2 POP POP JUMP JUMPDEST PUSH0 PUSH32 0xFFFFFFFFFFFFFFFF000000000000000000000000000000000000000000000000 DUP3 AND SWAP1 POP SWAP2 SWAP1 POP JUMP JUMPDEST PUSH0 PUSH2 0x4EE7 DUP4 DUP4 PUSH2 0x401A JUMP JUMPDEST DUP3 PUSH2 0x4EF2 DUP2 CALLDATALOAD PUSH2 0x4EB1 JUMP JUMPDEST SWAP3 POP PUSH1 0x8 DUP3 LT ISZERO PUSH2 0x4F32 JUMPI PUSH2 0x4F2D PUSH32 0xFFFFFFFFFFFFFFFF000000000000000000000000000000000000000000000000 DUP4 PUSH1 0x8 SUB PUSH1 0x8 MUL PUSH2 0x4045 JUMP JUMPDEST DUP4 AND SWAP3 POP JUMPDEST POP POP SWAP3 SWAP2 POP POP JUMP JUMPDEST PUSH0 DUP2 PUSH1 0xC0 SHL SWAP1 POP SWAP2 SWAP1 POP JUMP JUMPDEST PUSH0 PUSH2 0x4F50 DUP3 PUSH2 0x4F3A JUMP JUMPDEST SWAP1 POP SWAP2 SWAP1 POP JUMP JUMPDEST PUSH2 0x4F68 PUSH2 0x4F63 DUP3 PUSH2 0x3685 JUMP JUMPDEST PUSH2 0x4F46 JUMP JUMPDEST DUP3 MSTORE POP POP JUMP JUMPDEST PUSH0 DUP2 PUSH1 0xE0 SHL SWAP1 POP SWAP2 SWAP1 POP JUMP JUMPDEST PUSH0 PUSH2 0x4F84 DUP3 PUSH2 0x4F6E JUMP JUMPDEST SWAP1 POP SWAP2 SWAP1 POP JUMP JUMPDEST PUSH2 0x4F9C PUSH2 0x4F97 DUP3 PUSH2 0x37A1 JUMP JUMPDEST PUSH2 0x4F7A JUMP JUMPDEST DUP3 MSTORE POP POP JUMP JUMPDEST PUSH0 DUP2 SWAP1 POP SWAP2 SWAP1 POP JUMP JUMPDEST PUSH2 0x4FBC PUSH2 0x4FB7 DUP3 PUSH2 0x317E JUMP JUMPDEST PUSH2 0x4FA2 JUMP JUMPDEST DUP3 MSTORE POP POP JUMP JUMPDEST PUSH0 PUSH2 0x4FCD DUP3 DUP8 PUSH2 0x4F57 JUMP JUMPDEST PUSH1 0x8 DUP3 ADD SWAP2 POP PUSH2 0x4FDD DUP3 DUP7 PUSH2 0x4F8B JUMP JUMPDEST PUSH1 0x4 DUP3 ADD SWAP2 POP PUSH2 0x4FED DUP3 DUP6 PUSH2 0x4FAB JUMP JUMPDEST PUSH1 0x20 DUP3 ADD SWAP2 POP PUSH2 0x4FFD DUP3 DUP5 PUSH2 0x452D JUMP JUMPDEST SWAP2 POP DUP2 SWAP1 POP SWAP6 SWAP5 POP POP POP POP POP JUMP JUMPDEST PUSH0 PUSH2 0x5015 DUP3 PUSH2 0x317E JUMP JUMPDEST SWAP2 POP PUSH2 0x5020 DUP4 PUSH2 0x317E JUMP JUMPDEST SWAP3 POP DUP3 DUP3 ADD SWAP1 POP DUP1 DUP3 GT ISZERO PUSH2 0x5038 JUMPI PUSH2 0x5037 PUSH2 0x4DB5 JUMP JUMPDEST JUMPDEST SWAP3 SWAP2 POP POP JUMP JUMPDEST PUSH0 DUP2 SWAP1 POP SWAP2 SWAP1 POP JUMP JUMPDEST PUSH2 0x5058 PUSH2 0x5053 DUP3 PUSH2 0x34CB JUMP JUMPDEST PUSH2 0x503E JUMP JUMPDEST DUP3 MSTORE POP POP JUMP JUMPDEST PUSH0 PUSH2 0x5069 DUP3 DUP6 PUSH2 0x5047 JUMP JUMPDEST PUSH1 0x20 DUP3 ADD SWAP2 POP PUSH2 0x5079 DUP3 DUP5 PUSH2 0x4F57 JUMP JUMPDEST PUSH1 0x8 DUP3 ADD SWAP2 POP DUP2 SWAP1 POP SWAP4 SWAP3 POP POP POP JUMP JUMPDEST PUSH0 PUSH2 0x5094 DUP3 DUP8 PUSH2 0x5047 JUMP JUMPDEST PUSH1 0x20 DUP3 ADD SWAP2 POP PUSH2 0x50A4 DUP3 DUP7 PUSH2 0x4F57 JUMP JUMPDEST PUSH1 0x8 DUP3 ADD SWAP2 POP PUSH2 0x50B4 DUP3 DUP6 PUSH2 0x5047 JUMP JUMPDEST PUSH1 0x20 DUP3 ADD SWAP2 POP PUSH2 0x50C4 DUP3 DUP5 PUSH2 0x452D JUMP JUMPDEST SWAP2 POP DUP2 SWAP1 POP SWAP6 SWAP5 POP POP POP POP POP JUMP JUMPDEST PUSH0 DUP2 MLOAD SWAP1 POP PUSH2 0x50E0 DUP2 PUSH2 0x3154 JUMP JUMPDEST SWAP3 SWAP2 POP POP JUMP JUMPDEST PUSH0 PUSH1 0x20 DUP3 DUP5 SUB SLT ISZERO PUSH2 0x50FB JUMPI PUSH2 0x50FA PUSH2 0x311C JUMP JUMPDEST JUMPDEST PUSH0 PUSH2 0x5108 DUP5 DUP3 DUP6 ADD PUSH2 0x50D2 JUMP JUMPDEST SWAP2 POP POP SWAP3 SWAP2 POP POP JUMP JUMPDEST PUSH0 PUSH1 0x60 DUP3 ADD SWAP1 POP PUSH2 0x5124 PUSH0 DUP4 ADD DUP7 PUSH2 0x3485 JUMP JUMPDEST PUSH2 0x5131 PUSH1 0x20 DUP4 ADD DUP6 PUSH2 0x3485 JUMP JUMPDEST PUSH2 0x513E PUSH1 0x40 DUP4 ADD DUP5 PUSH2 0x36F5 JUMP JUMPDEST SWAP5 SWAP4 POP POP POP POP JUMP JUMPDEST PUSH0 PUSH2 0x5151 DUP3 DUP5 PUSH2 0x452D JUMP JUMPDEST SWAP2 POP DUP2 SWAP1 POP SWAP3 SWAP2 POP POP JUMP INVALID LOG2 PUSH5 0x6970667358 0x22 SLT KECCAK256 0xED PUSH23 0x849DFB3F677A5A121F5B09B2597D9C623254F9DE3CE2E4 0xAC 0xAD DUP10 SWAP15 PUSH2 0x8AA6 PUSH5 0x736F6C6343 STOP ADDMOD NOT STOP CALLER "
		},
		"gasEstimates": {
			"creation": {
				"codeDepositCost": "4176400",
				"executionCost": "infinite",
				"totalCost": "infinite"
			},
			"external": {
				"SEND()": "465",
				"SEND_AND_CALL()": "377",
				"allowInitializePath((uint32,bytes32,uint64))": "3150",
				"allowance(address,address)": "infinite",
				"approvalRequired()": "375",
				"approve(address,uint256)": "infinite",
				"balanceOf(address)": "2962",
				"combineOptions(uint32,uint16,bytes)": "infinite",
				"composeMsgSender()": "490",
				"credit(address,uint256)": "infinite",
				"debit(uint256,uint256,uint32)": "infinite",
				"decimalConversionRate()": "infinite",
				"decimals()": "384",
				"endpoint()": "infinite",
				"enforcedOptions(uint32,uint16)": "infinite",
				"isPeer(uint32,bytes32)": "3037",
				"lzReceive((uint32,bytes32,uint64),bytes32,bytes,address,bytes)": "infinite",
				"lzReceiveAndRevert(((uint32,bytes32,uint64),uint32,address,bytes32,uint256,address,bytes,bytes)[])": "infinite",
				"lzReceiveSimulate((uint32,bytes32,uint64),bytes32,bytes,address,bytes)": "infinite",
				"msgInspector()": "2621",
				"name()": "infinite",
				"nextNonce(uint32,bytes32)": "814",
				"oApp()": "491",
				"oAppVersion()": "infinite",
				"oftVersion()": "525",
				"owner()": "2605",
				"peers(uint32)": "2915",
				"preCrime()": "2597",
				"quoteOFT((uint32,bytes32,uint256,uint256,bytes,bytes,bytes))": "infinite",
				"quoteSend((uint32,bytes32,uint256,uint256,bytes,bytes,bytes),bool)": "infinite",
				"renounceOwnership()": "infinite",
				"send((uint32,bytes32,uint256,uint256,bytes,bytes,bytes),(uint256,uint256),address)": "infinite",
				"setDelegate(address)": "infinite",
				"setEnforcedOptions((uint32,uint16,bytes)[])": "infinite",
				"setMsgInspector(address)": "infinite",
				"setPeer(uint32,bytes32)": "infinite",
				"setPreCrime(address)": "infinite",
				"sharedDecimals()": "406",
				"symbol()": "infinite",
				"token()": "511",
				"totalSupply()": "2544",
				"transfer(address,uint256)": "infinite",
				"transferFrom(address,address,uint256)": "infinite",
				"transferOwnership(address)": "infinite"
			}
		},
		"methodIdentifiers": {
			"SEND()": "1f5e1334",
			"SEND_AND_CALL()": "134d4f25",
			"allowInitializePath((uint32,bytes32,uint64))": "ff7bd03d",
			"allowance(address,address)": "dd62ed3e",
			"approvalRequired()": "9f68b964",
			"approve(address,uint256)": "095ea7b3",
			"balanceOf(address)": "70a08231",
			"combineOptions(uint32,uint16,bytes)": "bc70b354",
			"composeMsgSender()": "b92d0eff",
			"credit(address,uint256)": "ef6506db",
			"debit(uint256,uint256,uint32)": "54f52414",
			"decimalConversionRate()": "963efcaa",
			"decimals()": "313ce567",
			"endpoint()": "5e280f11",
			"enforcedOptions(uint32,uint16)": "5535d461",
			"isPeer(uint32,bytes32)": "5a0dfe4d",
			"lzReceive((uint32,bytes32,uint64),bytes32,bytes,address,bytes)": "13137d65",
			"lzReceiveAndRevert(((uint32,bytes32,uint64),uint32,address,bytes32,uint256,address,bytes,bytes)[])": "bd815db0",
			"lzReceiveSimulate((uint32,bytes32,uint64),bytes32,bytes,address,bytes)": "d045a0dc",
			"msgInspector()": "111ecdad",
			"name()": "06fdde03",
			"nextNonce(uint32,bytes32)": "7d25a05e",
			"oApp()": "52ae2879",
			"oAppVersion()": "17442b70",
			"oftVersion()": "156a0d0f",
			"owner()": "8da5cb5b",
			"peers(uint32)": "bb0b6a53",
			"preCrime()": "b731ea0a",
			"quoteOFT((uint32,bytes32,uint256,uint256,bytes,bytes,bytes))": "0d35b415",
			"quoteSend((uint32,bytes32,uint256,uint256,bytes,bytes,bytes),bool)": "3b6f743b",
			"renounceOwnership()": "715018a6",
			"send((uint32,bytes32,uint256,uint256,bytes,bytes,bytes),(uint256,uint256),address)": "c7c7f5b3",
			"setDelegate(address)": "ca5eb5e1",
			"setEnforcedOptions((uint32,uint16,bytes)[])": "b98bd070",
			"setMsgInspector(address)": "6fc1b31e",
			"setPeer(uint32,bytes32)": "3400288b",
			"setPreCrime(address)": "d4243885",
			"sharedDecimals()": "857749b0",
			"symbol()": "95d89b41",
			"token()": "fc0c546a",
			"totalSupply()": "18160ddd",
			"transfer(address,uint256)": "a9059cbb",
			"transferFrom(address,address,uint256)": "23b872dd",
			"transferOwnership(address)": "f2fde38b"
		}
	},
	"abi": [
		{
			"inputs": [
				{
					"internalType": "string",
					"name": "_name",
					"type": "string"
				},
				{
					"internalType": "string",
					"name": "_symbol",
					"type": "string"
				},
				{
					"internalType": "address",
					"name": "_lzEndpoint",
					"type": "address"
				},
				{
					"internalType": "address",
					"name": "_delegate",
					"type": "address"
				},
				{
					"internalType": "uint32",
					"name": "_eid",
					"type": "uint32"
				}
			],
			"stateMutability": "nonpayable",
			"type": "constructor"
		},
		{
			"inputs": [
				{
					"internalType": "address",
					"name": "target",
					"type": "address"
				}
			],
			"name": "AddressEmptyCode",
			"type": "error"
		},
		{
			"inputs": [
				{
					"internalType": "address",
					"name": "account",
					"type": "address"
				}
			],
			"name": "AddressInsufficientBalance",
			"type": "error"
		},
		{
			"inputs": [
				{
					"internalType": "address",
					"name": "spender",
					"type": "address"
				},
				{
					"internalType": "uint256",
					"name": "allowance",
					"type": "uint256"
				},
				{
					"internalType": "uint256",
					"name": "needed",
					"type": "uint256"
				}
			],
			"name": "ERC20InsufficientAllowance",
			"type": "error"
		},
		{
			"inputs": [
				{
					"internalType": "address",
					"name": "sender",
					"type": "address"
				},
				{
					"internalType": "uint256",
					"name": "balance",
					"type": "uint256"
				},
				{
					"internalType": "uint256",
					"name": "needed",
					"type": "uint256"
				}
			],
			"name": "ERC20InsufficientBalance",
			"type": "error"
		},
		{
			"inputs": [
				{
					"internalType": "address",
					"name": "approver",
					"type": "address"
				}
			],
			"name": "ERC20InvalidApprover",
			"type": "error"
		},
		{
			"inputs": [
				{
					"internalType": "address",
					"name": "receiver",
					"type": "address"
				}
			],
			"name": "ERC20InvalidReceiver",
			"type": "error"
		},
		{
			"inputs": [
				{
					"internalType": "address",
					"name": "sender",
					"type": "address"
				}
			],
			"name": "ERC20InvalidSender",
			"type": "error"
		},
		{
			"inputs": [
				{
					"internalType": "address",
					"name": "spender",
					"type": "address"
				}
			],
			"name": "ERC20InvalidSpender",
			"type": "error"
		},
		{
			"inputs": [],
			"name": "FailedInnerCall",
			"type": "error"
		},
		{
			"inputs": [],
			"name": "InvalidDelegate",
			"type": "error"
		},
		{
			"inputs": [],
			"name": "InvalidEndpointCall",
			"type": "error"
		},
		{
			"inputs": [],
			"name": "InvalidLocalDecimals",
			"type": "error"
		},
		{
			"inputs": [
				{
					"internalType": "bytes",
					"name": "options",
					"type": "bytes"
				}
			],
			"name": "InvalidOptions",
			"type": "error"
		},
		{
			"inputs": [],
			"name": "LzTokenUnavailable",
			"type": "error"
		},
		{
			"inputs": [
				{
					"internalType": "uint32",
					"name": "eid",
					"type": "uint32"
				}
			],
			"name": "NoPeer",
			"type": "error"
		},
		{
			"inputs": [
				{
					"internalType": "uint256",
					"name": "msgValue",
					"type": "uint256"
				}
			],
			"name": "NotEnoughNative",
			"type": "error"
		},
		{
			"inputs": [
				{
					"internalType": "address",
					"name": "addr",
					"type": "address"
				}
			],
			"name": "OnlyEndpoint",
			"type": "error"
		},
		{
			"inputs": [
				{
					"internalType": "uint32",
					"name": "eid",
					"type": "uint32"
				},
				{
					"internalType": "bytes32",
					"name": "sender",
					"type": "bytes32"
				}
			],
			"name": "OnlyPeer",
			"type": "error"
		},
		{
			"inputs": [],
			"name": "OnlySelf",
			"type": "error"
		},
		{
			"inputs": [
				{
					"internalType": "address",
					"name": "owner",
					"type": "address"
				}
			],
			"name": "OwnableInvalidOwner",
			"type": "error"
		},
		{
			"inputs": [
				{
					"internalType": "address",
					"name": "account",
					"type": "address"
				}
			],
			"name": "OwnableUnauthorizedAccount",
			"type": "error"
		},
		{
			"inputs": [
				{
					"internalType": "address",
					"name": "token",
					"type": "address"
				}
			],
			"name": "SafeERC20FailedOperation",
			"type": "error"
		},
		{
			"inputs": [
				{
					"internalType": "bytes",
					"name": "result",
					"type": "bytes"
				}
			],
			"name": "SimulationResult",
			"type": "error"
		},
		{
			"inputs": [
				{
					"internalType": "uint256",
					"name": "amountLD",
					"type": "uint256"
				},
				{
					"internalType": "uint256",
					"name": "minAmountLD",
					"type": "uint256"
				}
			],
			"name": "SlippageExceeded",
			"type": "error"
		},
		{
			"anonymous": false,
			"inputs": [
				{
					"indexed": true,
					"internalType": "address",
					"name": "owner",
					"type": "address"
				},
				{
					"indexed": true,
					"internalType": "address",
					"name": "spender",
					"type": "address"
				},
				{
					"indexed": false,
					"internalType": "uint256",
					"name": "value",
					"type": "uint256"
				}
			],
			"name": "Approval",
			"type": "event"
		},
		{
			"anonymous": false,
			"inputs": [
				{
					"components": [
						{
							"internalType": "uint32",
							"name": "eid",
							"type": "uint32"
						},
						{
							"internalType": "uint16",
							"name": "msgType",
							"type": "uint16"
						},
						{
							"internalType": "bytes",
							"name": "options",
							"type": "bytes"
						}
					],
					"indexed": false,
					"internalType": "struct EnforcedOptionParam[]",
					"name": "_enforcedOptions",
					"type": "tuple[]"
				}
			],
			"name": "EnforcedOptionSet",
			"type": "event"
		},
		{
			"anonymous": false,
			"inputs": [
				{
					"indexed": false,
					"internalType": "address",
					"name": "inspector",
					"type": "address"
				}
			],
			"name": "MsgInspectorSet",
			"type": "event"
		},
		{
			"anonymous": false,
			"inputs": [
				{
					"indexed": true,
					"internalType": "bytes32",
					"name": "guid",
					"type": "bytes32"
				},
				{
					"indexed": false,
					"internalType": "uint32",
					"name": "srcEid",
					"type": "uint32"
				},
				{
					"indexed": true,
					"internalType": "address",
					"name": "toAddress",
					"type": "address"
				},
				{
					"indexed": false,
					"internalType": "uint256",
					"name": "amountReceivedLD",
					"type": "uint256"
				}
			],
			"name": "OFTReceived",
			"type": "event"
		},
		{
			"anonymous": false,
			"inputs": [
				{
					"indexed": true,
					"internalType": "bytes32",
					"name": "guid",
					"type": "bytes32"
				},
				{
					"indexed": false,
					"internalType": "uint32",
					"name": "dstEid",
					"type": "uint32"
				},
				{
					"indexed": true,
					"internalType": "address",
					"name": "fromAddress",
					"type": "address"
				},
				{
					"indexed": false,
					"internalType": "uint256",
					"name": "amountSentLD",
					"type": "uint256"
				},
				{
					"indexed": false,
					"internalType": "uint256",
					"name": "amountReceivedLD",
					"type": "uint256"
				}
			],
			"name": "OFTSent",
			"type": "event"
		},
		{
			"anonymous": false,
			"inputs": [
				{
					"indexed": true,
					"internalType": "address",
					"name": "previousOwner",
					"type": "address"
				},
				{
					"indexed": true,
					"internalType": "address",
					"name": "newOwner",
					"type": "address"
				}
			],
			"name": "OwnershipTransferred",
			"type": "event"
		},
		{
			"anonymous": false,
			"inputs": [
				{
					"indexed": false,
					"internalType": "uint32",
					"name": "eid",
					"type": "uint32"
				},
				{
					"indexed": false,
					"internalType": "bytes32",
					"name": "peer",
					"type": "bytes32"
				}
			],
			"name": "PeerSet",
			"type": "event"
		},
		{
			"anonymous": false,
			"inputs": [
				{
					"indexed": false,
					"internalType": "address",
					"name": "preCrimeAddress",
					"type": "address"
				}
			],
			"name": "PreCrimeSet",
			"type": "event"
		},
		{
			"anonymous": false,
			"inputs": [
				{
					"indexed": true,
					"internalType": "address",
					"name": "from",
					"type": "address"
				},
				{
					"indexed": true,
					"internalType": "address",
					"name": "to",
					"type": "address"
				},
				{
					"indexed": false,
					"internalType": "uint256",
					"name": "value",
					"type": "uint256"
				}
			],
			"name": "Transfer",
			"type": "event"
		},
		{
			"inputs": [],
			"name": "SEND",
			"outputs": [
				{
					"internalType": "uint16",
					"name": "",
					"type": "uint16"
				}
			],
			"stateMutability": "view",
			"type": "function"
		},
		{
			"inputs": [],
			"name": "SEND_AND_CALL",
			"outputs": [
				{
					"internalType": "uint16",
					"name": "",
					"type": "uint16"
				}
			],
			"stateMutability": "view",
			"type": "function"
		},
		{
			"inputs": [
				{
					"components": [
						{
							"internalType": "uint32",
							"name": "srcEid",
							"type": "uint32"
						},
						{
							"internalType": "bytes32",
							"name": "sender",
							"type": "bytes32"
						},
						{
							"internalType": "uint64",
							"name": "nonce",
							"type": "uint64"
						}
					],
					"internalType": "struct Origin",
					"name": "origin",
					"type": "tuple"
				}
			],
			"name": "allowInitializePath",
			"outputs": [
				{
					"internalType": "bool",
					"name": "",
					"type": "bool"
				}
			],
			"stateMutability": "view",
			"type": "function"
		},
		{
			"inputs": [
				{
					"internalType": "address",
					"name": "owner",
					"type": "address"
				},
				{
					"internalType": "address",
					"name": "spender",
					"type": "address"
				}
			],
			"name": "allowance",
			"outputs": [
				{
					"internalType": "uint256",
					"name": "",
					"type": "uint256"
				}
			],
			"stateMutability": "view",
			"type": "function"
		},
		{
			"inputs": [],
			"name": "approvalRequired",
			"outputs": [
				{
					"internalType": "bool",
					"name": "",
					"type": "bool"
				}
			],
			"stateMutability": "pure",
			"type": "function"
		},
		{
			"inputs": [
				{
					"internalType": "address",
					"name": "spender",
					"type": "address"
				},
				{
					"internalType": "uint256",
					"name": "value",
					"type": "uint256"
				}
			],
			"name": "approve",
			"outputs": [
				{
					"internalType": "bool",
					"name": "",
					"type": "bool"
				}
			],
			"stateMutability": "nonpayable",
			"type": "function"
		},
		{
			"inputs": [
				{
					"internalType": "address",
					"name": "account",
					"type": "address"
				}
			],
			"name": "balanceOf",
			"outputs": [
				{
					"internalType": "uint256",
					"name": "",
					"type": "uint256"
				}
			],
			"stateMutability": "view",
			"type": "function"
		},
		{
			"inputs": [
				{
					"internalType": "uint32",
					"name": "_eid",
					"type": "uint32"
				},
				{
					"internalType": "uint16",
					"name": "_msgType",
					"type": "uint16"
				},
				{
					"internalType": "bytes",
					"name": "_extraOptions",
					"type": "bytes"
				}
			],
			"name": "combineOptions",
			"outputs": [
				{
					"internalType": "bytes",
					"name": "",
					"type": "bytes"
				}
			],
			"stateMutability": "view",
			"type": "function"
		},
		{
			"inputs": [],
			"name": "composeMsgSender",
			"outputs": [
				{
					"internalType": "address",
					"name": "sender",
					"type": "address"
				}
			],
			"stateMutability": "view",
			"type": "function"
		},
		{
			"inputs": [
				{
					"internalType": "address",
					"name": "_to",
					"type": "address"
				},
				{
					"internalType": "uint256",
					"name": "_amountLD",
					"type": "uint256"
				}
			],
			"name": "credit",
			"outputs": [],
			"stateMutability": "payable",
			"type": "function"
		},
		{
			"inputs": [
				{
					"internalType": "uint256",
					"name": "_amountLD",
					"type": "uint256"
				},
				{
					"internalType": "uint256",
					"name": "_minAmountLD",
					"type": "uint256"
				},
				{
					"internalType": "uint32",
					"name": "_dstEid",
					"type": "uint32"
				}
			],
			"name": "debit",
			"outputs": [],
			"stateMutability": "payable",
			"type": "function"
		},
		{
			"inputs": [],
			"name": "decimalConversionRate",
			"outputs": [
				{
					"internalType": "uint256",
					"name": "",
					"type": "uint256"
				}
			],
			"stateMutability": "view",
			"type": "function"
		},
		{
			"inputs": [],
			"name": "decimals",
			"outputs": [
				{
					"internalType": "uint8",
					"name": "",
					"type": "uint8"
				}
			],
			"stateMutability": "view",
			"type": "function"
		},
		{
			"inputs": [],
			"name": "endpoint",
			"outputs": [
				{
					"internalType": "contract ILayerZeroEndpointV2",
					"name": "",
					"type": "address"
				}
			],
			"stateMutability": "view",
			"type": "function"
		},
		{
			"inputs": [
				{
					"internalType": "uint32",
					"name": "eid",
					"type": "uint32"
				},
				{
					"internalType": "uint16",
					"name": "msgType",
					"type": "uint16"
				}
			],
			"name": "enforcedOptions",
			"outputs": [
				{
					"internalType": "bytes",
					"name": "enforcedOption",
					"type": "bytes"
				}
			],
			"stateMutability": "view",
			"type": "function"
		},
		{
			"inputs": [
				{
					"internalType": "uint32",
					"name": "_eid",
					"type": "uint32"
				},
				{
					"internalType": "bytes32",
					"name": "_peer",
					"type": "bytes32"
				}
			],
			"name": "isPeer",
			"outputs": [
				{
					"internalType": "bool",
					"name": "",
					"type": "bool"
				}
			],
			"stateMutability": "view",
			"type": "function"
		},
		{
			"inputs": [
				{
					"components": [
						{
							"internalType": "uint32",
							"name": "srcEid",
							"type": "uint32"
						},
						{
							"internalType": "bytes32",
							"name": "sender",
							"type": "bytes32"
						},
						{
							"internalType": "uint64",
							"name": "nonce",
							"type": "uint64"
						}
					],
					"internalType": "struct Origin",
					"name": "_origin",
					"type": "tuple"
				},
				{
					"internalType": "bytes32",
					"name": "_guid",
					"type": "bytes32"
				},
				{
					"internalType": "bytes",
					"name": "_message",
					"type": "bytes"
				},
				{
					"internalType": "address",
					"name": "_executor",
					"type": "address"
				},
				{
					"internalType": "bytes",
					"name": "_extraData",
					"type": "bytes"
				}
			],
			"name": "lzReceive",
			"outputs": [],
			"stateMutability": "payable",
			"type": "function"
		},
		{
			"inputs": [
				{
					"components": [
						{
							"components": [
								{
									"internalType": "uint32",
									"name": "srcEid",
									"type": "uint32"
								},
								{
									"internalType": "bytes32",
									"name": "sender",
									"type": "bytes32"
								},
								{
									"internalType": "uint64",
									"name": "nonce",
									"type": "uint64"
								}
							],
							"internalType": "struct Origin",
							"name": "origin",
							"type": "tuple"
						},
						{
							"internalType": "uint32",
							"name": "dstEid",
							"type": "uint32"
						},
						{
							"internalType": "address",
							"name": "receiver",
							"type": "address"
						},
						{
							"internalType": "bytes32",
							"name": "guid",
							"type": "bytes32"
						},
						{
							"internalType": "uint256",
							"name": "value",
							"type": "uint256"
						},
						{
							"internalType": "address",
							"name": "executor",
							"type": "address"
						},
						{
							"internalType": "bytes",
							"name": "message",
							"type": "bytes"
						},
						{
							"internalType": "bytes",
							"name": "extraData",
							"type": "bytes"
						}
					],
					"internalType": "struct InboundPacket[]",
					"name": "_packets",
					"type": "tuple[]"
				}
			],
			"name": "lzReceiveAndRevert",
			"outputs": [],
			"stateMutability": "payable",
			"type": "function"
		},
		{
			"inputs": [
				{
					"components": [
						{
							"internalType": "uint32",
							"name": "srcEid",
							"type": "uint32"
						},
						{
							"internalType": "bytes32",
							"name": "sender",
							"type": "bytes32"
						},
						{
							"internalType": "uint64",
							"name": "nonce",
							"type": "uint64"
						}
					],
					"internalType": "struct Origin",
					"name": "_origin",
					"type": "tuple"
				},
				{
					"internalType": "bytes32",
					"name": "_guid",
					"type": "bytes32"
				},
				{
					"internalType": "bytes",
					"name": "_message",
					"type": "bytes"
				},
				{
					"internalType": "address",
					"name": "_executor",
					"type": "address"
				},
				{
					"internalType": "bytes",
					"name": "_extraData",
					"type": "bytes"
				}
			],
			"name": "lzReceiveSimulate",
			"outputs": [],
			"stateMutability": "payable",
			"type": "function"
		},
		{
			"inputs": [],
			"name": "msgInspector",
			"outputs": [
				{
					"internalType": "address",
					"name": "",
					"type": "address"
				}
			],
			"stateMutability": "view",
			"type": "function"
		},
		{
			"inputs": [],
			"name": "name",
			"outputs": [
				{
					"internalType": "string",
					"name": "",
					"type": "string"
				}
			],
			"stateMutability": "view",
			"type": "function"
		},
		{
			"inputs": [
				{
					"internalType": "uint32",
					"name": "",
					"type": "uint32"
				},
				{
					"internalType": "bytes32",
					"name": "",
					"type": "bytes32"
				}
			],
			"name": "nextNonce",
			"outputs": [
				{
					"internalType": "uint64",
					"name": "nonce",
					"type": "uint64"
				}
			],
			"stateMutability": "view",
			"type": "function"
		},
		{
			"inputs": [],
			"name": "oApp",
			"outputs": [
				{
					"internalType": "address",
					"name": "",
					"type": "address"
				}
			],
			"stateMutability": "view",
			"type": "function"
		},
		{
			"inputs": [],
			"name": "oAppVersion",
			"outputs": [
				{
					"internalType": "uint64",
					"name": "senderVersion",
					"type": "uint64"
				},
				{
					"internalType": "uint64",
					"name": "receiverVersion",
					"type": "uint64"
				}
			],
			"stateMutability": "pure",
			"type": "function"
		},
		{
			"inputs": [],
			"name": "oftVersion",
			"outputs": [
				{
					"internalType": "bytes4",
					"name": "interfaceId",
					"type": "bytes4"
				},
				{
					"internalType": "uint64",
					"name": "version",
					"type": "uint64"
				}
			],
			"stateMutability": "pure",
			"type": "function"
		},
		{
			"inputs": [],
			"name": "owner",
			"outputs": [
				{
					"internalType": "address",
					"name": "",
					"type": "address"
				}
			],
			"stateMutability": "view",
			"type": "function"
		},
		{
			"inputs": [
				{
					"internalType": "uint32",
					"name": "eid",
					"type": "uint32"
				}
			],
			"name": "peers",
			"outputs": [
				{
					"internalType": "bytes32",
					"name": "peer",
					"type": "bytes32"
				}
			],
			"stateMutability": "view",
			"type": "function"
		},
		{
			"inputs": [],
			"name": "preCrime",
			"outputs": [
				{
					"internalType": "address",
					"name": "",
					"type": "address"
				}
			],
			"stateMutability": "view",
			"type": "function"
		},
		{
			"inputs": [
				{
					"components": [
						{
							"internalType": "uint32",
							"name": "dstEid",
							"type": "uint32"
						},
						{
							"internalType": "bytes32",
							"name": "to",
							"type": "bytes32"
						},
						{
							"internalType": "uint256",
							"name": "amountLD",
							"type": "uint256"
						},
						{
							"internalType": "uint256",
							"name": "minAmountLD",
							"type": "uint256"
						},
						{
							"internalType": "bytes",
							"name": "extraOptions",
							"type": "bytes"
						},
						{
							"internalType": "bytes",
							"name": "composeMsg",
							"type": "bytes"
						},
						{
							"internalType": "bytes",
							"name": "oftCmd",
							"type": "bytes"
						}
					],
					"internalType": "struct SendParam",
					"name": "_sendParam",
					"type": "tuple"
				}
			],
			"name": "quoteOFT",
			"outputs": [
				{
					"components": [
						{
							"internalType": "uint256",
							"name": "minAmountLD",
							"type": "uint256"
						},
						{
							"internalType": "uint256",
							"name": "maxAmountLD",
							"type": "uint256"
						}
					],
					"internalType": "struct OFTLimit",
					"name": "oftLimit",
					"type": "tuple"
				},
				{
					"components": [
						{
							"internalType": "int256",
							"name": "feeAmountLD",
							"type": "int256"
						},
						{
							"internalType": "string",
							"name": "description",
							"type": "string"
						}
					],
					"internalType": "struct OFTFeeDetail[]",
					"name": "oftFeeDetails",
					"type": "tuple[]"
				},
				{
					"components": [
						{
							"internalType": "uint256",
							"name": "amountSentLD",
							"type": "uint256"
						},
						{
							"internalType": "uint256",
							"name": "amountReceivedLD",
							"type": "uint256"
						}
					],
					"internalType": "struct OFTReceipt",
					"name": "oftReceipt",
					"type": "tuple"
				}
			],
			"stateMutability": "view",
			"type": "function"
		},
		{
			"inputs": [
				{
					"components": [
						{
							"internalType": "uint32",
							"name": "dstEid",
							"type": "uint32"
						},
						{
							"internalType": "bytes32",
							"name": "to",
							"type": "bytes32"
						},
						{
							"internalType": "uint256",
							"name": "amountLD",
							"type": "uint256"
						},
						{
							"internalType": "uint256",
							"name": "minAmountLD",
							"type": "uint256"
						},
						{
							"internalType": "bytes",
							"name": "extraOptions",
							"type": "bytes"
						},
						{
							"internalType": "bytes",
							"name": "composeMsg",
							"type": "bytes"
						},
						{
							"internalType": "bytes",
							"name": "oftCmd",
							"type": "bytes"
						}
					],
					"internalType": "struct SendParam",
					"name": "_sendParam",
					"type": "tuple"
				},
				{
					"internalType": "bool",
					"name": "_payInLzToken",
					"type": "bool"
				}
			],
			"name": "quoteSend",
			"outputs": [
				{
					"components": [
						{
							"internalType": "uint256",
							"name": "nativeFee",
							"type": "uint256"
						},
						{
							"internalType": "uint256",
							"name": "lzTokenFee",
							"type": "uint256"
						}
					],
					"internalType": "struct MessagingFee",
					"name": "msgFee",
					"type": "tuple"
				}
			],
			"stateMutability": "view",
			"type": "function"
		},
		{
			"inputs": [],
			"name": "renounceOwnership",
			"outputs": [],
			"stateMutability": "nonpayable",
			"type": "function"
		},
		{
			"inputs": [
				{
					"components": [
						{
							"internalType": "uint32",
							"name": "dstEid",
							"type": "uint32"
						},
						{
							"internalType": "bytes32",
							"name": "to",
							"type": "bytes32"
						},
						{
							"internalType": "uint256",
							"name": "amountLD",
							"type": "uint256"
						},
						{
							"internalType": "uint256",
							"name": "minAmountLD",
							"type": "uint256"
						},
						{
							"internalType": "bytes",
							"name": "extraOptions",
							"type": "bytes"
						},
						{
							"internalType": "bytes",
							"name": "composeMsg",
							"type": "bytes"
						},
						{
							"internalType": "bytes",
							"name": "oftCmd",
							"type": "bytes"
						}
					],
					"internalType": "struct SendParam",
					"name": "_sendParam",
					"type": "tuple"
				},
				{
					"components": [
						{
							"internalType": "uint256",
							"name": "nativeFee",
							"type": "uint256"
						},
						{
							"internalType": "uint256",
							"name": "lzTokenFee",
							"type": "uint256"
						}
					],
					"internalType": "struct MessagingFee",
					"name": "_fee",
					"type": "tuple"
				},
				{
					"internalType": "address",
					"name": "_refundAddress",
					"type": "address"
				}
			],
			"name": "send",
			"outputs": [
				{
					"components": [
						{
							"internalType": "bytes32",
							"name": "guid",
							"type": "bytes32"
						},
						{
							"internalType": "uint64",
							"name": "nonce",
							"type": "uint64"
						},
						{
							"components": [
								{
									"internalType": "uint256",
									"name": "nativeFee",
									"type": "uint256"
								},
								{
									"internalType": "uint256",
									"name": "lzTokenFee",
									"type": "uint256"
								}
							],
							"internalType": "struct MessagingFee",
							"name": "fee",
							"type": "tuple"
						}
					],
					"internalType": "struct MessagingReceipt",
					"name": "msgReceipt",
					"type": "tuple"
				},
				{
					"components": [
						{
							"internalType": "uint256",
							"name": "amountSentLD",
							"type": "uint256"
						},
						{
							"internalType": "uint256",
							"name": "amountReceivedLD",
							"type": "uint256"
						}
					],
					"internalType": "struct OFTReceipt",
					"name": "oftReceipt",
					"type": "tuple"
				}
			],
			"stateMutability": "payable",
			"type": "function"
		},
		{
			"inputs": [
				{
					"internalType": "address",
					"name": "_delegate",
					"type": "address"
				}
			],
			"name": "setDelegate",
			"outputs": [],
			"stateMutability": "nonpayable",
			"type": "function"
		},
		{
			"inputs": [
				{
					"components": [
						{
							"internalType": "uint32",
							"name": "eid",
							"type": "uint32"
						},
						{
							"internalType": "uint16",
							"name": "msgType",
							"type": "uint16"
						},
						{
							"internalType": "bytes",
							"name": "options",
							"type": "bytes"
						}
					],
					"internalType": "struct EnforcedOptionParam[]",
					"name": "_enforcedOptions",
					"type": "tuple[]"
				}
			],
			"name": "setEnforcedOptions",
			"outputs": [],
			"stateMutability": "nonpayable",
			"type": "function"
		},
		{
			"inputs": [
				{
					"internalType": "address",
					"name": "_msgInspector",
					"type": "address"
				}
			],
			"name": "setMsgInspector",
			"outputs": [],
			"stateMutability": "nonpayable",
			"type": "function"
		},
		{
			"inputs": [
				{
					"internalType": "uint32",
					"name": "_eid",
					"type": "uint32"
				},
				{
					"internalType": "bytes32",
					"name": "_peer",
					"type": "bytes32"
				}
			],
			"name": "setPeer",
			"outputs": [],
			"stateMutability": "nonpayable",
			"type": "function"
		},
		{
			"inputs": [
				{
					"internalType": "address",
					"name": "_preCrime",
					"type": "address"
				}
			],
			"name": "setPreCrime",
			"outputs": [],
			"stateMutability": "nonpayable",
			"type": "function"
		},
		{
			"inputs": [],
			"name": "sharedDecimals",
			"outputs": [
				{
					"internalType": "uint8",
					"name": "",
					"type": "uint8"
				}
			],
			"stateMutability": "pure",
			"type": "function"
		},
		{
			"inputs": [],
			"name": "symbol",
			"outputs": [
				{
					"internalType": "string",
					"name": "",
					"type": "string"
				}
			],
			"stateMutability": "view",
			"type": "function"
		},
		{
			"inputs": [],
			"name": "token",
			"outputs": [
				{
					"internalType": "address",
					"name": "",
					"type": "address"
				}
			],
			"stateMutability": "view",
			"type": "function"
		},
		{
			"inputs": [],
			"name": "totalSupply",
			"outputs": [
				{
					"internalType": "uint256",
					"name": "",
					"type": "uint256"
				}
			],
			"stateMutability": "view",
			"type": "function"
		},
		{
			"inputs": [
				{
					"internalType": "address",
					"name": "to",
					"type": "address"
				},
				{
					"internalType": "uint256",
					"name": "value",
					"type": "uint256"
				}
			],
			"name": "transfer",
			"outputs": [
				{
					"internalType": "bool",
					"name": "",
					"type": "bool"
				}
			],
			"stateMutability": "nonpayable",
			"type": "function"
		},
		{
			"inputs": [
				{
					"internalType": "address",
					"name": "from",
					"type": "address"
				},
				{
					"internalType": "address",
					"name": "to",
					"type": "address"
				},
				{
					"internalType": "uint256",
					"name": "value",
					"type": "uint256"
				}
			],
			"name": "transferFrom",
			"outputs": [
				{
					"internalType": "bool",
					"name": "",
					"type": "bool"
				}
			],
			"stateMutability": "nonpayable",
			"type": "function"
		},
		{
			"inputs": [
				{
					"internalType": "address",
					"name": "newOwner",
					"type": "address"
				}
			],
			"name": "transferOwnership",
			"outputs": [],
			"stateMutability": "nonpayable",
			"type": "function"
		}
	]
}