{
	"data": {
		"bytecode": {
			"linkReferences": {},
			"object": "60a06040525f600360146101000a81548160ff0219169083151502179055505f600360156101000a81548160ff0219169083151502179055506001600360166101000a81548163ffffffff021916908363ffffffff160217905550348015610065575f80fd5b50604051612e9a380380612e9a833981810160405281019061008791906103b8565b82828181855f73ffffffffffffffffffffffffffffffffffffffff168173ffffffffffffffffffffffffffffffffffffffff16036100fc575f6040517f1e4fbdf70000000000000000000000000000000000000000000000000000000081526004016100f39190610417565b60405180910390fd5b61010b8161029960201b60201c565b508173ffffffffffffffffffffffffffffffffffffffff1660808173ffffffffffffffffffffffffffffffffffffffff16815250505f73ffffffffffffffffffffffffffffffffffffffff168173ffffffffffffffffffffffffffffffffffffffff16036101a5576040517fb586360400000000000000000000000000000000000000000000000000000000815260040160405180910390fd5b60805173ffffffffffffffffffffffffffffffffffffffff1663ca5eb5e1826040518263ffffffff1660e01b81526004016101e09190610417565b5f604051808303815f87803b1580156101f7575f80fd5b505af1158015610209573d5f803e3d5ffd5b50505050505050508060025f6101000a81548173ffffffffffffffffffffffffffffffffffffffff021916908373ffffffffffffffffffffffffffffffffffffffff1602179055503360035f6101000a81548173ffffffffffffffffffffffffffffffffffffffff021916908373ffffffffffffffffffffffffffffffffffffffff160217905550505050610430565b5f805f9054906101000a900473ffffffffffffffffffffffffffffffffffffffff169050815f806101000a81548173ffffffffffffffffffffffffffffffffffffffff021916908373ffffffffffffffffffffffffffffffffffffffff1602179055508173ffffffffffffffffffffffffffffffffffffffff168173ffffffffffffffffffffffffffffffffffffffff167f8be0079c531659141344cd1fd0a4f28419497f9722a3daafe3b4186f6b6457e060405160405180910390a35050565b5f80fd5b5f73ffffffffffffffffffffffffffffffffffffffff82169050919050565b5f6103878261035e565b9050919050565b6103978161037d565b81146103a1575f80fd5b50565b5f815190506103b28161038e565b92915050565b5f805f606084860312156103cf576103ce61035a565b5b5f6103dc868287016103a4565b93505060206103ed868287016103a4565b92505060406103fe868287016103a4565b9150509250925092565b6104118161037d565b82525050565b5f60208201905061042a5f830184610408565b92915050565b608051612a446104565f395f8181610575015281816108dd0152610ef80152612a445ff3fe60806040526004361061014a575f3560e01c80638b836b6b116100b5578063ca5eb5e11161006e578063ca5eb5e114610443578063d5f394881461046b578063e4cf4c6614610495578063f2fde38b146104bd578063fde89598146104e5578063ff7bd03d146104fb5761014a565b80638b836b6b146103375780638da5cb5b14610361578063a5cdc8fc1461038b578063b92d0eff146103b3578063bb0b6a53146103dd578063c8e4d753146104195761014a565b8063564b81ef11610107578063564b81ef1461022d5780635e280f1114610257578063648ea06314610281578063715018a6146102bd578063732c2c64146102d35780637d25a05e146102fb5761014a565b806306ef03391461014e57806313137d651461017857806317442b701461019457806319849d5b146101bf5780633400288b146101e95780633bbe032f14610211575b5f80fd5b348015610159575f80fd5b50610162610537565b60405161016f91906117db565b60405180910390f35b610192600480360381019061018d91906118e5565b61055c565b005b34801561019f575f80fd5b506101a861067c565b6040516101b69291906119be565b60405180910390f35b3480156101ca575f80fd5b506101d3610689565b6040516101e091906119ff565b60405180910390f35b3480156101f4575f80fd5b5061020f600480360381019061020a9190611a51565b61069c565b005b61022b60048036038101906102269190611ac2565b610703565b005b348015610238575f80fd5b506102416108d4565b60405161024e9190611b6e565b60405180910390f35b348015610262575f80fd5b5061026b6108db565b6040516102789190611be2565b60405180910390f35b34801561028c575f80fd5b506102a760048036038101906102a29190611bfb565b6108ff565b6040516102b49190611d08565b60405180910390f35b3480156102c8575f80fd5b506102d1610b2e565b005b3480156102de575f80fd5b506102f960048036038101906102f49190611d22565b610b41565b005b348015610306575f80fd5b50610321600480360381019061031c9190611a51565b610cd3565b60405161032e9190611d86565b60405180910390f35b348015610342575f80fd5b5061034b610cda565b6040516103589190611dae565b60405180910390f35b34801561036c575f80fd5b50610375610cf0565b60405161038291906117db565b60405180910390f35b348015610396575f80fd5b506103b160048036038101906103ac9190611bfb565b610d17565b005b3480156103be575f80fd5b506103c7610ebf565b6040516103d491906117db565b60405180910390f35b3480156103e8575f80fd5b5061040360048036038101906103fe9190611dc7565b610ec6565b6040516104109190611e01565b60405180910390f35b348015610424575f80fd5b5061042d610edb565b60405161043a91906119ff565b60405180910390f35b34801561044e575f80fd5b5061046960048036038101906104649190611e1a565b610eee565b005b348015610476575f80fd5b5061047f610f7f565b60405161048c91906117db565b60405180910390f35b3480156104a0575f80fd5b506104bb60048036038101906104b69190611e1a565b610fa4565b005b3480156104c8575f80fd5b506104e360048036038101906104de9190611e1a565b611076565b005b3480156104f0575f80fd5b506104f96110fa565b005b348015610506575f80fd5b50610521600480360381019061051c9190611e45565b61128b565b60405161052e91906119ff565b60405180910390f35b60025f9054906101000a900473ffffffffffffffffffffffffffffffffffffffff1681565b3373ffffffffffffffffffffffffffffffffffffffff167f000000000000000000000000000000000000000000000000000000000000000073ffffffffffffffffffffffffffffffffffffffff16146105ec57336040517f91ac5e4f0000000000000000000000000000000000000000000000000000000081526004016105e391906117db565b60405180910390fd5b866020013561060b885f0160208101906106069190611dc7565b6112c8565b1461066457865f0160208101906106229190611dc7565b87602001356040517fc26bebcc00000000000000000000000000000000000000000000000000000000815260040161065b929190611e70565b60405180910390fd5b61067387878787878787611339565b50505050505050565b5f80600180915091509091565b600360159054906101000a900460ff1681565b6106a46115c4565b8060015f8463ffffffff1663ffffffff1681526020019081526020015f20819055507f238399d427b947898edb290f5ff0f9109849b1c3ba196a42e35f00c50a54b98b82826040516106f7929190611e70565b60405180910390a15050565b6001600360156101000a81548160ff0219169083151502179055505f8060025f9054906101000a900473ffffffffffffffffffffffffffffffffffffffff1673ffffffffffffffffffffffffffffffffffffffff16848463ffffffff168b8b8b8b8b60405160240161077b9796959493929190611e97565b6040516020818303038152906040527f9390e442000000000000000000000000000000000000000000000000000000007bffffffffffffffffffffffffffffffffffffffffffffffffffffffff19166020820180517bffffffffffffffffffffffffffffffffffffffffffffffffffffffff83818316178352505050506040516108059190611f56565b5f604051808303815f865af19150503d805f811461083e576040519150601f19603f3d011682016040523d82523d5f602084013e610843565b606091505b509150915081610888576040517f08c379a000000000000000000000000000000000000000000000000000000000815260040161087f90611fc6565b60405180910390fd5b5f805f805f805f805f808a8060200190518101906108a69190612066565b99509950995099509950995099509950995099505f8890505050505050505050505050505050505050505050565b5f46905090565b7f000000000000000000000000000000000000000000000000000000000000000081565b610907611713565b5f8060025f9054906101000a900473ffffffffffffffffffffffffffffffffffffffff1673ffffffffffffffffffffffffffffffffffffffff16846040516024016109529190611b6e565b6040516020818303038152906040527f648ea063000000000000000000000000000000000000000000000000000000007bffffffffffffffffffffffffffffffffffffffffffffffffffffffff19166020820180517bffffffffffffffffffffffffffffffffffffffffffffffffffffffff83818316178352505050506040516109dc9190611f56565b5f60405180830381855afa9150503d805f8114610a14576040519150601f19603f3d011682016040523d82523d5f602084013e610a19565b606091505b509150915081610a5e576040517f08c379a0000000000000000000000000000000000000000000000000000000008152600401610a5590612189565b60405180910390fd5b5f805f805f805f805f808a806020019051810190610a7c91906121d1565b99509950995099509950995099509950995099505f6040518061012001604052808c81526020018b73ffffffffffffffffffffffffffffffffffffffff1681526020018a81526020018973ffffffffffffffffffffffffffffffffffffffff1681526020018873ffffffffffffffffffffffffffffffffffffffff16815260200187815260200185815260200184151581526020018315158152509050809d5050505050505050505050505050919050565b610b366115c4565b610b3f5f61164b565b565b5f8060025f9054906101000a900473ffffffffffffffffffffffffffffffffffffffff1673ffffffffffffffffffffffffffffffffffffffff1686868686604051602401610b9294939291906122aa565b6040516020818303038152906040527f732c2c64000000000000000000000000000000000000000000000000000000007bffffffffffffffffffffffffffffffffffffffffffffffffffffffff19166020820180517bffffffffffffffffffffffffffffffffffffffffffffffffffffffff8381831617835250505050604051610c1c9190611f56565b5f604051808303815f865af19150503d805f8114610c55576040519150601f19603f3d011682016040523d82523d5f602084013e610c5a565b606091505b509150915081610c9f576040517f08c379a0000000000000000000000000000000000000000000000000000000008152600401610c9690612337565b60405180910390fd5b5f805f805f8086806020019051810190610cb99190612355565b955095509550955095509550505050505050505050505050565b5f92915050565b600360169054906101000a900463ffffffff1681565b5f805f9054906101000a900473ffffffffffffffffffffffffffffffffffffffff16905090565b5f60025f9054906101000a900473ffffffffffffffffffffffffffffffffffffffff1673ffffffffffffffffffffffffffffffffffffffff1682604051602401610d619190611b6e565b6040516020818303038152906040527fa5cdc8fc000000000000000000000000000000000000000000000000000000007bffffffffffffffffffffffffffffffffffffffffffffffffffffffff19166020820180517bffffffffffffffffffffffffffffffffffffffffffffffffffffffff8381831617835250505050604051610deb9190611f56565b5f604051808303815f865af19150503d805f8114610e24576040519150601f19603f3d011682016040523d82523d5f602084013e610e29565b606091505b5050905080610e6d576040517f08c379a0000000000000000000000000000000000000000000000000000000008152600401610e6490612428565b60405180910390fd5b3373ffffffffffffffffffffffffffffffffffffffff167f9384174c8517f5537b08e79211fc039e8a098571a3a2b4cb21dfa6f3237e8de183604051610eb39190611b6e565b60405180910390a25050565b5f30905090565b6001602052805f5260405f205f915090505481565b600360149054906101000a900460ff1681565b610ef66115c4565b7f000000000000000000000000000000000000000000000000000000000000000073ffffffffffffffffffffffffffffffffffffffff1663ca5eb5e1826040518263ffffffff1660e01b8152600401610f4f91906117db565b5f604051808303815f87803b158015610f66575f80fd5b505af1158015610f78573d5f803e3d5ffd5b5050505050565b60035f9054906101000a900473ffffffffffffffffffffffffffffffffffffffff1681565b60035f9054906101000a900473ffffffffffffffffffffffffffffffffffffffff1673ffffffffffffffffffffffffffffffffffffffff163373ffffffffffffffffffffffffffffffffffffffff1614611033576040517f08c379a000000000000000000000000000000000000000000000000000000000815260040161102a906124b6565b60405180910390fd5b8060025f6101000a81548173ffffffffffffffffffffffffffffffffffffffff021916908373ffffffffffffffffffffffffffffffffffffffff16021790555050565b61107e6115c4565b5f73ffffffffffffffffffffffffffffffffffffffff168173ffffffffffffffffffffffffffffffffffffffff16036110ee575f6040517f1e4fbdf70000000000000000000000000000000000000000000000000000000081526004016110e591906117db565b60405180910390fd5b6110f78161164b565b50565b5f60025f9054906101000a900473ffffffffffffffffffffffffffffffffffffffff1673ffffffffffffffffffffffffffffffffffffffff166040516024016040516020818303038152906040527ffde89598000000000000000000000000000000000000000000000000000000007bffffffffffffffffffffffffffffffffffffffffffffffffffffffff19166020820180517bffffffffffffffffffffffffffffffffffffffffffffffffffffffff83818316178352505050506040516111c39190611f56565b5f604051808303815f865af19150503d805f81146111fc576040519150601f19603f3d011682016040523d82523d5f602084013e611201565b606091505b5050905080611245576040517f08c379a000000000000000000000000000000000000000000000000000000000815260040161123c90612544565b60405180910390fd5b3373ffffffffffffffffffffffffffffffffffffffff167f8595565d6fc010babc8f7612a8768886d8fe08635f358d75af306fdf25f00d0360405160405180910390a250565b5f816020013560015f845f0160208101906112a69190611dc7565b63ffffffff1663ffffffff1681526020019081526020015f2054149050919050565b5f8060015f8463ffffffff1663ffffffff1681526020019081526020015f205490505f801b810361133057826040517ff6ff4fb70000000000000000000000000000000000000000000000000000000081526004016113279190611dae565b60405180910390fd5b80915050919050565b5f805f805f805f8b8b81019061134f91906126ae565b96509650965096509650965096505f8e5f0160208101906113709190611dc7565b90505f8f6020013590506001600360146101000a81548160ff02191690831515021790555081600360166101000a81548163ffffffff021916908363ffffffff1602179055506040516020016113c5906127bb565b60405160208183030381529060405280519060200120876040516020016113ec9190612809565b604051602081830303815290604052805190602001200361147e573073ffffffffffffffffffffffffffffffffffffffff16633bbe032f89888888888f896040518863ffffffff1660e01b815260040161144c979695949392919061281f565b5f604051808303815f87803b158015611463575f80fd5b505af1158015611475573d5f803e3d5ffd5b505050506115b2565b60405160200161148d906128d6565b60405160208183030381529060405280519060200120876040516020016114b49190612809565b6040516020818303038152906040528051906020012003156115b1576040516020016114df90612934565b60405160208183030381529060405280519060200120876040516020016115069190612809565b6040516020818303038152906040528051906020012003156115b05760405160200161153190612992565b60405160208183030381529060405280519060200120876040516020016115589190612809565b6040516020818303038152906040528051906020012003156115af576040517f08c379a00000000000000000000000000000000000000000000000000000000081526004016115a6906129f0565b60405180910390fd5b5b5b5b50505050505050505050505050505050565b6115cc61170c565b73ffffffffffffffffffffffffffffffffffffffff166115ea610cf0565b73ffffffffffffffffffffffffffffffffffffffff16146116495761160d61170c565b6040517f118cdaa700000000000000000000000000000000000000000000000000000000815260040161164091906117db565b60405180910390fd5b565b5f805f9054906101000a900473ffffffffffffffffffffffffffffffffffffffff169050815f806101000a81548173ffffffffffffffffffffffffffffffffffffffff021916908373ffffffffffffffffffffffffffffffffffffffff1602179055508173ffffffffffffffffffffffffffffffffffffffff168173ffffffffffffffffffffffffffffffffffffffff167f8be0079c531659141344cd1fd0a4f28419497f9722a3daafe3b4186f6b6457e060405160405180910390a35050565b5f33905090565b6040518061012001604052805f81526020015f73ffffffffffffffffffffffffffffffffffffffff1681526020015f81526020015f73ffffffffffffffffffffffffffffffffffffffff1681526020015f73ffffffffffffffffffffffffffffffffffffffff1681526020015f81526020015f81526020015f151581526020015f151581525090565b5f73ffffffffffffffffffffffffffffffffffffffff82169050919050565b5f6117c58261179c565b9050919050565b6117d5816117bb565b82525050565b5f6020820190506117ee5f8301846117cc565b92915050565b5f604051905090565b5f80fd5b5f80fd5b5f80fd5b5f6060828403121561181e5761181d611805565b5b81905092915050565b5f819050919050565b61183981611827565b8114611843575f80fd5b50565b5f8135905061185481611830565b92915050565b5f80fd5b5f80fd5b5f80fd5b5f8083601f84011261187b5761187a61185a565b5b8235905067ffffffffffffffff8111156118985761189761185e565b5b6020830191508360018202830111156118b4576118b3611862565b5b9250929050565b6118c4816117bb565b81146118ce575f80fd5b50565b5f813590506118df816118bb565b92915050565b5f805f805f805f60e0888a031215611900576118ff6117fd565b5b5f61190d8a828b01611809565b975050606061191e8a828b01611846565b965050608088013567ffffffffffffffff81111561193f5761193e611801565b5b61194b8a828b01611866565b955095505060a061195e8a828b016118d1565b93505060c088013567ffffffffffffffff81111561197f5761197e611801565b5b61198b8a828b01611866565b925092505092959891949750929550565b5f67ffffffffffffffff82169050919050565b6119b88161199c565b82525050565b5f6040820190506119d15f8301856119af565b6119de60208301846119af565b9392505050565b5f8115159050919050565b6119f9816119e5565b82525050565b5f602082019050611a125f8301846119f0565b92915050565b5f63ffffffff82169050919050565b611a3081611a18565b8114611a3a575f80fd5b50565b5f81359050611a4b81611a27565b92915050565b5f8060408385031215611a6757611a666117fd565b5b5f611a7485828601611a3d565b9250506020611a8585828601611846565b9150509250929050565b5f819050919050565b611aa181611a8f565b8114611aab575f80fd5b50565b5f81359050611abc81611a98565b92915050565b5f805f805f805f60e0888a031215611add57611adc6117fd565b5b5f611aea8a828b01611aae565b9750506020611afb8a828b016118d1565b9650506040611b0c8a828b016118d1565b9550506060611b1d8a828b01611aae565b9450506080611b2e8a828b01611aae565b93505060a0611b3f8a828b016118d1565b92505060c0611b508a828b01611a3d565b91505092959891949750929550565b611b6881611a8f565b82525050565b5f602082019050611b815f830184611b5f565b92915050565b5f819050919050565b5f611baa611ba5611ba08461179c565b611b87565b61179c565b9050919050565b5f611bbb82611b90565b9050919050565b5f611bcc82611bb1565b9050919050565b611bdc81611bc2565b82525050565b5f602082019050611bf55f830184611bd3565b92915050565b5f60208284031215611c1057611c0f6117fd565b5b5f611c1d84828501611aae565b91505092915050565b611c2f81611a8f565b82525050565b611c3e816117bb565b82525050565b611c4d816119e5565b82525050565b61012082015f820151611c685f850182611c26565b506020820151611c7b6020850182611c35565b506040820151611c8e6040850182611c26565b506060820151611ca16060850182611c35565b506080820151611cb46080850182611c35565b5060a0820151611cc760a0850182611c26565b5060c0820151611cda60c0850182611c26565b5060e0820151611ced60e0850182611c44565b50610100820151611d02610100850182611c44565b50505050565b5f61012082019050611d1c5f830184611c53565b92915050565b5f805f8060808587031215611d3a57611d396117fd565b5b5f611d4787828801611aae565b9450506020611d58878288016118d1565b9350506040611d69878288016118d1565b9250506060611d7a87828801611aae565b91505092959194509250565b5f602082019050611d995f8301846119af565b92915050565b611da881611a18565b82525050565b5f602082019050611dc15f830184611d9f565b92915050565b5f60208284031215611ddc57611ddb6117fd565b5b5f611de984828501611a3d565b91505092915050565b611dfb81611827565b82525050565b5f602082019050611e145f830184611df2565b92915050565b5f60208284031215611e2f57611e2e6117fd565b5b5f611e3c848285016118d1565b91505092915050565b5f60608284031215611e5a57611e596117fd565b5b5f611e6784828501611809565b91505092915050565b5f604082019050611e835f830185611d9f565b611e906020830184611df2565b9392505050565b5f60e082019050611eaa5f83018a6117cc565b611eb76020830189611b5f565b611ec46040830188611b5f565b611ed160608301876117cc565b611ede60808301866117cc565b611eeb60a0830185611b5f565b611ef860c0830184611b5f565b98975050505050505050565b5f81519050919050565b5f81905092915050565b8281835e5f83830152505050565b5f611f3082611f04565b611f3a8185611f0e565b9350611f4a818560208601611f18565b80840191505092915050565b5f611f618284611f26565b915081905092915050565b5f82825260208201905092915050565b7f4661696c656420746f20706c616365206c696d6974206f7264657200000000005f82015250565b5f611fb0601b83611f6c565b9150611fbb82611f7c565b602082019050919050565b5f6020820190508181035f830152611fdd81611fa4565b9050919050565b5f81519050611ff281611a98565b92915050565b5f6120028261179c565b9050919050565b61201281611ff8565b811461201c575f80fd5b50565b5f8151905061202d81612009565b92915050565b5f819050919050565b61204581612033565b811461204f575f80fd5b50565b5f815190506120608161203c565b92915050565b5f805f805f805f805f806101408b8d031215612085576120846117fd565b5b5f6120928d828e01611fe4565b9a505060206120a38d828e0161201f565b99505060406120b48d828e01611fe4565b98505060606120c58d828e0161201f565b97505060806120d68d828e01612052565b96505060a06120e78d828e01612052565b95505060c06120f88d828e01612052565b94505060e06121098d828e01612052565b93505061010061211b8d828e0161201f565b92505061012061212d8d828e0161201f565b9150509295989b9194979a5092959850565b7f4661696c656420746f207265747269657665206c696d6974206f7264657200005f82015250565b5f612173601e83611f6c565b915061217e8261213f565b602082019050919050565b5f6020820190508181035f8301526121a081612167565b9050919050565b6121b0816119e5565b81146121ba575f80fd5b50565b5f815190506121cb816121a7565b92915050565b5f805f805f805f805f806101408b8d0312156121f0576121ef6117fd565b5b5f6121fd8d828e01611fe4565b9a5050602061220e8d828e0161201f565b995050604061221f8d828e01611fe4565b98505060606122308d828e0161201f565b97505060806122418d828e0161201f565b96505060a06122528d828e01611fe4565b95505060c06122638d828e01611fe4565b94505060e06122748d828e01611fe4565b9350506101006122868d828e016121bd565b9250506101206122988d828e016121bd565b9150509295989b9194979a5092959850565b5f6080820190506122bd5f830187611b5f565b6122ca60208301866117cc565b6122d760408301856117cc565b6122e46060830184611b5f565b95945050505050565b7f4661696c656420746f20706c616365206d61726b6574206f72646572000000005f82015250565b5f612321601c83611f6c565b915061232c826122ed565b602082019050919050565b5f6020820190508181035f83015261234e81612315565b9050919050565b5f805f805f8060c0878903121561236f5761236e6117fd565b5b5f61237c89828a0161201f565b965050602061238d89828a0161201f565b955050604061239e89828a01612052565b94505060606123af89828a01612052565b93505060806123c089828a01612052565b92505060a06123d189828a01612052565b9150509295509295509295565b7f4661696c656420746f2063616e63656c206c696d6974206f72646572000000005f82015250565b5f612412601c83611f6c565b915061241d826123de565b602082019050919050565b5f6020820190508181035f83015261243f81612406565b9050919050565b7f4f6e6c79206465706c6f7965722063616e2073657420746865205275737420635f8201527f6f6e747261637420616464726573730000000000000000000000000000000000602082015250565b5f6124a0602f83611f6c565b91506124ab82612446565b604082019050919050565b5f6020820190508181035f8301526124cd81612494565b9050919050565b7f4661696c656420746f2063616e63656c20616c6c206c696d6974206f726465725f8201527f7300000000000000000000000000000000000000000000000000000000000000602082015250565b5f61252e602183611f6c565b9150612539826124d4565b604082019050919050565b5f6020820190508181035f83015261255b81612522565b9050919050565b5f8135905061257081612009565b92915050565b5f80fd5b5f601f19601f8301169050919050565b7f4e487b71000000000000000000000000000000000000000000000000000000005f52604160045260245ffd5b6125c08261257a565b810181811067ffffffffffffffff821117156125df576125de61258a565b5b80604052505050565b5f6125f16117f4565b90506125fd82826125b7565b919050565b5f67ffffffffffffffff82111561261c5761261b61258a565b5b6126258261257a565b9050602081019050919050565b828183375f83830152505050565b5f61265261264d84612602565b6125e8565b90508281526020810184848401111561266e5761266d612576565b5b612679848285612632565b509392505050565b5f82601f8301126126955761269461185a565b5b81356126a5848260208601612640565b91505092915050565b5f805f805f805f60e0888a0312156126c9576126c86117fd565b5b5f6126d68a828b01612562565b97505060206126e78a828b01611aae565b965050604088013567ffffffffffffffff81111561270857612707611801565b5b6127148a828b01612681565b95505060606127258a828b01612562565b94505060806127368a828b01612562565b93505060a06127478a828b01611aae565b92505060c06127588a828b01611aae565b91505092959891949750929550565b5f81905092915050565b7f4c494d49545f4f524445520000000000000000000000000000000000000000005f82015250565b5f6127a5600b83612767565b91506127b082612771565b600b82019050919050565b5f6127c582612799565b9150819050919050565b5f81519050919050565b5f6127e3826127cf565b6127ed8185612767565b93506127fd818560208601611f18565b80840191505092915050565b5f61281482846127d9565b915081905092915050565b5f60e0820190506128325f83018a611b5f565b61283f60208301896117cc565b61284c60408301886117cc565b6128596060830187611b5f565b6128666080830186611b5f565b61287360a08301856117cc565b61288060c0830184611d9f565b98975050505050505050565b7f43414e43454c5f4f5244455200000000000000000000000000000000000000005f82015250565b5f6128c0600c83612767565b91506128cb8261288c565b600c82019050919050565b5f6128e0826128b4565b9150819050919050565b7f43414e43454c5f414c4c5f4f52444552000000000000000000000000000000005f82015250565b5f61291e601083612767565b9150612929826128ea565b601082019050919050565b5f61293e82612912565b9150819050919050565b7f4d41524b45545f4f5244455200000000000000000000000000000000000000005f82015250565b5f61297c600c83612767565b915061298782612948565b600c82019050919050565b5f61299c82612970565b9150819050919050565b7f77726f6e67206f726465720000000000000000000000000000000000000000005f82015250565b5f6129da600b83611f6c565b91506129e5826129a6565b602082019050919050565b5f6020820190508181035f830152612a07816129ce565b905091905056fea2646970667358221220d60c06758553e20dca2fcd287e3da66c91ba72f1577f7dc97c07cf2bb441904d64736f6c63430008190033",
			"opcodes": "PUSH1 0xA0 PUSH1 0x40 MSTORE PUSH0 PUSH1 0x3 PUSH1 0x14 PUSH2 0x100 EXP DUP2 SLOAD DUP2 PUSH1 0xFF MUL NOT AND SWAP1 DUP4 ISZERO ISZERO MUL OR SWAP1 SSTORE POP PUSH0 PUSH1 0x3 PUSH1 0x15 PUSH2 0x100 EXP DUP2 SLOAD DUP2 PUSH1 0xFF MUL NOT AND SWAP1 DUP4 ISZERO ISZERO MUL OR SWAP1 SSTORE POP PUSH1 0x1 PUSH1 0x3 PUSH1 0x16 PUSH2 0x100 EXP DUP2 SLOAD DUP2 PUSH4 0xFFFFFFFF MUL NOT AND SWAP1 DUP4 PUSH4 0xFFFFFFFF AND MUL OR SWAP1 SSTORE POP CALLVALUE DUP1 ISZERO PUSH2 0x65 JUMPI PUSH0 DUP1 REVERT JUMPDEST POP PUSH1 0x40 MLOAD PUSH2 0x2E9A CODESIZE SUB DUP1 PUSH2 0x2E9A DUP4 CODECOPY DUP2 DUP2 ADD PUSH1 0x40 MSTORE DUP2 ADD SWAP1 PUSH2 0x87 SWAP2 SWAP1 PUSH2 0x3B8 JUMP JUMPDEST DUP3 DUP3 DUP2 DUP2 DUP6 PUSH0 PUSH20 0xFFFFFFFFFFFFFFFFFFFFFFFFFFFFFFFFFFFFFFFF AND DUP2 PUSH20 0xFFFFFFFFFFFFFFFFFFFFFFFFFFFFFFFFFFFFFFFF AND SUB PUSH2 0xFC JUMPI PUSH0 PUSH1 0x40 MLOAD PUSH32 0x1E4FBDF700000000000000000000000000000000000000000000000000000000 DUP2 MSTORE PUSH1 0x4 ADD PUSH2 0xF3 SWAP2 SWAP1 PUSH2 0x417 JUMP JUMPDEST PUSH1 0x40 MLOAD DUP1 SWAP2 SUB SWAP1 REVERT JUMPDEST PUSH2 0x10B DUP2 PUSH2 0x299 PUSH1 0x20 SHL PUSH1 0x20 SHR JUMP JUMPDEST POP DUP2 PUSH20 0xFFFFFFFFFFFFFFFFFFFFFFFFFFFFFFFFFFFFFFFF AND PUSH1 0x80 DUP2 PUSH20 0xFFFFFFFFFFFFFFFFFFFFFFFFFFFFFFFFFFFFFFFF AND DUP2 MSTORE POP POP PUSH0 PUSH20 0xFFFFFFFFFFFFFFFFFFFFFFFFFFFFFFFFFFFFFFFF AND DUP2 PUSH20 0xFFFFFFFFFFFFFFFFFFFFFFFFFFFFFFFFFFFFFFFF AND SUB PUSH2 0x1A5 JUMPI PUSH1 0x40 MLOAD PUSH32 0xB586360400000000000000000000000000000000000000000000000000000000 DUP2 MSTORE PUSH1 0x4 ADD PUSH1 0x40 MLOAD DUP1 SWAP2 SUB SWAP1 REVERT JUMPDEST PUSH1 0x80 MLOAD PUSH20 0xFFFFFFFFFFFFFFFFFFFFFFFFFFFFFFFFFFFFFFFF AND PUSH4 0xCA5EB5E1 DUP3 PUSH1 0x40 MLOAD DUP3 PUSH4 0xFFFFFFFF AND PUSH1 0xE0 SHL DUP2 MSTORE PUSH1 0x4 ADD PUSH2 0x1E0 SWAP2 SWAP1 PUSH2 0x417 JUMP JUMPDEST PUSH0 PUSH1 0x40 MLOAD DUP1 DUP4 SUB DUP2 PUSH0 DUP8 DUP1 EXTCODESIZE ISZERO DUP1 ISZERO PUSH2 0x1F7 JUMPI PUSH0 DUP1 REVERT JUMPDEST POP GAS CALL ISZERO DUP1 ISZERO PUSH2 0x209 JUMPI RETURNDATASIZE PUSH0 DUP1 RETURNDATACOPY RETURNDATASIZE PUSH0 REVERT JUMPDEST POP POP POP POP POP POP POP POP DUP1 PUSH1 0x2 PUSH0 PUSH2 0x100 EXP DUP2 SLOAD DUP2 PUSH20 0xFFFFFFFFFFFFFFFFFFFFFFFFFFFFFFFFFFFFFFFF MUL NOT AND SWAP1 DUP4 PUSH20 0xFFFFFFFFFFFFFFFFFFFFFFFFFFFFFFFFFFFFFFFF AND MUL OR SWAP1 SSTORE POP CALLER PUSH1 0x3 PUSH0 PUSH2 0x100 EXP DUP2 SLOAD DUP2 PUSH20 0xFFFFFFFFFFFFFFFFFFFFFFFFFFFFFFFFFFFFFFFF MUL NOT AND SWAP1 DUP4 PUSH20 0xFFFFFFFFFFFFFFFFFFFFFFFFFFFFFFFFFFFFFFFF AND MUL OR SWAP1 SSTORE POP POP POP POP PUSH2 0x430 JUMP JUMPDEST PUSH0 DUP1 PUSH0 SWAP1 SLOAD SWAP1 PUSH2 0x100 EXP SWAP1 DIV PUSH20 0xFFFFFFFFFFFFFFFFFFFFFFFFFFFFFFFFFFFFFFFF AND SWAP1 POP DUP2 PUSH0 DUP1 PUSH2 0x100 EXP DUP2 SLOAD DUP2 PUSH20 0xFFFFFFFFFFFFFFFFFFFFFFFFFFFFFFFFFFFFFFFF MUL NOT AND SWAP1 DUP4 PUSH20 0xFFFFFFFFFFFFFFFFFFFFFFFFFFFFFFFFFFFFFFFF AND MUL OR SWAP1 SSTORE POP DUP2 PUSH20 0xFFFFFFFFFFFFFFFFFFFFFFFFFFFFFFFFFFFFFFFF AND DUP2 PUSH20 0xFFFFFFFFFFFFFFFFFFFFFFFFFFFFFFFFFFFFFFFF AND PUSH32 0x8BE0079C531659141344CD1FD0A4F28419497F9722A3DAAFE3B4186F6B6457E0 PUSH1 0x40 MLOAD PUSH1 0x40 MLOAD DUP1 SWAP2 SUB SWAP1 LOG3 POP POP JUMP JUMPDEST PUSH0 DUP1 REVERT JUMPDEST PUSH0 PUSH20 0xFFFFFFFFFFFFFFFFFFFFFFFFFFFFFFFFFFFFFFFF DUP3 AND SWAP1 POP SWAP2 SWAP1 POP JUMP JUMPDEST PUSH0 PUSH2 0x387 DUP3 PUSH2 0x35E JUMP JUMPDEST SWAP1 POP SWAP2 SWAP1 POP JUMP JUMPDEST PUSH2 0x397 DUP2 PUSH2 0x37D JUMP JUMPDEST DUP2 EQ PUSH2 0x3A1 JUMPI PUSH0 DUP1 REVERT JUMPDEST POP JUMP JUMPDEST PUSH0 DUP2 MLOAD SWAP1 POP PUSH2 0x3B2 DUP2 PUSH2 0x38E JUMP JUMPDEST SWAP3 SWAP2 POP POP JUMP JUMPDEST PUSH0 DUP1 PUSH0 PUSH1 0x60 DUP5 DUP7 SUB SLT ISZERO PUSH2 0x3CF JUMPI PUSH2 0x3CE PUSH2 0x35A JUMP JUMPDEST JUMPDEST PUSH0 PUSH2 0x3DC DUP7 DUP3 DUP8 ADD PUSH2 0x3A4 JUMP JUMPDEST SWAP4 POP POP PUSH1 0x20 PUSH2 0x3ED DUP7 DUP3 DUP8 ADD PUSH2 0x3A4 JUMP JUMPDEST SWAP3 POP POP PUSH1 0x40 PUSH2 0x3FE DUP7 DUP3 DUP8 ADD PUSH2 0x3A4 JUMP JUMPDEST SWAP2 POP POP SWAP3 POP SWAP3 POP SWAP3 JUMP JUMPDEST PUSH2 0x411 DUP2 PUSH2 0x37D JUMP JUMPDEST DUP3 MSTORE POP POP JUMP JUMPDEST PUSH0 PUSH1 0x20 DUP3 ADD SWAP1 POP PUSH2 0x42A PUSH0 DUP4 ADD DUP5 PUSH2 0x408 JUMP JUMPDEST SWAP3 SWAP2 POP POP JUMP JUMPDEST PUSH1 0x80 MLOAD PUSH2 0x2A44 PUSH2 0x456 PUSH0 CODECOPY PUSH0 DUP2 DUP2 PUSH2 0x575 ADD MSTORE DUP2 DUP2 PUSH2 0x8DD ADD MSTORE PUSH2 0xEF8 ADD MSTORE PUSH2 0x2A44 PUSH0 RETURN INVALID PUSH1 0x80 PUSH1 0x40 MSTORE PUSH1 0x4 CALLDATASIZE LT PUSH2 0x14A JUMPI PUSH0 CALLDATALOAD PUSH1 0xE0 SHR DUP1 PUSH4 0x8B836B6B GT PUSH2 0xB5 JUMPI DUP1 PUSH4 0xCA5EB5E1 GT PUSH2 0x6E JUMPI DUP1 PUSH4 0xCA5EB5E1 EQ PUSH2 0x443 JUMPI DUP1 PUSH4 0xD5F39488 EQ PUSH2 0x46B JUMPI DUP1 PUSH4 0xE4CF4C66 EQ PUSH2 0x495 JUMPI DUP1 PUSH4 0xF2FDE38B EQ PUSH2 0x4BD JUMPI DUP1 PUSH4 0xFDE89598 EQ PUSH2 0x4E5 JUMPI DUP1 PUSH4 0xFF7BD03D EQ PUSH2 0x4FB JUMPI PUSH2 0x14A JUMP JUMPDEST DUP1 PUSH4 0x8B836B6B EQ PUSH2 0x337 JUMPI DUP1 PUSH4 0x8DA5CB5B EQ PUSH2 0x361 JUMPI DUP1 PUSH4 0xA5CDC8FC EQ PUSH2 0x38B JUMPI DUP1 PUSH4 0xB92D0EFF EQ PUSH2 0x3B3 JUMPI DUP1 PUSH4 0xBB0B6A53 EQ PUSH2 0x3DD JUMPI DUP1 PUSH4 0xC8E4D753 EQ PUSH2 0x419 JUMPI PUSH2 0x14A JUMP JUMPDEST DUP1 PUSH4 0x564B81EF GT PUSH2 0x107 JUMPI DUP1 PUSH4 0x564B81EF EQ PUSH2 0x22D JUMPI DUP1 PUSH4 0x5E280F11 EQ PUSH2 0x257 JUMPI DUP1 PUSH4 0x648EA063 EQ PUSH2 0x281 JUMPI DUP1 PUSH4 0x715018A6 EQ PUSH2 0x2BD JUMPI DUP1 PUSH4 0x732C2C64 EQ PUSH2 0x2D3 JUMPI DUP1 PUSH4 0x7D25A05E EQ PUSH2 0x2FB JUMPI PUSH2 0x14A JUMP JUMPDEST DUP1 PUSH4 0x6EF0339 EQ PUSH2 0x14E JUMPI DUP1 PUSH4 0x13137D65 EQ PUSH2 0x178 JUMPI DUP1 PUSH4 0x17442B70 EQ PUSH2 0x194 JUMPI DUP1 PUSH4 0x19849D5B EQ PUSH2 0x1BF JUMPI DUP1 PUSH4 0x3400288B EQ PUSH2 0x1E9 JUMPI DUP1 PUSH4 0x3BBE032F EQ PUSH2 0x211 JUMPI JUMPDEST PUSH0 DUP1 REVERT JUMPDEST CALLVALUE DUP1 ISZERO PUSH2 0x159 JUMPI PUSH0 DUP1 REVERT JUMPDEST POP PUSH2 0x162 PUSH2 0x537 JUMP JUMPDEST PUSH1 0x40 MLOAD PUSH2 0x16F SWAP2 SWAP1 PUSH2 0x17DB JUMP JUMPDEST PUSH1 0x40 MLOAD DUP1 SWAP2 SUB SWAP1 RETURN JUMPDEST PUSH2 0x192 PUSH1 0x4 DUP1 CALLDATASIZE SUB DUP2 ADD SWAP1 PUSH2 0x18D SWAP2 SWAP1 PUSH2 0x18E5 JUMP JUMPDEST PUSH2 0x55C JUMP JUMPDEST STOP JUMPDEST CALLVALUE DUP1 ISZERO PUSH2 0x19F JUMPI PUSH0 DUP1 REVERT JUMPDEST POP PUSH2 0x1A8 PUSH2 0x67C JUMP JUMPDEST PUSH1 0x40 MLOAD PUSH2 0x1B6 SWAP3 SWAP2 SWAP1 PUSH2 0x19BE JUMP JUMPDEST PUSH1 0x40 MLOAD DUP1 SWAP2 SUB SWAP1 RETURN JUMPDEST CALLVALUE DUP1 ISZERO PUSH2 0x1CA JUMPI PUSH0 DUP1 REVERT JUMPDEST POP PUSH2 0x1D3 PUSH2 0x689 JUMP JUMPDEST PUSH1 0x40 MLOAD PUSH2 0x1E0 SWAP2 SWAP1 PUSH2 0x19FF JUMP JUMPDEST PUSH1 0x40 MLOAD DUP1 SWAP2 SUB SWAP1 RETURN JUMPDEST CALLVALUE DUP1 ISZERO PUSH2 0x1F4 JUMPI PUSH0 DUP1 REVERT JUMPDEST POP PUSH2 0x20F PUSH1 0x4 DUP1 CALLDATASIZE SUB DUP2 ADD SWAP1 PUSH2 0x20A SWAP2 SWAP1 PUSH2 0x1A51 JUMP JUMPDEST PUSH2 0x69C JUMP JUMPDEST STOP JUMPDEST PUSH2 0x22B PUSH1 0x4 DUP1 CALLDATASIZE SUB DUP2 ADD SWAP1 PUSH2 0x226 SWAP2 SWAP1 PUSH2 0x1AC2 JUMP JUMPDEST PUSH2 0x703 JUMP JUMPDEST STOP JUMPDEST CALLVALUE DUP1 ISZERO PUSH2 0x238 JUMPI PUSH0 DUP1 REVERT JUMPDEST POP PUSH2 0x241 PUSH2 0x8D4 JUMP JUMPDEST PUSH1 0x40 MLOAD PUSH2 0x24E SWAP2 SWAP1 PUSH2 0x1B6E JUMP JUMPDEST PUSH1 0x40 MLOAD DUP1 SWAP2 SUB SWAP1 RETURN JUMPDEST CALLVALUE DUP1 ISZERO PUSH2 0x262 JUMPI PUSH0 DUP1 REVERT JUMPDEST POP PUSH2 0x26B PUSH2 0x8DB JUMP JUMPDEST PUSH1 0x40 MLOAD PUSH2 0x278 SWAP2 SWAP1 PUSH2 0x1BE2 JUMP JUMPDEST PUSH1 0x40 MLOAD DUP1 SWAP2 SUB SWAP1 RETURN JUMPDEST CALLVALUE DUP1 ISZERO PUSH2 0x28C JUMPI PUSH0 DUP1 REVERT JUMPDEST POP PUSH2 0x2A7 PUSH1 0x4 DUP1 CALLDATASIZE SUB DUP2 ADD SWAP1 PUSH2 0x2A2 SWAP2 SWAP1 PUSH2 0x1BFB JUMP JUMPDEST PUSH2 0x8FF JUMP JUMPDEST PUSH1 0x40 MLOAD PUSH2 0x2B4 SWAP2 SWAP1 PUSH2 0x1D08 JUMP JUMPDEST PUSH1 0x40 MLOAD DUP1 SWAP2 SUB SWAP1 RETURN JUMPDEST CALLVALUE DUP1 ISZERO PUSH2 0x2C8 JUMPI PUSH0 DUP1 REVERT JUMPDEST POP PUSH2 0x2D1 PUSH2 0xB2E JUMP JUMPDEST STOP JUMPDEST CALLVALUE DUP1 ISZERO PUSH2 0x2DE JUMPI PUSH0 DUP1 REVERT JUMPDEST POP PUSH2 0x2F9 PUSH1 0x4 DUP1 CALLDATASIZE SUB DUP2 ADD SWAP1 PUSH2 0x2F4 SWAP2 SWAP1 PUSH2 0x1D22 JUMP JUMPDEST PUSH2 0xB41 JUMP JUMPDEST STOP JUMPDEST CALLVALUE DUP1 ISZERO PUSH2 0x306 JUMPI PUSH0 DUP1 REVERT JUMPDEST POP PUSH2 0x321 PUSH1 0x4 DUP1 CALLDATASIZE SUB DUP2 ADD SWAP1 PUSH2 0x31C SWAP2 SWAP1 PUSH2 0x1A51 JUMP JUMPDEST PUSH2 0xCD3 JUMP JUMPDEST PUSH1 0x40 MLOAD PUSH2 0x32E SWAP2 SWAP1 PUSH2 0x1D86 JUMP JUMPDEST PUSH1 0x40 MLOAD DUP1 SWAP2 SUB SWAP1 RETURN JUMPDEST CALLVALUE DUP1 ISZERO PUSH2 0x342 JUMPI PUSH0 DUP1 REVERT JUMPDEST POP PUSH2 0x34B PUSH2 0xCDA JUMP JUMPDEST PUSH1 0x40 MLOAD PUSH2 0x358 SWAP2 SWAP1 PUSH2 0x1DAE JUMP JUMPDEST PUSH1 0x40 MLOAD DUP1 SWAP2 SUB SWAP1 RETURN JUMPDEST CALLVALUE DUP1 ISZERO PUSH2 0x36C JUMPI PUSH0 DUP1 REVERT JUMPDEST POP PUSH2 0x375 PUSH2 0xCF0 JUMP JUMPDEST PUSH1 0x40 MLOAD PUSH2 0x382 SWAP2 SWAP1 PUSH2 0x17DB JUMP JUMPDEST PUSH1 0x40 MLOAD DUP1 SWAP2 SUB SWAP1 RETURN JUMPDEST CALLVALUE DUP1 ISZERO PUSH2 0x396 JUMPI PUSH0 DUP1 REVERT JUMPDEST POP PUSH2 0x3B1 PUSH1 0x4 DUP1 CALLDATASIZE SUB DUP2 ADD SWAP1 PUSH2 0x3AC SWAP2 SWAP1 PUSH2 0x1BFB JUMP JUMPDEST PUSH2 0xD17 JUMP JUMPDEST STOP JUMPDEST CALLVALUE DUP1 ISZERO PUSH2 0x3BE JUMPI PUSH0 DUP1 REVERT JUMPDEST POP PUSH2 0x3C7 PUSH2 0xEBF JUMP JUMPDEST PUSH1 0x40 MLOAD PUSH2 0x3D4 SWAP2 SWAP1 PUSH2 0x17DB JUMP JUMPDEST PUSH1 0x40 MLOAD DUP1 SWAP2 SUB SWAP1 RETURN JUMPDEST CALLVALUE DUP1 ISZERO PUSH2 0x3E8 JUMPI PUSH0 DUP1 REVERT JUMPDEST POP PUSH2 0x403 PUSH1 0x4 DUP1 CALLDATASIZE SUB DUP2 ADD SWAP1 PUSH2 0x3FE SWAP2 SWAP1 PUSH2 0x1DC7 JUMP JUMPDEST PUSH2 0xEC6 JUMP JUMPDEST PUSH1 0x40 MLOAD PUSH2 0x410 SWAP2 SWAP1 PUSH2 0x1E01 JUMP JUMPDEST PUSH1 0x40 MLOAD DUP1 SWAP2 SUB SWAP1 RETURN JUMPDEST CALLVALUE DUP1 ISZERO PUSH2 0x424 JUMPI PUSH0 DUP1 REVERT JUMPDEST POP PUSH2 0x42D PUSH2 0xEDB JUMP JUMPDEST PUSH1 0x40 MLOAD PUSH2 0x43A SWAP2 SWAP1 PUSH2 0x19FF JUMP JUMPDEST PUSH1 0x40 MLOAD DUP1 SWAP2 SUB SWAP1 RETURN JUMPDEST CALLVALUE DUP1 ISZERO PUSH2 0x44E JUMPI PUSH0 DUP1 REVERT JUMPDEST POP PUSH2 0x469 PUSH1 0x4 DUP1 CALLDATASIZE SUB DUP2 ADD SWAP1 PUSH2 0x464 SWAP2 SWAP1 PUSH2 0x1E1A JUMP JUMPDEST PUSH2 0xEEE JUMP JUMPDEST STOP JUMPDEST CALLVALUE DUP1 ISZERO PUSH2 0x476 JUMPI PUSH0 DUP1 REVERT JUMPDEST POP PUSH2 0x47F PUSH2 0xF7F JUMP JUMPDEST PUSH1 0x40 MLOAD PUSH2 0x48C SWAP2 SWAP1 PUSH2 0x17DB JUMP JUMPDEST PUSH1 0x40 MLOAD DUP1 SWAP2 SUB SWAP1 RETURN JUMPDEST CALLVALUE DUP1 ISZERO PUSH2 0x4A0 JUMPI PUSH0 DUP1 REVERT JUMPDEST POP PUSH2 0x4BB PUSH1 0x4 DUP1 CALLDATASIZE SUB DUP2 ADD SWAP1 PUSH2 0x4B6 SWAP2 SWAP1 PUSH2 0x1E1A JUMP JUMPDEST PUSH2 0xFA4 JUMP JUMPDEST STOP JUMPDEST CALLVALUE DUP1 ISZERO PUSH2 0x4C8 JUMPI PUSH0 DUP1 REVERT JUMPDEST POP PUSH2 0x4E3 PUSH1 0x4 DUP1 CALLDATASIZE SUB DUP2 ADD SWAP1 PUSH2 0x4DE SWAP2 SWAP1 PUSH2 0x1E1A JUMP JUMPDEST PUSH2 0x1076 JUMP JUMPDEST STOP JUMPDEST CALLVALUE DUP1 ISZERO PUSH2 0x4F0 JUMPI PUSH0 DUP1 REVERT JUMPDEST POP PUSH2 0x4F9 PUSH2 0x10FA JUMP JUMPDEST STOP JUMPDEST CALLVALUE DUP1 ISZERO PUSH2 0x506 JUMPI PUSH0 DUP1 REVERT JUMPDEST POP PUSH2 0x521 PUSH1 0x4 DUP1 CALLDATASIZE SUB DUP2 ADD SWAP1 PUSH2 0x51C SWAP2 SWAP1 PUSH2 0x1E45 JUMP JUMPDEST PUSH2 0x128B JUMP JUMPDEST PUSH1 0x40 MLOAD PUSH2 0x52E SWAP2 SWAP1 PUSH2 0x19FF JUMP JUMPDEST PUSH1 0x40 MLOAD DUP1 SWAP2 SUB SWAP1 RETURN JUMPDEST PUSH1 0x2 PUSH0 SWAP1 SLOAD SWAP1 PUSH2 0x100 EXP SWAP1 DIV PUSH20 0xFFFFFFFFFFFFFFFFFFFFFFFFFFFFFFFFFFFFFFFF AND DUP2 JUMP JUMPDEST CALLER PUSH20 0xFFFFFFFFFFFFFFFFFFFFFFFFFFFFFFFFFFFFFFFF AND PUSH32 0x0 PUSH20 0xFFFFFFFFFFFFFFFFFFFFFFFFFFFFFFFFFFFFFFFF AND EQ PUSH2 0x5EC JUMPI CALLER PUSH1 0x40 MLOAD PUSH32 0x91AC5E4F00000000000000000000000000000000000000000000000000000000 DUP2 MSTORE PUSH1 0x4 ADD PUSH2 0x5E3 SWAP2 SWAP1 PUSH2 0x17DB JUMP JUMPDEST PUSH1 0x40 MLOAD DUP1 SWAP2 SUB SWAP1 REVERT JUMPDEST DUP7 PUSH1 0x20 ADD CALLDATALOAD PUSH2 0x60B DUP9 PUSH0 ADD PUSH1 0x20 DUP2 ADD SWAP1 PUSH2 0x606 SWAP2 SWAP1 PUSH2 0x1DC7 JUMP JUMPDEST PUSH2 0x12C8 JUMP JUMPDEST EQ PUSH2 0x664 JUMPI DUP7 PUSH0 ADD PUSH1 0x20 DUP2 ADD SWAP1 PUSH2 0x622 SWAP2 SWAP1 PUSH2 0x1DC7 JUMP JUMPDEST DUP8 PUSH1 0x20 ADD CALLDATALOAD PUSH1 0x40 MLOAD PUSH32 0xC26BEBCC00000000000000000000000000000000000000000000000000000000 DUP2 MSTORE PUSH1 0x4 ADD PUSH2 0x65B SWAP3 SWAP2 SWAP1 PUSH2 0x1E70 JUMP JUMPDEST PUSH1 0x40 MLOAD DUP1 SWAP2 SUB SWAP1 REVERT JUMPDEST PUSH2 0x673 DUP8 DUP8 DUP8 DUP8 DUP8 DUP8 DUP8 PUSH2 0x1339 JUMP JUMPDEST POP POP POP POP POP POP POP JUMP JUMPDEST PUSH0 DUP1 PUSH1 0x1 DUP1 SWAP2 POP SWAP2 POP SWAP1 SWAP2 JUMP JUMPDEST PUSH1 0x3 PUSH1 0x15 SWAP1 SLOAD SWAP1 PUSH2 0x100 EXP SWAP1 DIV PUSH1 0xFF AND DUP2 JUMP JUMPDEST PUSH2 0x6A4 PUSH2 0x15C4 JUMP JUMPDEST DUP1 PUSH1 0x1 PUSH0 DUP5 PUSH4 0xFFFFFFFF AND PUSH4 0xFFFFFFFF AND DUP2 MSTORE PUSH1 0x20 ADD SWAP1 DUP2 MSTORE PUSH1 0x20 ADD PUSH0 KECCAK256 DUP2 SWAP1 SSTORE POP PUSH32 0x238399D427B947898EDB290F5FF0F9109849B1C3BA196A42E35F00C50A54B98B DUP3 DUP3 PUSH1 0x40 MLOAD PUSH2 0x6F7 SWAP3 SWAP2 SWAP1 PUSH2 0x1E70 JUMP JUMPDEST PUSH1 0x40 MLOAD DUP1 SWAP2 SUB SWAP1 LOG1 POP POP JUMP JUMPDEST PUSH1 0x1 PUSH1 0x3 PUSH1 0x15 PUSH2 0x100 EXP DUP2 SLOAD DUP2 PUSH1 0xFF MUL NOT AND SWAP1 DUP4 ISZERO ISZERO MUL OR SWAP1 SSTORE POP PUSH0 DUP1 PUSH1 0x2 PUSH0 SWAP1 SLOAD SWAP1 PUSH2 0x100 EXP SWAP1 DIV PUSH20 0xFFFFFFFFFFFFFFFFFFFFFFFFFFFFFFFFFFFFFFFF AND PUSH20 0xFFFFFFFFFFFFFFFFFFFFFFFFFFFFFFFFFFFFFFFF AND DUP5 DUP5 PUSH4 0xFFFFFFFF AND DUP12 DUP12 DUP12 DUP12 DUP12 PUSH1 0x40 MLOAD PUSH1 0x24 ADD PUSH2 0x77B SWAP8 SWAP7 SWAP6 SWAP5 SWAP4 SWAP3 SWAP2 SWAP1 PUSH2 0x1E97 JUMP JUMPDEST PUSH1 0x40 MLOAD PUSH1 0x20 DUP2 DUP4 SUB SUB DUP2 MSTORE SWAP1 PUSH1 0x40 MSTORE PUSH32 0x9390E44200000000000000000000000000000000000000000000000000000000 PUSH28 0xFFFFFFFFFFFFFFFFFFFFFFFFFFFFFFFFFFFFFFFFFFFFFFFFFFFFFFFF NOT AND PUSH1 0x20 DUP3 ADD DUP1 MLOAD PUSH28 0xFFFFFFFFFFFFFFFFFFFFFFFFFFFFFFFFFFFFFFFFFFFFFFFFFFFFFFFF DUP4 DUP2 DUP4 AND OR DUP4 MSTORE POP POP POP POP PUSH1 0x40 MLOAD PUSH2 0x805 SWAP2 SWAP1 PUSH2 0x1F56 JUMP JUMPDEST PUSH0 PUSH1 0x40 MLOAD DUP1 DUP4 SUB DUP2 PUSH0 DUP7 GAS CALL SWAP2 POP POP RETURNDATASIZE DUP1 PUSH0 DUP2 EQ PUSH2 0x83E JUMPI PUSH1 0x40 MLOAD SWAP2 POP PUSH1 0x1F NOT PUSH1 0x3F RETURNDATASIZE ADD AND DUP3 ADD PUSH1 0x40 MSTORE RETURNDATASIZE DUP3 MSTORE RETURNDATASIZE PUSH0 PUSH1 0x20 DUP5 ADD RETURNDATACOPY PUSH2 0x843 JUMP JUMPDEST PUSH1 0x60 SWAP2 POP JUMPDEST POP SWAP2 POP SWAP2 POP DUP2 PUSH2 0x888 JUMPI PUSH1 0x40 MLOAD PUSH32 0x8C379A000000000000000000000000000000000000000000000000000000000 DUP2 MSTORE PUSH1 0x4 ADD PUSH2 0x87F SWAP1 PUSH2 0x1FC6 JUMP JUMPDEST PUSH1 0x40 MLOAD DUP1 SWAP2 SUB SWAP1 REVERT JUMPDEST PUSH0 DUP1 PUSH0 DUP1 PUSH0 DUP1 PUSH0 DUP1 PUSH0 DUP1 DUP11 DUP1 PUSH1 0x20 ADD SWAP1 MLOAD DUP2 ADD SWAP1 PUSH2 0x8A6 SWAP2 SWAP1 PUSH2 0x2066 JUMP JUMPDEST SWAP10 POP SWAP10 POP SWAP10 POP SWAP10 POP SWAP10 POP SWAP10 POP SWAP10 POP SWAP10 POP SWAP10 POP SWAP10 POP PUSH0 DUP9 SWAP1 POP POP POP POP POP POP POP POP POP POP POP POP POP POP POP POP POP POP POP POP POP JUMP JUMPDEST PUSH0 CHAINID SWAP1 POP SWAP1 JUMP JUMPDEST PUSH32 0x0 DUP2 JUMP JUMPDEST PUSH2 0x907 PUSH2 0x1713 JUMP JUMPDEST PUSH0 DUP1 PUSH1 0x2 PUSH0 SWAP1 SLOAD SWAP1 PUSH2 0x100 EXP SWAP1 DIV PUSH20 0xFFFFFFFFFFFFFFFFFFFFFFFFFFFFFFFFFFFFFFFF AND PUSH20 0xFFFFFFFFFFFFFFFFFFFFFFFFFFFFFFFFFFFFFFFF AND DUP5 PUSH1 0x40 MLOAD PUSH1 0x24 ADD PUSH2 0x952 SWAP2 SWAP1 PUSH2 0x1B6E JUMP JUMPDEST PUSH1 0x40 MLOAD PUSH1 0x20 DUP2 DUP4 SUB SUB DUP2 MSTORE SWAP1 PUSH1 0x40 MSTORE PUSH32 0x648EA06300000000000000000000000000000000000000000000000000000000 PUSH28 0xFFFFFFFFFFFFFFFFFFFFFFFFFFFFFFFFFFFFFFFFFFFFFFFFFFFFFFFF NOT AND PUSH1 0x20 DUP3 ADD DUP1 MLOAD PUSH28 0xFFFFFFFFFFFFFFFFFFFFFFFFFFFFFFFFFFFFFFFFFFFFFFFFFFFFFFFF DUP4 DUP2 DUP4 AND OR DUP4 MSTORE POP POP POP POP PUSH1 0x40 MLOAD PUSH2 0x9DC SWAP2 SWAP1 PUSH2 0x1F56 JUMP JUMPDEST PUSH0 PUSH1 0x40 MLOAD DUP1 DUP4 SUB DUP2 DUP6 GAS STATICCALL SWAP2 POP POP RETURNDATASIZE DUP1 PUSH0 DUP2 EQ PUSH2 0xA14 JUMPI PUSH1 0x40 MLOAD SWAP2 POP PUSH1 0x1F NOT PUSH1 0x3F RETURNDATASIZE ADD AND DUP3 ADD PUSH1 0x40 MSTORE RETURNDATASIZE DUP3 MSTORE RETURNDATASIZE PUSH0 PUSH1 0x20 DUP5 ADD RETURNDATACOPY PUSH2 0xA19 JUMP JUMPDEST PUSH1 0x60 SWAP2 POP JUMPDEST POP SWAP2 POP SWAP2 POP DUP2 PUSH2 0xA5E JUMPI PUSH1 0x40 MLOAD PUSH32 0x8C379A000000000000000000000000000000000000000000000000000000000 DUP2 MSTORE PUSH1 0x4 ADD PUSH2 0xA55 SWAP1 PUSH2 0x2189 JUMP JUMPDEST PUSH1 0x40 MLOAD DUP1 SWAP2 SUB SWAP1 REVERT JUMPDEST PUSH0 DUP1 PUSH0 DUP1 PUSH0 DUP1 PUSH0 DUP1 PUSH0 DUP1 DUP11 DUP1 PUSH1 0x20 ADD SWAP1 MLOAD DUP2 ADD SWAP1 PUSH2 0xA7C SWAP2 SWAP1 PUSH2 0x21D1 JUMP JUMPDEST SWAP10 POP SWAP10 POP SWAP10 POP SWAP10 POP SWAP10 POP SWAP10 POP SWAP10 POP SWAP10 POP SWAP10 POP SWAP10 POP PUSH0 PUSH1 0x40 MLOAD DUP1 PUSH2 0x120 ADD PUSH1 0x40 MSTORE DUP1 DUP13 DUP2 MSTORE PUSH1 0x20 ADD DUP12 PUSH20 0xFFFFFFFFFFFFFFFFFFFFFFFFFFFFFFFFFFFFFFFF AND DUP2 MSTORE PUSH1 0x20 ADD DUP11 DUP2 MSTORE PUSH1 0x20 ADD DUP10 PUSH20 0xFFFFFFFFFFFFFFFFFFFFFFFFFFFFFFFFFFFFFFFF AND DUP2 MSTORE PUSH1 0x20 ADD DUP9 PUSH20 0xFFFFFFFFFFFFFFFFFFFFFFFFFFFFFFFFFFFFFFFF AND DUP2 MSTORE PUSH1 0x20 ADD DUP8 DUP2 MSTORE PUSH1 0x20 ADD DUP6 DUP2 MSTORE PUSH1 0x20 ADD DUP5 ISZERO ISZERO DUP2 MSTORE PUSH1 0x20 ADD DUP4 ISZERO ISZERO DUP2 MSTORE POP SWAP1 POP DUP1 SWAP14 POP POP POP POP POP POP POP POP POP POP POP POP POP POP SWAP2 SWAP1 POP JUMP JUMPDEST PUSH2 0xB36 PUSH2 0x15C4 JUMP JUMPDEST PUSH2 0xB3F PUSH0 PUSH2 0x164B JUMP JUMPDEST JUMP JUMPDEST PUSH0 DUP1 PUSH1 0x2 PUSH0 SWAP1 SLOAD SWAP1 PUSH2 0x100 EXP SWAP1 DIV PUSH20 0xFFFFFFFFFFFFFFFFFFFFFFFFFFFFFFFFFFFFFFFF AND PUSH20 0xFFFFFFFFFFFFFFFFFFFFFFFFFFFFFFFFFFFFFFFF AND DUP7 DUP7 DUP7 DUP7 PUSH1 0x40 MLOAD PUSH1 0x24 ADD PUSH2 0xB92 SWAP5 SWAP4 SWAP3 SWAP2 SWAP1 PUSH2 0x22AA JUMP JUMPDEST PUSH1 0x40 MLOAD PUSH1 0x20 DUP2 DUP4 SUB SUB DUP2 MSTORE SWAP1 PUSH1 0x40 MSTORE PUSH32 0x732C2C6400000000000000000000000000000000000000000000000000000000 PUSH28 0xFFFFFFFFFFFFFFFFFFFFFFFFFFFFFFFFFFFFFFFFFFFFFFFFFFFFFFFF NOT AND PUSH1 0x20 DUP3 ADD DUP1 MLOAD PUSH28 0xFFFFFFFFFFFFFFFFFFFFFFFFFFFFFFFFFFFFFFFFFFFFFFFFFFFFFFFF DUP4 DUP2 DUP4 AND OR DUP4 MSTORE POP POP POP POP PUSH1 0x40 MLOAD PUSH2 0xC1C SWAP2 SWAP1 PUSH2 0x1F56 JUMP JUMPDEST PUSH0 PUSH1 0x40 MLOAD DUP1 DUP4 SUB DUP2 PUSH0 DUP7 GAS CALL SWAP2 POP POP RETURNDATASIZE DUP1 PUSH0 DUP2 EQ PUSH2 0xC55 JUMPI PUSH1 0x40 MLOAD SWAP2 POP PUSH1 0x1F NOT PUSH1 0x3F RETURNDATASIZE ADD AND DUP3 ADD PUSH1 0x40 MSTORE RETURNDATASIZE DUP3 MSTORE RETURNDATASIZE PUSH0 PUSH1 0x20 DUP5 ADD RETURNDATACOPY PUSH2 0xC5A JUMP JUMPDEST PUSH1 0x60 SWAP2 POP JUMPDEST POP SWAP2 POP SWAP2 POP DUP2 PUSH2 0xC9F JUMPI PUSH1 0x40 MLOAD PUSH32 0x8C379A000000000000000000000000000000000000000000000000000000000 DUP2 MSTORE PUSH1 0x4 ADD PUSH2 0xC96 SWAP1 PUSH2 0x2337 JUMP JUMPDEST PUSH1 0x40 MLOAD DUP1 SWAP2 SUB SWAP1 REVERT JUMPDEST PUSH0 DUP1 PUSH0 DUP1 PUSH0 DUP1 DUP7 DUP1 PUSH1 0x20 ADD SWAP1 MLOAD DUP2 ADD SWAP1 PUSH2 0xCB9 SWAP2 SWAP1 PUSH2 0x2355 JUMP JUMPDEST SWAP6 POP SWAP6 POP SWAP6 POP SWAP6 POP SWAP6 POP SWAP6 POP POP POP POP POP POP POP POP POP POP POP POP POP JUMP JUMPDEST PUSH0 SWAP3 SWAP2 POP POP JUMP JUMPDEST PUSH1 0x3 PUSH1 0x16 SWAP1 SLOAD SWAP1 PUSH2 0x100 EXP SWAP1 DIV PUSH4 0xFFFFFFFF AND DUP2 JUMP JUMPDEST PUSH0 DUP1 PUSH0 SWAP1 SLOAD SWAP1 PUSH2 0x100 EXP SWAP1 DIV PUSH20 0xFFFFFFFFFFFFFFFFFFFFFFFFFFFFFFFFFFFFFFFF AND SWAP1 POP SWAP1 JUMP JUMPDEST PUSH0 PUSH1 0x2 PUSH0 SWAP1 SLOAD SWAP1 PUSH2 0x100 EXP SWAP1 DIV PUSH20 0xFFFFFFFFFFFFFFFFFFFFFFFFFFFFFFFFFFFFFFFF AND PUSH20 0xFFFFFFFFFFFFFFFFFFFFFFFFFFFFFFFFFFFFFFFF AND DUP3 PUSH1 0x40 MLOAD PUSH1 0x24 ADD PUSH2 0xD61 SWAP2 SWAP1 PUSH2 0x1B6E JUMP JUMPDEST PUSH1 0x40 MLOAD PUSH1 0x20 DUP2 DUP4 SUB SUB DUP2 MSTORE SWAP1 PUSH1 0x40 MSTORE PUSH32 0xA5CDC8FC00000000000000000000000000000000000000000000000000000000 PUSH28 0xFFFFFFFFFFFFFFFFFFFFFFFFFFFFFFFFFFFFFFFFFFFFFFFFFFFFFFFF NOT AND PUSH1 0x20 DUP3 ADD DUP1 MLOAD PUSH28 0xFFFFFFFFFFFFFFFFFFFFFFFFFFFFFFFFFFFFFFFFFFFFFFFFFFFFFFFF DUP4 DUP2 DUP4 AND OR DUP4 MSTORE POP POP POP POP PUSH1 0x40 MLOAD PUSH2 0xDEB SWAP2 SWAP1 PUSH2 0x1F56 JUMP JUMPDEST PUSH0 PUSH1 0x40 MLOAD DUP1 DUP4 SUB DUP2 PUSH0 DUP7 GAS CALL SWAP2 POP POP RETURNDATASIZE DUP1 PUSH0 DUP2 EQ PUSH2 0xE24 JUMPI PUSH1 0x40 MLOAD SWAP2 POP PUSH1 0x1F NOT PUSH1 0x3F RETURNDATASIZE ADD AND DUP3 ADD PUSH1 0x40 MSTORE RETURNDATASIZE DUP3 MSTORE RETURNDATASIZE PUSH0 PUSH1 0x20 DUP5 ADD RETURNDATACOPY PUSH2 0xE29 JUMP JUMPDEST PUSH1 0x60 SWAP2 POP JUMPDEST POP POP SWAP1 POP DUP1 PUSH2 0xE6D JUMPI PUSH1 0x40 MLOAD PUSH32 0x8C379A000000000000000000000000000000000000000000000000000000000 DUP2 MSTORE PUSH1 0x4 ADD PUSH2 0xE64 SWAP1 PUSH2 0x2428 JUMP JUMPDEST PUSH1 0x40 MLOAD DUP1 SWAP2 SUB SWAP1 REVERT JUMPDEST CALLER PUSH20 0xFFFFFFFFFFFFFFFFFFFFFFFFFFFFFFFFFFFFFFFF AND PUSH32 0x9384174C8517F5537B08E79211FC039E8A098571A3A2B4CB21DFA6F3237E8DE1 DUP4 PUSH1 0x40 MLOAD PUSH2 0xEB3 SWAP2 SWAP1 PUSH2 0x1B6E JUMP JUMPDEST PUSH1 0x40 MLOAD DUP1 SWAP2 SUB SWAP1 LOG2 POP POP JUMP JUMPDEST PUSH0 ADDRESS SWAP1 POP SWAP1 JUMP JUMPDEST PUSH1 0x1 PUSH1 0x20 MSTORE DUP1 PUSH0 MSTORE PUSH1 0x40 PUSH0 KECCAK256 PUSH0 SWAP2 POP SWAP1 POP SLOAD DUP2 JUMP JUMPDEST PUSH1 0x3 PUSH1 0x14 SWAP1 SLOAD SWAP1 PUSH2 0x100 EXP SWAP1 DIV PUSH1 0xFF AND DUP2 JUMP JUMPDEST PUSH2 0xEF6 PUSH2 0x15C4 JUMP JUMPDEST PUSH32 0x0 PUSH20 0xFFFFFFFFFFFFFFFFFFFFFFFFFFFFFFFFFFFFFFFF AND PUSH4 0xCA5EB5E1 DUP3 PUSH1 0x40 MLOAD DUP3 PUSH4 0xFFFFFFFF AND PUSH1 0xE0 SHL DUP2 MSTORE PUSH1 0x4 ADD PUSH2 0xF4F SWAP2 SWAP1 PUSH2 0x17DB JUMP JUMPDEST PUSH0 PUSH1 0x40 MLOAD DUP1 DUP4 SUB DUP2 PUSH0 DUP8 DUP1 EXTCODESIZE ISZERO DUP1 ISZERO PUSH2 0xF66 JUMPI PUSH0 DUP1 REVERT JUMPDEST POP GAS CALL ISZERO DUP1 ISZERO PUSH2 0xF78 JUMPI RETURNDATASIZE PUSH0 DUP1 RETURNDATACOPY RETURNDATASIZE PUSH0 REVERT JUMPDEST POP POP POP POP POP JUMP JUMPDEST PUSH1 0x3 PUSH0 SWAP1 SLOAD SWAP1 PUSH2 0x100 EXP SWAP1 DIV PUSH20 0xFFFFFFFFFFFFFFFFFFFFFFFFFFFFFFFFFFFFFFFF AND DUP2 JUMP JUMPDEST PUSH1 0x3 PUSH0 SWAP1 SLOAD SWAP1 PUSH2 0x100 EXP SWAP1 DIV PUSH20 0xFFFFFFFFFFFFFFFFFFFFFFFFFFFFFFFFFFFFFFFF AND PUSH20 0xFFFFFFFFFFFFFFFFFFFFFFFFFFFFFFFFFFFFFFFF AND CALLER PUSH20 0xFFFFFFFFFFFFFFFFFFFFFFFFFFFFFFFFFFFFFFFF AND EQ PUSH2 0x1033 JUMPI PUSH1 0x40 MLOAD PUSH32 0x8C379A000000000000000000000000000000000000000000000000000000000 DUP2 MSTORE PUSH1 0x4 ADD PUSH2 0x102A SWAP1 PUSH2 0x24B6 JUMP JUMPDEST PUSH1 0x40 MLOAD DUP1 SWAP2 SUB SWAP1 REVERT JUMPDEST DUP1 PUSH1 0x2 PUSH0 PUSH2 0x100 EXP DUP2 SLOAD DUP2 PUSH20 0xFFFFFFFFFFFFFFFFFFFFFFFFFFFFFFFFFFFFFFFF MUL NOT AND SWAP1 DUP4 PUSH20 0xFFFFFFFFFFFFFFFFFFFFFFFFFFFFFFFFFFFFFFFF AND MUL OR SWAP1 SSTORE POP POP JUMP JUMPDEST PUSH2 0x107E PUSH2 0x15C4 JUMP JUMPDEST PUSH0 PUSH20 0xFFFFFFFFFFFFFFFFFFFFFFFFFFFFFFFFFFFFFFFF AND DUP2 PUSH20 0xFFFFFFFFFFFFFFFFFFFFFFFFFFFFFFFFFFFFFFFF AND SUB PUSH2 0x10EE JUMPI PUSH0 PUSH1 0x40 MLOAD PUSH32 0x1E4FBDF700000000000000000000000000000000000000000000000000000000 DUP2 MSTORE PUSH1 0x4 ADD PUSH2 0x10E5 SWAP2 SWAP1 PUSH2 0x17DB JUMP JUMPDEST PUSH1 0x40 MLOAD DUP1 SWAP2 SUB SWAP1 REVERT JUMPDEST PUSH2 0x10F7 DUP2 PUSH2 0x164B JUMP JUMPDEST POP JUMP JUMPDEST PUSH0 PUSH1 0x2 PUSH0 SWAP1 SLOAD SWAP1 PUSH2 0x100 EXP SWAP1 DIV PUSH20 0xFFFFFFFFFFFFFFFFFFFFFFFFFFFFFFFFFFFFFFFF AND PUSH20 0xFFFFFFFFFFFFFFFFFFFFFFFFFFFFFFFFFFFFFFFF AND PUSH1 0x40 MLOAD PUSH1 0x24 ADD PUSH1 0x40 MLOAD PUSH1 0x20 DUP2 DUP4 SUB SUB DUP2 MSTORE SWAP1 PUSH1 0x40 MSTORE PUSH32 0xFDE8959800000000000000000000000000000000000000000000000000000000 PUSH28 0xFFFFFFFFFFFFFFFFFFFFFFFFFFFFFFFFFFFFFFFFFFFFFFFFFFFFFFFF NOT AND PUSH1 0x20 DUP3 ADD DUP1 MLOAD PUSH28 0xFFFFFFFFFFFFFFFFFFFFFFFFFFFFFFFFFFFFFFFFFFFFFFFFFFFFFFFF DUP4 DUP2 DUP4 AND OR DUP4 MSTORE POP POP POP POP PUSH1 0x40 MLOAD PUSH2 0x11C3 SWAP2 SWAP1 PUSH2 0x1F56 JUMP JUMPDEST PUSH0 PUSH1 0x40 MLOAD DUP1 DUP4 SUB DUP2 PUSH0 DUP7 GAS CALL SWAP2 POP POP RETURNDATASIZE DUP1 PUSH0 DUP2 EQ PUSH2 0x11FC JUMPI PUSH1 0x40 MLOAD SWAP2 POP PUSH1 0x1F NOT PUSH1 0x3F RETURNDATASIZE ADD AND DUP3 ADD PUSH1 0x40 MSTORE RETURNDATASIZE DUP3 MSTORE RETURNDATASIZE PUSH0 PUSH1 0x20 DUP5 ADD RETURNDATACOPY PUSH2 0x1201 JUMP JUMPDEST PUSH1 0x60 SWAP2 POP JUMPDEST POP POP SWAP1 POP DUP1 PUSH2 0x1245 JUMPI PUSH1 0x40 MLOAD PUSH32 0x8C379A000000000000000000000000000000000000000000000000000000000 DUP2 MSTORE PUSH1 0x4 ADD PUSH2 0x123C SWAP1 PUSH2 0x2544 JUMP JUMPDEST PUSH1 0x40 MLOAD DUP1 SWAP2 SUB SWAP1 REVERT JUMPDEST CALLER PUSH20 0xFFFFFFFFFFFFFFFFFFFFFFFFFFFFFFFFFFFFFFFF AND PUSH32 0x8595565D6FC010BABC8F7612A8768886D8FE08635F358D75AF306FDF25F00D03 PUSH1 0x40 MLOAD PUSH1 0x40 MLOAD DUP1 SWAP2 SUB SWAP1 LOG2 POP JUMP JUMPDEST PUSH0 DUP2 PUSH1 0x20 ADD CALLDATALOAD PUSH1 0x1 PUSH0 DUP5 PUSH0 ADD PUSH1 0x20 DUP2 ADD SWAP1 PUSH2 0x12A6 SWAP2 SWAP1 PUSH2 0x1DC7 JUMP JUMPDEST PUSH4 0xFFFFFFFF AND PUSH4 0xFFFFFFFF AND DUP2 MSTORE PUSH1 0x20 ADD SWAP1 DUP2 MSTORE PUSH1 0x20 ADD PUSH0 KECCAK256 SLOAD EQ SWAP1 POP SWAP2 SWAP1 POP JUMP JUMPDEST PUSH0 DUP1 PUSH1 0x1 PUSH0 DUP5 PUSH4 0xFFFFFFFF AND PUSH4 0xFFFFFFFF AND DUP2 MSTORE PUSH1 0x20 ADD SWAP1 DUP2 MSTORE PUSH1 0x20 ADD PUSH0 KECCAK256 SLOAD SWAP1 POP PUSH0 DUP1 SHL DUP2 SUB PUSH2 0x1330 JUMPI DUP3 PUSH1 0x40 MLOAD PUSH32 0xF6FF4FB700000000000000000000000000000000000000000000000000000000 DUP2 MSTORE PUSH1 0x4 ADD PUSH2 0x1327 SWAP2 SWAP1 PUSH2 0x1DAE JUMP JUMPDEST PUSH1 0x40 MLOAD DUP1 SWAP2 SUB SWAP1 REVERT JUMPDEST DUP1 SWAP2 POP POP SWAP2 SWAP1 POP JUMP JUMPDEST PUSH0 DUP1 PUSH0 DUP1 PUSH0 DUP1 PUSH0 DUP12 DUP12 DUP2 ADD SWAP1 PUSH2 0x134F SWAP2 SWAP1 PUSH2 0x26AE JUMP JUMPDEST SWAP7 POP SWAP7 POP SWAP7 POP SWAP7 POP SWAP7 POP SWAP7 POP SWAP7 POP PUSH0 DUP15 PUSH0 ADD PUSH1 0x20 DUP2 ADD SWAP1 PUSH2 0x1370 SWAP2 SWAP1 PUSH2 0x1DC7 JUMP JUMPDEST SWAP1 POP PUSH0 DUP16 PUSH1 0x20 ADD CALLDATALOAD SWAP1 POP PUSH1 0x1 PUSH1 0x3 PUSH1 0x14 PUSH2 0x100 EXP DUP2 SLOAD DUP2 PUSH1 0xFF MUL NOT AND SWAP1 DUP4 ISZERO ISZERO MUL OR SWAP1 SSTORE POP DUP2 PUSH1 0x3 PUSH1 0x16 PUSH2 0x100 EXP DUP2 SLOAD DUP2 PUSH4 0xFFFFFFFF MUL NOT AND SWAP1 DUP4 PUSH4 0xFFFFFFFF AND MUL OR SWAP1 SSTORE POP PUSH1 0x40 MLOAD PUSH1 0x20 ADD PUSH2 0x13C5 SWAP1 PUSH2 0x27BB JUMP JUMPDEST PUSH1 0x40 MLOAD PUSH1 0x20 DUP2 DUP4 SUB SUB DUP2 MSTORE SWAP1 PUSH1 0x40 MSTORE DUP1 MLOAD SWAP1 PUSH1 0x20 ADD KECCAK256 DUP8 PUSH1 0x40 MLOAD PUSH1 0x20 ADD PUSH2 0x13EC SWAP2 SWAP1 PUSH2 0x2809 JUMP JUMPDEST PUSH1 0x40 MLOAD PUSH1 0x20 DUP2 DUP4 SUB SUB DUP2 MSTORE SWAP1 PUSH1 0x40 MSTORE DUP1 MLOAD SWAP1 PUSH1 0x20 ADD KECCAK256 SUB PUSH2 0x147E JUMPI ADDRESS PUSH20 0xFFFFFFFFFFFFFFFFFFFFFFFFFFFFFFFFFFFFFFFF AND PUSH4 0x3BBE032F DUP10 DUP9 DUP9 DUP9 DUP9 DUP16 DUP10 PUSH1 0x40 MLOAD DUP9 PUSH4 0xFFFFFFFF AND PUSH1 0xE0 SHL DUP2 MSTORE PUSH1 0x4 ADD PUSH2 0x144C SWAP8 SWAP7 SWAP6 SWAP5 SWAP4 SWAP3 SWAP2 SWAP1 PUSH2 0x281F JUMP JUMPDEST PUSH0 PUSH1 0x40 MLOAD DUP1 DUP4 SUB DUP2 PUSH0 DUP8 DUP1 EXTCODESIZE ISZERO DUP1 ISZERO PUSH2 0x1463 JUMPI PUSH0 DUP1 REVERT JUMPDEST POP GAS CALL ISZERO DUP1 ISZERO PUSH2 0x1475 JUMPI RETURNDATASIZE PUSH0 DUP1 RETURNDATACOPY RETURNDATASIZE PUSH0 REVERT JUMPDEST POP POP POP POP PUSH2 0x15B2 JUMP JUMPDEST PUSH1 0x40 MLOAD PUSH1 0x20 ADD PUSH2 0x148D SWAP1 PUSH2 0x28D6 JUMP JUMPDEST PUSH1 0x40 MLOAD PUSH1 0x20 DUP2 DUP4 SUB SUB DUP2 MSTORE SWAP1 PUSH1 0x40 MSTORE DUP1 MLOAD SWAP1 PUSH1 0x20 ADD KECCAK256 DUP8 PUSH1 0x40 MLOAD PUSH1 0x20 ADD PUSH2 0x14B4 SWAP2 SWAP1 PUSH2 0x2809 JUMP JUMPDEST PUSH1 0x40 MLOAD PUSH1 0x20 DUP2 DUP4 SUB SUB DUP2 MSTORE SWAP1 PUSH1 0x40 MSTORE DUP1 MLOAD SWAP1 PUSH1 0x20 ADD KECCAK256 SUB ISZERO PUSH2 0x15B1 JUMPI PUSH1 0x40 MLOAD PUSH1 0x20 ADD PUSH2 0x14DF SWAP1 PUSH2 0x2934 JUMP JUMPDEST PUSH1 0x40 MLOAD PUSH1 0x20 DUP2 DUP4 SUB SUB DUP2 MSTORE SWAP1 PUSH1 0x40 MSTORE DUP1 MLOAD SWAP1 PUSH1 0x20 ADD KECCAK256 DUP8 PUSH1 0x40 MLOAD PUSH1 0x20 ADD PUSH2 0x1506 SWAP2 SWAP1 PUSH2 0x2809 JUMP JUMPDEST PUSH1 0x40 MLOAD PUSH1 0x20 DUP2 DUP4 SUB SUB DUP2 MSTORE SWAP1 PUSH1 0x40 MSTORE DUP1 MLOAD SWAP1 PUSH1 0x20 ADD KECCAK256 SUB ISZERO PUSH2 0x15B0 JUMPI PUSH1 0x40 MLOAD PUSH1 0x20 ADD PUSH2 0x1531 SWAP1 PUSH2 0x2992 JUMP JUMPDEST PUSH1 0x40 MLOAD PUSH1 0x20 DUP2 DUP4 SUB SUB DUP2 MSTORE SWAP1 PUSH1 0x40 MSTORE DUP1 MLOAD SWAP1 PUSH1 0x20 ADD KECCAK256 DUP8 PUSH1 0x40 MLOAD PUSH1 0x20 ADD PUSH2 0x1558 SWAP2 SWAP1 PUSH2 0x2809 JUMP JUMPDEST PUSH1 0x40 MLOAD PUSH1 0x20 DUP2 DUP4 SUB SUB DUP2 MSTORE SWAP1 PUSH1 0x40 MSTORE DUP1 MLOAD SWAP1 PUSH1 0x20 ADD KECCAK256 SUB ISZERO PUSH2 0x15AF JUMPI PUSH1 0x40 MLOAD PUSH32 0x8C379A000000000000000000000000000000000000000000000000000000000 DUP2 MSTORE PUSH1 0x4 ADD PUSH2 0x15A6 SWAP1 PUSH2 0x29F0 JUMP JUMPDEST PUSH1 0x40 MLOAD DUP1 SWAP2 SUB SWAP1 REVERT JUMPDEST JUMPDEST JUMPDEST JUMPDEST POP POP POP POP POP POP POP POP POP POP POP POP POP POP POP POP JUMP JUMPDEST PUSH2 0x15CC PUSH2 0x170C JUMP JUMPDEST PUSH20 0xFFFFFFFFFFFFFFFFFFFFFFFFFFFFFFFFFFFFFFFF AND PUSH2 0x15EA PUSH2 0xCF0 JUMP JUMPDEST PUSH20 0xFFFFFFFFFFFFFFFFFFFFFFFFFFFFFFFFFFFFFFFF AND EQ PUSH2 0x1649 JUMPI PUSH2 0x160D PUSH2 0x170C JUMP JUMPDEST PUSH1 0x40 MLOAD PUSH32 0x118CDAA700000000000000000000000000000000000000000000000000000000 DUP2 MSTORE PUSH1 0x4 ADD PUSH2 0x1640 SWAP2 SWAP1 PUSH2 0x17DB JUMP JUMPDEST PUSH1 0x40 MLOAD DUP1 SWAP2 SUB SWAP1 REVERT JUMPDEST JUMP JUMPDEST PUSH0 DUP1 PUSH0 SWAP1 SLOAD SWAP1 PUSH2 0x100 EXP SWAP1 DIV PUSH20 0xFFFFFFFFFFFFFFFFFFFFFFFFFFFFFFFFFFFFFFFF AND SWAP1 POP DUP2 PUSH0 DUP1 PUSH2 0x100 EXP DUP2 SLOAD DUP2 PUSH20 0xFFFFFFFFFFFFFFFFFFFFFFFFFFFFFFFFFFFFFFFF MUL NOT AND SWAP1 DUP4 PUSH20 0xFFFFFFFFFFFFFFFFFFFFFFFFFFFFFFFFFFFFFFFF AND MUL OR SWAP1 SSTORE POP DUP2 PUSH20 0xFFFFFFFFFFFFFFFFFFFFFFFFFFFFFFFFFFFFFFFF AND DUP2 PUSH20 0xFFFFFFFFFFFFFFFFFFFFFFFFFFFFFFFFFFFFFFFF AND PUSH32 0x8BE0079C531659141344CD1FD0A4F28419497F9722A3DAAFE3B4186F6B6457E0 PUSH1 0x40 MLOAD PUSH1 0x40 MLOAD DUP1 SWAP2 SUB SWAP1 LOG3 POP POP JUMP JUMPDEST PUSH0 CALLER SWAP1 POP SWAP1 JUMP JUMPDEST PUSH1 0x40 MLOAD DUP1 PUSH2 0x120 ADD PUSH1 0x40 MSTORE DUP1 PUSH0 DUP2 MSTORE PUSH1 0x20 ADD PUSH0 PUSH20 0xFFFFFFFFFFFFFFFFFFFFFFFFFFFFFFFFFFFFFFFF AND DUP2 MSTORE PUSH1 0x20 ADD PUSH0 DUP2 MSTORE PUSH1 0x20 ADD PUSH0 PUSH20 0xFFFFFFFFFFFFFFFFFFFFFFFFFFFFFFFFFFFFFFFF AND DUP2 MSTORE PUSH1 0x20 ADD PUSH0 PUSH20 0xFFFFFFFFFFFFFFFFFFFFFFFFFFFFFFFFFFFFFFFF AND DUP2 MSTORE PUSH1 0x20 ADD PUSH0 DUP2 MSTORE PUSH1 0x20 ADD PUSH0 DUP2 MSTORE PUSH1 0x20 ADD PUSH0 ISZERO ISZERO DUP2 MSTORE PUSH1 0x20 ADD PUSH0 ISZERO ISZERO DUP2 MSTORE POP SWAP1 JUMP JUMPDEST PUSH0 PUSH20 0xFFFFFFFFFFFFFFFFFFFFFFFFFFFFFFFFFFFFFFFF DUP3 AND SWAP1 POP SWAP2 SWAP1 POP JUMP JUMPDEST PUSH0 PUSH2 0x17C5 DUP3 PUSH2 0x179C JUMP JUMPDEST SWAP1 POP SWAP2 SWAP1 POP JUMP JUMPDEST PUSH2 0x17D5 DUP2 PUSH2 0x17BB JUMP JUMPDEST DUP3 MSTORE POP POP JUMP JUMPDEST PUSH0 PUSH1 0x20 DUP3 ADD SWAP1 POP PUSH2 0x17EE PUSH0 DUP4 ADD DUP5 PUSH2 0x17CC JUMP JUMPDEST SWAP3 SWAP2 POP POP JUMP JUMPDEST PUSH0 PUSH1 0x40 MLOAD SWAP1 POP SWAP1 JUMP JUMPDEST PUSH0 DUP1 REVERT JUMPDEST PUSH0 DUP1 REVERT JUMPDEST PUSH0 DUP1 REVERT JUMPDEST PUSH0 PUSH1 0x60 DUP3 DUP5 SUB SLT ISZERO PUSH2 0x181E JUMPI PUSH2 0x181D PUSH2 0x1805 JUMP JUMPDEST JUMPDEST DUP2 SWAP1 POP SWAP3 SWAP2 POP POP JUMP JUMPDEST PUSH0 DUP2 SWAP1 POP SWAP2 SWAP1 POP JUMP JUMPDEST PUSH2 0x1839 DUP2 PUSH2 0x1827 JUMP JUMPDEST DUP2 EQ PUSH2 0x1843 JUMPI PUSH0 DUP1 REVERT JUMPDEST POP JUMP JUMPDEST PUSH0 DUP2 CALLDATALOAD SWAP1 POP PUSH2 0x1854 DUP2 PUSH2 0x1830 JUMP JUMPDEST SWAP3 SWAP2 POP POP JUMP JUMPDEST PUSH0 DUP1 REVERT JUMPDEST PUSH0 DUP1 REVERT JUMPDEST PUSH0 DUP1 REVERT JUMPDEST PUSH0 DUP1 DUP4 PUSH1 0x1F DUP5 ADD SLT PUSH2 0x187B JUMPI PUSH2 0x187A PUSH2 0x185A JUMP JUMPDEST JUMPDEST DUP3 CALLDATALOAD SWAP1 POP PUSH8 0xFFFFFFFFFFFFFFFF DUP2 GT ISZERO PUSH2 0x1898 JUMPI PUSH2 0x1897 PUSH2 0x185E JUMP JUMPDEST JUMPDEST PUSH1 0x20 DUP4 ADD SWAP2 POP DUP4 PUSH1 0x1 DUP3 MUL DUP4 ADD GT ISZERO PUSH2 0x18B4 JUMPI PUSH2 0x18B3 PUSH2 0x1862 JUMP JUMPDEST JUMPDEST SWAP3 POP SWAP3 SWAP1 POP JUMP JUMPDEST PUSH2 0x18C4 DUP2 PUSH2 0x17BB JUMP JUMPDEST DUP2 EQ PUSH2 0x18CE JUMPI PUSH0 DUP1 REVERT JUMPDEST POP JUMP JUMPDEST PUSH0 DUP2 CALLDATALOAD SWAP1 POP PUSH2 0x18DF DUP2 PUSH2 0x18BB JUMP JUMPDEST SWAP3 SWAP2 POP POP JUMP JUMPDEST PUSH0 DUP1 PUSH0 DUP1 PUSH0 DUP1 PUSH0 PUSH1 0xE0 DUP9 DUP11 SUB SLT ISZERO PUSH2 0x1900 JUMPI PUSH2 0x18FF PUSH2 0x17FD JUMP JUMPDEST JUMPDEST PUSH0 PUSH2 0x190D DUP11 DUP3 DUP12 ADD PUSH2 0x1809 JUMP JUMPDEST SWAP8 POP POP PUSH1 0x60 PUSH2 0x191E DUP11 DUP3 DUP12 ADD PUSH2 0x1846 JUMP JUMPDEST SWAP7 POP POP PUSH1 0x80 DUP9 ADD CALLDATALOAD PUSH8 0xFFFFFFFFFFFFFFFF DUP2 GT ISZERO PUSH2 0x193F JUMPI PUSH2 0x193E PUSH2 0x1801 JUMP JUMPDEST JUMPDEST PUSH2 0x194B DUP11 DUP3 DUP12 ADD PUSH2 0x1866 JUMP JUMPDEST SWAP6 POP SWAP6 POP POP PUSH1 0xA0 PUSH2 0x195E DUP11 DUP3 DUP12 ADD PUSH2 0x18D1 JUMP JUMPDEST SWAP4 POP POP PUSH1 0xC0 DUP9 ADD CALLDATALOAD PUSH8 0xFFFFFFFFFFFFFFFF DUP2 GT ISZERO PUSH2 0x197F JUMPI PUSH2 0x197E PUSH2 0x1801 JUMP JUMPDEST JUMPDEST PUSH2 0x198B DUP11 DUP3 DUP12 ADD PUSH2 0x1866 JUMP JUMPDEST SWAP3 POP SWAP3 POP POP SWAP3 SWAP6 SWAP9 SWAP2 SWAP5 SWAP8 POP SWAP3 SWAP6 POP JUMP JUMPDEST PUSH0 PUSH8 0xFFFFFFFFFFFFFFFF DUP3 AND SWAP1 POP SWAP2 SWAP1 POP JUMP JUMPDEST PUSH2 0x19B8 DUP2 PUSH2 0x199C JUMP JUMPDEST DUP3 MSTORE POP POP JUMP JUMPDEST PUSH0 PUSH1 0x40 DUP3 ADD SWAP1 POP PUSH2 0x19D1 PUSH0 DUP4 ADD DUP6 PUSH2 0x19AF JUMP JUMPDEST PUSH2 0x19DE PUSH1 0x20 DUP4 ADD DUP5 PUSH2 0x19AF JUMP JUMPDEST SWAP4 SWAP3 POP POP POP JUMP JUMPDEST PUSH0 DUP2 ISZERO ISZERO SWAP1 POP SWAP2 SWAP1 POP JUMP JUMPDEST PUSH2 0x19F9 DUP2 PUSH2 0x19E5 JUMP JUMPDEST DUP3 MSTORE POP POP JUMP JUMPDEST PUSH0 PUSH1 0x20 DUP3 ADD SWAP1 POP PUSH2 0x1A12 PUSH0 DUP4 ADD DUP5 PUSH2 0x19F0 JUMP JUMPDEST SWAP3 SWAP2 POP POP JUMP JUMPDEST PUSH0 PUSH4 0xFFFFFFFF DUP3 AND SWAP1 POP SWAP2 SWAP1 POP JUMP JUMPDEST PUSH2 0x1A30 DUP2 PUSH2 0x1A18 JUMP JUMPDEST DUP2 EQ PUSH2 0x1A3A JUMPI PUSH0 DUP1 REVERT JUMPDEST POP JUMP JUMPDEST PUSH0 DUP2 CALLDATALOAD SWAP1 POP PUSH2 0x1A4B DUP2 PUSH2 0x1A27 JUMP JUMPDEST SWAP3 SWAP2 POP POP JUMP JUMPDEST PUSH0 DUP1 PUSH1 0x40 DUP4 DUP6 SUB SLT ISZERO PUSH2 0x1A67 JUMPI PUSH2 0x1A66 PUSH2 0x17FD JUMP JUMPDEST JUMPDEST PUSH0 PUSH2 0x1A74 DUP6 DUP3 DUP7 ADD PUSH2 0x1A3D JUMP JUMPDEST SWAP3 POP POP PUSH1 0x20 PUSH2 0x1A85 DUP6 DUP3 DUP7 ADD PUSH2 0x1846 JUMP JUMPDEST SWAP2 POP POP SWAP3 POP SWAP3 SWAP1 POP JUMP JUMPDEST PUSH0 DUP2 SWAP1 POP SWAP2 SWAP1 POP JUMP JUMPDEST PUSH2 0x1AA1 DUP2 PUSH2 0x1A8F JUMP JUMPDEST DUP2 EQ PUSH2 0x1AAB JUMPI PUSH0 DUP1 REVERT JUMPDEST POP JUMP JUMPDEST PUSH0 DUP2 CALLDATALOAD SWAP1 POP PUSH2 0x1ABC DUP2 PUSH2 0x1A98 JUMP JUMPDEST SWAP3 SWAP2 POP POP JUMP JUMPDEST PUSH0 DUP1 PUSH0 DUP1 PUSH0 DUP1 PUSH0 PUSH1 0xE0 DUP9 DUP11 SUB SLT ISZERO PUSH2 0x1ADD JUMPI PUSH2 0x1ADC PUSH2 0x17FD JUMP JUMPDEST JUMPDEST PUSH0 PUSH2 0x1AEA DUP11 DUP3 DUP12 ADD PUSH2 0x1AAE JUMP JUMPDEST SWAP8 POP POP PUSH1 0x20 PUSH2 0x1AFB DUP11 DUP3 DUP12 ADD PUSH2 0x18D1 JUMP JUMPDEST SWAP7 POP POP PUSH1 0x40 PUSH2 0x1B0C DUP11 DUP3 DUP12 ADD PUSH2 0x18D1 JUMP JUMPDEST SWAP6 POP POP PUSH1 0x60 PUSH2 0x1B1D DUP11 DUP3 DUP12 ADD PUSH2 0x1AAE JUMP JUMPDEST SWAP5 POP POP PUSH1 0x80 PUSH2 0x1B2E DUP11 DUP3 DUP12 ADD PUSH2 0x1AAE JUMP JUMPDEST SWAP4 POP POP PUSH1 0xA0 PUSH2 0x1B3F DUP11 DUP3 DUP12 ADD PUSH2 0x18D1 JUMP JUMPDEST SWAP3 POP POP PUSH1 0xC0 PUSH2 0x1B50 DUP11 DUP3 DUP12 ADD PUSH2 0x1A3D JUMP JUMPDEST SWAP2 POP POP SWAP3 SWAP6 SWAP9 SWAP2 SWAP5 SWAP8 POP SWAP3 SWAP6 POP JUMP JUMPDEST PUSH2 0x1B68 DUP2 PUSH2 0x1A8F JUMP JUMPDEST DUP3 MSTORE POP POP JUMP JUMPDEST PUSH0 PUSH1 0x20 DUP3 ADD SWAP1 POP PUSH2 0x1B81 PUSH0 DUP4 ADD DUP5 PUSH2 0x1B5F JUMP JUMPDEST SWAP3 SWAP2 POP POP JUMP JUMPDEST PUSH0 DUP2 SWAP1 POP SWAP2 SWAP1 POP JUMP JUMPDEST PUSH0 PUSH2 0x1BAA PUSH2 0x1BA5 PUSH2 0x1BA0 DUP5 PUSH2 0x179C JUMP JUMPDEST PUSH2 0x1B87 JUMP JUMPDEST PUSH2 0x179C JUMP JUMPDEST SWAP1 POP SWAP2 SWAP1 POP JUMP JUMPDEST PUSH0 PUSH2 0x1BBB DUP3 PUSH2 0x1B90 JUMP JUMPDEST SWAP1 POP SWAP2 SWAP1 POP JUMP JUMPDEST PUSH0 PUSH2 0x1BCC DUP3 PUSH2 0x1BB1 JUMP JUMPDEST SWAP1 POP SWAP2 SWAP1 POP JUMP JUMPDEST PUSH2 0x1BDC DUP2 PUSH2 0x1BC2 JUMP JUMPDEST DUP3 MSTORE POP POP JUMP JUMPDEST PUSH0 PUSH1 0x20 DUP3 ADD SWAP1 POP PUSH2 0x1BF5 PUSH0 DUP4 ADD DUP5 PUSH2 0x1BD3 JUMP JUMPDEST SWAP3 SWAP2 POP POP JUMP JUMPDEST PUSH0 PUSH1 0x20 DUP3 DUP5 SUB SLT ISZERO PUSH2 0x1C10 JUMPI PUSH2 0x1C0F PUSH2 0x17FD JUMP JUMPDEST JUMPDEST PUSH0 PUSH2 0x1C1D DUP5 DUP3 DUP6 ADD PUSH2 0x1AAE JUMP JUMPDEST SWAP2 POP POP SWAP3 SWAP2 POP POP JUMP JUMPDEST PUSH2 0x1C2F DUP2 PUSH2 0x1A8F JUMP JUMPDEST DUP3 MSTORE POP POP JUMP JUMPDEST PUSH2 0x1C3E DUP2 PUSH2 0x17BB JUMP JUMPDEST DUP3 MSTORE POP POP JUMP JUMPDEST PUSH2 0x1C4D DUP2 PUSH2 0x19E5 JUMP JUMPDEST DUP3 MSTORE POP POP JUMP JUMPDEST PUSH2 0x120 DUP3 ADD PUSH0 DUP3 ADD MLOAD PUSH2 0x1C68 PUSH0 DUP6 ADD DUP3 PUSH2 0x1C26 JUMP JUMPDEST POP PUSH1 0x20 DUP3 ADD MLOAD PUSH2 0x1C7B PUSH1 0x20 DUP6 ADD DUP3 PUSH2 0x1C35 JUMP JUMPDEST POP PUSH1 0x40 DUP3 ADD MLOAD PUSH2 0x1C8E PUSH1 0x40 DUP6 ADD DUP3 PUSH2 0x1C26 JUMP JUMPDEST POP PUSH1 0x60 DUP3 ADD MLOAD PUSH2 0x1CA1 PUSH1 0x60 DUP6 ADD DUP3 PUSH2 0x1C35 JUMP JUMPDEST POP PUSH1 0x80 DUP3 ADD MLOAD PUSH2 0x1CB4 PUSH1 0x80 DUP6 ADD DUP3 PUSH2 0x1C35 JUMP JUMPDEST POP PUSH1 0xA0 DUP3 ADD MLOAD PUSH2 0x1CC7 PUSH1 0xA0 DUP6 ADD DUP3 PUSH2 0x1C26 JUMP JUMPDEST POP PUSH1 0xC0 DUP3 ADD MLOAD PUSH2 0x1CDA PUSH1 0xC0 DUP6 ADD DUP3 PUSH2 0x1C26 JUMP JUMPDEST POP PUSH1 0xE0 DUP3 ADD MLOAD PUSH2 0x1CED PUSH1 0xE0 DUP6 ADD DUP3 PUSH2 0x1C44 JUMP JUMPDEST POP PUSH2 0x100 DUP3 ADD MLOAD PUSH2 0x1D02 PUSH2 0x100 DUP6 ADD DUP3 PUSH2 0x1C44 JUMP JUMPDEST POP POP POP POP JUMP JUMPDEST PUSH0 PUSH2 0x120 DUP3 ADD SWAP1 POP PUSH2 0x1D1C PUSH0 DUP4 ADD DUP5 PUSH2 0x1C53 JUMP JUMPDEST SWAP3 SWAP2 POP POP JUMP JUMPDEST PUSH0 DUP1 PUSH0 DUP1 PUSH1 0x80 DUP6 DUP8 SUB SLT ISZERO PUSH2 0x1D3A JUMPI PUSH2 0x1D39 PUSH2 0x17FD JUMP JUMPDEST JUMPDEST PUSH0 PUSH2 0x1D47 DUP8 DUP3 DUP9 ADD PUSH2 0x1AAE JUMP JUMPDEST SWAP5 POP POP PUSH1 0x20 PUSH2 0x1D58 DUP8 DUP3 DUP9 ADD PUSH2 0x18D1 JUMP JUMPDEST SWAP4 POP POP PUSH1 0x40 PUSH2 0x1D69 DUP8 DUP3 DUP9 ADD PUSH2 0x18D1 JUMP JUMPDEST SWAP3 POP POP PUSH1 0x60 PUSH2 0x1D7A DUP8 DUP3 DUP9 ADD PUSH2 0x1AAE JUMP JUMPDEST SWAP2 POP POP SWAP3 SWAP6 SWAP2 SWAP5 POP SWAP3 POP JUMP JUMPDEST PUSH0 PUSH1 0x20 DUP3 ADD SWAP1 POP PUSH2 0x1D99 PUSH0 DUP4 ADD DUP5 PUSH2 0x19AF JUMP JUMPDEST SWAP3 SWAP2 POP POP JUMP JUMPDEST PUSH2 0x1DA8 DUP2 PUSH2 0x1A18 JUMP JUMPDEST DUP3 MSTORE POP POP JUMP JUMPDEST PUSH0 PUSH1 0x20 DUP3 ADD SWAP1 POP PUSH2 0x1DC1 PUSH0 DUP4 ADD DUP5 PUSH2 0x1D9F JUMP JUMPDEST SWAP3 SWAP2 POP POP JUMP JUMPDEST PUSH0 PUSH1 0x20 DUP3 DUP5 SUB SLT ISZERO PUSH2 0x1DDC JUMPI PUSH2 0x1DDB PUSH2 0x17FD JUMP JUMPDEST JUMPDEST PUSH0 PUSH2 0x1DE9 DUP5 DUP3 DUP6 ADD PUSH2 0x1A3D JUMP JUMPDEST SWAP2 POP POP SWAP3 SWAP2 POP POP JUMP JUMPDEST PUSH2 0x1DFB DUP2 PUSH2 0x1827 JUMP JUMPDEST DUP3 MSTORE POP POP JUMP JUMPDEST PUSH0 PUSH1 0x20 DUP3 ADD SWAP1 POP PUSH2 0x1E14 PUSH0 DUP4 ADD DUP5 PUSH2 0x1DF2 JUMP JUMPDEST SWAP3 SWAP2 POP POP JUMP JUMPDEST PUSH0 PUSH1 0x20 DUP3 DUP5 SUB SLT ISZERO PUSH2 0x1E2F JUMPI PUSH2 0x1E2E PUSH2 0x17FD JUMP JUMPDEST JUMPDEST PUSH0 PUSH2 0x1E3C DUP5 DUP3 DUP6 ADD PUSH2 0x18D1 JUMP JUMPDEST SWAP2 POP POP SWAP3 SWAP2 POP POP JUMP JUMPDEST PUSH0 PUSH1 0x60 DUP3 DUP5 SUB SLT ISZERO PUSH2 0x1E5A JUMPI PUSH2 0x1E59 PUSH2 0x17FD JUMP JUMPDEST JUMPDEST PUSH0 PUSH2 0x1E67 DUP5 DUP3 DUP6 ADD PUSH2 0x1809 JUMP JUMPDEST SWAP2 POP POP SWAP3 SWAP2 POP POP JUMP JUMPDEST PUSH0 PUSH1 0x40 DUP3 ADD SWAP1 POP PUSH2 0x1E83 PUSH0 DUP4 ADD DUP6 PUSH2 0x1D9F JUMP JUMPDEST PUSH2 0x1E90 PUSH1 0x20 DUP4 ADD DUP5 PUSH2 0x1DF2 JUMP JUMPDEST SWAP4 SWAP3 POP POP POP JUMP JUMPDEST PUSH0 PUSH1 0xE0 DUP3 ADD SWAP1 POP PUSH2 0x1EAA PUSH0 DUP4 ADD DUP11 PUSH2 0x17CC JUMP JUMPDEST PUSH2 0x1EB7 PUSH1 0x20 DUP4 ADD DUP10 PUSH2 0x1B5F JUMP JUMPDEST PUSH2 0x1EC4 PUSH1 0x40 DUP4 ADD DUP9 PUSH2 0x1B5F JUMP JUMPDEST PUSH2 0x1ED1 PUSH1 0x60 DUP4 ADD DUP8 PUSH2 0x17CC JUMP JUMPDEST PUSH2 0x1EDE PUSH1 0x80 DUP4 ADD DUP7 PUSH2 0x17CC JUMP JUMPDEST PUSH2 0x1EEB PUSH1 0xA0 DUP4 ADD DUP6 PUSH2 0x1B5F JUMP JUMPDEST PUSH2 0x1EF8 PUSH1 0xC0 DUP4 ADD DUP5 PUSH2 0x1B5F JUMP JUMPDEST SWAP9 SWAP8 POP POP POP POP POP POP POP POP JUMP JUMPDEST PUSH0 DUP2 MLOAD SWAP1 POP SWAP2 SWAP1 POP JUMP JUMPDEST PUSH0 DUP2 SWAP1 POP SWAP3 SWAP2 POP POP JUMP JUMPDEST DUP3 DUP2 DUP4 MCOPY PUSH0 DUP4 DUP4 ADD MSTORE POP POP POP JUMP JUMPDEST PUSH0 PUSH2 0x1F30 DUP3 PUSH2 0x1F04 JUMP JUMPDEST PUSH2 0x1F3A DUP2 DUP6 PUSH2 0x1F0E JUMP JUMPDEST SWAP4 POP PUSH2 0x1F4A DUP2 DUP6 PUSH1 0x20 DUP7 ADD PUSH2 0x1F18 JUMP JUMPDEST DUP1 DUP5 ADD SWAP2 POP POP SWAP3 SWAP2 POP POP JUMP JUMPDEST PUSH0 PUSH2 0x1F61 DUP3 DUP5 PUSH2 0x1F26 JUMP JUMPDEST SWAP2 POP DUP2 SWAP1 POP SWAP3 SWAP2 POP POP JUMP JUMPDEST PUSH0 DUP3 DUP3 MSTORE PUSH1 0x20 DUP3 ADD SWAP1 POP SWAP3 SWAP2 POP POP JUMP JUMPDEST PUSH32 0x4661696C656420746F20706C616365206C696D6974206F726465720000000000 PUSH0 DUP3 ADD MSTORE POP JUMP JUMPDEST PUSH0 PUSH2 0x1FB0 PUSH1 0x1B DUP4 PUSH2 0x1F6C JUMP JUMPDEST SWAP2 POP PUSH2 0x1FBB DUP3 PUSH2 0x1F7C JUMP JUMPDEST PUSH1 0x20 DUP3 ADD SWAP1 POP SWAP2 SWAP1 POP JUMP JUMPDEST PUSH0 PUSH1 0x20 DUP3 ADD SWAP1 POP DUP2 DUP2 SUB PUSH0 DUP4 ADD MSTORE PUSH2 0x1FDD DUP2 PUSH2 0x1FA4 JUMP JUMPDEST SWAP1 POP SWAP2 SWAP1 POP JUMP JUMPDEST PUSH0 DUP2 MLOAD SWAP1 POP PUSH2 0x1FF2 DUP2 PUSH2 0x1A98 JUMP JUMPDEST SWAP3 SWAP2 POP POP JUMP JUMPDEST PUSH0 PUSH2 0x2002 DUP3 PUSH2 0x179C JUMP JUMPDEST SWAP1 POP SWAP2 SWAP1 POP JUMP JUMPDEST PUSH2 0x2012 DUP2 PUSH2 0x1FF8 JUMP JUMPDEST DUP2 EQ PUSH2 0x201C JUMPI PUSH0 DUP1 REVERT JUMPDEST POP JUMP JUMPDEST PUSH0 DUP2 MLOAD SWAP1 POP PUSH2 0x202D DUP2 PUSH2 0x2009 JUMP JUMPDEST SWAP3 SWAP2 POP POP JUMP JUMPDEST PUSH0 DUP2 SWAP1 POP SWAP2 SWAP1 POP JUMP JUMPDEST PUSH2 0x2045 DUP2 PUSH2 0x2033 JUMP JUMPDEST DUP2 EQ PUSH2 0x204F JUMPI PUSH0 DUP1 REVERT JUMPDEST POP JUMP JUMPDEST PUSH0 DUP2 MLOAD SWAP1 POP PUSH2 0x2060 DUP2 PUSH2 0x203C JUMP JUMPDEST SWAP3 SWAP2 POP POP JUMP JUMPDEST PUSH0 DUP1 PUSH0 DUP1 PUSH0 DUP1 PUSH0 DUP1 PUSH0 DUP1 PUSH2 0x140 DUP12 DUP14 SUB SLT ISZERO PUSH2 0x2085 JUMPI PUSH2 0x2084 PUSH2 0x17FD JUMP JUMPDEST JUMPDEST PUSH0 PUSH2 0x2092 DUP14 DUP3 DUP15 ADD PUSH2 0x1FE4 JUMP JUMPDEST SWAP11 POP POP PUSH1 0x20 PUSH2 0x20A3 DUP14 DUP3 DUP15 ADD PUSH2 0x201F JUMP JUMPDEST SWAP10 POP POP PUSH1 0x40 PUSH2 0x20B4 DUP14 DUP3 DUP15 ADD PUSH2 0x1FE4 JUMP JUMPDEST SWAP9 POP POP PUSH1 0x60 PUSH2 0x20C5 DUP14 DUP3 DUP15 ADD PUSH2 0x201F JUMP JUMPDEST SWAP8 POP POP PUSH1 0x80 PUSH2 0x20D6 DUP14 DUP3 DUP15 ADD PUSH2 0x2052 JUMP JUMPDEST SWAP7 POP POP PUSH1 0xA0 PUSH2 0x20E7 DUP14 DUP3 DUP15 ADD PUSH2 0x2052 JUMP JUMPDEST SWAP6 POP POP PUSH1 0xC0 PUSH2 0x20F8 DUP14 DUP3 DUP15 ADD PUSH2 0x2052 JUMP JUMPDEST SWAP5 POP POP PUSH1 0xE0 PUSH2 0x2109 DUP14 DUP3 DUP15 ADD PUSH2 0x2052 JUMP JUMPDEST SWAP4 POP POP PUSH2 0x100 PUSH2 0x211B DUP14 DUP3 DUP15 ADD PUSH2 0x201F JUMP JUMPDEST SWAP3 POP POP PUSH2 0x120 PUSH2 0x212D DUP14 DUP3 DUP15 ADD PUSH2 0x201F JUMP JUMPDEST SWAP2 POP POP SWAP3 SWAP6 SWAP9 SWAP12 SWAP2 SWAP5 SWAP8 SWAP11 POP SWAP3 SWAP6 SWAP9 POP JUMP JUMPDEST PUSH32 0x4661696C656420746F207265747269657665206C696D6974206F726465720000 PUSH0 DUP3 ADD MSTORE POP JUMP JUMPDEST PUSH0 PUSH2 0x2173 PUSH1 0x1E DUP4 PUSH2 0x1F6C JUMP JUMPDEST SWAP2 POP PUSH2 0x217E DUP3 PUSH2 0x213F JUMP JUMPDEST PUSH1 0x20 DUP3 ADD SWAP1 POP SWAP2 SWAP1 POP JUMP JUMPDEST PUSH0 PUSH1 0x20 DUP3 ADD SWAP1 POP DUP2 DUP2 SUB PUSH0 DUP4 ADD MSTORE PUSH2 0x21A0 DUP2 PUSH2 0x2167 JUMP JUMPDEST SWAP1 POP SWAP2 SWAP1 POP JUMP JUMPDEST PUSH2 0x21B0 DUP2 PUSH2 0x19E5 JUMP JUMPDEST DUP2 EQ PUSH2 0x21BA JUMPI PUSH0 DUP1 REVERT JUMPDEST POP JUMP JUMPDEST PUSH0 DUP2 MLOAD SWAP1 POP PUSH2 0x21CB DUP2 PUSH2 0x21A7 JUMP JUMPDEST SWAP3 SWAP2 POP POP JUMP JUMPDEST PUSH0 DUP1 PUSH0 DUP1 PUSH0 DUP1 PUSH0 DUP1 PUSH0 DUP1 PUSH2 0x140 DUP12 DUP14 SUB SLT ISZERO PUSH2 0x21F0 JUMPI PUSH2 0x21EF PUSH2 0x17FD JUMP JUMPDEST JUMPDEST PUSH0 PUSH2 0x21FD DUP14 DUP3 DUP15 ADD PUSH2 0x1FE4 JUMP JUMPDEST SWAP11 POP POP PUSH1 0x20 PUSH2 0x220E DUP14 DUP3 DUP15 ADD PUSH2 0x201F JUMP JUMPDEST SWAP10 POP POP PUSH1 0x40 PUSH2 0x221F DUP14 DUP3 DUP15 ADD PUSH2 0x1FE4 JUMP JUMPDEST SWAP9 POP POP PUSH1 0x60 PUSH2 0x2230 DUP14 DUP3 DUP15 ADD PUSH2 0x201F JUMP JUMPDEST SWAP8 POP POP PUSH1 0x80 PUSH2 0x2241 DUP14 DUP3 DUP15 ADD PUSH2 0x201F JUMP JUMPDEST SWAP7 POP POP PUSH1 0xA0 PUSH2 0x2252 DUP14 DUP3 DUP15 ADD PUSH2 0x1FE4 JUMP JUMPDEST SWAP6 POP POP PUSH1 0xC0 PUSH2 0x2263 DUP14 DUP3 DUP15 ADD PUSH2 0x1FE4 JUMP JUMPDEST SWAP5 POP POP PUSH1 0xE0 PUSH2 0x2274 DUP14 DUP3 DUP15 ADD PUSH2 0x1FE4 JUMP JUMPDEST SWAP4 POP POP PUSH2 0x100 PUSH2 0x2286 DUP14 DUP3 DUP15 ADD PUSH2 0x21BD JUMP JUMPDEST SWAP3 POP POP PUSH2 0x120 PUSH2 0x2298 DUP14 DUP3 DUP15 ADD PUSH2 0x21BD JUMP JUMPDEST SWAP2 POP POP SWAP3 SWAP6 SWAP9 SWAP12 SWAP2 SWAP5 SWAP8 SWAP11 POP SWAP3 SWAP6 SWAP9 POP JUMP JUMPDEST PUSH0 PUSH1 0x80 DUP3 ADD SWAP1 POP PUSH2 0x22BD PUSH0 DUP4 ADD DUP8 PUSH2 0x1B5F JUMP JUMPDEST PUSH2 0x22CA PUSH1 0x20 DUP4 ADD DUP7 PUSH2 0x17CC JUMP JUMPDEST PUSH2 0x22D7 PUSH1 0x40 DUP4 ADD DUP6 PUSH2 0x17CC JUMP JUMPDEST PUSH2 0x22E4 PUSH1 0x60 DUP4 ADD DUP5 PUSH2 0x1B5F JUMP JUMPDEST SWAP6 SWAP5 POP POP POP POP POP JUMP JUMPDEST PUSH32 0x4661696C656420746F20706C616365206D61726B6574206F7264657200000000 PUSH0 DUP3 ADD MSTORE POP JUMP JUMPDEST PUSH0 PUSH2 0x2321 PUSH1 0x1C DUP4 PUSH2 0x1F6C JUMP JUMPDEST SWAP2 POP PUSH2 0x232C DUP3 PUSH2 0x22ED JUMP JUMPDEST PUSH1 0x20 DUP3 ADD SWAP1 POP SWAP2 SWAP1 POP JUMP JUMPDEST PUSH0 PUSH1 0x20 DUP3 ADD SWAP1 POP DUP2 DUP2 SUB PUSH0 DUP4 ADD MSTORE PUSH2 0x234E DUP2 PUSH2 0x2315 JUMP JUMPDEST SWAP1 POP SWAP2 SWAP1 POP JUMP JUMPDEST PUSH0 DUP1 PUSH0 DUP1 PUSH0 DUP1 PUSH1 0xC0 DUP8 DUP10 SUB SLT ISZERO PUSH2 0x236F JUMPI PUSH2 0x236E PUSH2 0x17FD JUMP JUMPDEST JUMPDEST PUSH0 PUSH2 0x237C DUP10 DUP3 DUP11 ADD PUSH2 0x201F JUMP JUMPDEST SWAP7 POP POP PUSH1 0x20 PUSH2 0x238D DUP10 DUP3 DUP11 ADD PUSH2 0x201F JUMP JUMPDEST SWAP6 POP POP PUSH1 0x40 PUSH2 0x239E DUP10 DUP3 DUP11 ADD PUSH2 0x2052 JUMP JUMPDEST SWAP5 POP POP PUSH1 0x60 PUSH2 0x23AF DUP10 DUP3 DUP11 ADD PUSH2 0x2052 JUMP JUMPDEST SWAP4 POP POP PUSH1 0x80 PUSH2 0x23C0 DUP10 DUP3 DUP11 ADD PUSH2 0x2052 JUMP JUMPDEST SWAP3 POP POP PUSH1 0xA0 PUSH2 0x23D1 DUP10 DUP3 DUP11 ADD PUSH2 0x2052 JUMP JUMPDEST SWAP2 POP POP SWAP3 SWAP6 POP SWAP3 SWAP6 POP SWAP3 SWAP6 JUMP JUMPDEST PUSH32 0x4661696C656420746F2063616E63656C206C696D6974206F7264657200000000 PUSH0 DUP3 ADD MSTORE POP JUMP JUMPDEST PUSH0 PUSH2 0x2412 PUSH1 0x1C DUP4 PUSH2 0x1F6C JUMP JUMPDEST SWAP2 POP PUSH2 0x241D DUP3 PUSH2 0x23DE JUMP JUMPDEST PUSH1 0x20 DUP3 ADD SWAP1 POP SWAP2 SWAP1 POP JUMP JUMPDEST PUSH0 PUSH1 0x20 DUP3 ADD SWAP1 POP DUP2 DUP2 SUB PUSH0 DUP4 ADD MSTORE PUSH2 0x243F DUP2 PUSH2 0x2406 JUMP JUMPDEST SWAP1 POP SWAP2 SWAP1 POP JUMP JUMPDEST PUSH32 0x4F6E6C79206465706C6F7965722063616E207365742074686520527573742063 PUSH0 DUP3 ADD MSTORE PUSH32 0x6F6E747261637420616464726573730000000000000000000000000000000000 PUSH1 0x20 DUP3 ADD MSTORE POP JUMP JUMPDEST PUSH0 PUSH2 0x24A0 PUSH1 0x2F DUP4 PUSH2 0x1F6C JUMP JUMPDEST SWAP2 POP PUSH2 0x24AB DUP3 PUSH2 0x2446 JUMP JUMPDEST PUSH1 0x40 DUP3 ADD SWAP1 POP SWAP2 SWAP1 POP JUMP JUMPDEST PUSH0 PUSH1 0x20 DUP3 ADD SWAP1 POP DUP2 DUP2 SUB PUSH0 DUP4 ADD MSTORE PUSH2 0x24CD DUP2 PUSH2 0x2494 JUMP JUMPDEST SWAP1 POP SWAP2 SWAP1 POP JUMP JUMPDEST PUSH32 0x4661696C656420746F2063616E63656C20616C6C206C696D6974206F72646572 PUSH0 DUP3 ADD MSTORE PUSH32 0x7300000000000000000000000000000000000000000000000000000000000000 PUSH1 0x20 DUP3 ADD MSTORE POP JUMP JUMPDEST PUSH0 PUSH2 0x252E PUSH1 0x21 DUP4 PUSH2 0x1F6C JUMP JUMPDEST SWAP2 POP PUSH2 0x2539 DUP3 PUSH2 0x24D4 JUMP JUMPDEST PUSH1 0x40 DUP3 ADD SWAP1 POP SWAP2 SWAP1 POP JUMP JUMPDEST PUSH0 PUSH1 0x20 DUP3 ADD SWAP1 POP DUP2 DUP2 SUB PUSH0 DUP4 ADD MSTORE PUSH2 0x255B DUP2 PUSH2 0x2522 JUMP JUMPDEST SWAP1 POP SWAP2 SWAP1 POP JUMP JUMPDEST PUSH0 DUP2 CALLDATALOAD SWAP1 POP PUSH2 0x2570 DUP2 PUSH2 0x2009 JUMP JUMPDEST SWAP3 SWAP2 POP POP JUMP JUMPDEST PUSH0 DUP1 REVERT JUMPDEST PUSH0 PUSH1 0x1F NOT PUSH1 0x1F DUP4 ADD AND SWAP1 POP SWAP2 SWAP1 POP JUMP JUMPDEST PUSH32 0x4E487B7100000000000000000000000000000000000000000000000000000000 PUSH0 MSTORE PUSH1 0x41 PUSH1 0x4 MSTORE PUSH1 0x24 PUSH0 REVERT JUMPDEST PUSH2 0x25C0 DUP3 PUSH2 0x257A JUMP JUMPDEST DUP2 ADD DUP2 DUP2 LT PUSH8 0xFFFFFFFFFFFFFFFF DUP3 GT OR ISZERO PUSH2 0x25DF JUMPI PUSH2 0x25DE PUSH2 0x258A JUMP JUMPDEST JUMPDEST DUP1 PUSH1 0x40 MSTORE POP POP POP JUMP JUMPDEST PUSH0 PUSH2 0x25F1 PUSH2 0x17F4 JUMP JUMPDEST SWAP1 POP PUSH2 0x25FD DUP3 DUP3 PUSH2 0x25B7 JUMP JUMPDEST SWAP2 SWAP1 POP JUMP JUMPDEST PUSH0 PUSH8 0xFFFFFFFFFFFFFFFF DUP3 GT ISZERO PUSH2 0x261C JUMPI PUSH2 0x261B PUSH2 0x258A JUMP JUMPDEST JUMPDEST PUSH2 0x2625 DUP3 PUSH2 0x257A JUMP JUMPDEST SWAP1 POP PUSH1 0x20 DUP2 ADD SWAP1 POP SWAP2 SWAP1 POP JUMP JUMPDEST DUP3 DUP2 DUP4 CALLDATACOPY PUSH0 DUP4 DUP4 ADD MSTORE POP POP POP JUMP JUMPDEST PUSH0 PUSH2 0x2652 PUSH2 0x264D DUP5 PUSH2 0x2602 JUMP JUMPDEST PUSH2 0x25E8 JUMP JUMPDEST SWAP1 POP DUP3 DUP2 MSTORE PUSH1 0x20 DUP2 ADD DUP5 DUP5 DUP5 ADD GT ISZERO PUSH2 0x266E JUMPI PUSH2 0x266D PUSH2 0x2576 JUMP JUMPDEST JUMPDEST PUSH2 0x2679 DUP5 DUP3 DUP6 PUSH2 0x2632 JUMP JUMPDEST POP SWAP4 SWAP3 POP POP POP JUMP JUMPDEST PUSH0 DUP3 PUSH1 0x1F DUP4 ADD SLT PUSH2 0x2695 JUMPI PUSH2 0x2694 PUSH2 0x185A JUMP JUMPDEST JUMPDEST DUP2 CALLDATALOAD PUSH2 0x26A5 DUP5 DUP3 PUSH1 0x20 DUP7 ADD PUSH2 0x2640 JUMP JUMPDEST SWAP2 POP POP SWAP3 SWAP2 POP POP JUMP JUMPDEST PUSH0 DUP1 PUSH0 DUP1 PUSH0 DUP1 PUSH0 PUSH1 0xE0 DUP9 DUP11 SUB SLT ISZERO PUSH2 0x26C9 JUMPI PUSH2 0x26C8 PUSH2 0x17FD JUMP JUMPDEST JUMPDEST PUSH0 PUSH2 0x26D6 DUP11 DUP3 DUP12 ADD PUSH2 0x2562 JUMP JUMPDEST SWAP8 POP POP PUSH1 0x20 PUSH2 0x26E7 DUP11 DUP3 DUP12 ADD PUSH2 0x1AAE JUMP JUMPDEST SWAP7 POP POP PUSH1 0x40 DUP9 ADD CALLDATALOAD PUSH8 0xFFFFFFFFFFFFFFFF DUP2 GT ISZERO PUSH2 0x2708 JUMPI PUSH2 0x2707 PUSH2 0x1801 JUMP JUMPDEST JUMPDEST PUSH2 0x2714 DUP11 DUP3 DUP12 ADD PUSH2 0x2681 JUMP JUMPDEST SWAP6 POP POP PUSH1 0x60 PUSH2 0x2725 DUP11 DUP3 DUP12 ADD PUSH2 0x2562 JUMP JUMPDEST SWAP5 POP POP PUSH1 0x80 PUSH2 0x2736 DUP11 DUP3 DUP12 ADD PUSH2 0x2562 JUMP JUMPDEST SWAP4 POP POP PUSH1 0xA0 PUSH2 0x2747 DUP11 DUP3 DUP12 ADD PUSH2 0x1AAE JUMP JUMPDEST SWAP3 POP POP PUSH1 0xC0 PUSH2 0x2758 DUP11 DUP3 DUP12 ADD PUSH2 0x1AAE JUMP JUMPDEST SWAP2 POP POP SWAP3 SWAP6 SWAP9 SWAP2 SWAP5 SWAP8 POP SWAP3 SWAP6 POP JUMP JUMPDEST PUSH0 DUP2 SWAP1 POP SWAP3 SWAP2 POP POP JUMP JUMPDEST PUSH32 0x4C494D49545F4F52444552000000000000000000000000000000000000000000 PUSH0 DUP3 ADD MSTORE POP JUMP JUMPDEST PUSH0 PUSH2 0x27A5 PUSH1 0xB DUP4 PUSH2 0x2767 JUMP JUMPDEST SWAP2 POP PUSH2 0x27B0 DUP3 PUSH2 0x2771 JUMP JUMPDEST PUSH1 0xB DUP3 ADD SWAP1 POP SWAP2 SWAP1 POP JUMP JUMPDEST PUSH0 PUSH2 0x27C5 DUP3 PUSH2 0x2799 JUMP JUMPDEST SWAP2 POP DUP2 SWAP1 POP SWAP2 SWAP1 POP JUMP JUMPDEST PUSH0 DUP2 MLOAD SWAP1 POP SWAP2 SWAP1 POP JUMP JUMPDEST PUSH0 PUSH2 0x27E3 DUP3 PUSH2 0x27CF JUMP JUMPDEST PUSH2 0x27ED DUP2 DUP6 PUSH2 0x2767 JUMP JUMPDEST SWAP4 POP PUSH2 0x27FD DUP2 DUP6 PUSH1 0x20 DUP7 ADD PUSH2 0x1F18 JUMP JUMPDEST DUP1 DUP5 ADD SWAP2 POP POP SWAP3 SWAP2 POP POP JUMP JUMPDEST PUSH0 PUSH2 0x2814 DUP3 DUP5 PUSH2 0x27D9 JUMP JUMPDEST SWAP2 POP DUP2 SWAP1 POP SWAP3 SWAP2 POP POP JUMP JUMPDEST PUSH0 PUSH1 0xE0 DUP3 ADD SWAP1 POP PUSH2 0x2832 PUSH0 DUP4 ADD DUP11 PUSH2 0x1B5F JUMP JUMPDEST PUSH2 0x283F PUSH1 0x20 DUP4 ADD DUP10 PUSH2 0x17CC JUMP JUMPDEST PUSH2 0x284C PUSH1 0x40 DUP4 ADD DUP9 PUSH2 0x17CC JUMP JUMPDEST PUSH2 0x2859 PUSH1 0x60 DUP4 ADD DUP8 PUSH2 0x1B5F JUMP JUMPDEST PUSH2 0x2866 PUSH1 0x80 DUP4 ADD DUP7 PUSH2 0x1B5F JUMP JUMPDEST PUSH2 0x2873 PUSH1 0xA0 DUP4 ADD DUP6 PUSH2 0x17CC JUMP JUMPDEST PUSH2 0x2880 PUSH1 0xC0 DUP4 ADD DUP5 PUSH2 0x1D9F JUMP JUMPDEST SWAP9 SWAP8 POP POP POP POP POP POP POP POP JUMP JUMPDEST PUSH32 0x43414E43454C5F4F524445520000000000000000000000000000000000000000 PUSH0 DUP3 ADD MSTORE POP JUMP JUMPDEST PUSH0 PUSH2 0x28C0 PUSH1 0xC DUP4 PUSH2 0x2767 JUMP JUMPDEST SWAP2 POP PUSH2 0x28CB DUP3 PUSH2 0x288C JUMP JUMPDEST PUSH1 0xC DUP3 ADD SWAP1 POP SWAP2 SWAP1 POP JUMP JUMPDEST PUSH0 PUSH2 0x28E0 DUP3 PUSH2 0x28B4 JUMP JUMPDEST SWAP2 POP DUP2 SWAP1 POP SWAP2 SWAP1 POP JUMP JUMPDEST PUSH32 0x43414E43454C5F414C4C5F4F5244455200000000000000000000000000000000 PUSH0 DUP3 ADD MSTORE POP JUMP JUMPDEST PUSH0 PUSH2 0x291E PUSH1 0x10 DUP4 PUSH2 0x2767 JUMP JUMPDEST SWAP2 POP PUSH2 0x2929 DUP3 PUSH2 0x28EA JUMP JUMPDEST PUSH1 0x10 DUP3 ADD SWAP1 POP SWAP2 SWAP1 POP JUMP JUMPDEST PUSH0 PUSH2 0x293E DUP3 PUSH2 0x2912 JUMP JUMPDEST SWAP2 POP DUP2 SWAP1 POP SWAP2 SWAP1 POP JUMP JUMPDEST PUSH32 0x4D41524B45545F4F524445520000000000000000000000000000000000000000 PUSH0 DUP3 ADD MSTORE POP JUMP JUMPDEST PUSH0 PUSH2 0x297C PUSH1 0xC DUP4 PUSH2 0x2767 JUMP JUMPDEST SWAP2 POP PUSH2 0x2987 DUP3 PUSH2 0x2948 JUMP JUMPDEST PUSH1 0xC DUP3 ADD SWAP1 POP SWAP2 SWAP1 POP JUMP JUMPDEST PUSH0 PUSH2 0x299C DUP3 PUSH2 0x2970 JUMP JUMPDEST SWAP2 POP DUP2 SWAP1 POP SWAP2 SWAP1 POP JUMP JUMPDEST PUSH32 0x77726F6E67206F72646572000000000000000000000000000000000000000000 PUSH0 DUP3 ADD MSTORE POP JUMP JUMPDEST PUSH0 PUSH2 0x29DA PUSH1 0xB DUP4 PUSH2 0x1F6C JUMP JUMPDEST SWAP2 POP PUSH2 0x29E5 DUP3 PUSH2 0x29A6 JUMP JUMPDEST PUSH1 0x20 DUP3 ADD SWAP1 POP SWAP2 SWAP1 POP JUMP JUMPDEST PUSH0 PUSH1 0x20 DUP3 ADD SWAP1 POP DUP2 DUP2 SUB PUSH0 DUP4 ADD MSTORE PUSH2 0x2A07 DUP2 PUSH2 0x29CE JUMP JUMPDEST SWAP1 POP SWAP2 SWAP1 POP JUMP INVALID LOG2 PUSH5 0x6970667358 0x22 SLT KECCAK256 0xD6 0xC MOD PUSH22 0x8553E20DCA2FCD287E3DA66C91BA72F1577F7DC97C07 0xCF 0x2B 0xB4 COINBASE SWAP1 0x4D PUSH5 0x736F6C6343 STOP ADDMOD NOT STOP CALLER "
		},
		"gasEstimates": {
			"creation": {
				"codeDepositCost": "2164000",
				"executionCost": "infinite",
				"totalCost": "infinite"
			},
			"external": {
				"allowInitializePath((uint32,bytes32,uint64))": "3128",
				"callSenderEid()": "2540",
				"cancelAllLimitOrders()": "infinite",
				"cancelLimitOrder(uint256)": "infinite",
				"composeMsgSender()": "468",
				"deployer()": "2552",
				"endpoint()": "infinite",
				"getChainID()": "354",
				"inWrapper()": "2650",
				"lzReceive((uint32,bytes32,uint64),bytes32,bytes,address,bytes)": "infinite",
				"nextNonce(uint32,bytes32)": "901",
				"oAppVersion()": "infinite",
				"owner()": "2560",
				"peers(uint32)": "2871",
				"placeLimitOrder(uint256,address,address,uint256,uint256,address,uint32)": "infinite",
				"placeMarketOrder(uint256,address,address,uint256)": "infinite",
				"renounceOwnership()": "infinite",
				"retrieveLimitOrder(uint256)": "infinite",
				"rustContractAddress()": "2532",
				"setDelegate(address)": "infinite",
				"setPeer(uint32,bytes32)": "infinite",
				"setRustContractAddress(address)": "26950",
				"setTrue()": "2607",
				"transferOwnership(address)": "infinite"
			},
			"internal": {
				"_lzReceive(struct Origin calldata,bytes32,bytes calldata,address,bytes calldata)": "infinite"
			}
		},
		"methodIdentifiers": {
			"allowInitializePath((uint32,bytes32,uint64))": "ff7bd03d",
			"callSenderEid()": "8b836b6b",
			"cancelAllLimitOrders()": "fde89598",
			"cancelLimitOrder(uint256)": "a5cdc8fc",
			"composeMsgSender()": "b92d0eff",
			"deployer()": "d5f39488",
			"endpoint()": "5e280f11",
			"getChainID()": "564b81ef",
			"inWrapper()": "c8e4d753",
			"lzReceive((uint32,bytes32,uint64),bytes32,bytes,address,bytes)": "13137d65",
			"nextNonce(uint32,bytes32)": "7d25a05e",
			"oAppVersion()": "17442b70",
			"owner()": "8da5cb5b",
			"peers(uint32)": "bb0b6a53",
			"placeLimitOrder(uint256,address,address,uint256,uint256,address,uint32)": "3bbe032f",
			"placeMarketOrder(uint256,address,address,uint256)": "732c2c64",
			"renounceOwnership()": "715018a6",
			"retrieveLimitOrder(uint256)": "648ea063",
			"rustContractAddress()": "06ef0339",
			"setDelegate(address)": "ca5eb5e1",
			"setPeer(uint32,bytes32)": "3400288b",
			"setRustContractAddress(address)": "e4cf4c66",
			"setTrue()": "19849d5b",
			"transferOwnership(address)": "f2fde38b"
		}
	},
	"abi": [
		{
			"inputs": [
				{
					"internalType": "address",
					"name": "_endpoint",
					"type": "address"
				},
				{
					"internalType": "address",
					"name": "_owner",
					"type": "address"
				},
				{
					"internalType": "address",
					"name": "_rustContractAddress",
					"type": "address"
				}
			],
			"stateMutability": "nonpayable",
			"type": "constructor"
		},
		{
			"inputs": [],
			"name": "InvalidDelegate",
			"type": "error"
		},
		{
			"inputs": [],
			"name": "InvalidEndpointCall",
			"type": "error"
		},
		{
			"inputs": [],
			"name": "LzTokenUnavailable",
			"type": "error"
		},
		{
			"inputs": [
				{
					"internalType": "uint32",
					"name": "eid",
					"type": "uint32"
				}
			],
			"name": "NoPeer",
			"type": "error"
		},
		{
			"inputs": [
				{
					"internalType": "uint256",
					"name": "msgValue",
					"type": "uint256"
				}
			],
			"name": "NotEnoughNative",
			"type": "error"
		},
		{
			"inputs": [
				{
					"internalType": "address",
					"name": "addr",
					"type": "address"
				}
			],
			"name": "OnlyEndpoint",
			"type": "error"
		},
		{
			"inputs": [
				{
					"internalType": "uint32",
					"name": "eid",
					"type": "uint32"
				},
				{
					"internalType": "bytes32",
					"name": "sender",
					"type": "bytes32"
				}
			],
			"name": "OnlyPeer",
			"type": "error"
		},
		{
			"inputs": [
				{
					"internalType": "address",
					"name": "owner",
					"type": "address"
				}
			],
			"name": "OwnableInvalidOwner",
			"type": "error"
		},
		{
			"inputs": [
				{
					"internalType": "address",
					"name": "account",
					"type": "address"
				}
			],
			"name": "OwnableUnauthorizedAccount",
			"type": "error"
		},
		{
			"anonymous": false,
			"inputs": [
				{
					"indexed": true,
					"internalType": "address",
					"name": "user",
					"type": "address"
				}
			],
			"name": "AllOrdersCanceled",
			"type": "event"
		},
		{
			"anonymous": false,
			"inputs": [
				{
					"indexed": false,
					"internalType": "uint256",
					"name": "orderId",
					"type": "uint256"
				},
				{
					"indexed": true,
					"internalType": "address",
					"name": "user",
					"type": "address"
				}
			],
			"name": "OrderCanceled",
			"type": "event"
		},
		{
			"anonymous": false,
			"inputs": [
				{
					"indexed": false,
					"internalType": "uint256",
					"name": "buyOrderId",
					"type": "uint256"
				},
				{
					"indexed": false,
					"internalType": "uint256",
					"name": "sellOrderId",
					"type": "uint256"
				},
				{
					"indexed": true,
					"internalType": "address",
					"name": "buyer",
					"type": "address"
				},
				{
					"indexed": true,
					"internalType": "address",
					"name": "seller",
					"type": "address"
				},
				{
					"indexed": false,
					"internalType": "uint256",
					"name": "amount",
					"type": "uint256"
				},
				{
					"indexed": false,
					"internalType": "uint256",
					"name": "price",
					"type": "uint256"
				}
			],
			"name": "OrderMatched",
			"type": "event"
		},
		{
			"anonymous": false,
			"inputs": [
				{
					"indexed": false,
					"internalType": "uint256",
					"name": "orderId",
					"type": "uint256"
				},
				{
					"indexed": true,
					"internalType": "address",
					"name": "user",
					"type": "address"
				},
				{
					"indexed": false,
					"internalType": "uint256",
					"name": "orderType",
					"type": "uint256"
				},
				{
					"indexed": false,
					"internalType": "address",
					"name": "token0",
					"type": "address"
				},
				{
					"indexed": false,
					"internalType": "address",
					"name": "token1",
					"type": "address"
				},
				{
					"indexed": false,
					"internalType": "uint256",
					"name": "amount",
					"type": "uint256"
				},
				{
					"indexed": false,
					"internalType": "uint256",
					"name": "price",
					"type": "uint256"
				}
			],
			"name": "OrderPlaced",
			"type": "event"
		},
		{
			"anonymous": false,
			"inputs": [
				{
					"indexed": true,
					"internalType": "address",
					"name": "previousOwner",
					"type": "address"
				},
				{
					"indexed": true,
					"internalType": "address",
					"name": "newOwner",
					"type": "address"
				}
			],
			"name": "OwnershipTransferred",
			"type": "event"
		},
		{
			"anonymous": false,
			"inputs": [
				{
					"indexed": false,
					"internalType": "uint32",
					"name": "eid",
					"type": "uint32"
				},
				{
					"indexed": false,
					"internalType": "bytes32",
					"name": "peer",
					"type": "bytes32"
				}
			],
			"name": "PeerSet",
			"type": "event"
		},
		{
			"inputs": [
				{
					"components": [
						{
							"internalType": "uint32",
							"name": "srcEid",
							"type": "uint32"
						},
						{
							"internalType": "bytes32",
							"name": "sender",
							"type": "bytes32"
						},
						{
							"internalType": "uint64",
							"name": "nonce",
							"type": "uint64"
						}
					],
					"internalType": "struct Origin",
					"name": "origin",
					"type": "tuple"
				}
			],
			"name": "allowInitializePath",
			"outputs": [
				{
					"internalType": "bool",
					"name": "",
					"type": "bool"
				}
			],
			"stateMutability": "view",
			"type": "function"
		},
		{
			"inputs": [],
			"name": "callSenderEid",
			"outputs": [
				{
					"internalType": "uint32",
					"name": "",
					"type": "uint32"
				}
			],
			"stateMutability": "view",
			"type": "function"
		},
		{
			"inputs": [],
			"name": "cancelAllLimitOrders",
			"outputs": [],
			"stateMutability": "nonpayable",
			"type": "function"
		},
		{
			"inputs": [
				{
					"internalType": "uint256",
					"name": "orderId",
					"type": "uint256"
				}
			],
			"name": "cancelLimitOrder",
			"outputs": [],
			"stateMutability": "nonpayable",
			"type": "function"
		},
		{
			"inputs": [],
			"name": "composeMsgSender",
			"outputs": [
				{
					"internalType": "address",
					"name": "sender",
					"type": "address"
				}
			],
			"stateMutability": "view",
			"type": "function"
		},
		{
			"inputs": [],
			"name": "deployer",
			"outputs": [
				{
					"internalType": "address",
					"name": "",
					"type": "address"
				}
			],
			"stateMutability": "view",
			"type": "function"
		},
		{
			"inputs": [],
			"name": "endpoint",
			"outputs": [
				{
					"internalType": "contract ILayerZeroEndpointV2",
					"name": "",
					"type": "address"
				}
			],
			"stateMutability": "view",
			"type": "function"
		},
		{
			"inputs": [],
			"name": "getChainID",
			"outputs": [
				{
					"internalType": "uint256",
					"name": "",
					"type": "uint256"
				}
			],
			"stateMutability": "view",
			"type": "function"
		},
		{
			"inputs": [],
			"name": "inWrapper",
			"outputs": [
				{
					"internalType": "bool",
					"name": "",
					"type": "bool"
				}
			],
			"stateMutability": "view",
			"type": "function"
		},
		{
			"inputs": [
				{
					"components": [
						{
							"internalType": "uint32",
							"name": "srcEid",
							"type": "uint32"
						},
						{
							"internalType": "bytes32",
							"name": "sender",
							"type": "bytes32"
						},
						{
							"internalType": "uint64",
							"name": "nonce",
							"type": "uint64"
						}
					],
					"internalType": "struct Origin",
					"name": "_origin",
					"type": "tuple"
				},
				{
					"internalType": "bytes32",
					"name": "_guid",
					"type": "bytes32"
				},
				{
					"internalType": "bytes",
					"name": "_message",
					"type": "bytes"
				},
				{
					"internalType": "address",
					"name": "_executor",
					"type": "address"
				},
				{
					"internalType": "bytes",
					"name": "_extraData",
					"type": "bytes"
				}
			],
			"name": "lzReceive",
			"outputs": [],
			"stateMutability": "payable",
			"type": "function"
		},
		{
			"inputs": [
				{
					"internalType": "uint32",
					"name": "",
					"type": "uint32"
				},
				{
					"internalType": "bytes32",
					"name": "",
					"type": "bytes32"
				}
			],
			"name": "nextNonce",
			"outputs": [
				{
					"internalType": "uint64",
					"name": "nonce",
					"type": "uint64"
				}
			],
			"stateMutability": "view",
			"type": "function"
		},
		{
			"inputs": [],
			"name": "oAppVersion",
			"outputs": [
				{
					"internalType": "uint64",
					"name": "senderVersion",
					"type": "uint64"
				},
				{
					"internalType": "uint64",
					"name": "receiverVersion",
					"type": "uint64"
				}
			],
			"stateMutability": "pure",
			"type": "function"
		},
		{
			"inputs": [],
			"name": "owner",
			"outputs": [
				{
					"internalType": "address",
					"name": "",
					"type": "address"
				}
			],
			"stateMutability": "view",
			"type": "function"
		},
		{
			"inputs": [
				{
					"internalType": "uint32",
					"name": "eid",
					"type": "uint32"
				}
			],
			"name": "peers",
			"outputs": [
				{
					"internalType": "bytes32",
					"name": "peer",
					"type": "bytes32"
				}
			],
			"stateMutability": "view",
			"type": "function"
		},
		{
			"inputs": [
				{
					"internalType": "uint256",
					"name": "orderType",
					"type": "uint256"
				},
				{
					"internalType": "address",
					"name": "token0",
					"type": "address"
				},
				{
					"internalType": "address",
					"name": "token1",
					"type": "address"
				},
				{
					"internalType": "uint256",
					"name": "amount",
					"type": "uint256"
				},
				{
					"internalType": "uint256",
					"name": "price",
					"type": "uint256"
				},
				{
					"internalType": "address",
					"name": "user",
					"type": "address"
				},
				{
					"internalType": "uint32",
					"name": "userEid",
					"type": "uint32"
				}
			],
			"name": "placeLimitOrder",
			"outputs": [],
			"stateMutability": "payable",
			"type": "function"
		},
		{
			"inputs": [
				{
					"internalType": "uint256",
					"name": "orderType",
					"type": "uint256"
				},
				{
					"internalType": "address",
					"name": "token0",
					"type": "address"
				},
				{
					"internalType": "address",
					"name": "token1",
					"type": "address"
				},
				{
					"internalType": "uint256",
					"name": "amount",
					"type": "uint256"
				}
			],
			"name": "placeMarketOrder",
			"outputs": [],
			"stateMutability": "nonpayable",
			"type": "function"
		},
		{
			"inputs": [],
			"name": "renounceOwnership",
			"outputs": [],
			"stateMutability": "nonpayable",
			"type": "function"
		},
		{
			"inputs": [
				{
					"internalType": "uint256",
					"name": "index",
					"type": "uint256"
				}
			],
			"name": "retrieveLimitOrder",
			"outputs": [
				{
					"components": [
						{
							"internalType": "uint256",
							"name": "id",
							"type": "uint256"
						},
						{
							"internalType": "address",
							"name": "user",
							"type": "address"
						},
						{
							"internalType": "uint256",
							"name": "orderType",
							"type": "uint256"
						},
						{
							"internalType": "address",
							"name": "token0",
							"type": "address"
						},
						{
							"internalType": "address",
							"name": "token1",
							"type": "address"
						},
						{
							"internalType": "uint256",
							"name": "amount",
							"type": "uint256"
						},
						{
							"internalType": "uint256",
							"name": "price",
							"type": "uint256"
						},
						{
							"internalType": "bool",
							"name": "isFilled",
							"type": "bool"
						},
						{
							"internalType": "bool",
							"name": "isCanceled",
							"type": "bool"
						}
					],
					"internalType": "struct IOrderMatcherWrapper.Order",
					"name": "",
					"type": "tuple"
				}
			],
			"stateMutability": "view",
			"type": "function"
		},
		{
			"inputs": [],
			"name": "rustContractAddress",
			"outputs": [
				{
					"internalType": "address",
					"name": "",
					"type": "address"
				}
			],
			"stateMutability": "view",
			"type": "function"
		},
		{
			"inputs": [
				{
					"internalType": "address",
					"name": "_delegate",
					"type": "address"
				}
			],
			"name": "setDelegate",
			"outputs": [],
			"stateMutability": "nonpayable",
			"type": "function"
		},
		{
			"inputs": [
				{
					"internalType": "uint32",
					"name": "_eid",
					"type": "uint32"
				},
				{
					"internalType": "bytes32",
					"name": "_peer",
					"type": "bytes32"
				}
			],
			"name": "setPeer",
			"outputs": [],
			"stateMutability": "nonpayable",
			"type": "function"
		},
		{
			"inputs": [
				{
					"internalType": "address",
					"name": "_rustContractAddress",
					"type": "address"
				}
			],
			"name": "setRustContractAddress",
			"outputs": [],
			"stateMutability": "nonpayable",
			"type": "function"
		},
		{
			"inputs": [],
			"name": "setTrue",
			"outputs": [
				{
					"internalType": "bool",
					"name": "",
					"type": "bool"
				}
			],
			"stateMutability": "view",
			"type": "function"
		},
		{
			"inputs": [
				{
					"internalType": "address",
					"name": "newOwner",
					"type": "address"
				}
			],
			"name": "transferOwnership",
			"outputs": [],
			"stateMutability": "nonpayable",
			"type": "function"
		}
	]
}