{
	"data": {
		"bytecode": {
			"linkReferences": {},
			"object": "60a0604052619d2760025f6101000a81548163ffffffff021916908363ffffffff160217905550348015610031575f80fd5b506040516123b23803806123b2833981810160405281019061005391906103e1565b84818181845f73ffffffffffffffffffffffffffffffffffffffff168173ffffffffffffffffffffffffffffffffffffffff16036100c8575f6040517f1e4fbdf70000000000000000000000000000000000000000000000000000000081526004016100bf9190610467565b60405180910390fd5b6100d78161028960201b60201c565b508173ffffffffffffffffffffffffffffffffffffffff1660808173ffffffffffffffffffffffffffffffffffffffff16815250505f73ffffffffffffffffffffffffffffffffffffffff168173ffffffffffffffffffffffffffffffffffffffff1603610171576040517fb586360400000000000000000000000000000000000000000000000000000000815260040160405180910390fd5b60805173ffffffffffffffffffffffffffffffffffffffff1663ca5eb5e1826040518263ffffffff1660e01b81526004016101ac9190610467565b5f604051808303815f87803b1580156101c3575f80fd5b505af11580156101d5573d5f803e3d5ffd5b505050505050505083600260086101000a81548173ffffffffffffffffffffffffffffffffffffffff021916908373ffffffffffffffffffffffffffffffffffffffff1602179055508260035f6101000a81548173ffffffffffffffffffffffffffffffffffffffff021916908373ffffffffffffffffffffffffffffffffffffffff16021790555081600260046101000a81548163ffffffff021916908363ffffffff1602179055505050505050610480565b5f805f9054906101000a900473ffffffffffffffffffffffffffffffffffffffff169050815f806101000a81548173ffffffffffffffffffffffffffffffffffffffff021916908373ffffffffffffffffffffffffffffffffffffffff1602179055508173ffffffffffffffffffffffffffffffffffffffff168173ffffffffffffffffffffffffffffffffffffffff167f8be0079c531659141344cd1fd0a4f28419497f9722a3daafe3b4186f6b6457e060405160405180910390a35050565b5f80fd5b5f73ffffffffffffffffffffffffffffffffffffffff82169050919050565b5f6103778261034e565b9050919050565b6103878161036d565b8114610391575f80fd5b50565b5f815190506103a28161037e565b92915050565b5f63ffffffff82169050919050565b6103c0816103a8565b81146103ca575f80fd5b50565b5f815190506103db816103b7565b92915050565b5f805f805f60a086880312156103fa576103f961034a565b5b5f61040788828901610394565b955050602061041888828901610394565b945050604061042988828901610394565b935050606061043a888289016103cd565b925050608061044b88828901610394565b9150509295509295909350565b6104618161036d565b82525050565b5f60208201905061047a5f830184610458565b92915050565b608051611ef76104bb5f395f81816104ea015281816106810152818161088801528181610c2901528181610d630152610e5b0152611ef75ff3fe608060405260043610610134575f3560e01c80637d25a05e116100aa578063b92d0eff1161006e578063b92d0eff146103b1578063bb0b6a53146103db578063ca5eb5e114610417578063d270e7ab1461043f578063f2fde38b14610469578063ff7bd03d1461049157610134565b80637d25a05e146102dd5780638da5cb5b146103195780639d17a68814610343578063aa300b8b1461036b578063b6ae5ba81461039557610134565b8063416ecebf116100fc578063416ecebf146101f75780635e280f1114610221578063715018a61461024b57806372cb40751461026157806373d4a13a1461028b57806379063cd4146102b557610134565b8063024ec13d1461013857806313137d651461016057806317442b701461017c5780633400288b146101a75780633486f756146101cf575b5f80fd5b348015610143575f80fd5b5061015e600480360381019061015991906111fa565b6104cd565b005b61017a60048036038101906101759190611348565b6104d1565b005b348015610187575f80fd5b506101906105f1565b60405161019e929190611421565b60405180910390f35b3480156101b2575f80fd5b506101cd60048036038101906101c89190611481565b6105fe565b005b3480156101da575f80fd5b506101f560048036038101906101f091906111fa565b610665565b005b348015610202575f80fd5b5061020b610669565b60405161021891906114ce565b60405180910390f35b34801561022c575f80fd5b5061023561067f565b6040516102429190611542565b60405180910390f35b348015610256575f80fd5b5061025f6106a3565b005b34801561026c575f80fd5b506102756106b6565b604051610282919061156a565b60405180910390f35b348015610296575f80fd5b5061029f6106db565b6040516102ac91906115f3565b60405180910390f35b3480156102c0575f80fd5b506102db60048036038101906102d69190611613565b610767565b005b3480156102e8575f80fd5b5061030360048036038101906102fe9190611481565b61076a565b604051610310919061163e565b60405180910390f35b348015610324575f80fd5b5061032d610771565b60405161033a919061156a565b60405180910390f35b34801561034e575f80fd5b5061036960048036038101906103649190611657565b610798565b005b348015610376575f80fd5b5061037f61079f565b60405161038c91906114ce565b60405180910390f35b6103af60048036038101906103aa91906116ce565b6107b4565b005b3480156103bc575f80fd5b506103c5610862565b6040516103d2919061156a565b60405180910390f35b3480156103e6575f80fd5b5061040160048036038101906103fc919061178b565b610869565b60405161040e91906117c5565b60405180910390f35b348015610422575f80fd5b5061043d600480360381019061043891906117de565b61087e565b005b34801561044a575f80fd5b5061045361090f565b6040516104609190611829565b60405180910390f35b348015610474575f80fd5b5061048f600480360381019061048a91906117de565b610935565b005b34801561049c575f80fd5b506104b760048036038101906104b29190611842565b6109b9565b6040516104c49190611887565b60405180910390f35b5050565b3373ffffffffffffffffffffffffffffffffffffffff167f000000000000000000000000000000000000000000000000000000000000000073ffffffffffffffffffffffffffffffffffffffff161461056157336040517f91ac5e4f000000000000000000000000000000000000000000000000000000008152600401610558919061156a565b60405180910390fd5b8660200135610580885f01602081019061057b919061178b565b6109f6565b146105d957865f016020810190610597919061178b565b87602001356040517fc26bebcc0000000000000000000000000000000000000000000000000000000081526004016105d09291906118a0565b60405180910390fd5b6105e887878787878787610a67565b50505050505050565b5f80600180915091509091565b610606610aae565b8060015f8463ffffffff1663ffffffff1681526020019081526020015f20819055507f238399d427b947898edb290f5ff0f9109849b1c3ba196a42e35f00c50a54b98b82826040516106599291906118a0565b60405180910390a15050565b5050565b600260049054906101000a900463ffffffff1681565b7f000000000000000000000000000000000000000000000000000000000000000081565b6106ab610aae565b6106b45f610b35565b565b60035f9054906101000a900473ffffffffffffffffffffffffffffffffffffffff1681565b600480546106e8906118f4565b80601f0160208091040260200160405190810160405280929190818152602001828054610714906118f4565b801561075f5780601f106107365761010080835404028352916020019161075f565b820191905f5260205f20905b81548152906001019060200180831161074257829003601f168201915b505050505081565b50565b5f92915050565b5f805f9054906101000a900473ffffffffffffffffffffffffffffffffffffffff16905090565b5050505050565b60025f9054906101000a900463ffffffff1681565b5f8389898989896040516020016107d09695949392919061197d565b604051602081830303815290604052905061085660025f9054906101000a900463ffffffff168285858080601f0160208091040260200160405190810160405280939291908181526020018383808284375f81840152601f19601f8201169050808301925050505050505060405180604001604052803481526020015f81525088610bf6565b50505050505050505050565b5f30905090565b6001602052805f5260405f205f915090505481565b610886610aae565b7f000000000000000000000000000000000000000000000000000000000000000073ffffffffffffffffffffffffffffffffffffffff1663ca5eb5e1826040518263ffffffff1660e01b81526004016108df919061156a565b5f604051808303815f87803b1580156108f6575f80fd5b505af1158015610908573d5f803e3d5ffd5b5050505050565b600260089054906101000a900473ffffffffffffffffffffffffffffffffffffffff1681565b61093d610aae565b5f73ffffffffffffffffffffffffffffffffffffffff168173ffffffffffffffffffffffffffffffffffffffff16036109ad575f6040517f1e4fbdf70000000000000000000000000000000000000000000000000000000081526004016109a4919061156a565b60405180910390fd5b6109b681610b35565b50565b5f816020013560015f845f0160208101906109d4919061178b565b63ffffffff1663ffffffff1681526020019081526020015f2054149050919050565b5f8060015f8463ffffffff1663ffffffff1681526020019081526020015f205490505f801b8103610a5e57826040517ff6ff4fb7000000000000000000000000000000000000000000000000000000008152600401610a5591906114ce565b60405180910390fd5b80915050919050565b5f875f016020810190610a7a919061178b565b90505f886020013590505f805f808a8a810190610a979190611a5d565b935093509350935050505050505050505050505050565b610ab6610d0c565b73ffffffffffffffffffffffffffffffffffffffff16610ad4610771565b73ffffffffffffffffffffffffffffffffffffffff1614610b3357610af7610d0c565b6040517f118cdaa7000000000000000000000000000000000000000000000000000000008152600401610b2a919061156a565b60405180910390fd5b565b5f805f9054906101000a900473ffffffffffffffffffffffffffffffffffffffff169050815f806101000a81548173ffffffffffffffffffffffffffffffffffffffff021916908373ffffffffffffffffffffffffffffffffffffffff1602179055508173ffffffffffffffffffffffffffffffffffffffff168173ffffffffffffffffffffffffffffffffffffffff167f8be0079c531659141344cd1fd0a4f28419497f9722a3daafe3b4186f6b6457e060405160405180910390a35050565b610bfe61116c565b5f610c0b845f0151610d13565b90505f84602001511115610c2757610c268460200151610d60565b5b7f000000000000000000000000000000000000000000000000000000000000000073ffffffffffffffffffffffffffffffffffffffff16632637a450826040518060a001604052808b63ffffffff168152602001610c848c6109f6565b81526020018a81526020018981526020015f8960200151111515815250866040518463ffffffff1660e01b8152600401610cbf929190611bba565b60806040518083038185885af1158015610cdb573d5f803e3d5ffd5b50505050506040513d601f19601f82011682018060405250810190610d009190611d64565b91505095945050505050565b5f33905090565b5f813414610d5857346040517f9f704120000000000000000000000000000000000000000000000000000000008152600401610d4f9190611d8f565b60405180910390fd5b819050919050565b5f7f000000000000000000000000000000000000000000000000000000000000000073ffffffffffffffffffffffffffffffffffffffff1663e4fe1d946040518163ffffffff1660e01b8152600401602060405180830381865afa158015610dca573d5f803e3d5ffd5b505050506040513d601f19601f82011682018060405250810190610dee9190611dbc565b90505f73ffffffffffffffffffffffffffffffffffffffff168173ffffffffffffffffffffffffffffffffffffffff1603610e55576040517f5373352a00000000000000000000000000000000000000000000000000000000815260040160405180910390fd5b610ea2337f0000000000000000000000000000000000000000000000000000000000000000848473ffffffffffffffffffffffffffffffffffffffff16610ea6909392919063ffffffff16565b5050565b610f22848573ffffffffffffffffffffffffffffffffffffffff166323b872dd868686604051602401610edb93929190611de7565b604051602081830303815290604052915060e01b6020820180517bffffffffffffffffffffffffffffffffffffffffffffffffffffffff8381831617835250505050610f28565b50505050565b5f610f52828473ffffffffffffffffffffffffffffffffffffffff16610fbd90919063ffffffff16565b90505f815114158015610f76575080806020019051810190610f749190611e46565b155b15610fb857826040517f5274afe7000000000000000000000000000000000000000000000000000000008152600401610faf919061156a565b60405180910390fd5b505050565b6060610fca83835f610fd2565b905092915050565b60608147101561101957306040517fcd786059000000000000000000000000000000000000000000000000000000008152600401611010919061156a565b60405180910390fd5b5f808573ffffffffffffffffffffffffffffffffffffffff1684866040516110419190611eab565b5f6040518083038185875af1925050503d805f811461107b576040519150601f19603f3d011682016040523d82523d5f602084013e611080565b606091505b509150915061109086838361109b565b925050509392505050565b6060826110b0576110ab82611128565b611120565b5f82511480156110d657505f8473ffffffffffffffffffffffffffffffffffffffff163b145b1561111857836040517f9996b31500000000000000000000000000000000000000000000000000000000815260040161110f919061156a565b60405180910390fd5b819050611121565b5b9392505050565b5f8151111561113a5780518082602001fd5b6040517f1425ea4200000000000000000000000000000000000000000000000000000000815260040160405180910390fd5b60405180606001604052805f80191681526020015f67ffffffffffffffff16815260200161119861119e565b81525090565b60405180604001604052805f81526020015f81525090565b5f604051905090565b5f80fd5b5f80fd5b5f819050919050565b6111d9816111c7565b81146111e3575f80fd5b50565b5f813590506111f4816111d0565b92915050565b5f80604083850312156112105761120f6111bf565b5b5f61121d858286016111e6565b925050602061122e858286016111e6565b9150509250929050565b5f80fd5b5f6060828403121561125157611250611238565b5b81905092915050565b5f819050919050565b61126c8161125a565b8114611276575f80fd5b50565b5f8135905061128781611263565b92915050565b5f80fd5b5f80fd5b5f80fd5b5f8083601f8401126112ae576112ad61128d565b5b8235905067ffffffffffffffff8111156112cb576112ca611291565b5b6020830191508360018202830111156112e7576112e6611295565b5b9250929050565b5f73ffffffffffffffffffffffffffffffffffffffff82169050919050565b5f611317826112ee565b9050919050565b6113278161130d565b8114611331575f80fd5b50565b5f813590506113428161131e565b92915050565b5f805f805f805f60e0888a031215611363576113626111bf565b5b5f6113708a828b0161123c565b97505060606113818a828b01611279565b965050608088013567ffffffffffffffff8111156113a2576113a16111c3565b5b6113ae8a828b01611299565b955095505060a06113c18a828b01611334565b93505060c088013567ffffffffffffffff8111156113e2576113e16111c3565b5b6113ee8a828b01611299565b925092505092959891949750929550565b5f67ffffffffffffffff82169050919050565b61141b816113ff565b82525050565b5f6040820190506114345f830185611412565b6114416020830184611412565b9392505050565b5f63ffffffff82169050919050565b61146081611448565b811461146a575f80fd5b50565b5f8135905061147b81611457565b92915050565b5f8060408385031215611497576114966111bf565b5b5f6114a48582860161146d565b92505060206114b585828601611279565b9150509250929050565b6114c881611448565b82525050565b5f6020820190506114e15f8301846114bf565b92915050565b5f819050919050565b5f61150a611505611500846112ee565b6114e7565b6112ee565b9050919050565b5f61151b826114f0565b9050919050565b5f61152c82611511565b9050919050565b61153c81611522565b82525050565b5f6020820190506115555f830184611533565b92915050565b6115648161130d565b82525050565b5f60208201905061157d5f83018461155b565b92915050565b5f81519050919050565b5f82825260208201905092915050565b8281835e5f83830152505050565b5f601f19601f8301169050919050565b5f6115c582611583565b6115cf818561158d565b93506115df81856020860161159d565b6115e8816115ab565b840191505092915050565b5f6020820190508181035f83015261160b81846115bb565b905092915050565b5f60208284031215611628576116276111bf565b5b5f611635848285016111e6565b91505092915050565b5f6020820190506116515f830184611412565b92915050565b5f805f805f60a086880312156116705761166f6111bf565b5b5f61167d888289016111e6565b955050602061168e88828901611334565b945050604061169f88828901611334565b93505060606116b0888289016111e6565b92505060806116c1888289016111e6565b9150509295509295909350565b5f805f805f805f8060e0898b0312156116ea576116e96111bf565b5b5f6116f78b828c016111e6565b98505060206117088b828c01611334565b97505060406117198b828c01611334565b965050606061172a8b828c016111e6565b955050608061173b8b828c016111e6565b94505060a061174c8b828c01611334565b93505060c089013567ffffffffffffffff81111561176d5761176c6111c3565b5b6117798b828c01611299565b92509250509295985092959890939650565b5f602082840312156117a05761179f6111bf565b5b5f6117ad8482850161146d565b91505092915050565b6117bf8161125a565b82525050565b5f6020820190506117d85f8301846117b6565b92915050565b5f602082840312156117f3576117f26111bf565b5b5f61180084828501611334565b91505092915050565b5f61181382611511565b9050919050565b61182381611809565b82525050565b5f60208201905061183c5f83018461181a565b92915050565b5f60608284031215611857576118566111bf565b5b5f6118648482850161123c565b91505092915050565b5f8115159050919050565b6118818161186d565b82525050565b5f60208201905061189a5f830184611878565b92915050565b5f6040820190506118b35f8301856114bf565b6118c060208301846117b6565b9392505050565b7f4e487b71000000000000000000000000000000000000000000000000000000005f52602260045260245ffd5b5f600282049050600182168061190b57607f821691505b60208210810361191e5761191d6118c7565b5b50919050565b61192d816111c7565b82525050565b7f4c494d49545f4f524445520000000000000000000000000000000000000000005f82015250565b5f611967600b8361158d565b915061197282611933565b602082019050919050565b5f60e0820190506119905f83018961155b565b61199d6020830188611924565b81810360408301526119ae8161195b565b90506119bd606083018761155b565b6119ca608083018661155b565b6119d760a0830185611924565b6119e460c0830184611924565b979650505050505050565b5f6119f9826112ee565b9050919050565b611a09816119ef565b8114611a13575f80fd5b50565b5f81359050611a2481611a00565b92915050565b5f819050919050565b611a3c81611a2a565b8114611a46575f80fd5b50565b5f81359050611a5781611a33565b92915050565b5f805f8060808587031215611a7557611a746111bf565b5b5f611a8287828801611a16565b9450506020611a9387828801611a16565b9350506040611aa487828801611a49565b9250506060611ab587828801611a49565b91505092959194509250565b611aca81611448565b82525050565b611ad98161125a565b82525050565b5f81519050919050565b5f82825260208201905092915050565b5f611b0382611adf565b611b0d8185611ae9565b9350611b1d81856020860161159d565b611b26816115ab565b840191505092915050565b611b3a8161186d565b82525050565b5f60a083015f830151611b555f860182611ac1565b506020830151611b686020860182611ad0565b5060408301518482036040860152611b808282611af9565b91505060608301518482036060860152611b9a8282611af9565b9150506080830151611baf6080860182611b31565b508091505092915050565b5f6040820190508181035f830152611bd28185611b40565b9050611be1602083018461155b565b9392505050565b5f80fd5b7f4e487b71000000000000000000000000000000000000000000000000000000005f52604160045260245ffd5b611c22826115ab565b810181811067ffffffffffffffff82111715611c4157611c40611bec565b5b80604052505050565b5f611c536111b6565b9050611c5f8282611c19565b919050565b5f81519050611c7281611263565b92915050565b611c81816113ff565b8114611c8b575f80fd5b50565b5f81519050611c9c81611c78565b92915050565b5f81519050611cb0816111d0565b92915050565b5f60408284031215611ccb57611cca611be8565b5b611cd56040611c4a565b90505f611ce484828501611ca2565b5f830152506020611cf784828501611ca2565b60208301525092915050565b5f60808284031215611d1857611d17611be8565b5b611d226060611c4a565b90505f611d3184828501611c64565b5f830152506020611d4484828501611c8e565b6020830152506040611d5884828501611cb6565b60408301525092915050565b5f60808284031215611d7957611d786111bf565b5b5f611d8684828501611d03565b91505092915050565b5f602082019050611da25f830184611924565b92915050565b5f81519050611db68161131e565b92915050565b5f60208284031215611dd157611dd06111bf565b5b5f611dde84828501611da8565b91505092915050565b5f606082019050611dfa5f83018661155b565b611e07602083018561155b565b611e146040830184611924565b949350505050565b611e258161186d565b8114611e2f575f80fd5b50565b5f81519050611e4081611e1c565b92915050565b5f60208284031215611e5b57611e5a6111bf565b5b5f611e6884828501611e32565b91505092915050565b5f81905092915050565b5f611e8582611adf565b611e8f8185611e71565b9350611e9f81856020860161159d565b80840191505092915050565b5f611eb68284611e7b565b91508190509291505056fea264697066735822122028e9e385a91afc8f921c30e5cf892e4860969d87c76d9af0197ad66407bd2b4b64736f6c63430008190033",
			"opcodes": "PUSH1 0xA0 PUSH1 0x40 MSTORE PUSH2 0x9D27 PUSH1 0x2 PUSH0 PUSH2 0x100 EXP DUP2 SLOAD DUP2 PUSH4 0xFFFFFFFF MUL NOT AND SWAP1 DUP4 PUSH4 0xFFFFFFFF AND MUL OR SWAP1 SSTORE POP CALLVALUE DUP1 ISZERO PUSH2 0x31 JUMPI PUSH0 DUP1 REVERT JUMPDEST POP PUSH1 0x40 MLOAD PUSH2 0x23B2 CODESIZE SUB DUP1 PUSH2 0x23B2 DUP4 CODECOPY DUP2 DUP2 ADD PUSH1 0x40 MSTORE DUP2 ADD SWAP1 PUSH2 0x53 SWAP2 SWAP1 PUSH2 0x3E1 JUMP JUMPDEST DUP5 DUP2 DUP2 DUP2 DUP5 PUSH0 PUSH20 0xFFFFFFFFFFFFFFFFFFFFFFFFFFFFFFFFFFFFFFFF AND DUP2 PUSH20 0xFFFFFFFFFFFFFFFFFFFFFFFFFFFFFFFFFFFFFFFF AND SUB PUSH2 0xC8 JUMPI PUSH0 PUSH1 0x40 MLOAD PUSH32 0x1E4FBDF700000000000000000000000000000000000000000000000000000000 DUP2 MSTORE PUSH1 0x4 ADD PUSH2 0xBF SWAP2 SWAP1 PUSH2 0x467 JUMP JUMPDEST PUSH1 0x40 MLOAD DUP1 SWAP2 SUB SWAP1 REVERT JUMPDEST PUSH2 0xD7 DUP2 PUSH2 0x289 PUSH1 0x20 SHL PUSH1 0x20 SHR JUMP JUMPDEST POP DUP2 PUSH20 0xFFFFFFFFFFFFFFFFFFFFFFFFFFFFFFFFFFFFFFFF AND PUSH1 0x80 DUP2 PUSH20 0xFFFFFFFFFFFFFFFFFFFFFFFFFFFFFFFFFFFFFFFF AND DUP2 MSTORE POP POP PUSH0 PUSH20 0xFFFFFFFFFFFFFFFFFFFFFFFFFFFFFFFFFFFFFFFF AND DUP2 PUSH20 0xFFFFFFFFFFFFFFFFFFFFFFFFFFFFFFFFFFFFFFFF AND SUB PUSH2 0x171 JUMPI PUSH1 0x40 MLOAD PUSH32 0xB586360400000000000000000000000000000000000000000000000000000000 DUP2 MSTORE PUSH1 0x4 ADD PUSH1 0x40 MLOAD DUP1 SWAP2 SUB SWAP1 REVERT JUMPDEST PUSH1 0x80 MLOAD PUSH20 0xFFFFFFFFFFFFFFFFFFFFFFFFFFFFFFFFFFFFFFFF AND PUSH4 0xCA5EB5E1 DUP3 PUSH1 0x40 MLOAD DUP3 PUSH4 0xFFFFFFFF AND PUSH1 0xE0 SHL DUP2 MSTORE PUSH1 0x4 ADD PUSH2 0x1AC SWAP2 SWAP1 PUSH2 0x467 JUMP JUMPDEST PUSH0 PUSH1 0x40 MLOAD DUP1 DUP4 SUB DUP2 PUSH0 DUP8 DUP1 EXTCODESIZE ISZERO DUP1 ISZERO PUSH2 0x1C3 JUMPI PUSH0 DUP1 REVERT JUMPDEST POP GAS CALL ISZERO DUP1 ISZERO PUSH2 0x1D5 JUMPI RETURNDATASIZE PUSH0 DUP1 RETURNDATACOPY RETURNDATASIZE PUSH0 REVERT JUMPDEST POP POP POP POP POP POP POP POP DUP4 PUSH1 0x2 PUSH1 0x8 PUSH2 0x100 EXP DUP2 SLOAD DUP2 PUSH20 0xFFFFFFFFFFFFFFFFFFFFFFFFFFFFFFFFFFFFFFFF MUL NOT AND SWAP1 DUP4 PUSH20 0xFFFFFFFFFFFFFFFFFFFFFFFFFFFFFFFFFFFFFFFF AND MUL OR SWAP1 SSTORE POP DUP3 PUSH1 0x3 PUSH0 PUSH2 0x100 EXP DUP2 SLOAD DUP2 PUSH20 0xFFFFFFFFFFFFFFFFFFFFFFFFFFFFFFFFFFFFFFFF MUL NOT AND SWAP1 DUP4 PUSH20 0xFFFFFFFFFFFFFFFFFFFFFFFFFFFFFFFFFFFFFFFF AND MUL OR SWAP1 SSTORE POP DUP2 PUSH1 0x2 PUSH1 0x4 PUSH2 0x100 EXP DUP2 SLOAD DUP2 PUSH4 0xFFFFFFFF MUL NOT AND SWAP1 DUP4 PUSH4 0xFFFFFFFF AND MUL OR SWAP1 SSTORE POP POP POP POP POP POP PUSH2 0x480 JUMP JUMPDEST PUSH0 DUP1 PUSH0 SWAP1 SLOAD SWAP1 PUSH2 0x100 EXP SWAP1 DIV PUSH20 0xFFFFFFFFFFFFFFFFFFFFFFFFFFFFFFFFFFFFFFFF AND SWAP1 POP DUP2 PUSH0 DUP1 PUSH2 0x100 EXP DUP2 SLOAD DUP2 PUSH20 0xFFFFFFFFFFFFFFFFFFFFFFFFFFFFFFFFFFFFFFFF MUL NOT AND SWAP1 DUP4 PUSH20 0xFFFFFFFFFFFFFFFFFFFFFFFFFFFFFFFFFFFFFFFF AND MUL OR SWAP1 SSTORE POP DUP2 PUSH20 0xFFFFFFFFFFFFFFFFFFFFFFFFFFFFFFFFFFFFFFFF AND DUP2 PUSH20 0xFFFFFFFFFFFFFFFFFFFFFFFFFFFFFFFFFFFFFFFF AND PUSH32 0x8BE0079C531659141344CD1FD0A4F28419497F9722A3DAAFE3B4186F6B6457E0 PUSH1 0x40 MLOAD PUSH1 0x40 MLOAD DUP1 SWAP2 SUB SWAP1 LOG3 POP POP JUMP JUMPDEST PUSH0 DUP1 REVERT JUMPDEST PUSH0 PUSH20 0xFFFFFFFFFFFFFFFFFFFFFFFFFFFFFFFFFFFFFFFF DUP3 AND SWAP1 POP SWAP2 SWAP1 POP JUMP JUMPDEST PUSH0 PUSH2 0x377 DUP3 PUSH2 0x34E JUMP JUMPDEST SWAP1 POP SWAP2 SWAP1 POP JUMP JUMPDEST PUSH2 0x387 DUP2 PUSH2 0x36D JUMP JUMPDEST DUP2 EQ PUSH2 0x391 JUMPI PUSH0 DUP1 REVERT JUMPDEST POP JUMP JUMPDEST PUSH0 DUP2 MLOAD SWAP1 POP PUSH2 0x3A2 DUP2 PUSH2 0x37E JUMP JUMPDEST SWAP3 SWAP2 POP POP JUMP JUMPDEST PUSH0 PUSH4 0xFFFFFFFF DUP3 AND SWAP1 POP SWAP2 SWAP1 POP JUMP JUMPDEST PUSH2 0x3C0 DUP2 PUSH2 0x3A8 JUMP JUMPDEST DUP2 EQ PUSH2 0x3CA JUMPI PUSH0 DUP1 REVERT JUMPDEST POP JUMP JUMPDEST PUSH0 DUP2 MLOAD SWAP1 POP PUSH2 0x3DB DUP2 PUSH2 0x3B7 JUMP JUMPDEST SWAP3 SWAP2 POP POP JUMP JUMPDEST PUSH0 DUP1 PUSH0 DUP1 PUSH0 PUSH1 0xA0 DUP7 DUP9 SUB SLT ISZERO PUSH2 0x3FA JUMPI PUSH2 0x3F9 PUSH2 0x34A JUMP JUMPDEST JUMPDEST PUSH0 PUSH2 0x407 DUP9 DUP3 DUP10 ADD PUSH2 0x394 JUMP JUMPDEST SWAP6 POP POP PUSH1 0x20 PUSH2 0x418 DUP9 DUP3 DUP10 ADD PUSH2 0x394 JUMP JUMPDEST SWAP5 POP POP PUSH1 0x40 PUSH2 0x429 DUP9 DUP3 DUP10 ADD PUSH2 0x394 JUMP JUMPDEST SWAP4 POP POP PUSH1 0x60 PUSH2 0x43A DUP9 DUP3 DUP10 ADD PUSH2 0x3CD JUMP JUMPDEST SWAP3 POP POP PUSH1 0x80 PUSH2 0x44B DUP9 DUP3 DUP10 ADD PUSH2 0x394 JUMP JUMPDEST SWAP2 POP POP SWAP3 SWAP6 POP SWAP3 SWAP6 SWAP1 SWAP4 POP JUMP JUMPDEST PUSH2 0x461 DUP2 PUSH2 0x36D JUMP JUMPDEST DUP3 MSTORE POP POP JUMP JUMPDEST PUSH0 PUSH1 0x20 DUP3 ADD SWAP1 POP PUSH2 0x47A PUSH0 DUP4 ADD DUP5 PUSH2 0x458 JUMP JUMPDEST SWAP3 SWAP2 POP POP JUMP JUMPDEST PUSH1 0x80 MLOAD PUSH2 0x1EF7 PUSH2 0x4BB PUSH0 CODECOPY PUSH0 DUP2 DUP2 PUSH2 0x4EA ADD MSTORE DUP2 DUP2 PUSH2 0x681 ADD MSTORE DUP2 DUP2 PUSH2 0x888 ADD MSTORE DUP2 DUP2 PUSH2 0xC29 ADD MSTORE DUP2 DUP2 PUSH2 0xD63 ADD MSTORE PUSH2 0xE5B ADD MSTORE PUSH2 0x1EF7 PUSH0 RETURN INVALID PUSH1 0x80 PUSH1 0x40 MSTORE PUSH1 0x4 CALLDATASIZE LT PUSH2 0x134 JUMPI PUSH0 CALLDATALOAD PUSH1 0xE0 SHR DUP1 PUSH4 0x7D25A05E GT PUSH2 0xAA JUMPI DUP1 PUSH4 0xB92D0EFF GT PUSH2 0x6E JUMPI DUP1 PUSH4 0xB92D0EFF EQ PUSH2 0x3B1 JUMPI DUP1 PUSH4 0xBB0B6A53 EQ PUSH2 0x3DB JUMPI DUP1 PUSH4 0xCA5EB5E1 EQ PUSH2 0x417 JUMPI DUP1 PUSH4 0xD270E7AB EQ PUSH2 0x43F JUMPI DUP1 PUSH4 0xF2FDE38B EQ PUSH2 0x469 JUMPI DUP1 PUSH4 0xFF7BD03D EQ PUSH2 0x491 JUMPI PUSH2 0x134 JUMP JUMPDEST DUP1 PUSH4 0x7D25A05E EQ PUSH2 0x2DD JUMPI DUP1 PUSH4 0x8DA5CB5B EQ PUSH2 0x319 JUMPI DUP1 PUSH4 0x9D17A688 EQ PUSH2 0x343 JUMPI DUP1 PUSH4 0xAA300B8B EQ PUSH2 0x36B JUMPI DUP1 PUSH4 0xB6AE5BA8 EQ PUSH2 0x395 JUMPI PUSH2 0x134 JUMP JUMPDEST DUP1 PUSH4 0x416ECEBF GT PUSH2 0xFC JUMPI DUP1 PUSH4 0x416ECEBF EQ PUSH2 0x1F7 JUMPI DUP1 PUSH4 0x5E280F11 EQ PUSH2 0x221 JUMPI DUP1 PUSH4 0x715018A6 EQ PUSH2 0x24B JUMPI DUP1 PUSH4 0x72CB4075 EQ PUSH2 0x261 JUMPI DUP1 PUSH4 0x73D4A13A EQ PUSH2 0x28B JUMPI DUP1 PUSH4 0x79063CD4 EQ PUSH2 0x2B5 JUMPI PUSH2 0x134 JUMP JUMPDEST DUP1 PUSH4 0x24EC13D EQ PUSH2 0x138 JUMPI DUP1 PUSH4 0x13137D65 EQ PUSH2 0x160 JUMPI DUP1 PUSH4 0x17442B70 EQ PUSH2 0x17C JUMPI DUP1 PUSH4 0x3400288B EQ PUSH2 0x1A7 JUMPI DUP1 PUSH4 0x3486F756 EQ PUSH2 0x1CF JUMPI JUMPDEST PUSH0 DUP1 REVERT JUMPDEST CALLVALUE DUP1 ISZERO PUSH2 0x143 JUMPI PUSH0 DUP1 REVERT JUMPDEST POP PUSH2 0x15E PUSH1 0x4 DUP1 CALLDATASIZE SUB DUP2 ADD SWAP1 PUSH2 0x159 SWAP2 SWAP1 PUSH2 0x11FA JUMP JUMPDEST PUSH2 0x4CD JUMP JUMPDEST STOP JUMPDEST PUSH2 0x17A PUSH1 0x4 DUP1 CALLDATASIZE SUB DUP2 ADD SWAP1 PUSH2 0x175 SWAP2 SWAP1 PUSH2 0x1348 JUMP JUMPDEST PUSH2 0x4D1 JUMP JUMPDEST STOP JUMPDEST CALLVALUE DUP1 ISZERO PUSH2 0x187 JUMPI PUSH0 DUP1 REVERT JUMPDEST POP PUSH2 0x190 PUSH2 0x5F1 JUMP JUMPDEST PUSH1 0x40 MLOAD PUSH2 0x19E SWAP3 SWAP2 SWAP1 PUSH2 0x1421 JUMP JUMPDEST PUSH1 0x40 MLOAD DUP1 SWAP2 SUB SWAP1 RETURN JUMPDEST CALLVALUE DUP1 ISZERO PUSH2 0x1B2 JUMPI PUSH0 DUP1 REVERT JUMPDEST POP PUSH2 0x1CD PUSH1 0x4 DUP1 CALLDATASIZE SUB DUP2 ADD SWAP1 PUSH2 0x1C8 SWAP2 SWAP1 PUSH2 0x1481 JUMP JUMPDEST PUSH2 0x5FE JUMP JUMPDEST STOP JUMPDEST CALLVALUE DUP1 ISZERO PUSH2 0x1DA JUMPI PUSH0 DUP1 REVERT JUMPDEST POP PUSH2 0x1F5 PUSH1 0x4 DUP1 CALLDATASIZE SUB DUP2 ADD SWAP1 PUSH2 0x1F0 SWAP2 SWAP1 PUSH2 0x11FA JUMP JUMPDEST PUSH2 0x665 JUMP JUMPDEST STOP JUMPDEST CALLVALUE DUP1 ISZERO PUSH2 0x202 JUMPI PUSH0 DUP1 REVERT JUMPDEST POP PUSH2 0x20B PUSH2 0x669 JUMP JUMPDEST PUSH1 0x40 MLOAD PUSH2 0x218 SWAP2 SWAP1 PUSH2 0x14CE JUMP JUMPDEST PUSH1 0x40 MLOAD DUP1 SWAP2 SUB SWAP1 RETURN JUMPDEST CALLVALUE DUP1 ISZERO PUSH2 0x22C JUMPI PUSH0 DUP1 REVERT JUMPDEST POP PUSH2 0x235 PUSH2 0x67F JUMP JUMPDEST PUSH1 0x40 MLOAD PUSH2 0x242 SWAP2 SWAP1 PUSH2 0x1542 JUMP JUMPDEST PUSH1 0x40 MLOAD DUP1 SWAP2 SUB SWAP1 RETURN JUMPDEST CALLVALUE DUP1 ISZERO PUSH2 0x256 JUMPI PUSH0 DUP1 REVERT JUMPDEST POP PUSH2 0x25F PUSH2 0x6A3 JUMP JUMPDEST STOP JUMPDEST CALLVALUE DUP1 ISZERO PUSH2 0x26C JUMPI PUSH0 DUP1 REVERT JUMPDEST POP PUSH2 0x275 PUSH2 0x6B6 JUMP JUMPDEST PUSH1 0x40 MLOAD PUSH2 0x282 SWAP2 SWAP1 PUSH2 0x156A JUMP JUMPDEST PUSH1 0x40 MLOAD DUP1 SWAP2 SUB SWAP1 RETURN JUMPDEST CALLVALUE DUP1 ISZERO PUSH2 0x296 JUMPI PUSH0 DUP1 REVERT JUMPDEST POP PUSH2 0x29F PUSH2 0x6DB JUMP JUMPDEST PUSH1 0x40 MLOAD PUSH2 0x2AC SWAP2 SWAP1 PUSH2 0x15F3 JUMP JUMPDEST PUSH1 0x40 MLOAD DUP1 SWAP2 SUB SWAP1 RETURN JUMPDEST CALLVALUE DUP1 ISZERO PUSH2 0x2C0 JUMPI PUSH0 DUP1 REVERT JUMPDEST POP PUSH2 0x2DB PUSH1 0x4 DUP1 CALLDATASIZE SUB DUP2 ADD SWAP1 PUSH2 0x2D6 SWAP2 SWAP1 PUSH2 0x1613 JUMP JUMPDEST PUSH2 0x767 JUMP JUMPDEST STOP JUMPDEST CALLVALUE DUP1 ISZERO PUSH2 0x2E8 JUMPI PUSH0 DUP1 REVERT JUMPDEST POP PUSH2 0x303 PUSH1 0x4 DUP1 CALLDATASIZE SUB DUP2 ADD SWAP1 PUSH2 0x2FE SWAP2 SWAP1 PUSH2 0x1481 JUMP JUMPDEST PUSH2 0x76A JUMP JUMPDEST PUSH1 0x40 MLOAD PUSH2 0x310 SWAP2 SWAP1 PUSH2 0x163E JUMP JUMPDEST PUSH1 0x40 MLOAD DUP1 SWAP2 SUB SWAP1 RETURN JUMPDEST CALLVALUE DUP1 ISZERO PUSH2 0x324 JUMPI PUSH0 DUP1 REVERT JUMPDEST POP PUSH2 0x32D PUSH2 0x771 JUMP JUMPDEST PUSH1 0x40 MLOAD PUSH2 0x33A SWAP2 SWAP1 PUSH2 0x156A JUMP JUMPDEST PUSH1 0x40 MLOAD DUP1 SWAP2 SUB SWAP1 RETURN JUMPDEST CALLVALUE DUP1 ISZERO PUSH2 0x34E JUMPI PUSH0 DUP1 REVERT JUMPDEST POP PUSH2 0x369 PUSH1 0x4 DUP1 CALLDATASIZE SUB DUP2 ADD SWAP1 PUSH2 0x364 SWAP2 SWAP1 PUSH2 0x1657 JUMP JUMPDEST PUSH2 0x798 JUMP JUMPDEST STOP JUMPDEST CALLVALUE DUP1 ISZERO PUSH2 0x376 JUMPI PUSH0 DUP1 REVERT JUMPDEST POP PUSH2 0x37F PUSH2 0x79F JUMP JUMPDEST PUSH1 0x40 MLOAD PUSH2 0x38C SWAP2 SWAP1 PUSH2 0x14CE JUMP JUMPDEST PUSH1 0x40 MLOAD DUP1 SWAP2 SUB SWAP1 RETURN JUMPDEST PUSH2 0x3AF PUSH1 0x4 DUP1 CALLDATASIZE SUB DUP2 ADD SWAP1 PUSH2 0x3AA SWAP2 SWAP1 PUSH2 0x16CE JUMP JUMPDEST PUSH2 0x7B4 JUMP JUMPDEST STOP JUMPDEST CALLVALUE DUP1 ISZERO PUSH2 0x3BC JUMPI PUSH0 DUP1 REVERT JUMPDEST POP PUSH2 0x3C5 PUSH2 0x862 JUMP JUMPDEST PUSH1 0x40 MLOAD PUSH2 0x3D2 SWAP2 SWAP1 PUSH2 0x156A JUMP JUMPDEST PUSH1 0x40 MLOAD DUP1 SWAP2 SUB SWAP1 RETURN JUMPDEST CALLVALUE DUP1 ISZERO PUSH2 0x3E6 JUMPI PUSH0 DUP1 REVERT JUMPDEST POP PUSH2 0x401 PUSH1 0x4 DUP1 CALLDATASIZE SUB DUP2 ADD SWAP1 PUSH2 0x3FC SWAP2 SWAP1 PUSH2 0x178B JUMP JUMPDEST PUSH2 0x869 JUMP JUMPDEST PUSH1 0x40 MLOAD PUSH2 0x40E SWAP2 SWAP1 PUSH2 0x17C5 JUMP JUMPDEST PUSH1 0x40 MLOAD DUP1 SWAP2 SUB SWAP1 RETURN JUMPDEST CALLVALUE DUP1 ISZERO PUSH2 0x422 JUMPI PUSH0 DUP1 REVERT JUMPDEST POP PUSH2 0x43D PUSH1 0x4 DUP1 CALLDATASIZE SUB DUP2 ADD SWAP1 PUSH2 0x438 SWAP2 SWAP1 PUSH2 0x17DE JUMP JUMPDEST PUSH2 0x87E JUMP JUMPDEST STOP JUMPDEST CALLVALUE DUP1 ISZERO PUSH2 0x44A JUMPI PUSH0 DUP1 REVERT JUMPDEST POP PUSH2 0x453 PUSH2 0x90F JUMP JUMPDEST PUSH1 0x40 MLOAD PUSH2 0x460 SWAP2 SWAP1 PUSH2 0x1829 JUMP JUMPDEST PUSH1 0x40 MLOAD DUP1 SWAP2 SUB SWAP1 RETURN JUMPDEST CALLVALUE DUP1 ISZERO PUSH2 0x474 JUMPI PUSH0 DUP1 REVERT JUMPDEST POP PUSH2 0x48F PUSH1 0x4 DUP1 CALLDATASIZE SUB DUP2 ADD SWAP1 PUSH2 0x48A SWAP2 SWAP1 PUSH2 0x17DE JUMP JUMPDEST PUSH2 0x935 JUMP JUMPDEST STOP JUMPDEST CALLVALUE DUP1 ISZERO PUSH2 0x49C JUMPI PUSH0 DUP1 REVERT JUMPDEST POP PUSH2 0x4B7 PUSH1 0x4 DUP1 CALLDATASIZE SUB DUP2 ADD SWAP1 PUSH2 0x4B2 SWAP2 SWAP1 PUSH2 0x1842 JUMP JUMPDEST PUSH2 0x9B9 JUMP JUMPDEST PUSH1 0x40 MLOAD PUSH2 0x4C4 SWAP2 SWAP1 PUSH2 0x1887 JUMP JUMPDEST PUSH1 0x40 MLOAD DUP1 SWAP2 SUB SWAP1 RETURN JUMPDEST POP POP JUMP JUMPDEST CALLER PUSH20 0xFFFFFFFFFFFFFFFFFFFFFFFFFFFFFFFFFFFFFFFF AND PUSH32 0x0 PUSH20 0xFFFFFFFFFFFFFFFFFFFFFFFFFFFFFFFFFFFFFFFF AND EQ PUSH2 0x561 JUMPI CALLER PUSH1 0x40 MLOAD PUSH32 0x91AC5E4F00000000000000000000000000000000000000000000000000000000 DUP2 MSTORE PUSH1 0x4 ADD PUSH2 0x558 SWAP2 SWAP1 PUSH2 0x156A JUMP JUMPDEST PUSH1 0x40 MLOAD DUP1 SWAP2 SUB SWAP1 REVERT JUMPDEST DUP7 PUSH1 0x20 ADD CALLDATALOAD PUSH2 0x580 DUP9 PUSH0 ADD PUSH1 0x20 DUP2 ADD SWAP1 PUSH2 0x57B SWAP2 SWAP1 PUSH2 0x178B JUMP JUMPDEST PUSH2 0x9F6 JUMP JUMPDEST EQ PUSH2 0x5D9 JUMPI DUP7 PUSH0 ADD PUSH1 0x20 DUP2 ADD SWAP1 PUSH2 0x597 SWAP2 SWAP1 PUSH2 0x178B JUMP JUMPDEST DUP8 PUSH1 0x20 ADD CALLDATALOAD PUSH1 0x40 MLOAD PUSH32 0xC26BEBCC00000000000000000000000000000000000000000000000000000000 DUP2 MSTORE PUSH1 0x4 ADD PUSH2 0x5D0 SWAP3 SWAP2 SWAP1 PUSH2 0x18A0 JUMP JUMPDEST PUSH1 0x40 MLOAD DUP1 SWAP2 SUB SWAP1 REVERT JUMPDEST PUSH2 0x5E8 DUP8 DUP8 DUP8 DUP8 DUP8 DUP8 DUP8 PUSH2 0xA67 JUMP JUMPDEST POP POP POP POP POP POP POP JUMP JUMPDEST PUSH0 DUP1 PUSH1 0x1 DUP1 SWAP2 POP SWAP2 POP SWAP1 SWAP2 JUMP JUMPDEST PUSH2 0x606 PUSH2 0xAAE JUMP JUMPDEST DUP1 PUSH1 0x1 PUSH0 DUP5 PUSH4 0xFFFFFFFF AND PUSH4 0xFFFFFFFF AND DUP2 MSTORE PUSH1 0x20 ADD SWAP1 DUP2 MSTORE PUSH1 0x20 ADD PUSH0 KECCAK256 DUP2 SWAP1 SSTORE POP PUSH32 0x238399D427B947898EDB290F5FF0F9109849B1C3BA196A42E35F00C50A54B98B DUP3 DUP3 PUSH1 0x40 MLOAD PUSH2 0x659 SWAP3 SWAP2 SWAP1 PUSH2 0x18A0 JUMP JUMPDEST PUSH1 0x40 MLOAD DUP1 SWAP2 SUB SWAP1 LOG1 POP POP JUMP JUMPDEST POP POP JUMP JUMPDEST PUSH1 0x2 PUSH1 0x4 SWAP1 SLOAD SWAP1 PUSH2 0x100 EXP SWAP1 DIV PUSH4 0xFFFFFFFF AND DUP2 JUMP JUMPDEST PUSH32 0x0 DUP2 JUMP JUMPDEST PUSH2 0x6AB PUSH2 0xAAE JUMP JUMPDEST PUSH2 0x6B4 PUSH0 PUSH2 0xB35 JUMP JUMPDEST JUMP JUMPDEST PUSH1 0x3 PUSH0 SWAP1 SLOAD SWAP1 PUSH2 0x100 EXP SWAP1 DIV PUSH20 0xFFFFFFFFFFFFFFFFFFFFFFFFFFFFFFFFFFFFFFFF AND DUP2 JUMP JUMPDEST PUSH1 0x4 DUP1 SLOAD PUSH2 0x6E8 SWAP1 PUSH2 0x18F4 JUMP JUMPDEST DUP1 PUSH1 0x1F ADD PUSH1 0x20 DUP1 SWAP2 DIV MUL PUSH1 0x20 ADD PUSH1 0x40 MLOAD SWAP1 DUP2 ADD PUSH1 0x40 MSTORE DUP1 SWAP3 SWAP2 SWAP1 DUP2 DUP2 MSTORE PUSH1 0x20 ADD DUP3 DUP1 SLOAD PUSH2 0x714 SWAP1 PUSH2 0x18F4 JUMP JUMPDEST DUP1 ISZERO PUSH2 0x75F JUMPI DUP1 PUSH1 0x1F LT PUSH2 0x736 JUMPI PUSH2 0x100 DUP1 DUP4 SLOAD DIV MUL DUP4 MSTORE SWAP2 PUSH1 0x20 ADD SWAP2 PUSH2 0x75F JUMP JUMPDEST DUP3 ADD SWAP2 SWAP1 PUSH0 MSTORE PUSH1 0x20 PUSH0 KECCAK256 SWAP1 JUMPDEST DUP2 SLOAD DUP2 MSTORE SWAP1 PUSH1 0x1 ADD SWAP1 PUSH1 0x20 ADD DUP1 DUP4 GT PUSH2 0x742 JUMPI DUP3 SWAP1 SUB PUSH1 0x1F AND DUP3 ADD SWAP2 JUMPDEST POP POP POP POP POP DUP2 JUMP JUMPDEST POP JUMP JUMPDEST PUSH0 SWAP3 SWAP2 POP POP JUMP JUMPDEST PUSH0 DUP1 PUSH0 SWAP1 SLOAD SWAP1 PUSH2 0x100 EXP SWAP1 DIV PUSH20 0xFFFFFFFFFFFFFFFFFFFFFFFFFFFFFFFFFFFFFFFF AND SWAP1 POP SWAP1 JUMP JUMPDEST POP POP POP POP POP JUMP JUMPDEST PUSH1 0x2 PUSH0 SWAP1 SLOAD SWAP1 PUSH2 0x100 EXP SWAP1 DIV PUSH4 0xFFFFFFFF AND DUP2 JUMP JUMPDEST PUSH0 DUP4 DUP10 DUP10 DUP10 DUP10 DUP10 PUSH1 0x40 MLOAD PUSH1 0x20 ADD PUSH2 0x7D0 SWAP7 SWAP6 SWAP5 SWAP4 SWAP3 SWAP2 SWAP1 PUSH2 0x197D JUMP JUMPDEST PUSH1 0x40 MLOAD PUSH1 0x20 DUP2 DUP4 SUB SUB DUP2 MSTORE SWAP1 PUSH1 0x40 MSTORE SWAP1 POP PUSH2 0x856 PUSH1 0x2 PUSH0 SWAP1 SLOAD SWAP1 PUSH2 0x100 EXP SWAP1 DIV PUSH4 0xFFFFFFFF AND DUP3 DUP6 DUP6 DUP1 DUP1 PUSH1 0x1F ADD PUSH1 0x20 DUP1 SWAP2 DIV MUL PUSH1 0x20 ADD PUSH1 0x40 MLOAD SWAP1 DUP2 ADD PUSH1 0x40 MSTORE DUP1 SWAP4 SWAP3 SWAP2 SWAP1 DUP2 DUP2 MSTORE PUSH1 0x20 ADD DUP4 DUP4 DUP1 DUP3 DUP5 CALLDATACOPY PUSH0 DUP2 DUP5 ADD MSTORE PUSH1 0x1F NOT PUSH1 0x1F DUP3 ADD AND SWAP1 POP DUP1 DUP4 ADD SWAP3 POP POP POP POP POP POP POP PUSH1 0x40 MLOAD DUP1 PUSH1 0x40 ADD PUSH1 0x40 MSTORE DUP1 CALLVALUE DUP2 MSTORE PUSH1 0x20 ADD PUSH0 DUP2 MSTORE POP DUP9 PUSH2 0xBF6 JUMP JUMPDEST POP POP POP POP POP POP POP POP POP POP JUMP JUMPDEST PUSH0 ADDRESS SWAP1 POP SWAP1 JUMP JUMPDEST PUSH1 0x1 PUSH1 0x20 MSTORE DUP1 PUSH0 MSTORE PUSH1 0x40 PUSH0 KECCAK256 PUSH0 SWAP2 POP SWAP1 POP SLOAD DUP2 JUMP JUMPDEST PUSH2 0x886 PUSH2 0xAAE JUMP JUMPDEST PUSH32 0x0 PUSH20 0xFFFFFFFFFFFFFFFFFFFFFFFFFFFFFFFFFFFFFFFF AND PUSH4 0xCA5EB5E1 DUP3 PUSH1 0x40 MLOAD DUP3 PUSH4 0xFFFFFFFF AND PUSH1 0xE0 SHL DUP2 MSTORE PUSH1 0x4 ADD PUSH2 0x8DF SWAP2 SWAP1 PUSH2 0x156A JUMP JUMPDEST PUSH0 PUSH1 0x40 MLOAD DUP1 DUP4 SUB DUP2 PUSH0 DUP8 DUP1 EXTCODESIZE ISZERO DUP1 ISZERO PUSH2 0x8F6 JUMPI PUSH0 DUP1 REVERT JUMPDEST POP GAS CALL ISZERO DUP1 ISZERO PUSH2 0x908 JUMPI RETURNDATASIZE PUSH0 DUP1 RETURNDATACOPY RETURNDATASIZE PUSH0 REVERT JUMPDEST POP POP POP POP POP JUMP JUMPDEST PUSH1 0x2 PUSH1 0x8 SWAP1 SLOAD SWAP1 PUSH2 0x100 EXP SWAP1 DIV PUSH20 0xFFFFFFFFFFFFFFFFFFFFFFFFFFFFFFFFFFFFFFFF AND DUP2 JUMP JUMPDEST PUSH2 0x93D PUSH2 0xAAE JUMP JUMPDEST PUSH0 PUSH20 0xFFFFFFFFFFFFFFFFFFFFFFFFFFFFFFFFFFFFFFFF AND DUP2 PUSH20 0xFFFFFFFFFFFFFFFFFFFFFFFFFFFFFFFFFFFFFFFF AND SUB PUSH2 0x9AD JUMPI PUSH0 PUSH1 0x40 MLOAD PUSH32 0x1E4FBDF700000000000000000000000000000000000000000000000000000000 DUP2 MSTORE PUSH1 0x4 ADD PUSH2 0x9A4 SWAP2 SWAP1 PUSH2 0x156A JUMP JUMPDEST PUSH1 0x40 MLOAD DUP1 SWAP2 SUB SWAP1 REVERT JUMPDEST PUSH2 0x9B6 DUP2 PUSH2 0xB35 JUMP JUMPDEST POP JUMP JUMPDEST PUSH0 DUP2 PUSH1 0x20 ADD CALLDATALOAD PUSH1 0x1 PUSH0 DUP5 PUSH0 ADD PUSH1 0x20 DUP2 ADD SWAP1 PUSH2 0x9D4 SWAP2 SWAP1 PUSH2 0x178B JUMP JUMPDEST PUSH4 0xFFFFFFFF AND PUSH4 0xFFFFFFFF AND DUP2 MSTORE PUSH1 0x20 ADD SWAP1 DUP2 MSTORE PUSH1 0x20 ADD PUSH0 KECCAK256 SLOAD EQ SWAP1 POP SWAP2 SWAP1 POP JUMP JUMPDEST PUSH0 DUP1 PUSH1 0x1 PUSH0 DUP5 PUSH4 0xFFFFFFFF AND PUSH4 0xFFFFFFFF AND DUP2 MSTORE PUSH1 0x20 ADD SWAP1 DUP2 MSTORE PUSH1 0x20 ADD PUSH0 KECCAK256 SLOAD SWAP1 POP PUSH0 DUP1 SHL DUP2 SUB PUSH2 0xA5E JUMPI DUP3 PUSH1 0x40 MLOAD PUSH32 0xF6FF4FB700000000000000000000000000000000000000000000000000000000 DUP2 MSTORE PUSH1 0x4 ADD PUSH2 0xA55 SWAP2 SWAP1 PUSH2 0x14CE JUMP JUMPDEST PUSH1 0x40 MLOAD DUP1 SWAP2 SUB SWAP1 REVERT JUMPDEST DUP1 SWAP2 POP POP SWAP2 SWAP1 POP JUMP JUMPDEST PUSH0 DUP8 PUSH0 ADD PUSH1 0x20 DUP2 ADD SWAP1 PUSH2 0xA7A SWAP2 SWAP1 PUSH2 0x178B JUMP JUMPDEST SWAP1 POP PUSH0 DUP9 PUSH1 0x20 ADD CALLDATALOAD SWAP1 POP PUSH0 DUP1 PUSH0 DUP1 DUP11 DUP11 DUP2 ADD SWAP1 PUSH2 0xA97 SWAP2 SWAP1 PUSH2 0x1A5D JUMP JUMPDEST SWAP4 POP SWAP4 POP SWAP4 POP SWAP4 POP POP POP POP POP POP POP POP POP POP POP POP POP POP JUMP JUMPDEST PUSH2 0xAB6 PUSH2 0xD0C JUMP JUMPDEST PUSH20 0xFFFFFFFFFFFFFFFFFFFFFFFFFFFFFFFFFFFFFFFF AND PUSH2 0xAD4 PUSH2 0x771 JUMP JUMPDEST PUSH20 0xFFFFFFFFFFFFFFFFFFFFFFFFFFFFFFFFFFFFFFFF AND EQ PUSH2 0xB33 JUMPI PUSH2 0xAF7 PUSH2 0xD0C JUMP JUMPDEST PUSH1 0x40 MLOAD PUSH32 0x118CDAA700000000000000000000000000000000000000000000000000000000 DUP2 MSTORE PUSH1 0x4 ADD PUSH2 0xB2A SWAP2 SWAP1 PUSH2 0x156A JUMP JUMPDEST PUSH1 0x40 MLOAD DUP1 SWAP2 SUB SWAP1 REVERT JUMPDEST JUMP JUMPDEST PUSH0 DUP1 PUSH0 SWAP1 SLOAD SWAP1 PUSH2 0x100 EXP SWAP1 DIV PUSH20 0xFFFFFFFFFFFFFFFFFFFFFFFFFFFFFFFFFFFFFFFF AND SWAP1 POP DUP2 PUSH0 DUP1 PUSH2 0x100 EXP DUP2 SLOAD DUP2 PUSH20 0xFFFFFFFFFFFFFFFFFFFFFFFFFFFFFFFFFFFFFFFF MUL NOT AND SWAP1 DUP4 PUSH20 0xFFFFFFFFFFFFFFFFFFFFFFFFFFFFFFFFFFFFFFFF AND MUL OR SWAP1 SSTORE POP DUP2 PUSH20 0xFFFFFFFFFFFFFFFFFFFFFFFFFFFFFFFFFFFFFFFF AND DUP2 PUSH20 0xFFFFFFFFFFFFFFFFFFFFFFFFFFFFFFFFFFFFFFFF AND PUSH32 0x8BE0079C531659141344CD1FD0A4F28419497F9722A3DAAFE3B4186F6B6457E0 PUSH1 0x40 MLOAD PUSH1 0x40 MLOAD DUP1 SWAP2 SUB SWAP1 LOG3 POP POP JUMP JUMPDEST PUSH2 0xBFE PUSH2 0x116C JUMP JUMPDEST PUSH0 PUSH2 0xC0B DUP5 PUSH0 ADD MLOAD PUSH2 0xD13 JUMP JUMPDEST SWAP1 POP PUSH0 DUP5 PUSH1 0x20 ADD MLOAD GT ISZERO PUSH2 0xC27 JUMPI PUSH2 0xC26 DUP5 PUSH1 0x20 ADD MLOAD PUSH2 0xD60 JUMP JUMPDEST JUMPDEST PUSH32 0x0 PUSH20 0xFFFFFFFFFFFFFFFFFFFFFFFFFFFFFFFFFFFFFFFF AND PUSH4 0x2637A450 DUP3 PUSH1 0x40 MLOAD DUP1 PUSH1 0xA0 ADD PUSH1 0x40 MSTORE DUP1 DUP12 PUSH4 0xFFFFFFFF AND DUP2 MSTORE PUSH1 0x20 ADD PUSH2 0xC84 DUP13 PUSH2 0x9F6 JUMP JUMPDEST DUP2 MSTORE PUSH1 0x20 ADD DUP11 DUP2 MSTORE PUSH1 0x20 ADD DUP10 DUP2 MSTORE PUSH1 0x20 ADD PUSH0 DUP10 PUSH1 0x20 ADD MLOAD GT ISZERO ISZERO DUP2 MSTORE POP DUP7 PUSH1 0x40 MLOAD DUP5 PUSH4 0xFFFFFFFF AND PUSH1 0xE0 SHL DUP2 MSTORE PUSH1 0x4 ADD PUSH2 0xCBF SWAP3 SWAP2 SWAP1 PUSH2 0x1BBA JUMP JUMPDEST PUSH1 0x80 PUSH1 0x40 MLOAD DUP1 DUP4 SUB DUP2 DUP6 DUP9 GAS CALL ISZERO DUP1 ISZERO PUSH2 0xCDB JUMPI RETURNDATASIZE PUSH0 DUP1 RETURNDATACOPY RETURNDATASIZE PUSH0 REVERT JUMPDEST POP POP POP POP POP PUSH1 0x40 MLOAD RETURNDATASIZE PUSH1 0x1F NOT PUSH1 0x1F DUP3 ADD AND DUP3 ADD DUP1 PUSH1 0x40 MSTORE POP DUP2 ADD SWAP1 PUSH2 0xD00 SWAP2 SWAP1 PUSH2 0x1D64 JUMP JUMPDEST SWAP2 POP POP SWAP6 SWAP5 POP POP POP POP POP JUMP JUMPDEST PUSH0 CALLER SWAP1 POP SWAP1 JUMP JUMPDEST PUSH0 DUP2 CALLVALUE EQ PUSH2 0xD58 JUMPI CALLVALUE PUSH1 0x40 MLOAD PUSH32 0x9F70412000000000000000000000000000000000000000000000000000000000 DUP2 MSTORE PUSH1 0x4 ADD PUSH2 0xD4F SWAP2 SWAP1 PUSH2 0x1D8F JUMP JUMPDEST PUSH1 0x40 MLOAD DUP1 SWAP2 SUB SWAP1 REVERT JUMPDEST DUP2 SWAP1 POP SWAP2 SWAP1 POP JUMP JUMPDEST PUSH0 PUSH32 0x0 PUSH20 0xFFFFFFFFFFFFFFFFFFFFFFFFFFFFFFFFFFFFFFFF AND PUSH4 0xE4FE1D94 PUSH1 0x40 MLOAD DUP2 PUSH4 0xFFFFFFFF AND PUSH1 0xE0 SHL DUP2 MSTORE PUSH1 0x4 ADD PUSH1 0x20 PUSH1 0x40 MLOAD DUP1 DUP4 SUB DUP2 DUP7 GAS STATICCALL ISZERO DUP1 ISZERO PUSH2 0xDCA JUMPI RETURNDATASIZE PUSH0 DUP1 RETURNDATACOPY RETURNDATASIZE PUSH0 REVERT JUMPDEST POP POP POP POP PUSH1 0x40 MLOAD RETURNDATASIZE PUSH1 0x1F NOT PUSH1 0x1F DUP3 ADD AND DUP3 ADD DUP1 PUSH1 0x40 MSTORE POP DUP2 ADD SWAP1 PUSH2 0xDEE SWAP2 SWAP1 PUSH2 0x1DBC JUMP JUMPDEST SWAP1 POP PUSH0 PUSH20 0xFFFFFFFFFFFFFFFFFFFFFFFFFFFFFFFFFFFFFFFF AND DUP2 PUSH20 0xFFFFFFFFFFFFFFFFFFFFFFFFFFFFFFFFFFFFFFFF AND SUB PUSH2 0xE55 JUMPI PUSH1 0x40 MLOAD PUSH32 0x5373352A00000000000000000000000000000000000000000000000000000000 DUP2 MSTORE PUSH1 0x4 ADD PUSH1 0x40 MLOAD DUP1 SWAP2 SUB SWAP1 REVERT JUMPDEST PUSH2 0xEA2 CALLER PUSH32 0x0 DUP5 DUP5 PUSH20 0xFFFFFFFFFFFFFFFFFFFFFFFFFFFFFFFFFFFFFFFF AND PUSH2 0xEA6 SWAP1 SWAP4 SWAP3 SWAP2 SWAP1 PUSH4 0xFFFFFFFF AND JUMP JUMPDEST POP POP JUMP JUMPDEST PUSH2 0xF22 DUP5 DUP6 PUSH20 0xFFFFFFFFFFFFFFFFFFFFFFFFFFFFFFFFFFFFFFFF AND PUSH4 0x23B872DD DUP7 DUP7 DUP7 PUSH1 0x40 MLOAD PUSH1 0x24 ADD PUSH2 0xEDB SWAP4 SWAP3 SWAP2 SWAP1 PUSH2 0x1DE7 JUMP JUMPDEST PUSH1 0x40 MLOAD PUSH1 0x20 DUP2 DUP4 SUB SUB DUP2 MSTORE SWAP1 PUSH1 0x40 MSTORE SWAP2 POP PUSH1 0xE0 SHL PUSH1 0x20 DUP3 ADD DUP1 MLOAD PUSH28 0xFFFFFFFFFFFFFFFFFFFFFFFFFFFFFFFFFFFFFFFFFFFFFFFFFFFFFFFF DUP4 DUP2 DUP4 AND OR DUP4 MSTORE POP POP POP POP PUSH2 0xF28 JUMP JUMPDEST POP POP POP POP JUMP JUMPDEST PUSH0 PUSH2 0xF52 DUP3 DUP5 PUSH20 0xFFFFFFFFFFFFFFFFFFFFFFFFFFFFFFFFFFFFFFFF AND PUSH2 0xFBD SWAP1 SWAP2 SWAP1 PUSH4 0xFFFFFFFF AND JUMP JUMPDEST SWAP1 POP PUSH0 DUP2 MLOAD EQ ISZERO DUP1 ISZERO PUSH2 0xF76 JUMPI POP DUP1 DUP1 PUSH1 0x20 ADD SWAP1 MLOAD DUP2 ADD SWAP1 PUSH2 0xF74 SWAP2 SWAP1 PUSH2 0x1E46 JUMP JUMPDEST ISZERO JUMPDEST ISZERO PUSH2 0xFB8 JUMPI DUP3 PUSH1 0x40 MLOAD PUSH32 0x5274AFE700000000000000000000000000000000000000000000000000000000 DUP2 MSTORE PUSH1 0x4 ADD PUSH2 0xFAF SWAP2 SWAP1 PUSH2 0x156A JUMP JUMPDEST PUSH1 0x40 MLOAD DUP1 SWAP2 SUB SWAP1 REVERT JUMPDEST POP POP POP JUMP JUMPDEST PUSH1 0x60 PUSH2 0xFCA DUP4 DUP4 PUSH0 PUSH2 0xFD2 JUMP JUMPDEST SWAP1 POP SWAP3 SWAP2 POP POP JUMP JUMPDEST PUSH1 0x60 DUP2 SELFBALANCE LT ISZERO PUSH2 0x1019 JUMPI ADDRESS PUSH1 0x40 MLOAD PUSH32 0xCD78605900000000000000000000000000000000000000000000000000000000 DUP2 MSTORE PUSH1 0x4 ADD PUSH2 0x1010 SWAP2 SWAP1 PUSH2 0x156A JUMP JUMPDEST PUSH1 0x40 MLOAD DUP1 SWAP2 SUB SWAP1 REVERT JUMPDEST PUSH0 DUP1 DUP6 PUSH20 0xFFFFFFFFFFFFFFFFFFFFFFFFFFFFFFFFFFFFFFFF AND DUP5 DUP7 PUSH1 0x40 MLOAD PUSH2 0x1041 SWAP2 SWAP1 PUSH2 0x1EAB JUMP JUMPDEST PUSH0 PUSH1 0x40 MLOAD DUP1 DUP4 SUB DUP2 DUP6 DUP8 GAS CALL SWAP3 POP POP POP RETURNDATASIZE DUP1 PUSH0 DUP2 EQ PUSH2 0x107B JUMPI PUSH1 0x40 MLOAD SWAP2 POP PUSH1 0x1F NOT PUSH1 0x3F RETURNDATASIZE ADD AND DUP3 ADD PUSH1 0x40 MSTORE RETURNDATASIZE DUP3 MSTORE RETURNDATASIZE PUSH0 PUSH1 0x20 DUP5 ADD RETURNDATACOPY PUSH2 0x1080 JUMP JUMPDEST PUSH1 0x60 SWAP2 POP JUMPDEST POP SWAP2 POP SWAP2 POP PUSH2 0x1090 DUP7 DUP4 DUP4 PUSH2 0x109B JUMP JUMPDEST SWAP3 POP POP POP SWAP4 SWAP3 POP POP POP JUMP JUMPDEST PUSH1 0x60 DUP3 PUSH2 0x10B0 JUMPI PUSH2 0x10AB DUP3 PUSH2 0x1128 JUMP JUMPDEST PUSH2 0x1120 JUMP JUMPDEST PUSH0 DUP3 MLOAD EQ DUP1 ISZERO PUSH2 0x10D6 JUMPI POP PUSH0 DUP5 PUSH20 0xFFFFFFFFFFFFFFFFFFFFFFFFFFFFFFFFFFFFFFFF AND EXTCODESIZE EQ JUMPDEST ISZERO PUSH2 0x1118 JUMPI DUP4 PUSH1 0x40 MLOAD PUSH32 0x9996B31500000000000000000000000000000000000000000000000000000000 DUP2 MSTORE PUSH1 0x4 ADD PUSH2 0x110F SWAP2 SWAP1 PUSH2 0x156A JUMP JUMPDEST PUSH1 0x40 MLOAD DUP1 SWAP2 SUB SWAP1 REVERT JUMPDEST DUP2 SWAP1 POP PUSH2 0x1121 JUMP JUMPDEST JUMPDEST SWAP4 SWAP3 POP POP POP JUMP JUMPDEST PUSH0 DUP2 MLOAD GT ISZERO PUSH2 0x113A JUMPI DUP1 MLOAD DUP1 DUP3 PUSH1 0x20 ADD REVERT JUMPDEST PUSH1 0x40 MLOAD PUSH32 0x1425EA4200000000000000000000000000000000000000000000000000000000 DUP2 MSTORE PUSH1 0x4 ADD PUSH1 0x40 MLOAD DUP1 SWAP2 SUB SWAP1 REVERT JUMPDEST PUSH1 0x40 MLOAD DUP1 PUSH1 0x60 ADD PUSH1 0x40 MSTORE DUP1 PUSH0 DUP1 NOT AND DUP2 MSTORE PUSH1 0x20 ADD PUSH0 PUSH8 0xFFFFFFFFFFFFFFFF AND DUP2 MSTORE PUSH1 0x20 ADD PUSH2 0x1198 PUSH2 0x119E JUMP JUMPDEST DUP2 MSTORE POP SWAP1 JUMP JUMPDEST PUSH1 0x40 MLOAD DUP1 PUSH1 0x40 ADD PUSH1 0x40 MSTORE DUP1 PUSH0 DUP2 MSTORE PUSH1 0x20 ADD PUSH0 DUP2 MSTORE POP SWAP1 JUMP JUMPDEST PUSH0 PUSH1 0x40 MLOAD SWAP1 POP SWAP1 JUMP JUMPDEST PUSH0 DUP1 REVERT JUMPDEST PUSH0 DUP1 REVERT JUMPDEST PUSH0 DUP2 SWAP1 POP SWAP2 SWAP1 POP JUMP JUMPDEST PUSH2 0x11D9 DUP2 PUSH2 0x11C7 JUMP JUMPDEST DUP2 EQ PUSH2 0x11E3 JUMPI PUSH0 DUP1 REVERT JUMPDEST POP JUMP JUMPDEST PUSH0 DUP2 CALLDATALOAD SWAP1 POP PUSH2 0x11F4 DUP2 PUSH2 0x11D0 JUMP JUMPDEST SWAP3 SWAP2 POP POP JUMP JUMPDEST PUSH0 DUP1 PUSH1 0x40 DUP4 DUP6 SUB SLT ISZERO PUSH2 0x1210 JUMPI PUSH2 0x120F PUSH2 0x11BF JUMP JUMPDEST JUMPDEST PUSH0 PUSH2 0x121D DUP6 DUP3 DUP7 ADD PUSH2 0x11E6 JUMP JUMPDEST SWAP3 POP POP PUSH1 0x20 PUSH2 0x122E DUP6 DUP3 DUP7 ADD PUSH2 0x11E6 JUMP JUMPDEST SWAP2 POP POP SWAP3 POP SWAP3 SWAP1 POP JUMP JUMPDEST PUSH0 DUP1 REVERT JUMPDEST PUSH0 PUSH1 0x60 DUP3 DUP5 SUB SLT ISZERO PUSH2 0x1251 JUMPI PUSH2 0x1250 PUSH2 0x1238 JUMP JUMPDEST JUMPDEST DUP2 SWAP1 POP SWAP3 SWAP2 POP POP JUMP JUMPDEST PUSH0 DUP2 SWAP1 POP SWAP2 SWAP1 POP JUMP JUMPDEST PUSH2 0x126C DUP2 PUSH2 0x125A JUMP JUMPDEST DUP2 EQ PUSH2 0x1276 JUMPI PUSH0 DUP1 REVERT JUMPDEST POP JUMP JUMPDEST PUSH0 DUP2 CALLDATALOAD SWAP1 POP PUSH2 0x1287 DUP2 PUSH2 0x1263 JUMP JUMPDEST SWAP3 SWAP2 POP POP JUMP JUMPDEST PUSH0 DUP1 REVERT JUMPDEST PUSH0 DUP1 REVERT JUMPDEST PUSH0 DUP1 REVERT JUMPDEST PUSH0 DUP1 DUP4 PUSH1 0x1F DUP5 ADD SLT PUSH2 0x12AE JUMPI PUSH2 0x12AD PUSH2 0x128D JUMP JUMPDEST JUMPDEST DUP3 CALLDATALOAD SWAP1 POP PUSH8 0xFFFFFFFFFFFFFFFF DUP2 GT ISZERO PUSH2 0x12CB JUMPI PUSH2 0x12CA PUSH2 0x1291 JUMP JUMPDEST JUMPDEST PUSH1 0x20 DUP4 ADD SWAP2 POP DUP4 PUSH1 0x1 DUP3 MUL DUP4 ADD GT ISZERO PUSH2 0x12E7 JUMPI PUSH2 0x12E6 PUSH2 0x1295 JUMP JUMPDEST JUMPDEST SWAP3 POP SWAP3 SWAP1 POP JUMP JUMPDEST PUSH0 PUSH20 0xFFFFFFFFFFFFFFFFFFFFFFFFFFFFFFFFFFFFFFFF DUP3 AND SWAP1 POP SWAP2 SWAP1 POP JUMP JUMPDEST PUSH0 PUSH2 0x1317 DUP3 PUSH2 0x12EE JUMP JUMPDEST SWAP1 POP SWAP2 SWAP1 POP JUMP JUMPDEST PUSH2 0x1327 DUP2 PUSH2 0x130D JUMP JUMPDEST DUP2 EQ PUSH2 0x1331 JUMPI PUSH0 DUP1 REVERT JUMPDEST POP JUMP JUMPDEST PUSH0 DUP2 CALLDATALOAD SWAP1 POP PUSH2 0x1342 DUP2 PUSH2 0x131E JUMP JUMPDEST SWAP3 SWAP2 POP POP JUMP JUMPDEST PUSH0 DUP1 PUSH0 DUP1 PUSH0 DUP1 PUSH0 PUSH1 0xE0 DUP9 DUP11 SUB SLT ISZERO PUSH2 0x1363 JUMPI PUSH2 0x1362 PUSH2 0x11BF JUMP JUMPDEST JUMPDEST PUSH0 PUSH2 0x1370 DUP11 DUP3 DUP12 ADD PUSH2 0x123C JUMP JUMPDEST SWAP8 POP POP PUSH1 0x60 PUSH2 0x1381 DUP11 DUP3 DUP12 ADD PUSH2 0x1279 JUMP JUMPDEST SWAP7 POP POP PUSH1 0x80 DUP9 ADD CALLDATALOAD PUSH8 0xFFFFFFFFFFFFFFFF DUP2 GT ISZERO PUSH2 0x13A2 JUMPI PUSH2 0x13A1 PUSH2 0x11C3 JUMP JUMPDEST JUMPDEST PUSH2 0x13AE DUP11 DUP3 DUP12 ADD PUSH2 0x1299 JUMP JUMPDEST SWAP6 POP SWAP6 POP POP PUSH1 0xA0 PUSH2 0x13C1 DUP11 DUP3 DUP12 ADD PUSH2 0x1334 JUMP JUMPDEST SWAP4 POP POP PUSH1 0xC0 DUP9 ADD CALLDATALOAD PUSH8 0xFFFFFFFFFFFFFFFF DUP2 GT ISZERO PUSH2 0x13E2 JUMPI PUSH2 0x13E1 PUSH2 0x11C3 JUMP JUMPDEST JUMPDEST PUSH2 0x13EE DUP11 DUP3 DUP12 ADD PUSH2 0x1299 JUMP JUMPDEST SWAP3 POP SWAP3 POP POP SWAP3 SWAP6 SWAP9 SWAP2 SWAP5 SWAP8 POP SWAP3 SWAP6 POP JUMP JUMPDEST PUSH0 PUSH8 0xFFFFFFFFFFFFFFFF DUP3 AND SWAP1 POP SWAP2 SWAP1 POP JUMP JUMPDEST PUSH2 0x141B DUP2 PUSH2 0x13FF JUMP JUMPDEST DUP3 MSTORE POP POP JUMP JUMPDEST PUSH0 PUSH1 0x40 DUP3 ADD SWAP1 POP PUSH2 0x1434 PUSH0 DUP4 ADD DUP6 PUSH2 0x1412 JUMP JUMPDEST PUSH2 0x1441 PUSH1 0x20 DUP4 ADD DUP5 PUSH2 0x1412 JUMP JUMPDEST SWAP4 SWAP3 POP POP POP JUMP JUMPDEST PUSH0 PUSH4 0xFFFFFFFF DUP3 AND SWAP1 POP SWAP2 SWAP1 POP JUMP JUMPDEST PUSH2 0x1460 DUP2 PUSH2 0x1448 JUMP JUMPDEST DUP2 EQ PUSH2 0x146A JUMPI PUSH0 DUP1 REVERT JUMPDEST POP JUMP JUMPDEST PUSH0 DUP2 CALLDATALOAD SWAP1 POP PUSH2 0x147B DUP2 PUSH2 0x1457 JUMP JUMPDEST SWAP3 SWAP2 POP POP JUMP JUMPDEST PUSH0 DUP1 PUSH1 0x40 DUP4 DUP6 SUB SLT ISZERO PUSH2 0x1497 JUMPI PUSH2 0x1496 PUSH2 0x11BF JUMP JUMPDEST JUMPDEST PUSH0 PUSH2 0x14A4 DUP6 DUP3 DUP7 ADD PUSH2 0x146D JUMP JUMPDEST SWAP3 POP POP PUSH1 0x20 PUSH2 0x14B5 DUP6 DUP3 DUP7 ADD PUSH2 0x1279 JUMP JUMPDEST SWAP2 POP POP SWAP3 POP SWAP3 SWAP1 POP JUMP JUMPDEST PUSH2 0x14C8 DUP2 PUSH2 0x1448 JUMP JUMPDEST DUP3 MSTORE POP POP JUMP JUMPDEST PUSH0 PUSH1 0x20 DUP3 ADD SWAP1 POP PUSH2 0x14E1 PUSH0 DUP4 ADD DUP5 PUSH2 0x14BF JUMP JUMPDEST SWAP3 SWAP2 POP POP JUMP JUMPDEST PUSH0 DUP2 SWAP1 POP SWAP2 SWAP1 POP JUMP JUMPDEST PUSH0 PUSH2 0x150A PUSH2 0x1505 PUSH2 0x1500 DUP5 PUSH2 0x12EE JUMP JUMPDEST PUSH2 0x14E7 JUMP JUMPDEST PUSH2 0x12EE JUMP JUMPDEST SWAP1 POP SWAP2 SWAP1 POP JUMP JUMPDEST PUSH0 PUSH2 0x151B DUP3 PUSH2 0x14F0 JUMP JUMPDEST SWAP1 POP SWAP2 SWAP1 POP JUMP JUMPDEST PUSH0 PUSH2 0x152C DUP3 PUSH2 0x1511 JUMP JUMPDEST SWAP1 POP SWAP2 SWAP1 POP JUMP JUMPDEST PUSH2 0x153C DUP2 PUSH2 0x1522 JUMP JUMPDEST DUP3 MSTORE POP POP JUMP JUMPDEST PUSH0 PUSH1 0x20 DUP3 ADD SWAP1 POP PUSH2 0x1555 PUSH0 DUP4 ADD DUP5 PUSH2 0x1533 JUMP JUMPDEST SWAP3 SWAP2 POP POP JUMP JUMPDEST PUSH2 0x1564 DUP2 PUSH2 0x130D JUMP JUMPDEST DUP3 MSTORE POP POP JUMP JUMPDEST PUSH0 PUSH1 0x20 DUP3 ADD SWAP1 POP PUSH2 0x157D PUSH0 DUP4 ADD DUP5 PUSH2 0x155B JUMP JUMPDEST SWAP3 SWAP2 POP POP JUMP JUMPDEST PUSH0 DUP2 MLOAD SWAP1 POP SWAP2 SWAP1 POP JUMP JUMPDEST PUSH0 DUP3 DUP3 MSTORE PUSH1 0x20 DUP3 ADD SWAP1 POP SWAP3 SWAP2 POP POP JUMP JUMPDEST DUP3 DUP2 DUP4 MCOPY PUSH0 DUP4 DUP4 ADD MSTORE POP POP POP JUMP JUMPDEST PUSH0 PUSH1 0x1F NOT PUSH1 0x1F DUP4 ADD AND SWAP1 POP SWAP2 SWAP1 POP JUMP JUMPDEST PUSH0 PUSH2 0x15C5 DUP3 PUSH2 0x1583 JUMP JUMPDEST PUSH2 0x15CF DUP2 DUP6 PUSH2 0x158D JUMP JUMPDEST SWAP4 POP PUSH2 0x15DF DUP2 DUP6 PUSH1 0x20 DUP7 ADD PUSH2 0x159D JUMP JUMPDEST PUSH2 0x15E8 DUP2 PUSH2 0x15AB JUMP JUMPDEST DUP5 ADD SWAP2 POP POP SWAP3 SWAP2 POP POP JUMP JUMPDEST PUSH0 PUSH1 0x20 DUP3 ADD SWAP1 POP DUP2 DUP2 SUB PUSH0 DUP4 ADD MSTORE PUSH2 0x160B DUP2 DUP5 PUSH2 0x15BB JUMP JUMPDEST SWAP1 POP SWAP3 SWAP2 POP POP JUMP JUMPDEST PUSH0 PUSH1 0x20 DUP3 DUP5 SUB SLT ISZERO PUSH2 0x1628 JUMPI PUSH2 0x1627 PUSH2 0x11BF JUMP JUMPDEST JUMPDEST PUSH0 PUSH2 0x1635 DUP5 DUP3 DUP6 ADD PUSH2 0x11E6 JUMP JUMPDEST SWAP2 POP POP SWAP3 SWAP2 POP POP JUMP JUMPDEST PUSH0 PUSH1 0x20 DUP3 ADD SWAP1 POP PUSH2 0x1651 PUSH0 DUP4 ADD DUP5 PUSH2 0x1412 JUMP JUMPDEST SWAP3 SWAP2 POP POP JUMP JUMPDEST PUSH0 DUP1 PUSH0 DUP1 PUSH0 PUSH1 0xA0 DUP7 DUP9 SUB SLT ISZERO PUSH2 0x1670 JUMPI PUSH2 0x166F PUSH2 0x11BF JUMP JUMPDEST JUMPDEST PUSH0 PUSH2 0x167D DUP9 DUP3 DUP10 ADD PUSH2 0x11E6 JUMP JUMPDEST SWAP6 POP POP PUSH1 0x20 PUSH2 0x168E DUP9 DUP3 DUP10 ADD PUSH2 0x1334 JUMP JUMPDEST SWAP5 POP POP PUSH1 0x40 PUSH2 0x169F DUP9 DUP3 DUP10 ADD PUSH2 0x1334 JUMP JUMPDEST SWAP4 POP POP PUSH1 0x60 PUSH2 0x16B0 DUP9 DUP3 DUP10 ADD PUSH2 0x11E6 JUMP JUMPDEST SWAP3 POP POP PUSH1 0x80 PUSH2 0x16C1 DUP9 DUP3 DUP10 ADD PUSH2 0x11E6 JUMP JUMPDEST SWAP2 POP POP SWAP3 SWAP6 POP SWAP3 SWAP6 SWAP1 SWAP4 POP JUMP JUMPDEST PUSH0 DUP1 PUSH0 DUP1 PUSH0 DUP1 PUSH0 DUP1 PUSH1 0xE0 DUP10 DUP12 SUB SLT ISZERO PUSH2 0x16EA JUMPI PUSH2 0x16E9 PUSH2 0x11BF JUMP JUMPDEST JUMPDEST PUSH0 PUSH2 0x16F7 DUP12 DUP3 DUP13 ADD PUSH2 0x11E6 JUMP JUMPDEST SWAP9 POP POP PUSH1 0x20 PUSH2 0x1708 DUP12 DUP3 DUP13 ADD PUSH2 0x1334 JUMP JUMPDEST SWAP8 POP POP PUSH1 0x40 PUSH2 0x1719 DUP12 DUP3 DUP13 ADD PUSH2 0x1334 JUMP JUMPDEST SWAP7 POP POP PUSH1 0x60 PUSH2 0x172A DUP12 DUP3 DUP13 ADD PUSH2 0x11E6 JUMP JUMPDEST SWAP6 POP POP PUSH1 0x80 PUSH2 0x173B DUP12 DUP3 DUP13 ADD PUSH2 0x11E6 JUMP JUMPDEST SWAP5 POP POP PUSH1 0xA0 PUSH2 0x174C DUP12 DUP3 DUP13 ADD PUSH2 0x1334 JUMP JUMPDEST SWAP4 POP POP PUSH1 0xC0 DUP10 ADD CALLDATALOAD PUSH8 0xFFFFFFFFFFFFFFFF DUP2 GT ISZERO PUSH2 0x176D JUMPI PUSH2 0x176C PUSH2 0x11C3 JUMP JUMPDEST JUMPDEST PUSH2 0x1779 DUP12 DUP3 DUP13 ADD PUSH2 0x1299 JUMP JUMPDEST SWAP3 POP SWAP3 POP POP SWAP3 SWAP6 SWAP9 POP SWAP3 SWAP6 SWAP9 SWAP1 SWAP4 SWAP7 POP JUMP JUMPDEST PUSH0 PUSH1 0x20 DUP3 DUP5 SUB SLT ISZERO PUSH2 0x17A0 JUMPI PUSH2 0x179F PUSH2 0x11BF JUMP JUMPDEST JUMPDEST PUSH0 PUSH2 0x17AD DUP5 DUP3 DUP6 ADD PUSH2 0x146D JUMP JUMPDEST SWAP2 POP POP SWAP3 SWAP2 POP POP JUMP JUMPDEST PUSH2 0x17BF DUP2 PUSH2 0x125A JUMP JUMPDEST DUP3 MSTORE POP POP JUMP JUMPDEST PUSH0 PUSH1 0x20 DUP3 ADD SWAP1 POP PUSH2 0x17D8 PUSH0 DUP4 ADD DUP5 PUSH2 0x17B6 JUMP JUMPDEST SWAP3 SWAP2 POP POP JUMP JUMPDEST PUSH0 PUSH1 0x20 DUP3 DUP5 SUB SLT ISZERO PUSH2 0x17F3 JUMPI PUSH2 0x17F2 PUSH2 0x11BF JUMP JUMPDEST JUMPDEST PUSH0 PUSH2 0x1800 DUP5 DUP3 DUP6 ADD PUSH2 0x1334 JUMP JUMPDEST SWAP2 POP POP SWAP3 SWAP2 POP POP JUMP JUMPDEST PUSH0 PUSH2 0x1813 DUP3 PUSH2 0x1511 JUMP JUMPDEST SWAP1 POP SWAP2 SWAP1 POP JUMP JUMPDEST PUSH2 0x1823 DUP2 PUSH2 0x1809 JUMP JUMPDEST DUP3 MSTORE POP POP JUMP JUMPDEST PUSH0 PUSH1 0x20 DUP3 ADD SWAP1 POP PUSH2 0x183C PUSH0 DUP4 ADD DUP5 PUSH2 0x181A JUMP JUMPDEST SWAP3 SWAP2 POP POP JUMP JUMPDEST PUSH0 PUSH1 0x60 DUP3 DUP5 SUB SLT ISZERO PUSH2 0x1857 JUMPI PUSH2 0x1856 PUSH2 0x11BF JUMP JUMPDEST JUMPDEST PUSH0 PUSH2 0x1864 DUP5 DUP3 DUP6 ADD PUSH2 0x123C JUMP JUMPDEST SWAP2 POP POP SWAP3 SWAP2 POP POP JUMP JUMPDEST PUSH0 DUP2 ISZERO ISZERO SWAP1 POP SWAP2 SWAP1 POP JUMP JUMPDEST PUSH2 0x1881 DUP2 PUSH2 0x186D JUMP JUMPDEST DUP3 MSTORE POP POP JUMP JUMPDEST PUSH0 PUSH1 0x20 DUP3 ADD SWAP1 POP PUSH2 0x189A PUSH0 DUP4 ADD DUP5 PUSH2 0x1878 JUMP JUMPDEST SWAP3 SWAP2 POP POP JUMP JUMPDEST PUSH0 PUSH1 0x40 DUP3 ADD SWAP1 POP PUSH2 0x18B3 PUSH0 DUP4 ADD DUP6 PUSH2 0x14BF JUMP JUMPDEST PUSH2 0x18C0 PUSH1 0x20 DUP4 ADD DUP5 PUSH2 0x17B6 JUMP JUMPDEST SWAP4 SWAP3 POP POP POP JUMP JUMPDEST PUSH32 0x4E487B7100000000000000000000000000000000000000000000000000000000 PUSH0 MSTORE PUSH1 0x22 PUSH1 0x4 MSTORE PUSH1 0x24 PUSH0 REVERT JUMPDEST PUSH0 PUSH1 0x2 DUP3 DIV SWAP1 POP PUSH1 0x1 DUP3 AND DUP1 PUSH2 0x190B JUMPI PUSH1 0x7F DUP3 AND SWAP2 POP JUMPDEST PUSH1 0x20 DUP3 LT DUP2 SUB PUSH2 0x191E JUMPI PUSH2 0x191D PUSH2 0x18C7 JUMP JUMPDEST JUMPDEST POP SWAP2 SWAP1 POP JUMP JUMPDEST PUSH2 0x192D DUP2 PUSH2 0x11C7 JUMP JUMPDEST DUP3 MSTORE POP POP JUMP JUMPDEST PUSH32 0x4C494D49545F4F52444552000000000000000000000000000000000000000000 PUSH0 DUP3 ADD MSTORE POP JUMP JUMPDEST PUSH0 PUSH2 0x1967 PUSH1 0xB DUP4 PUSH2 0x158D JUMP JUMPDEST SWAP2 POP PUSH2 0x1972 DUP3 PUSH2 0x1933 JUMP JUMPDEST PUSH1 0x20 DUP3 ADD SWAP1 POP SWAP2 SWAP1 POP JUMP JUMPDEST PUSH0 PUSH1 0xE0 DUP3 ADD SWAP1 POP PUSH2 0x1990 PUSH0 DUP4 ADD DUP10 PUSH2 0x155B JUMP JUMPDEST PUSH2 0x199D PUSH1 0x20 DUP4 ADD DUP9 PUSH2 0x1924 JUMP JUMPDEST DUP2 DUP2 SUB PUSH1 0x40 DUP4 ADD MSTORE PUSH2 0x19AE DUP2 PUSH2 0x195B JUMP JUMPDEST SWAP1 POP PUSH2 0x19BD PUSH1 0x60 DUP4 ADD DUP8 PUSH2 0x155B JUMP JUMPDEST PUSH2 0x19CA PUSH1 0x80 DUP4 ADD DUP7 PUSH2 0x155B JUMP JUMPDEST PUSH2 0x19D7 PUSH1 0xA0 DUP4 ADD DUP6 PUSH2 0x1924 JUMP JUMPDEST PUSH2 0x19E4 PUSH1 0xC0 DUP4 ADD DUP5 PUSH2 0x1924 JUMP JUMPDEST SWAP8 SWAP7 POP POP POP POP POP POP POP JUMP JUMPDEST PUSH0 PUSH2 0x19F9 DUP3 PUSH2 0x12EE JUMP JUMPDEST SWAP1 POP SWAP2 SWAP1 POP JUMP JUMPDEST PUSH2 0x1A09 DUP2 PUSH2 0x19EF JUMP JUMPDEST DUP2 EQ PUSH2 0x1A13 JUMPI PUSH0 DUP1 REVERT JUMPDEST POP JUMP JUMPDEST PUSH0 DUP2 CALLDATALOAD SWAP1 POP PUSH2 0x1A24 DUP2 PUSH2 0x1A00 JUMP JUMPDEST SWAP3 SWAP2 POP POP JUMP JUMPDEST PUSH0 DUP2 SWAP1 POP SWAP2 SWAP1 POP JUMP JUMPDEST PUSH2 0x1A3C DUP2 PUSH2 0x1A2A JUMP JUMPDEST DUP2 EQ PUSH2 0x1A46 JUMPI PUSH0 DUP1 REVERT JUMPDEST POP JUMP JUMPDEST PUSH0 DUP2 CALLDATALOAD SWAP1 POP PUSH2 0x1A57 DUP2 PUSH2 0x1A33 JUMP JUMPDEST SWAP3 SWAP2 POP POP JUMP JUMPDEST PUSH0 DUP1 PUSH0 DUP1 PUSH1 0x80 DUP6 DUP8 SUB SLT ISZERO PUSH2 0x1A75 JUMPI PUSH2 0x1A74 PUSH2 0x11BF JUMP JUMPDEST JUMPDEST PUSH0 PUSH2 0x1A82 DUP8 DUP3 DUP9 ADD PUSH2 0x1A16 JUMP JUMPDEST SWAP5 POP POP PUSH1 0x20 PUSH2 0x1A93 DUP8 DUP3 DUP9 ADD PUSH2 0x1A16 JUMP JUMPDEST SWAP4 POP POP PUSH1 0x40 PUSH2 0x1AA4 DUP8 DUP3 DUP9 ADD PUSH2 0x1A49 JUMP JUMPDEST SWAP3 POP POP PUSH1 0x60 PUSH2 0x1AB5 DUP8 DUP3 DUP9 ADD PUSH2 0x1A49 JUMP JUMPDEST SWAP2 POP POP SWAP3 SWAP6 SWAP2 SWAP5 POP SWAP3 POP JUMP JUMPDEST PUSH2 0x1ACA DUP2 PUSH2 0x1448 JUMP JUMPDEST DUP3 MSTORE POP POP JUMP JUMPDEST PUSH2 0x1AD9 DUP2 PUSH2 0x125A JUMP JUMPDEST DUP3 MSTORE POP POP JUMP JUMPDEST PUSH0 DUP2 MLOAD SWAP1 POP SWAP2 SWAP1 POP JUMP JUMPDEST PUSH0 DUP3 DUP3 MSTORE PUSH1 0x20 DUP3 ADD SWAP1 POP SWAP3 SWAP2 POP POP JUMP JUMPDEST PUSH0 PUSH2 0x1B03 DUP3 PUSH2 0x1ADF JUMP JUMPDEST PUSH2 0x1B0D DUP2 DUP6 PUSH2 0x1AE9 JUMP JUMPDEST SWAP4 POP PUSH2 0x1B1D DUP2 DUP6 PUSH1 0x20 DUP7 ADD PUSH2 0x159D JUMP JUMPDEST PUSH2 0x1B26 DUP2 PUSH2 0x15AB JUMP JUMPDEST DUP5 ADD SWAP2 POP POP SWAP3 SWAP2 POP POP JUMP JUMPDEST PUSH2 0x1B3A DUP2 PUSH2 0x186D JUMP JUMPDEST DUP3 MSTORE POP POP JUMP JUMPDEST PUSH0 PUSH1 0xA0 DUP4 ADD PUSH0 DUP4 ADD MLOAD PUSH2 0x1B55 PUSH0 DUP7 ADD DUP3 PUSH2 0x1AC1 JUMP JUMPDEST POP PUSH1 0x20 DUP4 ADD MLOAD PUSH2 0x1B68 PUSH1 0x20 DUP7 ADD DUP3 PUSH2 0x1AD0 JUMP JUMPDEST POP PUSH1 0x40 DUP4 ADD MLOAD DUP5 DUP3 SUB PUSH1 0x40 DUP7 ADD MSTORE PUSH2 0x1B80 DUP3 DUP3 PUSH2 0x1AF9 JUMP JUMPDEST SWAP2 POP POP PUSH1 0x60 DUP4 ADD MLOAD DUP5 DUP3 SUB PUSH1 0x60 DUP7 ADD MSTORE PUSH2 0x1B9A DUP3 DUP3 PUSH2 0x1AF9 JUMP JUMPDEST SWAP2 POP POP PUSH1 0x80 DUP4 ADD MLOAD PUSH2 0x1BAF PUSH1 0x80 DUP7 ADD DUP3 PUSH2 0x1B31 JUMP JUMPDEST POP DUP1 SWAP2 POP POP SWAP3 SWAP2 POP POP JUMP JUMPDEST PUSH0 PUSH1 0x40 DUP3 ADD SWAP1 POP DUP2 DUP2 SUB PUSH0 DUP4 ADD MSTORE PUSH2 0x1BD2 DUP2 DUP6 PUSH2 0x1B40 JUMP JUMPDEST SWAP1 POP PUSH2 0x1BE1 PUSH1 0x20 DUP4 ADD DUP5 PUSH2 0x155B JUMP JUMPDEST SWAP4 SWAP3 POP POP POP JUMP JUMPDEST PUSH0 DUP1 REVERT JUMPDEST PUSH32 0x4E487B7100000000000000000000000000000000000000000000000000000000 PUSH0 MSTORE PUSH1 0x41 PUSH1 0x4 MSTORE PUSH1 0x24 PUSH0 REVERT JUMPDEST PUSH2 0x1C22 DUP3 PUSH2 0x15AB JUMP JUMPDEST DUP2 ADD DUP2 DUP2 LT PUSH8 0xFFFFFFFFFFFFFFFF DUP3 GT OR ISZERO PUSH2 0x1C41 JUMPI PUSH2 0x1C40 PUSH2 0x1BEC JUMP JUMPDEST JUMPDEST DUP1 PUSH1 0x40 MSTORE POP POP POP JUMP JUMPDEST PUSH0 PUSH2 0x1C53 PUSH2 0x11B6 JUMP JUMPDEST SWAP1 POP PUSH2 0x1C5F DUP3 DUP3 PUSH2 0x1C19 JUMP JUMPDEST SWAP2 SWAP1 POP JUMP JUMPDEST PUSH0 DUP2 MLOAD SWAP1 POP PUSH2 0x1C72 DUP2 PUSH2 0x1263 JUMP JUMPDEST SWAP3 SWAP2 POP POP JUMP JUMPDEST PUSH2 0x1C81 DUP2 PUSH2 0x13FF JUMP JUMPDEST DUP2 EQ PUSH2 0x1C8B JUMPI PUSH0 DUP1 REVERT JUMPDEST POP JUMP JUMPDEST PUSH0 DUP2 MLOAD SWAP1 POP PUSH2 0x1C9C DUP2 PUSH2 0x1C78 JUMP JUMPDEST SWAP3 SWAP2 POP POP JUMP JUMPDEST PUSH0 DUP2 MLOAD SWAP1 POP PUSH2 0x1CB0 DUP2 PUSH2 0x11D0 JUMP JUMPDEST SWAP3 SWAP2 POP POP JUMP JUMPDEST PUSH0 PUSH1 0x40 DUP3 DUP5 SUB SLT ISZERO PUSH2 0x1CCB JUMPI PUSH2 0x1CCA PUSH2 0x1BE8 JUMP JUMPDEST JUMPDEST PUSH2 0x1CD5 PUSH1 0x40 PUSH2 0x1C4A JUMP JUMPDEST SWAP1 POP PUSH0 PUSH2 0x1CE4 DUP5 DUP3 DUP6 ADD PUSH2 0x1CA2 JUMP JUMPDEST PUSH0 DUP4 ADD MSTORE POP PUSH1 0x20 PUSH2 0x1CF7 DUP5 DUP3 DUP6 ADD PUSH2 0x1CA2 JUMP JUMPDEST PUSH1 0x20 DUP4 ADD MSTORE POP SWAP3 SWAP2 POP POP JUMP JUMPDEST PUSH0 PUSH1 0x80 DUP3 DUP5 SUB SLT ISZERO PUSH2 0x1D18 JUMPI PUSH2 0x1D17 PUSH2 0x1BE8 JUMP JUMPDEST JUMPDEST PUSH2 0x1D22 PUSH1 0x60 PUSH2 0x1C4A JUMP JUMPDEST SWAP1 POP PUSH0 PUSH2 0x1D31 DUP5 DUP3 DUP6 ADD PUSH2 0x1C64 JUMP JUMPDEST PUSH0 DUP4 ADD MSTORE POP PUSH1 0x20 PUSH2 0x1D44 DUP5 DUP3 DUP6 ADD PUSH2 0x1C8E JUMP JUMPDEST PUSH1 0x20 DUP4 ADD MSTORE POP PUSH1 0x40 PUSH2 0x1D58 DUP5 DUP3 DUP6 ADD PUSH2 0x1CB6 JUMP JUMPDEST PUSH1 0x40 DUP4 ADD MSTORE POP SWAP3 SWAP2 POP POP JUMP JUMPDEST PUSH0 PUSH1 0x80 DUP3 DUP5 SUB SLT ISZERO PUSH2 0x1D79 JUMPI PUSH2 0x1D78 PUSH2 0x11BF JUMP JUMPDEST JUMPDEST PUSH0 PUSH2 0x1D86 DUP5 DUP3 DUP6 ADD PUSH2 0x1D03 JUMP JUMPDEST SWAP2 POP POP SWAP3 SWAP2 POP POP JUMP JUMPDEST PUSH0 PUSH1 0x20 DUP3 ADD SWAP1 POP PUSH2 0x1DA2 PUSH0 DUP4 ADD DUP5 PUSH2 0x1924 JUMP JUMPDEST SWAP3 SWAP2 POP POP JUMP JUMPDEST PUSH0 DUP2 MLOAD SWAP1 POP PUSH2 0x1DB6 DUP2 PUSH2 0x131E JUMP JUMPDEST SWAP3 SWAP2 POP POP JUMP JUMPDEST PUSH0 PUSH1 0x20 DUP3 DUP5 SUB SLT ISZERO PUSH2 0x1DD1 JUMPI PUSH2 0x1DD0 PUSH2 0x11BF JUMP JUMPDEST JUMPDEST PUSH0 PUSH2 0x1DDE DUP5 DUP3 DUP6 ADD PUSH2 0x1DA8 JUMP JUMPDEST SWAP2 POP POP SWAP3 SWAP2 POP POP JUMP JUMPDEST PUSH0 PUSH1 0x60 DUP3 ADD SWAP1 POP PUSH2 0x1DFA PUSH0 DUP4 ADD DUP7 PUSH2 0x155B JUMP JUMPDEST PUSH2 0x1E07 PUSH1 0x20 DUP4 ADD DUP6 PUSH2 0x155B JUMP JUMPDEST PUSH2 0x1E14 PUSH1 0x40 DUP4 ADD DUP5 PUSH2 0x1924 JUMP JUMPDEST SWAP5 SWAP4 POP POP POP POP JUMP JUMPDEST PUSH2 0x1E25 DUP2 PUSH2 0x186D JUMP JUMPDEST DUP2 EQ PUSH2 0x1E2F JUMPI PUSH0 DUP1 REVERT JUMPDEST POP JUMP JUMPDEST PUSH0 DUP2 MLOAD SWAP1 POP PUSH2 0x1E40 DUP2 PUSH2 0x1E1C JUMP JUMPDEST SWAP3 SWAP2 POP POP JUMP JUMPDEST PUSH0 PUSH1 0x20 DUP3 DUP5 SUB SLT ISZERO PUSH2 0x1E5B JUMPI PUSH2 0x1E5A PUSH2 0x11BF JUMP JUMPDEST JUMPDEST PUSH0 PUSH2 0x1E68 DUP5 DUP3 DUP6 ADD PUSH2 0x1E32 JUMP JUMPDEST SWAP2 POP POP SWAP3 SWAP2 POP POP JUMP JUMPDEST PUSH0 DUP2 SWAP1 POP SWAP3 SWAP2 POP POP JUMP JUMPDEST PUSH0 PUSH2 0x1E85 DUP3 PUSH2 0x1ADF JUMP JUMPDEST PUSH2 0x1E8F DUP2 DUP6 PUSH2 0x1E71 JUMP JUMPDEST SWAP4 POP PUSH2 0x1E9F DUP2 DUP6 PUSH1 0x20 DUP7 ADD PUSH2 0x159D JUMP JUMPDEST DUP1 DUP5 ADD SWAP2 POP POP SWAP3 SWAP2 POP POP JUMP JUMPDEST PUSH0 PUSH2 0x1EB6 DUP3 DUP5 PUSH2 0x1E7B JUMP JUMPDEST SWAP2 POP DUP2 SWAP1 POP SWAP3 SWAP2 POP POP JUMP INVALID LOG2 PUSH5 0x6970667358 0x22 SLT KECCAK256 0x28 0xE9 0xE3 DUP6 0xA9 BYTE 0xFC DUP16 SWAP3 SHR ADDRESS 0xE5 0xCF DUP10 0x2E BASEFEE PUSH1 0x96 SWAP14 DUP8 0xC7 PUSH14 0x9AF0197AD66407BD2B4B64736F6C PUSH4 0x43000819 STOP CALLER "
		},
		"gasEstimates": {
			"creation": {
				"codeDepositCost": "1585400",
				"executionCost": "infinite",
				"totalCost": "infinite"
			},
			"external": {
				"allowInitializePath((uint32,bytes32,uint64))": "3128",
				"cancelAllLimitOrders(uint256)": "534",
				"cancelLimitOrder(uint256,uint256)": "infinite",
				"composeMsgSender()": "401",
				"data()": "infinite",
				"eid()": "2540",
				"eidArbitrumSepolia()": "2555",
				"endpoint()": "infinite",
				"hookContract()": "2597",
				"lzReceive((uint32,bytes32,uint64),bytes32,bytes,address,bytes)": "infinite",
				"mainContract()": "infinite",
				"nextNonce(uint32,bytes32)": "791",
				"oAppVersion()": "infinite",
				"owner()": "2560",
				"peers(uint32)": "2804",
				"placeLimitOrder(uint256,address,address,uint256,uint256,address,bytes)": "infinite",
				"placeMarketOrder(uint256,address,address,uint256,uint256)": "infinite",
				"renounceOwnership()": "infinite",
				"retrieveLimitOrder(uint256,uint256)": "infinite",
				"setDelegate(address)": "infinite",
				"setPeer(uint32,bytes32)": "infinite",
				"transferOwnership(address)": "infinite"
			},
			"internal": {
				"_lzReceive(struct Origin calldata,bytes32,bytes calldata,address,bytes calldata)": "infinite"
			}
		},
		"methodIdentifiers": {
			"allowInitializePath((uint32,bytes32,uint64))": "ff7bd03d",
			"cancelAllLimitOrders(uint256)": "79063cd4",
			"cancelLimitOrder(uint256,uint256)": "3486f756",
			"composeMsgSender()": "b92d0eff",
			"data()": "73d4a13a",
			"eid()": "416ecebf",
			"eidArbitrumSepolia()": "aa300b8b",
			"endpoint()": "5e280f11",
			"hookContract()": "72cb4075",
			"lzReceive((uint32,bytes32,uint64),bytes32,bytes,address,bytes)": "13137d65",
			"mainContract()": "d270e7ab",
			"nextNonce(uint32,bytes32)": "7d25a05e",
			"oAppVersion()": "17442b70",
			"owner()": "8da5cb5b",
			"peers(uint32)": "bb0b6a53",
			"placeLimitOrder(uint256,address,address,uint256,uint256,address,bytes)": "b6ae5ba8",
			"placeMarketOrder(uint256,address,address,uint256,uint256)": "9d17a688",
			"renounceOwnership()": "715018a6",
			"retrieveLimitOrder(uint256,uint256)": "024ec13d",
			"setDelegate(address)": "ca5eb5e1",
			"setPeer(uint32,bytes32)": "3400288b",
			"transferOwnership(address)": "f2fde38b"
		}
	},
	"abi": [
		{
			"inputs": [
				{
					"internalType": "address",
					"name": "_endpoint",
					"type": "address"
				},
				{
					"internalType": "address",
					"name": "_mainContract",
					"type": "address"
				},
				{
					"internalType": "address",
					"name": "_hookContract",
					"type": "address"
				},
				{
					"internalType": "uint32",
					"name": "_eid",
					"type": "uint32"
				},
				{
					"internalType": "address",
					"name": "_owner",
					"type": "address"
				}
			],
			"stateMutability": "nonpayable",
			"type": "constructor"
		},
		{
			"inputs": [
				{
					"internalType": "address",
					"name": "target",
					"type": "address"
				}
			],
			"name": "AddressEmptyCode",
			"type": "error"
		},
		{
			"inputs": [
				{
					"internalType": "address",
					"name": "account",
					"type": "address"
				}
			],
			"name": "AddressInsufficientBalance",
			"type": "error"
		},
		{
			"inputs": [],
			"name": "FailedInnerCall",
			"type": "error"
		},
		{
			"inputs": [],
			"name": "InvalidDelegate",
			"type": "error"
		},
		{
			"inputs": [],
			"name": "InvalidEndpointCall",
			"type": "error"
		},
		{
			"inputs": [],
			"name": "LzTokenUnavailable",
			"type": "error"
		},
		{
			"inputs": [
				{
					"internalType": "uint32",
					"name": "eid",
					"type": "uint32"
				}
			],
			"name": "NoPeer",
			"type": "error"
		},
		{
			"inputs": [
				{
					"internalType": "uint256",
					"name": "msgValue",
					"type": "uint256"
				}
			],
			"name": "NotEnoughNative",
			"type": "error"
		},
		{
			"inputs": [
				{
					"internalType": "address",
					"name": "addr",
					"type": "address"
				}
			],
			"name": "OnlyEndpoint",
			"type": "error"
		},
		{
			"inputs": [
				{
					"internalType": "uint32",
					"name": "eid",
					"type": "uint32"
				},
				{
					"internalType": "bytes32",
					"name": "sender",
					"type": "bytes32"
				}
			],
			"name": "OnlyPeer",
			"type": "error"
		},
		{
			"inputs": [
				{
					"internalType": "address",
					"name": "owner",
					"type": "address"
				}
			],
			"name": "OwnableInvalidOwner",
			"type": "error"
		},
		{
			"inputs": [
				{
					"internalType": "address",
					"name": "account",
					"type": "address"
				}
			],
			"name": "OwnableUnauthorizedAccount",
			"type": "error"
		},
		{
			"inputs": [
				{
					"internalType": "address",
					"name": "token",
					"type": "address"
				}
			],
			"name": "SafeERC20FailedOperation",
			"type": "error"
		},
		{
			"anonymous": false,
			"inputs": [
				{
					"indexed": true,
					"internalType": "address",
					"name": "previousOwner",
					"type": "address"
				},
				{
					"indexed": true,
					"internalType": "address",
					"name": "newOwner",
					"type": "address"
				}
			],
			"name": "OwnershipTransferred",
			"type": "event"
		},
		{
			"anonymous": false,
			"inputs": [
				{
					"indexed": false,
					"internalType": "uint32",
					"name": "eid",
					"type": "uint32"
				},
				{
					"indexed": false,
					"internalType": "bytes32",
					"name": "peer",
					"type": "bytes32"
				}
			],
			"name": "PeerSet",
			"type": "event"
		},
		{
			"inputs": [
				{
					"components": [
						{
							"internalType": "uint32",
							"name": "srcEid",
							"type": "uint32"
						},
						{
							"internalType": "bytes32",
							"name": "sender",
							"type": "bytes32"
						},
						{
							"internalType": "uint64",
							"name": "nonce",
							"type": "uint64"
						}
					],
					"internalType": "struct Origin",
					"name": "origin",
					"type": "tuple"
				}
			],
			"name": "allowInitializePath",
			"outputs": [
				{
					"internalType": "bool",
					"name": "",
					"type": "bool"
				}
			],
			"stateMutability": "view",
			"type": "function"
		},
		{
			"inputs": [
				{
					"internalType": "uint256",
					"name": "sender",
					"type": "uint256"
				}
			],
			"name": "cancelAllLimitOrders",
			"outputs": [],
			"stateMutability": "nonpayable",
			"type": "function"
		},
		{
			"inputs": [
				{
					"internalType": "uint256",
					"name": "orderId",
					"type": "uint256"
				},
				{
					"internalType": "uint256",
					"name": "sender",
					"type": "uint256"
				}
			],
			"name": "cancelLimitOrder",
			"outputs": [],
			"stateMutability": "nonpayable",
			"type": "function"
		},
		{
			"inputs": [],
			"name": "composeMsgSender",
			"outputs": [
				{
					"internalType": "address",
					"name": "sender",
					"type": "address"
				}
			],
			"stateMutability": "view",
			"type": "function"
		},
		{
			"inputs": [],
			"name": "data",
			"outputs": [
				{
					"internalType": "string",
					"name": "",
					"type": "string"
				}
			],
			"stateMutability": "view",
			"type": "function"
		},
		{
			"inputs": [],
			"name": "eid",
			"outputs": [
				{
					"internalType": "uint32",
					"name": "",
					"type": "uint32"
				}
			],
			"stateMutability": "view",
			"type": "function"
		},
		{
			"inputs": [],
			"name": "eidArbitrumSepolia",
			"outputs": [
				{
					"internalType": "uint32",
					"name": "",
					"type": "uint32"
				}
			],
			"stateMutability": "view",
			"type": "function"
		},
		{
			"inputs": [],
			"name": "endpoint",
			"outputs": [
				{
					"internalType": "contract ILayerZeroEndpointV2",
					"name": "",
					"type": "address"
				}
			],
			"stateMutability": "view",
			"type": "function"
		},
		{
			"inputs": [],
			"name": "hookContract",
			"outputs": [
				{
					"internalType": "address",
					"name": "",
					"type": "address"
				}
			],
			"stateMutability": "view",
			"type": "function"
		},
		{
			"inputs": [
				{
					"components": [
						{
							"internalType": "uint32",
							"name": "srcEid",
							"type": "uint32"
						},
						{
							"internalType": "bytes32",
							"name": "sender",
							"type": "bytes32"
						},
						{
							"internalType": "uint64",
							"name": "nonce",
							"type": "uint64"
						}
					],
					"internalType": "struct Origin",
					"name": "_origin",
					"type": "tuple"
				},
				{
					"internalType": "bytes32",
					"name": "_guid",
					"type": "bytes32"
				},
				{
					"internalType": "bytes",
					"name": "_message",
					"type": "bytes"
				},
				{
					"internalType": "address",
					"name": "_executor",
					"type": "address"
				},
				{
					"internalType": "bytes",
					"name": "_extraData",
					"type": "bytes"
				}
			],
			"name": "lzReceive",
			"outputs": [],
			"stateMutability": "payable",
			"type": "function"
		},
		{
			"inputs": [],
			"name": "mainContract",
			"outputs": [
				{
					"internalType": "contract MainContract",
					"name": "",
					"type": "address"
				}
			],
			"stateMutability": "view",
			"type": "function"
		},
		{
			"inputs": [
				{
					"internalType": "uint32",
					"name": "",
					"type": "uint32"
				},
				{
					"internalType": "bytes32",
					"name": "",
					"type": "bytes32"
				}
			],
			"name": "nextNonce",
			"outputs": [
				{
					"internalType": "uint64",
					"name": "nonce",
					"type": "uint64"
				}
			],
			"stateMutability": "view",
			"type": "function"
		},
		{
			"inputs": [],
			"name": "oAppVersion",
			"outputs": [
				{
					"internalType": "uint64",
					"name": "senderVersion",
					"type": "uint64"
				},
				{
					"internalType": "uint64",
					"name": "receiverVersion",
					"type": "uint64"
				}
			],
			"stateMutability": "pure",
			"type": "function"
		},
		{
			"inputs": [],
			"name": "owner",
			"outputs": [
				{
					"internalType": "address",
					"name": "",
					"type": "address"
				}
			],
			"stateMutability": "view",
			"type": "function"
		},
		{
			"inputs": [
				{
					"internalType": "uint32",
					"name": "eid",
					"type": "uint32"
				}
			],
			"name": "peers",
			"outputs": [
				{
					"internalType": "bytes32",
					"name": "peer",
					"type": "bytes32"
				}
			],
			"stateMutability": "view",
			"type": "function"
		},
		{
			"inputs": [
				{
					"internalType": "uint256",
					"name": "orderType",
					"type": "uint256"
				},
				{
					"internalType": "address",
					"name": "token0",
					"type": "address"
				},
				{
					"internalType": "address",
					"name": "token1",
					"type": "address"
				},
				{
					"internalType": "uint256",
					"name": "amount",
					"type": "uint256"
				},
				{
					"internalType": "uint256",
					"name": "price",
					"type": "uint256"
				},
				{
					"internalType": "address",
					"name": "sender",
					"type": "address"
				},
				{
					"internalType": "bytes",
					"name": "_options",
					"type": "bytes"
				}
			],
			"name": "placeLimitOrder",
			"outputs": [],
			"stateMutability": "payable",
			"type": "function"
		},
		{
			"inputs": [
				{
					"internalType": "uint256",
					"name": "orderType",
					"type": "uint256"
				},
				{
					"internalType": "address",
					"name": "token0",
					"type": "address"
				},
				{
					"internalType": "address",
					"name": "token1",
					"type": "address"
				},
				{
					"internalType": "uint256",
					"name": "amount",
					"type": "uint256"
				},
				{
					"internalType": "uint256",
					"name": "sender",
					"type": "uint256"
				}
			],
			"name": "placeMarketOrder",
			"outputs": [],
			"stateMutability": "nonpayable",
			"type": "function"
		},
		{
			"inputs": [],
			"name": "renounceOwnership",
			"outputs": [],
			"stateMutability": "nonpayable",
			"type": "function"
		},
		{
			"inputs": [
				{
					"internalType": "uint256",
					"name": "index",
					"type": "uint256"
				},
				{
					"internalType": "uint256",
					"name": "sender",
					"type": "uint256"
				}
			],
			"name": "retrieveLimitOrder",
			"outputs": [],
			"stateMutability": "view",
			"type": "function"
		},
		{
			"inputs": [
				{
					"internalType": "address",
					"name": "_delegate",
					"type": "address"
				}
			],
			"name": "setDelegate",
			"outputs": [],
			"stateMutability": "nonpayable",
			"type": "function"
		},
		{
			"inputs": [
				{
					"internalType": "uint32",
					"name": "_eid",
					"type": "uint32"
				},
				{
					"internalType": "bytes32",
					"name": "_peer",
					"type": "bytes32"
				}
			],
			"name": "setPeer",
			"outputs": [],
			"stateMutability": "nonpayable",
			"type": "function"
		},
		{
			"inputs": [
				{
					"internalType": "address",
					"name": "newOwner",
					"type": "address"
				}
			],
			"name": "transferOwnership",
			"outputs": [],
			"stateMutability": "nonpayable",
			"type": "function"
		}
	]
}